:10364C006873636F6D20312031206368303A312507
:10365C00316278206368313A3025316278206368B2
:10366C00323A3025316278206368333A3025316242
:10367C00780A0D006873636F6D2031203120636808
:10368C00313A3125316278206368303A3025316225
:10369C0078206368323A3025316278206368333A97
:1036AC0030253162780A0D006873636F6D2031200C
:1036BC0031206368323A3125316278206368303AC0
:1036CC003025316278206368313A302531627820B8
:1036DC006368333A30253162780A0D006873636F82
:1036EC006D20312031206368333A312531627820E6
:1036FC006368303A3025316278206368313A30257E
:10370C00316278206368323A30253162780A0D00D4
:10371C006873636F6D20322032206368303A312534
:10372C00316278206368313A3025316278206368E1
:10373C00323A3025316278206368333A3025316271
:10374C00780A0D006873636F6D2032203220636835
:10375C00323A3025316278206368333A3125316250
:10376C0078206368303A3025316278206368313ACA
:10377C0030253162780A0D006873636F6D2032203A
:10378C0032206368303A3025316278206368333AEE
:10379C003125316278206368313A302531627820E6
:1037AC006368323A30253162780A0D006873636FB2
:1037BC006D20322032206368333A31253162782013
:1037CC006368313A3025316278206368303A3025AD
:1037DC00316278206368323A30253162780A0D0004
:1037EC006873636F6D20332031206368333A312561
:1037FC00316278206368303A302531627820636812
:10380C00313A3025316278206368323A30253162A2
:10381C00780A0D006873636F6D2033203320636862
:10382C00303A3025316278206368313A3025316284
:10383C0078206368333A3125316278206368323AF4
:10384C0030253162780A0D006873636F6D20332068
:10385C0034206368303A3025316278206368313A1D
:10386C003025316278206368333A31253162782013
:10387C006368323A30253162780A0D006873636FE1
:10388C006D20342031206368303A30253162782045
:10389C006368313A3025316278206368323A3025DA
:1038AC00316278206368333A31253162780A0D0031
:1038BC006873636F6D20322032206368303A312593
:1038CC00316278206368323A30253162782063683F
:1038DC00313A3025316278206368333A30253162D1
:1038EC00780A0D006873636F6D2032203220636894
:1038FC00323A3125316278206368313A30253162B1
:10390C0078206368303A3025316278206368333A26
:10391C0030253162780A0D006873636F6D20332097
:10392C0033206368333A3125316278206368303A4A
:10393C003025316278206368313A30253162782045
:10394C006368323A30253162780A0D006873636F10
:10395C006D20322032206368333A31253162782071
:10396C006368323A3025316278206368313A302509
:10397C00316278206368303A30253162780A0D0064
:10398C006873636F6D20332031206368333A3125BF
:10399C00316278206368303A302531627820636870
:1039AC00323A3025316278206368313A3025316201
:1039BC00780A0D006873636F6D20332031206368C3
:1039CC00333A3125316278206368313A30253162DF
:1039DC0078206368323A3025316278206368303A57
:1039EC0030253162780A0D006873636F6D203320C7
:1039FC0033206368333A3125316278206368303A7A
:103A0C003025316278206368323A30253162782073
:103A1C006368313A30253162780A0D006873636F40
:103A2C006D20332033206368333A3125316278209E
:103A3C006368313A3025316278206368323A302538
:103A4C00316278206368303A30253162780A0D0093
:103A5C006873636F6D20332033206368303A3125EF
:103A6C00316278206368313A30253162782063689E
:103A7C00323A3025316278206368333A302531622E
:103A8C00780A0D006873636F6D20332033206368F0
:103A9C00303A3025316278206368323A3025316211
:103AAC0078206368333A3125316278206368313A83
:103ABC0030253162780A0D006873636F6D203220F7
:103ACC0032206368313A3125316278206368303AAC
:103ADC003025316278206368323A302531627820A3
:103AEC006368333A30253162780A0D006873636F6E
:103AFC006D20322032206368313A312531627820D2
:103B0C006368323A3025316278206368333A302565
:103B1C00316278206368303A30253162780A0D00C2
:103B2C006873636F6D20322032206368313A302520
:103B3C00316278206368333A3125316278206368CA
:103B4C00323A3025316278206368303A3025316260
:103B5C00780A0D006873636F6D203320332063681F
:103B6C00313A3125316278206368303A3025316240
:103B7C0078206368323A3025316278206368333AB2
:103B8C0030253162780A0D006873636F6D20332025
:103B9C0033206368313A3025316278206368303ADB
:103BAC003025316278206368333A312531627820D0
:103BBC006368323A30253162780A0D006873636F9E
:103BCC006D20332033206368313A30253162782000
:103BDC006368323A3025316278206368333A312594
:103BEC00316278206368303A30253162780A0D00F2
:103BFC006873636F6D20322032206368323A31254E
:103C0C00316278206368303A3025316278206368FD
:103C1C00313A3025316278206368333A302531628D
:103C2C00780A0D006873636F6D2032203220636850
:103C3C00323A3125316278206368313A302531626D
:103C4C0078206368333A3025316278206368303AE3
:103C5C0030253162780A0D006873636F6D20322055
:103C6C0032206368323A3025316278206368333A07
:103C7C003125316278206368313A30253162782001
:103C8C006368303A30253162780A0D006873636FCF
:103C9C006D20332033206368323A3125316278202D
:103CAC006368303A3025316278206368313A3025C8
:103CBC00316278206368333A30253162780A0D001E
:103CCC006873636F6D20332033206368323A30257C
:103CDC00316278206368303A30253162782063682D
:103CEC00333A3125316278206368313A30253162BC
:103CFC00780A0D006873636F6D203320332063687E
:103D0C00323A3025316278206368313A302531629D
:103D1C0078206368333A3125316278206368303A11
:103D2C0030253162780A0D000D0A507265762E46E8
:103D3C00573A25303478000D0A437572722E465767
:103D4C003A25303478000D0A43616E6E6F74206131
:103D5C00636365737320454550524F4D21212121DA
:103D6C00000D0A4E6F20696E697469616C697A6521
:103D7C0000545738383136005457383831364200F1
:103D8C00545738383137004E6F7468696E67202D80
:103D9C002D3078253032780D0A00436865636B202E
:103DAC00616761696E202D2D3078253032780D0ACF
:103DBC00004C61737420436865636B202D2D307843
:103DCC00253032780D0A00FF364CFF3680FF36B4B2
:103DDC00FF36E8FF371CFF3750FF3784FF37B8FF3B
:103DEC0037ECFF3820FF3854FF3888FF38BCFF38D9
:103DFC00F0FF3924FF3958FF398CFF39C0FF39F4F3
:103E0C00FF3A28FF3A5CFF3A90FF3AC4FF3AF8FFBA
:103E1C003B2CFF3B60FF3B94FF3BC8FF3BFCFF3C54
:103E2C0030FF3C64FF3C98FF3CCCFF3D002D2D2D1A
:103E3C003E2050616E656C3A20575647412D383004
:103E4C00302A343830202D2D205449434F4E4C45C8
:0C3E5C0053532048532037696E63680000
:10775B00014200014500C109C10802460000014475
:10776B0000025500004100F001C10AC10B4100F3BA
:10777B00004100F1004100F4004400F5000000005E
:109B3100ED90001EF090001CE090001F2290001C90
:109B4100E090001EF022EBA3F090001DE0900020B9
:109B51002290001DE0A3F0A32290001EF090001DB2
:0F9B6100E090001F22900029F0A3EFF07BFF227D
:106E92007DE07F8A129D5DEF54EFFB7DE07F8A12D9
:106EA200A1A412916C900002EE129B697A3D793492
:106EB200900029EEF0A3EFF012A13112916CEF6471
:106EC200107003EE640260287BFF7A3D79439000E4
:106ED200297402F0A37410F012A1317F107E021205
:106EE20099E512916CEE129B667A3D794312A131BB
:106EF20012916CBE022ABF1027900002E064027059
:106F020004A3E06410600F9000DBE0FF12A6037F91
:106F12000112A61E802F12A6779000DBEFF08025CB
:106F22007BFF7A3D795212A1317BFF7A3D796D1256
:106F3200A1319000DB74FFF07F01128FD81292E929
:106F4200E4FF028BE17F087E0012A17E9000E3EF56
:106F5200F06004E0FF80027F01128FD81288C8908F
:106F620000D974FEF0129344129DCF7F6412A4AD37
:106F72007DFF126F987D82126F98E4FB7DFF7F8AFE
:106F820012A1A47BFF7DD07F8A12A1A47BFF7DD1B9
:056F92007F8A12A1A49A
:096F9700227B017F8A12A1A422D1
:1098310075F68775F65975BF10E4F5F6758DF475F3
:109841009850758922758855758A40758C40758741
:109851008075B80275A892D299D2ACF5C8C2CAD2A5
:10986100AD75AA5075BAF443A61843AD10C20B7575
:0B987100DE4243D840F5B175B2202262
:03000B000269AED9
:0B69AE00C0E0C083C082C0D075D008DC
:1069B90005549000F2E0600214F09000F2E07033A8
:1069C900E5A05460C4135403FF9000F8E06F6023FE
:1069D9009000F6E09000F5F09000F7E09000F6F0F6
:1069E9009000F8E09000F7F0A3EFF0D20C9000F2DD
:1069F9007430F0E554D394605003026AFF0549E509
:106A090049700205487554000544E544646460030F
:106A1900026AB79000E2E094FF5003E004F0E562F7
:106A29002401FFE43561FEE43560FDE4355F8F62E2
:106A39008E618D60F55F75440090006AE004F09006
:106A490000FCE0D394004003E014F0300D06900000
:106A5900F1E004F03003069000F4E004F090006ADD
:106A6900E0B43C08E4F090007DE004F090007DE0A3
:106A7900B43C08E4F0900089E004F0900089E0B4A7
:106A89001808E4F0900088E004F0E5459000F36010
:106A990005E004F08002E4F0900086E020E00F9029
:106AA90000A6E0F460089000F0E0600204F0E5560A
:106AB900F47003E555F460080556E556700205556E
:106AC900E5A0F4549C6029E542B4030DE5A0F45413
:106AD9009CF545C208D2098013E542B4640EE5A0CD
:106AE900F4549CF545D208D20975425005428006F6
:066AF90075420075450026
:096AFF00D0D0D082D083D0E03267
:10A32200E4F562F561F560F55F9000DBF07F6412A1
:0EA33200A4ADC21712A642D2B47F0102A4ADA0
:10883D00E4FD7F8A129D5DEF24DE601024D9601463
:10884D00242870197BFF7A3D797D800E7BFF7A3D60
:10885D00798480067BFF7A3D798C02A4791288A9F0
:10886D007A3D799312A13112A5F8EF701B1288A9E8
:10887D007A3D79A612A1311288BBEF60EAE4FD7F43
:10888D008A129D5DEFF460DF7F6312A4AD1288BB89
:10889D00E4129B667A3D79BD12A13122E4FD7F8AF7
:1088AD00129D5D900029E4F0A3EFF07BFF227F6322
:0B88BD0012A4ADE4FD7F8A129D5D2235
:10A34000EFB4010553E8FE8011EF700743E80153B5
:0EA35000E8FD22EFB4020643E80143E80222D2
:03001300020026C2
:03002600C2AA3239
:03002300029E3CFE
:109E3C00C0E0C0D075D00830981EC298AF99744A53
:109E4C002552F8EFF674572552F8A60F0552E55235
:109E5C00C394084003755200309904C299C20AD0C9
:049E6C00D0D0E03240
:03006300029F0AEF
:109F0A00C0E0C0D075D008E5AA30E01653AAFE74A6
:109F1A00242543F8A69A0543E543C3941E400375D6
:109F2A004300E5AA30E10553AAFDC20BD0D0D0E028
:019F3A0032F4
:0BA5F800E552B553037F00227F0122D3
:08000300200AFD8F99D20A22A8
:08A66F00200BFD8F9AD20B2293
:03002B0002A557D4
:0FA55700C0E0C2CF0547E54770020546D0E032AD
:10A4AD00E5442FFFE433FE7C007D64123FC8E54494
:07A4BD00B505FBE4B504F74F
:01A4C4002275
:109CE600900026E4F0A3E544F0E47B3CFAF9F8AFF3
:109CF60062AE61AD60AC5F124176AC00AD01AE0202
:109D0600AF03E47B64FAF9F81240EB900026EE8F7D
:0C9D1600F0124053900026E0FEA3E0FF96
:019D2200221E
:10A2E400C3ED9FEC9E5010C374709FFF74179EFEC5
:0FA2F400EF2DFFEE3CFE22C3ED9FFFEC9EFE22FE
:08991100900026EEF0A3EFF038
:10991900900026E07002A3E06035E4900028F0A3EF
:10992900F0900028E0FEA3E0FFE4FCFD7BD8FAF903
:10993900F8D3124208400C900028E475F001124057
:0F9949005380DE90002674FFF5F012405380C16A
:0199580022EC
:06535F00900019EFF0FCC4
:10536500ED4410FDEB4410FB90001CE04410F0A34D
:10537500E04410F0EC12433353E70053E90153F2D4
:105385000253F90353FF04541005541306541C0724
:1053950053F908543C09543C0A53E70B54250C5463
:1053A5002D0D53F90E544B0F545910546411545983
:1053B5001254641353FF1454721553E916547C1791
:1053C50054851853E91954921A547C1B53F21C54F2
:1053D500A61D54101E53F21F54BD2054A6210000D3
:1053E50054CE801690001EEBF0A3ED8014129B3E68
:1053F500A3ED802F129B52ED801890001EEDF0A3B7
:10540500EBF090001CE090002080250254B2ED12D4
:105415009B5AF0A3EB8028129B52EBF0A3ED801F63
:10542500129B31F0A3EB8008129B3EA3EBF0A3ED9A
:10543500F090001D02549F90001EEDF0129B47F066
:1054450090001C02549F90001DE0A3129B35F0A311
:10545500EB0254AC129B52EDF090001C0254C612A4
:105465009B52EBF090001CE0900020803A129B319B
:10547500F090001D0254C6EB129B32129B49802707
:10548500EB129B5AF0A3EDF090001C800D90001ECE
:10549500EBF0ED129B48F090001CE0900021F080AD
:1054A50028129B3E129B47F0A3EDF0801C129B3EF9
:1054B500129B5EF0A3ED800D129B3EA3EDF09000D4
:1054C5001DE0900020F0A3EBF0E4900022F09000A6
:1054D50022E0FFC39408501174572FF8E4F6744A7C
:1054E5002FF8E4F6E004F080E5E4900023F0900066
:1054F50019E0FF3395E0FE903DD375F003EF1242BE
:10550500A2EE75F003A42583F5831242D790001E01
:10551500E0900029F090001FE090002AF090002014
:10552500E090002BF0900021E090002CF012A131CA
:10553500129CE6900024EEF0A3EFF0129CE6C390D7
:105545000025E09FFF900024E09EFE12A5ECC3EF2E
:105555009428EE6480948040E2E4900022F090006C
:1055650022E0FFC39408502B74572FF8E66441706E
:105575001AE00454072457F8E6B4430FEF24025405
:10558500072457F8E6B44B037F0122900022E0047C
:10559500F080CB7FC87E00129911900023E004F0C3
:0B55A500E0C3940350030254F37F00A6
:0155B00022D8
:10965D000D0A2B2B28446973706C6179496E7075F6
:10966D0074293A20446973706C617965644F534471
:10967D003A2532780020000D0A2B2B28446973708F
:10968D006C6179566F6C2900202020545738383082
:10969D0036202020005465636877656C6C2C496E0C
:0296AD00630058
:04778B0041010000B8
:10A4DB0075F011A424C1F9746835F0FA7BFF229052
:06A4EB000056740CF02283
:1092E9009000047496F0A37495F07BFF7A7379B0BB
:1092F9001282EF7D18E4FFFE12A0587B0C7D07E473
:10930900FFFE129F3B7B0C7D047F0C7E00129F3B6E
:10931900900004E0FEA3E0AA06F97BFF12A4EAE4A8
:10932900FFFE129ED77BFF7A9679A212A4EAFF7EEE
:0B93390000129ED77D017F01029A29DF
:07A6B700E4FD7F01029A2976
:0CA5C800900100E0FEEFF4FFEE5FF022D7
:07A6BE00900100E04FF022C3
:06A6C500900100E0FF22FD
:109BEE0012A6B712A6C590001FEFF020E204E030D7
:109BFE00E70312A15890001FE030E00312A5669013
:109C0E00001FE030E40312A4C590001FE030E10312
:0D9C1E00129C6A90001FE030E60312A5843E
:019C2B002216
:1071A00012A6C5900029E4F0A3EFF07BFF7A967950
:1071B0005D12A13190001E74C2F0129BEE7BFF7A2B
:1071C00074790F1282EF7DFF7FA07E0012A0587BA2
:1071D000FF7D327FA07E00129F3BE490001DF09067
:1071E000001DE0FFC394F050197E007BFF7A967972
:1071F000829000567401F0129ED790001DE004F0BA
:1072000080DD900100E04410F012A6D190001AEF4A
:10721000F0129454EF75F011A42416F9746935F046
:10722000FA7BFF12A45E90001CEFF07FA37E001299
:10723000A17EEF6401606590001AE06401605D90DA
:10724000001D7401F090001DE0FF75F0119068C002
:107250001242A2E493FE90001AE0FDEE6D600890E9
:10726000001DE004F080DEEF12A4DB12A45E9000AB
:107270001BEFF090001DE012A4DB90001BE09000DB
:1072800056F07FA07E00129ED77D017F02129A29C0
:0C7290007F01129FFC129CE68E6A8F6B3F
:01729C0022CF
:10A4C500E4FF129FFCE4FD7F02129A29900100E04F
:06A4D50054EFF07F0122AC
:107D3F007BFF7A96798412A1317DFF127DFD7D82C2
:107D4F00127DFDE4FB7DFF7F8A12A1A4900100E06C
:107D5F0020E27C129BEE7F0A12A4AD7BFF7A74792E
:107D6F007E1282EF7D327FC87E0012A0587B197D74
:107D7F00377FC87E00129F3B7B197D737FE17E00AA
:107D8F00129F3B12A52575F003EF900AA51242A290
:107D9F001242D7AE02AF01900008EEF0A3EFF07BD6
:107DAF00FF12A45E900008E0FCA3E0AA04F97BFF99
:107DBF00900056EFF07FC87E00129ED77D017F01A5
:107DCF00129A29E4FD7F04129A297F01129FFC3039
:107DDF0014059001038003900102E0FF1286939037
:0D7DEF000100E04404F0129CE68E6A8F6BE8
:107DFC00227B017F8A12A1A47F057E001299112299
:0FA56600E4FD7F02129A29900100E054FEF022DA
:1089D800E4900008F012A6C5900007EFF0549660E6
:1089E80071E030E11512A64B900003EEF0A3EFF012
:1089F800A37407F0A374D0F08011900003E56AF027
:108A0800A3E56BF0A3E4F0A374C8F0129CE6AD07ED
:108A1800AC06900003E0FEA3E0FF12A2E4D39000AE
:108A280006E09F900005E09E5028900007E05484DF
:108A3800600B12A158900008EFF01271A090000787
:108A4800E030E10B129C6A900008EFF01271A07FF1
:048A580001227F0078
:018A5C0022F7
:10A15800900100E030E20A7F0112A17454FBF08004
:10A16800087F0212A174547FF07F0122E4FD129A45
:06A1780029900100E02225
:10916C00E4FFFE12A17EEF6454600280287F017E32
:10917C000012A17EEF64576002801A7F027E0012FB
:10918C00A17EEF64386002800C7F037E0012A17E0A
:10919C00EF64386004E4FEFF227F047E0012A17E9F
:1091AC00EF900004F0A3E4F07F05FE12A17E900086
:1091BC0004E0FEA3E04FFF900004EEF0FEA3EFF0FE
:0191CC002280
:1099E500900004EEF0A3EFF07D54E4FFFE129959C8
:1099F5007D577F017E001299597D387F027E0012C6
:109A050099597D387F037E00129959900004E0FD35
:109A15007F047E00129959900004A3E0FD7F057E26
:049A25000002995949
:08A677007F067E0012A17E2285
:09A60300AD077F067E00029959A3
:08A67F007F097E0012A17E227A
:09A60C00AD077F097E0002995997
:07A687007F0A7E0012A17E94
:01A68E0022A9
:1088C800E4900005F0900004F0900004E075F011C9
:1088D8009069151242A2E49312433388FF00890B72
:1088E80001891402891D03892604892F0589380600
:1088F80089410700008948900005E0FD7F0A7E0055
:10890800029959900005E04401F08034900005E098
:108918004402F0802B900005E04404F0802290008F
:1089280005E04408F08019900005E04410F080103C
:10893800900005E04420F08007900005E04440F0F6
:08894800900004E004F08081BE
:07A68F007F0D7E0012A17E89
:01A6960022A1
:09A61500AD077F0D7E000299598A
:02A2A300AB0707
:10A2A5009000D9E0FF7E007C007D06123FB6EF24CA
:0EA2B5000CFFE43EFEEF2BFFEC3EFE12A17EFE
:01A2C3002278
:10A503009000D9E075F006A4240C2FFF7E00029979
:01A5130059EE
:09A61E00AD077F0F7E000299597F
:07A697007F0C7E0012A17E82
:01A69E002299
:09A62700AD077F0C7E0002995979
:08A69F007F387E0012A17E222B
:09A63000AD077F387E0002995944
:08A6A7007F377E0012A17E2224
:09A63900AD077F377E000299593C
:10A35E009291D290120012C290221242AE8E82754B
:0EA36E008300123F77FF22EFF0A3EDF0A32251
:0B99590090002AEEF0A3EFF0A3EDF069
:1099640090002AE0FEA3E07807CEC313CE13D8F903
:1099740044A054FE90002DF012A4F190002DE0FFBD
:10998400128F0690002AA3E0FF128F0690002CE0AD
:0C999400FF128F061200167F0202A4AD25
:04A17E00AD07AC0677
:10A18200ED7807CEC313CE13D8F944A054FEFF12C4
:10A192009D5D900035EFF07F0212A4AD900035E096
:01A1A200FFBD
:01A1A3002299
:089D5D00900036EFF0A3EDF0D9
:109D650012A4F1900036E0FF128F06900037E0FF55
:109D7500128F0612A4F1900036E04401FF128F06FF
:109D8500129F6C900038EFF0120016900038E0FF3B
:019D950022AB
:10A1A40090005712A375EBF012A4F1900057E0FF52
:10A1B400128F06900058E0FF128F06900059E0FFBE
:06A1C400128F06020016D6
:089C2C0090003612A375EBF065
:109C340012A4F1900036E0FF128F06900037E0FF87
:109C4400128F06E490003AF0900039E0FFA3E0C3DD
:109C54009F5010900038E0FF128F0690003AE00405
:069C6400F080E50200168D
:099AAF0090005712A3751242CE7B
:109AB80012A4F1900057E0FF128F06900058E0FFC3
:109AC800128F06E490005DF090005CE0FFA3E0FEDA
:109AD800C39F501190005912A368128F0690005D21
:089AE800E004F080E302001627
:099D9600900024EFF0A31242CE6C
:109D9F0012A4F1900024E0FF128F06E4900029F046
:109DAF00900028E0FFA3E0FEC39F50119000251202
:109DBF00A368128F06900029E004F080E3020016DA
:0100120022CB
:10A4F100D291120012D290120012C291120012C215
:02A501009022A6
:0D001600C291120012D290120012D291225B
:108F0600C290EF30E703D38001C312A35EEF30E6D1
:108F160003D38001C312A35EEF30E503D38001C300
:108F260012A35EEF30E403D38001C312A35EEF30D9
:108F3600E303D38001C312A35EEF30E203D38001C3
:108F4600C312A35EEF30E103D38001C312A35EEF29
:108F560030E003D38001C312A35EC290C290D291C7
:098F6600D290D290D290C2902268
:109F6C00E4FFD291120012C290FDFCD290EF25E0DA
:109F7C00FF3091034401FFC2900DBD00010CED6454
:0F9F8C00084C70E7120012D290D290D290C2907F
:019F9B0022A3
:1070A2000D0A504F574552206B65792070726573F7
:1070B200736564000D0A4D454E55206B657920704D
:1070C200726573736564000D0A494E505554534FEF
:1070D20055524345206B6579207072657373656400
:1070E200000D0A5550206B657920707265737365C7
:1070F20064000D0A444F574E206B6579207072650B
:1071020073736564000D0A53454C4543544B45590E
:10711200206B65792070726573736564000D0A4E89
:107122004F542041535349474E4544206B657920C3
:1071320070726573736564000D0A504F5745522093
:107142006B657920000D0A4D454E554B4559206B14
:10715200657920000D0A52454D4F5F564F4C5550F0
:10716200000D0A52454D4F5F564F4C444E000D0ADA
:107172004556454E544B4559206B657920707265D2
:1071820073736564000D0A56657273696F6E4B45C1
:0E71920059206B657920707265737365640017
:10778F004100FA004100FE004100FD004100FB00F6
:08779F004100F9004100FF0068
:08A6AF00E5A0F4549064902230
:0EA5930012A6C5EF30E10302002E129E7022C8
:0DA5A10012A6C5EF30E1057F0112628A228B
:0DA5AE0012A6C5EF30E1057F0212628A227D
:10A23A0012A6C5EF30E10A3016047F01800B0265D1
:10A24A00749000F9E07F016003026FA0126D711231
:03A25A007D3F2223
:10A25D0012A6C5EF30E108301602800902002E90DB
:10A26D0000F9E060057F02026FA07FFF126D711291
:03A27D007D3F2200
:1079F200900006EFF0A3EDF012A5D4900006E0127D
:107A020043337A76007A76017A76027A76037A7648
:107A1200047A76057A76067A76077A76087A76098D
:107A22007A470C7A9C107AA1117A87157AB4167A61
:107A32007D207A82217A5B387A643A7AC23E7AA6CB
:107A42003F00007AC974FF9000DFF0A3F0900007B6
:107A5200E060037F01227F002212A303127ED67F01
:107A6200012212A6C5EF30E40512A4C580031271EB
:107A7200A07F0122900007E07F012212A5A180478A
:107A820012A5AE8042900007E060037F012212A699
:107A9200C5EF30E132126574802D12A23A802812AD
:107AA200A25D8023900007E060037F012212A5936C
:107AB200801512A6C5EF30E10E7FF4128B618007AC
:0A7AC2007D017FC0122CCC7F012251
:104E12009000037401F0FF127491900004EFF0709F
:104E220003025095E024F8601C24F8602024F0600E
:104E32002424E0602824C0602C247C70307BFF7A1C
:104E42007079A2802E7BFF7A7079B680267BFF7AFA
:104E52007079C9801E7BFF7A7079E380167BFF7AB6
:104E62007079F4800E7BFF7A71790780067BFF7A76
:104E720071791F12A1319000EBE06007E490000409
:104E820002502F7FAC7E0012A17E900005EFF0123F
:104E9200A6AF703AE070377FD07E0712991112A642
:104EA200AF60079000FEE0B403247D017FAC7E007A
:104EB2001299597F011255B17FD07E0712991112B2
:104EC200A584E49000FCF09000FEF01271A0900026
:104ED200FCE07013900005E0700D9000FEE06007AA
:104EE200E4F07F0112A340900004E06019A3E07097
:104EF2001512A6AF6010E4FF1255B17FF412A4ADF3
:104F020012A5847F012212A5D4900004E01243333B
:104F12005063024F2E044F61085043104FDF205060
:104F22000240503780506E90000050957BFF7A719E
:104F3200793A12A131200E239000EBE06003025077
:104F420095FD7F0C1279F2900003EFF0E49000D20D
:104F5200F0FD7FABFE129959025095C20E806A7B1A
:104F6200FF7A71794712A1319000FFE060397B1618
:104F72007D0A7F8A12A1A47B807D617F8A12A1A40F
:104F8200E4FB7D667F8A12A1A47FB07E0012A17E1F
:104F92009000D3EFF0129BEE129C6AE49000FFF0B7
:104FA2009000F9F0025095200E2E12A6C5EF30E1C6
:104FB2000B301602801912657402509512A6C5EFC5
:104FC20030E20C129BEE129C6A1271A00250957F85
:104FD2003F12509BF00250957F0902505C200E1C3C
:104FE20012A6C5EF30E1077F0130162980217A71C0
:104FF20079561250B47F1012509B80317F06805A2E
:10500200200E2E12A6C5EF30E1117F0230160612D5
:105012006FA002509512628A0250957A71796312DA
:1050220050B4E4FD7F111279F2900003EFF07F019A
:10503200227F078025200E051284CC80567F0580B2
:1050420019200E149000E9E0700404F08005E49049
:1050520000E9F01298C7803B7F041257C3D219802F
:10506200327BFF7A71797012A13180277BFF7A71CE
:10507200798712A131900102E0640F70167DFF1250
:1050820050A57D821250A5E4FB7DFF7F8A12A1A468
:08509200129609900003E0FFF3
:10509A0022E4FD1279F2900003EF227B017F8A124B
:1050AA00A1A47F057E00129911227BFFE4900029BA
:0550BA00F012A13122FB
:05749100900006EFF081
:10749600A2099217C209200C0302756DD21790003B
:1074A600F5E0FF7012A3E0B4010DA3E0B40308A356
:1074B600E0B40203434520EFB403139000F6E0B4B2
:1074C600020CA3E07008A3E0B4010343452090003A
:1074D600F5E07012A3E0B4020DA3E0B40308A3E044
:1074E600B401034345409000F5E0B40311A3E0B4B2
:1074F600010CA3E07008A3E0B4020343454012A6C2
:10750600C5EF20E1609000F5E0FFB40111A3E0B4FF
:10751600030CA3E0B40207A3E07003434520EFB4D5
:1075260002139000F6E0700DA3E0B40108A3E0B4E6
:1075360003034345209000F5E0B40211A3E0B40331
:107546000CA3E0B40107A3E070034345409000F5A7
:10755600E0B40111A3E0700DA3E0B40208A3E0B407
:107566000303434540C20C2017037F002290000608
:0E757600E06003AF4522200803AF45227F00EE
:0175840022E4
:10684A000D0A2B2B28496E6974566964656F446179
:10685A007461297372633A25303278000D0A28531D
:10686A00657456496E707574537464292056496E5E
:10687A007075745374643A256428257329000D0AC7
:10688A002043485F54573238333528253032782927
:10689A00000D0A2043485F43414D44282530327891
:1068AA0029000D0A2043485F4156282530327829AD
:1068BA000020200A0D00FE00000000000000000079
:1068CA00000000000000000143564253000000008F
:1068DA0000000000000000000243414D2044000077
:1068EA0000000000000000000003415620200000C4
:1068FA00000000000000000000000000000000008E
:10690A000000000000000000000000FE000000007F
:10691A00000000000000000000000000014E545377
:10692A004300000000000000000000000002504187
:10693A004C000000000000000000000000000353AB
:10694A004543414D00000000000000000000000522
:10695A0050414C4D00000000000000000000000003
:10696A000650414C4E0000000000000000000000EC
:10697A00000750414C3630000000000000000000C3
:10698A000000044E545343342E34330000000000F8
:10699A0000000000000000000000000000000000ED
:0469AA0000000000E9
:1077A700C107C103C1024100D700016900C100C17F
:0377B70004C10109
:109EA400EF75F011A424C0F582E43468F583E493DB
:109EB40022E0FF900029E4F0A3EFF02290000102D9
:109EC4003F77E4FB7DFF7F8A22E4F567F568F5665A
:039ED400F565220F
:0696AF009000201242CEE3
:1096B500E4FE123F5E900023F0129EC080299000C8
:1096C500201242AE123F5EFFB4FF06129EC0F46048
:1096D50022900024EFF0FD129EC0900025F0FB9033
:1096E5000023E0FF12A1A4900021E475F0021240CE
:0996F5005380CB129EC602A1A411
:1087230090001FEFF07BFF7A68794A129EB712A17F
:10873300317BFF7A5079BF1296AF129EC612A1A465
:1087430090001FE024FE601314601024FD600C24CD
:108753000624F85011240A600D80117BFF7A5279A8
:108763000F1296AF800690001F7401F09000D9E0BD
:10877300B405139000E3E07002800B90001FE01437
:10878300FF12A399800312A2C47B157D297F8A124D
:10879300A1A47B067D5C7F8A12A1A47F0B7E0012BD
:0E87A300A17E12767212A67F127F9AC21A224F
:10A514007D017F8A129D5DEF30E7037F01227F007A
:01A524002214
:10805700E490001CF0A3F09000D9E0B4050990006B
:10806700E3E060030280EFE490001AF01295B3900A
:10807700001BEFF090001DE004F0E0C3940A506885
:1080870090001BE0FF64FE60E39000D4E0FEEF6E1B
:1080970060DA90001AE0FFA3E0FEB50706A3E0044C
:1080A700F0800AE490001CF090001AEEF090001C9B
:1080B700E0C3940240B690001BE0FF700B128FD80C
:1080C70090001E7401F0801B9000D4E090001B709C
:1080D700051280F080081280F07F3212A4ADE49080
:0880E700001EF07FFF12A4ADA2
:0F80EF0022E0FF128FD890001BE0FF12872322A0
:10A2800012A514EF60037F01227D1C7F8A129D5D61
:10A29000EF54F0FF30E7037F0122EF5470C4540FF6
:02A2A00004FFB9
:01A2A2002299
:1094540012A280AB07EB24FE601914601624FD6091
:1094640012240224FC5004240770177567007568E1
:109474003C8006756700756832E475666B75653DFA
:109484008003129ECDF564F563E4FFEF75F011A43B
:109494002415F582E43469F583E493FEB5030122CF
:0894A400EE60030F80E57F007C
:0194AC00229D
:06A6CB009000D4E0FF2224
:108FD80090001FEFF09000D4F0129454EF75F01148
:108FE800A42416F9746935F0FA7BFF90002B12421D
:108FF800CE7A68796690001F129EB512A131900052
:10900800D4E024FE601914601624FD6012240224A2
:10901800FC50042407701775670075683C80067556
:109028006700756832E475666B75653D8003129E4E
:06903800CDF564F5632292
:06A6D1009000D9E0FF2219
:10A303007F01129EA4FE9000D9E0FDEE6D60030F65
:0EA3130080F00F129EA470027F01129EA4FF24
:01A321002219
:09A64200301703D2B722C2B7227F
:107ED600900019EFF09000D9E06F7003027F8712CF
:107EE6009D23900019E09000D9F09000D4E0FF1295
:107EF60087239000D9E024FE601C14602B146038A0
:107F06002403704B12A3EE127F88C294C2957BFFA6
:107F16007A687988803012A426127F88C294D29516
:107F26007BFF7A68799B801E12A40A127F90C29505
:107F36007BFF7A6879AC800E12A442127F90D295AC
:107F46007BFF7A6879AC9000D9129EB512A13112E6
:107F560094AD9000D9E0FF12A61E7F1E12A4AD12AA
:107F660080571271A0E4FF128BE17F6412A4AD7BEF
:107F7600FF7DD07F8A12A1A47BFF7DD17F8A12A1CB
:107F8600A422C214E4FF126D7122C214E4FF126D22
:047F960071D29422EE
:0DA5BB00C21712A666129D23E4FF02A34002
:0CA5D400129CE69000DFEEF0A3EFF022F6
:09A64B009000DFE0FEA3E0FF2215
:107B9E00C374FF9FFFC39400400CEF94645007E43E
:107BAE00900004F0804BEFC39464400DEF948C5022
:107BBE0008900004741EF08038EFC3948C400DEFD3
:107BCE0094B45008900004743CF08025EFC394B434
:107BDE00400DEF94DC50089000047450F08012EFCA
:107BEE00C394DC400CEFD394FF5006900004746EE7
:107BFE00F09000FBE0701E900004E0FFE569D39F5B
:107C0E00400415698008E569C39F50020569E49038
:107C1E0000D7F08006900004E0F5697DFF7F8A12A0
:107C2E009D5D900003EFF0129EC612A1A47DBE7F53
:107C3E008A129D5DEF54CF4410FB7DBE7F8A12A148
:107C4E00A47DC47F8A129D5DEF54804569FB7DC47F
:107C5E007F8A12A1A4900003E0FB7DFF7F8A02A120
:017C6E00A471
:10A54700E49000EFF09000E2F09000ED7408F02244
:106B08007FAB7E0012A17E9000D2EFF07FB07E00B6
:106B180012A17E9000D3EFF07FAA7E0012A17E9092
:106B280000E5EFF07FAD7E0012A17E9000DDEFF072
:106B38007FA07E0012A17E9000FBEFF07FB87E0060
:106B480012A17E9000DAEFF07FB77E0012A17E904E
:106B580000D8EFF07FB97E0012A17E9000D1EFF04F
:106B68007FBF7E0012A17EEF24FF92067FC57E00C4
:106B780012A17E9000DCEFF07FAF7E0012A17E9024
:106B880000E9EFF07FA3126C40EE9000E6701BE086
:106B98004402F09000E7E04402F09000E8E044028C
:106BA800F09000EAE04402F08019E0540DF0900003
:106BB800E7E0540DF09000E8E0540DF09000EAE0B2
:106BC800540DF07FA5126C40EE9000E67006E0448C
:106BD80001F08004E0540EF07FA6126C48EE90009D
:106BE800E77006E04401F08004E0540EF07FA7123D
:106BF8006C48EE9000E87006E04401F08004E05430
:106C08000EF07FA87E0012A17EAE07EF9000EA701A
:106C180006E04401F08004E0540EF012A69F9001B3
:106C280002EFF012A6A7900103EFF07FB27E0012E8
:076C3800A17E9000D6EFF0F1
:106C3F00227E0012A17EAE07227E0012A17EAE0739
:016C4F002222
:10842F007BFF7A6879BB12A479128600900002EF65
:10843F00F01260F29000EBE0701B9000EFE060151F
:10844F009000E5E0FF9000E2E0C39F400812A1F02A
:10845F00E49000E2F09000FBE0700E7DC97F8A127D
:10846F009D5D900002EFF080027FFF127B9E124E07
:10847F0012EF60481289D812A6D1EF1424FD5002D2
:10848F00800A12A6C5EF20E1031280577DB27F8AC2
:10849F00129D5DEF70937BB07DFD7F8A12A1A4E4E6
:1084AF00FF12A3407FF47E011299117F0112A340A6
:0C84BF007B307DFD7F8A12A1A40284386E
:0184CB00228E
:10950500E4900000F0A3F0C2B5C21712A6667F0A68
:109515007E00129911C2B41298317F0112A3401234
:10952500A32212A54712883D126E927F0A7E001271
:109535009911126B08E49000EBF09000D2E0600303
:1095450012842F12910AE4FF126D717FA97E001219
:07955500A17E12974B80E399
:10910A00E4900004F0128600900003EFF0601BE088
:10911A00FF1260F29000EDE0B40803D38001C3406F
:10912A0019E4FF128BE1D217800D900003E0FF12C1
:10913A0060F212A5BBC21712A666E4FF12749190E0
:10914A000002EFF060BFE0B404BB128600EF70B516
:10915A009000D204F0FD7FAB7E00129959E4FF0221
:02916A008BE197
:10739800A10AA20AA000A310A410A591A601A70102
:1073A800A822A910AA00AB62119E00000100CC0C13
:1073B80002700000005000000F4000119E303100A4
:1073C800AFC81202F1100800500030004000119EB2
:1073D8003100029000040170000000A0F5000F4089
:1073E80000119E3100029000030170000000F0F5CA
:1073F800000F4000119E3230000C0D0A01B1040448
:107408000050C800044000119E313000160D0F02D4
:107418003101000050A0000840119E3330100C9834
:10742800280531010000C0B400084000119E313029
:10743800000C020F023101000050A00008400011AA
:107448009E323000222C0205B1000020F000040317
:1074580040119E313000862C1707B19217405025F5
:10746800080340119E30B400222C0201F1000000F4
:10747800F0000003C100119E303C10647E1902B177
:0974880002044050C80005C100D7
:10895000900053FFE475F0011242B7EF023FA4907C
:108960000051E0FEA3E0FF22EF14FB7D9E7F8A22F0
:1089700090001F1242AE900022E0F5827583000243
:108980003F77E0A4FFA3E5F0F0A3EFF07DA07F8A9E
:108990002290005DE0FCA3E0FD22EEF0A3EFF0A347
:1089A00022123FC890005BEEF0A3EFF04E22A3E04E
:1089B000FB7D967F8A22123FC8900051ECF0A3ED18
:1089C000F022F07B047D947F8A22EDF0EFC39401C6
:0889D00022E4FB7D947F8A2262
:10A02B0012A04D90002AF0E4A3F012A04DFF900077
:10A03B002AE06F700C90002BE004F0E0C3940A4010
:01A04B00E92B
:0CA04C00227D957F8A129D5DEF5440221A
:10934400E4900005F0E4900004F0900004E0FFC312
:109354009408502FA3E075F008A4FEEF2E7D9C1214
:109364009394FFA3E075F0089017DA1242A2E58205
:109374002FF582E43583F583E4937D9D1293940461
:0F938400F080C7900005E004F0E0C3940240B60B
:0C93930022FB7F8A12A1A4900004E022BB
:10922D00900005EFF0A31242CE12927B44017D9483
:10923D00129284900005E07D991292847DE07F8AE0
:10924D00129D5DEF4410FB7DE07F8A12A1A490007A
:10925D00061242AE90005C741BF07D9A7F8A129AC2
:10926D00AF12927B54FEFB7D947F8A02A1A47D9464
:0E927D007F8A129D5DEF22FB7F8A12A1A42240
:109DCF007B607D9B7F8A12A1A4E4900004F0900039
:109DDF0004E0FFC394E2501FEF94C6501AEF75F0E2
:109DEF001BA424EAF9741735F0FA7BFF12922D9019
:079DFF000004E004F080D72E
:019E06002239
:039B70009000134F
:109B73001289CA4036EFD39408503012896812A173
:109B8300A490001375F008128982129D5DEF54F0C2
:109B9300FD900014E04DFB7DA07F8A12A1A49000EC
:0B9BA30014A3E0FB7DA17F8A12A1A4A7
:019BAE002294
:039A6D0090001353
:109A70001289CA4039EFD39408503312896812A171
:109A8000A490001375F004128982129D5DEF540FAB
:109A9000FD900014E0C454F04DFB7DA07F8A12A11C
:0E9AA000A4900014A3E0FB7DA27F8A12A1A473
:019AAE002295
:059FFC00900021EFF0D0
:10A0010012A02B7D9C7F8A129D5D900022EFF09023
:10A011000021E06006A3E054EF8006900022E044B6
:09A0210010FB7D9C7F8A12A1A4B2
:01A02A002213
:039A29009000208A
:109A2C001289CA403BEFD39408503512896812A1B1
:109A3C00A47D9F7F8A129D5D900021EFF090002005
:109A4C00E06007A3E04401F08007900021E054FEA1
:109A5C00F012A02B900021E0FB7D9F7F8A12A1A425
:019A6C0022D7
:10987C00EFC394014006EFD394084004E4FEFF22AA
:10988C0012896812A1A47DA07F8A129D5DEF540FEE
:10989C0090002AF0A3E4F07DA17F8A129D5D9000D8
:1098AC002AE0F0A3E04FF090002AE0FEA3E078035A
:0A98BC00CEC313CE13D8F9FF7E00CF
:0198C600227F
:10955C00EFC394014006EFD394084004E4FEFF22CD
:10956C0012896812A1A47DA07F8A129D5DEF54F030
:10957C00C4F8540FC868FEE4C454F04890002AF0B4
:10958C00A3CEF07DA27F8A129D5D90002AE0F0A30D
:10959C00E04FF090002AE0FEA3E07802CEC313CE99
:0695AC0013D8F9FF7E0058
:0195B2002296
:109ED70090005112899A1242CE1289C312A1A490FE
:109EE70000511289AE12A1A49000531242AE900005
:109EF70056E090005CF07D977F8A129AAF1289D165
:039F070002A1A410
:109F3B0090003212899AEDF0A3EB1289C212A1A400
:109F4B009000321289AE12A1A4900034E0FBA3E082
:109F5B00900039F07D987F8A129C2C1289D102A136
:019F6B00A451
:10A0580090003212899AED1289C212A1A49000329E
:10A068001289AE12A1A4900034E0900039F07B2050
:0DA078007D977F8A129C2C1289D102A1A431
:096C500090005112899A1242CE03
:106C59009000581242CEE4900057F0900056E0643C
:106C69000A707990005D7427F0A37410F01289916D
:106C7900C3940AEC9400405612895F1289A16012EC
:106C890090005BA3E02430128950900057E004F093
:106C99008015900057E0600F900053E475F00112E1
:106CA90042B77430123FA412895F90005DE0FAA3E5
:106CB900E0FBFDAC021289B67D0A7C00AF03AE028F
:106CC900123FC890005DEEF0A3EFF0026C769000E1
:106CD90051A3E02430A3128953026D64900056E059
:106CE90064106003026D6E90005D7410F0A3E4F00F
:106CF900128991C39410EC9400404412895F12895F
:106D0900A1602890005BE0FEA3E0FFC3940AEE9423
:106D1900004005EF2437800790005BA3E024301280
:106D2900895012895F1289911289B690005DE0C479
:106D3900F854F0C868F0A3E0C4540F48F080B112C9
:106D4900895FC3940AEE94004005EF2437800790C9
:106D59000051A3E02430FFA312895490005312423A
:076D6900AEE4123FA47F011C
:016D70002200
:06A45E009000511242CEF5
:10A46400E4FF900051E475F0011242B7123F5E60C0
:04A47400030F80EE64
:01A4780022C1
:0682EF0090001F1242CEB8
:1082F5007DFF7F8A129D5D900023EFF054FEFB7D8C
:10830500FF7F8A12A1A47DE07F8A129D5DEF54EF65
:1083150012837EE4900022F0128970FF6042900083
:1083250022E02401FDE433FC90001F1242AEE92D4A
:10833500F9EA3CFAEF128387900022E02401FFE47A
:1083450033FE90001F1242AEE92FF9EA3EFA74059A
:1083550012838712897004FF900022E02FF080B805
:108365007DE07F8A129D5DEF441012837E9000238D
:09837500E0FB7DFF7F8A02A1A458
:10837E00FB7DE07F8A12A1A422900028F07F8A1252
:03838E009D962297
:100066000A0D6D6F646520300A0D000D0A53455464
:10007600204974656D2056616C75653A2069642D5A
:100086002558000D0A2B2B284F5344486967684DA5
:10009600656E755F73756229204F53444D656E75A5
:1000A6004C6576656C3A2564000D0A5245534554F5
:1000B6005F4D6F6E69746F7256414C5545000A0D5F
:1000C60079766D697820340A0D000A0D79766D69A6
:1000D6007820300A0D000A0D79766D697820310A8C
:1000E6000D000A0D79766D697820320A0D000A0D29
:1000F60079766D697820330A0D00436865636B2055
:10010600564741204361626C65004F7574204F6607
:100116002052616E676500FE62596B62714C2F71E9
:100126003A34FF001213566F6C756D65002020205F
:100136004175746F2041646A757374696E67202E09
:100146002E2E2E20202000436F6D706F736974650C
:100156000056657273696F6E004C43442056657293
:1001660073696F6E004456522056657273696F6EDE
:1001760000574946492049500057494649204D41B4
:10018600430047415445574159004F534420506F4F
:10019600736974696F6E004F534420506F736963BF
:1001A600695F6E004F534420FE5465714667FF0039
:1001B6004C616E6775616765004C616E67756500B9
:1001C60053707261636865004964696F6D6100FE12
:1001D6005756714667FF004272696768746E6573A9
:1001E60073004C756D696E6F7369745F0048656C5A
:1001F6006C69676B656974004272696C6C6F00FEAE
:100206004024715F60FF00436F6E74726173740007
:10021600436F6E747261737465004B6F6E747261B6
:10022600737400436F6E74726173746500FE394FA8
:10023600715F60FF0053617475726174696F6E005F
:1002460053AA74746967756E670053617475726139
:1002560063695F6E00FE4A2C33715F60FF0048756C
:100266006500546F6E616C69745C0046617262650C
:1002760000546F6E616C6964616400FE4A54487193
:100286005F60FF0053686172706E6573730041634F
:100296007569745C00536368AA7266650041677588
:1002A60064657A6100FE463933715F60FF0052650E
:1002B60073657400445C66617574004772756E649C
:1002C60065696E7374656C756700507265646574F4
:1002D60065726D696E6163695F6E00FE66246DFF0F
:1002E60000576964652053637265656E005749441B
:1002F6004520FE6D3B714667FF004D6972726F7255
:10030600004A756D70005345512054696D65205340
:10031600746570004A756D702041560043616D200A
:100326004F75740052657475726E00526563616C28
:100336006C004D6F6E69746F7220526563616C6CF0
:100346000044565220526563616C6C0045786974AE
:1003560000200041575420322E302E3120510054B7
:10036600696D654F757420536574757000476175C6
:10037600676520536574757000476175676520521F
:100386006563616C6C005072696F726974790052B2
:100396006576657273204D6F6465005265736F6C88
:1003A6007574696F6E00465053005175616C6974BF
:1003B60079005265636F7264204D6F646500526503
:1003C600636F7264204C656E677468005072652DA9
:1003D600616C61726D00506F73742D7265636F721C
:1003E60064004170706C79005265636F7264537477
:1003F600617274005265636F726453746F70005358
:100406006E617073686F7400446174652054696D21
:10041600650059656172004D6F6E746800446179BC
:1004260000486F7572004D696E0053656300446144
:10043600796C69676874536176696E6700426567AF
:10044600696E6500456E64005765656B0054696D9D
:10045600650054696D65205A6F6E65005265747546
:10046600726E264170706C7900466F726D617420F1
:100476005344204361726400417564696F2052657C
:10048600636F7264004669726D776172652055709C
:100496006461746500596573004E6F004669727336
:1004A60074204E756D626572005365636F6E6420CD
:1004B6004E756D626572005468697264204E756D82
:1004C60062657200466F75727468204E756D62655E
:1004D60072004368616E67652050617373776F724F
:1004E60064004F76657257726974650044697220BC
:1004F600496D616765005472696767657220564782
:100506004100547269676765722044656C617900C1
:10051600496E666F726D6174696F6E0055706461C5
:10052600746520436F6E66696700534420636F7677
:100536006572204465742E00446973706C6179009D
:1005460044565220446973706C617900446973742F
:10055600616E6365204761756765004F5344204CA3
:100566006F636B0050617373776F726400536F75BE
:10057600726365205469746C65004356425320418A
:100586000043564253204200435642532043004301
:100596005642532052004175746F20446179264EAD
:1005A600696768740044697220496D616765004433
:1005B600697220496D61676520410044697220496E
:1005C6006D61676520420044697220496D61676507
:1005D6002043005265617220536574757000434173
:1005E6004D20410043414D20520043414D204200E1
:1005F60043414D20430043414D2044000200456ED7
:10060600676C697368004672616E7B61697300444A
:1006160065757473636800457370617E6F6C00FE68
:100626006A2356FF200004014D6F646531004D6F4B
:10063600646532004D6F6465330055736572004D15
:100646006F646531004D6F646532004D6F646533CC
:1006560000557361676572004D6F64757331004DA7
:100666006F64757332004D6F647573330042656E47
:1006760075747A6572004D6F646F31004D6F646FEB
:1006860032004D6F646F33005573756172696F0088
:10069600FE3A34FF3100FE3A34FF3200FE3A34FFB0
:1006A6003300FE47515B71FF200008004175746FEF
:1006B600004E5453430050414C00534543414D00B6
:1006C6004E545343342E34330050414C4D00504168
:1006D6004C4E0050414C36300005004E6F726D6135
:1006E6006C00576964650050616E6F72616D6100E0
:1006F60046756C6C000500FE1A1BFF2000FE1C1DD3
:10070600FF2000FE1E1DFF2000FE1F20FF2000FE12
:100716001F21FF200009004F666600434331004356
:1007260043320043433300434334005431005432D0
:100736000054330054340002004F4E004F4646002A
:1007460002004D4952524F52004E4F524D414C00FD
:100756000300446179004155544F004E696768743F
:1007660000020031363A3900343A33000200004FB5
:100776004E004F464600040053494E474C45004440
:1007860055414C00545249504C4500412B422C4295
:100796002B410007004100412B4200412B43004101
:1007A6002B5200412B424300412B425200412B4326
:1007B600520007004200422B4100422B4300422BCD
:1007C6005200422B414300422B415200422B4352DE
:1007D6000007004300432B4100432B4200432B52AA
:1007E60000432B414200432B415200432B4252000F
:1007F60005005200522B4100522B4200522B43005F
:10080600522F414200522F414300522F4243005281
:100816002B414200522B414300522B4243000E0013
:10082600515541440053455100412B4200432B5240
:1008360000412B5200522B4200412B4300432B42D6
:1008460000522F414200522B4142004100420043D8
:10085600005200050051554144004100420043004A
:1008660052000200003732307834383000333532E7
:100876007832343000050000350031300031350063
:100886003230003235003330000500004C657665A5
:100896006C2D31004C6576656C2D32004C657665A5
:1008A6006C2D33004C6576656C2D34004C65766591
:1008B6006C2D35000300004E6F6E65004E6F726D35
:1008C600616C00416C61726D000600003120206D84
:1008D600696E003220206D696E003320206D696ECE
:1008E600003420206D696E003520206D696E003160
:1008F60030206D696E000500003135207365630098
:10090600333020736563003630207365630008005A
:10091600003135207365630033302073656300361C
:1009260030207365630002000044697361626C6580
:1009360000456E61626C650004000046697273745E
:10094600005365636F6E6400546869726400466F95
:100956007572746800040041004200430052001999
:1009660000002D3132002D3131002D3130002D396E
:10097600002D38002D37002D36002D35002D340082
:100986002D33002D32002D3100300031003200337E
:1009960000340035003600370038003900313000A9
:1009A60031310031320002005020004420000300A3
:1009B60032343030003438303000393630300002CE
:1009C60000FE1819FF2000FE1A1BFF20000400FE7F
:1009D6001C1D1E1F2021FF2000FE222328292A2B52
:1009E600FF2000FE242528292A2BFF2000412B4228
:1009F6002C422B41000E00FE262728292A2BFF20F9
:100A06000053455100412B4200432B5200412B52CB
:100A160000522B4200412B4300432B4200522F41F0
:100A26004200522B41420041004200430052005610
:100A3600474100FF0157FF0157FF0157FF0157FFCD
:100A46000157FF015FFF015FFF015FFF015FFF01CC
:100A56005FFF016BFF016BFF016BFF016BFF016B1A
:100A6600FF0177FF0177FF0177FF0177FF0177FF2E
:100A7600017FFF017FFF017FFF017FFF017FFF01F4
:100A860088FF0188FF0188FF0188FF0188FF0100B8
:100A9600FF0110FF0110FF0110FF0110FF011DFFF4
:100AA600012AFF0190FF0190FF0190FF019DFF01C8
:100AB600AAFF01B6FF01BFFF01C6FF01CEFF01D5A8
:100AC600FF01DDFF01E8FF01F3FF01FEFF0205FF65
:100AD600020DFF0216FF0220FF0229FF0233FF026A
:100AE6003BFF023BFF0246FF0250FF025BFF026430
:100AF600FF0268FF0271FF0277FF0281FF028AFF91
:100B06000294FF029BFF02A3FF02ABFF02B4FF02A7
:100B1600BAFF02C1FF02D0FF02E1FF0300FF03009C
:100B2600FF0300FF0300FF0300FF0307FF0307FFA8
:100B36000307FF0307FF0307FF030CFF030CFF0375
:100B46000CFF030CFF030CFF0322FF0322FF03220B
:100B5600FF0322FF0322FF031AFF032AFF032AFFD4
:100B6600032AFF032AFF032AFF0331FF0331FF0392
:100B760031FF0331FF0331FF0338FF0338FF03382A
:100B8600FF0338FF0338FF0347FF0347FF0347FF11
:100B96000347FF0347FF0352FF0352FF0352FF03BE
:100BA60052FF0352FF053EFF053EFF053EFF053E91
:100BB600FF053EFF0546FF0546FF0546FF0546FFC6
:100BC6000546FF0552FF0552FF0552FF0552FF0578
:100BD60052FF0561FF0561FF0561FF0561FF0561C4
:100BE600FF056AFF056AFF056AFF056AFF056AFFDA
:100BF6000573FF0573FF0573FF0573FF0573FF0597
:100C060080FF0580FF0580FF0580FF0580FF0587C3
:100C1600FF0587FF0587FF0587FF0587FF058EFF11
:100C2600058EFF058EFF058EFF058EFF0595FF05D8
:100C360095FF0595FF0595FF0595FF059CFF059C0E
:100C4600FF059CFF059CFF059CFF05ABFF05ABFF61
:100C560005ABFF05ABFF05ABFF05B5FF05C1FF05FE
:100C6600CDFF05D9FF05D9FF05D9FF05D9FF05D960
:100C7600FF05E4FF05E4FF05E4FF05E4FF05E4FFE7
:100C860005F0FF05F0FF05F0FF05F0FF05F0FF0595
:100C9600F6FF05F6FF05F6FF05F6FF05F6FF05EA82
:100CA600FF05EAFF05EAFF05EAFF05EAFF05FCFF87
:100CB60005FCFF05FCFF05FCFF05FCFF0357FF03D2
:100CC60059FF0365FF0373FF037FFF038CFF039543
:100CD600FF03A1FF03ACFF03B0FF03B8FF03C4FF8C
:100CE60003D2FF03DCFF03E8FF03EEFF03FAFF0472
:100CF60005FF040EFF0418FF041DFF0423FF04274D
:100D0600FF042CFF0430FF0434FF0443FF044AFFB2
:100D1600044EFF0453FF0458FF0462FF046FFF04F0
:100D26007EFF048BFF049BFF049FFF04A2FF04AF1A
:100D3600FF04BDFF04CAFF04D8FF04E8FF04F2FF66
:100D460004FCFF0508FF0516FF0522FF0530FF021C
:100D5600E7FF02E7FF02E7FF02E7FF02F3FE6C6F21
:100D660000FE727500FE606300FE787B00FE666919
:100D760000FE848700FE010200FE7E8100FE8A8D51
:100D860000FE909300FE969900FEC0C300FE9C9F55
:100D960000FEA2A500FEA8AB00FEAEB100FEB4B7F1
:100DA60000FEBABD000000170316611702166100A7
:100DB60000FF0C40FFFFFF3700000700B8073D00AB
:100DC60000FF0BAAFFFFFF3700000700B9073D0031
:100DD60000FF0BC8FFFFFF3700000700BA073D0002
:100DE60000FF0BD7FFFFFF3700000700BB073D00E2
:100DF60000FF0CD0FFFFFF3700000700CA073D00C9
:100E060000FF0CD3FFFFFF3700000700D60767007F
:100E160000FF0B5FFFFFFF3700000300F10000003B
:100E2600000000000000FFFF0000000000000017A7
:100E36000216610000FF0D2DFFFFFF3700000300C3
:100E4600F100000000FF0D2AFFFFFF37000003003E
:100E5600ED000000000000000000FFFF00000000A1
:100E6600000000170216610000FF0D30FFFFFF377C
:100E7600000005002D0DAC0000FF0D33FFFFFF370E
:100E8600000005002E0DAC0000FF0D36FFFFFF37FA
:100E9600000005002F0DAC0000FF0D39FFFFFF37E6
:100EA60000000500380DAC0000FF0D3CFFFFFF37CA
:100EB60000000300EE00000000FF0B5FFFFFFF379E
:100EC60000000300F1000000000000000000FFFF2A
:100ED60000000000000000170216610000FF0D3040
:100EE600FFFFFF37000005002D0DAC0000FF0D339E
:100EF600FFFFFF37000005002E0DAC0000FF0D368A
:100F0600FFFFFF37000005002F0DAC0000FF0D3975
:100F1600FFFFFF3700000500380DAC0000FF0D2174
:100F2600FFFFFF3700000300EB00000000FF0D3C51
:100F3600FFFFFF370E6D0100000E690000FF0B5F1B
:100F4600FFFFFF3700000300F10000000000000073
:100F56000000FFFF000000000000001705166100FA
:100F660000FF0D1BFFFFFF37000007002C0965007F
:100F760000FF0CFAFFFFFF3700000500200DAC0054
:100F860000FF0CFDFFFFFF3700000500210DAC0040
:100F960000FF0D00FFFFFF3700000500220DAC002B
:100FA60000FF0D03FFFFFF3700000500230DAC0017
:100FB60000FF0D06FFFFFF3700000500240DAC0003
:100FC60000FF0D1EFFFFFF3700000300F6000000C4
:100FD600000000000000FFFF00000000000000000D
:100FE60000FF0D2AFFFFFF37000003009B000000F3
:100FF60000FF0D2DFFFFFF3700000300F10000008A
:10100600000000000000FFFF0000000000000000DC
:1010160000FF0D2AFFFFFF370000030070000000ED
:1010260000FF0D2DFFFFFF3700000300F100000059
:10103600000000000000FFFF0000000000000000AC
:1010460000FF0D2AFFFFFF37000003009E0000008F
:1010560000FF0D2DFFFFFF3700000300F100000029
:10106600000000000000FFFF00000000000000007C
:1010760000FF0B7DFFFFFF3710150100000DAD00CF
:1010860000FF0B8CFFFFFF3710450100000DAD0080
:1010960000FF0B5FFFFFFF3700000300F1000000B9
:1010A600000000000000FFFF000000000000001725
:1010B6000416610000FF0A66FFFFFF3600000B0002
:1010C600F100000000000000FFFFFF3700000C00E9
:1010D600390DAC0000FF0A75FFFFFF3600000B005C
:1010E600F100000000000000FFFFFF3600000C00CA
:1010F6003A0DAC0000FF0A84FFFFFF3600000B002C
:10110600F100000000000000FFFFFF3600000C00A9
:101116003B0DAC0000FF0B5FFFFFFF370000030035
:10112600F1000000000000000000FFFF00000000CA
:10113600000000170416610000FF0B6EFFFFFF376B
:10114600000003009B00000000FF0B9BFFFFFF3722
:1011560000000300F400000000FF0CC1FFFFFF3792
:1011660000000B00F400000000FF0CC1FFFFFF377A
:1011760000000B00F400000000FF0CC1FFFFFF376A
:1011860000000B00F400000000FF0CC4FFFFFF3658
:1011960000000B00F4000000000000000000FFFF4C
:1011A60000000000000000170516610000FF0CE2B9
:1011B600FFFFFF3700000700E408CF0000FF0CE840
:1011C600FFFFFF3700000700E609140000FF0D24AB
:1011D600FFFFFF3700000700EC095B0000FF0D1E54
:1011E600FFFFFF3700000300F500000000000000CD
:1011F6000000FFFF00000000000000170416610059
:1012060000FF0CDFFFFFFF3711B101000011AD0039
:1012160000FF0CD9FFFFFF3700000700E1087B0045
:1012260000FF0CDCFFFFFF3700000700E2088F001D
:1012360000FF0D21FFFFFF370EE10100000EDD006C
:1012460000FF0D27FFFFFF370E390100000E3500A6
:1012560000FF0D1EFFFFFF3700000300F500000032
:10126600000000000000FFFF000000000000001763
:1012760005166100000000000000FFFF00000000EE
:10128600000000170416610000FF0AC6FFFFFF37C3
:1012960000000500960DAC0000FF0AD5FFFFFF37E2
:1012A60000000500950DAC0000FF0AE4FFFFFF37C4
:1012B60000000500970DAC0000FF0AF3FFFFFF37A3
:1012C60000000500990DAC0000FF0B02FFFFFF3781
:1012D600000005009A0DAC0000FF0B5FFFFFFF3713
:1012E60000000300F1000000000000000000FFFF06
:1012F60000000000000000170516610000FF0C76D4
:10130600FFFFFF3700000700C1073D0000FF0C8507
:10131600FFFFFF3700000700C2073D0000FF0C94E7
:10132600FFFFFF3700000700C3073D0000FF0CA3C7
:10133600FFFFFF3700000700C4073D0000FF0B5FFB
:10134600FFFFFF3700000300F1000000000000006F
:101356000000FFFF000000000000001705166100F6
:1013660000FF0C5EFFFFFF3700000700CD07990066
:1013760000FF0C61FFFFFF3700000700CE07B80033
:1013860000FF0C64FFFFFF3700000700CF07D70000
:1013960000FF0B5FFFFFFF3700000300F1000000B6
:1013A600000000000000FFFF000000000000001722
:1013B6000716610000FF0B20FFFFFF371301010036
:1013C600000DAD0000FF0D42FFFFFF371365010062
:1013D600000DAD0000FF0C67FFFFFF3700000700A0
:1013E600C607F60000FF0B2FFFFFFF3700000700C0
:1013F600C708240000FF0B4DFFFFFF370000070062
:10140600C808590000FF0B3EFFFFFF37000005002C
:10141600C90DAC0000FF0B5FFFFFFF3700000300A4
:10142600F1000000000000000000FFFF00000000C7
:101436000000000204FF370D63000000FFFF37FFC6
:10144600128D01009F12890D67000000FFFF37FF14
:101456000DB50100000DB10D6B000000FFFF37FF59
:1014660013B901009F13B50D6F000000FFFF37FF92
:10147600113D010000113900000000000000FFFFCF
:10148600000000000000000000000000FFFF37FF22
:10149600143D010000143900000000000000FFFFA9
:1014A600000000000000000000006400320002009E
:1014B60034001A0001002C001600000037001C0042
:1014C6000000C70064002D00D20080000000070065
:1014D600030000003F0020002D00D2008000000025
:1014E6001F0010002300870055002300870055FFCA
:1014F600B60022FFE8000000FF0080FF80007F00AA
:10150600000000000700030000007F0040111111D9
:1015160071113B161A010201342C342C024B323263
:1015260032323232324B323232111013141570719C
:101536007472737071747273786300808000608057
:1015460080808020808080803B68F890900060805A
:1015560080808020808080800358F8A0A000608072
:10156600808080208080808003322528282D643268
:101576003232323232000A006000610062006300DB
:10158600660067006800B900FC26008B7C015000ED
:101596000031481BDB807B0000000017481EF280EC
:1015A6007C800001B6314826D58069000000006FB6
:1015B600DF13008B9201500000344821D480910043
:1015C600000000174813F28092800001B6344813D9
:1015D600DC807F00000000605A14008B7C01500004
:1015E60000294814DC807C00000000294814F280A1
:1015F6007C800001B6294814DC805F000000007B77
:101606005A0C008B94015000002D480CDC8094008D
:101616000000002D480CF28094800001B62D480C85
:10162600DC807F00000000605A3AF680FB00500024
:101636000026483AC380FB0000000026483ACC80CA
:10164600FB800001B626483AC380BE000000007049
:101656005A3FF98029045000002E483FC3802904D0
:101666000000002E483FD08029840001B62E483F56
:10167600C380E800000000805A28A4806A04500055
:1016860000165A2884806A04000000165A288980A9
:101696006A84350035165A2884801C040000006BC5
:1016A6005A23F98014045000001F5A23C8801404DA
:1016B6000000001F5A23F08014843501871F5A2327
:1016C600C880E700000000565A202020496E707539
:1016D6007420203A20202020202020202020202096
:1016E60020200020202053797374656D203A202035
:1016F6002020202020202020202020200020202004
:10170600482046726571203A2020202020206B4810
:101716007A20202020200020202056204672657145
:10172600203A20202020202020487A202020202017
:1017360000202020462F57205265763A2020202070
:101746002020202020202020202000000000000053
:101756000000000000000000000000000000000083
:10176600000000000001020205050304040404044D
:101776000404040404040404040404040404040423
:10178600032020201C202020202020202020200094
:101796002020202020202020202020002E003A007B
:1017A6000101010102020202020505050505030405
:1017B6000404040404040403202020002020202024
:1017C6002020202020202000202020202020202033
:0417D60020202000AF
:1077BA004100C5FF4100C6004100CB00C116C115FA
:1077CA004100B3004100C8004100CD004100CC0097
:0777DA004100C000011E0088
:104393009000B1E0FEA3E0F5828E83227E009000C0
:1043A30013E09000125403FFEEF0A3EFF02290000D
:1043B300277A007928E0FF7E007B019000301242CB
:1043C300CE7BFF22EE900012F0A3EFF022D39000F9
:1043D30013E09400900012E094002275F010124252
:1043E300A2740E93FB740F939000B4CBF0A3EBF085
:1043F3008F828E83ED75F0101242A2740993FF74BD
:104403000A939000B1CFF0A3EFF02290002BE024A9
:10441300F1FF90002AE034FFFE90002F0242AE7AB3
:104423001479BF9000331242CE7A1479AD2275F01D
:10443300101242A2740D93229000211242AE9000FA
:104443000E124094AAF0F97BFF90002F1242CE90F7
:1044530000210242AEE0FDE4900037F0A3EDF0222C
:10446300900012A3E0FD229000B1E0FEA3E0FFF56F
:10447300828E832290002AE0FEA3E0FF22E0FF90D9
:104483000012E4F0A322E0FEA3E0FF9000CEEEF0E2
:10449300A3EFF022E4900012F0A3F0229000B1E029
:1044A300FEA3E0FFEE9000C1F0A3EFF0A322E0FE35
:1044B300A3E0FF9000B4E0FCA3E0F5828C8322E04C
:1044C300FEA3E0FF7B019000567408F02290000CDD
:1044D300E090000EA4FFE5F08FF002405375F0105A
:1044E3001242A2740E93FC740F93AA04F97BFF90FB
:1044F30000091242CE8F828E8322FFE975F003A456
:104503002418F582E43400F5832290000EE0FEA324
:10451300E0FF9000B4E0FAA3E0F5828A837403938A
:10452300FDE4932274362DF582E43400F583227D75
:10453300017BFF7E007F0C023F3890004EE475F054
:10454300011242B7023F5E9000021243039000CB78
:10455300E075F003A4F58285F083024303F0A3EF33
:10456300F0D39014AD7401939FEE6480F8E49364E8
:10457300809822FF90002AE0340022EFF09000118F
:10458300E0229000B1E0FEA3E0AA06F97BFF2275CA
:10459300F0100242A2E0FD75F00A84E5F024302217
:1045A300A3E475F001024053E0FEA3E02DFDEE3CD1
:1045B300FCEDA4FBAAF0FF90001AE0229014AFE4F4
:1045C30093FE740193FF2290000EE4F0A3740EF0A7
:1045D30022F0E0FF25E02419F582E43415F583E4A5
:1045E3009322F0EF25E0241AF582E43415F583E4F1
:1045F30093227E00EEF0A3EFF07B0122EEF0A3EF17
:10460300F0A30242CE9000D0E0640122740E93FB2B
:10461300740F939000B4CBF0A3EBF022EF54F8FFA8
:10462300A3E054074FFB7D177F8A22900013E024F9
:1046330003F0900012E03400F022FFE493FC7401D5
:1046430093FDC3EF9DFEE49C2290000CEEF0A3EFDC
:10465300F0FD900012E0FF22E51E25E024B8F5826C
:10466300E43400F5832235F0FA7BFF90000DE090EF
:104673000056F022F583EEF0EF75F00A84900034D3
:10468300F0222442F582E43400F583229000CEA385
:10469300E0FF22E0FFA3E09000C1CFF0A3EFF02200
:1046A3007D177C00123FB6EF22FFE08FF0A4FF22BC
:1046B30090000D023F77A3E054074438FB7D787FD9
:1046C3008A22C3900013E0940622F090003CE00499
:1046D300F022E0FF7E007B017A00792922F0ED755C
:1046E300F00A8490000AF022FBC3EF9BFFEE9400D4
:1046F300FEC322C3900013E0940222F9E43AFA02C3
:1047030042CE2FFFE035F0FAA9077BFF22E0240514
:104713002FF075F0058422FFE4F0A3EFF022900060
:1047230015A3E0FF22FF7E007B017A007928229FF8
:10473300EE6480F8EC648098221242AE023F5E750C
:10474300F011A424C1F9746822F582E43400F583DE
:10475300EEF0227B017A00793D22E4FB7D9E7F8A85
:014763002233
:03000E0012A68FA8
:0100110022CC
:0566E100900014EFF031
:1066E60012000E900019EFF0900014E0B401047F40
:1066F6000180027FFF900019124710E5F01245D481
:10670600FEFD900015E4F0A3EDF09000C9E0FDC396
:10671600900016E09DF0900015E09400F09000C9FE
:10672600EE1245E5FFFD900017E4F0A3EDF09000B2
:10673600CAE0FDC3900018E09DF0900017E09400B9
:10674600F09000CAEFF090001A7401F090001AE081
:10675600FFD39404506D12987CAD07AC06900015DB
:1067660075F0081245ABF975F003A42419F582E417
:106776003400F583EFF0EA1244FDEFF0AF01129515
:106786005CAC06AD0790001775F0041245AB75F0CA
:1067960003A4241AF582E43400F583EFF0EAC4F882
:1067A60054F0C8EBC4540F485470FF90001AE0F937
:1067B6001244FFE04F1244FDEFF090001AE004F09F
:1067C60002675212A02B7DE07F8A129D5DEF54EF87
:1067D60012684190001A7401F090001AE0FFD394F9
:1067E600045031EF14FB7D9E7F8A12A1A490001AFB
:1067F600E075F003A42418F9740035F0FA7B0190D3
:10680600005C7403F07DA07F8A129AAF90001AE0B4
:1068160004F080C57DE07F8A129D5DEF441012680A
:1068260041900019E0FF12A61512A02BE4FB7D9003
:0A6836007F8A12A1A4900019E0FF70
:0A68400022FB7DE07F8A12A1A42252
:105BC600901519E4939000C9F090151AE49390008B
:105BD600CAF0E4FF12A6157FB0125D3F7FA0125DEA
:105BE6003F7FA07E0012A17E9000FBEFF07FA11206
:105BF6005D477FA2125D477FBA125D567FA4125D94
:105C0600567FAB125D4E7FA3125D657FBB125D654D
:105C16007FA5125D4E7FA6125D5D7FA7125D5D7F3B
:105C2600A8125D6C7D327F387E0012995990010270
:105C36007432F0E4FF126D717D327F377E00129967
:105C4600597D037FB27E001299597FBC125D6C7F2D
:105C5600BD125D7B7FBE125D7B9000DDE0700FFDA7
:105C66007FAEFE1299597D017FAC7E00800E7D0DC0
:105C76007FAE7E00129959E4FD7FACFE129959E47D
:105C86009000EFF07D027FAAFE1299597FA9125D5E
:105C96008AE4FF12974B7BFF7A00796612A4797D1E
:105CA600337FA07E0012A0587FB2125D8A7FB312A6
:105CB6005D737FB4125D737FB5125D827FB6125D30
:105CC60082126B08E4FF12A6277D017FBF7E0012B9
:105CD60099597FBF7E0012A17EEF24FF9206E4FD54
:105CE6007FB8FE1299597FB87E0012A17E9000DA25
:105CF600EFF07D017FB77E001299597FB77E0012C3
:105D0600A17E9000D8EFF07D027FB97E00129959EE
:105D16007FB97E0012A17E9000D1EFF0E4FD7FAF47
:105D2600FE129959E49000E9F09000DC04F0FD7F42
:105D3600C57E00129959028A5D7D017E001299592D
:105D460022E4FDFE129959227D017E001299592204
:105D5600E4FDFE129959227D017E0012995922E432
:105D6600FDFE12995922E4FDFE129959227D017E0B
:105D76000012995922E4FDFE129959227D017E00F6
:0B5D860012995922E4FDFE12995922E7
:10A5250012A6979000CBEFF075F00584AFF0EFF031
:01A535002203
:10A37C00EFB401047F0180027FFF9000CB124710E5
:0CA38C00AFF0EFF012A6279000CBE0FF2E
:01A3980022A2
:05903E00900016EDF0AA
:10904300EF75F003A42481FEE435F0A3F0A3CEF082
:10905300E4A3F0900019E0FFC39403504390001879
:10906300E02FFF900017E03400FE12A17E90001A5B
:109073001245F57A00791C1243BE12442212824A29
:10908300900019E02471FD90001CA3E0FF900016EE
:10909300E02FFB7F8A12A1A4900019E004F080B3B3
:0190A30022AA
:108CD900EFB401047F0180027FFF9000CFE02404FC
:108CE900FD9000CEE03400FCEF3395E0FEED2FFF60
:108CF900EC3EF0A3EFF07E009000CE1243A8FD7F7A
:108D0900801299597F107E0012A17E7E007B017A24
:108D19000079141243BE7A1479C512442612824A84
:108D290012468F900014A3E0FD12903E7F807E00D2
:108D390012A17EEF64037B8A60047D3080027D3757
:0A8D49007F3C7E00129F3B12468F14
:018D530022FD
:0580FE00900014EFF0FA
:10810300ED9000CFB4010DE02401FF9000CEE034E8
:1081130000FE800BE024FFFF9000CEE034FFFE90D2
:108123000015EE12456050151245BF900016E09FF2
:10813300EE6480F8900015E064809840030281A00B
:108143009000151244897B017A0079171243BE12FD
:10815300442212824A900014E0248AFFE433FEA3EF
:10816300A3E0FD1299597F107E0012A17E900015A5
:108173001245F57A0079191243BE7A1479C512446F
:108183002612824A900014E02471FD900019A3E0A6
:10819300FF900017A3E02FFB7F8A12A1A412468F42
:0181A30022B9
:1094AD007D707F8A129D5DEF54BFFB7D707F8A12A8
:1094BD00A1A47D741294FB7D757F8A12A1A47D7683
:1094CD001294FB7D717F8A12A1A47B807D727F8AAD
:1094DD0012A1A47B807D737F8A12A1A47D707F8AE7
:1094ED00129D5DEF4440FB7D707F8A02A1A47B80BD
:0894FD007F8A12A1A47B8022EA
:06767200900020EFF0FD86
:107678007F0B7E00129959900020E06403606CE44F
:10768800A3F0A3F0900021E0FEA3E0FFC3940FEE67
:1076980064809480503B900020E0C454F0243FF56F
:1076A80082E43415F583E5822FF582E5833EF58380
:1076B800E493FB900021A3E0242FF58274153EF596
:1076C80083E493FD7F8A12A1A49000211245A4802F
:1076D800B3900020E0C454F0244EF582E43415F54C
:0B76E80083E49390002312471A804EA9
:1076F300E4FF12A654129BAF7F0112A6541297E522
:107703007F0212A654AD07E4FF128D547F0312A625
:1077130054AD077F01128D547F0412A654128DC4F9
:107723007F0512A6547E009000251245F77A007952
:0E773300231243BE7A15790712442612824AA9
:107741009000231246B912A1A47D177F8A129D5D74
:0977510090002312461F12A1A4AE
:01775A00220C
:03A6D7007F0022DF
:09A6540012A2A37E0012448E2222
:05856700900014EFF08C
:10856C00EDB401067E007F0180047EFF7FFF90004A
:10857C00CEE0FCA3E0FD2FFFEC3EFE900015124573
:10858C006050161245BF900015E0FAA3E0FB9FEE79
:10859C006480F8EA6480984003AF0522900014E0F0
:1085AC0014601814601D14601A14602724FD602BCD
:1085BC002407702DAF03129BAF8026124721129710
:1085CC00E5801E900014E024FEFFA3A3E0FD128DB5
:1085DC0054800E124721128DC48006124721128F2F
:1085EC006F900014E0FFA3A3E0FD12A5039000150B
:0385FC001244899D
:0185FF002259
:059BAF00900027EFF01B
:109BB40012A6D1900027E0BF010C1247281243BE21
:109BC4007A1479EF800A1247281243BE7A1479E98D
:109BD40012442612824A9000D9E090151293FD9007
:0A9BE4000028A3E0FB7F8A02A1A481
:0597E500900027EFF0E9
:1097EA009000D9E0640470171243B17A1479CB124D
:1097FA00442612824A900028A3E0FB7D748022123C
:10980A0043B17A1479F512442612824A12A6D7EF86
:10981A009000286007A3E0FB7D3A8005A3E0FB7D6A
:06982A00107F8A12A1A4C8
:019830002215
:108F6F007E007B017A0079171243BE7A1479E312DF
:108F7F00442612824A7DFF7F8A129D5D900019EF71
:108F8F00F0E47DFF128FD17DBE7F8A129D5DEF547D
:108F9F00CF44107DBE128FD17DC47F8A129D5DEFAD
:108FAF005480FD900017E0A2E713A3E0134DFB7D63
:108FBF00C47F8A12A1A4900019E0FB7DFF7F8A0273
:028FCF00A1A45B
:078FD100FB7F8A12A1A4221C
:058DC400900027EFF014
:108DC9009000D9E06404702A9000277A007928126B
:108DD90043B87A1479D712442612824A7D707F8A61
:108DE900129D5DEF54C0FF900028A3E04FFB7D70FA
:108DF900802F900027E0FF7E007B017A00792812FE
:108E090043BE7A15790112442612824A12A6D7EF77
:108E19009000286007A3E0FB7D3E8005A3E0FB7D71
:068E2900157F8A12A1A4CE
:018E2F002220
:088D5400900027EFF0A3EDF001
:108D5C0012A6D7EF60301246D51243BE7A15790DA4
:108D6C0012442612824A900027E0243CFD7F8A128E
:108D7C009D5DEF5480FF900029A3E02FFB9000270E
:108D8C00E0243CFD802C9000281246D51243BE7A7C
:108D9C001479FB12442612824A9000D9E0900027E5
:108DAC00B40405E024728003E02413FD900029A391
:078DBC00E0FB7F8A12A1A475
:018DC300228D
:05839100900014EFF064
:108396007D787F8A129D5DEF5407540F9000171267
:1083A600471A900014E0B401047F0180027FFFEFBA
:1083B6003395E09000178FF0124053901507124541
:1083C600C2900017E0FCA3E0FDC3124732400D90B7
:1083D60015091245C2D3ED124732400412468F22C8
:1083E600AF057E007B017A0079151243BE7A1479B7
:1083F600AD9000331242CE7A15790712824A900068
:10840600171246B912A1A47D177F8A129D5D9000AE
:108416001712461F12A1A4900015A3E0FD7F0512B6
:08842600A50390001512448922
:01842E00222B
:1090A4009000D9E090000CF09000D97401F0900089
:1090B400D9E0FFC394075030EFB40413E490000BDD
:1090C400F090000BE09015751290F940F48011E4D3
:1090D40090000BF090000BE090156F1290F940F4A3
:1090E4009000D9E004F080C690000CE09000D9F024
:0590F4007F030276720B
:1090F900FF93FD12A50390000BE004F0E0C3940672
:019109002243
:107F9A00900020EFF0D39403400B7F01127F9A9058
:0D7FAA0000207401F0900020E09000E1F054
:107FB70012A6CBEF6401601E12A6CBEF6404601615
:107FC70012A6CBEF6405600E12A6CBEF640760061E
:107FD70012A6CBEF700F900020E075F00AA4248F53
:107FE700F97415800D900020E075F00AA424B7F904
:107FF700741535F0FA7BFF9000231242CE12A02BA6
:10800700E4900021F0A3F0900021E0FEA3E0FFC37D
:10801700940AEE64809480502FEF25E0FFEE33FE44
:10802700747B2FF58274153EF583740193FD9000E0
:108037002312473CFB7F8A12A1A49000241245A477
:088047009000211245A480BF46
:08804F009000E1E0FF02A60C25
:10A08500E51EC3940450229000C1E0FEA3E0FF1238
:10A09500465BEEF0A3EFF09000C4E0FFAE1E051E98
:0CA0A500741A2EF8A6077F01227F00220B
:10A3B600E51E6015151E12465B124696741A251E7A
:0CA3C600F8E69000C4F07F01227F002226
:1099A00090001F1242CE900022EDF0BDFF037FFF1A
:1099B00022900022E004F0E075F010A4FF90001F58
:1099C0001242AEE92FF9EA35F0FA900007123F771C
:1099D000B4FF0C900008123F77B4FF037FFF229082
:0599E0000022E0FF225F
:09A65D00EFB4FF037FFF221F226E
:029AF000AC07C1
:109AF2009000B1E07002A3E06004E4FE80027EFF09
:109B0200EEF460289000B1E0FAA3E0FBF5828A83CC
:109B120075F010EE124434540FB50403AF0622A9B7
:0E9B2200037BFFAD061299A0AE0780D4AF06FC
:019B30002212
:1064070090000C7401F012A0859000B1E0FFA3E0AA
:10641700CF1244A8E0A3F09000D0E004F0E490008D
:10642700B1F0A3F09000C374FFF07F01125D917B80
:10643700737D327F257E00129F3BE490000BF09026
:10644700000BE075F01AA424CFF582E43416F58327
:10645700E493603C90000CE0FF90000BE0FB2FFF03
:10646700E433FE1246A3240EFDE43EFCEB75F01A5E
:10647700A424CFF9741635F0FA7BFF9000567417F1
:10648700F0AF05AE04129ED790000BE004F080AF8A
:1064970012A6D190000B7401F090000BE0FE75F08E
:1064A700119068C01242A2E4936F600890000BE05D
:1064B70004F080E5EE12474212653E241AFDE43EE1
:1064C700FC90000BE0124742124669AF05AE04127A
:1064D7009ED712655B12653E2431FFE43EFEC0067F
:1064E700C00712655B124669D007D006129ED77F98
:1064F70004126569243090000EF0A3742EF07F0516
:10650700126569E0FDC4540F2430900010F0ED547B
:106517000F2430A3F0E4A3F090000CE0FF7E0012FC
:1065270046A32448FFE43EFE7B017A00790E9000E3
:07653700567404F0029ED728
:10653E0035F0FA7BFF12A45E90000DEFF090000C88
:10654E00E0FF7E007C007D17123FB6EF22129454BE
:10655E00EF75F011A42416F97469227E0012A17E43
:06656E0090000BEFF0228B
:0586930090000AEFF069
:10869800780B7C007D017BFF7A1779727E007F184A
:1086A800123F3890000AE0C394645030E0FF75F040
:1086B8000584E5F090176B93FEEF75F00584FF24B1
:1086C8000B12474CEF04FFEFC39414500F90176B35
:1086D800E493FE740B2F12474C0F80EB90000BE0D5
:1086E800B401037402F090000A1245989000221217
:1086F80046E01245989000211246E02430FF900091
:1087080020F0BF30037420F07FE17E007B017A0007
:0B871800790B9000567418F0029ED7F9
:109F9C0090000A74FFF0EF24D1700A12A6D1900041
:109FAC000BEFF080037F002290000BE0FF129AF081
:0F9FBC0090000AEFF0BFFF02E4F090000AE0FF10
:019FCB002273
:0647640090001F1245FF4A
:10476A009000C7E0B40309E490002AF0A3F08006A1
:10477A0090002A1245CD9000B4124396E49390001B
:10478A00251246AC900024E0FD90002BE02DFD128E
:10479A004577CD2FFEED35F0F0A3CEF012445290BE
:1047AA000007123F77FFF46021124452900029EF6C
:1047BA00F0124069AAF0F97BFF124AE2FD1244772F
:1047CA00124ACD900024E02402F07B8A7D377F25AF
:1047DA007E00129F3B124452900008123F77F46009
:1047EA007012445212454A124AE2E4FFA3F09000C2
:1047FA0027E0FDEFC39D501F90002C1242AE8F821E
:10480A00758300123F77FEF46004EEB4FE06900052
:10481A0028E004F00F80D7124477124ACD9000287E
:10482A00E0FD900027E0C39DC3940F501AE0FCFFFF
:10483A0090002BE02F124576FEED1246EB740F9C8A
:10484A00FCED2CFD12A05890002AE475F00F1240DE
:10485A00539000D0E0C39403500B900026E064010B
:10486A0070030249F212445290000B123F7712432E
:10487A003349D80149D80249D803489A0448A905B6
:10488A0049BD0749D80A49E30B48C40C000049F25C
:0F489A001246B3FF1259CFAD07124477027917B8
:1048A90012443B1246B3FF1259CF900037EEF0A3E2
:0B48B900EFF012447712441C0249BAD1
:1048C40012443B1246B324C6603014700302499A62
:1048D400240260030249F212440E90006E1249F35E
:1048E40024F512441490006F124A22900070124A68
:1048F400619000711244580249BA12440E90007239
:10490400124458124ADA24F4124AA024F512441428
:10491400900073124458124ADA24F8124AA024F977
:10492400124414900074124458127ACC90002BE074
:1049340024FCFF90002AE034FF124ABC90002BE0D4
:1049440024FD124414900075124458127ACC124477
:10495400777BFF7A1779A49000567401F0129ED7E2
:1049640090002BE0240112457612441B900076122D
:104974004458127ACC90002BE02404124576124A53
:10498400BC90002BE0240512457612441B9000775E
:104994001244580249BA12440E9000781249F32482
:1049A400F5124414900079124A2290007A124A6156
:0949B40090007B124458027ACCF9
:1049BD0012443B1246B3FF1259CF900037EEF0A3CD
:0B49CD00EFF012447712441C027C6FD4
:1049D8001244777BFF7A17798A80091244777BFF24
:0A49E8007A1779961244C9129ED77F
