:103601006873636F6D20312031206368303A312552
:10361100316278206368313A3025316278206368FD
:10362100323A3025316278206368333A302531628D
:10363100780A0D006873636F6D2031203120636853
:10364100313A3125316278206368303A3025316270
:1036510078206368323A3025316278206368333AE2
:1036610030253162780A0D006873636F6D20312057
:1036710031206368323A256278206368303A302518
:10368100316278206368313A30253162782063688D
:10369100333A30253162780A0D006873636F6D200B
:1036A100312031206368333A3125316278206368F3
:1036B100303A3025316278206368313A3025316201
:1036C10078206368323A30253162780A0D006873D8
:1036D100636F6D20322032206368303A31253162C8
:1036E10078206368313A3025316278206368323A54
:1036F1003025316278206368333A30253162780AA7
:103701000D006873636F6D20322032206368323A96
:10371100256278206368333A312531627820636805
:10372100303A3025316278206368313A3025316290
:10373100780A0D006873636F6D2032203220636850
:10374100303A3025316278206368333A312531626D
:1037510078206368313A3025316278206368323AE3
:1037610030253162780A0D006873636F6D20322055
:1037710032206368333A3125316278206368313A07
:103781003025316278206368303A30253162782003
:103791006368323A30253162780A0D006873636FCD
:1037A1006D20332031206368333A3125316278202E
:1037B1006368303A3025316278206368313A3025C8
:1037C100316278206368323A30253162780A0D001F
:1037D1006873636F6D20332033206368303A30257E
:1037E100316278206368313A30253162782063682C
:1037F100333A3125316278206368323A30253162BB
:10380100780A0D006873636F6D203320342063687C
:10381100303A3025316278206368313A302531629F
:1038210078206368333A3125316278206368323A0F
:1038310030253162780A0D006873636F6D20342082
:1038410031206368303A3025316278206368313A3B
:103851003025316278206368323A30253162782030
:103861006368333A31253162780A0D006873636FFA
:103871006D20322032206368303A31253162782060
:103881006368323A3025316278206368313A3025F5
:10389100316278206368333A30253162780A0D004D
:1038A1006873636F6D20322032206368323A25627B
:1038B10078206368313A3025316278206368303A84
:1038C1003025316278206368333A30253162780AD5
:1038D1000D006873636F6D20332033206368333AC2
:1038E1003125316278206368303A302531627820A1
:1038F1006368313A3025316278206368323A302585
:103901003162780A0D006873636F6D2032203220B6
:103911006368333A3125316278206368323A302561
:10392100316278206368313A3025316278206368EA
:10393100303A30253162780A0D006873636F6D206B
:10394100332031206368333A31253162782063684E
:10395100303A3025316278206368323A302531625D
:1039610078206368313A30253162780A0D00687336
:10397100636F6D20332031206368333A3125316222
:1039810078206368313A3025316278206368323AB1
:103991003025316278206368303A30253162780A07
:1039A1000D006873636F6D20332033206368333AF1
:1039B1003125316278206368303A302531627820D0
:1039C1006368323A3025316278206368313A3025B4
:1039D1003162780A0D006873636F6D2033203320E4
:1039E1006368333A3125316278206368313A302592
:1039F100316278206368323A302531627820636819
:103A0100303A30253162780A0D006873636F6D209A
:103A1100332033206368303A31253162782063687E
:103A2100313A3025316278206368323A302531628B
:103A310078206368333A30253162780A0D00687363
:103A4100636F6D20332033206368303A3025316253
:103A510078206368323A3025316278206368333ADE
:103A61003125316278206368313A30253162780A34
:103A71000D006873636F6D20322032206368313A24
:103A81003125316278206368303A302531627820FF
:103A91006368323A3025316278206368333A3025E1
:103AA1003162780A0D006873636F6D203220322015
:103AB1006368313A3125316278206368323A3025C2
:103AC100316278206368333A302531627820636847
:103AD100303A30253162780A0D006873636F6D20CA
:103AE100322032206368313A3025316278206368B0
:103AF100333A3125316278206368323A30253162B8
:103B010078206368303A30253162780A0D00687395
:103B1100636F6D20332033206368313A3125316280
:103B210078206368303A3025316278206368323A10
:103B31003025316278206368333A30253162780A62
:103B41000D006873636F6D20332033206368313A51
:103B51003025316278206368303A3025316278202F
:103B61006368333A3125316278206368323A30250F
:103B71003162780A0D006873636F6D203320332042
:103B81006368313A3025316278206368323A3025F2
:103B9100316278206368333A312531627820636875
:103BA100303A30253162780A0D006873636F6D20F9
:103BB100322032206368323A256278206368303AD5
:103BC1003025316278206368313A302531627820BE
:103BD1006368333A30253162780A0D006873636F88
:103BE1006D20322032206368323A25627820636882
:103BF100313A3025316278206368333A30253162B9
:103C010078206368303A30253162780A0D00687394
:103C1100636F6D20322032206368323A256278204A
:103C21006368333A3125316278206368313A30254F
:103C3100316278206368303A30253162780A0D00AC
:103C41006873636F6D20332033206368323A2562D5
:103C510078206368303A3025316278206368313AE0
:103C61003025316278206368333A30253162780A31
:103C71000D006873636F6D20332033206368323A1F
:103C8100256278206368303A302531627820636894
:103C9100333A3125316278206368313A3025316217
:103CA100780A0D006873636F6D20332033206368D9
:103CB100323A256278206368313A302531627820C2
:103CC1006368333A3125316278206368303A3025B0
:103CD1003162780A0D000D0A507265762E46573A08
:103CE10025303478000D0A437572722E46573A25F5
:103CF100303478000D0A5B4D53475D6D61696E5F2D
:103D0100696E697428293D3E2072657620213D2027
:103D1100465756455220262063616C6C20436C65E2
:103D210061724261736963454528290D0A000D0AD4
:103D310043616E6E6F7420616363657373204545E3
:103D410050524F4D21212121000D0A4E6F20696EE5
:103D5100697469616C697A65005457383831360085
:103D61005457383831364200545738383137004EBD
:103D71006F7468696E67202D2D3078253032780D8B
:103D81000A00436865636B20616761696E202D2DB0
:103D91003078253032780D0A004C61737420436805
:103DA10065636B202D2D3078253032780D0A00FFA8
:103DB1003601FF3635FF3669FF369BFF36CFFF37B9
:103DC10003FF3735FF3769FF379DFF37D1FF3805CF
:103DD100FF3839FF386DFF38A1FF38D3FF3907FFAE
:103DE100393BFF396FFF39A3FF39D7FF3A0BFF3A50
:103DF1003FFF3A73FF3AA7FF3ADBFF3B0FFF3B431D
:103E0100FF3B77FF3BABFF3BDDFF3C0FFF3C41FF3F
:103E11003C73FF3CA52D2D2D3E2050616E656C3A03
:103E210020575647412D3830302A343830202D2D37
:103E3100205449434F4E4C45535320485320376932
:043E41006E63680044
:107B7A00014200014500C10CC10B0246000001444C
:107B8A0000025500004100F301C10DC10E4100F68B
:107B9A00004100F4004100F7004400F80000000032
:109D9000ED90001FF090001DE09000202290001D2B
:109DA000E090001FF022EBA3F090001EE090002155
:109DB0002290001EE0A3F0A32290001FF090001E4E
:0F9DC000E09000202290002CF0A3EFF07BFF2218
:106FA6007B107DE07F8A12A4A41293BC900002EEAF
:106FB600129DC87A3C79D790002CEEF0A3EFF01220
:106FC600A40A1293BCEF64107003EE640260287B7F
:106FD600FF7A3C79E690002C7402F0A37410F0124C
:106FE600A40A7F107E02129C441293BCEE129DC529
:106FF6007A3C79E612A40A1293BCEF64107003EE91
:1070060064027033900002E064027004A3E064102E
:10701600601B9000DEE0FF12A8A47F0112A8BF1239
:10702600A3E37BFF7A3C79F512A40A802F12A918F4
:107036009000DEEFF080257BFF7A3D792F12A40ABF
:107046007BFF7A3D794A12A40A9000DE74FFF07F36
:107056000112A02C129598E4FF028A017F087E0097
:1070660012A47E9000E6EFF06004E0FF80027F014C
:1070760012A02C128C329000DC74FEF01295F312E2
:10708600A0657F06127A957F0A12A78912A59D7DB3
:10709600FF1270BB7D821270BBE4FB7DFF7F8A12FC
:1070A600A4A47BFF7DD07F8A12A4A47BFF7DD17F21
:0470B6008A12A4A4F2
:0970BA00227B017F8A12A4A422AA
:109ADA0075F68775F65975BF10E4F5F6758DF47548
:109AEA009850758922758855758A40758C40758796
:109AFA008075B80275A892D299D2ACF5C8C2CAD2FA
:109B0A00AD75AA5075BAF443A61843AD10C20E75C6
:0B9B1A00DE4243D840F5B175B22022B6
:03000B000269BFC8
:0B69BF00C0E0C083C082C0D075D008CB
:1069CA0005549000F5E0600214F09000F5E0703292
:1069DA00E5A05430C45403FF9000FBE06F6023909D
:1069EA0000F9E09000F8F09000FAE09000F9F090D9
:1069FA0000FBE09000FAF0A3EFF0D20F9000F574DC
:106A0A0030F0E554D394605003026B050549E5491B
:106A1A00700205487554000544E544646460030245
:106A2A006ABD9000E5E094FF5003E004F0E56224BB
:106A3A0001FFE43561FEE43560FDE4355F8F628E67
:106A4A00618D60F55F7544009000D8E0D3940140F1
:106A5A0003E014F090006DE004F09000FFE0D3949E
:106A6A00004003E014F03010069000F4E004F03027
:106A7A0004069000F7E004F090006DE0B43C08E4EE
:106A8A00F0900080E004F0900080E0B43C08E4F06C
:106A9A0090008CE004F090008CE0B41808E4F090C8
:106AAA00008BE004F0E5459000F66005E004F08014
:106ABA0002E4F0E556F47003E555F460080556E57E
:106ACA005670020555E5A0F454FC6029E542B4036A
:106ADA000DE5A0F454FCF545C20BD20C8013E54237
:106AEA00B4640EE5A0F454FCF545D20BD20C754201
:0B6AFA00500542800675420075450003
:096B0500D0D0D082D083D0E03260
:10A61A00E4F562F561F560F55F9000DEF07F6412A3
:0EA62A00A789C21A12A8E3D2B47F0102A78941
:108B1D00E4FD7F8A129FBAEF24DE601024D9601421
:108B2D00242870197BFF7A3D795A800E7BFF7A3DA0
:108B3D00796180067BFF7A3D796902A755128B8991
:108B4D007A3D797012A40A12A899EF701B128B89C5
:108B5D007A3D798312A40A128B9BEF60EAE4FD7FC4
:108B6D008A129FBAEFF460DF7F6312A789128B9B85
:108B7D00E4129DC57A3D799A12A40A22E4FD7F8AFA
:108B8D00129FBA90002CE4F0A3EFF07BFF227F63DD
:0B8B9D0012A789E4FD7F8A129FBA2214
:10A63800EFB4010553E8FE8011EF700743E80153BA
:0EA64800E8FD22EFB4020643E80143E80222D7
:03001300020026C2
:03002600C2AA3239
:0300230002A0D266
:10A0D200C0E0C0D075D00830981EC298AF99744ABB
:10A0E2002552F8EFF674572552F8A60F0552E5529D
:10A0F200C394084003755200309904C299C20DD02E
:04A10200D0D0E032A7
:0300630002A16D8A
:10A16D00C0E0C0D075D008E5AA30E01653AAFE7441
:10A17D00242543F8A69A0543E543C3941E40037571
:10A18D004300E5AA30E10553AAFDC20ED0D0D0E0C0
:01A19D00328F
:0BA89900E552B553037F00227F01222F
:08000300200DFD8F99D20D22A2
:08A91000200EFD8F9AD20E22E9
:03002B0002A80721
:0FA80700C0E0C2CF0547E54770020546D0E032FA
:10A78900E5442FFFE433FE7C007D64123FA5E544D8
:07A79900B505FBE4B504F770
:01A7A0002296
:109F0700900027E4F0A3E544F0E47B3CFAF9F8AFCE
:109F170062AE61AD60AC5F124153AC00AD01AE0201
:109F2700AF03E47B64FAF9F81240C8900027EE8F7C
:0C9F3700F0124030900027E0FEA3E0FF95
:019F430022FB
:10A5BD00C3ED9FEC9E5010C374709FFF74179EFEE9
:0FA5CD00EF2DFFEE3CFE22C3ED9FFFEC9EFE2222
:089B7000900027EEF0A3EFF0D6
:109B7800900027E07002A3E06035E4900029F0A38C
:109B8800F0900029E0FEA3E0FFE4FCFD7BD8FAF9A1
:109B9800F8D31241E5400C900029E475F001124019
:0F9BA8003080DE90002774FFF5F012403080C14E
:019BB700228B
:0553470090001AEFF0D8
:10534C00ED4410FDEB4410FBEF64056012E0FF64CC
:10535C0020600CEF6421600790001DE04410F09079
:10536C00001EE04410F090001AE012431053E300CA
:10537C0053E50153EE0253F50353FB04540C05544F
:10538C000F0654180753F50854380954380A53E3D8
:10539C000B54210C54290D53F50E54470F54551032
:1053AC0054601154551254601353FB14546E15531E
:1053BC00E51654781754811853E519548E1A5478FD
:1053CC001B53EE1C54A21D540C1E53EE1F54B9203B
:1053DC0054A221000054CA801690001FEBF0A3EDDC
:1053EC008014129D9DA3ED802F129DB1ED8018901D
:1053FC00001FEDF0A3EBF090001DE0900021802544
:10540C000254AEED129DB9F0A3EB8028129DB1EBC6
:10541C00F0A3ED801F129D90F0A3EB8008129D9DD0
:10542C00A3EBF0A3EDF090001E02549B90001FED37
:10543C00F0129DA6F090001D02549B90001EE0A35C
:10544C00129D94F0A3EB0254A8129DB1EDF09000C4
:10545C001D0254C2129DB1EBF090001DE090002192
:10546C00803A129D90F090001E0254C2EB129D9156
:10547C00129DA88027EB129DB9F0A3EDF090001DB2
:10548C00800D90001FEBF0ED129DA7F090001DE039
:10549C00900022F08028129D9D129DA6F0A3EDF0A5
:1054AC00801C129D9D129DBDF0A3ED800D129D9D43
:1054BC00A3EDF090001EE0900021F0A3EBF0E4903F
:1054CC000023F0900023E0FFC39408501174572F71
:1054DC00F8E4F6744A2FF8E4F6E004F080E5E49082
:1054EC000024F090001AE0FF3395E0FE903DB0757B
:1054FC00F003EF12427FEE75F003A42583F58312BF
:10550C0042B490001FE090002CF0900020E090003E
:10551C002DF0900021E090002EF0900022E0900001
:10552C002FF012A40A129F07900025EEF0A3EFF0C3
:10553C00129F07C3900026E09FFF900025E09EFE7F
:10554C0012A88DC3EF9428EE6480948040E2E4901E
:10555C000023F0900023E0FFC39408502B74572FC6
:10556C00F8E66441701AE00454072457F8E6B44393
:10557C000FEF240254072457F8E6B44B037F0122A3
:10558C00900023E004F080CB7FC87E00129B7090CB
:10559C000024E004F0E0C3940350030254EF7F00B6
:0155AC0022DC
:1078BD000D0A2B2B28436C6561724F5344496E663C
:1078CD006F293A20446973706C617965644F534434
:1078DD003A253278000D0A2B2B28446973706C61A0
:1078ED0079496E707574293A20446973706C6179A9
:1078FD0065644F53443A2532780020000D0A5B4DE4
:10790D0053475D446973706C6179496E7075742865
:10791D0029203D3E2053656C6563744D6F6465543D
:10792D007970653D41564D6F646520746F207365A8
:10793D00742074696D65202620646973706C61799B
:10794D00686F6C645F666C61673D256278000D0A37
:10795D002B2B28436C656172496E70757429202636
:10796D0020446973706C617965644F534428293DD7
:10797D00256278000D0A2B2B28446973706C617990
:10798D00566F6C290020202054573838303620206F
:0F799D0020005465636877656C6C2C496E63003D
:047BAA004101030092
:10A4EF0012A96690002CE4F0A3EFF07BFF2275F029
:10A4FF0011A424D6F9745635F0FA7BFF229000563A
:04A50F00740CF022B6
:109598009000047479F0A37492F07BFF7A7079FFDD
:1095A8001287987D18E4FFFE12A2BD7B0C7D07E4AC
:1095B800FFFE12A1CF7B0C7D047F0C7E0012A1CF91
:1095C800900004E0FEA3E0AA06F97BFF12A50CE4D4
:1095D800FFFE12A13A7BFF7A79799F12A50CFF7ED4
:0B95E8000012A13A7D017F01029C8867
:07A95800E4FD7F01029C8871
:0CA86900900103E0FEEFF4FFEE5FF02230
:07A95F00900103E04FF0221C
:06A96600900103E0FF2256
:109A420012A95812A96690000FEFF012A4EF7A78CB
:109A520079BD12A40A90000FE0FF20E20330E70371
:109A620012A45890000FE030E00312A81690000FE5
:109A7200E030E40312A3BC90000FE030E103129E39
:0B9A82008B90000FE030E60312A59D62
:019A8D0022B6
:106E860012A4EF7A7879E212A40A90001F74C2F075
:106E9600129A427BFF7A71795E1287987DFF7FA0F6
:106EA6007E0012A2BD7BFF7D327FA07E0012A1CFA5
:106EB600E490001EF090001EE0FFC394F050197E8F
:106EC600007BFF7A7979079000567401F012A13A97
:106ED60090001EE004F080DD900103E04410F01203
:106EE600A97290001BEFF01296A9EF75F011A42479
:106EF6002BF9745735F0FA7BFF12A73A90001DEF75
:106F0600F07FA37E0012A47EBF01099000D6E06048
:106F160003026FA590001BE064017003026FA59049
:106F2600001E7401F090001EE0FF75F0119056D51A
:106F360012427FE493FE90001BE0FDEE6D60089028
:106F4600001EE004F080DEEF12A4FD12A73A9000C6
:106F56001CEFF090001EE012A4FD90001CE09000D3
:106F660056F07FA07E0012A13A7FA37E0012A47E77
:106F7600BF01199000D6E070139000D87405F07B1D
:106F8600FF7A79790990002CF012A40A7D017F021C
:0F6F9600129C887F01129F44129F078E6A8F6B97
:016FA50022C9
:10A3BC00E4FF129F44E4FD7F02129C88900103E0AD
:10A3CC0054EFF012A96690002CEFF07BFF7A7979AC
:07A3DC005B12A40A7F0122BD
:108162007BFF7A79798112A40A7DFF12821D7D82BA
:1081720012821DE4FB7DFF7F8A12A4A4900103E01A
:1081820020E279129A427F0A12A7897BFF7A7179DB
:10819200CD1287987D327FC87E0012A2BD7B197DE9
:1081A200377FC87E0012A1CF7B197D737FE17E00ED
:1081B20012A1CF12A7D575F003EF900AA312427F46
:1081C2001242B4AE02AF01900008EE12A4F612A75A
:1081D2003A900008E0FCA3E0AA04F97BFF90005665
:1081E200EFF07FC87E0012A13A7D017F01129C88C8
:1081F200E4FD7F04129C887F01129F443017059092
:1082020001068003900105E0FF128971900103E0ED
:0A8212004404F0129F078E6A8F6B80
:10821C00227B017F8A12A4A47F057E00129B702210
:0FA81600E4FD7F02129C88900103E054FEF022C3
:108D4200E4900008F012A966900007EFF0549660D4
:108D520073E030E11512A8EC900003EEF0A3EFF0FF
:108D6200A37407F0A374D0F08011900003E56AF0B9
:108D7200A3E56BF0A3E4F0A374C8F0129F07AD075C
:108D8200AC06900003E0FEA3E0FF12A5BDD3900065
:108D920006E09F900005E09E502A900007E0548470
:108DA200600B12A458900008EFF0126E8690000734
:108DB200E030E10D129E8B900008EFF0126E86C239
:068DC200067F01227F0084
:018DC8002288
:10A45800900103E030E20A7F0112A47454FBF080FB
:10A46800087F0212A474547FF07F0122E4FD129C3D
:06A4780088900103E022C0
:1093BC00E4FFFE12A47EEF6454600280287F017EDD
:1093CC000012A47EEF64576002801A7F027E0012A6
:1093DC00A47EEF64386002800C7F037E0012A47EB2
:1093EC00EF64386004E4FEFF227F047E0012A47E4A
:1093FC00EF900004F0A3E4F07F05FE12A47E900031
:10940C0004E0FEA3E04FFF900004EEF0FEA3EFF0AB
:01941C00222D
:109C4400900004EEF0A3EFF07D54E4FFFE129BB805
:109C54007D577F017E00129BB87D387F027E001203
:109C64009BB87D387F037E00129BB8900004E0FD12
:109C74007F047E00129BB8900004A3E0FD7F057E64
:049C840000029BB887
:08A918007F067E0012A47E22DE
:09A8A400AD077F067E00029BB89F
:08A920007F097E0012A47E22D3
:09A8AD00AD077F097E00029BB893
:07A928007F0A7E0012A47EED
:01A92F002205
:108C3200E4900005F0900004F0900004E075F0115B
:108C420090572A12427FE4931243108C69008C756C
:108C5200018C7E028C87038C90048C99058CA20671
:108C62008CAB0700008CB2900005E0FD7F0A7E000D
:108C7200029BB8900005E04401F08034900005E0CA
:108C82004402F0802B900005E04404F08022900022
:108C920005E04408F08019900005E04410F08010CF
:108CA200900005E04420F08007900005E04440F089
:088CB200900004E004F0808151
:07A930007F0D7E0012A47EE2
:01A9370022FD
:09A8B600AD077F0D7E00029BB886
:02A57C00AB072B
:10A57E009000DCE0FF7E007C007D06123F93EF240E
:0EA58E000CFFE43EFEEF2BFFEC3EFE12A47E1F
:01A59C00229C
:10A7B3009000DCE075F006A4240C2FFF7E00029BC2
:01A7C300B8DD
:09A8BF00AD077F0F7E00029BB87B
:07A938007F0C7E0012A47EDB
:01A93F0022F5
:09A8C800AD077F0C7E00029BB875
:08A940007F387E0012A47E2284
:09A8D100AD077F387E00029BB840
:08A948007F377E0012A47E227D
:09A8DA00AD077F377E00029BB838
:10A3E300E4FD7FADFE129BB8E49000E0F0FD7F0832
:10A3F300FE129BB8E4FD7F0EFE129BB8125BC612E1
:07A4030093567F0102822C39
:10A656009291D290120012C2902212428B8E827573
:0EA666008300123F54FF22EFF0A3EDF0A32279
:0B9BB80090002AEEF0A3EFF0A3EDF008
:109BC30090002AE0FEA3E07807CEC313CE13D8F9A2
:109BD30044A054FE90002DF012A7A190002DE0FFA9
:109BE30012921E90002AA3E0FF12921E90002CE016
:0C9BF300FF12921E1200167F0202A789CA
:04A47E00AD07AC0674
:10A48200ED7807CEC313CE13D8F944A054FEFF12C1
:10A492009FBA900035EFF07F0212A789900035E055
:01A4A200FFBA
:01A4A3002296
:089FBA00900036EFF0A3EDF07A
:109FC20012A7A1900036E0FF12921E900037E0FF28
:109FD20012921E12A7A1900036E04401FF12921EB7
:109FE20012A200900038EFF0120016900038E0FF45
:019FF200224C
:10A4A40090005712A66DEBF012A7A1900057E0FFA1
:10A4B40012921E900058E0FF12921E900059E0FF85
:06A4C40012921E020016B8
:089E4D0090003612A66DEBF047
:109E550012A7A1900036E0FF12921E900037E0FF96
:109E650012921EE490003AF0900039E0FFA3E0C39F
:109E75009F5010900038E0FF12921E90003AE004C7
:069E8500F080E50200166A
:099D0E0090005712A66D1242AB41
:109D170012A7A1900057E0FF12921E900058E0FF93
:109D270012921EE490005DF090005CE0FFA3E0FE5D
:109D3700C39F501190005912A66012921E90005DA9
:089D4700E004F080E3020016C5
:099FF300900025EFF0A31242AB2F
:109FFC0012A7A1900025E0FF12921EE490002AF017
:10A00C00900029E0FFA3E0FEC39F501190002612A0
:10A01C00A66012921E90002AE004F080E302001663
:0100120022CB
:10A7A100D291120012D290120012C291120012C262
:02A7B1009022F4
:0D001600C291120012D290120012D291225B
:10921E00C290EF30E703D38001C312A656EF30E6BB
:10922E0003D38001C312A656EF30E503D38001C3EA
:10923E0012A656EF30E403D38001C312A656EF30C8
:10924E00E303D38001C312A656EF30E203D38001AD
:10925E00C312A656EF30E103D38001C312A656EF18
:10926E0030E003D38001C312A656C290C290D291B1
:09927E00D290D290D290C290224D
:10A20000E4FFD291120012C290FDFCD290EF25E043
:10A21000FF3091034401FFC2900DBD00010CED64BD
:0FA22000084C70E7120012D290D290D290C290E8
:01A22F00220C
:1073E7000D0A504F574552206B65792070726573AF
:1073F700736564000D0A4D454E55206B6579207005
:10740700726573736564000D0A494E505554534FA6
:1074170055524345206B65792070726573736564B7
:10742700000D0A5550206B6579207072657373657E
:1074370064000D0A444F574E206B657920707265C2
:1074470073736564000D0A53454C4543544B4559C6
:10745700206B65792070726573736564000D0A4E41
:107467004F542041535349474E4544206B6579207B
:1074770070726573736564000D0A504F574552204B
:107487006B657920000D0A4D454E554B4559206BCC
:10749700657920000D0A52454D4F5F564F4C5550A8
:1074A700000D0A52454D4F5F564F4C444E000D0A92
:1074B7004556454E544B4559206B6579207072658A
:1074C70073736564000D0A56657273696F6E4B4579
:0E74D70059206B6579207072657373656400CF
:107BAE004100FD0041010100410100004100FE00C5
:087BBE004100FC00410102003E
:08A95000E5A0F454C064C0222C
:0EA8340012A966EF30E10302002E12A10622E7
:0DA8420012A966EF30E1057F011262A92224
:0DA84F0012A966EF30E1057F021262A92216
:10A5130012A966EF30E10A3019047F01800B02654E
:10A52300939000FCE07F0160030272E5126D6512F7
:03A5330081622220
:10A5360012A966EF30E108301902800902002E9058
:10A5460000FCE060057F020272E57FFF126D651276
:03A55600816222FD
:107E1500900006EFF0A3EDF012A875900006E012B1
:107E250043107E99007E99017E99027E99037E9981
:107E3500047E99057E99067E99077E99087E9909A3
:107E45007E6A0C7EBF107EC4117EAA157ED7167E73
:107E5500A0207EA5217E7E387E873A7EE53E7EC9BE
:107E65003F00007EEC74FF9000E2F0A3F090000765
:107E7500E060037F01227F002212A5DC1284567F79
:107E8500012212A966EF30E40512A3BC8003126E2D
:107E9500867F0122900007E07F012212A8428047D9
:107EA50012A84F8042900007E060037F012212A9CB
:107EB50066EF30E132126593802D12A513802812EA
:107EC500A5368023900007E060037F012212A834C5
:107ED500801512A966EF30E10E7FF4128ECE800771
:0A7EE5007D017FC0122CCA7F01222C
:104DFA009000037401F0FF1276D9900004EFF0706E
:104E0A000302507DE024F8601C24F8602824F06036
:104E1A002C24E0603024C06014247C70307BFF7A3C
:104E2A007379E7802E7BFF7A7379FB80267BFF7A82
:104E3A0074790E801E7BFF7A74792880167BFF7A3C
:104E4A00747939800E7BFF7A74794C80067BFF7AFD
:104E5A0074796412A40A9000EEE06007E4900004FA
:104E6A000250177FAC7E0012A47E900005EFF0126C
:104E7A00A950703AE070377FD07E07129B7012A952
:104E8A00506007900101E0B403247D017FAC7E00ED
:104E9A00129BB87F01127A957FD07E07129B7012FF
:104EAA00A59DE49000FFF0900101F0126E8690003B
:104EBA00FFE07013900005E0700D900101E06007BB
:104ECA00E4F07F0112A638900004E06019A3E070B4
:104EDA001512A9506010E4FF127A957FF412A7897F
:104EEA0012A59D7F012212A875900004E0124310BA
:104EFA00504B024F16044F49084FC7104FEA205033
:104F0A001F40502B805056C00000507D7BFF7A74A2
:104F1A00797F12A40A2011239000EEE06003025068
:104F2A007DFD7F0C127E15900003EFF0E49000D512
:104F3A00F0FD7FABFE129BB802507DC211806A7BE6
:104F4A00FF7A74798C12A40A900102E060397B1608
:104F5A007D0A7F8A12A4A47B807D617F8A12A4A421
:104F6A00E4FB7D667F8A12A4A47FB07E0012A47E31
:104F7A009000D6EFF0129A42129E8BE4900102F052
:104F8A009000FCF002507D20112E12A966EF30E14C
:104F9A000B301902801912659302507D12A966EF2F
:104FAA0030E20C129A42129E8B126E8602507D7F5C
:104FBA003F125083F002507D7F0902504420111C99
:104FCA0012A966EF30E1077F0130192980217A742E
:104FDA00799B12509C7F1012508380317F06805A31
:104FEA0020112E12A966EF30E1117F023019061244
:104FFA0072E502507D1262A902507D7A7479A81274
:10500A00509CE4FD7F11127E15900003EFF07F01A2
:10501A00227F0780252011051282F680567F05809F
:10502A00192011149000ECE0700404F08005E4905B
:10503A0000ECF01297B3803B7F041257C3D21C8056
:10504A00327BFF7A7479B512A40A80277BFF7A74BF
:10505A0079CC12A40A900105E0640F70167DFF1244
:10506A00508D7D8212508DE4FB7DFF7F8A12A4A4AD
:08507A001298B8900003E0FF5A
:1050820022E4FD127E15900003EF227B017F8A123B
:10509200A4A47F057E00129B70227BFFE490002C6B
:0550A200F012A40A2237
:0576D900900006EFF037
:1076DE00A20C921AC20C200F030277B5D21A900098
:1076EE00F8E0FF7012A3E0B4010DA3E0B40308A309
:1076FE00E0B40203434510EFB403139000F9E0B475
:10770E00020CA3E07008A3E0B401034345109000FF
:10771E00F8E07012A3E0B4020DA3E0B40308A3E0F6
:10772E00B401034345209000F8E0B40311A3E0B484
:10773E00010CA3E07008A3E0B4020343452012A994
:10774E0066EF20E1609000F8E0FFB40111A3E0B411
:10775E00030CA3E0B40207A3E07003434510EFB49B
:10776E0002139000F9E0700DA3E0B40108A3E0B499
:10777E0003034345109000F8E0B40211A3E0B403F4
:10778E000CA3E0B40107A3E070034345209000F87A
:10779E00E0B40111A3E0700DA3E0B40208A3E0B4BD
:1077AE000303434520C20F201A037F0022900006D8
:0E77BE00E06003AF4522200B03AF45227F00A1
:0177CC00229A
:1055AD000D0A4932432061646472657373203A2099
:1055BD002530327820000D0A5B4D53475D436865F9
:1055CD00636B4465636F646572496E7075742829E9
:1055DD00203D3E20736F6D6520696E7075742D3E94
:1055ED004E4F494E505554202620446973706C61BE
:1055FD007965644F534428293D256278000D0A5B77
:10560D004D53475D436865636B4465636F646572B5
:10561D00496E7075742829203D3E204E4F494E50DD
:10562D0055542D3E736F6D6520696E70757420260F
:10563D0020446973706C617965644F534428293D2A
:10564D00256278000D0A5B4D53475D436865636BBA
:10565D004465636F646572496E7075742829203DC9
:10566D003E20736F6D6520696E707574312D3E73BC
:10567D006F6D6520696E70757432202620446973D4
:10568D00706C617965644F534428293D256278001B
:10569D000D0A2043485F54573238333528253032B0
:1056AD007829000D0A2043485F43414D4428253099
:1056BD00327829000D0A2043485F415628253032A3
:1056CD0078290020200A0D00FE00000000000000D7
:1056DD00000000000000000000014356425300008E
:1056ED00000000000000000000000243414D204476
:1056FD0000000000000000000000000341562020C3
:10570D00000000000000000000000000000000008C
:10571D0000000000000000000000000000FE00007E
:10572D000000000000000000000000000000014E1D
:10573D005453430000000000000000000000000270
:10574D0050414C000000000000000000000000006F
:10575D0003534543414D00000000000000000000D0
:10576D00000550414C4D00000000000000000000FD
:10577D0000000650414C4E000000000000000000EB
:10578D000000000750414C363000000000000000C2
:10579D0000000000044E545343342E3433000000F7
:1057AD0000000000000000000000000000000000EC
:0657BD00000000000000E6
:107BC600C10AC104C1024100DA00016900C100C155
:077BD60005C101C106C10950
:10A19E00EF75F011A424D5F582E43456F583E493DB
:10A1AE002290002CE4F0A3EFF022900001023F5425
:10A1BE00E4FB7DFF7F8A22E4F567F568F566F565B9
:01A1CE00226E
:0686F6009000211242ABCE
:1086FC00E4900024F0A3F0123F3BFF900026F07BA7
:10870C00FF7A5579AD12A1AF12A40A900021124242
:10871C008B12A1B8FF900024E4F0A3EFF0805B90E3
:10872C00002112428B123F3BFFB4FF0612A1B8F49A
:10873C006054900027EFF012A1B8900028F030039D
:10874C002B9000EEE0B42024900027E0FFB40A0642
:10875C00A37413F08016EFB4610890002874A6F08F
:10876C00800AEFB466069000287460F0900026E052
:10877C00FFA3E0FDA3E0FB12A4A4900022E475F09B
:0C878C0002124030809912A1BE02A4A489
:108E4C00900020EFF07BFF7A5079A71286F612A1E2
:108E5C00BE12A4A4900020E024FE60131460102421
:108E6C00FD600C240624F85011240A600D80117B3F
:108E7C00FF7A5179F71286F680069000207401F083
:108E8C009000DCE0B405139000E6E07002800B90DB
:108E9C000020E014FF12A691800312A3427B157DE3
:108EAC00297F8A12A4A47B067D5C7F8A12A4A47FEE
:108EBC000B7E0012A47E1279AC12A92012822CC255
:028ECC001D2265
:10A7C4007D017F8A129FBAEF30E7037F01227F0069
:01A7D4002262
:1075E000E490001DF0A3F09000DCE0B405099000E9
:1075F000E6E060030276BCE490001BF01298629013
:10760000001CEFF090001EE004F0E0C3940A400379
:107610000276BC90001CE0FF64FE60E09000D7E0C2
:10762000FEEF6E60D790001BE0FFA3E0FEB50706FB
:10763000A3E004F0800AE490001DF090001BEEF03F
:1076400090001DE0C3940240B390001CE0701A1239
:1076500076BD7A5579C312A40A90001CE0FF12A0EF
:107660002C90001F7401F0804B9000D7E0701B122B
:1076700076BD7A56790A12A40A9000D6E0700630D8
:10768000060312A59D1276C8802512A96690002CCB
:10769000EFF07BFF7A56795112A40A9000D6E07081
:1076A0000630060312A59D1276C87F3212A789E420
:0C76B00090001FF090001FE024FF9209E2
:1076BC002212A96690002CEFF07BFF2290001CE0B8
:0D76CC00FF12A02C90001CE0FF128E4C223B
:10A5590012A7C4EF60037F01227D1C7F8A129FBA74
:10A56900EF54F0FF30E7037F0122EF5470C4540F1A
:02A5790004FFDD
:01A57B0022BD
:1096A90012A559AB07EB24FE601914601624FD605E
:1096B90012240224FC50042407701775670075688A
:1096C9003C8006756700756832E475666B75653DA3
:1096D900800312A1C5F564F563E4FFEF75F011A4E9
:1096E900242AF582E43457F583E493FEB503012275
:0896F900EE60030F80E57F0025
:019701002245
:06A96C009000D7E0FF227D
:10A02C009000D7EFF024FE601914601624FD601226
:10A03C00240224FC50042407701775670075683CD3
:10A04C008006756700756832E475666B75653D80D2
:09A05C000312A1C5F564F56322AD
:06A972009000DCE0FF2272
:10A5DC007F0112A19EFE9000DCE0FDEE6D60030F8A
:0EA5EC0080F00F12A19E70027F0112A19EFF4F
:01A5FA00223E
:09A8E300301A03D2B722C2B722D9
:1084560090001AEFF09000DCE06F70030284FC12CB
:108466009F8090001AE09000DCF09000D7E0FF12A9
:108476008E4C9000DCE024FE601914602824027003
:108486004312A6E61284FDC294C2957BFF7A567902
:108496009D802612A7021284FDC294D2957BFF7A94
:1084A6005679B0801412A71EC217E4FF126D65D26A
:1084B60094D2957BFF7A5679C19000DCE0FF12A139
:1084C600AF12A40A12975B9000DCE0FF12A8BF7FF0
:1084D6001E12A7891275E0126E86E4FF128A017FCA
:1084E6006412A7897BFF7DD07F8A12A4A47BFF7DBF
:0F84F600D17F8A12A4A422C217E4FF126D65225F
:0DA85C00C21A12A907129F80E4FF02A6385D
:0CA87500129F079000E2EEF0A3EFF0222B
:09A8EC009000E2E0FEA3E0FF226F
:107FC100C374FF9FFFC39400400CEF94645007E417
:107FD100900004F0804BEFC39464400DEF948C50FB
:107FE10008900004741EF08038EFC3948C400DEFAC
:107FF10094B45008900004743CF08025EFC394B40D
:10800100400DEF94DC50089000047450F08012EFA2
:10801100C394DC400CEFD394FF5006900004746EBF
:10802100F09000FEE0701E900004E0FFE569D39F30
:10803100400415698008E569C39F50020569E49011
:1080410000DAF08006900004E0F5697DFF7F8A1276
:108051009FBA900003EFF012A1BE12A4A47DBE7FCF
:108061008A129FBAEF54CF4410FB7DBE7F8A12A4BF
:10807100A47DC47F8A129FBAEF54804569FB7DC4F9
:108081007F8A12A4A4900003E0FB7DFF7F8A02A4F3
:01809100A44A
:10A7F700E49000F2F09000E5F09000F07408F02289
:1071E0007FAB7E0012A47E9000D5EFF07FB07E00D2
:1071F00012A47E9000D6EFF07FAA7E0012A47E90AB
:1072000000E8EFF07FAD7E0012A47E9000E0EFF08A
:107210007FA07E0012A47E9000FEEFF07FB87E007B
:1072200012A47E9000DDEFF07FB77E0012A47E9066
:1072300000DBEFF07FB97E0012A47E9000D4EFF067
:107240007FBF7E0012A47EEF24FF92087FC57E00E0
:1072500012A47E9000DFEFF07FAF7E0012A47E903C
:1072600000ECEFF07FA51272DDEE9000E97006E011
:107270004401F08004E0540EF07FA61272DDEE901F
:1072800000EA7006E04401F08004E0540EF07FA7AD
:107290007E0012A47EAE07EE9000EB7006E0440183
:1072A000F08004E0540EF07FA87E0012A47EAE07AA
:1072B000EF9000ED7006E04401F08004E0540EF021
:1072C00012A940900105EFF012A948900106EFF0D5
:0C72D0007FB27E0012A47E9000D9EFF087
:0972DC00227E0012A47EAE0722FE
:106869007BFF7A5679D012A7559000D6E0703D1279
:10687900A966EF20E136300921200630D206E490DE
:1068890000D8F07FA3FE12A47EEF7007900103E009
:1068990054EFF07F06127A95801230060FC2067FF8
:1068A900A37E0012A47EBF0103126E86128BA890EC
:1068B9000002EFF0125F4C9000EEE0701B9000F2C6
:1068C900E060159000E8E0FF9000E5E0C39F400814
:1068D90012A4CAE49000E5F09000FEE0700E7DC9B4
:1068E9007F8A129FBA900002EFF080027FFF127F29
:1068F900C1124DFAEF70030269BE7FA37E0012A494
:106909007EEF60619000D8E06401705912A966EFCA
:1069190020E15212A966EF20E24B9000D6E0700503
:1069290012A3BC803B9000E9E0540DF09000EAE02E
:10693900540DF09000EBE0540DF09000EDE0540D93
:10694900F01299F59000E9E04402F09000EAE04481
:1069590002F09000EBE04402F09000EDE04402F018
:10696900E49000D8F0128D4212A972EF1424FD5060
:1069790002800F12A966EF20E1081275E0300302C8
:10698900C2037DB27F8A129FBAEF60030268727BED
:10699900B07DFD7F8A12A4A4E4FF12A6387FF47E9D
:1069A90001129B707F0112A6387B307DFD7F8A1210
:0569B900A4A4026872B5
:0169BE0022B6
:10970200E4900000F0A3F0C2B5C21A12A9077F0AC2
:109712007E00129B70C2B4129ADA7F0112A638122E
:10972200A61A12A7F7128B1D126FA67F0A7E0012CD
:109732009B701271E0E49000EEF0D2039000D5E04D
:1097420060031268691290C8E4FF126D657FA97EFA
:099752000012A47E1299A880E324
:1090C800E4900004F0128BA8900003EFF0601BE01E
:1090D800FF125F4C9000F0E0B40803D38001C34056
:1090E80019E4FF128A01D21A800D900003E0FF12E2
:1090F8005F4C12A85CC21A12A907E4FF1276D99035
:109108000002EFF060BFE0B404BB128BA8EF70B5AB
:109118009000D504F0FD7FAB7E00129BB8126E86DE
:109128001299F57FA37E0012A47EBF01069000D895
:0A9138007403F0C206E4FF028A018E
:1070C3000D0A5B4D53475D53686F774F53445769C0
:1070D3006E646F77416C6C2829203D3E206F6E3DB6
:1070E30025627800A10AA20AA000A310A410A5910A
:1070F300A601A701A822A910AA00AB62119E000055
:107103000100CC0C02700000005000000F40001181
:107113009E303100AFC81202F11008005000300059
:107123004000119E3100029000040170000000A095
:10713300F5000F4000119E31000290000301700022
:107143000000F0F5000F4000119E3230000C0D0AD4
:1071530001B104040050C800044000119E31300006
:10716300160D0F023101000050A0000840119E339C
:1071730030100C9828013101000000B400084000D1
:10718300119E3130000C020F023101000050A000AB
:10719300084000119E323000222C0205B10000206D
:1071A300F000040340119E313000862C1707B19282
:1071B30017405025080340119E30B400222C0201D1
:1071C300F1000000F0000003C100119E303C106488
:0D71D3007E1902B102044050C80005C10041
:108CBA00900053FFE475F001124294EF023F819055
:108CCA000051E0FEA3E0FF22EF14FB7D9E7F8A2283
:108CDA0090002012428B900023E0F58275830002F7
:108CEA003F54E0A4FFA3E5F0F0A3EFF07DA07F8A54
:108CFA002290005DE0FCA3E0FD22EEF0A3EFF0A3DA
:108D0A0022123FA590005BEEF0A3EFF04E22A3E003
:108D1A00FB7D967F8A22123FA5900051ECF0A3EDCD
:108D2A00F022F07B047D947F8A22EDF0EFC3940158
:088D3A0022E4FB7D947F8A22F4
:10A2900012A2B290002AF0E4A3F012A2B2FF900042
:10A2A0002AE06F700C90002BE004F0E0C3940A40A9
:01A2B000E9C4
:0CA2B100227D957F8A129FBAEF54402254
:1095F300E4900005F0E4900004F0900004E0FFC361
:109603009408502FA3E075F008A4FEEF2E7D9C1262
:109613009643FFA3E075F0089017D812427FE582C6
:109623002FF582E43583F583E4937D9D12964304FD
:0F963300F080C7900005E004F0E0C3940240B659
:0C96420022FB7F8A12A4A4900004E02206
:1094DC00900005EFF0A31242AB12952A44017D9443
:1094EC00129533900005E07D991295337DE07F8ACB
:1094FC00129FBAEF4410FB7DE07F8A12A4A4900067
:10950C000612428B90005C741BF07D9A7F8A129D30
:10951C000E12952A54FEFB7D947F8A02A4A47D949E
:0E952C007F8A129FBAEF22FB7F8A12A4A4222C
:10A065007B607D9B7F8A12A4A4E4900004F090009D
:10A0750004E0FFC394E2501FEF94C6501AEF75F049
:10A085001BA424E8F9741735F0FA7BFF1294DC90D1
:07A095000004E004F080D795
:01A09C0022A1
:039DCF00900013EE
:109DD200128D344036EFD394085030128CD212A434
:109DE200A490001375F008128CEC129FBAEF54F095
:109DF200FD900014E04DFB7DA07F8A12A4A4900088
:0B9E020014A3E0FB7DA17F8A12A4A442
:019E0D002232
:039CCC00900013F2
:109CCF00128D344039EFD394085033128CD212A432
:109CDF00A490001375F004128CEC129FBAEF540F7E
:109CEF00FD900014E0C454F04DFB7DA07F8A12A4B8
:0E9CFF00A4900014A3E0FB7DA27F8A12A4A40F
:019D0D002233
:059F4400900020EFF089
:109F49007BFF7A7079C390002CF012A40A12A290B8
:109F59007D9C7F8A129FBA900021EFF0900020E04B
:109F69006006A3E054EF8006900021E04410FB7DD9
:069F79009C7F8A12A4A4E3
:019F7F0022BF
:039C880090002029
:109C8B00128D34403BEFD394085035128CD212A472
:109C9B00A47D9F7F8A129FBA900021EFF090002045
:109CAB00E06007A3E04401F08007900021E054FE40
:109CBB00F012A290900021E0FB7D9F7F8A12A4A45A
:019CCB002276
:109B2500EFC394014006EFD394084004E4FEFF22FE
:109B3500128CD212A4A47DA07F8A129FBAEF540F73
:109B450090002AF0A3E4F07DA17F8A129FBA9000CD
:109B55002AE0F0A3E04FF090002AE0FEA3E07803AE
:0A9B6500CEC313CE13D8F9FF7E0023
:019B6F0022D3
:10980B00EFC394014006EFD394084004E4FEFF221B
:10981B00128CD212A4A47DA07F8A129FBAEF54F0AF
:10982B00C4F8540FC868FEE4C454F04890002AF002
:10983B00A3CEF07DA27F8A129FBA90002AE0F0A3FC
:10984B00E04FF090002AE0FEA3E07802CEC313CEE7
:06985B0013D8F9FF7E00A6
:0198610022E4
:10A13A00900051128D041242AB128D2D12A4A490DC
:10A14A000051128D1812A4A490005312428B900051
:10A15A0056E090005CF07D977F8A129D0E128D3B2F
:03A16A0002A4A4A8
:10A1CF00900032128D04EDF0A3EB128D2C12A4A48B
:10A1DF00900032128D1812A4A4900034E0FBA3E07B
:10A1EF00900039F07D987F8A129E4D128D3B02A40C
:01A1FF00A4BB
:10A2BD00900032128D04ED128D2C12A4A490003258
:10A2CD00128D1812A4A4900034E0900039F07B2078
:0DA2DD007D977F8A129E4D128D3B02A4A436
:096C4400900051128D041242ABC4
:106C4D009000581242ABE4900057F0900056E0646B
:106C5D000A707990005D7427F0A37410F0128CFB0C
:106C6D00C3940AEC94004056128CC9128D0B60121D
:106C7D0090005BA3E02430128CBA900057E004F032
:106C8D008015900057E0600F900053E475F00112ED
:106C9D0042947430123F81128CC990005DE0FAA3CA
:106CAD00E0FBFDAC02128D207D0A7C00AF03AE022D
:106CBD00123FA590005DEEF0A3EFF0026C6A90001C
:106CCD0051A3E02430A3128CBD026D58900056E004
:106CDD0064106003026D6290005D7410F0A3E4F027
:106CED00128CFBC39410EC94004044128CC9128D8D
:106CFD000B602890005BE0FEA3E0FFC3940AEE94C6
:106D0D00004005EF2437800790005BA3E02430128C
:106D1D008CBA128CC9128CFB128D2090005DE0C4D0
:106D2D00F854F0C868F0A3E0C4540F48F080B112D5
:106D3D008CC9C3940AEE94004005EF243780079068
:106D4D000051A3E02430FFA3128CBE9000531242D9
:076D5D008BE4123F817F016E
:016D6400220C
:06A73A009000511242AB39
:10A74000E4FF900051E475F001124294123F3B6027
:04A75000030F80EE85
:01A7540022E2
:068798009000201242AB2C
:10879E007DFF7F8A129FBA900024EFF054FEFB7D7E
:1087AE00FF7F8A12A4A47DE07F8A129FBAEF54EF56
:1087BE00128827E4900023F0128CDAFF60429000BA
:1087CE0023E02401FDE433FC90002012428BE92DBE
:1087DE00F9EA3CFAEF128830900023E02401FFE41E
:1087EE0033FE90002012428BE92FF9EA3EFA74050F
:1087FE00128830128CDA04FF900023E02FF080B83C
:10880E007DE07F8A129FBAEF4410128827900024D1
:09881E00E0FB7DFF7F8A02A4A4A7
:10882700FB7DE07F8A12A4A422900029F07F8A12A0
:038837009FF3228A
:100066000A0D6D6F646520300A0D000D0A53455464
:10007600204974656D2056616C75653A2069642D5A
:100086002558000D0A2B2B284F5344486967684DA5
:10009600656E755F73756229204F53444D656E75A5
:1000A6004C6576656C3A2564000D0A5245534554F5
:1000B6005F4D6F6E69746F7256414C5545000A0D5F
:1000C60079766D697820340A0D000A0D79766D69A6
:1000D6007820300A0D000A0D79766D697820310A8C
:1000E6000D000A0D79766D697820320A0D000A0D29
:1000F60079766D697820330A0D00436865636B2055
:10010600564741204361626C65004F7574204F6607
:100116002052616E676500FE62596B62714C2F71E9
:100126003A34FF001213566F6C756D65002020205F
:100136004175746F2041646A757374696E67202E09
:100146002E2E2E20202000436F6D706F736974650C
:100156000056657273696F6E004C43442056657293
:1001660073696F6E004456522056657273696F6EDE
:1001760000574946492049500057494649204D41B4
:10018600430047415445574159004F534420506F4F
:10019600736974696F6E004F534420506F736963BF
:1001A600695F6E004F534420FE5465714667FF0039
:1001B6004C616E6775616765004C616E67756500B9
:1001C60053707261636865004964696F6D6100FE12
:1001D6005756714667FF004272696768746E6573A9
:1001E60073004C756D696E6F7369745F0048656C5A
:1001F6006C69676B656974004272696C6C6F00FEAE
:100206004024715F60FF00436F6E74726173740007
:10021600436F6E747261737465004B6F6E747261B6
:10022600737400436F6E74726173746500FE394FA8
:10023600715F60FF0053617475726174696F6E005F
:1002460053AA74746967756E670053617475726139
:1002560063695F6E00FE4A2C33715F60FF0048756C
:100266006500546F6E616C69745C0046617262650C
:1002760000546F6E616C6964616400FE4A54487193
:100286005F60FF0053686172706E6573730041634F
:100296007569745C00536368AA7266650041677588
:1002A60064657A6100FE463933715F60FF0052650E
:1002B60073657400445C66617574004772756E649C
:1002C60065696E7374656C756700507265646574F4
:1002D60065726D696E6163695F6E00FE66246DFF0F
:1002E60000576964652053637265656E005749441B
:1002F6004520FE6D3B714667FF004D6972726F7255
:10030600004A756D70005345512054696D65205340
:10031600746570004A756D702041560043616D200A
:100326004F75740052657475726E00526563616C28
:100336006C004D6F6E69746F7220526563616C6CF0
:100346000044565220526563616C6C0045786974AE
:100356000020007665722041302E30330054696DDE
:10036600654F7574205365747570004761756765D0
:100376002053657475700047617567652052656323
:10038600616C6C005072696F72697479005265769F
:10039600657273204D6F6465005265736F6C75747A
:1003A600696F6E00465053005175616C697479002F
:1003B6005265636F7264204D6F6465005265636FAA
:1003C6007264204C656E677468005072652D616CAE
:1003D60061726D00506F73742D7265636F72640085
:1003E6004170706C79005265636F72645374617208
:1003F60074005265636F726453746F7000536E615C
:100406007073686F7400446174652054696D65008B
:1004160059656172004D6F6E7468004461790048D9
:100426006F7572004D696E00536563004461796CA7
:1004360069676874536176696E6700426567696EBD
:100446006500456E64005765656B0054696D65000F
:1004560054696D65205A6F6E650052657475726ECB
:10046600264170706C7900466F726D61742053443A
:10047600204361726400417564696F205265636F41
:100486007264004669726D776172652055706461A9
:10049600746500596573004E6F0046697273742067
:1004A6004E756D626572005365636F6E64204E759E
:1004B6006D626572005468697264204E756D62657E
:1004C6007200466F75727468204E756D62657200B3
:1004D6004368616E67652050617373776F7264005D
:1004E6004F76657257726974650044697220496D6A
:1004F60061676500547269676765722056474100F7
:10050600547269676765722044656C617900496E4B
:10051600666F726D6174696F6E00557064617465A3
:1005260020436F6E66696700534420636F76657279
:10053600204465742E00446973706C6179004456DA
:100546005220446973706C61790044697374616EFA
:100556006365204761756765004F5344204C6F63A0
:100566006B0050617373776F726400536F757263BB
:1005760065205469746C650043564253204100431C
:1005860056425320420043564253204300435642AC
:10059600532052004175746F20446179264E696775
:1005A60068740044697220496D6167650044697228
:1005B60020496D61676520410044697220496D617B
:1005C600676520420044697220496D616765204372
:1005D60000526561722053657475700043414D2069
:1005E600410043414D20520043414D2042004341CA
:1005F6004D20430043414D2044000200456E676C88
:10060600697368004672616E7B6169730044657543
:100616007473636800457370617E6F6C00FE6A23B5
:1006260056FF200004014D6F646531004D6F64650F
:1006360032004D6F6465330055736572004D6F640B
:100646006531004D6F646532004D6F64653300554A
:100656007361676572004D6F64757331004D6F6429
:10066600757332004D6F647573330042656E757431
:100676007A6572004D6F646F31004D6F646F3200A2
:100686004D6F646F33005573756172696F00FE3A82
:1006960034FF3100FE3A34FF3200FE3A34FF3300B5
:1006A600FE47515B71FF200008004175746F004ED4
:1006B6005453430050414C00534543414D004E5462
:1006C6005343342E34330050414C4D0050414C4E70
:1006D6000050414C36300005004E6F726D616C0063
:1006E600576964650050616E6F72616D6100467591
:1006F6006C6C000500FE1A1BFF2000FE1C1DFF206F
:1007060000FE1E1DFF2000FE1F20FF2000FE1F21F1
:10071600FF200009004F6666004343310043433221
:1007260000434333004343340054310054320054F1
:10073600330054340002004F4E004F46460002007C
:100746004D4952524F52004E4F524D414C000300FC
:10075600446179004155544F004E69676874000240
:100766000031363A3900343A33000200004F4E0069
:100776004F464600040053494E474C4500445541F8
:100786004C00545249504C4500412B422C422B41BF
:100796000007004100412B4200412B4300412B52F0
:1007A60000412B424300412B425200412B43520051
:1007B60007004200422B4100422B4300422B5200CD
:1007C600422B414300422B415200422B4352000729
:1007D600004300432B4100432B4200432B5200436E
:1007E6002B414200432B415200432B42520005004D
:1007F6005200522B4100522B4200522B4300522FE3
:10080600414200522F414300522F424300522B4196
:100816004200522B414300522B4243000E005155D9
:1008260041440053455100412B4200432B520041A5
:100836002B5200522B4200412B4300432B420052C5
:100846002F414200522B41420041004200430052D8
:10085600000500515541440041004200430052004A
:10086600020000373230783438300033353278328F
:1008760034300005000035003130003135003230AB
:10088600003235003330000500004C6576656C2D6E
:1008960031004C6576656C2D32004C6576656C2DA5
:1008A60033004C6576656C2D34004C6576656C2D91
:1008B60035000300004E6F6E65004E6F726D616C01
:1008C60000416C61726D000600003120206D696E7A
:1008D600003220206D696E003320206D696E003471
:1008E60020206D696E003520206D696E0031302044
:1008F6006D696E0005000031352073656300333085
:10090600207365630036302073656300080000318C
:1009160035207365630033302073656300363020FD
:100926007365630002000044697361626C6500458B
:100936006E61626C65000400004669727374005350
:1009460065636F6E6400546869726400466F757201
:100956007468000400410042004300520019000080
:100966002D3132002D3131002D3130002D39002D41
:1009760038002D37002D36002D35002D34002D334F
:10098600002D32002D3100300031003200330034AA
:10099600003500360037003800390031300031317B
:1009A600003132000200502000442000030032349F
:1009B600303000343830300039363030000200FE36
:1009C6001819FF2000FE1A1BFF20000400FE1C1D44
:1009D6001E1F2021FF2000FE222328292A2BFF206C
:1009E60000FE242528292A2BFF2000412B422C42D9
:1009F6002B41000E00FE262728292A2BFF20005314
:100A0600455100412B4200432B5200412B520052CC
:100A16002B4200412B4300432B4200522F41420000
:100A2600522B4142004100420043005200564741CA
:100A360000FF0157FF0157FF0157FF0157FF0157FD
:100A4600FF015FFF015FFF015FFF015FFF015FFFC6
:100A5600016BFF016BFF016BFF016BFF016BFF0178
:100A660077FF0177FF0177FF0177FF0177FF017FAE
:100A7600FF017FFF017FFF017FFF017FFF0188FFED
:100A86000188FF0188FF0188FF0188FF0100FF013F
:100A960010FF0110FF0110FF0110FF011DFF012AC9
:100AA600FF0190FF0190FF0190FF019DFF01AAFF4A
:100AB60001B6FF01BFFF01C6FF01CEFF01D5FF0151
:100AC600DDFF01E8FF01F3FF01FEFF0205FF020D56
:100AD600FF0216FF0220FF0229FF0233FF023BFF3F
:100AE600023BFF0246FF0250FF025BFF0264FF0269
:100AF60068FF0271FF0277FF0281FF028AFF0294FC
:100B0600FF029BFF02A3FF02ABFF02B4FF02BAFF84
:100B160002C1FF02D0FF02E1FF0300FF0300FF0353
:100B260000FF0300FF0300FF0307FF0307FF0307A0
:100B3600FF0307FF0307FF030CFF030CFF030CFF74
:100B4600030CFF030CFF0322FF0322FF0322FF0314
:100B560022FF0322FF031AFF032AFF032AFF032AA9
:100B6600FF032AFF032AFF0331FF0331FF0331FF8F
:100B76000331FF0331FF0338FF0338FF0338FF0358
:100B860038FF0338FF0347FF0347FF0347FF0347C9
:100B9600FF0347FF0352FF0352FF0352FF0352FFB7
:100BA6000352FF053CFF053CFF053CFF053CFF05E6
:100BB6003CFF0544FF0544FF0544FF0544FF05448B
:100BC600FF0550FF0550FF0550FF0550FF0550FF7C
:100BD600055FFF055FFF055FFF055FFF055FFF051B
:100BE60068FF0568FF0568FF0568FF0568FF057172
:100BF600FF0571FF0571FF0571FF0571FF057EFF9A
:100C0600057EFF057EFF057EFF057EFF0585FF0548
:100C160085FF0585FF0585FF0585FF058CFF058C8E
:100C2600FF058CFF058CFF058CFF0593FF0593FFE1
:100C36000593FF0593FF0593FF059AFF059AFF05A8
:100C46009AFF059AFF059AFF05A9FF05A9FF05A9C1
:100C5600FF05A9FF05A9FF05B3FF05BFFF05CBFFEC
:100C660005D7FF05D7FF05D7FF05D7FF05D7FF0532
:100C7600E2FF05E2FF05E2FF05E2FF05E2FF05EE02
:100C8600FF05EEFF05EEFF05EEFF05EEFF05F4FF9F
:100C960005F4FF05F4FF05F4FF05F4FF05E8FF057D
:100CA600E8FF05E8FF05E8FF05E8FF05FAFF05FA96
:100CB600FF05FAFF05FAFF05FAFF0357FF0359FF81
:100CC6000363FF0371FF037DFF038AFF0393FF03A3
:100CD6009FFF03AAFF03AEFF03B6FF03C2FF03D0C5
:100CE600FF03DAFF03E6FF03ECFF03F8FF0403FF4D
:100CF600040CFF0416FF041BFF0421FF0425FF0458
:100D06002AFF042EFF0432FF0441FF0448FF044C6F
:100D1600FF0451FF0456FF0460FF046DFF047CFFCF
:100D26000489FF0499FF049DFF04A0FF04ADFF049E
:100D3600BBFF04C8FF04D6FF04E6FF04F0FF04FA75
:100D4600FF0506FF0514FF0520FF052EFF02E7FF3E
:100D560002E7FF02E7FF02E7FF02F3FE6C6F00FE09
:100D6600727500FE606300FE787B00FE666900FE19
:100D7600848700FE010200FE7E8100FE8A8D00FE51
:100D8600909300FE969900FEC0C300FE9C9F00FE55
:100D9600A2A500FEA8AB00FEAEB100FEB4B700FEF1
:100DA600BABD00000017031661170216610000FFA6
:100DB6000C3EFFFFFF3700000700B8073B0000FFAF
:100DC6000BA8FFFFFF3700000700B9073B0000FF35
:100DD6000BC6FFFFFF3700000700BA073B0000FF06
:100DE6000BD5FFFFFF3700000700BB073B0000FFE6
:100DF6000CCEFFFFFF3700000700CA073B0000FFCD
:100E06000CD1FFFFFF3700000700D607650000FF83
:100E16000B5DFFFFFF3700000300F100000000003C
:100E260000000000FFFF000000000000001702168F
:100E3600610000FF0D2BFFFFFF3700000300F100EC
:100E4600000000FF0D28FFFFFF3700000300ED0044
:100E56000000000000000000FFFF0000000000008E
:100E660000170216610000FF0D2EFFFFFF3700007E
:100E760005002D0DAA0000FF0D31FFFFFF37000012
:100E860005002E0DAA0000FF0D34FFFFFF370000FE
:100E960005002F0DAA0000FF0D37FFFFFF370000EA
:100EA6000500380DAA0000FF0D3AFFFFFF370000CE
:100EB6000300EE00000000FF0B5DFFFFFF370000A0
:100EC6000300F1000000000000000000FFFF00002A
:100ED6000000000000170216610000FF0D2EFFFF44
:100EE600FF37000005002D0DAA0000FF0D31FFFFA2
:100EF600FF37000005002E0DAA0000FF0D34FFFF8E
:100F0600FF37000005002F0DAA0000FF0D37FFFF79
:100F1600FF3700000500380DAA0000FF0D1FFFFF78
:100F2600FF3700000300EB00000000FF0D3AFFFF53
:100F3600FF370E6B0100000E670000FF0B5DFFFF21
:100F4600FF3700000300F100000000000000000071
:100F5600FFFF00000000000000170516610000FFFB
:100F66000D19FFFFFF37000007002C09630000FF83
:100F76000CF8FFFFFF3700000500200DAA0000FF58
:100F86000CFBFFFFFF3700000500210DAA0000FF44
:100F96000CFEFFFFFF3700000500220DAA0000FF30
:100FA6000D01FFFFFF3700000500230DAA0000FF1B
:100FB6000D04FFFFFF3700000500240DAA0000FF07
:100FC6000D1CFFFFFF3700000300F60000000000C5
:100FD60000000000FFFF000000000000000000FF0E
:100FE6000D28FFFFFF37000003009B00000000FFF5
:100FF6000D2BFFFFFF3700000300F100000000008B
:1010060000000000FFFF000000000000000000FFDD
:101016000D28FFFFFF37000003007000000000FFEF
:101026000D2BFFFFFF3700000300F100000000005A
:1010360000000000FFFF000000000000000000FFAD
:101046000D28FFFFFF37000003009E00000000FF91
:101056000D2BFFFFFF3700000300F100000000002A
:1010660000000000FFFF000000000000000000FF7D
:101076000B7BFFFFFF3710130100000DAB0000FFD5
:101086000B8AFFFFFF3710430100000DAB0000FF86
:101096000B5DFFFFFF3700000300F10000000000BA
:1010A60000000000FFFF000000000000001704160B
:1010B600610000FF0A64FFFFFF3600000B00F1002D
:1010C600000000000000FFFFFF3700000C00390D94
:1010D600AA0000FF0A73FFFFFF3600000B00F100B5
:1010E600000000000000FFFFFF3600000C003A0D74
:1010F600AA0000FF0A82FFFFFF3600000B00F10086
:10110600000000000000FFFFFF3600000C003B0D52
:10111600AA0000FF0B5DFFFFFF3700000300F10090
:101126000000000000000000FFFF000000000000BB
:1011360000170416610000FF0B6CFFFFFF3700006D
:1011460003009B00000000FF0B99FFFFFF37000024
:101156000300F400000000FF0CBFFFFFFF37000094
:101166000B00F400000000FF0CBFFFFFFF3700007C
:101176000B00F400000000FF0CBFFFFFFF3700006C
:101186000B00F400000000FF0CC2FFFFFF3600005A
:101196000B00F4000000000000000000FFFF00004C
:1011A6000000000000170516610000FF0CE0FFFFBD
:1011B600FF3700000700E408CD0000FF0CE6FFFF44
:1011C600FF3700000700E609120000FF0D22FFFFAF
:1011D600FF3700000700EC09590000FF0D1CFFFF58
:1011E600FF3700000300F5000000000000000000CB
:1011F600FFFF00000000000000170416610000FF5A
:101206000CDDFFFFFF3711AF01000011AB0000FF3F
:101216000CD7FFFFFF3700000700E108790000FF49
:101226000CDAFFFFFF3700000700E2088D0000FF21
:101236000D1FFFFFFF370EDF0100000EDB0000FF72
:101246000D25FFFFFF370E370100000E330000FFAC
:101256000D1CFFFFFF3700000300F5000000000033
:1012660000000000FFFF0000000000000017051648
:101276006100000000000000FFFF00000000000009
:1012860000170416610000FF0AC4FFFFFF370000C5
:101296000500960DAA0000FF0AD3FFFFFF370000E6
:1012A6000500950DAA0000FF0AE2FFFFFF370000C8
:1012B6000500970DAA0000FF0AF1FFFFFF370000A7
:1012C6000500990DAA0000FF0B00FFFFFF37000085
:1012D60005009A0DAA0000FF0B5DFFFFFF37000017
:1012E6000300F1000000000000000000FFFF000006
:1012F6000000000000170516610000FF0C74FFFFD8
:10130600FF3700000700C1073B0000FF0C83FFFF0B
:10131600FF3700000700C2073B0000FF0C92FFFFEB
:10132600FF3700000700C3073B0000FF0CA1FFFFCB
:10133600FF3700000700C4073B0000FF0B5DFFFFFF
:10134600FF3700000300F10000000000000000006D
:10135600FFFF00000000000000170516610000FFF7
:101366000C5CFFFFFF3700000700CD07970000FF6A
:101376000C5FFFFFFF3700000700CE07B60000FF37
:101386000C62FFFFFF3700000700CF07D50000FF04
:101396000B5DFFFFFF3700000300F10000000000B7
:1013A60000000000FFFF0000000000000017071605
:1013B600610000FF0B1EFFFFFF3712FF0100000D4B
:1013C600AB0000FF0D40FFFFFF3713630100000D68
:1013D600AB0000FF0C65FFFFFF3700000700C607E4
:1013E600F40000FF0B2DFFFFFF3700000700C708C2
:1013F600220000FF0B4BFFFFFF3700000700C80865
:10140600570000FF0B3CFFFFFF3700000500C90D2A
:10141600AA0000FF0B5DFFFFFF3700000300F1008D
:101426000000000000000000FFFF000000000000B8
:10143600000204FF370D61000000FFFF37FF128B2B
:1014460001009F12870D65000000FFFF37FF0DB3F7
:101456000100000DAF0D69000000FFFF37FF13B755
:1014660001009F13B30D6D000000FFFF37FF113B16
:10147600010000113700000000000000FFFF00001F
:1014860000000000000000000000FFFF37FF143BD3
:10149600010000143700000000000000FFFF0000FC
:1014A600000000000000000064003200020034006A
:1014B6001A0001002C001600000037001C00000076
:1014C600C70064002D00D200800000000700030062
:1014D60000003F0020002D00D200800000001F0009
:1014E60010002300870055002300870055FFB60033
:1014F60022FFE8000000FF0080FF80007F00000060
:1015060000000700030000007F0040111111711157
:101516003B161A010201342C342C024B3232323281
:101526003232324B3232321110131415707174721A
:10153600737071747273786300808000608080803D
:101546008020808080803B68F8909000608080805A
:101556008020808080800358F8A0A0006080808072
:1015660080208080808003322528282D6432323204
:10157600323232000A0060006100620063006600D9
:1015860067006800B900FC13DBA67B00600000174B
:10159600481BDB807B0000000017481EF2807C8021
:1015A6000001B6314826D58069000000006FDF13C0
:1015B600008B9201500000344821D4809100000035
:1015C60000174813F28092800001B6344813DC807D
:1015D6007F00000000605A14008B7C015000002937
:1015E6004814DC807C00000000294814F2807C80CE
:1015F6000001B6294814DC805F000000007B5A0C0D
:10160600008B94015000002D480CDC8094000000F3
:10161600002D480CF28094800001B62D480CDC8029
:101626007F00000000605A3AF680FB00500000265A
:10163600483AC380FB0000000026483ACC80FB8075
:101646000001B626483AC380BE00000000705A3F2B
:10165600F98029045000002E483FC3802904000069
:10166600002E483FD08029840001B62E483FC38013
:10167600E800000000805A28A4806A045000001682
:101686005A2884806A04000000165A2889806A84D1
:10169600350035165A2884801C040000006B5A2336
:1016A600F98014045000001F5A23C8801404000057
:1016B600001F5A23F08014843501871F5A23C880DF
:1016C600E700000000565A202020496E70757420ED
:1016D600203A2020202020202020202020202020EA
:1016E6000020202053797374656D203A2020202035
:1016F60020202020202020202020002020204820DC
:1017060046726571203A2020202020206B487A20DE
:101716002020202000202020562046726571203A85
:1017260020202020202020487A2020202020002051
:101736002020462F57205265763A20202020202050
:101746002020202020202020000000000000000093
:101756000000000000000000000000000000000083
:101766000000000102020505030404040404040445
:101776000404040404040404040404040404032008
:1017860020201C2020202020202020202000202077
:10179600202020202020202020002E003A000101B9
:1017A60001010202020202050505050503040404FF
:1017B60004040404040320202000202020202020EC
:1017C6002020202020002020202020202020202033
:0217D6002000F1
:107BDD004100C8FF4100C9004100CE00C119C118C4
:107BED004100B6004100CB004100D0004100CF0064
:077BFD004100C300011E005E
:104370009000B4E0FEA3E0F5828E83227E009000E0
:1043800013E09000125403FFEEF0A3EFF022900030
:10439000287A007929E0FF7E007B019000311242EB
:1043A000AB7BFF22EE900012F0A3EFF022D390003F
:1043B00013E09400900012E094002275F010124275
:1043C0007F740E93FB740F939000B7CBF0A3EBF0C8
:1043D0008F828E83ED75F01012427F740993FF7403
:1043E0000A939000B4CFF0A3EFF02290002BE024CA
:1043F000F1FF90002AE034FFFE90002F02428B7AFA
:104400001479BD9000341242AB7A1479AB2275F066
:104410001012427F740D932290002112428B900063
:104420000E124071AAF0F97BFF90002F1242AB9060
:10443000002102428B900012A3E0FD22E0FDE490F7
:104440000037F0A3EDF0229000B4E0FEA3E0FFF50A
:10445000828E832290002AE0FEA3E0FF22E0FF90FC
:104460000012E4F0A322E0FEA3E0FF9000D1EEF002
:10447000A3EFF022E4900012F0A3F0229000B4E049
:10448000FEA3E0FFEE9000C4F0A3EFF0A322E0FE55
:10449000A3E0FF9000B7E0FCA3E0F5828C8322E06C
:1044A000FEA3E0FF7B019000567408F02290000C00
:1044B000E090000EA4FFE5F08FF002403075F010A0
:1044C00012427F740E93FC740F93AA04F97BFF9041
:1044D00000091242AB8F828E8322FFE975F003A49C
:1044E0002418F582E43400F5832290000EE0FEA348
:1044F000E0FF9000B7E0FAA3E0F5828A83740393AB
:10450000FDE4932274362DF582E43400F583227D98
:10451000017BFF7E007F0C023F1590004EE475F09A
:1045200001124294023F3B9000021242E09000CE02
:10453000E075F003A4F58285F0830242E0F0A3EF7A
:10454000F0D39014AB7401939FEE6480F8E493640D
:10455000809822FF90002AE0340022EFF0900011B2
:10456000E0229000B4E0FEA3E0AA06F97BFF2275EA
:10457000F01002427FE0FD75F00A84E5F02430225D
:10458000A3E475F001024030E0FEA3E02DFDEE3C17
:10459000FCEDA4FBAAF0FF90001AE0229014ADE419
:1045A00093FE740193FF2290000EE4F0A3740EF0CA
:1045B00022F0E0FF25E02417F582E43415F583E4CA
:1045C0009322F0EF25E02418F582E43415F583E416
:1045D00093227E00EEF0A3EFF07B0122EEF0A3EF3A
:1045E000F0A30242AB9000D3E0640122740E93FB6F
:1045F000740F939000B7CBF0A3EBF022EF54F8FFC9
:10460000A3E054074FFB7D177F8A22900013E0241C
:1046100003F0900012E03400F022FFE493FC7401F8
:1046200093FDC3EF9DFEE49C2290000CEEF0A3EFFF
:10463000F0FD900012E0FF22E51E25E024BBF5828C
:10464000E43400F5832235F0FA7BFF90000DE09012
:104650000056F022F583EEF0EF75F00A84900034F6
:10466000F0222442F582E43400F583229000D1A3A5
:10467000E0FF22E0FFA3E09000C4CFF0A3EFF02220
:104680007D177C00123F93EF22FFE08FF0A4FF2202
:1046900090000D023F54A3E054074438FB7D787F1F
:1046A0008A2235F0FA7BFF9000240242ABC39000CF
:1046B00013E0940622F090003CE004F022E0FF7E3C
:1046C000007B017A00792A22F0ED75F00A849000CF
:1046D0000AF022FBC3EF9BFFEE9400FEC322C390BF
:1046E0000013E0940222F9E43AFA0242AB2FFFE011
:1046F00035F0FAA9077BFF22E024052FF075F005BD
:104700008422FFE4F0A3EFF022900015A3E0FF2243
:10471000FF7E007B017A007929229FEE6480F8EC0D
:104720006480982212428B023F3B75F011A424D67C
:10473000F9745622F582E43400F583EEF0227B0111
:0C4740007A00793D22E4FB7D9E7F8A22F6
:03000E0012A93004
:0100110022CC
:05670000900014EFF011
:1067050012000E900019EFF0900014E0B401047F20
:106715000180027FFF9000191246F8E5F01245B19D
:10672500FEFD900015E4F0A3EDF09000CCE0FDC374
:10673500900016E09DF0900015E09400F09000CCDC
:10674500EE1245C2FFFD900017E4F0A3EDF09000B6
:10675500CDE0FDC3900018E09DF0900017E0940097
:10676500F09000CDEFF090001A7401F090001AE05F
:10677500FFD39404506D129B25AD07AC0690001510
:1067850075F008124588F975F003A42419F582E41B
:106795003400F583EFF0EA1244DAEFF0AF01129816
:1067A5000BAC06AD0790001775F00412458875F01F
:1067B50003A4241AF582E43400F583EFF0EAC4F863
:1067C50054F0C8EBC4540F485470FF90001AE0F918
:1067D5001244DCE04F1244DAEFF090001AE004F0C6
:1067E50002677112A2907DE07F8A129FBAEF54EF83
:1067F50012686090001A7401F090001AE0FFD394BB
:10680500045031EF14FB7D9E7F8A12A4A490001AD8
:10681500E075F003A42418F9740035F0FA7B0190B3
:10682500005C7403F07DA07F8A129D0E90001AE033
:1068350004F080C57DE07F8A129FBAEF441012688C
:1068450060900019E0FF12A8B612A290E4FB7D90BB
:0A6855007F8A12A4A4900019E0FF4E
:0A685F0022FB7DE07F8A12A4A42230
:105BC600901517E4939000CCF0901518E49390008C
:105BD600CDF0E4FF12A8B67FB0125D3F7FA0125D44
:105BE6003F7FA07E0012A47E9000FEEFF07FA11200
:105BF6005D477FA2125D477FBA125D567FA4125D94
:105C0600567FAB125D4E7FA3125D657FBB125D654D
:105C16007FA5125D4E7FA6125D5D7FA7125D5D7F3B
:105C2600A8125D6C7D327F387E00129BB89001050C
:105C36007432F0E4FF126D657D327F377E00129B71
:105C4600B87D037FB27E00129BB87FBC125D6C7F6D
:105C5600BD125D7B7FBE125D7B9000E0E0700FFDA4
:105C66007FAEFE129BB87D017FAC7E00800E7D0D5F
:105C76007FAE7E00129BB8E4FD7FACFE129BB8E4BB
:105C86009000F2F07D027FAAFE129BB87FA9125DFA
:105C96008AE4FF1299A87BFF7A00796612A7557DE0
:105CA600337FA07E0012A2BD7FB2125D8A7FB3123F
:105CB6005D737FB4125D737FB5125D827FB6125D30
:105CC600821271E0E4FF12A8C87D017FBF7E001238
:105CD6009BB87FBF7E0012A47EEF24FF9208E4FDEE
:105CE6007FB8FE129BB87FB87E0012A47E9000DDBE
:105CF600EFF07D017FB77E00129BB87FB77E001262
:105D0600A47E9000DBEFF07D027FB97E00129BB887
:105D16007FB97E0012A47E9000D4EFF0E4FD7FAF41
:105D2600FE129BB8E49000ECF09000DF04F0FD7FDB
:105D3600C57E00129BB8028DC97D017E00129BB8FC
:105D460022E4FDFE129BB8227D017E00129BB82242
:105D5600E4FDFE129BB8227D017E00129BB822E470
:105D6600FDFE129BB822E4FDFE129BB8227D017E49
:105D760000129BB822E4FDFE129BB8227D017E0034
:0B5D8600129BB822E4FDFE129BB82225
:10A7D50012A9389000CEEFF075F00584AFF0EFF0D8
:01A7E5002251
:10A67400EFB401047F0180027FFF9000CE1246F800
:0CA68400AFF0EFF012A8C89000CEE0FF8D
:01A6900022A7
:0592F000900016EDF0F6
:1092F500EF75F003A42481FEE435F0A3F0A3CEF0CE
:10930500E4A3F0900019E0FFC394035043900018C4
:10931500E02FFF900017E03400FE12A47E90001AA3
:109325001245D27A00791C12439B1243FF128651D3
:10933500900019E02471FD90001CA3E0FF90001639
:10934500E02FFB7F8A12A4A4900019E004F080B3FB
:0193550022F5
:10904D00EFB401047F0180027FFF9000D2E0240481
:10905D00FD9000D1E03400FCEF3395E0FEED2FFFE5
:10906D00EC3EF0A3EFF07E009000D1124385FD7F22
:10907D0080129BB87F107E0012A47E7E007B017A49
:10908D0000791412439B7A1479C31244031286514A
:10909D0012466C900014A3E0FD1292F07F807E00CA
:1090AD0012A47EEF64037B8A60047D3080027D37DD
:0A90BD007F3C7E0012A1CF12466C2A
:0190C7002286
:05850500900014EFF0EE
:10850A00ED9000D2B4010DE02401FF9000D1E034D7
:10851A0000FE800BE024FFFF9000D1E034FFFE90C4
:10852A000015EE12453D501512459C900016E09F2D
:10853A00EE6480F8900015E064809840030285A7F5
:10854A009000151244667B017A00791712439B1238
:10855A0043FF128651900014E0248AFFE433FEA3FD
:10856A00A3E0FD129BB87F107E0012A47E90001536
:10857A001245D27A00791912439B7A1479C31244AC
:10858A0003128651900014E02471FD900019A3E0B3
:10859A00FF900017A3E02FFB7F8A12A4A412466C57
:0185AA0022AE
:10975B007D707F8A129FBAEF54BFFB7D707F8A1298
:10976B00A4A47D741297A97D757F8A12A4A47D761B
:10977B001297A97D717F8A12A4A47B807D727F8A48
:10978B0012A4A47B807D737F8A12A4A47D707F8A30
:10979B00129FBAEF4440FB7D707F8A02A4A47B80AA
:0897AB007F8A12A4A47B802236
:0679AC00900021EFF0FD48
:1079B2007F0B7E00129BB8900021E06403606CE4B0
:1079C200A3F0A3F0900022E0FEA3E0FFC3940FEE29
:1079D20064809480503B900021E0C454F0243DF533
:1079E20082E43415F583E5822FF582E5833EF58343
:1079F200E493FB900022A3E0242DF58274153EF55A
:107A020083E493FD7F8A12A4A49000221245818010
:107A1200B3900021E0C454F0244CF582E43415F50F
:0B7A220083E493900024124702804E82
:107A2D00E4FF12A8F5129E0E7F0112A8F5129A8E90
:107A3D007F0212A8F5AD07E4FF1291427F0312A851
:107A4D00F5AD077F011291427F0412A8F51291B294
:107A5D007F0512A8F57E009000261245D47A007994
:0E7A6D002412439B7A157905124403128651A8
:107A7B0090002412469612A4A47D177F8A129FBAF7
:097A8B009000241245FC12A4A491
:017A940022CF
:03A978007F00223B
:09A8F50012A57C7E0012446B22C6
:0588D800900014EFF018
:1088DD00EDB401067E007F0180047EFF7FFF9000D6
:1088ED00D1E0FCA3E0FD2FFFEC3EFE9000151245FC
:1088FD003D501612459C900015E0FAA3E0FB9FEE4B
:10890D006480F8EA6480984003AF0522900014E07B
:10891D0014601814601D14601A14602724FE602B57
:10892D002406702DAF03129E0E8026124709129A4F
:10893D008E801E900014E024FEFFA3A3E0FD129193
:10894D0042800E1247091291B28006124709129207
:10895D0087900014E0FFA3A3E0FD12A7B3900015CC
:03896D001244664B
:0189700022E4
:059E0E00900028EFF0B8
:109E130012A972900028E0BF010C12471012439B55
:109E23007A1479ED800A12471012439B7A1479E76A
:109E33001244031286519000DCE090151093FD90BC
:0A9E43000029A3E0FB7F8A02A4A41B
:059A8E00900028EFF03C
:109A93009000DCE06404701712438E7A1479C912C3
:109AA3004403128651900029A3E0FB7D74802212A7
:109AB300438E7A1479F312440312865112A978EF74
:109AC3009000296007A3E0FB7D3A8005A3E0FB7DBE
:069AD300107F8A12A4A41A
:019AD900226A
:109287007E007B017A00791712439B7A1479E112E9
:1092970044031286517DFF7F8A129FBA900019EF0F
:1092A700F0E47DFF1292E97DBE7F8A129FBAEF54E8
:1092B700CF44107DBE1292E97DC47F8A129FBAEF18
:1092C7005480FD900017E0A2E713A3E0134DFB7D48
:1092D700C47F8A12A4A4900019E0FB7DFF7F8A0255
:0292E700A4A43D
:0792E900FB7F8A12A4A422FE
:0591B200900028EFF021
:1091B7009000DCE06404702A9000287A0079291274
:1091C70043957A1479D51244031286517D707F8AAC
:1091D700129FBAEF54C0FF900029A3E04FFB7D70A8
:1091E700802F900028E0FF7E007B017A007929120A
:1091F700439B7A1479FF12440312865112A978EF20
:109207009000296007A3E0FB7D3E8005A3E0FB7D7E
:06921700157F8A12A4A4D9
:01921D00222E
:08914200900028EFF0A3EDF00E
:10914A0012A978EF60301246BD12439B7A15790B4B
:10915A00124403128651900028E0243CFD7F8A12B3
:10916A009FBAEF5480FF90002AA3E02FFB900028BB
:10917A00E0243CFD802C9000291246BD12439B7AC4
:10918A001479F91244031286519000DCE090002809
:10919A00B40405E024728003E02413FD90002AA39E
:0791AA00E0FB7F8A12A4A480
:0191B100229B
:05883A00900014EFF0B6
:10883F007D787F8A129FBAEF5407540F900017125A
:10884F004702900014E0B401047F0180027FFFEF24
:10885F003395E09000178FF01240309015051245B8
:10886F009F900017E0FCA3E0FDC312471A400D9044
:10887F00150712459FD3ED12471A400412466C227A
:10888F00AF057E007B017A00791512439B7A14792C
:10889F00AB9000341242AB7A1579051286519000D5
:1088AF001712469612A4A47D177F8A129FBA9000C2
:1088BF00171245FC12A4A4900015A3E0FD7F05122A
:0888CF00A7B3900015124466E6
:0188D700227E
:109356009000DCE090000CF09000DC7401F09000CE
:10936600DCE0FFC394075030EFB40413E490000B25
:10937600F090000BE09015731293AB40F48011E46B
:1093860090000BF090000BE090156D1293AB40F43B
:109396009000DCE004F080C690000CE09000DCF069
:0593A6007F030279AC19
:1093AB00FF93FD12A7B390000BE004F0E0C394060B
:0193BB00228F
:10822C00900021EFF0D39403400B7F0112822C902D
:10823C0000217401F09000EEE0B42005E4900021E0
:09824C00F0900021E09000E4F044
:1082550012A96CEF6401601E12A96CEF640460162C
:1082650012A96CEF6405600E12A96CEF6407600635
:1082750012A96CEF7018900021E075F00AA4248D06
:10828500F974151246A29000E47401F08010900074
:1082950021E075F00AA424B5F974151246A212A2BC
:1082A50090E4900022F0A3F0900022E0FEA3E0FF0E
:1082B500C3940AEE64809480502FEF25E0FFEE33DF
:1082C500FE74792FF58274153EF583740193FD9044
:1082D5000024124724FB7F8A12A4A490002512458E
:0982E5008190002212458180BF46
:0882EE009000E4E0FF02A8ADDE
:10A2EA00E51EC3940450229000C4E0FEA3E0FF12CE
:10A2FA004638EEF0A3EFF09000C7E0FFAE1E051E51
:0CA30A00741A2EF8A6077F01227F0022A3
:10A6AE00E51E6015151E124638124673741A251EC5
:0CA6BE00F8E69000C7F07F01227F002228
:109BFF0090001F1242AB900022EDF0BDFF037FFFDC
:109C0F0022900022E004F0E075F010A4FF90001FF6
:109C1F0012428BE92FF9EA35F0FA900007123F5400
:109C2F00B4FF0C900008123F54B4FF037FFF229043
:059C3F000022E0FF22FD
:09A8FE00EFB4FF037FFF221F22CB
:029D4F00AC075F
:109D51009000B4E07002A3E06004E4FE80027EFFA4
:109D6100EEF460289000B4E0FAA3E0FBF5828A8368
:109D710075F010EE124411540FB50403AF0622A979
:0E9D8100037BFFAD06129BFFAE0780D4AF063A
:019D8F0022B1
:1064260090000C7401F012A2EA9000B4E0FFA3E021
:10643600CF124485E0A3F09000D3E004F0E490008E
:10644600B4F0A3F09000C674FFF07F01125D917B5B
:10645600737D327F257E0012A1CFE490000BF09071
:10646600000BE075F01AA424CDF582E43416F5830A
:10647600E493603C90000CE0FF90000BE0FB2FFFE4
:10648600E433FE124680240EFDE43EFCEB75F01A62
:10649600A424CDF9741635F0FA7BFF9000567417D4
:1064A600F0AF05AE0412A13A90000BE004F080AF05
:1064B60012A97290000B7401F090000BE0FE75F0CB
:1064C600119056D512427FE4936F600890000BE05E
:1064D60004F080E5EE12472A12655D241AFDE43EBB
:1064E600FC90000BE012472A124646AF05AE041296
:1064F600A13A12657A12655D2431FFE43EFEC006BC
:10650600C00712657A124646D007D00612A13A7F16
:1065160004126588243090000EF0A3742EF07F05D7
:10652600126588E0FDC4540F2430900010F0ED543D
:106536000F2430A3F0E4A3F090000CE0FF7E0012DD
:1065460046802448FFE43EFE7B017A00790E9000E7
:07655600567404F002A13AA3
:10655D0035F0FA7BFF12A73A90000DEFF090000C8A
:10656D00E0FF7E007C007D17123F93EF221296A96B
:10657D00EF75F011A4242BF97457227E0012A47E1E
:06658D0090000BEFF0226C
:0589710090000AEFF088
:10897600780B7C007D017BFF7A1779707E007F186B
:10898600123F1590000AE0C394645030E0FF75F082
:108996000584E5F090176993FEEF75F00584FF24D2
