:103601006873636F6D20312031206368303A312552
:10361100316278206368313A3025316278206368FD
:10362100323A3025316278206368333A302531628D
:10363100780A0D006873636F6D2031203120636853
:10364100313A3125316278206368303A3025316270
:1036510078206368323A3025316278206368333AE2
:1036610030253162780A0D006873636F6D20312057
:1036710031206368323A256278206368303A302518
:10368100316278206368313A30253162782063688D
:10369100333A30253162780A0D006873636F6D200B
:1036A100312031206368333A3125316278206368F3
:1036B100303A3025316278206368313A3025316201
:1036C10078206368323A30253162780A0D006873D8
:1036D100636F6D20322032206368303A31253162C8
:1036E10078206368313A3025316278206368323A54
:1036F1003025316278206368333A30253162780AA7
:103701000D006873636F6D20322032206368323A96
:10371100256278206368333A312531627820636805
:10372100303A3025316278206368313A3025316290
:10373100780A0D006873636F6D2032203220636850
:10374100303A3025316278206368333A312531626D
:1037510078206368313A3025316278206368323AE3
:1037610030253162780A0D006873636F6D20322055
:1037710032206368333A3125316278206368313A07
:103781003025316278206368303A30253162782003
:103791006368323A30253162780A0D006873636FCD
:1037A1006D20332031206368333A3125316278202E
:1037B1006368303A3025316278206368313A3025C8
:1037C100316278206368323A30253162780A0D001F
:1037D1006873636F6D20332033206368303A30257E
:1037E100316278206368313A30253162782063682C
:1037F100333A3125316278206368323A30253162BB
:10380100780A0D006873636F6D203320342063687C
:10381100303A3025316278206368313A302531629F
:1038210078206368333A3125316278206368323A0F
:1038310030253162780A0D006873636F6D20342082
:1038410031206368303A3025316278206368313A3B
:103851003025316278206368323A30253162782030
:103861006368333A31253162780A0D006873636FFA
:103871006D20322032206368303A31253162782060
:103881006368323A3025316278206368313A3025F5
:10389100316278206368333A30253162780A0D004D
:1038A1006873636F6D20322032206368323A25627B
:1038B10078206368313A3025316278206368303A84
:1038C1003025316278206368333A30253162780AD5
:1038D1000D006873636F6D20332033206368333AC2
:1038E1003125316278206368303A302531627820A1
:1038F1006368313A3025316278206368323A302585
:103901003162780A0D006873636F6D2032203220B6
:103911006368333A3125316278206368323A302561
:10392100316278206368313A3025316278206368EA
:10393100303A30253162780A0D006873636F6D206B
:10394100332031206368333A31253162782063684E
:10395100303A3025316278206368323A302531625D
:1039610078206368313A30253162780A0D00687336
:10397100636F6D20332031206368333A3125316222
:1039810078206368313A3025316278206368323AB1
:103991003025316278206368303A30253162780A07
:1039A1000D006873636F6D20332033206368333AF1
:1039B1003125316278206368303A302531627820D0
:1039C1006368323A3025316278206368313A3025B4
:1039D1003162780A0D006873636F6D2033203320E4
:1039E1006368333A3125316278206368313A302592
:1039F100316278206368323A302531627820636819
:103A0100303A30253162780A0D006873636F6D209A
:103A1100332033206368303A31253162782063687E
:103A2100313A3025316278206368323A302531628B
:103A310078206368333A30253162780A0D00687363
:103A4100636F6D20332033206368303A3025316253
:103A510078206368323A3025316278206368333ADE
:103A61003125316278206368313A30253162780A34
:103A71000D006873636F6D20322032206368313A24
:103A81003125316278206368303A302531627820FF
:103A91006368323A3025316278206368333A3025E1
:103AA1003162780A0D006873636F6D203220322015
:103AB1006368313A3125316278206368323A3025C2
:103AC100316278206368333A302531627820636847
:103AD100303A30253162780A0D006873636F6D20CA
:103AE100322032206368313A3025316278206368B0
:103AF100333A3125316278206368323A30253162B8
:103B010078206368303A30253162780A0D00687395
:103B1100636F6D20332033206368313A3125316280
:103B210078206368303A3025316278206368323A10
:103B31003025316278206368333A30253162780A62
:103B41000D006873636F6D20332033206368313A51
:103B51003025316278206368303A3025316278202F
:103B61006368333A3125316278206368323A30250F
:103B71003162780A0D006873636F6D203320332042
:103B81006368313A3025316278206368323A3025F2
:103B9100316278206368333A312531627820636875
:103BA100303A30253162780A0D006873636F6D20F9
:103BB100322032206368323A256278206368303AD5
:103BC1003025316278206368313A302531627820BE
:103BD1006368333A30253162780A0D006873636F88
:103BE1006D20322032206368323A25627820636882
:103BF100313A3025316278206368333A30253162B9
:103C010078206368303A30253162780A0D00687394
:103C1100636F6D20322032206368323A256278204A
:103C21006368333A3125316278206368313A30254F
:103C3100316278206368303A30253162780A0D00AC
:103C41006873636F6D20332033206368323A2562D5
:103C510078206368303A3025316278206368313AE0
:103C61003025316278206368333A30253162780A31
:103C71000D006873636F6D20332033206368323A1F
:103C8100256278206368303A302531627820636894
:103C9100333A3125316278206368313A3025316217
:103CA100780A0D006873636F6D20332033206368D9
:103CB100323A256278206368313A302531627820C2
:103CC1006368333A3125316278206368303A3025B0
:103CD1003162780A0D000D0A507265762E46573A08
:103CE10025303478000D0A437572722E46573A25F5
:103CF100303478000D0A5B4D53475D6D61696E5F2D
:103D0100696E697428293D3E2072657620213D2027
:103D1100465756455220262063616C6C20436C65E2
:103D210061724261736963454528290D0A000D0AD4
:103D310043616E6E6F7420616363657373204545E3
:103D410050524F4D21212121000D0A4E6F20696EE5
:103D5100697469616C697A65005457383831360085
:103D61005457383831364200545738383137004EBD
:103D71006F7468696E67202D2D3078253032780D8B
:103D81000A00436865636B20616761696E202D2DB0
:103D91003078253032780D0A004C61737420436805
:103DA10065636B202D2D3078253032780D0A00FFA8
:103DB1003601FF3635FF3669FF369BFF36CFFF37B9
:103DC10003FF3735FF3769FF379DFF37D1FF3805CF
:103DD100FF3839FF386DFF38A1FF38D3FF3907FFAE
:103DE100393BFF396FFF39A3FF39D7FF3A0BFF3A50
:103DF1003FFF3A73FF3AA7FF3ADBFF3B0FFF3B431D
:103E0100FF3B77FF3BABFF3BDDFF3C0FFF3C41FF3F
:103E11003C73FF3CA52D2D2D3E2050616E656C3A03
:103E210020575647412D3830302A343830202D2D37
:103E3100205449434F4E4C45535320485320376932
:043E41006E63680044
:107B7B00014200014500C10CC10B0246000001444B
:107B8B0000025500004100F301C10DC10E4100F68A
:107B9B00004100F4004100F7004400F80000000031
:109D9100ED90001FF090001DE09000202290001D2A
:109DA100E090001FF022EBA3F090001EE090002154
:109DB1002290001EE0A3F0A32290001FF090001E4D
:0F9DC100E09000202290002CF0A3EFF07BFF2217
:106FA7007B107DE07F8A12A4A51293BD900002EEAC
:106FB700129DC97A3C79D790002CEEF0A3EFF0121E
:106FC700A40B1293BDEF64107003EE640260287B7C
:106FD700FF7A3C79E690002C7402F0A37410F0124B
:106FE700A40B7F107E02129C451293BDEE129DC624
:106FF7007A3C79E612A40B1293BDEF64107003EE8E
:1070070064027033900002E064027004A3E064102D
:10701700601B9000DEE0FF12A8A57F0112A8C01236
:10702700A3E47BFF7A3C79F512A40B802F12A919F0
:107037009000DEEFF080257BFF7A3D792F12A40BBD
:107047007BFF7A3D794A12A40B9000DE74FFF07F34
:107057000112A02D129599E4FF028A027F087E0093
:1070670012A47F9000E6EFF06004E0FF80027F014A
:1070770012A02D128C339000DC74FEF01295F412DE
:10708700A0667F06127A967F0A12A78A12A59E7DAE
:10709700FF1270BC7D821270BCE4FB7DFF7F8A12F9
:1070A700A4A57BFF7DD07F8A12A4A57BFF7DD17F1E
:0470B7008A12A4A5F0
:0970BB00227B017F8A12A4A522A8
:109ADB0075F68775F65975BF10E4F5F6758DF47547
:109AEB009850758922758855758A40758C40758795
:109AFB008075B80275A892D299D2ACF5C8C2CAD2F9
:109B0B00AD75AA5075BAF443A61843AD10C20E75C5
:0B9B1B00DE4243D840F5B175B22022B5
:03000B000269BFC8
:0B69BF00C0E0C083C082C0D075D008CB
:1069CA0005549000F5E0600214F09000F5E0703391
:1069DA00E5A05460C4135403FF9000FBE06F6023EA
:1069EA009000F9E09000F8F09000FAE09000F9F0D9
:1069FA009000FBE09000FAF0A3EFF0D20F9000F5C0
:106A0A007430F0E554D394605003026B060549E5EF
:106A1A0049700205487554000544E54464646003FE
:106A2A00026ABE9000E5E094FF5003E004F0E562DC
:106A3A002401FFE43561FEE43560FDE4355F8F62D1
:106A4A008E618D60F55F7544009000D8E0D39401A3
:106A5A004003E014F090006DE004F09000FFE0D3F2
:106A6A0094004003E014F03010069000F4E004F0C3
:106A7A003004069000F7E004F090006DE0B43C08A2
:106A8A00E4F0900080E004F0900080E0B43C08E478
:106A9A00F090008CE004F090008CE0B41808E4F068
:106AAA0090008BE004F0E5459000F66005E004F004
:106ABA008002E4F0E556F47003E555F460080556E3
:106ACA00E55670020555E5A0F4549C6029E542B4E8
:106ADA00030DE5A0F4549CF545C20BD20C8013E5D6
:106AEA0042B4640EE5A0F4549CF545D20BD20C7561
:0C6AFA00425005428006754200754500C0
:096B0600D0D0D082D083D0E0325F
:10A61B00E4F562F561F560F55F9000DEF07F6412A2
:0EA62B00A78AC21A12A8E4D2B47F0102A78A3D
:108B1E00E4FD7F8A129FBBEF24DE601024D960141F
:108B2E00242870197BFF7A3D795A800E7BFF7A3D9F
:108B3E00796180067BFF7A3D796902A756128B8A8E
:108B4E007A3D797012A40B12A89AEF701B128B8AC1
:108B5E007A3D798312A40B128B9CEF60EAE4FD7FC1
:108B6E008A129FBBEFF460DF7F6312A78A128B9C81
:108B7E00E4129DC67A3D799A12A40B22E4FD7F8AF7
:108B8E00129FBB90002CE4F0A3EFF07BFF227F63DB
:0B8B9E0012A78AE4FD7F8A129FBB2211
:10A63900EFB4010553E8FE8011EF700743E80153B9
:0EA64900E8FD22EFB4020643E80143E80222D6
:03001300020026C2
:03002600C2AA3239
:0300230002A0D365
:10A0D300C0E0C0D075D00830981EC298AF99744ABA
:10A0E3002552F8EFF674572552F8A60F0552E5529C
:10A0F300C394084003755200309904C299C20DD02D
:04A10300D0D0E032A6
:0300630002A16E89
:10A16E00C0E0C0D075D008E5AA30E01653AAFE7440
:10A17E00242543F8A69A0543E543C3941E40037570
:10A18E004300E5AA30E10553AAFDC20ED0D0D0E0BF
:01A19E00328E
:0BA89A00E552B553037F00227F01222E
:08000300200DFD8F99D20D22A2
:08A91100200EFD8F9AD20E22E8
:03002B0002A80820
:0FA80800C0E0C2CF0547E54770020546D0E032F9
:10A78A00E5442FFFE433FE7C007D64123FA5E544D7
:07A79A00B505FBE4B504F76F
:01A7A1002295
:109F0800900027E4F0A3E544F0E47B3CFAF9F8AFCD
:109F180062AE61AD60AC5F124153AC00AD01AE0200
:109F2800AF03E47B64FAF9F81240C8900027EE8F7B
:0C9F3800F0124030900027E0FEA3E0FF94
:019F440022FA
:10A5BE00C3ED9FEC9E5010C374709FFF74179EFEE8
:0FA5CE00EF2DFFEE3CFE22C3ED9FFFEC9EFE2221
:089B7100900027EEF0A3EFF0D5
:109B7900900027E07002A3E06035E4900029F0A38B
:109B8900F0900029E0FEA3E0FFE4FCFD7BD8FAF9A0
:109B9900F8D31241E5400C900029E475F001124018
:0F9BA9003080DE90002774FFF5F012403080C14D
:019BB800228A
:0553470090001AEFF0D8
:10534C00ED4410FDEB4410FBEF64056012E0FF64CC
:10535C0020600CEF6421600790001DE04410F09079
:10536C00001EE04410F090001AE012431053E300CA
:10537C0053E50153EE0253F50353FB04540C05544F
:10538C000F0654180753F50854380954380A53E3D8
:10539C000B54210C54290D53F50E54470F54551032
:1053AC0054601154551254601353FB14546E15531E
:1053BC00E51654781754811853E519548E1A5478FD
:1053CC001B53EE1C54A21D540C1E53EE1F54B9203B
:1053DC0054A221000054CA801690001FEBF0A3EDDC
:1053EC008014129D9EA3ED802F129DB2ED8018901B
:1053FC00001FEDF0A3EBF090001DE0900021802544
:10540C000254AEED129DBAF0A3EB8028129DB2EBC4
:10541C00F0A3ED801F129D91F0A3EB8008129D9ECE
:10542C00A3EBF0A3EDF090001E02549B90001FED37
:10543C00F0129DA7F090001D02549B90001EE0A35B
:10544C00129D95F0A3EB0254A8129DB2EDF09000C2
:10545C001D0254C2129DB2EBF090001DE090002191
:10546C00803A129D91F090001E0254C2EB129D9254
:10547C00129DA98027EB129DBAF0A3EDF090001DB0
:10548C00800D90001FEBF0ED129DA8F090001DE038
:10549C00900022F08028129D9E129DA7F0A3EDF0A3
:1054AC00801C129D9E129DBEF0A3ED800D129D9E40
:1054BC00A3EDF090001EE0900021F0A3EBF0E4903F
:1054CC000023F0900023E0FFC39408501174572F71
:1054DC00F8E4F6744A2FF8E4F6E004F080E5E49082
:1054EC000024F090001AE0FF3395E0FE903DB0757B
:1054FC00F003EF12427FEE75F003A42583F58312BF
:10550C0042B490001FE090002CF0900020E090003E
:10551C002DF0900021E090002EF0900022E0900001
:10552C002FF012A40B129F08900025EEF0A3EFF0C1
:10553C00129F08C3900026E09FFF900025E09EFE7E
:10554C0012A88EC3EF9428EE6480948040E2E4901D
:10555C000023F0900023E0FFC39408502B74572FC6
:10556C00F8E66441701AE00454072457F8E6B44393
:10557C000FEF240254072457F8E6B44B037F0122A3
:10558C00900023E004F080CB7FC87E00129B7190CA
:10559C000024E004F0E0C3940350030254EF7F00B6
:0155AC0022DC
:1078BE000D0A2B2B28436C6561724F5344496E663B
:1078CE006F293A20446973706C617965644F534433
:1078DE003A253278000D0A2B2B28446973706C619F
:1078EE0079496E707574293A20446973706C6179A8
:1078FE0065644F53443A2532780020000D0A5B4DE3
:10790E0053475D446973706C6179496E7075742864
:10791E0029203D3E2053656C6563744D6F6465543C
:10792E007970653D41564D6F646520746F207365A7
:10793E00742074696D65202620646973706C61799A
:10794E00686F6C645F666C61673D256278000D0A36
:10795E002B2B28436C656172496E70757429202635
:10796E0020446973706C617965644F534428293DD6
:10797E00256278000D0A2B2B28446973706C61798F
:10798E00566F6C290020202054573838303620206E
:0F799E0020005465636877656C6C2C496E63003C
:047BAB004101030091
:10A4F00012A96790002CE4F0A3EFF07BFF2275F027
:10A5000011A424D6F9745635F0FA7BFF2290005638
:04A51000740CF022B5
:109599009000047479F0A37493F07BFF7A717900D9
:1095A9001287997D18E4FFFE12A2BE7B0C7D07E4A9
:1095B900FFFE12A1D07B0C7D047F0C7E0012A1D08E
:1095C900900004E0FEA3E0AA06F97BFF12A50DE4D2
:1095D900FFFE12A13B7BFF7A7979A012A50DFF7ED0
:0B95E9000012A13B7D017F01029C8964
:07A95900E4FD7F01029C896F
:0CA86A00900103E0FEEFF4FFEE5FF0222F
:07A96000900103E04FF0221B
:06A96700900103E0FF2255
:109A430012A95912A96790000FEFF012A4F07A78C7
:109A530079BE12A40B90000FE0FF20E20330E7036E
:109A630012A45990000FE030E00312A81790000FE2
:109A7300E030E40312A3BD90000FE030E103129E37
:0B9A83008C90000FE030E60312A59E5F
:019A8E0022B5
:106E870012A4F07A7879E312A40B90001F74C2F071
:106E9700129A437BFF7A71795F1287997DFF7FA0F2
:106EA7007E0012A2BE7BFF7D327FA07E0012A1D0A2
:106EB700E490001EF090001EE0FFC394F050197E8E
:106EC700007BFF7A7979089000567401F012A13B94
:106ED70090001EE004F080DD900103E04410F01202
:106EE700A97390001BEFF01296AAEF75F011A42476
:106EF7002BF9745735F0FA7BFF12A73B90001DEF73
:106F0700F07FA37E0012A47FBF01099000D6E06046
:106F170003026FA690001BE064017003026FA69046
:106F2700001E7401F090001EE0FF75F0119056D519
:106F370012427FE493FE90001BE0FDEE6D60089027
:106F4700001EE004F080DEEF12A4FE12A73B9000C3
:106F57001CEFF090001EE012A4FE90001CE09000D1
:106F670056F07FA07E0012A13B7FA37E0012A47F74
:106F7700BF01199000D6E070139000D87405F07B1C
:106F8700FF7A79790A90002CF012A40B7D017F0219
:0F6F9700129C897F01129F45129F088E6A8F6B93
:016FA60022C8
:10A3BD00E4FF129F45E4FD7F02129C89900103E0AA
:10A3CD0054EFF012A96790002CEFF07BFF7A7979AA
:07A3DD005C12A40B7F0122BA
:108163007BFF7A79798212A40B7DFF12821E7D82B6
:1081730012821EE4FB7DFF7F8A12A4A5900103E017
:1081830020E279129A437F0A12A78A7BFF7A7179D8
:10819300CE1287997D327FC87E0012A2BE7B197DE5
:1081A300377FC87E0012A1D07B197D737FE17E00EB
:1081B30012A1D012A7D675F003EF900AA312427F43
:1081C3001242B4AE02AF01900008EE12A4F712A758
:1081D3003B900008E0FCA3E0AA04F97BFF90005663
:1081E300EFF07FC87E0012A13B7D017F01129C89C5
:1081F300E4FD7F04129C897F01129F45301705908F
:1082030001068003900105E0FF128972900103E0EB
:0A8213004404F0129F088E6A8F6B7E
:10821D00227B017F8A12A4A57F057E00129B71220D
:0FA81700E4FD7F02129C89900103E054FEF022C1
:108D4300E4900008F012A967900007EFF0549660D2
:108D530073E030E11512A8ED900003EEF0A3EFF0FD
:108D6300A37407F0A374D0F08011900003E56AF0B8
:108D7300A3E56BF0A3E4F0A374C8F0129F08AD075A
:108D8300AC06900003E0FEA3E0FF12A5BED3900063
:108D930006E09F900005E09E502A900007E054846F
:108DA300600B12A459900008EFF0126E8790000731
:108DB300E030E10D129E8C900008EFF0126E87C236
:068DC300067F01227F0083
:018DC9002287
:10A45900900103E030E20A7F0112A47554FBF080F9
:10A46900087F0212A475547FF07F0122E4FD129C3B
:06A4790089900103E022BE
:1093BD00E4FFFE12A47FEF6454600280287F017EDB
:1093CD000012A47FEF64576002801A7F027E0012A4
:1093DD00A47FEF64386002800C7F037E0012A47FAF
:1093ED00EF64386004E4FEFF227F047E0012A47F48
:1093FD00EF900004F0A3E4F07F05FE12A47F90002F
:10940D0004E0FEA3E04FFF900004EEF0FEA3EFF0AA
:01941D00222C
:109C4500900004EEF0A3EFF07D54E4FFFE129BB903
:109C55007D577F017E00129BB97D387F027E001201
:109C65009BB97D387F037E00129BB9900004E0FD0F
:109C75007F047E00129BB9900004A3E0FD7F057E62
:049C850000029BB985
:08A919007F067E0012A47F22DC
:09A8A500AD077F067E00029BB99D
:08A921007F097E0012A47F22D1
:09A8AE00AD077F097E00029BB991
:07A929007F0A7E0012A47FEB
:01A930002204
:108C3300E4900005F0900004F0900004E075F0115A
:108C430090572A12427FE4931243108C6A008C7669
:108C5300018C7F028C88038C91048C9A058CA3066B
:108C63008CAC0700008CB3900005E0FD7F0A7E000A
:108C7300029BB9900005E04401F08034900005E0C8
:108C83004402F0802B900005E04404F08022900021
:108C930005E04408F08019900005E04410F08010CE
:108CA300900005E04420F08007900005E04440F088
:088CB300900004E004F0808150
:07A931007F0D7E0012A47FE0
:01A9380022FC
:09A8B700AD077F0D7E00029BB984
:02A57D00AB072A
:10A57F009000DCE0FF7E007C007D06123F93EF240D
:0EA58F000CFFE43EFEEF2BFFEC3EFE12A47F1D
:01A59D00229B
:10A7B4009000DCE075F006A4240C2FFF7E00029BC1
:01A7C400B9DB
:09A8C000AD077F0F7E00029BB979
:07A939007F0C7E0012A47FD9
:01A9400022F4
:09A8C900AD077F0C7E00029BB973
:08A941007F387E0012A47F2282
:09A8D200AD077F387E00029BB93E
:08A949007F377E0012A47F227B
:09A8DB00AD077F377E00029BB936
:10A3E400E4FD7FADFE129BB9E49000E0F0FD7F0830
:10A3F400FE129BB9E4FD7F0EFE129BB9125BC612DE
:07A4040093577F0102822D36
:10A657009291D290120012C2902212428B8E827572
:0EA667008300123F54FF22EFF0A3EDF0A32278
:0B9BB90090002AEEF0A3EFF0A3EDF007
:109BC40090002AE0FEA3E07807CEC313CE13D8F9A1
:109BD40044A054FE90002DF012A7A290002DE0FFA7
:109BE40012921F90002AA3E0FF12921F90002CE013
:0C9BF400FF12921F1200167F0202A78AC7
:04A47F00AD07AC0673
:10A48300ED7807CEC313CE13D8F944A054FEFF12C0
:10A493009FBB900035EFF07F0212A78A900035E052
:01A4A300FFB9
:01A4A4002295
:089FBB00900036EFF0A3EDF079
:109FC30012A7A2900036E0FF12921F900037E0FF25
:109FD30012921F12A7A2900036E04401FF12921FB3
:109FE30012A201900038EFF0120016900038E0FF43
:019FF300224B
:10A4A50090005712A66EEBF012A7A2900057E0FF9E
:10A4B50012921F900058E0FF12921F900059E0FF82
:06A4C50012921F020016B6
:089E4E0090003612A66EEBF045
:109E560012A7A2900036E0FF12921F900037E0FF93
:109E660012921FE490003AF0900039E0FFA3E0C39D
:109E76009F5010900038E0FF12921F90003AE004C5
:069E8600F080E502001669
:099D0F0090005712A66E1242AB3F
:109D180012A7A2900057E0FF12921F900058E0FF90
:109D280012921FE490005DF090005CE0FFA3E0FE5B
:109D3800C39F501190005912A66112921F90005DA6
:089D4800E004F080E3020016C4
:099FF400900025EFF0A31242AB2E
:109FFD0012A7A2900025E0FF12921FE490002AF014
:10A00D00900029E0FFA3E0FEC39F5011900026129F
:10A01D00A66112921F90002AE004F080E302001660
:0100120022CB
:10A7A200D291120012D290120012C291120012C261
:02A7B2009022F3
:0D001600C291120012D290120012D291225B
:10921F00C290EF30E703D38001C312A657EF30E6B9
:10922F0003D38001C312A657EF30E503D38001C3E8
:10923F0012A657EF30E403D38001C312A657EF30C5
:10924F00E303D38001C312A657EF30E203D38001AB
:10925F00C312A657EF30E103D38001C312A657EF15
:10926F0030E003D38001C312A657C290C290D291AF
:09927F00D290D290D290C290224C
:10A20100E4FFD291120012C290FDFCD290EF25E042
:10A21100FF3091034401FFC2900DBD00010CED64BC
:0FA22100084C70E7120012D290D290D290C290E7
:01A23000220B
:1073E8000D0A504F574552206B65792070726573AE
:1073F800736564000D0A4D454E55206B6579207004
:10740800726573736564000D0A494E505554534FA5
:1074180055524345206B65792070726573736564B6
:10742800000D0A5550206B6579207072657373657D
:1074380064000D0A444F574E206B657920707265C1
:1074480073736564000D0A53454C4543544B4559C5
:10745800206B65792070726573736564000D0A4E40
:107468004F542041535349474E4544206B6579207A
:1074780070726573736564000D0A504F574552204A
:107488006B657920000D0A4D454E554B4559206BCB
:10749800657920000D0A52454D4F5F564F4C5550A7
:1074A800000D0A52454D4F5F564F4C444E000D0A91
:1074B8004556454E544B4559206B65792070726589
:1074C80073736564000D0A56657273696F6E4B4578
:0E74D80059206B6579207072657373656400CE
:107BAF004100FD0041010100410100004100FE00C4
:087BBF004100FC00410102003D
:08A95100E5A0F454906490228B
:0EA8350012A967EF30E10302002E12A10722E4
:0DA8430012A967EF30E1057F011262A92222
:0DA8500012A967EF30E1057F021262A92214
:10A5140012A967EF30E10A3019047F01800B02654C
:10A52400939000FCE07F0160030272E6126D6612F4
:03A534008163221E
:10A5370012A967EF30E108301902800902002E9056
:10A5470000FCE060057F020272E67FFF126D661273
:03A55700816322FB
:107E1600900006EFF0A3EDF012A876900006E012AF
:107E260043107E9A007E9A017E9A027E9A037E9A7B
:107E3600047E9A057E9A067E9A077E9A087E9A099D
:107E46007E6B0C7EC0107EC5117EAB157ED8167E6D
:107E5600A1207EA6217E7F387E883A7EE63E7ECAB7
:107E66003F00007EED74FF9000E2F0A3F090000763
:107E7600E060037F01227F002212A5DD1284577F76
:107E8600012212A967EF30E40512A3BD8003126E2A
:107E9600877F0122900007E07F012212A8438047D6
:107EA60012A8508042900007E060037F012212A9C9
:107EB60067EF30E132126593802D12A514802812E7
:107EC600A5378023900007E060037F012212A835C2
:107ED600801512A967EF30E10E7FF4128ECF80076E
:0A7EE6007D017FC0122CCA7F01222B
:104DFA009000037401F0FF1276DA900004EFF0706D
:104E0A000302507DE024F8601C24F8602024F0603E
:104E1A002424E0602824C0602C247C70307BFF7A34
:104E2A007379E8802E7BFF7A7379FC80267BFF7A80
:104E3A0074790F801E7BFF7A74792980167BFF7A3A
:104E4A0074793A800E7BFF7A74794D80067BFF7AFB
:104E5A0074796512A40B9000EEE06007E4900004F8
:104E6A000250177FAC7E0012A47F900005EFF0126B
:104E7A00A951703AE070377FD07E07129B7112A950
:104E8A00516007900101E0B403247D017FAC7E00EC
:104E9A00129BB97F01127A967FD07E07129B7112FC
:104EAA00A59EE49000FFF0900101F0126E87900039
:104EBA00FFE07013900005E0700D900101E06007BB
:104ECA00E4F07F0112A639900004E06019A3E070B3
:104EDA001512A9516010E4FF127A967FF412A78A7C
:104EEA0012A59E7F012212A876900004E0124310B8
:104EFA00504B024F16044F4908502B104FC7204FF2
:104F0A00EA40501F805056900000507D7BFF7A7413
:104F1A00798012A40B2011239000EEE06003025066
:104F2A007DFD7F0C127E16900003EFF0E49000D511
:104F3A00F0FD7FABFE129BB902507DC211806A7BE5
:104F4A00FF7A74798D12A40B900102E060397B1606
:104F5A007D0A7F8A12A4A57B807D617F8A12A4A51F
:104F6A00E4FB7D667F8A12A4A57FB07E0012A47F2F
:104F7A009000D6EFF0129A43129E8CE4900102F050
:104F8A009000FCF002507D20112E12A967EF30E14B
:104F9A000B301902801912659302507D12A967EF2E
:104FAA0030E20C129A43129E8C126E8702507D7F59
:104FBA003F125083F002507D7F0902504420111C99
:104FCA0012A967EF30E1077F0130192980217A742D
:104FDA00799C12509C7F1012508380317F06805A30
:104FEA0020112E12A967EF30E1117F023019061243
:104FFA0072E602507D1262A902507D7A7479A91272
:10500A00509CE4FD7F11127E16900003EFF07F01A1
:10501A00227F0780252011051282F780567F05809E
:10502A00192011149000ECE0700404F08005E4905B
:10503A0000ECF01297B4803B7F041257C3D21C8055
:10504A00327BFF7A7479B612A40B80277BFF7A74BD
:10505A0079CD12A40B900105E0640F70167DFF1242
:10506A00508D7D8212508DE4FB7DFF7F8A12A4A5AC
:08507A001298B9900003E0FF59
:1050820022E4FD127E16900003EF227B017F8A123A
:10509200A4A57F057E00129B71227BFFE490002C69
:0550A200F012A40B2236
:0576DA00900006EFF036
:1076DF00A20C921AC20C200F030277B6D21A900096
:1076EF00F8E0FF7012A3E0B4010DA3E0B40308A308
:1076FF00E0B40203434520EFB403139000F9E0B464
:10770F00020CA3E07008A3E0B401034345209000EE
:10771F00F8E07012A3E0B4020DA3E0B40308A3E0F5
:10772F00B401034345409000F8E0B40311A3E0B463
:10773F00010CA3E07008A3E0B4020343454012A973
:10774F0067EF20E1609000F8E0FFB40111A3E0B40F
:10775F00030CA3E0B40207A3E07003434520EFB48A
:10776F0002139000F9E0700DA3E0B40108A3E0B498
:10777F0003034345209000F8E0B40211A3E0B403E3
:10778F000CA3E0B40107A3E070034345409000F859
:10779F00E0B40111A3E0700DA3E0B40208A3E0B4BC
:1077AF000303434540C20F201A037F0022900006B7
:0E77BF00E06003AF4522200B03AF45227F00A0
:0177CD002299
:1055AD000D0A4932432061646472657373203A2099
:1055BD002530327820000D0A5B4D53475D436865F9
:1055CD00636B4465636F646572496E7075742829E9
:1055DD00203D3E20736F6D6520696E7075742D3E94
:1055ED004E4F494E505554202620446973706C61BE
:1055FD007965644F534428293D256278000D0A5B77
:10560D004D53475D436865636B4465636F646572B5
:10561D00496E7075742829203D3E204E4F494E50DD
:10562D0055542D3E736F6D6520696E70757420260F
:10563D0020446973706C617965644F534428293D2A
:10564D00256278000D0A5B4D53475D436865636BBA
:10565D004465636F646572496E7075742829203DC9
:10566D003E20736F6D6520696E707574312D3E73BC
:10567D006F6D6520696E70757432202620446973D4
:10568D00706C617965644F534428293D256278001B
:10569D000D0A2043485F54573238333528253032B0
:1056AD007829000D0A2043485F43414D4428253099
:1056BD00327829000D0A2043485F415628253032A3
:1056CD0078290020200A0D00FE00000000000000D7
:1056DD00000000000000000000014356425300008E
:1056ED00000000000000000000000243414D204476
:1056FD0000000000000000000000000341562020C3
:10570D00000000000000000000000000000000008C
:10571D0000000000000000000000000000FE00007E
:10572D000000000000000000000000000000014E1D
:10573D005453430000000000000000000000000270
:10574D0050414C000000000000000000000000006F
:10575D0003534543414D00000000000000000000D0
:10576D00000550414C4D00000000000000000000FD
:10577D0000000650414C4E000000000000000000EB
:10578D000000000750414C363000000000000000C2
:10579D0000000000044E545343342E3433000000F7
:1057AD0000000000000000000000000000000000EC
:0657BD00000000000000E6
:107BC700C10AC104C1024100DA00016900C100C154
:077BD70005C101C106C1094F
:10A19F00EF75F011A424D5F582E43456F583E493DA
:10A1AF002290002CE4F0A3EFF022900001023F5424
:10A1BF00E4FB7DFF7F8A22E4F567F568F566F565B8
:01A1CF00226D
:0686F7009000211242ABCD
:1086FD00E4900024F0A3F0123F3BFF900026F07BA6
:10870D00FF7A5579AD12A1B012A40B90002112423F
:10871D008B12A1B9FF900024E4F0A3EFF0805B90E1
:10872D00002112428B123F3BFFB4FF0612A1B9F498
:10873D006054900027EFF012A1B9900028F030039B
:10874D002B9000EEE0B42024900027E0FFB40A0641
:10875D00A37413F08016EFB4610890002874A6F08E
:10876D00800AEFB466069000287460F0900026E051
:10877D00FFA3E0FDA3E0FB12A4A5900022E475F099
:0C878D0002124030809912A1BF02A4A586
:108E4D00900020EFF07BFF7A5079A71286F712A1E0
:108E5D00BF12A4A5900020E024FE6013146010241E
:108E6D00FD600C240624F85011240A600D80117B3E
:108E7D00FF7A5179F71286F780069000207401F081
:108E8D009000DCE0B405139000E6E07002800B90DA
:108E9D000020E014FF12A692800312A3437B157DE0
:108EAD00297F8A12A4A57B067D5C7F8A12A4A57FEB
:108EBD000B7E0012A47F1279AD12A92112822DC250
:028ECD001D2264
:10A7C5007D017F8A129FBBEF30E7037F01227F0067
:01A7D5002261
:1075E100E490001DF0A3F09000DCE0B405099000E8
:1075F100E6E060030276BDE490001BF01298639010
:10760100001CEFF090001EE004F0E0C3940A400378
:107611000276BD90001CE0FF64FE60E09000D7E0C0
:10762100FEEF6E60D790001BE0FFA3E0FEB50706FA
:10763100A3E004F0800AE490001DF090001BEEF03E
:1076410090001DE0C3940240B390001CE0701A1238
:1076510076BE7A5579C312A40B90001CE0FF12A0EC
:107661002D90001F7401F0804B9000D7E0701B1229
:1076710076BE7A56790A12A40B9000D6E0700630D5
:10768100060312A59E1276C9802512A96790002CC7
:10769100EFF07BFF7A56795112A40B9000D6E0707F
:1076A1000630060312A59E1276C97F3212A78AE41C
:0C76B10090001FF090001FE024FF9209E1
:1076BD002212A96790002CEFF07BFF2290001CE0B6
:0D76CD00FF12A02D90001CE0FF128E4D2238
:10A55A0012A7C5EF60037F01227D1C7F8A129FBB71
:10A56A00EF54F0FF30E7037F0122EF5470C4540F19
:02A57A0004FFDC
:01A57C0022BC
:1096AA0012A55AAB07EB24FE601914601624FD605C
:1096BA0012240224FC500424077017756700756889
:1096CA003C8006756700756832E475666B75653DA2
:1096DA00800312A1C6F564F563E4FFEF75F011A4E7
:1096EA00242AF582E43457F583E493FEB503012274
:0896FA00EE60030F80E57F0024
:019702002244
:06A96D009000D7E0FF227C
:10A02D009000D7EFF024FE601914601624FD601225
:10A03D00240224FC50042407701775670075683CD2
:10A04D008006756700756832E475666B75653D80D1
:09A05D000312A1C6F564F56322AB
:06A973009000DCE0FF2271
:10A5DD007F0112A19FFE9000DCE0FDEE6D60030F88
:0EA5ED0080F00F12A19F70027F0112A19FFF4C
:01A5FB00223D
:09A8E400301A03D2B722C2B722D8
:1084570090001AEFF09000DCE06F70030284FD12C9
:108467009F8190001AE09000DCF09000D7E0FF12A7
:108477008E4D9000DCE024FE601914602824027001
:108487004312A6E71284FEC294C2957BFF7A5679FF
:108497009D802612A7031284FEC294D2957BFF7A91
:1084A7005679B08014120000C217E4FF126D66D22D
:1084B70094C2957BFF7A5679C19000DCE0FF12A148
:1084C700B012A40B12975C9000DCE0FF12A8C07FEB
:1084D7001E12A78A1275E1126E87E4FF128A027FC5
:1084E7006412A78A7BFF7DD07F8A12A4A57BFF7DBC
:0F84F700D17F8A12A4A522C217E4FF126D66225C
:0DA85D00C21A12A908129F81E4FF02A63959
:0CA87600129F089000E2EEF0A3EFF02229
:09A8ED009000E2E0FEA3E0FF226E
:107FC200C374FF9FFFC39400400CEF94645007E416
:107FD200900004F0804BEFC39464400DEF948C50FA
:107FE20008900004741EF08038EFC3948C400DEFAB
:107FF20094B45008900004743CF08025EFC394B40C
:10800200400DEF94DC50089000047450F08012EFA1
:10801200C394DC400CEFD394FF5006900004746EBE
:10802200F09000FEE0701E900004E0FFE569D39F2F
:10803200400415698008E569C39F50020569E49010
:1080420000DAF08006900004E0F5697DFF7F8A1275
:108052009FBB900003EFF012A1BF12A4A57DBE7FCB
:108062008A129FBBEF54CF4410FB7DBE7F8A12A4BD
:10807200A57DC47F8A129FBBEF54804569FB7DC4F6
:108082007F8A12A4A5900003E0FB7DFF7F8A02A4F1
:01809200A548
:10A7F800E49000F2F09000E5F09000F07408F02288
:1071E1007FAB7E0012A47F9000D5EFF07FB07E00D0
:1071F10012A47F9000D6EFF07FAA7E0012A47F90A8
:1072010000E8EFF07FAD7E0012A47F9000E0EFF088
:107211007FA07E0012A47F9000FEEFF07FB87E0079
:1072210012A47F9000DDEFF07FB77E0012A47F9063
:1072310000DBEFF07FB97E0012A47F9000D4EFF065
:107241007FBF7E0012A47FEF24FF92087FC57E00DE
:1072510012A47F9000DFEFF07FAF7E0012A47F9039
:1072610000ECEFF07FA51272DEEE9000E97006E00F
:107271004401F08004E0540EF07FA61272DEEE901D
:1072810000EA7006E04401F08004E0540EF07FA7AC
:107291007E0012A47FAE07EE9000EB7006E0440181
:1072A100F08004E0540EF07FA87E0012A47FAE07A8
:1072B100EF9000ED7006E04401F08004E0540EF020
:1072C10012A941900105EFF012A949900106EFF0D2
:0C72D1007FB27E0012A47F9000D9EFF085
:0972DD00227E0012A47FAE0722FC
:106869007BFF7A5679D012A7569000D6E0703D1278
:10687900A967EF20E136300921200630D206E490DD
:1068890000D8F07FA3FE12A47FEF7007900103E008
:1068990054EFF07F06127A96801230060FC2067FF7
:1068A900A37E0012A47FBF0103126E87128BA990E9
:1068B9000002EFF0125F4C9000EEE0701B9000F2C6
:1068C900E060159000E8E0FF9000E5E0C39F400814
:1068D90012A4CBE49000E5F09000FEE0700E7DC9B3
:1068E9007F8A129FBB900002EFF080027FFF127F28
:1068F900C2124DFAEF70030269BE7FA37E0012A493
:106909007FEF60619000D8E06401705912A967EFC8
:1069190020E15212A967EF20E24B9000D6E0700502
:1069290012A3BD803B9000E9E0540DF09000EAE02D
:10693900540DF09000EBE0540DF09000EDE0540D93
:10694900F01299F69000E9E04402F09000EAE04480
:1069590002F09000EBE04402F09000EDE04402F018
:10696900E49000D8F0128D4312A973EF1424FD505E
:1069790002800F12A967EF20E1081275E1300302C6
:10698900C2037DB27F8A129FBBEF60030268727BEC
:10699900B07DFD7F8A12A4A5E4FF12A6397FF47E9B
:1069A90001129B717F0112A6397B307DFD7F8A120E
:0569B900A4A5026872B4
:0169BE0022B6
:10970300E4900000F0A3F0C2B5C21A12A9087F0AC0
:109713007E00129B71C2B4129ADB7F0112A639122A
:10972300A61B12A7F8128B1E126FA77F0A7E0012C8
:109733009B711271E1E49000EEF0D2039000D5E04A
:1097430060031268691290C9E4FF126D667FA97EF7
:099753000012A47F1299A980E321
:1090C900E4900004F0128BA9900003EFF0601BE01C
:1090D900FF125F4C9000F0E0B40803D38001C34055
:1090E90019E4FF128A02D21A800D900003E0FF12E0
:1090F9005F4C12A85DC21A12A908E4FF1276DA9031
:109109000002EFF060BFE0B404BB128BA9EF70B5A9
:109119009000D504F0FD7FAB7E00129BB9126E87DB
:109129001299F67FA37E0012A47FBF01069000D892
:0A9139007403F0C206E4FF028A028C
:1070C4000D0A5B4D53475D53686F774F53445769BF
:1070D4006E646F77416C6C2829203D3E206F6E3DB5
:1070E40025627800A10AA20AA000A310A410A59109
:1070F400A601A701A822A910AA00AB62119E000054
:107104000100CC0C02700000005000000F40001180
:107114009E303100AFC81202F11008005000300058
:107124004000119E3100029000040170000000A094
:10713400F5000F4000119E31000290000301700021
:107144000000F0F5000F4000119E3230000C0D0AD3
:1071540001B104040050C800044000119E31300005
:10716400160D0F023101000050A0000840119E339B
:1071740030100C9828013101000000B400084000D0
:10718400119E3130000C020F023101000050A000AA
:10719400084000119E323000222C0205B10000206C
:1071A400F000040340119E313000862C1707B19281
:1071B40017405025080340119E30B400222C0201D0
:1071C400F1000000F0000003C100119E303C106487
:0D71D4007E1902B102044050C80005C10040
:108CBB00900053FFE475F001124294EF023F819054
:108CCB000051E0FEA3E0FF22EF14FB7D9E7F8A2282
:108CDB0090002012428B900023E0F58275830002F6
:108CEB003F54E0A4FFA3E5F0F0A3EFF07DA07F8A53
:108CFB002290005DE0FCA3E0FD22EEF0A3EFF0A3D9
:108D0B0022123FA590005BEEF0A3EFF04E22A3E002
:108D1B00FB7D967F8A22123FA5900051ECF0A3EDCC
:108D2B00F022F07B047D947F8A22EDF0EFC3940157
:088D3B0022E4FB7D947F8A22F3
:10A2910012A2B390002AF0E4A3F012A2B3FF90003F
:10A2A1002AE06F700C90002BE004F0E0C3940A40A8
:01A2B100E9C3
:0CA2B200227D957F8A129FBBEF54402252
:1095F400E4900005F0E4900004F0900004E0FFC360
:109604009408502FA3E075F008A4FEEF2E7D9C1261
:109614009644FFA3E075F0089017D812427FE582C4
:109624002FF582E43583F583E4937D9D12964404FB
:0F963400F080C7900005E004F0E0C3940240B658
:0C96430022FB7F8A12A4A5900004E02204
:1094DD00900005EFF0A31242AB12952B44017D9441
:1094ED00129534900005E07D991295347DE07F8AC8
:1094FD00129FBBEF4410FB7DE07F8A12A4A5900064
:10950D000612428B90005C741BF07D9A7F8A129D2F
:10951D000F12952B54FEFB7D947F8A02A4A57D949A
:0E952D007F8A129FBBEF22FB7F8A12A4A52229
:10A066007B607D9B7F8A12A4A5E4900004F090009B
:10A0760004E0FFC394E2501FEF94C6501AEF75F048
:10A086001BA424E8F9741735F0FA7BFF1294DD90CF
:07A096000004E004F080D794
:01A09D0022A0
:039DD000900013ED
:109DD300128D354036EFD394085030128CD312A431
:109DE300A590001375F008128CED129FBBEF54F091
:109DF300FD900014E04DFB7DA07F8A12A4A5900086
:0B9E030014A3E0FB7DA17F8A12A4A540
:019E0E002231
:039CCD00900013F1
:109CD000128D354039EFD394085033128CD312A42F
:109CE000A590001375F004128CED129FBBEF540F7A
:109CF000FD900014E0C454F04DFB7DA07F8A12A4B7
:0E9D0000A5900014A3E0FB7DA27F8A12A4A50B
:019D0E002232
:059F4500900020EFF088
:109F4A007BFF7A7079C490002CF012A40B12A291B4
:109F5A007D9C7F8A129FBB900021EFF0900020E049
:109F6A006006A3E054EF8006900021E04410FB7DD8
:069F7A009C7F8A12A4A5E1
:019F800022BE
:039C890090002028
:109C8C00128D35403BEFD394085035128CD312A46F
:109C9C00A57D9F7F8A129FBB900021EFF090002042
:109CAC00E06007A3E04401F08007900021E054FE3F
:109CBC00F012A291900021E0FB7D9F7F8A12A4A557
:019CCC002275
:109B2600EFC394014006EFD394084004E4FEFF22FD
:109B3600128CD312A4A57DA07F8A129FBBEF540F6F
:109B460090002AF0A3E4F07DA17F8A129FBB9000CB
:109B56002AE0F0A3E04FF090002AE0FEA3E07803AD
:0A9B6600CEC313CE13D8F9FF7E0022
:019B700022D2
:10980C00EFC394014006EFD394084004E4FEFF221A
:10981C00128CD312A4A57DA07F8A129FBBEF54F0AB
:10982C00C4F8540FC868FEE4C454F04890002AF001
:10983C00A3CEF07DA27F8A129FBB90002AE0F0A3FA
:10984C00E04FF090002AE0FEA3E07802CEC313CEE6
:06985C0013D8F9FF7E00A5
:0198620022E3
:10A13B00900051128D051242AB128D2E12A4A590D8
:10A14B000051128D1912A4A590005312428B90004E
:10A15B0056E090005CF07D977F8A129D0F128D3C2C
:03A16B0002A4A5A6
:10A1D000900032128D05EDF0A3EB128D2D12A4A587
:10A1E000900032128D1912A4A5900034E0FBA3E078
:10A1F000900039F07D987F8A129E4E128D3C02A409
:01A20000A5B8
:10A2BE00900032128D05ED128D2D12A4A590003254
:10A2CE00128D1912A4A5900034E0900039F07B2075
:0DA2DE007D977F8A129E4E128D3C02A4A532
:096C4500900051128D051242ABC2
:106C4E009000581242ABE4900057F0900056E0646A
:106C5E000A707990005D7427F0A37410F0128CFC0A
:106C6E00C3940AEC94004056128CCA128D0C60121A
:106C7E0090005BA3E02430128CBB900057E004F030
:106C8E008015900057E0600F900053E475F00112EC
:106C9E0042947430123F81128CCA90005DE0FAA3C8
:106CAE00E0FBFDAC02128D217D0A7C00AF03AE022B
:106CBE00123FA590005DEEF0A3EFF0026C6B90001A
:106CCE0051A3E02430A3128CBE026D59900056E001
:106CDE0064106003026D6390005D7410F0A3E4F025
:106CEE00128CFCC39410EC94004044128CCA128D8A
:106CFE000C602890005BE0FEA3E0FFC3940AEE94C4
:106D0E00004005EF2437800790005BA3E02430128B
:106D1E008CBB128CCA128CFC128D2190005DE0C4CB
:106D2E00F854F0C868F0A3E0C4540F48F080B112D4
:106D3E008CCAC3940AEE94004005EF243780079066
:106D4E000051A3E02430FFA3128CBF9000531242D7
:076D5E008BE4123F817F016D
:016D6500220B
:06A73B009000511242AB38
:10A74100E4FF900051E475F001124294123F3B6026
:04A75100030F80EE84
:01A7550022E1
:068799009000201242AB2B
:10879F007DFF7F8A129FBB900024EFF054FEFB7D7C
:1087AF00FF7F8A12A4A57DE07F8A129FBBEF54EF53
:1087BF00128828E4900023F0128CDBFF60429000B7
:1087CF0023E02401FDE433FC90002012428BE92DBD
:1087DF00F9EA3CFAEF128831900023E02401FFE41C
:1087EF0033FE90002012428BE92FF9EA3EFA74050E
:1087FF00128831128CDB04FF900023E02FF080B839
:10880F007DE07F8A129FBBEF4410128828900024CE
:09881F00E0FB7DFF7F8A02A4A5A5
:10882800FB7DE07F8A12A4A522900029F07F8A129E
:038838009FF42288
:100066000A0D6D6F646520300A0D000D0A53455464
:10007600204974656D2056616C75653A2069642D5A
:100086002558000D0A2B2B284F5344486967684DA5
:10009600656E755F73756229204F53444D656E75A5
:1000A6004C6576656C3A2564000D0A5245534554F5
:1000B6005F4D6F6E69746F7256414C5545000A0D5F
:1000C60079766D697820340A0D000A0D79766D69A6
:1000D6007820300A0D000A0D79766D697820310A8C
:1000E6000D000A0D79766D697820320A0D000A0D29
:1000F60079766D697820330A0D00436865636B2055
:10010600564741204361626C65004F7574204F6607
:100116002052616E676500FE62596B62714C2F71E9
:100126003A34FF001213566F6C756D65002020205F
:100136004175746F2041646A757374696E67202E09
:100146002E2E2E20202000436F6D706F736974650C
:100156000056657273696F6E004C43442056657293
:1001660073696F6E004456522056657273696F6EDE
:1001760000574946492049500057494649204D41B4
:10018600430047415445574159004F534420506F4F
:10019600736974696F6E004F534420506F736963BF
:1001A600695F6E004F534420FE5465714667FF0039
:1001B6004C616E6775616765004C616E67756500B9
:1001C60053707261636865004964696F6D6100FE12
:1001D6005756714667FF004272696768746E6573A9
:1001E60073004C756D696E6F7369745F0048656C5A
:1001F6006C69676B656974004272696C6C6F00FEAE
:100206004024715F60FF00436F6E74726173740007
:10021600436F6E747261737465004B6F6E747261B6
:10022600737400436F6E74726173746500FE394FA8
:10023600715F60FF0053617475726174696F6E005F
:1002460053AA74746967756E670053617475726139
:1002560063695F6E00FE4A2C33715F60FF0048756C
:100266006500546F6E616C69745C0046617262650C
:1002760000546F6E616C6964616400FE4A54487193
:100286005F60FF0053686172706E6573730041634F
:100296007569745C00536368AA7266650041677588
:1002A60064657A6100FE463933715F60FF0052650E
:1002B60073657400445C66617574004772756E649C
:1002C60065696E7374656C756700507265646574F4
:1002D60065726D696E6163695F6E00FE66246DFF0F
:1002E60000576964652053637265656E005749441B
:1002F6004520FE6D3B714667FF004D6972726F7255
:10030600004A756D70005345512054696D65205340
:10031600746570004A756D702041560043616D200A
:100326004F75740052657475726E00526563616C28
:100336006C004D6F6E69746F7220526563616C6CF0
:100346000044565220526563616C6C0045786974AE
:100356000020007665722041302E30330054696DDE
:10036600654F7574205365747570004761756765D0
:100376002053657475700047617567652052656323
:10038600616C6C005072696F72697479005265769F
:10039600657273204D6F6465005265736F6C75747A
:1003A600696F6E00465053005175616C697479002F
:1003B6005265636F7264204D6F6465005265636FAA
:1003C6007264204C656E677468005072652D616CAE
:1003D60061726D00506F73742D7265636F72640085
:1003E6004170706C79005265636F72645374617208
:1003F60074005265636F726453746F7000536E615C
:100406007073686F7400446174652054696D65008B
:1004160059656172004D6F6E7468004461790048D9
:100426006F7572004D696E00536563004461796CA7
:1004360069676874536176696E6700426567696EBD
:100446006500456E64005765656B0054696D65000F
:1004560054696D65205A6F6E650052657475726ECB
:10046600264170706C7900466F726D61742053443A
:10047600204361726400417564696F205265636F41
:100486007264004669726D776172652055706461A9
:10049600746500596573004E6F0046697273742067
:1004A6004E756D626572005365636F6E64204E759E
:1004B6006D626572005468697264204E756D62657E
:1004C6007200466F75727468204E756D62657200B3
:1004D6004368616E67652050617373776F7264005D
:1004E6004F76657257726974650044697220496D6A
:1004F60061676500547269676765722056474100F7
:10050600547269676765722044656C617900496E4B
:10051600666F726D6174696F6E00557064617465A3
:1005260020436F6E66696700534420636F76657279
:10053600204465742E00446973706C6179004456DA
:100546005220446973706C61790044697374616EFA
:100556006365204761756765004F5344204C6F63A0
:100566006B0050617373776F726400536F757263BB
:1005760065205469746C650043564253204100431C
:1005860056425320420043564253204300435642AC
:10059600532052004175746F20446179264E696775
:1005A60068740044697220496D6167650044697228
:1005B60020496D61676520410044697220496D617B
:1005C600676520420044697220496D616765204372
:1005D60000526561722053657475700043414D2069
:1005E600410043414D20520043414D2042004341CA
:1005F6004D20430043414D2044000200456E676C88
:10060600697368004672616E7B6169730044657543
:100616007473636800457370617E6F6C00FE6A23B5
:1006260056FF200004014D6F646531004D6F64650F
:1006360032004D6F6465330055736572004D6F640B
:100646006531004D6F646532004D6F64653300554A
:100656007361676572004D6F64757331004D6F6429
:10066600757332004D6F647573330042656E757431
:100676007A6572004D6F646F31004D6F646F3200A2
:100686004D6F646F33005573756172696F00FE3A82
:1006960034FF3100FE3A34FF3200FE3A34FF3300B5
:1006A600FE47515B71FF200008004175746F004ED4
:1006B6005453430050414C00534543414D004E5462
:1006C6005343342E34330050414C4D0050414C4E70
:1006D6000050414C36300005004E6F726D616C0063
:1006E600576964650050616E6F72616D6100467591
:1006F6006C6C000500FE1A1BFF2000FE1C1DFF206F
:1007060000FE1E1DFF2000FE1F20FF2000FE1F21F1
:10071600FF200009004F6666004343310043433221
:1007260000434333004343340054310054320054F1
:10073600330054340002004F4E004F46460002007C
:100746004D4952524F52004E4F524D414C000300FC
:10075600446179004155544F004E69676874000240
:100766000031363A3900343A33000200004F4E0069
:100776004F464600040053494E474C4500445541F8
:100786004C00545249504C4500412B422C422B41BF
:100796000007004100412B4200412B4300412B52F0
:1007A60000412B424300412B425200412B43520051
:1007B60007004200422B4100422B4300422B5200CD
:1007C600422B414300422B415200422B4352000729
:1007D600004300432B4100432B4200432B5200436E
:1007E6002B414200432B415200432B42520005004D
:1007F6005200522B4100522B4200522B4300522FE3
:10080600414200522F414300522F424300522B4196
:100816004200522B414300522B4243000E005155D9
:1008260041440053455100412B4200432B520041A5
:100836002B5200522B4200412B4300432B420052C5
:100846002F414200522B41420041004200430052D8
:10085600000500515541440041004200430052004A
:10086600020000373230783438300033353278328F
:1008760034300005000035003130003135003230AB
:10088600003235003330000500004C6576656C2D6E
:1008960031004C6576656C2D32004C6576656C2DA5
:1008A60033004C6576656C2D34004C6576656C2D91
:1008B60035000300004E6F6E65004E6F726D616C01
:1008C60000416C61726D000600003120206D696E7A
:1008D600003220206D696E003320206D696E003471
:1008E60020206D696E003520206D696E0031302044
:1008F6006D696E0005000031352073656300333085
:10090600207365630036302073656300080000318C
:1009160035207365630033302073656300363020FD
:100926007365630002000044697361626C6500458B
:100936006E61626C65000400004669727374005350
:1009460065636F6E6400546869726400466F757201
:100956007468000400410042004300520019000080
:100966002D3132002D3131002D3130002D39002D41
:1009760038002D37002D36002D35002D34002D334F
:10098600002D32002D3100300031003200330034AA
:10099600003500360037003800390031300031317B
:1009A600003132000200502000442000030032349F
:1009B600303000343830300039363030000200FE36
:1009C6001819FF2000FE1A1BFF20000400FE1C1D44
:1009D6001E1F2021FF2000FE222328292A2BFF206C
:1009E60000FE242528292A2BFF2000412B422C42D9
:1009F6002B41000E00FE262728292A2BFF20005314
:100A0600455100412B4200432B5200412B520052CC
:100A16002B4200412B4300432B4200522F41420000
:100A2600522B4142004100420043005200564741CA
:100A360000FF0157FF0157FF0157FF0157FF0157FD
:100A4600FF015FFF015FFF015FFF015FFF015FFFC6
:100A5600016BFF016BFF016BFF016BFF016BFF0178
:100A660077FF0177FF0177FF0177FF0177FF017FAE
:100A7600FF017FFF017FFF017FFF017FFF0188FFED
:100A86000188FF0188FF0188FF0188FF0100FF013F
:100A960010FF0110FF0110FF0110FF011DFF012AC9
:100AA600FF0190FF0190FF0190FF019DFF01AAFF4A
:100AB60001B6FF01BFFF01C6FF01CEFF01D5FF0151
:100AC600DDFF01E8FF01F3FF01FEFF0205FF020D56
:100AD600FF0216FF0220FF0229FF0233FF023BFF3F
:100AE600023BFF0246FF0250FF025BFF0264FF0269
:100AF60068FF0271FF0277FF0281FF028AFF0294FC
:100B0600FF029BFF02A3FF02ABFF02B4FF02BAFF84
:100B160002C1FF02D0FF02E1FF0300FF0300FF0353
:100B260000FF0300FF0300FF0307FF0307FF0307A0
:100B3600FF0307FF0307FF030CFF030CFF030CFF74
:100B4600030CFF030CFF0322FF0322FF0322FF0314
:100B560022FF0322FF031AFF032AFF032AFF032AA9
:100B6600FF032AFF032AFF0331FF0331FF0331FF8F
:100B76000331FF0331FF0338FF0338FF0338FF0358
:100B860038FF0338FF0347FF0347FF0347FF0347C9
:100B9600FF0347FF0352FF0352FF0352FF0352FFB7
:100BA6000352FF053CFF053CFF053CFF053CFF05E6
:100BB6003CFF0544FF0544FF0544FF0544FF05448B
:100BC600FF0550FF0550FF0550FF0550FF0550FF7C
:100BD600055FFF055FFF055FFF055FFF055FFF051B
:100BE60068FF0568FF0568FF0568FF0568FF057172
:100BF600FF0571FF0571FF0571FF0571FF057EFF9A
:100C0600057EFF057EFF057EFF057EFF0585FF0548
:100C160085FF0585FF0585FF0585FF058CFF058C8E
:100C2600FF058CFF058CFF058CFF0593FF0593FFE1
:100C36000593FF0593FF0593FF059AFF059AFF05A8
:100C46009AFF059AFF059AFF05A9FF05A9FF05A9C1
:100C5600FF05A9FF05A9FF05B3FF05BFFF05CBFFEC
:100C660005D7FF05D7FF05D7FF05D7FF05D7FF0532
:100C7600E2FF05E2FF05E2FF05E2FF05E2FF05EE02
:100C8600FF05EEFF05EEFF05EEFF05EEFF05F4FF9F
:100C960005F4FF05F4FF05F4FF05F4FF05E8FF057D
:100CA600E8FF05E8FF05E8FF05E8FF05FAFF05FA96
:100CB600FF05FAFF05FAFF05FAFF0357FF0359FF81
:100CC6000363FF0371FF037DFF038AFF0393FF03A3
:100CD6009FFF03AAFF03AEFF03B6FF03C2FF03D0C5
:100CE600FF03DAFF03E6FF03ECFF03F8FF0403FF4D
:100CF600040CFF0416FF041BFF0421FF0425FF0458
:100D06002AFF042EFF0432FF0441FF0448FF044C6F
:100D1600FF0451FF0456FF0460FF046DFF047CFFCF
:100D26000489FF0499FF049DFF04A0FF04ADFF049E
:100D3600BBFF04C8FF04D6FF04E6FF04F0FF04FA75
:100D4600FF0506FF0514FF0520FF052EFF02E7FF3E
:100D560002E7FF02E7FF02E7FF02F3FE6C6F00FE09
:100D6600727500FE606300FE787B00FE666900FE19
:100D7600848700FE010200FE7E8100FE8A8D00FE51
:100D8600909300FE969900FEC0C300FE9C9F00FE55
:100D9600A2A500FEA8AB00FEAEB100FEB4B700FEF1
:100DA600BABD00000017031661170216610000FFA6
:100DB6000C3EFFFFFF3700000700B8073B0000FFAF
:100DC6000BA8FFFFFF3700000700B9073B0000FF35
:100DD6000BC6FFFFFF3700000700BA073B0000FF06
:100DE6000BD5FFFFFF3700000700BB073B0000FFE6
:100DF6000CCEFFFFFF3700000700CA073B0000FFCD
:100E06000CD1FFFFFF3700000700D607650000FF83
:100E16000B5DFFFFFF3700000300F100000000003C
:100E260000000000FFFF000000000000001702168F
:100E3600610000FF0D2BFFFFFF3700000300F100EC
:100E4600000000FF0D28FFFFFF3700000300ED0044
:100E56000000000000000000FFFF0000000000008E
:100E660000170216610000FF0D2EFFFFFF3700007E
:100E760005002D0DAA0000FF0D31FFFFFF37000012
:100E860005002E0DAA0000FF0D34FFFFFF370000FE
:100E960005002F0DAA0000FF0D37FFFFFF370000EA
:100EA6000500380DAA0000FF0D3AFFFFFF370000CE
:100EB6000300EE00000000FF0B5DFFFFFF370000A0
:100EC6000300F1000000000000000000FFFF00002A
:100ED6000000000000170216610000FF0D2EFFFF44
:100EE600FF37000005002D0DAA0000FF0D31FFFFA2
:100EF600FF37000005002E0DAA0000FF0D34FFFF8E
:100F0600FF37000005002F0DAA0000FF0D37FFFF79
:100F1600FF3700000500380DAA0000FF0D1FFFFF78
:100F2600FF3700000300EB00000000FF0D3AFFFF53
:100F3600FF370E6B0100000E670000FF0B5DFFFF21
:100F4600FF3700000300F100000000000000000071
:100F5600FFFF00000000000000170516610000FFFB
:100F66000D19FFFFFF37000007002C09630000FF83
:100F76000CF8FFFFFF3700000500200DAA0000FF58
:100F86000CFBFFFFFF3700000500210DAA0000FF44
:100F96000CFEFFFFFF3700000500220DAA0000FF30
:100FA6000D01FFFFFF3700000500230DAA0000FF1B
:100FB6000D04FFFFFF3700000500240DAA0000FF07
:100FC6000D1CFFFFFF3700000300F60000000000C5
:100FD60000000000FFFF000000000000000000FF0E
:100FE6000D28FFFFFF37000003009B00000000FFF5
:100FF6000D2BFFFFFF3700000300F100000000008B
:1010060000000000FFFF000000000000000000FFDD
:101016000D28FFFFFF37000003007000000000FFEF
:101026000D2BFFFFFF3700000300F100000000005A
:1010360000000000FFFF000000000000000000FFAD
:101046000D28FFFFFF37000003009E00000000FF91
:101056000D2BFFFFFF3700000300F100000000002A
:1010660000000000FFFF000000000000000000FF7D
:101076000B7BFFFFFF3710130100000DAB0000FFD5
:101086000B8AFFFFFF3710430100000DAB0000FF86
:101096000B5DFFFFFF3700000300F10000000000BA
:1010A60000000000FFFF000000000000001704160B
:1010B600610000FF0A64FFFFFF3600000B00F1002D
:1010C600000000000000FFFFFF3700000C00390D94
:1010D600AA0000FF0A73FFFFFF3600000B00F100B5
:1010E600000000000000FFFFFF3600000C003A0D74
:1010F600AA0000FF0A82FFFFFF3600000B00F10086
:10110600000000000000FFFFFF3600000C003B0D52
:10111600AA0000FF0B5DFFFFFF3700000300F10090
:101126000000000000000000FFFF000000000000BB
:1011360000170416610000FF0B6CFFFFFF3700006D
:1011460003009B00000000FF0B99FFFFFF37000024
:101156000300F400000000FF0CBFFFFFFF37000094
:101166000B00F400000000FF0CBFFFFFFF3700007C
:101176000B00F400000000FF0CBFFFFFFF3700006C
:101186000B00F400000000FF0CC2FFFFFF3600005A
:101196000B00F4000000000000000000FFFF00004C
:1011A6000000000000170516610000FF0CE0FFFFBD
:1011B600FF3700000700E408CD0000FF0CE6FFFF44
:1011C600FF3700000700E609120000FF0D22FFFFAF
:1011D600FF3700000700EC09590000FF0D1CFFFF58
:1011E600FF3700000300F5000000000000000000CB
:1011F600FFFF00000000000000170416610000FF5A
:101206000CDDFFFFFF3711AF01000011AB0000FF3F
:101216000CD7FFFFFF3700000700E108790000FF49
:101226000CDAFFFFFF3700000700E2088D0000FF21
:101236000D1FFFFFFF370EDF0100000EDB0000FF72
:101246000D25FFFFFF370E370100000E330000FFAC
:101256000D1CFFFFFF3700000300F5000000000033
:1012660000000000FFFF0000000000000017051648
:101276006100000000000000FFFF00000000000009
:1012860000170416610000FF0AC4FFFFFF370000C5
:101296000500960DAA0000FF0AD3FFFFFF370000E6
:1012A6000500950DAA0000FF0AE2FFFFFF370000C8
:1012B6000500970DAA0000FF0AF1FFFFFF370000A7
:1012C6000500990DAA0000FF0B00FFFFFF37000085
:1012D60005009A0DAA0000FF0B5DFFFFFF37000017
:1012E6000300F1000000000000000000FFFF000006
:1012F6000000000000170516610000FF0C74FFFFD8
:10130600FF3700000700C1073B0000FF0C83FFFF0B
:10131600FF3700000700C2073B0000FF0C92FFFFEB
:10132600FF3700000700C3073B0000FF0CA1FFFFCB
:10133600FF3700000700C4073B0000FF0B5DFFFFFF
:10134600FF3700000300F10000000000000000006D
:10135600FFFF00000000000000170516610000FFF7
:101366000C5CFFFFFF3700000700CD07970000FF6A
:101376000C5FFFFFFF3700000700CE07B60000FF37
:101386000C62FFFFFF3700000700CF07D50000FF04
:101396000B5DFFFFFF3700000300F10000000000B7
:1013A60000000000FFFF0000000000000017071605
:1013B600610000FF0B1EFFFFFF3712FF0100000D4B
:1013C600AB0000FF0D40FFFFFF3713630100000D68
:1013D600AB0000FF0C65FFFFFF3700000700C607E4
:1013E600F40000FF0B2DFFFFFF3700000700C708C2
:1013F600220000FF0B4BFFFFFF3700000700C80865
:10140600570000FF0B3CFFFFFF3700000500C90D2A
:10141600AA0000FF0B5DFFFFFF3700000300F1008D
:101426000000000000000000FFFF000000000000B8
:10143600000204FF370D61000000FFFF37FF128B2B
:1014460001009F12870D65000000FFFF37FF0DB3F7
:101456000100000DAF0D69000000FFFF37FF13B755
:1014660001009F13B30D6D000000FFFF37FF113B16
:10147600010000113700000000000000FFFF00001F
:1014860000000000000000000000FFFF37FF143BD3
:10149600010000143700000000000000FFFF0000FC
:1014A600000000000000000064003200020034006A
:1014B6001A0001002C001600000037001C00000076
:1014C600C70064002D00D200800000000700030062
:1014D60000003F0020002D00D200800000001F0009
:1014E60010002300870055002300870055FFB60033
:1014F60022FFE8000000FF0080FF80007F00000060
:1015060000000700030000007F0040111111711157
:101516003B161A010201342C342C024B3232323281
:101526003232324B3232321110131415707174721A
:10153600737071747273786300808000608080803D
:101546008020808080803B68F8909000608080805A
:101556008020808080800358F8A0A0006080808072
:1015660080208080808003322528282D6432323204
:10157600323232000A0060006100620063006600D9
:1015860067006800B900FC13DBA67B00600000174B
:10159600481BDB807B0000000017481EF2807C8021
:1015A6000001B6314826D58069000000006FDF13C0
:1015B600008B9201500000344821D4809100000035
:1015C60000174813F28092800001B6344813DC807D
:1015D6007F00000000605A14008B7C015000002937
:1015E6004814DC807C00000000294814F2807C80CE
:1015F6000001B6294814DC805F000000007B5A0C0D
:10160600008B94015000002D480CDC8094000000F3
:10161600002D480CF28094800001B62D480CDC8029
:101626007F00000000605A3AF680FB00500000265A
:10163600483AC380FB0000000026483ACC80FB8075
:101646000001B626483AC380BE00000000705A3F2B
:10165600F98029045000002E483FC3802904000069
:10166600002E483FD08029840001B62E483FC38013
:10167600E800000000805A28A4806A045000001682
:101686005A2884806A04000000165A2889806A84D1
:10169600350035165A2884801C040000006B5A2336
:1016A600F98014045000001F5A23C8801404000057
:1016B600001F5A23F08014843501871F5A23C880DF
:1016C600E700000000565A202020496E70757420ED
:1016D600203A2020202020202020202020202020EA
:1016E6000020202053797374656D203A2020202035
:1016F60020202020202020202020002020204820DC
:1017060046726571203A2020202020206B487A20DE
:101716002020202000202020562046726571203A85
:1017260020202020202020487A2020202020002051
:101736002020462F57205265763A20202020202050
:101746002020202020202020000000000000000093
:101756000000000000000000000000000000000083
:101766000000000102020505030404040404040445
:101776000404040404040404040404040404032008
:1017860020201C2020202020202020202000202077
:10179600202020202020202020002E003A000101B9
:1017A60001010202020202050505050503040404FF
:1017B60004040404040320202000202020202020EC
:1017C6002020202020002020202020202020202033
:0217D6002000F1
:107BDE004100C8FF4100C9004100CE00C119C118C3
:107BEE004100B6004100CB004100D0004100CF0063
:077BFE004100C300011E005D
:104370009000B4E0FEA3E0F5828E83227E009000E0
:1043800013E09000125403FFEEF0A3EFF022900030
:10439000287A007929E0FF7E007B019000311242EB
:1043A000AB7BFF22EE900012F0A3EFF022D390003F
:1043B00013E09400900012E094002275F010124275
:1043C0007F740E93FB740F939000B7CBF0A3EBF0C8
:1043D0008F828E83ED75F01012427F740993FF7403
:1043E0000A939000B4CFF0A3EFF02290002BE024CA
:1043F000F1FF90002AE034FFFE90002F02428B7AFA
:104400001479BD9000341242AB7A1479AB2275F066
:104410001012427F740D932290002112428B900063
:104420000E124071AAF0F97BFF90002F1242AB9060
:10443000002102428B900012A3E0FD22E0FDE490F7
:104440000037F0A3EDF0229000B4E0FEA3E0FFF50A
:10445000828E832290002AE0FEA3E0FF22E0FF90FC
:104460000012E4F0A322E0FEA3E0FF9000D1EEF002
:10447000A3EFF022E4900012F0A3F0229000B4E049
:10448000FEA3E0FFEE9000C4F0A3EFF0A322E0FE55
:10449000A3E0FF9000B7E0FCA3E0F5828C8322E06C
:1044A000FEA3E0FF7B019000567408F02290000C00
:1044B000E090000EA4FFE5F08FF002403075F010A0
:1044C00012427F740E93FC740F93AA04F97BFF9041
:1044D00000091242AB8F828E8322FFE975F003A49C
:1044E0002418F582E43400F5832290000EE0FEA348
:1044F000E0FF9000B7E0FAA3E0F5828A83740393AB
:10450000FDE4932274362DF582E43400F583227D98
:10451000017BFF7E007F0C023F1590004EE475F09A
:1045200001124294023F3B9000021242E09000CE02
:10453000E075F003A4F58285F0830242E0F0A3EF7A
:10454000F0D39014AB7401939FEE6480F8E493640D
:10455000809822FF90002AE0340022EFF0900011B2
:10456000E0229000B4E0FEA3E0AA06F97BFF2275EA
:10457000F01002427FE0FD75F00A84E5F02430225D
:10458000A3E475F001024030E0FEA3E02DFDEE3C17
:10459000FCEDA4FBAAF0FF90001AE0229014ADE419
:1045A00093FE740193FF2290000EE4F0A3740EF0CA
:1045B00022F0E0FF25E02417F582E43415F583E4CA
:1045C0009322F0EF25E02418F582E43415F583E416
:1045D00093227E00EEF0A3EFF07B0122EEF0A3EF3A
:1045E000F0A30242AB9000D3E0640122740E93FB6F
:1045F000740F939000B7CBF0A3EBF022EF54F8FFC9
:10460000A3E054074FFB7D177F8A22900013E0241C
:1046100003F0900012E03400F022FFE493FC7401F8
:1046200093FDC3EF9DFEE49C2290000CEEF0A3EFFF
:10463000F0FD900012E0FF22E51E25E024BBF5828C
:10464000E43400F5832235F0FA7BFF90000DE09012
:104650000056F022F583EEF0EF75F00A84900034F6
:10466000F0222442F582E43400F583229000D1A3A5
:10467000E0FF22E0FFA3E09000C4CFF0A3EFF02220
:104680007D177C00123F93EF22FFE08FF0A4FF2202
:1046900090000D023F54A3E054074438FB7D787F1F
:1046A0008A2235F0FA7BFF9000240242ABC39000CF
:1046B00013E0940622F090003CE004F022E0FF7E3C
:1046C000007B017A00792A22F0ED75F00A849000CF
:1046D0000AF022FBC3EF9BFFEE9400FEC322C390BF
:1046E0000013E0940222F9E43AFA0242AB2FFFE011
:1046F00035F0FAA9077BFF22E024052FF075F005BD
:104700008422FFE4F0A3EFF022900015A3E0FF2243
:10471000FF7E007B017A007929229FEE6480F8EC0D
:104720006480982212428B023F3B75F011A424D67C
:10473000F9745622F582E43400F583EEF0227B0111
:0C4740007A00793D22E4FB7D9E7F8A22F6
:03000E0012A93103
:0100110022CC
:05670000900014EFF011
:1067050012000E900019EFF0900014E0B401047F20
:106715000180027FFF9000191246F8E5F01245B19D
:10672500FEFD900015E4F0A3EDF09000CCE0FDC374
:10673500900016E09DF0900015E09400F09000CCDC
:10674500EE1245C2FFFD900017E4F0A3EDF09000B6
:10675500CDE0FDC3900018E09DF0900017E0940097
:10676500F09000CDEFF090001A7401F090001AE05F
:10677500FFD39404506D129B26AD07AC069000150F
:1067850075F008124588F975F003A42419F582E41B
:106795003400F583EFF0EA1244DAEFF0AF01129816
:1067A5000CAC06AD0790001775F00412458875F01E
:1067B50003A4241AF582E43400F583EFF0EAC4F863
:1067C50054F0C8EBC4540F485470FF90001AE0F918
:1067D5001244DCE04F1244DAEFF090001AE004F0C6
:1067E50002677112A2917DE07F8A129FBBEF54EF81
:1067F50012686090001A7401F090001AE0FFD394BB
:10680500045031EF14FB7D9E7F8A12A4A590001AD7
:10681500E075F003A42418F9740035F0FA7B0190B3
:10682500005C7403F07DA07F8A129D0F90001AE032
:1068350004F080C57DE07F8A129FBBEF441012688B
:1068450060900019E0FF12A8B712A291E4FB7D90B9
:0A6855007F8A12A4A5900019E0FF4D
:0A685F0022FB7DE07F8A12A4A5222F
:105BC600901517E4939000CCF0901518E49390008C
:105BD600CDF0E4FF12A8B77FB0125D3F7FA0125D43
:105BE6003F7FA07E0012A47F9000FEEFF07FA112FF
:105BF6005D477FA2125D477FBA125D567FA4125D94
:105C0600567FAB125D4E7FA3125D657FBB125D654D
:105C16007FA5125D4E7FA6125D5D7FA7125D5D7F3B
:105C2600A8125D6C7D327F387E00129BB99001050B
:105C36007432F0E4FF126D667D327F377E00129B70
:105C4600B97D037FB27E00129BB97FBC125D6C7F6B
:105C5600BD125D7B7FBE125D7B9000E0E0700FFDA4
:105C66007FAEFE129BB97D017FAC7E00800E7D0D5E
:105C76007FAE7E00129BB9E4FD7FACFE129BB9E4B9
:105C86009000F2F07D027FAAFE129BB97FA9125DF9
:105C96008AE4FF1299A97BFF7A00796612A7567DDE
:105CA600337FA07E0012A2BE7FB2125D8A7FB3123E
:105CB6005D737FB4125D737FB5125D827FB6125D30
:105CC600821271E1E4FF12A8C97D017FBF7E001236
:105CD6009BB97FBF7E0012A47FEF24FF9208E4FDEC
:105CE6007FB8FE129BB97FB87E0012A47F9000DDBC
:105CF600EFF07D017FB77E00129BB97FB77E001261
:105D0600A47F9000DBEFF07D027FB97E00129BB985
:105D16007FB97E0012A47F9000D4EFF0E4FD7FAF40
:105D2600FE129BB9E49000ECF09000DF04F0FD7FDA
:105D3600C57E00129BB9028DCA7D017E00129BB9F9
:105D460022E4FDFE129BB9227D017E00129BB92240
:105D5600E4FDFE129BB9227D017E00129BB922E46E
:105D6600FDFE129BB922E4FDFE129BB9227D017E47
:105D760000129BB922E4FDFE129BB9227D017E0032
:0B5D8600129BB922E4FDFE129BB92223
:10A7D60012A9399000CEEFF075F00584AFF0EFF0D6
:01A7E6002250
:10A67500EFB401047F0180027FFF9000CE1246F8FF
:0CA68500AFF0EFF012A8C99000CEE0FF8B
:01A6910022A6
:0592F100900016EDF0F5
:1092F600EF75F003A42481FEE435F0A3F0A3CEF0CD
:10930600E4A3F0900019E0FFC394035043900018C3
:10931600E02FFF900017E03400FE12A47F90001AA1
:109326001245D27A00791C12439B1243FF128652D1
:10933600900019E02471FD90001CA3E0FF90001638
:10934600E02FFB7F8A12A4A5900019E004F080B3F9
:0193560022F4
:10904E00EFB401047F0180027FFF9000D2E0240480
:10905E00FD9000D1E03400FCEF3395E0FEED2FFFE4
:10906E00EC3EF0A3EFF07E009000D1124385FD7F21
:10907E0080129BB97F107E0012A47F7E007B017A46
:10908E0000791412439B7A1479C312440312865248
:10909E0012466C900014A3E0FD1292F17F807E00C8
:1090AE0012A47FEF64037B8A60047D3080027D37DB
:0A90BE007F3C7E0012A1D012466C28
:0190C8002285
:05850600900014EFF0ED
:10850B00ED9000D2B4010DE02401FF9000D1E034D6
:10851B0000FE800BE024FFFF9000D1E034FFFE90C3
:10852B000015EE12453D501512459C900016E09F2C
:10853B00EE6480F8900015E064809840030285A8F3
:10854B009000151244667B017A00791712439B1237
:10855B0043FF128652900014E0248AFFE433FEA3FB
:10856B00A3E0FD129BB97F107E0012A47F90001533
:10857B001245D27A00791912439B7A1479C31244AB
:10858B0003128652900014E02471FD900019A3E0B1
:10859B00FF900017A3E02FFB7F8A12A4A512466C55
:0185AB0022AD
:10975C007D707F8A129FBBEF54BFFB7D707F8A1296
:10976C00A4A57D741297AA7D757F8A12A4A57D7617
:10977C001297AA7D717F8A12A4A57B807D727F8A45
:10978C0012A4A57B807D737F8A12A4A57D707F8A2D
:10979C00129FBBEF4440FB7D707F8A02A4A57B80A7
:0897AC007F8A12A4A57B802234
:0679AD00900021EFF0FD47
:1079B3007F0B7E00129BB9900021E06403606CE4AE
:1079C300A3F0A3F0900022E0FEA3E0FFC3940FEE28
:1079D30064809480503B900021E0C454F0243DF532
:1079E30082E43415F583E5822FF582E5833EF58342
:1079F300E493FB900022A3E0242DF58274153EF559
:107A030083E493FD7F8A12A4A5900022124581800E
:107A1300B3900021E0C454F0244CF582E43415F50E
:0B7A230083E493900024124702804E81
:107A2E00E4FF12A8F6129E0F7F0112A8F6129A8F8B
:107A3E007F0212A8F6AD07E4FF1291437F0312A84E
:107A4E00F6AD077F011291437F0412A8F61291B38F
:107A5E007F0512A8F67E009000261245D47A007992
:0E7A6E002412439B7A157905124403128652A6
:107A7C0090002412469612A4A57D177F8A129FBBF4
:097A8C009000241245FC12A4A58F
:017A950022CE
:03A979007F00223A
:09A8F60012A57D7E0012446B22C4
:0588D900900014EFF017
:1088DE00EDB401067E007F0180047EFF7FFF9000D5
:1088EE00D1E0FCA3E0FD2FFFEC3EFE9000151245FB
:1088FE003D501612459C900015E0FAA3E0FB9FEE4A
:10890E006480F8EA6480984003AF0522900014E07A
:10891E0014601814601D14601A14602724FE602B56
:10892E002406702DAF03129E0F8026124709129A4D
:10893E008F801E900014E024FEFFA3A3E0FD129191
:10894E0043800E1247091291B38006124709129204
:10895E0088900014E0FFA3A3E0FD12A7B4900015C9
:03896E001244664A
:0189710022E3
:059E0F00900028EFF0B7
:109E140012A973900028E0BF010C12471012439B53
:109E24007A1479ED800A12471012439B7A1479E769
:109E34001244031286529000DCE090151093FD90BA
:0A9E44000029A3E0FB7F8A02A4A519
:059A8F00900028EFF03B
:109A94009000DCE06404701712438E7A1479C912C2
:109AA4004403128652900029A3E0FB7D74802212A5
:109AB400438E7A1479F312440312865212A979EF71
:109AC4009000296007A3E0FB7D3A8005A3E0FB7DBD
:069AD400107F8A12A4A518
:019ADA002269
:109288007E007B017A00791712439B7A1479E112E8
:1092980044031286527DFF7F8A129FBB900019EF0C
:1092A800F0E47DFF1292EA7DBE7F8A129FBBEF54E5
:1092B800CF44107DBE1292EA7DC47F8A129FBBEF15
:1092C8005480FD900017E0A2E713A3E0134DFB7D47
:1092D800C47F8A12A4A5900019E0FB7DFF7F8A0253
:0292E800A4A53B
:0792EA00FB7F8A12A4A522FC
:0591B300900028EFF020
:1091B8009000DCE06404702A9000287A0079291273
:1091C80043957A1479D51244031286527D707F8AAA
:1091D800129FBBEF54C0FF900029A3E04FFB7D70A6
:1091E800802F900028E0FF7E007B017A0079291209
:1091F800439B7A1479FF12440312865212A979EF1D
:109208009000296007A3E0FB7D3E8005A3E0FB7D7D
:06921800157F8A12A4A5D7
:01921E00222D
:08914300900028EFF0A3EDF00D
:10914B0012A979EF60301246BD12439B7A15790B49
:10915B00124403128652900028E0243CFD7F8A12B1
:10916B009FBBEF5480FF90002AA3E02FFB900028B9
:10917B00E0243CFD802C9000291246BD12439B7AC3
:10918B001479F91244031286529000DCE090002807
:10919B00B40405E024728003E02413FD90002AA39D
:0791AB00E0FB7F8A12A4A57E
:0191B200229A
:05883B00900014EFF0B5
:108840007D787F8A129FBBEF5407540F9000171258
:108850004702900014E0B401047F0180027FFFEF23
:108860003395E09000178FF01240309015051245B7
:108870009F900017E0FCA3E0FDC312471A400D9043
:10888000150712459FD3ED12471A400412466C2279
:10889000AF057E007B017A00791512439B7A14792B
:1088A000AB9000341242AB7A1579051286529000D3
:1088B0001712469612A4A57D177F8A129FBB9000BF
:1088C000171245FC12A4A5900015A3E0FD7F051228
:0888D000A7B4900015124466E4
:0188D800227D
:109357009000DCE090000CF09000DC7401F09000CD
:10936700DCE0FFC394075030EFB40413E490000B24
:10937700F090000BE09015731293AC40F48011E469
:1093870090000BF090000BE090156D1293AC40F439
:109397009000DCE004F080C690000CE09000DCF068
:0593A7007F030279AD17
:1093AC00FF93FD12A7B490000BE004F0E0C3940609
:0193BC00228E
:10822D00900021EFF0D39403400B7F0112822D902B
:10823D0000217401F09000EEE0B42005E4900021DF
:09824D00F0900021E09000E4F043
:1082560012A96DEF6401601E12A96DEF6404601629
:1082660012A96DEF6405600E12A96DEF6407600632
:1082760012A96DEF7018900021E075F00AA4248D04
:10828600F974151246A29000E47401F08010900073
:1082960021E075F00AA424B5F974151246A212A2BB
:1082A60091E4900022F0A3F0900022E0FEA3E0FF0C
:1082B600C3940AEE64809480502FEF25E0FFEE33DE
:1082C600FE74792FF58274153EF583740193FD9043
:1082D6000024124724FB7F8A12A4A590002512458C
:0982E6008190002212458180BF45
:0882EF009000E4E0FF02A8AEDC
:10A2EB00E51EC3940450229000C4E0FEA3E0FF12CD
:10A2FB004638EEF0A3EFF09000C7E0FFAE1E051E50
:0CA30B00741A2EF8A6077F01227F0022A2
:10A6AF00E51E6015151E124638124673741A251EC4
:0CA6BF00F8E69000C7F07F01227F002227
:109C000090001F1242AB900022EDF0BDFF037FFFDA
:109C100022900022E004F0E075F010A4FF90001FF5
:109C200012428BE92FF9EA35F0FA900007123F54FF
:109C3000B4FF0C900008123F54B4FF037FFF229042
:059C40000022E0FF22FC
:09A8FF00EFB4FF037FFF221F22CA
:029D5000AC075E
:109D52009000B4E07002A3E06004E4FE80027EFFA3
:109D6200EEF460289000B4E0FAA3E0FBF5828A8367
:109D720075F010EE124411540FB50403AF0622A978
:0E9D8200037BFFAD06129C00AE0780D4AF0637
:019D900022B0
:1064260090000C7401F012A2EB9000B4E0FFA3E020
:10643600CF124485E0A3F09000D3E004F0E490008E
:10644600B4F0A3F09000C674FFF07F01125D917B5B
:10645600737D327F257E0012A1D0E490000BF09070
:10646600000BE075F01AA424CDF582E43416F5830A
:10647600E493603C90000CE0FF90000BE0FB2FFFE4
:10648600E433FE124680240EFDE43EFCEB75F01A62
:10649600A424CDF9741635F0FA7BFF9000567417D4
:1064A600F0AF05AE0412A13B90000BE004F080AF04
:1064B60012A97390000B7401F090000BE0FE75F0CA
:1064C600119056D512427FE4936F600890000BE05E
:1064D60004F080E5EE12472A12655D241AFDE43EBB
:1064E600FC90000BE012472A124646AF05AE041296
:1064F600A13B12657A12655D2431FFE43EFEC006BB
:10650600C00712657A124646D007D00612A13B7F15
:1065160004126588243090000EF0A3742EF07F05D7
:10652600126588E0FDC4540F2430900010F0ED543D
:106536000F2430A3F0E4A3F090000CE0FF7E0012DD
:1065460046802448FFE43EFE7B017A00790E9000E7
:07655600567404F002A13BA2
:10655D0035F0FA7BFF12A73B90000DEFF090000C89
:10656D00E0FF7E007C007D17123F93EF221296AA6A
:10657D00EF75F011A4242BF97457227E0012A47F1D
:06658D0090000BEFF0226C
:0589720090000AEFF087
:10897700780B7C007D017BFF7A1779707E007F186A
:10898700123F1590000AE0C394645030E0FF75F081
:108997000584E5F090176993FEEF75F00584FF24D1
