:03000000027A9AE7
:0C7A9A00787FE4F6D8FD758135027AE1B2
:108A8000D2BCD2AC758DF4D28EE47850F208F222CA
:0F8A90007850E2FF08E2B507037F00227F012242
:10895500C2AC7850E22400F8E2FF7850E204F2E27B
:09896500C394504002E4F2D2ACCC
:01896E0022E6
:080003003099FD8F99C299228A
:03002300027FB1A8
:107FB100C0E0C0D075D008309846C2987851E2FF31
:107FC1002401FDE433FC18E27A00B50D07EAB50C93
:107FD10003E204F2EFB44F087850E27003E204F2D6
:107FE1007850E2C394504002E4F27851E22400F860
:107FF100E599F27851E204F2E2C394504002E4F2CE
:05800100D0D0D0E032F8
:10883A0078ABE2FB08E2FA08E2F9227590F6D2B6C2
:10884A00D2B77580FFD2AF22AF038F80D293C29383
:08885A0022C2AF7590F6ED2279
:10878D0012885B7006C2B7C2B68012EDB40106C284
:10879D00B7D2B68008EDB40204D2B7C2B612885271
:0D87AD0078D7E2F580C291D2911288452262
:10814800AE0312885B7006C2B7C2B68012EDB401E6
:1081580006C2B7D2B68008EDB40204D2B7C2B6AF31
:10816800060E12885478A9E2FB0808E2F92401F205
:1081780018E2FA3400F212442CF580C291D29178B8
:0A818800ACE214F270D9128845220F
:10865D0012885B7006C2B7C2B68012EDB40106C2B5
:10866D00B7D2B68008EDB40204D2B7C2B6128852A2
:10867D007580FFC292AF80D2927590F6D2B6D2B706
:02868D00D2AF6A
:01868F0022C8
:107F040078ABEBF208EAF208E9F212883A124496E6
:107F1400F47003E5F0F4603E12883A124496FBAA2A
:107F2400F0EAFDE4FF12865D12883A9000021244E2
:107F340045FC6F601412883A124496FBAAF0EAFDDD
:107F440078D7ECF2E4FF12878D78ADE22403F218BF
:077F5400E23400F280B422C8
:018B1E002234
:105980002562782025627820256278000A3C523E04
:1059900025303262785B25303262785D3D253032C9
:1059A00062780025627820256278002562782025BB
:1059B000627820256278202562782000253162787F
:1059C000202531627820253162782000526561649B
:1059D0004173696342797465203D3D2025627820DA
:1059E0000A0063682562643A2562642000636825C2
:1059F00062643A2562642063682562643A256264C1
:105A0000200063682562643A256264206368256229
:105A1000643A2562642063682562643A25626420E2
:105A20000063682562643A256264206368256264C5
:105A30003A2562642063682562643A2562642063C3
:105A4000682562643A256264200063682562643ACE
:105A50002562642063682562643A25626420636875
:105A60002562643A2562642063682562643A25628F
:105A7000642063682562643A2562642000256264BC
:105A800020000A203D3D3D3D3D3D3D3D20504147EC
:105A9000452025623278203D3D3D3D3D3D3D3D3D2B
:105AA0003D3D3D3D0A002562327809000A0025315E
:105AB000627820253162782063682531627820631E
:105AC0006825316278206368253162782063682513
:105AD0003162782000656E726563616C6C00656E82
:105AE000667265657A6500656E686D6972726F725F
:105AF00000656E766D6972726F7200656E656E68B4
:105B0000616E636500656E626C616E6B00656E62EE
:105B10006F756E6400656E626C696E6B00646973AC
:105B2000726563616C6C00646973667265657A6541
:105B300000646973686D6972726F7200646973766C
:105B40006D6972726F7200646973656E68616E630D
:105B50006500646973626C616E6B00646973626F87
:105B6000756E6400646973626C696E6B003D3D3DE7
:105B70003D3D20466F726D6174203A206368303D70
:105B80005B2562785D206368313D5B2562785D202E
:105B90006368323D5B2562785D206368333D5B2539
:105BA00062785D203D3D3D3D3D0A0025627820251F
:105BB00062782063682562783A25627820636825D8
:105BC00062783A2562782063682562783A2562789F
:105BD0002063682562783A256278200033340026F5
:105BE0000028002900627573770062757372006186
:105BF0006D697800616D757465006164756D700024
:105C0000616761696E00616C6976650062757372C7
:105C10007400766D697800766D69786572720076C9
:105C2000617474720079766D697800696E697400C8
:105C300076646574007673657466007373747200BD
:105C40006873636F6D006D6F64650064697373637F
:0E5C5000726F6C6C0076657200010204081021
:048AF3004100D80066
:1060FA0008F208E4F2087400F2087427F208E4F2DD
:10610A00087400F208742CF208E4F2087400F20829
:10611A007428F208E4F2087400F208742DF208E414
:10612A00F2087400F2742908F208E4F2082208F26C
:10613A0008E4F2087400F2087427F208E4F208741A
:10614A0000F208742CF208E4F2087400F2087428C9
:10615A00F208E4F2087400F208742DF208E4F20876
:10616A007400F2742908F208E4F20822789EE2FB2D
:10617A0008E2FA08E2F92208F208E4F2087400F2E6
:10618A00087427F208E4F2087400F208742BF20883
:10619A00E4F2087400F2742808F208E4F20822789B
:1061AA00AD74FFF2087459F274E208F208E4F208D6
:1061BA00227400F208742EF208E4F2087400F274F1
:1061CA002A08F208E4F208227400F208742EF2088F
:1061DA00E4F2087400F2742A08F208E4F20822745D
:1061EA0000F208742CF208E4F2087400F274290828
:1061FA00F208E4F2082278AD74FFF2087459F274D6
:10620A00ED08F208E4F2082278AD74FFF208745A35
:10621A00F2747D08F208E4F208227400F274270886
:10622A00F208E4F208227400F2742708F208E4F291
:10623A00082208F20874FEF2087400F2745608F292
:10624A000874FEF20822EBF208EAF208E9F278ADE5
:10625A0074FEF2082208F208E4F2082278AD74FF0C
:10626A00F2082208F208E4F2082208F208E4F20826
:10627A002208F208E4F2082208F208E4F20822E20C
:10628A00FF78A874FEF2087400F208745BF27BFED1
:10629A007A0079562208F208E4F2082208F208E4A1
:1062AA00F20822EBF208EAF208E9F222900001E48D
:1062BA0075F0010244C108F208E4F20822FFE22460
:1062CA005FF8EFF222E25401FB7D2022252AF52A0B
:1062DA0008E254032278A9EFF27BFF7A59798C7885
:1062EA00A722E528905C5993FFE527932F221245B0
:0B62FA001F02442C08F208E4F2082206
:107B9B0078AA1262AD081261781262F87002FF22A5
:107BAB0078AD1261781262F8B4200A78AD12617860
:107BBB001262B680EB78AD12617812451FC003C01C
:107BCB0002C00178AA12617812453F802178AD126C
:107BDB0061781262F8FEB4200FE412447278AD1291
:107BEB0061781262B67F0122EE70037F012278ADBD
:087BFB001261781262B680D518
:0585090078AA1262AD2A
:10850E00E4F531F53278AA12617812442C602578A0
:10851E00AAE2FB0808E2F92401F218E2FA3400F2AA
:10852E0012442CFF3395E0FEEF2532F532EE353155
:08853E00F53180D1AE31AF32FE
:018546002212
:0F8A9F007F411200037F431200037F4B0200034D
:10840700E4F52A7856E254031262D625E025E012F5
:1084170062D6C454F01262D6C4333354C0252AF549
:108427002A7855E2B5070B785AE2B52A05E478654C
:10843700F22278657401F2785AE52AF27855EFF25C
:018447002212
:108382001262667459F274801261317400F27427B9
:1083920012616F7400F274281261A27400F2087400
:1083A20029F21256E8AB28AD27E4FF12865D12626D
:1083B200DFE527F208E528F21253710528E528B512
:0283C20029E3AD
:0183C4002296
:108690001262667459F274A31261B47400F2742702
:1086A0001261CB7400F2087428F21256E8AB28ADC0
:1086B00027E4FF12865D1262DFE527F208E528F263
:0386C000025371F1
:1086C3001262667459F274801261E27400F27427C4
:1086D3001261F97400F2742812620B7400F20874C8
:1086E30029F21256E878D7E529F2AB28AD27E4FF43
:0386F30002878D6E
:1080FC00E4F527F528F529F52AC003C002126266BB
:10810C007459F274AB12621D7400F2742712622956
:10811C007400F274281262357400F2742912625FD2
:10812C007400F208742AF2D002D0031256E878D701
:0C813C00E52AF2AB29AD28E4FF02878D94
:10822500E4F527F528F529F52A1262667459F274E2
:10823500BC12625F7400F2742712626D7400F274EE
:108245002812626D7400F2087429F21256E8AB29FF
:10825500AD28E4FF12865D8F2A7BFF7A5979CC78A9
:07826500A7E52AF2025371A4
:0266520078A42A
:106654001262507400F20874A4F27BFE7A0079A7E7
:10666400127B9BE4FB7D1FFF12872978A7126178B8
:10667400127730EE600302678CEF24FE603D1460F5
:106684006514700302670E147003026736240460F5
:106694000302678C1261A91262247400F208742C3C
:1066A400F278A41261781256E8AB2CAD27E4FF12FD
:1066B4007D2CE527905C5993026784126200126274
:1066C400247400F2742C1262747400F2742812623E
:1066D400747400F208742DF278A412617812678D34
:1066E4001262EC026784126266745AF274021260D7
:1066F400FA7400F208742EF278A412617812678D8D
:10670400AB2EAD291267A3026784126266745AF233
:1067140074211260FA1261BB7400F208742FF278CB
:10672400A41261781267B91267A3FFE52A932F02B6
:106734006784126266745AF208744A1260FB12612A
:10674400BB7400F2742F12627B7400F2742B126219
:106754007B7400F2087430F278A41261781267B97D
:10676400E4FF127D2CAB30AD2BE4FF127D2C1262C2
:10677400ECFFE529932FFFE52A932FFFE52B932FB9
:08678400FD7B01E4FF128729EF
:10678C00221256E8AB2CAD27E4FF127D2CAB2DADBD
:10679C0028E4FF127D2C22E4FF127D2CE528905C6E
:1067AC005993FFE527932FFFE529932F221256E8E3
:1067BC00AB2CAD27E4FF127D2CAB2DAD28E4FF12E2
:1067CC007D2CAB2EAD29E4FF127D2CAB2FAD2A22F4
:0F8AAE00E4FB7D1FFF1287297DFFE4FF02886232
:026D5D0078A418
:106D5F001262507400F20874A4F27BFE7A0079A7D5
:106D6F00127B9B78A7126178127730EE6003026E68
:106D7F0064EF24FE602F14605414606E14700302CD
:106D8F006E1C24046003026E641261A912623074D7
:106D9F0000F208742CF278A41261781256E8AB2C2A
:106DAF00AD27026E5F1262001262307400F2742C13
:106DBF001262827400F274281262827400F20874F4
:106DCF002DF278A4126178126E7F026E5F126266E6
:106DDF00745AF274021261387400F208742EF27849
:106DEF00A4126178126E65026E5F126266745AF2B7
:106DFF0074211261381261D27400F208742FF27884
:106E0F00A4126178126E65126E90026E5F12626646
:106E1F00745AF208744A1261391261D27400F27412
:106E2F002F12629F7400F2742B12629F7400F2088B
:106E3F007430F278A4126178126E7FE4FF127EA98B
:106E4F00AB2EAD29126E90E4FF127EA9AB30AD2BA5
:056E5F00E4FF127EA912
:106E6400221256E8AB2CAD27E4FF127EA9AB2DAD60
:106E740028E4FF127EA9AB2EAD29221256E8AB2CD2
:106E8400AD27E4FF127EA9AB2DAD2822E4FF127ECC
:066E9400A9AB2FAD2A227C
:1089F9001262127400F2087427F21256E8AD27E4E5
:048A0900FF0288627E
:1081DC00E4F5287BFF7A5A798278A7E528F21253C6
:1081EC0071E4F527AB27AD28E4FF12865D78A7EF85
:1081FC00F27BFF7A5A79A61253710527E527540FA3
:10820C0070097BFF7A5A79AC125371E52770D5054A
:08821C0028E528C3940340BBD0
:018224002237
:107F5B00C003C002C001126266745AF274AE1262A0
:107F6B00A67400F274271262A67400F274281262CF
:107F7B003C7400F274571262487400F20874581281
:107F8B0062497400F2087459F2D001D002D0031286
:107F9B0056E8E527C454F0FFE528540F2FF52712B8
:067FAB006298FF0264BDB4
:055EEA0078A41262AD76
:105EEF00E4F52F1262581260D478A71261781277F6
:105EFF00308F301262581260D478A71261781285F1
:105F0F00098E278F287A5A79D51260B8B5280AEEEC
:105F1F00B52706752980025FAC7A5A79DE1260B810
:105F2F00B5280AEEB52706752940025FAC7A5A7973
:105F3F00E71260BFB52809EEB52705752920805DEA
:105F4F007A5A79F11260BFB52809EEB52705752980
:105F5F0010804A7A5A79FB1260C6B52809EEB52728
:105F6F000575290880377A5B79051260C6B528094F
:105F7F00EEB5270575290480247A5B790D1260CD63
:105F8F00B52809EEB5270575290280117A5B7915B9
:105F9F001260CDB5280DEEB52709752901752A01B7
:105FAF000260567A5B791D1260E5B5280AEEB527B7
:105FBF00067529800260397A5B79271260E5B5286A
:105FCF0009EEB5270575294080607A5B793112603B
:105FDF00ECB52809EEB52705752920804D7A5B7938
:105FEF003C1260ECB52809EEB52705752910803AEB
:105FFF007A5B79471260F3B52809EEB52705752945
:10600F000880277A5B79521260F3B52809EEB5271D
:10601F000575290480147BFF7A5B795B128509EF84
:10602F00B5280CEEB52708752902E4F52A80187BF0
:10603F00FF7A5B7964128509EF65287003EE652797
:10604F007066752901F52A1262587400F20874A45B
:10605F00F27BFE7A0079A7127B9BEF603278A71252
:10606F00617812442CB477DF900001124445B46973
:10607F00D6900002124445B46ECDE92403F9E43AF8
:10608F00FA127730742B252FF8A607052F80B8E565
:10609F002F6015242AF8E6FFC395305007AB2AADC1
:0860AF002912875C152F80E720
:1060B700227BFF128509EF227BFF128509EF227BE6
:1060C700FF128509EF227BFF128509EF227400F288
:1060D7000874A4F27BFE7A0079A7127B9B227BFFD0
:1060E700128509EF227BFF128509EF227BFF1285BC
:0360F70009EF228C
:108A6E001262127400F2087427F21256E8AF27024F
:028A7E008A0D5F
:1086F600E4FF12826CC0077F0112826CC0077F0202
:1087060012826CC0077F0312826C78AAEFF218D02F
:10871600E0F218D0E0F218D0E0F27BFF7A5B796DD8
:038726000253718A
:02733C0078A433
:10733E001262507400F20874A4F27BFE7A0079A7F0
:10734E00127B9B78A7126178127730EE600302747D
:10735E0028EF24FE602A1460511460762403600323
:10736E000274281261A97400F274271262C07400AC
:10737E00F208742BF278A412617812744702742307
:10738E001262667459F274ED1261817400F208741F
:10739E002CF278A4126178127447E4FF12888AE501
:1073AE002CC454F0FBAD28027423126266745AF298
:1073BE0074021261811261E97400F208742DF27880
:1073CE00A4126178127429E52DC454F0FBAD290284
:1073DE007423126266745AF2087421126182126169
:1073EE00E97400F2742D1262C07400F2742A1262F3
:1073FE00FE7400F208742EF278A4126178127429C9
:10740E00E52DC454F0FBAD29E4FF12888AE52EC4A5
:0A741E0054F0FBAD2AE4FF12888A47
:10742800221256E8E52BC454F0FBAD27E4FF12887E
:107438008AE52CC454F0FBAD28E4FF12888A221296
:0B74480056E8E52BC454F0FBAD2722F2
:027E4C0078A418
:107E4E00126250127E961261781277308F2712626C
:107E5E0058127E961261781277308F287F04128B1B
:107E6E00187F03128B1B7F0512891C78A4E2F90878
:107E7E00E2FA08E278ADC91262AEAB28AD277F01F7
:087E8E00127D8D7F050286289C
:107E96007400F20874A4F27BFE7A0079A7127B9B29
:037EA60078A72298
:10854700752801E4F527745B2527F8E230E40F74FA
:10855700562527F8E2FDE4FF128862E4F52805278F
:10856700E527C3940440DFE528600FE4FB7D1FFF88
:0A8577001287297DFFE4FF128862DD
:0185810022D7
:106E9A00C003C002C001126266745BF274AB126274
:106EAA00FE7400F2087428F208E4F2087400F2741E
:106EBA002912623C7400F208745B1262497400F28F
:106ECA000874571262497400F208745C12624974B9
:106EDA0000F20874581262497400F208745D126272
:106EEA00497400F20874591262497400F208745E17
:106EFA00F2D001D002D0031256E8E528C454F0FFBC
:106F0A007852E2FEC433333354802FFFE529540FFD
:106F1A002F7864F2785BE278561262C7785CE2787E
:106F2A00571262C7785DE2FF78581262C8785EE24B
:106F3A00FF78591262C8785F1262CFE4FF12858225
:106F4A0078601262CF7F0112858278611262CF7FE8
:106F5A000212858278621262CF7F031285827BFEDB
:106F6A007A00795F1270FF7864126289124FA878EA
:106F7A0064E2FF1262981264BDE4F527745B252768
:106F8A00F81262CFAF2712875C0527E527C394045E
:106F9A0040EAE4F510F511F5127513057F01128A1E
:106FAA00EA7864E2FF1284077F08128939E4FF1243
:106FBA00896F12833E7BFE7A00795B124C327864C9
:056FCA00E29000D8F088
:016FCF00229F
:107C67007F0312826CEFB40202C3227852E2B50797
:107C770002D3227852EFF2E2C43333335480FF78D1
:107C870055E2547F4FF27F011286287852E2FF12A5
:107C97007CCA7BFE7A00795F1270FF785512628981
:107CA700124FA87855E2FF1262981264BDE4FF12E2
:107CB700896F12833E7BFE7A00795B124C32128801
:027CC700D9C31F
:017CC9002298
:1089B700126266745AF208747D1262497400F208F2
:0689C7007453F20256E8B1
:058B09007F0102862837
:108A3500905BDCE493FF120003905BDCA3E493FFFF
:038A450002000329
:025C5E00789E2E
:105C60001262507400F208749EF27BFE7A0079A1F1
:105C7000127B9B78A11261781285098E258F267A76
:105C80005B79DF125E9DB5260DEEB52509126176B2
:105C9000128382025E9A7A5B79E1125E9DB5260DCF
:105CA000EEB52509126176128690025E9A7A5B79CA
:105CB000E3125EA4B5260DEEB525091261761286B3
:105CC000C3025E9A7A5B79E5125EA4B5260DEEB545
:105CD00025091261761280FC025E9A7A5B79EA12DB
:105CE0005EABB5260DEEB52509126176128225024E
:105CF0005E9A7A5B79EF125EABB5260DEEB525099B
:105D0000126176126652025E9A7A5B79F4125EB282
:105D1000B5260AEEB52506128AAE025E9A7A5B793E
:105D2000FA125EB2B5260AEEB52506126305025ECA
:105D30009A7A5C7900125EB9B5260DEEB525091286
:105D40006176126D5D025E9A7A5C7906125EB9B573
:105D5000260DEEB525091261761289F9025E9A7A4E
:105D60005C790C125EC0B5260AEEB525061281DC00
:105D7000025E9A7A5C7912125EC0B52615EEB525E0
:105D8000117F401285BA126176127F5B128A9F02E0
:105D90005E9A7A5C7917125EC7B5260DEEB52509B5
:105DA000126176127F5B025E9A7A5C791F125EC77F
:105DB000B5260DEEB52509126176125EEA025E9AED
:105DC0007A5C7925125ECEB52610EEB5250C128AC6
:105DD0009F126176128A6E025E9A7A5C792B125E4D
:105DE000CEB5260AEEB525061283C5025E9A7A5C08
:105DF0007930125ED5B5260AEEB525061286F60272
:105E00005E9A7A5C7935125ED5B5260DEEB5250918
:105E100012617612733C025E9A7A5C793B125EDC08
:105E2000B5260DEEB52509126176127E4C025E9AFA
:105E30007A5C7940125EDCB5261AEEB52516128A18
:105E40009F126176126E9A1285471288D9E4FF126A
:105E50008AEA80467A5C7946125EE3B5260FEEB593
:105E6000250B128A9F1261761289B7802D7A5C7990
:105E70004B125EE3B5260CEEB52508128A9F128BF5
:105E80000980177BFF7A5C7955128509EFB5260AE0
:0C5E9000EEB52506128A9F128A357F01AC
:105E9C00227BFF128509EF227BFF128509EF227B03
:105EAC00FF128509EF227BFF128509EF227BFF127F
:105EBC008509EF227BFF128509EF227BFF128509F2
:105ECC00EF227BFF128509EF227BFF128509EF225F
:0E5EDC007BFF128509EF227BFF128509EF2262
:1089A0000D0A0044656275672050726F6772616DD1
:0789B000203E00504354007B
:10805A00128A90EF640170497895E270441289554A
:10806A008F25300003120003E52524F8601F24FB46
:10807A0070217894E2246BF8E4F2789504F27BFE9E
:10808A007A00796B1287E6300017028AE17894E267
:10809A0014F2227894E2246BF8E525F27894E2044B
:0180AA00F2E3
:0180AB0022B2
:098AE1007BFF7A8979A00288105C
:0A85F200789EEBF208EAF208E9F2C5
:1085FC00789EE2FB08E2FA08E2F912442C601C783F
:10860C009EE2FB0808E2F92401F218E2FA3400F2C7
:0B861C0012442CF525FF12000380D54E
:018627002230
:1089CD003000097BFF7A8979A31285F2E47894F25D
:0689DD0008F2786BF222A3
:098AEA00EF6003C20122D2012257
:0B8ACC00C200C201C221E47899F2222E
:1087E600789EEBF208EAF208E9F220001C789EE295
:1087F600FB08E2FA08E2F8AC02AD037BFF7A89795E
:0A880600B3124732EF7002D20022D5
:0782B30078A4EEF208EFF2DF
:1082BA0078A5E2700218E26035E478A6F208F2784E
:1082CA00A6E2FE08E2FFE4FCFD7B0FFAF9F8D312FE
:1082DA00450E400D78A7E22401F218E23400F2803C
:0E82EA00DE78A5E224FFF218E234FFF280C233
:0182F8002263
:107B2600E4789BF20874C8F2087464F21288FE12B4
:107B36008ACC128B1E1283C51289CD12805A789573
:107B4600E2B401097BFE7A00796B125C5E7895E2FD
:107B5600B401031289CD302107127C675002C2217D
:107B6600128A90EF6008789CE2751200F513E5130F
:107B760064014512700CF512F513789DE27510003C
:107B8600F511E5116401451070B11282F975100006
:057B960075111480A62A
:1088FE00E4F5B8F5A8758780F5D0758921F58875EA
:0E890E009852128A801289E3D299D2AF0022C9
:100026001010FFFFFFFFFFFFFFFFFFFFFFFFFFFFB8
:10003600FFFFFFFFFFFFFFFFFFFFFFFFFFFFFFFFCA
:10004600FFFFFFFFFFFFFFFFFFFFFFFFFFFFFFFFBA
:10005600FFFFFFFFFFFFFFFFFFFFFFFFFFFFFFFFAA
:10006600FFFFFFFFFFFFFFFFFFFFFFFFFFFFFFFF9A
:10007600FFFFFFFFFFFFFFFFFFFFFFFFFFFFFFFF8A
:10008600FFFFFFFFFFFFFFFFFFFFFFFFFFFFFFFF7A
:10009600FFFFFFFFFFFFFFFFFFFFFFFFFFFFFFFF6A
:1000A600FFFFFFFFFFFFFFFFFFFFFFFFFFFFFFFF5A
:1000B600FFFFFFFFFFFFFFFFFFFFFFFFFFFFFFFF4A
:1000C600FFFFFFFFFFFFFFFFFFFFFFFFFFFFFFFF3A
:1000D600FFFFFFFFFFFFFFFFFFFFFFFFFFFFFFFF2A
:1000E600FFFFFFFFFFFFFFFFFFFFFFFFFFFFFFFF1A
:1000F600FFFFFFFFFFFFFFFFFFFFFFFFFFFFFFFF0A
:10010600FFFFFFFFFFFFFFFFFFFFFFFFFFFFFFFFF9
:10011600FFFFFFFFFFFFFFFFFFFFFFFFFFFFFFFFE9
:10012600FFFF1010FFFFFFFFFFFFFFFFFFFFFFFFB7
:10013600FFFFFFFFFFFFFFFFFFFFFFFFFFFFFFFFC9
:10014600FFFFFFFFFFFFFFFFFFFFFFFFFFFFFFFFB9
:10015600FFFFFFFFFFFFFFFFFFFFFFFFFFFFFFFFA9
:10016600FFFFFFFFFFFFFFFFFFFFFFFFFFFFFFFF99
:10017600FFFFFFFFFFFFFFFFFFFFFFFFFFFFFFFF89
:10018600FFFFFFFFFFFFFFFFFFFFFFFFFFFFFFFF79
:10019600FFFFFFFFFFFFFFFFFFFFFFFFFFFFFFFF69
:1001A600FFFFFFFFFFFFFFFFFFFFFFFFFFFFFFFF59
:1001B600FFFFFFFFFFFFFFFFFFFFFFFFFFFFFFFF49
:1001C600FFFFFFFFFFFFFFFFFFFFFFFFFFFFFFFF39
:1001D600FFFFFFFFFFFFFFFFFFFFFFFFFFFFFFFF29
:1001E600FFFFFFFFFFFFFFFFFFFFFFFFFFFFFFFF19
:1001F600FFFFFFFFFFFFFFFFFFFFFFFFFFFFFFFF09
:10020600FFFFFFFFFFFFFFFFFFFFFFFFFFFFFFFFF8
:10021600FFFFFFFFFFFFFFFFFFFFFFFFFFFFFFFFE8
:10022600FFFFFFFF1010FFFFFFFFFFFFFFFFFFFFB6
:10023600FFFFFFFFFFFFFFFFFFFFFFFFFFFFFFFFC8
:10024600FFFFFFFFFFFFFFFFFFFFFFFFFFFFFFFFB8
:10025600FFFFFFFFFFFFFFFFFFFFFFFFFFFFFFFFA8
:10026600FFFFFFFFFFFFFFFFFFFFFFFFFFFFFFFF98
:10027600FFFFFFFFFFFFFFFFFFFFFFFFFFFFFFFF88
:10028600FFFFFFFFFFFFFFFFFFFFFFFFFFFFFFFF78
:10029600FFFFFFFFFFFFFFFFFFFFFFFFFFFFFFFF68
:1002A600FFFFFFFFFFFFFFFFFFFFFFFFFFFFFFFF58
:1002B600FFFFFFFFFFFFFFFFFFFFFFFFFFFFFFFF48
:1002C600FFFFFFFFFFFFFFFFFFFFFFFFFFFFFFFF38
:1002D600FFFFFFFFFFFFFFFFFFFFFFFFFFFFFFFF28
:1002E600FFFFFFFFFFFFFFFFFFFFFFFFFFFFFFFF18
:1002F600FFFFFFFFFFFFFFFFFFFFFFFFFFFFFFFF08
:10030600FFFFFFFFFFFFFFFFFFFFFFFFFFFFFFFFF7
:10031600FFFFFFFFFFFFFFFFFFFFFFFFFFFFFFFFE7
:10032600FFFFFFFFFFFF1010FFFFFFFFFFFFFFFFB5
:10033600FFFFFFFFFFFFFFFFFFFFFFFFFFFFFFFFC7
:10034600FFFFFFFFFFFFFFFFFFFFFFFFFFFFFFFFB7
:10035600FFFFFFFFFFFFFFFFFFFFFFFFFFFFFFFFA7
:10036600FFFFFFFFFFFFFFFFFFFFFFFFFFFFFFFF97
:10037600FFFFFFFFFFFFFFFFFFFFFFFFFFFFFFFF87
:10038600FFFFFFFFFFFFFFFFFFFFFFFFFFFFFFFF77
:10039600FFFFFFFFFFFFFFFFFFFFFFFFFFFFFFFF67
:1003A600FFFFFFFFFFFFFFFFFFFFFFFFFFFFFFFF57
:1003B600FFFFFFFFFFFFFFFFFFFFFFFFFFFFFFFF47
:1003C600FFFFFFFFFFFFFFFFFFFFFFFFFFFFFFFF37
:1003D600FFFFFFFFFFFFFFFFFFFFFFFFFFFFFFFF27
:1003E600FFFFFFFFFFFFFFFFFFFFFFFFFFFFFFFF17
:1003F600FFFFFFFFFFFFFFFFFFFFFFFFFFFFFFFF07
:10040600FFFFFFFFFFFFFFFFFFFFFFFFFFFFFFFFF6
:10041600FFFFFFFFFFFFFFFFFFFFFFFFFFFFFFFFE6
:10042600FFFFFFFFFFFFFFFF1010FFFFFFFFFFFFB4
:10043600FFFFFFFFFFFFFFFFFFFFFFFFFFFFFFFFC6
:10044600FFFFFFFFFFFFFFFFFFFFFFFFFFFFFFFFB6
:10045600FFFFFFFFFFFFFFFFFFFFFFFFFFFFFFFFA6
:10046600FFFFFFFFFFFFFFFFFFFFFFFFFFFFFFFF96
:10047600FFFFFFFFFFFFFFFFFFFFFFFFFFFFFFFF86
:10048600FFFFFFFFFFFFFFFFFFFFFFFFFFFFFFFF76
:10049600FFFFFFFFFFFFFFFFFFFFFFFFFFFFFFFF66
:1004A600FFFFFFFFFFFFFFFFFFFFFFFFFFFFFFFF56
:1004B600FFFFFFFFFFFFFFFFFFFFFFFFFFFFFFFF46
:1004C600FFFFFFFFFFFFFFFFFFFFFFFFFFFFFFFF36
:1004D600FFFFFFFFFFFFFFFFFFFFFFFFFFFFFFFF26
:1004E600FFFFFFFFFFFFFFFFFFFFFFFFFFFFFFFF16
:1004F600FFFFFFFFFFFFFFFFFFFFFFFFFFFFFFFF06
:10050600FFFFFFFFFFFFFFFFFFFFFFFFFFFFFFFFF5
:10051600FFFFFFFFFFFFFFFFFFFFFFFFFFFFFFFFE5
:10052600FFFFFFFFFFFFFFFFFFFF1010FFFFFFFFB3
:10053600FFFF00000000FFFFFFFFFFFFFFFFFFFFC1
:10054600FF000000000000FFFFFFFFFFFFFFFFFFAF
:100556000000020202020000FFFFFFFFFFFFFFFF95
:100566000000020202020000FFFFFFFFFFFFFF0084
:10057600000202000002020000FFFFFFFFFFFF0073
:10058600000202000002020000FFFFFFFFFF000062
:1005960002020000000002020000FFFFFFFF000051
:1005A600020200FFFF0002020000FFFFFF00000240
:1005B600020000FFFF000002020000FFFF00000231
:1005C6000200000000000002020000FF000002021C
:1005D60002020202020202020202000000000202FD
:1005E60002020202020202020202000000000202ED
:1005F60000000000000000000202000000000202ED
:100606000000FFFFFFFF00000202000000000202E0
:100616000000FFFFFFFF00000202000000000000D4
:100626000000FFFFFFFF00000000000010100000A8
:10063600000000000000000000000000FFFF0002B4
:1006460002020202020202020202000000FF00028F
:10065600020202020202020202020200000000007E
:100666000002020000000000020202020000FF0079
:1006760000020200FFFFFF00000202020000FF006E
:1006860000020200FFFFFF00000202020000FF005E
:1006960000020200000000000202020000FFFF004C
:1006A600000202020202020202020000FFFFFF0035
:1006B600000202020202020202020000FFFFFF0025
:1006C60000020200000000000202020000FFFF001C
:1006D60000020200FFFFFF00000202020000FF000E
:1006E60000020200FFFFFF000002020200000000FD
:1006F60000020200000000000202020200000002E6
:1007060002020202020202020202020000000002CB
:1007160002020202020202020202000000FF0000C0
:10072600000000000000000000000000FFFF1010A5
:10073600FFFFFF00000000000000000000FFFFFFB9
:10074600FFFF00000202020202020202000000FF96
:10075600FF00000202020202020202020200000080
:100766000000000202000000000000020202000079
:1007760000000202020000FFFFFF0000020200006C
:10078600000002020000FFFFFFFFFF000202000060
:10079600000002020000FFFFFFFFFFFF0000000055
:1007A600000002020000FFFFFFFFFFFFFFFFFFFF49
:1007B600000002020000FFFFFFFFFFFFFFFFFFFF39
:1007C600000002020000FFFFFFFFFF000000000024
:1007D600000002020000FFFFFFFFFF000202000010
:1007E60000000202000000FFFFFF000002020000FE
:1007F60000000202020000000000000202020000E7
:10080600FF000002020202020202020202000000CF
:10081600FFFF00000202020202020202000000FFC5
:10082600FFFFFF0000000000000000000000FFFFC7
:100836001010000000000000000000000000FFFF94
:10084600FFFF00000202020202020202020000FF93
:10085600FFFF000002020202020202020202000080
:10086600FFFF00000202000000000002020200007A
:10087600FFFF000002020000FFFF0000020200006E
:10088600FFFF000002020000FFFF0000020200005E
:10089600FFFF00000202000000000002020200004A
:1008A600FFFF00000202020202020202020000FF33
:1008B600FFFF00000202020202020202000000FF25
:1008C600FFFF000002020000020202000000FFFF1C
:1008D600FFFF000002020000000202020000FFFF0C
:1008E600FFFF00000202000000000202020000FFFB
:1008F600FFFF000002020000FF00000202020000EB
:10090600FFFF000002020000FFFF000002020200DB
:1009160000FF000002020000FFFFFF0000020202CB
:1009260000FF000000000000FFFFFFFF00000000C6
:1009360000FF101000000000FFFFFFFFFFFFFFFF9A
:10094600000000000000000000FFFFFFFFFFFF00A7
:100956000000000000000C0C0000FFFFFFFF00007D
:100966000C0C000000000C0C0C0000000000000C39
:100976000C0C000000000C0C0C0C000000000C0C11
:100986000C0C000000000C0C0C0C0C0C0C0C0C0CD1
:100996000C0C000000000C0C0C0C0C0C0C0C0C0CC1
:1009A6000C0C000000000C0C0C000C0C0C0C000CC9
:1009B6000C0C000000000C0C0C00000C0C00000CD1
:1009C6000C0C000000000C0C0C0000000000000CD9
:1009D6000C0C000000000C0C0C0000000000000CC9
:1009E6000C0C000000000C0C0C0000FFFF00000CBB
:1009F6000C0C000000000C0C0C0000FFFF00000CAB
:100A06000C0C000000000C0C0C0000FFFF00000C9A
:100A16000C0C000000000C0C0C0000FFFF00000C8A
:100A26000C0C000000000000000000FFFF000000AA
:100A3600000000001010FF00000000000000000091
:100A46000000000000FFFF00000202020202020294
:100A56000202020000FFFF0000020202020202027E
:100A66000202020000FFFF00000000000000020278
:100A76000200000000FFFFFFFFFFFFFF0000020271
:100A8600020000FFFFFFFFFFFFFFFFFF0000020263
:100A9600020000FFFFFFFFFFFFFFFFFF0000020253
:100AA600020000FFFFFFFFFFFFFFFFFF0000020243
:100AB600020000FFFFFFFFFFFFFFFFFF0000020233
:100AC600020000FFFFFFFFFFFFFFFFFF0000020223
:100AD600020000FFFFFFFF00000000FF000002020F
:100AE600020000FFFFFFFF000202000000000202FA
:100AF600020000FFFFFFFF000202020000020202E6
:100B0600020000FFFFFFFF000002020202020202D3
:100B1600000000FFFFFFFFFF0000020202020200CA
:100B26000000FFFFFFFFFFFFFF00000000000000C6
:100B360000FFFFFFFFFF1010FFFFFFFFFFFFFFFF9C
:100B4600FFFFFFFFFFFFFFFFFFFFFFFFFF000000AC
:100B560000000000FFFFFFFFFFFFFFFF0000010195
:100B660001010000FFFFFFFFFFFFFF000001010181
:100B760001010000FFFFFFFFFFFF0000010101016F
:100B8600010000FFFFFFFFFFFF000001010101015F
:100B96000000000000000000000001010101010149
:100BA6000101010101010000000101010101010132
:100BB6000101010101010000000101010101010122
:100BC6000101010101010000000001010101010113
:100BD6000101010101010000FF0000010101010105
:100BE6000000000000000000FFFF000001010101FD
:100BF600010000FFFFFFFFFFFFFFFF0000010101F3
:100C060001010000FFFFFFFFFFFFFFFF00000101E2
:100C160001010000FFFFFFFFFFFFFFFFFF000000D5
:100C260000000000FFFFFFFFFFFFFFFFFFFFFFFFCA
:100C3600FFFFFFFFFFFFFFFF1010FFFFFFFFFFFF9C
:100C4600FFFFFFFFFFFFFFFFFFFFFFFFFFFF0000AC
:100C56000000000000FFFFFFFFFFFFFFFFFF000097
:100C6600010101010000FFFFFFFFFFFFFFFF000082
:100C760001010101010000FFFFFFFFFFFFFFFF0071
:100C86000001010101010000FFFF0000000000005B
:100C9600000001010101010000FF00000101010146
:100CA6000101010101010101000000000101010132
:100CB6000101010101010101010000000101010121
:100CC6000101010101010101010000000000000015
:100CD600000001010101010000FF0000000000000A
:100CE600000001010101010000FFFFFFFFFFFF00FF
:100CF6000001010101010000FFFFFFFFFFFF0000EF
:100D060001010101010000FFFFFFFFFFFFFF0000DF
:100D1600010101010000FFFFFFFFFFFFFFFF0000D1
:100D26000000000000FFFFFFFFFFFFFFFFFFFFFFC8
:100D3600FFFFFFFFFFFFFFFFFFFF1010FFFFFFFF9B
:100D46000000000000000000FFFFFFFFFFFFFFFFA5
:100D56000000010101010000FFFFFFFFFFFFFFFF91
:100D66000000010101010000FFFFFFFFFFFFFFFF81
:100D76000000010101010000FFFFFFFFFFFFFFFF71
:100D86000000010101010000FFFFFFFF000000005D
:100D96000000010101010000000000000000010147
:100DA6000000010101010000010100000000010135
:100DB6000100010101010001010100000000010123
:100DC6000101010101010101010100000000010111
:100DD600010101010101010101010000FF00000103
:100DE6000101010101010101010000FFFFFF0000F7
:100DF60001010101010101010000FFFFFFFFFF00EA
:100E0600000101010101010000FFFFFFFFFFFFFFDD
:100E16000000010101010000FFFFFFFFFFFFFFFFD0
:100E2600FF000001010000FFFFFFFFFFFFFFFFFFC4
:100E3600FFFF00000000FFFFFFFFFFFF1010FFFF96
:100E4600FFFFFFFFFFFF0000000000000000FFFFA4
:100E5600FFFFFFFFFF000002020202020000FFFF89
:100E6600FFFFFFFF00000202020202020000FFFF76
:100E7600FFFFFF0000020202000002020000000065
:100E86000000000002020200000002020000000052
:100E96000202020202020200FF000202000000003B
:100EA6000202020202020200FF000202000000002B
:100EB6000202000000020200FF0002020000000021
:100EC600020200FF00020200FF0002020000000012
:100ED6000202000000020200FF0002020000000001
:100EE6000202020202020200FF00020200000000EB
:100EF60002020202020202000000020200000000DA
:100F06000000000000020202000002020000FFFFD3
:100F1600FFFFFFFF00000202020202020000FFFFC5
:100F2600FFFFFFFFFF000002020202020000FFFFB8
:100F3600FFFFFFFFFFFF0000000000000000101091
:100F46000000000000FFFFFFFFFFFF0000000000A1
:100F56000001010100FFFFFFFFFFFF00010101008B
:100F66000001010100FFFFFFFFFFFF00010101007B
:100F76000001010100FFFFFFFFFFFF00010101006B
:100F86000001010100FFFFFFFFFFFF00010101005B
:100F9600000101010000FFFFFFFF00000101010049
:100FA600000101010100FFFFFFFF00010101010037
:100FB600000001010100FFFFFFFF00010101000029
:100FC60000000101010000FFFF0000010101000017
:100FD600FF0000010101000000000101010000FF07
:100FE600FFFF000001010100000101010000FFFFF9
:100FF600FFFF000000010100000101000000FFFFEB
:10100600FFFFFF00000101010101010000FFFFFFDA
:10101600FFFFFFFF0000010101010000FFFFFFFFCE
:10102600FFFFFFFFFF00000101000000FFFFFFFFC1
:10103600FFFFFFFFFFFF0000000000FFFFFFFFFFB5
:10104600101000000000000000FFFFFFFFFFFFFF81
:10105600FFFF00000101010000FFFFFFFFFFFFFF90
:10106600FFFF00000101010000FFFFFFFFFFFFFF80
:10107600FFFF00000101010000FFFFFFFFFFFFFF70
:10108600FFFF00000101010000FFFFFFFFFFFFFF60
:10109600FFFF00000101010000FFFFFFFFFFFFFF50
:1010A600FFFF00000101010000FFFFFFFFFFFFFF40
:1010B600FFFF00000101010000FFFFFFFFFFFFFF30
:1010C600FFFF00000101010000FFFFFFFFFFFFFF20
:1010D600FFFF00000101010000FFFFFFFFFF00000E
:1010E600000000000101010000FFFFFFFFFF0000FC
:1010F600000000000101010000FFFFFFFF000001EA
:1011060000000000010101000000000000000101D4
:1011160000000000010101010101010101010101BD
:1011260000000000010101010101010101010101AD
:1011360000000000000000000000000000000000A9
:1011460000001010FFFFFFFFFFFFFFFFFFFFFFFF85
:10115600FFFFFFFFFFFFFFFFFFFFFFFFFFFFFFFF99
:10116600FFFFFFFFFFFFFFFFFFFFFFFFFFFFFFFF89
:10117600FFFFFFFFFFFFFFFF00000000000000FF72
:10118600FFFFFFFFFFFFFF0000000101010000005D
:10119600FFFFFFFFFFFF0000010101010101010048
:1011A60000FFFFFFFF000001010100000001010137
:1011B6000000FFFF00000001010000FF0000010128
:1011C600000000FF00000101010000FF0000010116
:1011D600010000FF00000101010000FF0000010105
:1011E600010000FF00000101010000FF00000101F5
:1011F600010000FF00000001010000FF00000101E6
:10120600000000FFFF0000010101000000010101D4
:101216000000FFFFFFFF00000101010101010100C5
:1012260000FFFFFFFFFFFF000000010101000000BB
:10123600FFFFFFFFFFFFFFFF00000000000000FFB1
:10124600FFFFFFFF1010FFFFFFFFFFFFFFFFFFFF86
:10125600FFFFFFFFFFFFFFFFFFFF00000000000092
:101266000000FFFFFFFFFFFF000000000202020276
:10127600000000FFFFFFFF00000002020202020260
:1012860002020000FFFFFF00000202020000000051
:101296000202020000FFFF00000202020000FF003F
:1012A6000000000000FFFF00000002020202000032
:1012B6000000FFFFFFFFFFFFFF0000020202020225
:1012C600020000FFFFFFFFFFFFFF00000000020219
:1012D60002020000FFFFFF0000000000FFFF000009
:1012E6000202020000FFFF000002020200000000EE
:1012F6000202020000FFFF000000020202020202D8
:1013060002020000FFFFFFFFFF00000002020202D0
:10131600000000FFFFFFFFFFFFFFFF0000000000CF
:101326000000FFFFFFFFFFFFFFFFFFFFFFFFFFFFC5
:10133600FFFFFFFFFFFFFFFFFFFFFFFFFFFFFFFFB7
:10134600FFFFFFFFFFFF1010FFFFFFFFFFFFFFFF85
:10135600FFFFFFFFFFFFFFFFFF040404FFFFFFFF88
:10136600FFFF040404FFFFFFFF04040404FFFFFF64
:10137600FFFF040404FFFFFFFF04040404FFFFFF54
:10138600FFFF040404FFFFFFFF0404040404FFFF3F
:10139600FFFF040404FFFFFFFF0404FF0404FFFF34
:1013A600FFFF040404FFFFFFFF0404FFFF0404FF24
:1013B600FFFF040404FFFFFFFF0404FFFFFF040414
:1013C600FFFF040404FFFFFFFF0404FFFFFF040404
:1013D600FFFF040404FFFFFFFF0404FFFFFFFF04F9
:1013E60004FF040404FFFFFFFF0404FFFFFFFF04E4
:1013F6000404040404FFFFFFFF0404FFFFFFFFFFD4
:101406000404040404FFFFFFFF0404FFFFFFFFFFC3
:10141600FF04040404FFFFFFFF0404FFFFFFFFFFB8
:10142600FF04040404FFFFFFFF0404FFFFFFFFFFA8
:10143600FFFF040404FFFFFFFFFFFFFFFFFFFFFFA7
:10144600FFFFFFFFFFFFFFFF1010FFFFFFFFFFFF84
:10145600FFFFFFFFFFFFFFFFFFFFFFFFFFFF04048C
:1014660004040404FFFFFFFFFFFFFFFF040404045E
:10147600040404040404FFFFFFFFFF04040404043F
:1014860004040404040404FFFFFF04040404FFFF2F
:10149600FFFFFFFF040404FFFFFF040404FFFFFF38
:1014A600FFFFFFFFFF040404FFFF0404FFFFFFFF2D
:1014B600FFFFFFFFFF040404FFFF0404FFFFFFFF1D
:1014C600FFFFFFFFFF040404FFFF0404FFFFFFFF0D
:1014D600FFFFFFFFFF040404FFFF040404FFFFFFF8
:1014E600FFFFFFFFFF040404FFFF040404FFFFFFE8
:1014F600FFFFFFFFFF040404FFFF04040404FFFFD3
:10150600FFFFFFFF040404FFFFFFFF0404040404BD
:1015160004040404040404FFFFFFFFFF040404049E
:10152600040404040404FFFFFFFFFFFFFFFF04049D
:1015360004040404FFFFFFFFFFFFFFFFFFFFFFFFA1
:10154600FFFFFFFFFFFFFFFFFFFF1010FFFFFFFF83
:10155600FFFFFFFFFFFFFFFFFFFFFFFFFFFFFFFF95
:10156600FFFF040404FFFFFFFFFFFFFFFFFFFFFF76
:10157600FFFF040404FFFFFFFFFFFFFFFFFFFFFF66
:10158600FFFFFF040404FFFFFFFFFFFFFFFFFFFF56
:10159600FFFFFF040404FFFFFFFFFF04FFFFFFFF41
:1015A600FFFFFF040404FFFFFFFFFF04FFFFFFFF31
:1015B600FFFFFFFF040404FFFFFF0404FFFFFFFF1C
:1015C600FFFFFFFF040404FFFFFF0404FFFFFFFF0C
:1015D600FFFFFFFFFF0404FFFFFF0404FFFFFFFF01
:1015E600FFFFFFFFF2040404FF040404FFFFFFFFF4
:1015F600FFFFFFFFFF040404FF040404FFFFFFFFD7
:10160600FFFFFFFFFFFF0404040404FFFFFFFFFFCB
:10161600FFFFFFFFFFFF0404040404FFFFFFFFFFBB
:10162600FFFFFFFFFFFF0404040404FFFFFFFFFFAB
:10163600FFFFFFFFFFFFFF040404FFFFFFFFFFFFA5
:10164600FFFFFFFFFFFFFFFFFFFFFFFF1010FFFF82
:10165600FFFFFFFFFFFFFFFFFFFFFFFFFFFF04048A
:1016660004FFFF040404FFFFFF040404040404044D
:1016760004FFFF040404FFFFFF040404040404043D
:10168600FFFFFF040404FFFFFF0404040404040432
:10169600FFFFFF040404FFFFFF040404FFFF04042C
:1016A600FFFFFF040404FFFFFF040404FFFF04FF21
:1016B600FFFFFF040404FFFFFF040404FFFF04FF11
:1016C600FFFFFF040404FFFFFF040404FFFF04FF01
:1016D600FFFFFF040404FFFFFF040404FFFFFFFFF6
:1016E600FFFFFF040404FFFFFF040404FFFFFFFFE6
:1016F600FFFFFF040404FFFFFF040404FFFFFFFFD6
:10170600FFFFFF040404FFFFFF040404FFFFFFFFC5
:10171600FFFFFF040404FFFFFF0404040404FFFFAB
:10172600FFFFFF040404FFFFFF0404040404FFFF9B
:10173600FFFFFF040404FFFFFF0404040404FFFF8B
:10174600FFFFFFFFFFFFFFFFFFFFFFFFFFFF101081
:10175600FFFFFFFFFFFFFFFFFFFFFFFFFFFFFFFF93
:1017660004040404FFFFFFFFFFFFFF040404040456
:101776000404040404FFFFFFFFFFFF040404040441
:10178600040404040404FFFFFFFFFF04040404042C
:10179600FFFFFF04040404FFFFFFFF040404FFFF30
:1017A600FFFFFFFF040404FFFFFFFF040404FFFF25
:1017B600FFFFFFFFFF0404FFFFFFFF040404FFFF1A
:1017C600FFFFFFFFFF0404FFFFFFFF040404040400
:1017D600FFFFFFFFFF0404FFFFFFFF0404040404F0
:1017E600FFFFFFFFFF0404FFFFFFFF040404FFFFEA
:1017F600FFFFFFFF040404FFFFFFFF040404FFFFD5
:10180600FFFFFFFF040404FFFFFFFF040404FFFFC4
:10181600040404040404FFFFFFFFFF04040404049B
:101826000404040404FFFFFFFFFFFF040404040490
:1018360004040404FFFFFFFFFFFFFF040404040485
:10184600FFFFFFFFFFFFFFFFFFFFFFFFFFFFFFFFA2
:101856001010FFFFFFFFFFFFFFFFFFFFFFFFFFFF70
:10186600FFFF040404040404FFFFFFFFFFFFFF045F
:101876000404040404040404FFFFFFFFFF0404043B
:101886000404040404040404FFFFFFFF0404040426
:101896000404FFFFFFFFFFFFFFFFFFFF040404FF39
:1018A600FFFFFFFFFFFFFFFFFFFFFF040404FFFF33
:1018B600FFFFFFFFFFFFFFFFFFFFFF040404FFFF23
:1018C600FFFF0404040404FFFFFFFF040404FFFFFA
:1018D600FFFF0404040404FFFFFFFF040404FFFFEA
:1018E600FFFFFFFFFFFFFFFFFFFFFF040404FFFFF3
:1018F600FFFFFFFFFFFFFFFFFFFFFF040404FFFFE3
:10190600FFFFFFFFFFFFFFFFFFFFFFFF040404FFD2
:10191600FFFF040404040404FFFFFFFF040404049F
:101926000404040404040404FFFFFFFFFF0404048A
:101936000404040404040404FFFFFFFFFFFFFF0484
:101946000404FFFFFFFFFFFFFFFFFFFFFFFFFFFF97
:10195600FFFF1010FFFFFFFFFFFFFFFFFFFFFFFF6F
:10196600FFFFFFFF040404FFFFFFFFFFFFFFFFFF72
:10197600FFFFFFFF0404040404FFFFFFFFFFFFFF58
:10198600FFFFFFFF040404040404FFFFFFFFFFFF43
:10199600FFFFFFFFFFFFFF040404FFFFFFFFFFFF42
:1019A600FFFFFFFFFFFFFFFF040404FFFFFFFFFF32
:1019B600FFFFFFFFFFFFFFFF040404FFFFFFFFFF22
:1019C600FFFFFFFFFFFFFFFF040404FFFFFFFFFF12
:1019D600FFFFFFFFFFFFFFFF040404FFFFFFFFFF02
:1019E600FFFFFFFFFFFFFFFF040404FFFFFFFFFFF2
:1019F600FFFFFFFFFFFFFFFF040404FFFFFFFFFFE2
:101A0600FFFFFFFFFFFFFF040404FFFFFFFFFFFFD1
:101A1600FFFFFFFF040404040404FFFFFFFFFFFFB2
:101A2600FFFFFFFF0404040404FFFFFFFFFFFFFFA7
:101A3600FFFFFFFF040404FFFFFFFFFFFFFFFFFFA1
:101A4600FFFFFFFFFFFFFFFFFFFFFFFFFFFFFFFFA0
:101A5600FFFFFFFF1010FFFFFFFFFFFFFFFFFFFF6E
:101A6600FFFFFFFFFFFFFFFFFFFF04040404040462
:101A7600FFFFFFFFFF04FFFF040404040404040443
:101A860004FFFFFFFF04FFFF04040404040404042E
:101A96000404FFFFFF04FF040404FFFFFFFFFF042D
:101AA6000404FFFFFF04FF040404FFFFFFFFFFFF22
:101AB6000404FFFFFF04FFFF04040404FFFFFFFF0D
:101AC600FFFFFFFFFF04FFFF0404040404040404F3
:101AD600FFFFFFFFFF04FFFFFFFF040404040404ED
:101AE60004FFFFFFFF04FFFFFFFFFFFFFFFF0404EC
:101AF6000404FFFFFF04040404FFFFFFFFFFFFFFD2
:101B06000404FFFFFF0404040404FFFFFFFFFF04B7
:101B16000404FFFFFF04FF04040404040404040493
:101B26000404FFFFFF04FFFF040404040404040488
:101B360004FFFFFFFF04FFFFFF0404040404040482
:101B4600FFFFFFFFFF04FFFFFFFFFFFFFFFFFFFF9A
:101B5600FFFFFFFFFFFF1010FFFFFFFFFFFFFFFF6D
:101B6600FFFFFFFFFFFFFFFF0404FFFFFFFFFFFF75
:101B7600FF040404040404FF0404FFFFFFFFFF0442
:101B860004040404040404040404FFFFFFFF040423
:101B960004040404040404040404FFFFFF0404040E
:101BA60004FFFFFFFFFFFF040404FFFFFF0404041C
:101BB600FFFFFFFFFFFFFFFF0404FFFF040404FF16
:101BC600FFFFFFFFFFFFFFFF0404FFFF040404FF06
:101BD600FFFFFFFFFFFFFFFF0404FFFF040404FFF6
:101BE600FFFFFFFF040404040404FFFF040404FFD2
:101BF600FFFFFFFF040404040404FFFFFF040404C2
:101C0600FFFFFFFFFFFFFFFF0404FFFFFF040404C5
:101C160004FFFFFFFFFFFFFF0404FFFFFFFF0404B5
:101C260004040404040404040404FFFFFFFFFF0487
:101C360004040404040404040404FFFFFFFFFFFF7C
:101C4600FF040404040404FFFFFFFFFFFFFFFFFF80
:101C5600FFFFFFFFFFFFFFFF1010FFFFFFFFFFFF6C
:101C6600FFFFFFFFFFFFFFFFFFFFFFFFFFFFFF0479
:101C76000404FFFFFFFFFFFFFF0404FFFFFFFF0455
:101C8600040404FFFFFFFFFFFF040404FFFFFF043B
:101C960004040404FFFFFFFFFF04040404FFFF0421
:101CA60004040404FFFFFFFFFF04FFFFFFFFFF0420
:101CB6000404040404FFFFFFFF04FFFFFFFFFF040B
:101CC6000404FFFF0404FFFFFF04FFFFFFFFFF0400
:101CD6000404FFFF0404FFFFFF04040404FFFF04E1
:101CE6000404FFFFFF0404FFFF04040404FFFF04D1
:101CF6000404FFFFFF0404FFFF04040404FFFF04C1
:101D06000404FFFFFFFF04040404040404FFFF04AB
:101D16000404FFFFFFFFFF040404040404FFFF04A0
:101D26000404FFFFFFFFFF04040404FFFFFFFF049A
:101D36000404FFFFFFFFFFFF0404FFFFFFFFFF0494
:101D46000404FFFFFFFFFFFF0404FFFFFFFFFFFF89
:101D5600FFFFFFFFFFFFFFFFFFFF1010FFFFFFFF6B
:101D6600FFFFFFFFFFFFFFFFFFFFFFFF0404FFFF73
:101D7600FFFFFFFFFF04040404FFFFFF0404FFFF4F
:101D8600FFFFFFFF0404040404FFFFFF0404FFFF3A
:101D9600FFFFFFFF040404040404FFFF0404FFFF25
:101DA600FFFFFFFF0404FF040404FFFF0404FFFF1A
:101DB600FFFFFF040404FFFF0404FFFF0404FFFF0A
:101DC600FFFFFF0404FFFFFF040404FF0404FFFFFA
:101DD600FFFF040404FFFFFFFF0404FF0404FFFFEA
:101DE600FFFF040404FFFFFFFF0404040404FFFFD5
:101DF600FF04040404040404040404040404FFFFAC
:101E0600FF04040404040404040404040404FFFF9B
:101E1600FF04040404040404040404040404FFFF8B
:101E2600040404FFFFFFFFFFFFFFFF040404FFFF9E
:101E36000404FFFFFFFFFFFFFFFFFF040404FF048E
:101E46000404FFFFFFFFFFFFFFFFFFFFFFFFFFFF92
:101E5600FFFFFFFFFFFFFFFFFFFFFFFF1010FFFF6A
:101E6600FFFFFFFFFFFFFFFFFFFFFFFFFFFFFFFF7C
:101E7600FFFFFF040404FFFFFFFFFFFFFFFFFFFF5D
:101E8600FFFFFF040404FFFFFFFFFFFFFFFFFFFF4D
:101E9600FFFFFF040404FFFFFFFFFFFFFFFFFFFF3D
:101EA600FFFFFF040404FFFFFFFFFFFFFFFFFFFF2D
:101EB600FFFFFF040404FFFFFFFFFFFFFFFFFFFF1D
:101EC600FFFFFF040404FFFFFFFFFFFFFFFFFFFF0D
:101ED600FFFFFF040404FFFFFFFFFFFFFFFFFFFFFD
:101EE600FFFFFF040404FFFFFFFFFFFFFFFFFFFFED
:101EF600FFFFFF040404FFFFFFFFFFFFFFFF04FFD8
:101F0600FFFFFF040404FFFFFFFFFFFFFFFF04FFC7
:101F1600FFFFFF040404FFFFFFFFFFFFFFFF04FFB7
:101F2600FFFFFF04040404040404040404FF04047F
:101F3600FFFFFF04040404040404040404FF04046F
:101F4600FFFFFF04040404040404040404FFFFFF69
:101F5600FFFFFFFFFFFFFFFFFFFFFFFFFFFF101069
:101F6600FFFFFFFFFFFFFFFFFFFFFFFFFFFFFFFF7B
:101F7600FFFFFFFFFFFFFFFFFFFFFFFFFFFFFFFF6B
:101F8600FFFFFFFFFFFFFFFFFFFFFFFFFFFFFFFF5B
:101F9600FFFFFFFFFFFFFFFFFFFFFFFFFFFFFFFF4B
:101FA600FFFFFFFFFFFFFFFFFFFFFFFFFFFFFFFF3B
:101FB600FFFFFFFFFFFFFFFFFFFFFFFFFFFFFFFF2B
:101FC600FFFFFFFFFFFFFFFFFFFFFFFFFFFFFFFF1B
:101FD600FFFFFFFFFFFFFFFFFFFFFFFFFFFFFFFF0B
:101FE6001010FFFFFFFFFFFFFFFFFFFFFFFFFFFFD9
:101FF600FFFFFFFFFFFFFFFFFFFFFFFFFFFFFFFFEB
:10200600FFFFFFFFFFFFFFFFFFFFFFFFFFFFFFFFDA
:10201600FFFFFFFFFFFFFFFFFFFFFFFFFFFFFFFFCA
:10202600FFFFFFFFFFFFFFFFFFFFFFFFFFFFFFFFBA
:10203600FFFFFFFFFFFFFFFFFFFFFFFFFFFFFFFFAA
:10204600FFFFFFFFFFFFFFFFFFFFFFFFFFFFFFFF9A
:10205600FFFFFFFFFFFFFFFFFFFFFFFFFFFFFFFF8A
:10206600FFFF1010FFFFFFFFFFFFFFFFFFFFFFFF58
:10207600FFFFFFFFFFFFFFFFFFFFFFFFFFFFFFFF6A
:10208600FFFFFFFFFFFFFFFFFFFFFFFFFFFFFFFF5A
:10209600FFFFFFFFFFFFFFFFFFFFFFFFFFFFFFFF4A
:1020A600FFFFFFFFFFFFFFFFFFFFFFFFFFFFFFFF3A
:1020B600FFFFFFFFFFFFFFFFFFFFFFFFFFFFFFFF2A
:1020C600FFFFFFFFFFFFFFFFFFFFFFFFFFFFFFFF1A
:1020D600FFFFFFFFFFFFFFFFFFFFFFFFFFFFFFFF0A
:1020E600FFFFFFFF1010FFFFFFFFFFFFFFFFFFFFD8
:1020F600FFFFFFFFFFFFFFFFFFFFFFFFFFFFFFFFEA
:10210600FFFFFFFFFFFFFFFFFFFFFFFFFFFFFFFFD9
:10211600FFFFFFFFFFFFFFFFFFFFFFFFFFFFFFFFC9
:10212600FFFFFFFFFFFFFFFFFFFFFFFFFFFFFFFFB9
:10213600FFFFFFFFFFFFFFFFFFFFFFFFFFFFFFFFA9
:10214600FFFFFFFFFFFFFFFFFFFFFFFFFFFFFFFF99
:10215600FFFFFFFFFFFFFFFFFFFFFFFFFFFFFFFF89
:10216600FFFFFFFFFFFF1010FFFFFFFFFFFFFFFF57
:10217600FFFFFFFFFFFFFFFFFFFFFFFFFFFFFFFF69
:10218600FFFFFFFFFFFFFFFFFFFFFFFFFFFFFFFF59
:10219600FFFFFFFFFFFFFFFFFFFFFFFFFFFFFFFF49
:1021A600FFFFFFFFFFFFFFFFFFFFFFFFFFFFFFFF39
:1021B600FFFFFFFFFFFFFFFFFFFFFFFFFFFFFFFF29
:1021C600FFFFFFFFFFFFFFFFFFFFFFFFFFFFFFFF19
:1021D600FFFFFFFFFFFFFFFFFFFFFFFFFFFFFFFF09
:1021E600FFFFFFFFFFFFFFFF1010FFFFFF0000FFD5
:1021F600FFFFFFFFF000000FFFFFFFFF002222009E
:10220600FFFFFFFF00222200FFFFFFF00220022057
:102216000FFFFFF0022002200FFFFF002200002226
:1022260000FFFF00220FF02200FFF002200FF00255
:10223600200FF00220000002200F0022222222227C
:102246002200002222222222220000220000000078
:102256002200002200FFFF002200002200FFFF00F4
:102266002200000000FFFF00000010100000000028
:10227600000000FF022222222222000F0222222236
:10228600222220000002200000222200F00220FF6D
:10229600F0022200F00220FFF0022200F0022000ED
:1022A6000022200FF0022222222200FFF002222228
:1022B600222200FFF00220000022200FF00220FF61
:1022C600F0022200F00220FFF002220000022000AD
:1022D6000022220002222222222220000222222280
:1022E6002222000F00000000000000FF1010101056
:1022F60010101010101010101010101010101010D8
:022306001010B5
:1084890078B6E2FB08E2FA08E2F9124445FF789867
:10849900E22F78D7F222F278B6E2FB0808E2F92453
:1084A90001F218E2FA3400F202442C78B6E2FB0831
:1084B900E2FA08E2F922E22401F218E23400F22297
:058B0E00E47898F2225A
:058B13007898EFF2224A
:0A67DC0078AEEFF208ECF208EDF2DF
:1067E60078AEE2FF25E0F2E22408F278B5F278AF5F
:1067F600E2FE08E27803C333CE33CED8F979B0F39C
:10680600EE19F378B0E224081284C2AF037E007C4E
:10681600017D0212448474262FF974003EFA78B67C
:1068260074FFF208EAF208E912849F78B112849F95
:1068360078B2F2E408F278B1E2FF78B3E2C39F409F
:10684600030268FEE408F278B2E2FF78B4E2C39F7E
:1068560040030268EB1284B412442C128496E4FBC3
:106866007D02FF12878D9000011284897B011269D7
:10687600269000021284897B021269261284B49043
:1068860000031284937B0312692E78D77480F27BFF
:106896000412692E78B8E224041284C278B5E2782C
:1068A600D7F27B0512694108E278D7F27B071269B5
:1068B60041E27E007802C333CE33CED8F91268FFA8
:1068C60012693620E7FA78AFE225E025E04408129F
:1068D60068FF12693620E7FA78B5E204F218E22476
:1068E60004F202684D78AEE278B5F278B01284BF51
:0868F60078B3E204F202683CF1
:1068FE002278D7F27B097D02E4FF12878D7B0A7D19
:10690E0002E4FF12865DEF543F448078D7F27B0A93
:10691E007D02E4FF12878D227D02E4FF12878D2215
:10692E007D02E4FF12878D227B0A7D02E4FF128630
:0D693E005DEF227D02E4FF12878D78AF220D
:0A7DED0078A7EFF208EDF208EBF2C0
:107DF700081284B612000E78ADEFF2C36480948047
:107E0700404278A7E230E02F78A8E2FF08E2FD7C45
:107E170000081284B612442CFB1267DC78ADE2141A
:107E2700F2181284BF78A8E22402F278ADE2D36494
:107E370080948050D3800A78ADE2D36480948050D8
:047E4700F6128B1E86
:017E4B002214
:1087BA000500000600000700000800000900000A82
:1087CA00000012000020000B000C000D000E001328
:0C87DA001415161718191A1B1C1D1E0080
:038AF7000121005A
:107800007856E275F003A424BAF9748735F0FA7853
:10781000AA74FFF2082278A4900001E2FB08E2FAC1
:1078200008E2F902444578A4E2FB08E2FA08E2F92A
:10783000227856E2FF74017E00A8070822FF7863D1
:10784000E2FDEF5D227487F20874D9F2227487F2A8
:107850000874C6F2227487F20874D7F222900002EC
:10786000024445EAF208E9F2E4FB2212442C540CEB
:107870001313543FF52722EAF208E9F27B12227B28
:10788000017D127C00227D197B057C007F3422EB78
:10789000F208EAF208E9F2229000030244457B0173
:1078A0007D0F7C0022EAF208E9F27B0F227B01E4E3
:1078B000FDFC7F1C227B01E4FDFC7F41227BFE7AE4
:0478C00000795B22CE
:10819200126FD0128B0E7F04128B187F03128B1B6F
:1081A200E4F527AF271281C70527E527C3940640C8
:1081B200F27F011286287FFF128B1B7F081281C774
:0481C200E47853F218
:1081C6002212891C78A8E4F2087426F27B5AE4FD90
:0681D600FCFF1279652296
:104C320078A412788F7F02128B187FFF128B1B7859
:104C420055E212458E4C75114C86214CAE224CCB4E
:104C5200314CFE334D30344D68414DB6914DCCA1AF
:104C62004DFAA24E21B14E65B34EA2B44EE3C1003D
:104C7200004F4478A412782812442C20E103024FFA
:104C820044024DC478A412782812442C30E109124F
:104C92007800127863124F9012781620E103024FC7
:104CA2004478571278021278A5024DF578A412784A
:104CB2002812442C30E106127800124F4512781661
:104CC20020E103024F44024E1478A41278281244C1
:104CD2002C30E109127800127863124F9012781684
:104CE20030E1087857127802124F8178A4900002BE
:104CF20012781B20E103024F44024D2B78A4127854
:104D02002812442C30E106127800124F4512781610
:104D120030E1087857127802124F7278A41278287C
:104D220012785D20E103024F447858024DAD78A419
:104D320012782812442C30E106127800124F5412D5
:104D4200781630E1087857127802124F7278A4125E
:104D5200782812785D20E103024F447858127802D5
:104D62001278A5024EDE78A412782812442C30E183
:104D720006127800124F5412781630E10B7857124F
:104D82007802127863124F9878A412782812785D0C
:104D920030E1087858127802124F8178A4127828EC
:104DA20012789820E103024F44785912780212785F
:104DB200A5024E1C78A412782812442C20E103028A
:104DC2004F44127800127863802978A4127828124E
:104DD200442C30E10D1278001278637D297F011294
:104DE2007DED12781620E103024F447857127802C3
:104DF2001278777D29024F3F78A412782812442C2A
:104E020030E106127800124F6312781620E1030295
:104E12004F4478571278021278637D3E024F3F78F2
:104E2200A412782812442C30E10D12780012786313
:104E32007D297F01127DED12781630E10B78571231
:104E42007802127877124FA078A412782812785D2F
:104E520020E103024F4478581278021278777D3E9F
:104E6200024F3F78A412782812442C30E1061278BF
:104E720000124F6312781630E10B78571278021243
:104E82007863124F9878A412782812785D20E10393
:104E9200024F4478581278021278777D3E024F3FD3
:104EA20078A412782812442C30E109127800127882
:104EB20063124FA012781630E10F7857127802125F
:104EC20078637D3E7F01127DED78A41278281278F6
:104ED2005D30E16E78581278021278777D14024FB5
:104EE2003F78A412782812442C30E10D1278001277
:104EF20078637D147F01127DED12781630E10F7810
:104F0200571278021278637D3E7F01127DED78A4FC
:104F120012782812785D30E10F78581278021278F0
:104F2200777D147F01127DED78A41278281278988B
:104F320030E10F78591278021278777D3E7F0112A4
:104F42007DED22EAF208E9F2E4FB7D147F01127D95
:104F5200ED22EAF208E9F2E4FB7D147F01127DED15
:104F620022EAF208E9F2E4FB7D147F01127DED22D0
:104F7200EAF208E9F2E4FB7D3E7F01127DED22EACE
:104F8200F208E9F27B0F7D147F01127DED227D296B
:104F92007F01127DED227D3E7F01127DED227D1487
:064FA2007F01127DED22EB
:078AFB007854E24480F222EE
:1082F9007B787D01E4FF12865DEF540FFF7863F20E
:108309007854E26F602E7B31E4FDFF12865DEF54F5
:108319007F78D7F27B31E4FDFF12878DD2217F4D23
:10832900128B187F40128B131231A8128B0E7863AF
:05833900E27854F2227D
:056C0A0078A412788F50
:106C0F007F41128B187855E212458E6C42116C52EF
:106C1F00216C81226CB3316CD5336CF1346C4291A1
:106C2F006C52A16C81A26CB3B16CD5B36CF1B40092
:106C3F00006D2A78A412782812786B6003026CBD5D
:106C4F00026CCB78A412782812786B6012126D2B1D
:106C5F0012780E1278637D1C7F01127DED80061273
:106C6F0078AD1278C478A412781812786E60320258
:106C7F006CFB78A412782812786B6012126D2B12AD
:106C8F00780E1278637D1C7F01127DED80061278DD
:106C9F00AD1278C478A412781812786E6003026C63
:106CAF00FB026D2078A412782812786B600E126D9B
:106CBF004412780E1278637D31026D1B7B01E4FD67
:106CCF00FC7F31026D2778A412782812786B600D43
:106CDF00126D4412780E1278637D1C802F1278ADDE
:106CEF00803678A412781812786E60257B02E4FD46
:106CFF00FCFF1278C4E52725E0FFE433FE74CF2FA5
:106D0F00F974873E12780E1278637D467F01027DFB
:0B6D1F00ED7B01E4FDFC7F461278C410
:106D2A00227B02E4FDFCFF1278C4E52725E0FFE49C
:106D3A0033FE74CF2FF974873E227B02E4FDFCFFF9
:106D4A001278C4E52725E0FFE433FE74CF2FF974E7
:036D5A00873E224F
:103B750078A412788F7F0C128B187855E212458E37
:103B85003BB3113BC2213BE7223C09313C4A333C64
:103B950083343CC8413D29913D43A13D77A23DA9D0
:103BA500B13DFCB33E47B43E98C100003F041278D6
:103BB5002612442C30E003023D32023D3C127826A9
:103BC50012442C30E00B12780F12784D123F87808B
:103BD50003123F5C78A412781830E003023D6202BC
:103BE5003D6F12782612442C30E00812780F123FF0
:103BF500058003123F2778A412781830E003023DB0
:103C050096023DA312782612442C30E00B12780F51
:103C150012784D123F878003123F5C78A412781802
:103C250030E00B12780F12784D123FB180081278F0
:103C35009E7F171278C412782612785D30E0030251
:103C45003D17023D2212782612442C30E0081278E6
:103C55000F123F058003123F2778A412781830E031
:103C65000B12780F12784D123F728003123F3212F9
:103C7500782612785D30E003023D17023D22127866
:103C85002612442C30E00812780F123F16800312DA
:103C95003F3D78A412781830E00B12780F12784D5A
:103CA500123F728003123F3212782612785D30E09F
:103CB5000B12780F12784D7B0F023E887B017D0F2A
:103CC500023E9112782612442C30E00812780F1229
:103CD5003F168003123F3D78A412781830E00B128E
:103CE500780F12784D123F9C8003123F6712782699
:103CF50012785D30E00B12780F12784D123FB180CB
:103D05000812789E7F171278C41278261278983098
:103D1500E00B12780F12784D7B0F023D9E7B017DE3
:103D25000F023DF512782612442C30E00A12780F66
:103D350012784DE4FB802E7B01E4FDFC802F127888
:103D45002612442C30E00B12780F12784D123FBB2F
:103D55008003123F9178A412781830E00D12780F85
:103D650012784D7B0F7D2C023EF712789E7F2C0238
:103D75003F0112782612442C30E00B12780F12788E
:103D85004D123F488003123F7C78A412781830E02A
:103D95000D12780F12784DE4FB7D41023EF7127843
:103DA500B5023F0112782612442C30E00B12780F31
:103DB50012784D123FBB8003123F9178A4127818F8
:103DC50030E00B12780F12784D123FC5800812783B
:103DD5007F7F171278C412782612785D30E00D12B5
:103DE500780F12784D7B127D41023EF77B017D12E3
:103DF5007C007F41023F0112782612442C30E00BF3
:103E050012780F12784D123F488003123F7C78A438
:103E150012781830E00B12780F12784D123F9C8003
:103E250003123F6712782612785D30E00D12780F85
:103E350012784D7B127D41023EF712787F7F410259
:103E45003F0112782612442C30E00B12780F1278BD
:103E55004D123F528003123FA678A412781830E025
:103E65000B12780F12784D123FCF80061278B512DB
:103E750078C412782612785D30E00D12780F12782A
:103E85004D7B127D17023EF77B017D127C007F176B
:103E9500023F0112782612442C30E00B12780F12E3
:103EA500784D123F528003123FA678A4127818303D
:103EB500E00B12780F12784D123FCF80061278B5BD
:103EC5001278C412782612785D30E00B12780F1242
:103ED500784D123FC5800812787F7F171278C4127B
:103EE500782612789830E00F12780F12784D7B12F1
:103EF5007D417F01027DED12787F7F411278C422DA
:103F05007487F20874C6F2E4FB7D177F01127DED1C
:103F1500227487F20874C6F2E4FB7D177F01127DD7
:103F2500ED227B01E4FDFC7F171278C4227B01E4BE
:103F3500FDFC7F411278C4227B01E4FDFC7F171252
:103F450078C422E4FB7D177F01127DED22E4FB7D21
:103F5500177F01127DED227B01E4FDFC7F2C127899
:103F6500C4227B01E4FDFC7F411278C422E4FB7D81
:103F7500417F01127DED227B01E4FDFC7F17127864
:103F8500C422E4FB7D2C7F01127DED227B01E4FD43
:103F9500FC7F2C1278C422E4FB7D417F01127DED6C
:103FA500227B01E4FDFC7F171278C4227B0F7D176D
:103FB5007F01127DED22E4FB7D2C7F01127DED2238
:103FC5007B127D177F01127DED22E4FB7D417F0190
:043FD500127DED224A
:10370D0078A412788F7F02128B187855E212458EAD
:10371D0037481137592137862237AA3137EF3338D9
:10372D002C3438754138DC9138FEA23936B1399ACE
:10373D00B339E9B43A3BC100003AAA78A41278280B
:10374D0012442C30E4030238E70238F478A41278DE
:10375D002812442C30E40B12780F127855123B428C
:10376D008003123B2278A412782812442C30E403F3
:10377D000238E712789E0238F978A412782812449C
:10378D002C30E40812780F123AAB8003123ACD7840
:10379D00A412781830E40302391F02392C78A412D0
:1037AD00782812442C30E40B12780F127855123B06
:1037BD00428003123B2278A412781830E40B127861
:1037CD000F127855123B4C800812789E7F1F12788D
:1037DD00C478A412782812785D30E4030238CA0246
:1037ED0038D578A412782812442C30E40812780FBA
:1037FD00123AAB8003123ACD78A412781830E40B4C
:10380D0012780F127855123B188003123AD878A40B
:10381D0012782812785D30E4030238CA0238D57860
:10382D00A412782812442C30E40812780F123ABCF6
:10383D008003123AE378A412781830E40B12780F53
:10384D00127855123B188003123AD878A4127828B2
:10385D0012785D30E40B12780F1278557B0F023A17
:10386D002B7B017D0F023A3478A412782812442C58
:10387D0030E40812780F123ABC8003123AE378A4B0
:10388D0012781830E40B12780F127855123B2D80F8
:10389D0003123B0278A412782812785D30E40B12E3
:1038AD00780F127855123B4C800812789E7F1F12AC
:1038BD0078C478A412782812789830E40B12780F17
:1038CD001278557B0F0239277B017D0F02399378D2
:1038DD00A412782812442C30E40D12780F1278556A
:1038ED00E4FB7D34023A9D7B01E4FDFC7F34023A1A
:1038FD00A778A412782812442C30E40B12780F12FA
:10390D007855123AEE8003123B0D78A412781830D8
:10391D00E40D12780F127855E4FB7D49023A9D7B38
:10392D0001E4FDFC7F49023AA778A41278281244DD
:10393D002C30E41112780F127855E4FB7D347F01A1
:10394D00127DED800A7B01E4FDFC7F341278C47892
:10395D00A412781830E40B12780F127855123B6BC5
:10396D00800812787F7F1F1278C478A412782812ED
:10397D00785D30E40D12780F1278557B127D490277
:10398D003A9D7B017D127C007F49023AA778A412F3
:10399D00782812442C30E40B12780F127855123A15
:1039AD00EE8003123B0D78A412781830E40B1278D8
:1039BD000F127855123B2D8003123B0278A412781A
:1039CD002812785D30E40D12780F1278557B127D38
:1039DD0049023A9D12787F7F49023AA778A412785E
:1039ED002812442C30E40B12780F127855123AF845
:1039FD008003123B3778A412781830E40B12780F3D
:103A0D00127855123B618003123B5678A412782828
:103A1D0012785D30E40D12780F1278557B127D1FF0
:103A2D00023A9D7B017D127C007F1F023AA778A48C
:103A3D0012782812442C30E40B12780F127855129C
:103A4D003AF88003123B3778A412781830E40B1241
:103A5D00780F127855123B618003123B5678A412F1
:103A6D00782812785D30E40B12780F127855123BDE
:103A7D006B800812787F7F1F1278C478A412782883
:103A8D0012789830E40F12780F1278557B127D4919
:103A9D007F01027DED12787F7F491278C4227487F1
:103AAD00F20874D7F2E4FB7D1F7F01127DED2274C5
:103ABD0087F20874D7F2E4FB7D1F7F01127DED22A2
:103ACD007B01E4FDFC7F1F1278C4227B01E4FDFC29
:103ADD007F491278C4227B01E4FDFC7F1F1278C45C
:103AED0022E4FB7D1F7F01127DED22E4FB7D1F7F14
:103AFD0001127DED227B01E4FDFC7F491278C42289
:103B0D007B01E4FDFC7F1F1278C422E4FB7D497F1D
:103B1D0001127DED227B01E4FDFC7F341278C4227D
:103B2D00E4FB7D497F01127DED227B01E4FDFC7FED
:103B3D001F1278C422E4FB7D347F01127DED227BC0
:103B4D000F7D1F7F01127DED227B01E4FDFC7F497E
:103B5D001278C422E4FB7D497F01127DED227B1298
:083B6D007D1F7F01127DED2296
:1031A8007855E212458E31D61131F922323D31324D
:1031B800AC33331134337D413409913432A2347E37
:1031C800B134ECB33554B435CDC10000365612785D
:1031D800318005C333CE33CED8F912783D600B1257
:1031E800780F1278457B0D0234227B057D0D023461
:1031F8002B1278318005C333CE33CED8F912783DFF
:10320800600B12780F1278451236B3800312366FAE
:1032180078571278338005C333CE33CED8F9127875
:103228003D600B12780F1278457B0D02346E7B05DA
:103238007D0D0234771278318005C333CE33CED872
:10324800F912783D601112780F1278457B077D1FBF
:103258007F01127DED80057D071236F978571278C7
:10326800338005C333CE33CED8F912783D600D12C2
:10327800780F1278457B151236D380031236BD7845
:10328800581278338005C333CE33CED8F912783D3F
:10329800600B12780F1278457B1502346E7B057D22
:1032A800150234771278318005C333CE33CED8F97E
:1032B80012783D600B12780F1278451236B38003EE
:1032C80012366F78571278338005C333CE33CED891
:1032D800F912783D600B12780F1278451236C980C2
:1032E8000312367B78581278338005C333CE33CE39
:1032F800D8F912783D600B12780F1278457B1502C9
:10330800346E7B057D150234771278318005C3331E
:10331800CE33CED8F912783D600B12780F1278456B
:10332800123687800312365778571278338005C3D0
:1033380033CE33CED8F912783D600D12780F12785B
:10334800457D341236F180087D0D1278881278C4D4
:1033580078581278338005C333CE33CED8F9127833
:103368003D600B12780F1278457B150235BD7B0541
:103378007D150235C61278318005C333CE33CED8D9
:10338800F912783D600B12780F1278451236878053
:103398000312365778571278338005C333CE33CEAD
:1033A800D8F912783D600B12780F1278451236C999
:1033B800800312367B78581278338005C333CE33B6
:1033C800CED8F912783D601112780F1278457B1526
:1033D8007D0A7F01127DED80031236BD785912787F
:1033E800338005C333CE33CED8F912783D600B1243
:1033F800780F1278457B1502346E7B057D150234F3
:10340800771278318005C333CE33CED8F912783DA0
:10341800600D12780F1278457B107D1F02364B7BAA
:10342800057D107C007F1F0236531278318005C35A
:1034380033CE33CED8F912783D600D12780F12785A
:10344800457B101236D380031236917857127833A1
:103458008005C333CE33CED8F912783D600D12788B
:103468000F1278457B107D3402364B7B057D107C2E
:10347800007F340236531278318005C333CE33CE01
:10348800D8F912783D601112780F1278457B087DC3
:103498001F7F01127DED80057D081236F9785712DD
:1034A80078338005C333CE33CED8F912783D600B1C
:1034B80012780F12784512370380031236DB7858DA
:1034C8001278338005C333CE33CED8F912783D60F5
:1034D8000D12780F1278457B197D3402364B12781D
:1034E800860236531278318005C333CE33CED8F9ED
:1034F80012783D600D12780F1278457D0A1236F168
:10350800800312369178571278338005C333CE334F
:10351800CED8F912783D600B12780F127845123622
:10352800E780031236A778581278338005C333CE64
:1035380033CED8F912783D600D12780F1278457B9A
:10354800197D3402364B1278860236531278318050
:1035580005C333CE33CED8F912783D600B12780FFD
:1035680012784512369D80031236637857127833E5
:103578008005C333CE33CED8F912783D6011127866
:103588000F1278457B107D347F01127DED800B7B17
:10359800057D107C007F341278C478581278338007
:1035A80005C333CE33CED8F912783D600D12780FAB
:1035B8001278457B197D0A02364B7B057D197C0004
:1035C8007F0A0236531278318005C333CE33CED802
:1035D800F912783D600B12780F12784512369D80EB
:1035E8000312366378571278338005C333CE33CE4F
:1035F800D8F912783D600B12780F1278451236E729
:1036080080031236A778581278338005C333CE3337
:10361800CED8F912783D600B12780F127845123720
:103628000380031236DB78591278338005C333CE12
:1036380033CED8F912783D600F12780F1278457B97
:10364800197D347F01027DED1278861278C4227BC1
:10365800057D077C007F0A1278C4227B057D087CE3
:10366800007F0A1278C4227B057D0D7C007F0A1238
:1036780078C4227B057D077C007F341278C4227BC6
:10368800077D0A7F01127DED227B057D107C007F7E
:103698000A1278C4227B087D0A7F01127DED227B05
:1036A800057D087C007F341278C4227B0D7D0A7F5B
:1036B80001127DED227B057D157C007F0A1278C4FE
:1036C800227B077D347F01127DED227D0A7F011266
:1036D8007DED227B057D197C007F0A1278C4227B50
:1036E800087D347F01127DED227B0D7F01127DED77
:1036F800227B057C007F1F1278C4227B197D0A7FFC
:0537080001127DED221D
:10833E00E4FF12891C7853E224FE601104702912A6
:10834E00837712780F7487F20874C9800C128377C2
:10835E0012780F7487F20874CCF2E4FB7D017F0172
:10836E00127DED7FFF128B1B227F03128B1B7F046E
:04837E00128B182224
:1088D900E4FF12891C785BE230E1121278BD123B89
:1088E900751278BD12370D1278BD126C0A128AFB07
:0588F900E4FF028628E7
:1023080000000000000000000000000000000000C5
:1023180000000000000000000000000000000000B5
:10232800003E007E00FE01CE038E7F8E7F8E738E70
:10233800738E738E7F8E7F8E01CE00FE007E003EF0
:1023480000000000020006000E001E003FFE7FFE97
:102358007FFE3FFE1E000E00060002000000000087
:102368000000000000400060007000787FFC7FFEE5
:102378007FFE7FFC007800700060004000000000D5
:10238800000003C003C003C003C003C003C003C0F0
:1023980003C03FFC1FF80FF007E003C001800000F6
:1023A80003C003C007E007E00E700E701C381C382D
:1023B800381C381C7FFE7FFE700E700E700E700E7B
:1023C8007FF87FFC383E381E381E381E383C3FF8F0
:1023D8003FF8383C381E381E381E383E7FFC7FF8E0
:1023E8000FF81FFC3C1C380E780E700E7000700041
:1023F80070007000700E700E380E3C1C1FFC0FF839
:102408007FF07FF07078703C703C703C70787FF0A3
:102418007FE0778073C071E070F07078703C701E58
:1024280000006006700E781E7C3E7FFE77EE73CE4D
:10243800718E700E700E700E700E700E700E700E23
:1024480000001FF81FF800E000E000E000E000E0F6
:1024580000E000E000E070E079E03FC01F800F007E
:1024680000000000000003C007800F001E003FFCB2
:102478003FFC1E000F00078003C0000000000000A2
:1024880000000000000003C001E000F000783FFCFD
:102498003FFC007800F001E003C0000000000000ED
:1024A80000000000018001800180018011881998D6
:1024B8001DB81FF80FF007E003C0018000000000FE
:1024C800003E007E00FE01CE038E7F8E7F8E738ECF
:1024D800738E738E7F8E7F8E01CE00FE007E003E4F
:1024E800700E700E700E700E700E700E781E381C06
:1024F800381C1C381C380E700FF007E003C0018030
:10250800000038003800380038003800380038003B
:1025180038003800380038063806380E3FFE3FFECF
:102528000000000000000000000003800FE01C70A5
:10253800183038383838383818301C700FE00380B5
:102548000000000000000000000003C00FF01C386D
:102558001C000F0007E000F000381C380FF003C023
:102568000000000000000000000000000000000063
:102578000000000000000000000000000000000053
:102588000000000000000000000000000000000043
:102598000000000000000000000000000000000033
:1025A8000000000000000000000000000000000023
:1025B8000000000000000000000000000000000013
:1025C8000000000000000000000000000000000003
:1025D80000000000000000000000000000000000F3
:1025E80000000000000000000000000000000000E3
:1025F80000000000000000000000000000000000D3
:1026080000000000000000000000000000000000C2
:1026180000000000000000000000000000000000B2
:1026280000000000000000000000000000000000A2
:102638000000000000000000000000000000000092
:102648000000000000000000000000000000000082
:102658000000000000000000000000000000000072
:102668000000000000000000000000000000000062
:102678000000000000000000000000000000000052
:102688000000000000000000000000000000000042
:102698000000000000000000000000000000000032
:1026A8000000000000000000000000000000000022
:1026B8000000000000000000000000000000000012
:1026C8000000000000000000000000000000000002
:1026D80000000000000000000000000000000000F2
:1026E80000000000000000000000000000000000E2
:1026F80000000000000000000000000000000000D2
:1027080000000000000000000000000000000000C1
:1027180000000000000000000000000000000000B1
:10272800000007000F800F800F800F800700070050
:102738000700020002000000020007000700020074
:102748000000EE0066004400880000000000000061
:102758000000000000000000000000000000000071
:10276800000008200820082008203FF8082008203A
:102778000820082008203FF8082008200820082002
:1027880000000FC01B603330333033001B000F00D4
:1027980003C0036013303B3033301B600FC00300AD
:1027A8000000380844108420044004800900127096
:1027B800E4880908120822084210822001C000009B
:1027C80000000E001B00318031801B000E001C0031
:1027D8003678632061A060E0606030F01F9C0000E4
:1027E80000000000000000000000000000000000E1
:1027F8000000000000008000600070003800180031
:1028080000000004000800180010003000300030FC
:1028180000300030003000100018000800040002EA
:1028280000008000400060002000300030003000D0
:1028380030003000300020006000400080000000C0
:10284800000002004210222012400A800700FFFC0C
:1028580007000A80124022204210020002000000F5
:1028680000000000030003000300030003007FF8DA
:102878007FF80300030003000300030000000000CA
:102888000000000000000000000000000000000040
:10289800000018003C003C00180010002000400018
:1028A80000000000000000000000000000007FF8A9
:1028B8007FF8000000000000000000000000000099
:1028C8000000000000000000000000000000000000
:1028D8000000000000007800840084008400780074
:1028E800000000180030006000C0018003000600EE
:1028F8000C00180030006000C000800000000000DC
:1029080000000FE0183030183038307830D831985F
:10291800331836183C183818301818300FE00000F3
:102928000000030007000F0003000300030003007A
:102938000300030003000300030003001FE000007E
:1029480000000FE01830301830183038007001C01F
:1029580003000E001800300830083FF83FF8000068
:10296800000007C0183030183018003000E003C0ED
:1029780000E00030001830183018183007C0000088
:10298800000000C001C003C006C00CC018C030C0A1
:1029980060C0C0C0C0C0FFF800C000C003F00000A5
:1029A80000003FF03FF030003000300037C03830D2
:1029B80030180018001830183018183007C00000F8
:1029C800000007E01830303030003000300037E0C9
:1029D8003830301830183018301818300FC0000050
:1029E80000003FF83FF8201820180030006000C0B1
:1029F800018003000300030003000300030000003C
:102A080000000780186030303030303018600FC058
:102A18001860303060186018601830300FC000003F
:102A280000000780186030303018301830183038FF
:102A38001878079800183030383018600780000080
:102A480000000000000000000300078003000000F1
:102A580000000300078003000000000000000000E1
:102A680000000000000000000300078003000000D1
:102A780000000300078003800180070000000000B9
:102A880000000000001800600180060018006000C7
:102A98008000600018000600018000600018000037
:102AA800000000000000000000007FF87FF8000030
:102AB80000007FF87FF80000000000000000000020
:102AC8000000800060001800060001800060001807
:102AD80000040018006001800600180060008000F3
:102AE800000007800FC01CE038E038E011C001800A
:102AF80003000300020002000000020007000700B4
:102B080000000FC030604010478888C890C890C83F
:102B180090C890C888D84770400830700FC000002F
:102B2800000003000300078007800CC00CC0186079
:102B380018601FE03030303060186018F03C00003A
:102B480000003F80186018301830183018601FC017
:102B58001860183018181818181818303FC00000D6
:102B68000000078818683038601860086000600046
:102B7800600060006008601830301860078000004E
:102B880000007F8030E030383018301830183018A6
:102B98003018301830183018303030E07F8000009E
:102BA80000003FF0183018101800188018801F8097
:102BB8001880188018001800181018303FF000000E
:102BC80000003FF0183018101800188018801F8077
:102BD8001880188018001800180018003C00000021
:102BE80000000F90187030306010601060006000B6
:102BF8006078603060306030307018F00FB00000DE
:102C080000007878303030303030303030303FF0BD
:102C1800303030303030303030303030787800007C
:102C280000000FC0030003000300030003000300BB
:102C38000300030003000300030003000FC00000AB
