:030000000288066D
:0C880600787FE4F6D8FD75813502884DBE
:10983E00D2BCD2AC758DF4D28EE47850F208F222FE
:0F984E007850E2FF08E2B507037F00227F012276
:10977A00C2AC7850E22400F8E2FF7850E204F2E248
:09978A00C394504002E4F2D2AC99
:0197930022B3
:080003003099FD8F99C299228A
:0300230002956FD4
:10956F00C0E0C0D075D008309818C2987851E22466
:10957F0000F8E599F27851E204F2E2C39450400208
:07958F00E4F2D0D0D0E0327D
:10934800C2AF7590F6ED7006C2B7C2B68012EDB422
:109358000106C2B7D2B68008EDB40204D2B7C2B6CD
:10936800AF038F80D293C29378DDE2F580C291D2A9
:0E937800917590F6D2B6D2B77580FFD2AF22B3
:108CAB00AE03C2AF7590F6ED7006C2B7C2B68012B6
:108CBB00EDB40106C2B7D2B68008EDB40204D2B748
:108CCB00C2B6AF060E8F80D293C29378AFE2FB0889
:108CDB0008E2F92401F218E2FA3400F2124DDBF546
:108CEB0080C291D29178B2E214F270D67590F6D21E
:098CFB00B6D2B77580FFD2AF229A
:10938600C2AF7590F6ED7006C2B7C2B68012EDB4E4
:109396000106C2B7D2B68008EDB40204D2B7C2B68F
:1093A600AF038F80D293C2937580FFC292AF80D2F3
:0A93B600927590F6D2B6D2B7D2AF8E
:0193C000228A
:108B100078B1EBF208EAF208E9F278B1E2FB08E298
:108B2000FA08E2F9124E45F47003E5F0F460537868
:108B3000B1E2FB08E2FA08E2F9124E45FBAAF0EABC
:108B4000FDE4FF12938678B1E2FB08E2FA08E2F94D
:108B5000900002124DF4FC6F601B78B1E2FB08E25A
:108B6000FA08E2F9124E45FBAAF0EAFD78DDECF2D4
:108B7000E4FF12934878B3E22403F218E23400F2DF
:038B8000809822B8
:019900002244
:106313002562782025627820256278000A3C523E67
:1063230025303262785B25303262785D3D2530322C
:10633300627800256278202562780025627820251E
:1063430062782025627820256278200025316278E2
:1063530020253162782025316278200052656164FE
:106363004173696342797465203D3D20256278203D
:106373000A0063682562643A256264200063682525
:1063830062643A2562642063682562643A25626424
:10639300200063682562643A25626420636825628D
:1063A300643A2562642063682562643A2562642046
:1063B3000063682562643A25626420636825626429
:1063C3003A2562642063682562643A256264206327
:1063D300682562643A256264200063682562643A32
:1063E3002562642063682562643A256264206368D9
:1063F3002562643A2562642063682562643A2562F3
:10640300642063682562643A25626420002562641F
:1064130020000A203D3D3D3D3D3D3D3D205041474F
:10642300452025623278203D3D3D3D3D3D3D3D3D8E
:106433003D3D3D3D0A002562327809000A002531C1
:106443006278202531627820636825316278206381
:106453006825316278206368253162782063682576
:106463003162782000656E726563616C6C00656EE5
:10647300667265657A6500656E686D6972726F72C2
:1064830000656E766D6972726F7200656E656E6817
:10649300616E636500656E626C616E6B00656E6252
:1064A3006F756E6400656E626C696E6B0064697310
:1064B300726563616C6C00646973667265657A65A5
:1064C30000646973686D6972726F720064697376D0
:1064D3006D6972726F7200646973656E68616E6371
:1064E3006500646973626C616E6B00646973626FEB
:1064F300756E6400646973626C696E6B003D3D3D4B
:106503003D3D20466F726D6174203A206368303DD3
:106513005B2562785D206368313D5B2562785D2091
:106523006368323D5B2562785D206368333D5B259C
:1065330062785D203D3D3D3D3D0A00256278202582
:1065430062782063682562783A256278206368253B
:1065530062783A2562782063682562783A25627802
:106563002063682562783A25627820003336002656
:1065730000280029006275737700627573720061E9
:106583006D697800616D757465006164756D700087
:10659300616761696E00616C69766500627573722B
:1065A3007400766D697800766D697865727200762D
:1065B300617474720079766D697800696E6974002C
:1065C3007664657400767365746600737374720021
:1065D3006873636F6D006D6F646500617564696FE7
:1065E30000617564696F73656C656374006D7574C0
:1065F300650061766F757400746F75636800646914
:10660300737363726F6C6C00766572000102040829
:016613001076
:0498D5004100DE0070
:1084000078B374FEF2087400F20874AAF27BFE7A64
:038410000079AD43
:1084130078B0EBF208EAF208E9F208E2FB08E2FAC4
:1084230008E2F9124ECE124DDB7002FF2278B3E25E
:10843300FB08E2FA08E2F9124ECE124DDBB4201625
:1084430078B3E2FB08E2FA08E2F9900001E475F080
:1084530001124E7080D778B3E2FB08E2FA08E2F922
:10846300124ECEC003C002C00178B0E2FB08E2FAAC
:1084730008E2F9124EEE803578B3E2FB08E2FA081F
:10848300E2F9124ECE124DDBFEB4201BE4124E2154
:1084930078B3E2FB08E2FA08E2F9900001E475F030
:1084A30001124E707F0122EE70037F012278B3E246
:1084B300FB08E2FA08E2F9900001E475F001124EBC
:0384C3007080B511
:088FAE00E2FB08E2FA08E2F917
:0A8FB60078B0EBF208EAF208E9F2E5
:108FC000E4F531F53278B0E2FB08E2FA08E2F91292
:108FD0004DDB602578B0E2FB0808E2F92401F218C5
:108FE000E2FA3400F2124DDBFF3395E0FEEF25325A
:0D8FF000F532EE3531F53180CCAE31AF32C7
:018FFD002251
:0F985D007F411200037F431200037F4B02000381
:108FFE00E4F52A7856E25403252AF52A08E25403AA
:10900E0025E025E0252AF52A08E25403C454F0256C
:10901E002AF52A08E25403C4333354C0252AF52A0C
:10902E007855E2B5070B785AE2B52A05E4786AF26C
:0F903E0022786A7401F2785AE52AF27855EFF237
:01904D002200
:108D040078B374FFF2087463F2087413F208E4F29F
:108D1400087400F2087427F208E4F2087400F208F8
:108D24007428F208E4F2087400F2087429F2125D5F
:108D34006AAB28AD27E4FF12938678AFEFF27BFF8E
:108D44007A63791F78ADE527F208E528F21259F322
:078D54000528E528B529DA26
:018D5B0022F5
:1091B80078B374FFF2087463F2087436F208E4F2C4
:1091C800087400F2087427F208E4F2087400F20840
:1091D8007428F2125D6AAB28AD27E4FF12938678F3
:1091E800AFEFF27BFF7A63791F78ADE527F208E5E8
:0591F80028F20259F30A
:1093090078B374FFF2087463F2087413F208E4F294
:10931900087400F2087427F208E4F2087400F208ED
:109329007428F208E4F2087400F2087429F2125D54
:0F9339006A78DDE529F2AB28AD27E4FF029348FF
:108C5000E4F527F528F529F52AC003C00278B37496
:108C6000FFF2087463F208743EF208E4F20874003C
:108C7000F2087427F208E4F2087400F2087428F28B
:108C800008E4F2087400F2087429F208E4F20874A7
:108C900000F208742AF2D002D003125D6A78DDE592
:0B8CA0002AF2AB29AD28E4FF02934844
:108F0900E4F527F528F529F52A78B374FFF20874F2
:108F190063F208744FF208E4F2087400F208742747
:108F2900F208E4F2087400F2087428F208E4F2087E
:108F39007400F2087429F2125D6AAB29AD28E4FFC6
:108F49001293868F2A7BFF7A63795F78ADE52AF2DF
:038F59000259F3C7
:0A60020078AAEBF208EAF208E9F2CE
:10600C0078B374FEF2087400F20874AAF27BFE7A7C
:10601C000079AD128413E4FB7D1FFF12946578ADFB
:10602C00E2FB08E2FA08E2F9128330EE6003026345
:10603C0012EF24FE605B1470030261031470030200
:10604C00618D14700302623B2404600302631278B6
:10605C00B374FFF2087463F2087475F208E4F20882
:10606C007400F2087427F208E4F2087400F2087461
:10607C002CF278AAE2FB08E2FA08E2F9125D6AABAC
:10608C002CAD27E4FF12857EE52790660F93026303
:10609C000A78B374FFF2087463F2087480F208E4AF
:1060AC00F2087400F2087427F208E4F2087400F2A3
:1060BC0008742CF208E4F2087400F2087428F20850
:1060CC00E4F2087400F208742DF278AAE2FB08E2FC
:1060DC00FA08E2F9125D6AAB2CAD27E4FF12857E5B
:1060EC00AB2DAD28E4FF12857EE52890660F93FF5B
:1060FC00E527932F02630A78B374FFF2087463F2F6
:10610C00087495F208E4F2087400F2087427F20897
:10611C00E4F2087400F208742CF208E4F20874003B
:10612C00F2087428F208E4F2087400F208742DF2F4
:10613C0008E4F2087400F2087429F208E4F2087416
:10614C0000F208742EF278AAE2FB08E2FA08E2F9EF
:10615C00125D6AAB2CAD27E4FF12857EAB2DAD280A
:10616C00E4FF12857EAB2EAD29E4FF12857EE52877
:10617C0090660F93FFE527932FFFE529932F02637A
:10618C000A78B374FFF2087463F20874B4F208E48A
:10619C00F2087400F2087427F208E4F2087400F2B2
:1061AC0008742CF208E4F2087400F2087428F2085F
:1061BC00E4F2087400F208742DF208E4F20874009A
:1061CC00F2087429F208E4F2087400F208742EF252
:1061DC0008E4F2087400F208742AF208E4F2087475
:1061EC0000F208742FF278AAE2FB08E2FA08E2F94E
:1061FC00125D6AAB2CAD27E4FF12857EAB2DAD286A
:10620C00E4FF12857EAB2EAD29E4FF12857EAB2F09
:10621C00AD2AE4FF12857EE52890660F93FFE527F3
:10622C00932FFFE529932FFFE52A932F02630A781A
:10623C00B374FFF2087463F20874DDF208E4F20838
:10624C007400F2087427F208E4F2087400F208747F
:10625C002CF208E4F2087400F2087428F208E4F254
:10626C00087400F208742DF208E4F2087400F208C5
:10627C007429F208E4F2087400F208742EF208E4AF
:10628C00F2087400F208742AF208E4F2087400F2BE
:10629C0008742FF208E4F2087400F208742BF20868
:1062AC00E4F2087400F2087430F278AAE2FB08E217
:1062BC00FA08E2F9125D6AAB2CAD27E4FF12857E79
:1062CC00AB2DAD28E4FF12857EAB2EAD29E4FF1279
:1062DC00857EAB2FAD2AE4FF12857EAB30AD2BE46F
:1062EC00FF12857EE52890660F93FFE527932FFF1D
:1062FC00E529932FFFE52A932FFFE52B932FFD7BA9
:06630C0001E4FF1294659C
:016312002268
:0F986C00E4FB7D1FFF1294657DFFE4FF02951B57
:0A66140078AAEBF208EAF208E9F2B6
:10661E0078B374FEF2087400F20874AAF27BFE7A64
:10662E000079AD12841378ADE2FB08E2FA08E2F9C4
:10663E00128330EE60030268B0EF24FE60501470D7
:10664E00030266F21470030267671470030267FB9D
:10665E00240460030268B078B374FFF2087463F226
:10666E00087475F208E4F2087400F2087427F20850
:10667E00E4F2087400F208742CF278AAE2FB08E245
:10668E00FA08E2F9125D6AAB2CAD270268AB78B35B
:10669E0074FFF2087463F2087480F208E4F208746E
:1066AE0000F2087427F208E4F2087400F208742C61
:1066BE00F208E4F2087400F2087428F208E4F20812
:1066CE007400F208742DF278AAE2FB08E2FA08E2EE
:1066DE00F9125D6AAB2CAD27E4FF12862FAB2DAD00
:1066EE00280268AB78B374FFF2087463F2087495ED
:1066FE00F208E4F2087400F2087427F208E4F208D3
:10670E007400F208742CF208E4F2087400F20874B3
:10671E0028F208E4F2087400F208742DF208E4F28C
:10672E00087400F2087429F208E4F2087400F20802
:10673E00742EF278AAE2FB08E2FA08E2F9125D6A18
:10674E00AB2CAD27E4FF12862FAB2DAD28E4FF1244
:10675E00862FAB2EAD290268AB78B374FFF20874A6
:10676E0063F20874B4F208E4F2087400F2087427B5
:10677E00F208E4F2087400F208742CF208E4F2084D
:10678E007400F2087428F208E4F2087400F2087437
:10679E002DF208E4F2087400F2087429F208E4F20B
:1067AE00087400F208742EF208E4F2087400F2087D
:1067BE00742AF208E4F2087400F208742FF278AA30
:1067CE00E2FB08E2FA08E2F9125D6AAB2CAD27E4AF
:1067DE00FF12862FAB2DAD28E4FF12862FAB2EAD08
:1067EE0029E4FF12862FAB2FAD2A0268AB78B37463
:1067FE00FFF2087463F20874DDF208E4F208740024
:10680E00F2087427F208E4F2087400F208742CF20D
:10681E0008E4F2087400F2087428F208E4F208742E
:10682E0000F208742DF208E4F2087400F2087429DC
:10683E00F208E4F2087400F208742EF208E4F2088A
:10684E007400F208742AF208E4F2087400F2087474
:10685E002FF208E4F2087400F208742BF208E4F246
:10686E00087400F2087430F278AAE2FB08E2FA0823
:10687E00E2F9125D6AAB2CAD27E4FF12862FAB2D29
:10688E00AD28E4FF12862FAB2EAD29E4FF12862F22
:10689E00AB2FAD2AE4FF12862FAB30AD2BE4FF12E7
:0268AE00862F33
:0168B00022C5
:1096520078B374FFF2087464F2087410F208E4F24A
:10966200087400F2087427F2125D6AAD27E4FF0263
:02967200951B46
:10909B00E4F5287BFF7A64791578ADE528F212594F
:1090AB00F3E4F527AB27AD28E4FF12938678ADEFF9
:1090BB00F27BFF7A6479391259F30527E527540FB0
:1090CB0070097BFF7A64793F1259F3E52770D50558
:0890DB0028E528C3940340BB03
:0190E300226A
:0A89A10078A4E2FB08E2FA08E2F90C
:1089AB00C003C002C00178B374FFF2087464F2080C
:1089BB007441F208E4F2087400F2087427F208E438
:1089CB00F2087400F2087428F20874FEF2087400BE
:1089DB00F2087456F20874FEF2087400F208745729
:1089EB00F20874FEF2087400F2087458F20874FE70
:1089FB00F2087400F2087459F2D001D002D00312BD
:108A0B005D6AE527C454F0FFE528540F2FF5277B4B
:098A1B00FE7A007956FF026F0299
:0A730D0078AAEBF208EAF208E9F2B0
:10731700E4F52F12840078ADE2FB08E2FA08E2F9FF
:107327001283308F3012840078AD128FAE8E278F84
:10733700287BFF7A647968128FB6EFB5280AEEB515
:1073470027067529800273E87BFF7A647971128FAB
:10735700B6EFB5280AEEB527067529400273E87B14
:10736700FF7A64797A128FB6EFB52809EEB527054B
:10737700752920806C7BFF7A647984128FB6EFB50C
:107387002809EEB5270575291080567BFF7A6479A1
:107397008E128FB6EFB52809EEB527057529088037
:1073A700407BFF7A647998128FB6EFB52809EEB55E
:1073B7002705752904802A7BFF7A6479A0128FB686
:1073C700EFB52809EEB5270575290280147BFF7AEA
:1073D7006479A8128FB6EFB5280DEEB52709752980
:1073E70001752A010274A47BFF7A6479B0128FB603
:1073F700EFB5280AEEB527067529800274877BFF4B
:107407007A6479BA128FB6EFB52809EEB5270575F4
:107417002940806C7BFF7A6479C4128FB6EFB52858
:1074270009EEB5270575292080567BFF7A6479CF49
:10743700128FB6EFB52809EEB527057529108040DC
:107447007BFF7A6479DA128FB6EFB52809EEB52794
:1074570005752908802A7BFF7A6479E5128FB6EFD4
:10746700B52809EEB5270575290480147BFF7A64D2
:1074770079EE128FB6EFB5280CEEB52708752902FD
:10748700E4F52A80187BFF7A6479F7128FB6EF65E7
:10749700287003EE6527705B752901F52A128400B1
:1074A700EF603778ADE2FB08E2FA08E2F9124DDB4C
:1074B700B477EA900001124DF4B469E1900002122A
:1074C7004DF4B46ED8E92403F9E43AFA1283307420
:1074D7002B252FF8A607052F80C3E52F6015242A33
:1074E700F8E6FFC395305007AB2AAD29128DB315C7
:0374F7002F80E7FC
:0174FA00226F
:1096740078B374FFF2087464F2087410F208E4F228
:10968400087400F2087427F2125D6AAF270297F09B
:10943200E4FF12912BC0077F0112912BC0077F021C
:1094420012912BC0077F0312912B78B0EFF218D044
:10945200E0F218D0E0F218D0E0F27BFF7A657900F2
:039462000259F3B9
:0A6CF60078AAEBF208EAF208E9F2CE
:106D000078B374FEF2087400F20874AAF27BFE7A7B
:106D10000079AD12841378ADE2FB08E2FA08E2F9DB
:106D2000128330EE6003026F01EF24FE604E147098
:106D300003026DDA147003026E5B24036003026FBA
:106D40000178B374FFF2087463F2087475F208E412
:106D5000F2087400F2087427F208E4F2087400F2F2
:106D600008742BF278AAE2FB08E2FA08E2F9125D55
:106D70006AE52BC454F0FBAD27026EFC78B374FFB8
:106D8000F2087463F2087480F208E4F2087400F206
:106D9000087427F208E4F2087400F208742BF20871
:106DA000E4F2087400F2087428F208E4F2087400AF
:106DB000F208742CF278AAE2FB08E2FA08E2F9126F
:106DC0005D6AE52BC454F0FBAD27E4FF1294C6E5E1
:106DD0002CC454F0FBAD28026EFC78B374FFF208AB
:106DE0007463F2087495F208E4F2087400F208740F
:106DF00027F208E4F2087400F208742BF208E4F2B7
:106E0000087400F2087428F208E4F2087400F2082A
:106E1000742CF208E4F2087400F2087429F208E411
:106E2000F2087400F208742DF278AAE2FB08E2FA84
:106E300008E2F9125D6AE52BC454F0FBAD27E4FFCC
:106E40001294C6E52CC454F0FBAD28E4FF1294C69E
:106E5000E52DC454F0FBAD29026EFC78B374FFF24B
:106E6000087463F20874B4F208E4F2087400F208DB
:106E70007427F208E4F2087400F208742BF208E4B4
:106E8000F2087400F2087428F208E4F2087400F2C0
:106E900008742CF208E4F2087400F2087429F2086D
:106EA000E4F2087400F208742DF208E4F2087400A9
:106EB000F208742AF208E4F2087400F208742EF260
:106EC00078AAE2FB08E2FA08E2F9125D6AE52BC44F
:106ED00054F0FBAD27E4FF1294C6E52CC454F0FB3C
:106EE000AD28E4FF1294C6E52DC454F0FBAD29E4AF
:106EF000FF1294C6E52EC454F0FBAD2AE4FF1294B1
:016F0000C6CA
:016F0100226D
:0A891D0078AAEBF208EAF208E9F28A
:1089270078B374FEF2087400F20874AAF27BFE7A38
:108937000079AD12841378ADE2FB08E2FA08E2F998
:108947001283308F2778B374FEF2087400F208742C
:10895700AAF27BFE7A0079AD12841378ADE2FB08A8
:10896700E2FA08E2F91283308F287F041298FA7F1F
:10897700031298FD7F0512959678AAE2F908E2FAA4
:1089870008E278B3C9F208EAF208E9F2AB28AD27A2
:0A8997007F011284C67F050290E400
:1093C100752801E4F527745B2527F8E230E40F7472
:1093D100562527F8E2FDE4FF12951BE4F528052741
:1093E100E527C3940440DFE528600FE4FB7D1FFF00
:0A93F1001294657DFFE4FF12951B46
:0193FB00224F
:10960A007863E214600F146011146013240370135A
:10961A00C2A1C2A222C2A1D2A222D2A1C2A222D293
:04962A00A1D2A22205
:10962E007865E214600F1460111460132403701334
:10963E00C2A4C2A522C2A4D2A522D2A4C2A522D25D
:04964E00A4D2A522DB
:0D988A007866E2600443E8012253E8FE2204
:0B98A3007867E26003D2B522C2B52254
:107A8300C003C002C00178B374FFF2087465F20842
:107A9300743EF208E4F2087400F2087428F208E471
:107AA300F2087400F2087429F20874FEF2087400F4
:107AB300F2087456F20874FEF2087400F208745B5C
:107AC300F20874FEF2087400F2087457F20874FEA8
:107AD300F2087400F208745CF20874FEF208740091
:107AE300F2087458F20874FEF2087400F208745D28
:107AF300F20874FEF2087400F2087459F20874FE76
:107B0300F2087400F208745EF2D001D002D00312BE
:107B13005D6AE528C454F0FF7852E2FEC433333380
:107B230054802FFFE529540F2F7869F2785BE2FF29
:107B33007856E2245FF8EFF2785CE2FF7857E224AC
:107B43005FF8EFF2785DE2FF7858E2245FF8EFF236
:107B5300785EE2FF7859E2245FF8EFF2785FE2544F
:107B630001FB7D20E4FF128E0A7860E25401FB7D65
:107B7300207F01128E0A7861E25401FB7D207F028F
:107B8300128E0A7862E25401FB7D207F03128E0A73
:107B93007BFE7A00795F1278AF7869E2FF78AE7482
:107BA300FEF2087400F208745BF27BFE7A007956E9
:107BB3001234B77869E2FF7BFE7A007956126F02BE
:107BC300E4F527745B2527F8E25401FB7D20AF27FA
:107BD300128DB30527E527C3940440E7E4F510F5B8
:107BE30011F5127513057F011298CC7869E2FF1223
:107BF3008FFE7F081295E4E4FF12979412904E7B58
:0F7C0300FE7A00795B122D727869E29000DEF054
:017C1200224F
:108A24007F0312912BEFB40202C3227852E2B507FE
:108A340002D3227852EFF2E2C43333335480FF7806
:108A440055E2547F4FF27F011290E47852E2FF1214
:108A5400876C7BFE7A00795F1278AF7855E2FF78F5
:108A6400AE74FEF2087400F208745BF27BFE7A00C6
:108A740079561234B77855E2FF7BFE7A00795612A4
:108A84006F02E4FF12979412904E7BFE7A00795B9A
:068A9400122D72129498ED
:018A9A0022B9
:1096D20078B374FFF2087464F2087410F20874FE2E
:0C96E200F2087400F2087453F2025D6A92
:1096EE0078B374FFF2087464F2087410F20874FE12
:0C96FE00F2087400F2087463F2025D6A66
:10970A0078B374FFF2087464F2087410F20874FEF5
:0C971A00F2087400F2087465F2025D6A47
:1097260078B374FFF2087464F2087410F20874FED9
:0C973600F2087400F2087466F2025D6A2A
:1097420078B374FFF2087464F2087410F20874FEBD
:0C975200F2087400F2087467F2025D6A0D
:10975E0078B374FFF2087464F2087410F20874FEA1
:0C976E00F2087400F2087464F2025D6AF4
:0598EB007F010290E482
:1098180090656FE493FF12000390656FA3E493FFD4
:0398280002000338
:0A55E10078A4EBF208EAF208E9F200
:1055EB0078B374FEF2087400F20874A4F27BFE7AAE
:1055FB000079A712841378A7128FAE8E258F267B86
:10560B00FF7A657972128FB6EFB52614EEB52510B9
:10561B0078A4E2FB08E2FA08E2F9128D0402598E33
:10562B007BFF7A657974128FB6EFB52614EEB5252C
:10563B001078A4E2FB08E2FA08E2F91291B80259D9
:10564B008E7BFF7A657976128FB6EFB52614EEB5A1
:10565B00251078A4E2FB08E2FA08E2F9129309029A
:10566B00598E7BFF7A657978128FB6EFB52614EEDB
:10567B00B5251078A4E2FB08E2FA08E2F9128C5087
:10568B0002598E7BFF7A65797D128FB6EFB52614A2
:10569B00EEB5251078A4E2FB08E2FA08E2F9128FC6
:1056AB000902598E7BFF7A657982128FB6EFB52688
:1056BB0014EEB5251078A4E2FB08E2FA08E2F91221
:1056CB00600202598E7BFF7A657987128FB6EFB530
:1056DB00260AEEB5250612986C02598E7BFF7A6569
:1056EB00798D128FB6EFB5260AEEB525061268B185
:1056FB0002598E7BFF7A657993128FB6EFB526141C
:10570B00EEB5251078A4E2FB08E2FA08E2F912667E
:10571B001402598E7BFF7A657999128FB6EFB526F5
:10572B0014EEB5251078A4E2FB08E2FA08E2F912B0
:10573B00965202598E7BFF7A65799F128FB6EFB521
:10574B00260AEEB5250612909B02598E7BFF7A65D1
:10575B0079A5128FB6EFB52612EEB5250E7F401246
:10576B008BF21289A112985D02598E7BFF7A6579B3
:10577B00AA128FB6EFB5260AEEB525061289A1023D
:10578B00598E7BFF7A6579B2128FB6EFB52614EE80
:10579B00B5251078A4E2FB08E2FA08E2F912730DC2
:1057AB0002598E7BFF7A6579B8128FB6EFB5261743
:1057BB00EEB5251312985D78A4E2FB08E2FA08E235
:1057CB00F912967402598E7BFF7A6579BE128FB6E9
:1057DB00EFB5260AEEB5250612924202598E7BFFD3
:1057EB007A6579C3128FB6EFB5260AEEB525061288
:1057FB00943202598E7BFF7A6579C8128FB6EFB55A
:10580B002614EEB5251078A4E2FB08E2FA08E2F9BB
:10581B00126CF602598E7BFF7A6579CE128FB6EF3A
:10582B00B52614EEB5251078A4E2FB08E2FA08E2DF
:10583B00F912891D02598E7BFF7A6579D3128FB6C7
:10584B00EFB52622EEB5251E12985D78A4E2FB0873
:10585B00E2FA08E2F9127A831293C1129498E4FFE8
:10586B001298CC02598E7BFF7A6579D9128FB6EFDD
:10587B00B52617EEB5251312985D78A4E2FB08E266
:10588B00FA08E2F91296D202598E7BFF7A6579DE1D
:10589B00128FB6EFB5261AEEB5251612985D78A4C1
:1058AB00E2FB08E2FA08E2F91296EE12960A0259A6
:1058BB008E7BFF7A6579E4128FB6EFB5261AEEB5BB
:1058CB00251612985D78A4E2FB08E2FA08E2F912B9
:1058DB00970A12962E02598E7BFF7A6579F0128FFA
:1058EB00B6EFB5261AEEB5251612985D78A4E2FB35
:1058FB0008E2FA08E2F912972612988A02598E7B6F
:10590B00FF7A6579F5128FB6EFB52619EEB5251529
:10591B0012985D78A4E2FB08E2FA08E2F9129742CA
:10592B001298A3805E7BFF7A6579FB128FB6EFB579
:10593B002621EEB5251D12985D78A4E2FB08E2FA4C
:10594B0008E2F912975E7864E26004D2A38034C255
:10595B00A380307BFF7A667901128FB6EFB5260CE8
:10596B00EEB5250812985D1298EB80177BFF7A66CF
:10597B00790B128FB6EFB5260AEEB5250612985D98
:05598B001298187F01D5
:0159900022F4
:1097AD000D0A0044656275672050726F6772616DB6
:0797BD00203E005043540060
:108F5C0012984EEF64017049789AE2704412977A35
:108F6C008F25300003120003E52524F8601F24FB35
:108F7C0070217899E22470F8E4F2789A04F27BFE7E
:108F8C007A0079701294F13000170298C37899E244
:108F9C0014F2227899E22470F8E525F27899E2042B
:018FAC00F2D2
:018FAD0022A1
:0998C3007BFF7A9779AD0295450F
:0A93FC0078A4EBF208EAF208E9F2A7
:1094060078A4E2FB08E2FA08E2F9124DDB601C7868
:10941600A4E2FB0808E2F92401F218E2FA3400F2A9
:0B942600124DDBF525FF12000380D57E
:019431002218
:1097C4003000097BFF7A9779B01293FCE47899F220
:0697D40008F27870F22299
:0998CC00EF6003C20122D2012267
:0B98AE00C200C201C221E4789EF22239
:1094F10078A4EBF208EAF208E9F220001C78A4E271
:10950100FB08E2FA08E2F8AC02AD037BFF7A977937
:0A951100C01250E1EF7002D20022F8
:0791720078ACEEF208EFF209
:1091790078ADE2700218E26035E478AEF208F27870
:10918900AEE2FE08E2FFE4FCFD7B0FFAF9F8D31228
:109199004EBD400D78AFE22401F218E23400F280AE
:0E91A900DE78ADE224FFF218E234FFF280C25D
:0191B7002295
:108A9B00E478A1F20874C8F2087464F21296B41266
:108AAB0098AE1299001292421297C4128F5C789A68
:108ABB00E2B401097BFE7A0079701255E1789AE2F3
:108ACB00B401031297C4302107128A245002C22129
:108ADB0012984EEF600878A2E2751200F513E513B9
:108AEB0064014512700CF512F51378A3E2751000B2
:108AFB00F511E5116401451070B11291FD7510006F
:058B0B0075111480A6A5
:1096B400E4F5B8F5A8758780F5D0758921F5887526
:0E96C400985212983E1297DAD299D2AF002235
:100026001010FFFFFFFFFFFFFFFFFFFFFFFFFFFFB8
:10003600FFFFFFFFFFFFFFFFFFFFFFFFFFFFFFFFCA
:10004600FFFFFFFFFFFFFFFFFFFFFFFFFFFFFFFFBA
:10005600FFFFFFFFFFFFFFFFFFFFFFFFFFFFFFFFAA
:10006600FFFFFFFFFFFFFFFFFFFFFFFFFFFFFFFF9A
:10007600FFFFFFFFFFFFFFFFFFFFFFFFFFFFFFFF8A
:10008600FFFFFFFFFFFFFFFFFFFFFFFFFFFFFFFF7A
:10009600FFFFFFFFFFFFFFFFFFFFFFFFFFFFFFFF6A
:1000A600FFFFFFFFFFFFFFFFFFFFFFFFFFFFFFFF5A
:1000B600FFFFFFFFFFFFFFFFFFFFFFFFFFFFFFFF4A
:1000C600FFFFFFFFFFFFFFFFFFFFFFFFFFFFFFFF3A
:1000D600FFFFFFFFFFFFFFFFFFFFFFFFFFFFFFFF2A
:1000E600FFFFFFFFFFFFFFFFFFFFFFFFFFFFFFFF1A
:1000F600FFFFFFFFFFFFFFFFFFFFFFFFFFFFFFFF0A
:10010600FFFFFFFFFFFFFFFFFFFFFFFFFFFFFFFFF9
:10011600FFFFFFFFFFFFFFFFFFFFFFFFFFFFFFFFE9
:10012600FFFF1010FFFFFFFFFFFFFFFFFFFFFFFFB7
:10013600FFFFFFFFFFFFFFFFFFFFFFFFFFFFFFFFC9
:10014600FFFFFFFFFFFFFFFFFFFFFFFFFFFFFFFFB9
:10015600FFFFFFFFFFFFFFFFFFFFFFFFFFFFFFFFA9
:10016600FFFFFFFFFFFFFFFFFFFFFFFFFFFFFFFF99
:10017600FFFFFFFFFFFFFFFFFFFFFFFFFFFFFFFF89
:10018600FFFFFFFFFFFFFFFFFFFFFFFFFFFFFFFF79
:10019600FFFFFFFFFFFFFFFFFFFFFFFFFFFFFFFF69
:1001A600FFFFFFFFFFFFFFFFFFFFFFFFFFFFFFFF59
:1001B600FFFFFFFFFFFFFFFFFFFFFFFFFFFFFFFF49
:1001C600FFFFFFFFFFFFFFFFFFFFFFFFFFFFFFFF39
:1001D600FFFFFFFFFFFFFFFFFFFFFFFFFFFFFFFF29
:1001E600FFFFFFFFFFFFFFFFFFFFFFFFFFFFFFFF19
:1001F600FFFFFFFFFFFFFFFFFFFFFFFFFFFFFFFF09
:10020600FFFFFFFFFFFFFFFFFFFFFFFFFFFFFFFFF8
:10021600FFFFFFFFFFFFFFFFFFFFFFFFFFFFFFFFE8
:10022600FFFFFFFF1010FFFFFFFFFFFFFFFFFFFFB6
:10023600FFFFFFFFFFFFFFFFFFFFFFFFFFFFFFFFC8
:10024600FFFFFFFFFFFFFFFFFFFFFFFFFFFFFFFFB8
:10025600FFFFFFFFFFFFFFFFFFFFFFFFFFFFFFFFA8
:10026600FFFFFFFFFFFFFFFFFFFFFFFFFFFFFFFF98
:10027600FFFFFFFFFFFFFFFFFFFFFFFFFFFFFFFF88
:10028600FFFFFFFFFFFFFFFFFFFFFFFFFFFFFFFF78
:10029600FFFFFFFFFFFFFFFFFFFFFFFFFFFFFFFF68
:1002A600FFFFFFFFFFFFFFFFFFFFFFFFFFFFFFFF58
:1002B600FFFFFFFFFFFFFFFFFFFFFFFFFFFFFFFF48
:1002C600FFFFFFFFFFFFFFFFFFFFFFFFFFFFFFFF38
:1002D600FFFFFFFFFFFFFFFFFFFFFFFFFFFFFFFF28
:1002E600FFFFFFFFFFFFFFFFFFFFFFFFFFFFFFFF18
:1002F600FFFFFFFFFFFFFFFFFFFFFFFFFFFFFFFF08
:10030600FFFFFFFFFFFFFFFFFFFFFFFFFFFFFFFFF7
:10031600FFFFFFFFFFFFFFFFFFFFFFFFFFFFFFFFE7
:10032600FFFFFFFFFFFF1010FFFFFFFFFFFFFFFFB5
:10033600FFFFFFFFFFFFFFFFFFFFFFFFFFFFFFFFC7
:10034600FFFFFFFFFFFFFFFFFFFFFFFFFFFFFFFFB7
:10035600FFFFFFFFFFFFFFFFFFFFFFFFFFFFFFFFA7
:10036600FFFFFFFFFFFFFFFFFFFFFFFFFFFFFFFF97
:10037600FFFFFFFFFFFFFFFFFFFFFFFFFFFFFFFF87
:10038600FFFFFFFFFFFFFFFFFFFFFFFFFFFFFFFF77
:10039600FFFFFFFFFFFFFFFFFFFFFFFFFFFFFFFF67
:1003A600FFFFFFFFFFFFFFFFFFFFFFFFFFFFFFFF57
:1003B600FFFFFFFFFFFFFFFFFFFFFFFFFFFFFFFF47
:1003C600FFFFFFFFFFFFFFFFFFFFFFFFFFFFFFFF37
:1003D600FFFFFFFFFFFFFFFFFFFFFFFFFFFFFFFF27
:1003E600FFFFFFFFFFFFFFFFFFFFFFFFFFFFFFFF17
:1003F600FFFFFFFFFFFFFFFFFFFFFFFFFFFFFFFF07
:10040600FFFFFFFFFFFFFFFFFFFFFFFFFFFFFFFFF6
:10041600FFFFFFFFFFFFFFFFFFFFFFFFFFFFFFFFE6
:10042600FFFFFFFFFFFFFFFF1010FFFFFFFFFFFFB4
:10043600FFFFFFFFFFFFFFFFFFFFFFFFFFFFFFFFC6
:10044600FFFFFFFFFFFFFFFFFFFFFFFFFFFFFFFFB6
:10045600FFFFFFFFFFFFFFFFFFFFFFFFFFFFFFFFA6
:10046600FFFFFFFFFFFFFFFFFFFFFFFFFFFFFFFF96
:10047600FFFFFFFFFFFFFFFFFFFFFFFFFFFFFFFF86
:10048600FFFFFFFFFFFFFFFFFFFFFFFFFFFFFFFF76
:10049600FFFFFFFFFFFFFFFFFFFFFFFFFFFFFFFF66
:1004A600FFFFFFFFFFFFFFFFFFFFFFFFFFFFFFFF56
:1004B600FFFFFFFFFFFFFFFFFFFFFFFFFFFFFFFF46
:1004C600FFFFFFFFFFFFFFFFFFFFFFFFFFFFFFFF36
:1004D600FFFFFFFFFFFFFFFFFFFFFFFFFFFFFFFF26
:1004E600FFFFFFFFFFFFFFFFFFFFFFFFFFFFFFFF16
:1004F600FFFFFFFFFFFFFFFFFFFFFFFFFFFFFFFF06
:10050600FFFFFFFFFFFFFFFFFFFFFFFFFFFFFFFFF5
:10051600FFFFFFFFFFFFFFFFFFFFFFFFFFFFFFFFE5
:10052600FFFFFFFFFFFFFFFFFFFF1010FFFFFFFFB3
:10053600FFFF00000000FFFFFFFFFFFFFFFFFFFFC1
:10054600FF000000000000FFFFFFFFFFFFFFFFFFAF
:100556000000020202020000FFFFFFFFFFFFFFFF95
:100566000000020202020000FFFFFFFFFFFFFF0084
:10057600000202000002020000FFFFFFFFFFFF0073
:10058600000202000002020000FFFFFFFFFF000062
:1005960002020000000002020000FFFFFFFF000051
:1005A600020200FFFF0002020000FFFFFF00000240
:1005B600020000FFFF000002020000FFFF00000231
:1005C6000200000000000002020000FF000002021C
:1005D60002020202020202020202000000000202FD
:1005E60002020202020202020202000000000202ED
:1005F60000000000000000000202000000000202ED
:100606000000FFFFFFFF00000202000000000202E0
:100616000000FFFFFFFF00000202000000000000D4
:100626000000FFFFFFFF00000000000010100000A8
:10063600000000000000000000000000FFFF0002B4
:1006460002020202020202020202000000FF00028F
:10065600020202020202020202020200000000007E
:100666000002020000000000020202020000FF0079
:1006760000020200FFFFFF00000202020000FF006E
:1006860000020200FFFFFF00000202020000FF005E
:1006960000020200000000000202020000FFFF004C
:1006A600000202020202020202020000FFFFFF0035
:1006B600000202020202020202020000FFFFFF0025
:1006C60000020200000000000202020000FFFF001C
:1006D60000020200FFFFFF00000202020000FF000E
:1006E60000020200FFFFFF000002020200000000FD
:1006F60000020200000000000202020200000002E6
:1007060002020202020202020202020000000002CB
:1007160002020202020202020202000000FF0000C0
:10072600000000000000000000000000FFFF1010A5
:10073600FFFFFF00000000000000000000FFFFFFB9
:10074600FFFF00000202020202020202000000FF96
:10075600FF00000202020202020202020200000080
:100766000000000202000000000000020202000079
:1007760000000202020000FFFFFF0000020200006C
:10078600000002020000FFFFFFFFFF000202000060
:10079600000002020000FFFFFFFFFFFF0000000055
:1007A600000002020000FFFFFFFFFFFFFFFFFFFF49
:1007B600000002020000FFFFFFFFFFFFFFFFFFFF39
:1007C600000002020000FFFFFFFFFF000000000024
:1007D600000002020000FFFFFFFFFF000202000010
:1007E60000000202000000FFFFFF000002020000FE
:1007F60000000202020000000000000202020000E7
:10080600FF000002020202020202020202000000CF
:10081600FFFF00000202020202020202000000FFC5
:10082600FFFFFF0000000000000000000000FFFFC7
:100836001010000000000000000000000000FFFF94
:10084600FFFF00000202020202020202020000FF93
:10085600FFFF000002020202020202020202000080
:10086600FFFF00000202000000000002020200007A
:10087600FFFF000002020000FFFF0000020200006E
:10088600FFFF000002020000FFFF0000020200005E
:10089600FFFF00000202000000000002020200004A
:1008A600FFFF00000202020202020202020000FF33
:1008B600FFFF00000202020202020202000000FF25
:1008C600FFFF000002020000020202000000FFFF1C
:1008D600FFFF000002020000000202020000FFFF0C
:1008E600FFFF00000202000000000202020000FFFB
:1008F600FFFF000002020000FF00000202020000EB
:10090600FFFF000002020000FFFF000002020200DB
:1009160000FF000002020000FFFFFF0000020202CB
:1009260000FF000000000000FFFFFFFF00000000C6
:1009360000FF101000000000FFFFFFFFFFFFFFFF9A
:10094600000000000000000000FFFFFFFFFFFF00A7
:100956000000000000000C0C0000FFFFFFFF00007D
:100966000C0C000000000C0C0C0000000000000C39
:100976000C0C000000000C0C0C0C000000000C0C11
:100986000C0C000000000C0C0C0C0C0C0C0C0C0CD1
:100996000C0C000000000C0C0C0C0C0C0C0C0C0CC1
:1009A6000C0C000000000C0C0C000C0C0C0C000CC9
:1009B6000C0C000000000C0C0C00000C0C00000CD1
:1009C6000C0C000000000C0C0C0000000000000CD9
:1009D6000C0C000000000C0C0C0000000000000CC9
:1009E6000C0C000000000C0C0C0000FFFF00000CBB
:1009F6000C0C000000000C0C0C0000FFFF00000CAB
:100A06000C0C000000000C0C0C0000FFFF00000C9A
:100A16000C0C000000000C0C0C0000FFFF00000C8A
:100A26000C0C000000000000000000FFFF000000AA
:100A3600000000001010FF00000000000000000091
:100A46000000000000FFFF00000202020202020294
:100A56000202020000FFFF0000020202020202027E
:100A66000202020000FFFF00000000000000020278
:100A76000200000000FFFFFFFFFFFFFF0000020271
:100A8600020000FFFFFFFFFFFFFFFFFF0000020263
:100A9600020000FFFFFFFFFFFFFFFFFF0000020253
:100AA600020000FFFFFFFFFFFFFFFFFF0000020243
:100AB600020000FFFFFFFFFFFFFFFFFF0000020233
:100AC600020000FFFFFFFFFFFFFFFFFF0000020223
:100AD600020000FFFFFFFF00000000FF000002020F
:100AE600020000FFFFFFFF000202000000000202FA
:100AF600020000FFFFFFFF000202020000020202E6
:100B0600020000FFFFFFFF000002020202020202D3
:100B1600000000FFFFFFFFFF0000020202020200CA
:100B26000000FFFFFFFFFFFFFF00000000000000C6
:100B360000FFFFFFFFFF1010FFFFFFFFFFFFFFFF9C
:100B4600FFFFFFFFFFFFFFFFFFFFFFFFFF000000AC
:100B560000000000FFFFFFFFFFFFFFFF0000010195
:100B660001010000FFFFFFFFFFFFFF000001010181
:100B760001010000FFFFFFFFFFFF0000010101016F
:100B8600010000FFFFFFFFFFFF000001010101015F
:100B96000000000000000000000001010101010149
:100BA6000101010101010000000101010101010132
:100BB6000101010101010000000101010101010122
:100BC6000101010101010000000001010101010113
:100BD6000101010101010000FF0000010101010105
:100BE6000000000000000000FFFF000001010101FD
:100BF600010000FFFFFFFFFFFFFFFF0000010101F3
:100C060001010000FFFFFFFFFFFFFFFF00000101E2
:100C160001010000FFFFFFFFFFFFFFFFFF000000D5
:100C260000000000FFFFFFFFFFFFFFFFFFFFFFFFCA
:100C3600FFFFFFFFFFFFFFFF1010FFFFFFFFFFFF9C
:100C4600FFFFFFFFFFFFFFFFFFFFFFFFFFFF0000AC
:100C56000000000000FFFFFFFFFFFFFFFFFF000097
:100C6600010101010000FFFFFFFFFFFFFFFF000082
:100C760001010101010000FFFFFFFFFFFFFFFF0071
:100C86000001010101010000FFFF0000000000005B
:100C9600000001010101010000FF00000101010146
:100CA6000101010101010101000000000101010132
:100CB6000101010101010101010000000101010121
:100CC6000101010101010101010000000000000015
:100CD600000001010101010000FF0000000000000A
:100CE600000001010101010000FFFFFFFFFFFF00FF
:100CF6000001010101010000FFFFFFFFFFFF0000EF
:100D060001010101010000FFFFFFFFFFFFFF0000DF
:100D1600010101010000FFFFFFFFFFFFFFFF0000D1
:100D26000000000000FFFFFFFFFFFFFFFFFFFFFFC8
:100D3600FFFFFFFFFFFFFFFFFFFF1010FFFFFFFF9B
:100D46000000000000000000FFFFFFFFFFFFFFFFA5
:100D56000000010101010000FFFFFFFFFFFFFFFF91
:100D66000000010101010000FFFFFFFFFFFFFFFF81
:100D76000000010101010000FFFFFFFFFFFFFFFF71
:100D86000000010101010000FFFFFFFF000000005D
:100D96000000010101010000000000000000010147
:100DA6000000010101010000010100000000010135
:100DB6000100010101010001010100000000010123
:100DC6000101010101010101010100000000010111
:100DD600010101010101010101010000FF00000103
:100DE6000101010101010101010000FFFFFF0000F7
:100DF60001010101010101010000FFFFFFFFFF00EA
:100E0600000101010101010000FFFFFFFFFFFFFFDD
:100E16000000010101010000FFFFFFFFFFFFFFFFD0
:100E2600FF000001010000FFFFFFFFFFFFFFFFFFC4
:100E3600FFFF00000000FFFFFFFFFFFF1010FFFF96
:100E4600FFFFFFFFFFFF0000000000000000FFFFA4
:100E5600FFFFFFFFFF000002020202020000FFFF89
:100E6600FFFFFFFF00000202020202020000FFFF76
:100E7600FFFFFF0000020202000002020000000065
:100E86000000000002020200000002020000000052
:100E96000202020202020200FF000202000000003B
:100EA6000202020202020200FF000202000000002B
:100EB6000202000000020200FF0002020000000021
:100EC600020200FF00020200FF0002020000000012
:100ED6000202000000020200FF0002020000000001
:100EE6000202020202020200FF00020200000000EB
:100EF60002020202020202000000020200000000DA
:100F06000000000000020202000002020000FFFFD3
:100F1600FFFFFFFF00000202020202020000FFFFC5
:100F2600FFFFFFFFFF000002020202020000FFFFB8
:100F3600FFFFFFFFFFFF0000000000000000101091
:100F46000000000000FFFFFFFFFFFF0000000000A1
:100F56000001010100FFFFFFFFFFFF00010101008B
:100F66000001010100FFFFFFFFFFFF00010101007B
:100F76000001010100FFFFFFFFFFFF00010101006B
:100F86000001010100FFFFFFFFFFFF00010101005B
:100F9600000101010000FFFFFFFF00000101010049
:100FA600000101010100FFFFFFFF00010101010037
:100FB600000001010100FFFFFFFF00010101000029
:100FC60000000101010000FFFF0000010101000017
:100FD600FF0000010101000000000101010000FF07
:100FE600FFFF000001010100000101010000FFFFF9
:100FF600FFFF000000010100000101000000FFFFEB
:10100600FFFFFF00000101010101010000FFFFFFDA
:10101600FFFFFFFF0000010101010000FFFFFFFFCE
:10102600FFFFFFFFFF00000101000000FFFFFFFFC1
:10103600FFFFFFFFFFFF0000000000FFFFFFFFFFB5
:10104600101000000000000000FFFFFFFFFFFFFF81
:10105600FFFF00000101010000FFFFFFFFFFFFFF90
:10106600FFFF00000101010000FFFFFFFFFFFFFF80
:10107600FFFF00000101010000FFFFFFFFFFFFFF70
:10108600FFFF00000101010000FFFFFFFFFFFFFF60
:10109600FFFF00000101010000FFFFFFFFFFFFFF50
:1010A600FFFF00000101010000FFFFFFFFFFFFFF40
:1010B600FFFF00000101010000FFFFFFFFFFFFFF30
:1010C600FFFF00000101010000FFFFFFFFFFFFFF20
:1010D600FFFF00000101010000FFFFFFFFFF00000E
:1010E600000000000101010000FFFFFFFFFF0000FC
:1010F600000000000101010000FFFFFFFF000001EA
:1011060000000000010101000000000000000101D4
:1011160000000000010101010101010101010101BD
:1011260000000000010101010101010101010101AD
:1011360000000000000000000000000000000000A9
:1011460000001010FFFFFFFFFFFFFFFFFFFFFFFF85
:10115600FFFFFFFFFFFFFFFFFFFFFFFFFFFFFFFF99
:10116600FFFFFFFFFFFFFFFFFFFFFFFFFFFFFFFF89
:10117600FFFFFFFFFFFFFFFF00000000000000FF72
:10118600FFFFFFFFFFFFFF0000000101010000005D
:10119600FFFFFFFFFFFF0000010101010101010048
:1011A60000FFFFFFFF000001010100000001010137
:1011B6000000FFFF00000001010000FF0000010128
:1011C600000000FF00000101010000FF0000010116
:1011D600010000FF00000101010000FF0000010105
:1011E600010000FF00000101010000FF00000101F5
:1011F600010000FF00000001010000FF00000101E6
:10120600000000FFFF0000010101000000010101D4
:101216000000FFFFFFFF00000101010101010100C5
:1012260000FFFFFFFFFFFF000000010101000000BB
:10123600FFFFFFFFFFFFFFFF00000000000000FFB1
:10124600FFFFFFFF1010FFFFFFFFFFFFFFFFFFFF86
:10125600FFFFFFFFFFFFFFFFFFFF00000000000092
:101266000000FFFFFFFFFFFF000000000202020276
:10127600000000FFFFFFFF00000002020202020260
:1012860002020000FFFFFF00000202020000000051
:101296000202020000FFFF00000202020000FF003F
:1012A6000000000000FFFF00000002020202000032
:1012B6000000FFFFFFFFFFFFFF0000020202020225
:1012C600020000FFFFFFFFFFFFFF00000000020219
:1012D60002020000FFFFFF0000000000FFFF000009
:1012E6000202020000FFFF000002020200000000EE
:1012F6000202020000FFFF000000020202020202D8
:1013060002020000FFFFFFFFFF00000002020202D0
:10131600000000FFFFFFFFFFFFFFFF0000000000CF
:101326000000FFFFFFFFFFFFFFFFFFFFFFFFFFFFC5
:10133600FFFFFFFFFFFFFFFFFFFFFFFFFFFFFFFFB7
:10134600FFFFFFFFFFFF1010FFFFFFFFFFFFFFFF85
:10135600FFFFFFFFFFFFFFFFFFFFFFFFFFFFFFFF97
:10136600FFFFFFFFFFFFFFFFFFFFFFFFFFFFFFFF87
:10137600FFFFFFFFFFFFFFFFFFFFFFFFFFFFFFFF77
:10138600FFFFFFFFFFFFFFFFFFFFFFFFFFFFFFFF67
:10139600FFFFFFFFFFFFFFFFFFFFFFFFFFFFFFFF57
:1013A600FFFFFFFFFFFFFFFFFFFFFFFFFFFFFFFF47
:1013B600FFFFFFFFFFFFFFFFFFFFFFFFFFFFFFFF37
:1013C600FFFFFFFFFFFFFFFF1010FFFFFFFFFFFF05
:1013D600FFFFFFFFFFFFFFFFFFFFFFFFFFFFFFFF17
:1013E600FFFFFFFFFFFFFFFFFFFFFFFFFFFFFFFF07
:1013F600FFFFFFFFFFFFFFFFFFFFFFFFFFFFFFFFF7
:10140600FFFFFFFFFFFFFFFFFFFFFFFFFFFFFFFFE6
:10141600FFFFFFFFFFFFFFFFFFFFFFFFFFFFFFFFD6
:10142600FFFFFFFFFFFFFFFFFFFFFFFFFFFFFFFFC6
:10143600FFFFFFFFFFFFFFFFFFFFFFFFFFFFFFFFB6
:10144600FFFFFFFFFFFFFFFFFFFF1010FFFFFFFF84
:10145600FFFFFFFFFFFFFFFFFFFFFFFFFFFFFFFF96
:10146600FFFFFFFFFFFFFFFFFFFFFFFFFFFFFFFF86
:10147600FFFFFFFFFFFFFFFFFFFFFFFFFFFFFFFF76
:10148600FFFFFFFFFFFFFFFFFFFFFFFFFFFFFFFF66
:10149600FFFFFFFFFFFFFFFFFFFFFFFFFFFFFFFF56
:1014A600FFFFFFFFFFFFFFFFFFFFFFFFFFFFFFFF46
:1014B600FFFFFFFFFFFFFFFFFFFFFFFFFFFFFFFF36
:1014C600FFFFFFFFFFFFFFFFFFFFFFFF1010FFFF04
:1014D600FFFFFFFFFFFFFFFFFFFFFFFFFFFFFFFF16
:1014E600FFFFFFFFFFFFFFFFFFFFFFFFFFFFFFFF06
:1014F600FFFFFFFFFFFFFFFFFFFFFFFFFFFFFFFFF6
:10150600FFFFFFFFFFFFFFFFFFFFFFFFFFFFFFFFE5
:10151600FFFFFFFFFFFFFFFFFFFFFFFFFFFFFFFFD5
:10152600FFFFFFFFFFFFFFFFFFFFFFFFFFFFFFFFC5
:10153600FFFFFFFFFFFFFFFFFFFFFFFFFFFFFFFFB5
:10154600FFFFFFFFFFFFFFFFFFFFFFFFFFFF101083
:10155600FFFFFFFFFFFFFFFFFFFFFFFFFFFFFFFF95
:10156600FFFFFFFFFFFFFFFFFFFFFFFFFFFFFFFF85
:10157600FFFFFFFFFFFFFFFFFFFFFFFFFFFFFFFF75
:10158600FFFFFFFFFFFFFFFFFFFFFFFFFFFFFFFF65
:10159600FFFFFFFFFFFFFFFFFFFFFFFFFFFFFFFF55
:1015A600FFFFFFFFFFFFFFFFFFFFFFFFFFFFFFFF45
:1015B600FFFFFFFFFFFFFFFFFFFFFFFFFFFFFFFF35
:1015C600FFFFFFFFFFFFFFFFFFFFFFFFFFFFFFFF25
:1015D6001010FFFFFF0000FFFFFFFFFFF000000FEE
:1015E600FFFFFFFF00222200FFFFFFFF0022220075
:1015F600FFFFFFF0022002200FFFFFF00220022073
:101606000FFFFF002200002200FFFF00220FF02242
:1016160000FFF002200FF002200FF002200000026F
:10162600200F00222222222222000022222222220F
:1016360022000022000000002200002200FFFF001E
:101646002200002200FFFF002200000000FFFF0032
:101656000000101000000000000000FF02222222FD
:101666002222000F02222222222220000002200033
:1016760000222200F00220FFF0022200F00220FFEA
:10168600F0022200F00220000022200FF0022222A7
:10169600222200FFF0022222222200FFF002200076
:1016A6000022200FF00220FFF0022200F00220FFAD
:1016B600F002220000022000002222000222222242
:1016C60022222000022222222222000F00000000F5
:1016D600000000FF10101010101010101010101045
:0A16E600101010101010101010105A
:0598F000E4789DF22266
:0598F500789DEFF22256
:0A710B0078B4EFF208ECF208EDF2A0
:1071150078B4E2FF25E0F2E22408F278BBF278B514
:10712500E2FE08E27803C333CE33CED8F979B6F35D
:10713500EE19F378B6E22408F218E23400F2AF0350
:107145007E007C017D02124E3374262FF974003EB9
:10715500FA78BC74FFF208EAF208E9F278BCE2FBBF
:107165000808E2F92401F218E2FA3400F2124DDBC4
:1071750078B7F278BCE2FB0808E2F92401F218E2DC
:10718500FA3400F2124DDB78B8F2E408F278B7E28F
:10719500FF78B9E2C39F400302730CE408F278B8A4
:1071A500E2FF78BAE2C39F40030272F378BCE2FBC8
:1071B50008E2FA08E2F9124DDBFF789DE22F78DD4F
:1071C500F2E4FB7D02FF12934878BCE2FB08E2FA89
:1071D50008E2F9900001124DF4FF789DE22F78DD69
:1071E500F27B017D02E4FF12934878BCE2FB08E2E2
:1071F500FA08E2F9900002124DF4FF789DE22F782B
:10720500DDF27B027D02E4FF12934878BCE2FB08C5
:10721500E2FA08E2F9900003124DF4FF789DE22F9F
:1072250078DDF27B037D02E4FF12934878DD7480FC
:10723500F27B047D02E4FF12934878BEE22404F257
:1072450018E23400F278BBE278DDF27B057D02E4DA
:10725500FF12934878B508E278DDF27B077D02E4FA
:10726500FF12934878B5E27E007802C333CE33CE61
:10727500D8F978DDF27B097D02E4FF1293487B0A99
:107285007D02E4FF129386EF543F448078DDF27B64
:107295000A7D02E4FF1293487B0A7D02E4FF129304
:1072A50086EF20E7F378B5E225E025E0440878DDB0
:1072B500F27B097D02E4FF1293487B0A7D02E4FF1D
:1072C500129386EF543F448078DDF27B0A7D02E419
:1072D500FF1293487B0A7D02E4FF129386EF20E7B5
:1072E500F378BBE204F218E22404F20271A378B445
:1072F500E278BBF278B6E22401F218E23400F278C3
:07730500B9E204F2027192EB
:01730C00225E
:0A8B830078ADEFF208EDF208EBF216
:108B8D0008E2FB08E2FA08E2F912000E78B3EFF200
:108B9D00C364809480404D78ADE230E03A78AEE227
:108BAD00FF08E2FD7C0008E2FB08E2FA08E2F91298
:108BBD004DDBFB12710B78B3E214F218E22401F2D3
:108BCD0018E23400F278AEE22402F278B3E2D36414
:108BDD0080948050C8800A78B3E2D364809480502A
:048BED00F6129900E3
:018BF1002261
:109694000500000600000700000800000900000A99
:1096A400000012000020000B000C000D000E000052
:0398D9000121006A
:108D5C00127D911298F07F041298FA7F031298FDFD
:108D6C00E4F527AF2712959678AEE4F2087426F254
:108D7C007B5AE4FDFCFF12811D0527E527C39406F1
:108D8C0040E17F011290E47FFF1298FD7F0812955D
:108D9C009678AEE4F2087426F27B5AE4FDFCFF12DE
:068DAC00811DE47853F282
:018DB200229E
:102D720078AAEBF208EAF208E9F27F021298FA7FE7
:102D8200FF1298FD7855E2124F3D2DBA112DD02138
:102D92002E38222E84312F06332F8A3430284130A8
:102DA200FC91312DA13197A23201B132A1B333414D
:102DB200B433E1C1000034B678AAE2FB08E2FA08B3
:102DC200E2F9124DDB20E1030234B602310F78AA98
:102DD200E2FB08E2FA08E2F9124DDB30E123785611
:102DE200E275F003A42494F9749635F0FA78B0747D
:102DF200FFF208EAF208E9F2E4FB7D297F01128B77
:102E02008378AAE2FB08E2FA08E2F9900001124D87
:102E1200F420E1030234B67857E275F003A4249457
:102E2200F9749635F0FA78B074FFF208EAF208E91C
:102E3200F27B0F02319278AAE2FB08E2FA08E2F989
:102E4200124DDB30E1237856E275F003A42494F9A5
:102E5200749635F0FA78B074FFF208EAF208E9F2F3
:102E6200E4FB7D147F01128B8378AAE2FB08E2FA6D
:102E720008E2F9900001124DF420E1030234B60297
:102E820031E078AAE2FB08E2FA08E2F9124DDB30FF
:102E9200E1237856E275F003A42494F9749635F090
:102EA200FA78B074FFF208EAF208E9F2E4FB7D294D
:102EB2007F01128B8378AAE2FB08E2FA08E2F9901A
:102EC2000001124DF430E1237857E275F003A42497
:102ED20094F9749635F0FA78B074FFF208EAF208C1
:102EE200E9F27B0F7D147F01128B8378AAE2FB0843
:102EF200E2FA08E2F9900002124DF420E1030234F2
:102F0200B6022F8578AAE2FB08E2FA08E2F9124D2E
:102F1200DB30E1237856E275F003A42494F9749629
:102F220035F0FA78B074FFF208EAF208E9F2E4FB4D
:102F32007D147F01128B8378AAE2FB08E2FA08E291
:102F4200F9900001124DF430E1237857E275F00355
:102F5200A42494F9749635F0FA78B074FFF208EA72
:102F6200F208E9F2E4FB7D3E7F01128B8378AAE24C
:102F7200FB08E2FA08E2F9900002124DF420E103A4
:102F82000234B678580230DF78AAE2FB08E2FA0887
:102F9200E2F9124DDB30E1237856E275F003A42406
:102FA20094F9749635F0FA78B074FFF208EAF208F0
:102FB200E9F2E4FB7D147F01128B8378AAE2FB081D
:102FC200E2FA08E2F9900001124DF430E123785759
:102FD200E275F003A42494F9749635F0FA78B0748B
:102FE200FFF208EAF208E9F2E4FB7D3E7F01128B70
:102FF2008378AAE2FB08E2FA08E2F9900002124D95
:10300200F420E1030234B67858E275F003A4249464
:10301200F9749635F0FA78B074FFF208EAF208E92A
:10302200F27B0F0233DC78AAE2FB08E2FA08E2F94B
:10303200124DDB30E1237856E275F003A42494F9B3
:10304200749635F0FA78B074FFF208EAF208E9F201
:10305200E4FB7D147F01128B8378AAE2FB08E2FA7B
:1030620008E2F9900001124DF430E1237857E2753D
:10307200F003A42494F9749635F0FA78B074FFF250
:1030820008EAF208E9F2E4FB7D3E7F01128B8378C5
:10309200AAE2FB08E2FA08E2F9900002124DF430CB
:1030A200E1237858E275F003A42494F9749635F07C
:1030B200FA78B074FFF208EAF208E9F27B0F7D14A5
:1030C2007F01128B8378AAE2FB08E2FA08E2F99008
:1030D2000003124DF420E1030234B67859E275F090
:1030E20003A42494F9749635F0FA78B074FFF208C8
:1030F200EAF208E9F27B0F0231FC78AAE2FB08E26D
:10310200FA08E2F9124DDB20E1030234B67856E206
:1031120075F003A42494F9749635F0FA78B074FF2C
:10312200F208EAF208E9F2E4FB806578AAE2FB0819
:10313200E2FA08E2F9124DDB30E1237856E275F04B
:1031420003A42494F9749635F0FA78B074FFF20867
:10315200EAF208E9F2E4FB7D297F01128B8378AA67
:10316200E2FB08E2FA08E2F9900001124DF420E1D4
:10317200030234B67857E275F003A42494F97496E6
:1031820035F0FA78B074FFF208EAF208E9F27B123D
:103192007D290234B178AAE2FB08E2FA08E2F912C8
:1031A2004DDB30E1237856E275F003A42494F974E0
:1031B2009635F0FA78B074FFF208EAF208E9F2E420
:1031C200FB7D147F01128B8378AAE2FB08E2FA08E6
:1031D200E2F9900001124DF420E1030234B678576F
:1031E200E275F003A42494F9749635F0FA78B07479
:1031F200FFF208EAF208E9F2E4FB7D3E0234B1781C
:10320200AAE2FB08E2FA08E2F9124DDB30E1237888
:1032120056E275F003A42494F9749635F0FA78B066
:1032220074FFF208EAF208E9F2E4FB7D297F011259
:103232008B8378AAE2FB08E2FA08E2F99000011215
:103242004DF430E1237857E275F003A42494F97425
:103252009635F0FA78B074FFF208EAF208E9F27BE8
:10326200127D147F01128B8378AAE2FB08E2FA082E
:10327200E2F9900002124DF420E1030234B67858CC
:10328200E275F003A42494F9749635F0FA78B074D8
:10329200FFF208EAF208E9F27B127D3E0234B178CD
:1032A200AAE2FB08E2FA08E2F9124DDB30E12378E8
:1032B20056E275F003A42494F9749635F0FA78B0C6
:1032C20074FFF208EAF208E9F2E4FB7D147F0112CE
:1032D2008B8378AAE2FB08E2FA08E2F99000011275
:1032E2004DF430E1237857E275F003A42494F97485
:1032F2009635F0FA78B074FFF208EAF208E9F2E4DF
:10330200FB7D3E7F01128B8378AAE2FB08E2FA087A
:10331200E2F9900002124DF420E1030234B678582B
:10332200E275F003A42494F9749635F0FA78B07437
:10333200FFF208EAF208E9F27B127D3E0234B1782C
:10334200AAE2FB08E2FA08E2F9124DDB30E1237847
:1033520056E275F003A42494F9749635F0FA78B025
:1033620074FFF208EAF208E9F2E4FB7D147F01122D
:103372008B8378AAE2FB08E2FA08E2F990000112D4
:103382004DF430E1237857E275F003A42494F974E4
:103392009635F0FA78B074FFF208EAF208E9F2E43E
:1033A200FB7D3E7F01128B8378AAE2FB08E2FA08DA
:1033B200E2F9900002124DF420E1030234B678588B
:1033C200E275F003A42494F9749635F0FA78B07497
:1033D200FFF208EAF208E9F27B127D140234B178B6
:1033E200AAE2FB08E2FA08E2F9124DDB30E12378A7
:1033F20056E275F003A42494F9749635F0FA78B085
:1034020074FFF208EAF208E9F2E4FB7D147F01128C
:103412008B8378AAE2FB08E2FA08E2F99000011233
:103422004DF430E1237857E275F003A42494F97443
:103432009635F0FA78B074FFF208EAF208E9F2E49D
:10344200FB7D3E7F01128B8378AAE2FB08E2FA0839
:10345200E2F9900002124DF430E1237858E275F05F
:1034620003A42494F9749635F0FA78B074FFF20844
:10347200EAF208E9F27B127D147F01128B8378AAAB
:10348200E2FB08E2FA08E2F9900003124DF430E19F
:10349200237859E275F003A42494F9749635F0FA6E
:1034A20078B074FFF208EAF208E9F27B127D3E7FFF
:0534B20001128B8322D2
:0798DD007854E24480F222FE
:1091FD007B787D01E4FF129386EF540FFF7868F2C0
:10920D007854E26F602ED2217B31E4FDFF129386FC
:10921D00EF547F78DDF27B31E4FDFF1293487F4DF3
:10922D001298FA7F401298F51225901298F07868EE
:05923D00E27854F2226A
:0A6AD70078AAEBF208EAF208E9F2EF
:106AE1007F411298FA7855E2124F3D6B14116B31C8
:106AF100216B9E226C0E316C5A336CA4346B149151
:106B01006B31A16B9EA26C0EB16C5AB36CA4B40034
:106B1100006CF578AAE2FB08E2FA08E2F9124DDB13
:106B2100540C1313543FF5276003026C25026C507B
:106B310078AAE2FB08E2FA08E2F9124DDB540C13E1
:106B410013543FF527602F7B02E4FDFCFF128227DF
:106B5100E52725E0FFE433FE74A92FF974963EFA88
:106B610078B074FFF208EAF208E9F2E4FB7D1C7FD9
:106B710001128B83800A7B01E4FDFC7F1C128227BA
:106B810078AAE2FB08E2FA08E2F9900001124DF45A
:106B9100540C1313543FF5276070026CBE78AAE2BF
:106BA100FB08E2FA08E2F9124DDB540C1313543FCF
:106BB100F527602F7B02E4FDFCFF128227E52725E4
:106BC100E0FFE433FE74A92FF974963EFA78B074AD
:106BD100FFF208EAF208E9F2E4FB7D1C7F01128B67
:106BE10083800A7B01E4FDFC7F1C12822778AAE2E4
:106BF100FB08E2FA08E2F9900001124DF4540C137B
:106C010013543FF5276003026CBE026CEB78AAE2D5
:106C1100FB08E2FA08E2F9124DDB540C1313543F5E
:106C2100F527602B7B02E4FDFCFF128227E5272577
:106C3100E0FFE433FE74A92FF974963EFA78B0743C
:106C4100FFF208EAF208E9F2E4FB7D31026CE67B2F
:106C510001E4FDFC7F31026CF278AAE2FB08E2FA62
:106C610008E2F9124DDB540C1313543FF527602A47
:106C71007B02E4FDFCFF128227E52725E0FFE433D8
:106C8100FE74A92FF974963EFA78B074FFF208EAFF
:106C9100F208E9F2E4FB7D1C804B7B01E4FDFC7F03
:106CA1001C804E78AAE2FB08E2FA08E2F9900001A2
:106CB100124DF4540C1313543FF527602D7B02E45D
:106CC100FDFCFF128227E52725E0FFE433FE74A9CE
:106CD1002FF974963EFA78B074FFF208EAF208E9E7
:106CE100F2E4FB7D467F01028B837B01E4FDFC7FA7
:046CF100461282279E
:016CF500227C
:103BDC0078AAEBF208EAF208E9F27F0C1298FA786C
:103BEC0055E2124F3D3C1F113C35213C8F223CDAF3
:103BFC00313D5B333DDB343E6E413F37913F5FA13E
:103C0C003FC3A24026B140C0B34159B441F2C100F8
:103C1C000042C378AAE2FB08E2FA08E2F9124DDB93
:103C2C0030E003023F47023F5878AAE2FB08E2FA71
:103C3C0008E2F9124DDB30E01878B074FFF208742A
:103C4C0096F20874A0F2E4FB7D2C7F01128B83802A
:103C5C000A7B01E4FDFC7F2C12822778AAE2FB0888
:103C6C00E2FA08E2F9900001124DF430E01278B05B
:103C7C0074FFF2087496F20874A0F27B0F023FB343
:103C8C00023FB878AAE2FB08E2FA08E2F9124DDB2F
:103C9C0030E01878B074FFF2087496F20874A0F251
:103CAC00E4FB7D177F01128B83800A7B01E4FDFC12
:103CBC007F1712822778AAE2FB08E2FA08E2F99051
:103CCC000001124DF430E00302400802401C78AAB7
:103CDC00E2FB08E2FA08E2F9124DDB30E01878B0AA
:103CEC0074FFF2087496F20874A0F2E4FB7D2C7F4A
:103CFC0001128B83800A7B01E4FDFC7F2C1282274E
:103D0C0078AAE2FB08E2FA08E2F9900001124DF4FD
:103D1C0030E01878B074FFF2087496F20874A0F2D0
:103D2C007B0F7D177F01128B83800B7B017D0F7CBA
:103D3C00007F1712822778AAE2FB08E2FA08E2F960
:103D4C00900002124DF430E003023F1E023F307827
:103D5C00AAE2FB08E2FA08E2F9124DDB30E018782F
:103D6C00B074FFF2087496F20874A0F2E4FB7D17AD
:103D7C007F01128B83800A7B01E4FDFC7F1712828A
:103D8C002778AAE2FB08E2FA08E2F9900001124D4A
:103D9C00F430E01878B074FFF2087496F20874A04E
:103DAC00F2E4FB7D417F01128B83800A7B01E4FDF1
:103DBC00FC7F4112822778AAE2FB08E2FA08E2F9BA
:103DCC00900002124DF430E003023F1E023F3078A7
:103DDC00AAE2FB08E2FA08E2F9124DDB30E01878AF
:103DEC00B074FFF2087496F20874A0F2E4FB7D172D
:103DFC007F01128B83800A7B01E4FDFC7F1712820A
:103E0C002778AAE2FB08E2FA08E2F9900001124DC9
:103E1C00F430E01878B074FFF2087496F20874A0CD
:103E2C00F2E4FB7D417F01128B83800A7B01E4FD70
:103E3C00FC7F4112822778AAE2FB08E2FA08E2F939
:103E4C00900002124DF430E01278B074FFF2087456
:103E5C0096F20874A0F27B0F0241E27B017D0F0207
:103E6C0041EB78AAE2FB08E2FA08E2F9124DDB30EA
:103E7C00E01878B074FFF2087496F20874A0F2E4BB
:103E8C00FB7D177F01128B83800A7B01E4FDFC7F95
:103E9C001712822778AAE2FB08E2FA08E2F99000EE
:103EAC0001124DF430E01878B074FFF2087496F2F9
:103EBC000874A0F2E4FB7D417F01128B83800A7BA6
:103ECC0001E4FDFC7F4112822778AAE2FB08E2FAAA
:103EDC0008E2F9900002124DF430E01878B074FF4B
:103EEC00F2087496F20874A0F27B0F7D177F011212
:103EFC008B83800B7B017D0F7C007F1712822778D0
:103F0C00AAE2FB08E2FA08E2F9900003124DF43041
:103F1C00E01278B074FFF2087496F20874A0F27B89
:103F2C000F0240177B017D0F0240B978AAE2FB0813
:103F3C00E2FA08E2F9124DDB30E01178B074FFF2CE
:103F4C00087496F20874A0F2E4FB805B7B01E4FD3C
:103F5C00FC805F78AAE2FB08E2FA08E2F9124DDB7A
:103F6C0030E01878B074FFF2087496F20874A0F27E
:103F7C00E4FB7D2C7F01128B83800A7B01E4FDFC2A
:103F8C007F2C12822778AAE2FB08E2FA08E2F99069
:103F9C000001124DF430E01478B074FFF2087496FE
:103FAC00F20874A0F27B127D2C0242B37B017D0FD0
:103FBC007C007F2C0242C078AAE2FB08E2FA08E2FD
:103FCC00F9124DDB30E01878B074FFF2087496F2F9
:103FDC000874A0F2E4FB7D177F01128B83800A7BAF
:103FEC0001E4FDFC7F1712822778AAE2FB08E2FAB3
:103FFC0008E2F9900001124DF430E01478B074FF2F
:10400C00F2087496F20874A0F2E4FB7D410242B30C
:10401C007B01E4FDFC7F410242C078AAE2FB08E28E
:10402C00FA08E2F9124DDB30E01878B074FFF208B0
:10403C007496F20874A0F2E4FB7D2C7F01128B8342
:10404C00800A7B01E4FDFC7F2C12822778AAE2FB1C
:10405C0008E2FA08E2F9900001124DF430E0187809
:10406C00B074FFF2087496F20874A0F27B127D17FC
:10407C007F01128B83800B7B017D127C007F1712DA
:10408C00822778AAE2FB08E2FA08E2F99000021211
:10409C004DF430E01478B074FFF2087496F20874A2
:1040AC00A0F27B127D410242B37B017D127C007F2A
:1040BC00410242C078AAE2FB08E2FA08E2F9124D8A
:1040CC00DB30E01878B074FFF2087496F20874A034
:1040DC00F2E4FB7D177F01128B83800A7B01E4FDE8
:1040EC00FC7F1712822778AAE2FB08E2FA08E2F9B1
:1040FC00900001124DF430E01878B074FFF208749F
:10410C0096F20874A0F2E4FB7D417F01128B838050
:10411C000A7B01E4FDFC7F4112822778AAE2FB08AE
:10412C00E2FA08E2F9900002124DF430E01478B093
:10413C0074FFF2087496F20874A0F27B127D4102AF
:10414C0042B37B017D127C007F410242C078AAE21F
:10415C00FB08E2FA08E2F9124DDB30E01878B07493
:10416C00FFF2087496F20874A0F2E4FB7D177F014D
:10417C00128B83800A7B01E4FDFC7F171282277867
:10418C00AAE2FB08E2FA08E2F9900001124DF430C1
:10419C00E01878B074FFF2087496F20874A0F2E498
:1041AC00FB7D417F01128B83800A7B01E4FDFC7F48
:1041BC004112822778AAE2FB08E2FA08E2F99000A1
:1041CC0002124DF430E01478B074FFF2087496F2D9
:1041DC000874A0F27B127D170242B37B017D127C26
:1041EC00007F170242C078AAE2FB08E2FA08E2F963
:1041FC00124DDB30E01878B074FFF2087496F208B8
:10420C0074A0F2E4FB7D177F01128B83800A7B0183
:10421C00E4FDFC7F1712822778AAE2FB08E2FA0879
:10422C00E2F9900001124DF430E01878B074FFF20E
:10423C00087496F20874A0F2E4FB7D417F01128BA6
:10424C0083800A7B01E4FDFC7F4112822778AAE27D
:10425C00FB08E2FA08E2F9900002124DF430E01883
:10426C0078B074FFF2087496F20874A0F27B127D99
:10427C00177F01128B83800B7B017D127C007F17D3
:10428C0012822778AAE2FB08E2FA08E2F99000030E
:10429C00124DF430E01678B074FFF2087496F20800
:1042AC0074A0F27B127D417F01028B837B017D1216
:0842BC007C007F4112822722E1
:1042C40078AAEBF208EAF208E9F27F021298FA7887
:1042D40055E2124F3D430711431D2143652243B06C
:1042E4003144313344B134454441460D914626A10D
:1042F4004687A246EAB14784B3481DB448B6C10014
:1043040000498778AAE2FB08E2FA08E2F9124DDBD9
:1043140030E40302466802461F78AAE2FB08E2FA88
:1043240008E2F9124DDB30E41878B074FFF2087437
:1043340096F20874B1F2E4FB7D347F01128B838022
:104344000A7B01E4FDFC7F3412822778AAE2FB0891
:10435400E2FA08E2F9124DDB30E403024668024651
:104364007C78AAE2FB08E2FA08E2F9124DDB30E4B9
:104374001878B074FFF2087496F20874B1F2E4FB92
:104384007D1F7F01128B83800A7B01E4FDFC7F1F6C
:1043940012822778AAE2FB08E2FA08E2F990000107
:1043A400124DF430E4030246CC0246E078AAE2FB64
:1043B40008E2FA08E2F9124DDB30E41878B074FF31
:1043C400F2087496F20874B1F2E4FB7D347F0112B2
:1043D4008B83800A7B01E4FDFC7F3412822778AA58
:1043E400E2FB08E2FA08E2F9900001124DF430E42D
:1043F4001878B074FFF2087496F20874B1F27B0F67
:104404007D1F7F01128B83800B7B017D0F7C007FDE
:104414001F12822778AAE2FB08E2FA08E2F9900068
:1044240002124DF430E4030245F402460678AAE28F
:10443400FB08E2FA08E2F9124DDB30E41878B074B4
:10444400FFF2087496F20874B1F2E4FB7D1F7F0159
:10445400128B83800A7B01E4FDFC7F1F1282277884
:10446400AAE2FB08E2FA08E2F9900001124DF430E6
:10447400E41878B074FFF2087496F20874B1F2E4A8
:10448400FB7D497F01128B83800A7B01E4FDFC7F65
:104494004912822778AAE2FB08E2FA08E2F99000BE
:1044A40002124DF430E4030245F402460678AAE20F
:1044B400FB08E2FA08E2F9124DDB30E41878B07434
:1044C400FFF2087496F20874B1F2E4FB7D1F7F01D9
:1044D400128B83800A7B01E4FDFC7F1F1282277804
:1044E400AAE2FB08E2FA08E2F9900001124DF43066
:1044F400E41878B074FFF2087496F20874B1F2E428
:10450400FB7D497F01128B83800A7B01E4FDFC7FE4
:104514004912822778AAE2FB08E2FA08E2F990003D
:1045240002124DF430E41278B074FFF2087496F27B
:104534000874B1F27B0F0248A67B017D0F0248AFDD
:1045440078AAE2FB08E2FA08E2F9124DDB30E4183B
:1045540078B074FFF2087496F20874B1F2E4FB7D4B
:104564001F7F01128B83800A7B01E4FDFC7F1F12F5
:10457400822778AAE2FB08E2FA08E2F99000011225
:104584004DF430E41878B074FFF2087496F20874AD
:10459400B1F2E4FB7D497F01128B83800A7B01E445
:1045A400FDFC7F4912822778AAE2FB08E2FA08E2BE
:1045B400F9900002124DF430E41878B074FFF20858
:1045C4007496F20874B1F27B0F7D1F7F01128B8306
:1045D400800B7B017D0F7C007F1F12822778AAE26B
:1045E400FB08E2FA08E2F9900003124DF430E412F9
:1045F40078B074FFF2087496F20874B1F27B0F027B
:1046040046DB7B017D0F02477D78AAE2FB08E2FAD4
:1046140008E2F9124DDB30E40280497B01E4FDFC41
:10462400805C78AAE2FB08E2FA08E2F9124DDB307A
:10463400E41878B074FFF2087496F20874B1F2E4E6
:10464400FB7D347F01128B83800A7B01E4FDFC7FB8
:104654003412822778AAE2FB08E2FA08E2F9124D42
:10466400DB30E41478B074FFF2087496F20874B185
:10467400F2E4FB7D340249777B017D0F7C007F34BB
:1046840002498478AAE2FB08E2FA08E2F9124DDB57
:1046940030E41878B074FFF2087496F20874B1F23A
:1046A400E4FB7D1F7F01128B83800A7B01E4FDFC08
:1046B4007F1F12822778AAE2FB08E2FA08E2F99047
:1046C4000001124DF430E41478B074FFF2087496CB
:1046D400F20874B1F2E4FB7D490249777B01E4FD01
:1046E400FC7F4902498478AAE2FB08E2FA08E2F96D
:1046F400124DDB30E41878B074FFF2087496F208B7
:1047040074B1F2E4FB7D347F01128B83800A7B0158
:10471400E4FDFC7F3412822778AAE2FB08E2FA085F
:10472400E2F9900001124DF430E41878B074FFF20D
:10473400087496F20874B1F27B127D1F7F01128B0C
:1047440083800B7B017D127C007F1F12822778AA55
:10475400E2FB08E2FA08E2F9900002124DF430E4B8
:104764001478B074FFF2087496F20874B1F27B12F4
:104774007D490249777B017D127C007F490249848F
:1047840078AAE2FB08E2FA08E2F9124DDB30E418F9
:1047940078B074FFF2087496F20874B1F2E4FB7D09
:1047A4001F7F01128B83800A7B01E4FDFC7F1F12B3
:1047B400822778AAE2FB08E2FA08E2F990000112E3
:1047C4004DF430E41878B074FFF2087496F208746B
:1047D400B1F2E4FB7D497F01128B83800A7B01E403
:1047E400FDFC7F4912822778AAE2FB08E2FA08E27C
:1047F400F9900002124DF430E41478B074FFF2081A
:104804007496F20874B1F27B127D490249777B01F8
:104814007D127C007F4902498478AAE2FB08E2FA0F
:1048240008E2F9124DDB30E41878B074FFF2087432
:1048340096F20874B1F2E4FB7D1F7F01128B838032
:104844000A7B01E4FDFC7F1F12822778AAE2FB08A1
:10485400E2FA08E2F9900001124DF430E41878B05D
:1048640074FFF2087496F20874B1F2E4FB7D497F98
:1048740001128B83800A7B01E4FDFC7F49128227AD
:1048840078AAE2FB08E2FA08E2F9900002124DF479
:1048940030E41478B074FFF2087496F20874B1F23C
:1048A4007B127D1F0249777B017D127C007F1F02F2
:1048B400498478AAE2FB08E2FA08E2F9124DDB30F7
:1048C400E41878B074FFF2087496F20874B1F2E454
:1048D400FB7D1F7F01128B83800A7B01E4FDFC7F3B
:1048E4001F12822778AAE2FB08E2FA08E2F9900094
:1048F40001124DF430E41878B074FFF2087496F2A3
:104904000874B1F2E4FB7D497F01128B83800A7B3A
:1049140001E4FDFC7F4912822778AAE2FB08E2FA4F
:1049240008E2F9900002124DF430E41878B074FFF4
:10493400F2087496F20874B1F27B127D1F7F0112A3
:104944008B83800B7B017D127C007F1F1282277872
:10495400AAE2FB08E2FA08E2F9900003124DF430EF
:10496400E41678B074FFF2087496F20874B1F27B1E
:10497400127D497F01028B837B017D127C007F497C
:044984001282272252
:102590007868E2FD7854E26DF52508E2124F3D259A
:1025A000C71125F922266F3127253327DB342891DF
:1025B0004129879129C3A22A3FB12AFBB32BB7B483
:1025C0002C73C100002D717856E2FF74017E00A8C3
:1025D00007088005C333CE33CED8F9FFEF5D601214
:1025E00078B074FFF2087496F20874B3F27B0D02AF
:1025F00029B37B057D0D0229BC7856E2FF74017E6C
:1026000000A807088005C333CE33CED8F9FF786819
:10261000E2FDEF5D601878B074FFF2087496F2087E
:1026200074B3F27B0D7D107F01128B83800B7B05D1
:102630007D0D7C007F101282277857E2FF74017EA7
:1026400000A807088005C333CE33CED8F9FF7868D9
:10265000E2FDEF5D601278B074FFF2087496F20844
:1026600074B3F27B0D022A2F7B057D0D022A387888
:1026700056E2FF74017E00A807088005C333CE33FD
:10268000CED8F9FF7868E2FDEF5D601878B074FF8E
:10269000F2087496F20874B3F27B077D257F01126D
:1026A0008B83800B7B057D077C007F25128227783A
:1026B00057E2FF74017E00A807088005C333CE33BC
:1026C000CED8F9FF7868E2FDEF5D601878B074FF4E
:1026D000F2087496F20874B3F27B157D107F011234
:1026E0008B83800B7B057D157C007F101282277801
:1026F00058E2FF74017E00A807088005C333CE337B
:10270000CED8F9FF7868E2FDEF5D601278B074FF13
:10271000F2087496F20874B3F27B15022A2F7B0537
:102720007D15022A387856E2FF74017E00A807085A
:102730008005C333CE33CED8F9FF7868E2FDEF5D74
:10274000601878B074FFF2087496F20874B3F27BE4
:102750000D7D107F01128B83800B7B057D0D7C002E
:102760007F101282277857E2FF74017E00A80708C5
:102770008005C333CE33CED8F9FF7868E2FDEF5D34
:10278000601878B074FFF2087496F20874B3F27BA4
:10279000077D3A7F01128B83800B7B057D077C00D0
:1027A0007F3A1282277858E2FF74017E00A807085A
:1027B0008005C333CE33CED8F9FF7868E2FDEF5DF4
:1027C000601278B074FFF2087496F20874B3F27B6A
:1027D00015022A2F7B057D15022A387856E2FF74F0
:1027E000017E00A807088005C333CE33CED8F9FF99
:1027F0007868E2FDEF5D601878B074FFF2087496B7
:10280000F20874B3F27B077D107F01128B83800B7B
:102810007B057D077C007F101282277857E2FF74CA
:10282000017E00A807088005C333CE33CED8F9FF58
:102830007868E2FDEF5D601878B074FFF208749676
:10284000F20874B3F27B0D7D3A7F01128B83800B0B
:102850007B057D0D7C007F3A1282277858E2FF7459
:10286000017E00A807088005C333CE33CED8F9FF18
:102870007868E2FDEF5D601278B074FFF20874963C
:10288000F20874B3F27B15022C637B057D15022CD4
:102890006C7856E2FF74017E00A807088005C333F8
:1028A000CE33CED8F9FF7868E2FDEF5D601878B0DE
:1028B00074FFF2087496F20874B3F27B077D107F00
:1028C00001128B83800B7B057D077C007F101282B9
:1028D000277857E2FF74017E00A807088005C333FC
:1028E000CE33CED8F9FF7868E2FDEF5D601878B09E
:1028F00074FFF2087496F20874B3F27B077D3A7F96
:1029000001128B83800B7B057D077C007F3A12824E
:10291000277858E2FF74017E00A807088005C333BA
:10292000CE33CED8F9FF7868E2FDEF5D601878B05D
:1029300074FFF2087496F20874B3F27B157D107F71
:1029400001128B83800B7B057D157C007F1012822A
:10295000277859E2FF74017E00A807088005C33379
:10296000CE33CED8F9FF7868E2FDEF5D601278B023
:1029700074FFF2087496F20874B3F27B15022A2FE2
:102980007B057D15022A387856E2FF74017E00A887
:1029900007088005C333CE33CED8F9FF7868E2FD4F
:1029A000EF5D601478B074FFF2087496F20874B3A7
:1029B000F27B107D25022D617B057D107C007F253B
:1029C000022D6E7856E2FF74017E00A8070880058C
:1029D000C333CE33CED8F9FF7868E2FDEF5D6018DF
:1029E00078B074FFF2087496F20874B3F27B107D2D
:1029F000107F01128B83800B7B057D107C007F1084
:102A00001282277857E2FF74017E00A8070880052C
:102A1000C333CE33CED8F9FF7868E2FDEF5D6014A2
:102A200078B074FFF2087496F20874B3F27B107DEC
:102A30003A022D617B057D107C007F3A022D6E7875
:102A400056E2FF74017E00A807088005C333CE3329
:102A5000CED8F9FF7868E2FDEF5D601878B074FFBA
:102A6000F2087496F20874B3F27B087D257F011298
:102A70008B83800B7B057D087C007F251282277865
:102A800057E2FF74017E00A807088005C333CE33E8
:102A9000CED8F9FF7868E2FDEF5D601878B074FF7A
:102AA000F2087496F20874B3F27B197D107F01125C
:102AB0008B83800B7B057D197C007F101282277829
:102AC00058E2FF74017E00A807088005C333CE33A7
:102AD000CED8F9FF7868E2FDEF5D601478B074FF3E
:102AE000F2087496F20874B3F27B197D3A022D61F4
:102AF0007B057D197C007F3A022D6E7856E2FF74CB
:102B0000017E00A807088005C333CE33CED8F9FF75
:102B10007868E2FDEF5D601878B074FFF208749693
:102B2000F20874B3F27B0D7D107F01128B83800B52
:102B30007B057D107C007F101282277857E2FF749E
:102B4000017E00A807088005C333CE33CED8F9FF35
:102B50007868E2FDEF5D601878B074FFF208749653
:102B6000F20874B3F27B087D3A7F01128B83800BED
:102B70007B057D087C007F3A1282277858E2FF743B
:102B8000017E00A807088005C333CE33CED8F9FFF5
:102B90007868E2FDEF5D601478B074FFF208749617
:102BA000F20874B3F27B197D3A022D617B057D1921
:102BB0007C007F3A022D6E7856E2FF74017E00A8F9
:102BC00007088005C333CE33CED8F9FF7868E2FD1D
:102BD000EF5D601878B074FFF2087496F20874B371
:102BE000F27B087D107F01128B83800B7B057D08B3
:102BF0007C007F101282277857E2FF74017E00A8C4
:102C000007088005C333CE33CED8F9FF7868E2FDDC
:102C1000EF5D601878B074FFF2087496F20874B330
:102C2000F27B107D3A7F01128B83800B7B057D1038
:102C30007C007F3A1282277858E2FF74017E00A858
:102C400007088005C333CE33CED8F9FF7868E2FD9C
:102C5000EF5D601478B074FFF2087496F20874B3F4
:102C6000F27B197D10022D617B057D197C007F10A0
:102C7000022D6E7856E2FF74017E00A807088005D9
:102C8000C333CE33CED8F9FF7868E2FDEF5D60182C
:102C900078B074FFF2087496F20874B3F27B087D82
:102CA000107F01128B83800B7B057D087C007F10D9
:102CB0001282277857E2FF74017E00A8070880057A
:102CC000C333CE33CED8F9FF7868E2FDEF5D6018EC
:102CD00078B074FFF2087496F20874B3F27B087D42
:102CE0003A7F01128B83800B7B057D087C007F3A45
:102CF0001282277858E2FF74017E00A80708800539
:102D0000C333CE33CED8F9FF7868E2FDEF5D6018AB
:102D100078B074FFF2087496F20874B3F27B197DF0
:102D2000107F01128B83800B7B057D197C007F1047
:102D30001282277859E2FF74017E00A807088005F7
:102D4000C333CE33CED8F9FF7868E2FDEF5D60166D
:102D500078B074FFF2087496F20874B3F27B197DB0
:102D60003A7F01028B837B057D197C007F3A1282BA
:012D7000273B
:012D7100223F
:10904E00E4FF1295967853E224FE601B04703D7F78
:10905E00031298FD7F041298FA78B074FFF2087428
:10906E0096F20874A380167F031298FD7F0412985F
:10907E00FA78B074FFF2087496F20874A6F2E4FB64
:0D908E007D017F01128B837FFF1298FD2270
:10949800E4FF129596785BE230E11B7BFE7A007957
:1094A8005B123BDC7BFE7A00795B1242C47BFE7A5E
:0E94B80000795B126AD71298DDE4FF0290E49F
:1016F00000000000000000000000000000000000EA
:1017000000000000000000000000000000000000D9
:10171000003E007E00FE01CE038E7F8E7F8E738E94
:10172000738E738E7F8E7F8E01CE00FE007E003E14
:1017300000000000020006000E001E003FFE7FFEBB
:101740007FFE3FFE1E000E000600020000000000AB
:101750000000000000400060007000787FFC7FFE09
:101760007FFE7FFC007800700060004000000000F9
:10177000000003C003C003C003C003C003C003C014
:1017800003C03FFC1FF80FF007E003C0018000001A
:1017900003C003C007E007E00E700E701C381C3851
:1017A000381C381C7FFE7FFE700E700E700E700E9F
:1017B0007FF87FFC383E381E381E381E383C3FF814
:1017C0003FF8383C381E381E381E383E7FFC7FF804
:1017D0000FF81FFC3C1C380E780E700E7000700065
:1017E00070007000700E700E380E3C1C1FFC0FF85D
:1017F0007FF07FF07078703C703C703C70787FF0C8
:101800007FE0778073C071E070F07078703C701E7C
:1018100000006006700E781E7C3E7FFE77EE73CE71
:10182000718E700E700E700E700E700E700E700E47
:1018300000001FF81FF800E000E000E000E000E01A
:1018400000E000E000E070E079E03FC01F800F00A2
:1018500000000000000003C007800F001E003FFCD6
:101860003FFC1E000F00078003C0000000000000C6
:1018700000000000000003C001E000F000783FFC21
:101880003FFC007800F001E003C000000000000011
:1018900000000000018001800180018011881998FA
:1018A0001DB81FF80FF007E003C001800000000022
:1018B000003E007E00FE01CE038E7F8E7F8E738EF3
:1018C000738E738E7F8E7F8E01CE00FE007E003E73
:1018D000700E700E700E700E700E700E781E381C2A
:1018E000381C1C381C380E700FF007E003C0018054
:1018F0000000380038003800380038003800380060
:1019000038003800380038063806380E3FFE3FFEF3
:101910000000000000000000000003800FE01C70C9
:10192000183038383838383818301C700FE00380D9
:101930000000000000000000000003C00FF01C3891
:101940001C000F0007E000F000381C380FF003C047
:101950000000000000000000000000000000000087
:101960000000000000000000000000000000000077
:101970000000000000000000000000000000000067
:101980000000000000000000000000000000000057
:101990000000000000000000000000000000000047
:1019A0000000000000000000000000000000000037
:1019B0000000000000000000000000000000000027
:1019C0000000000000000000000000000000000017
:1019D0000000000000000000000000000000000007
:1019E00000000000000000000000000000000000F7
:1019F00000000000000000000000000000000000E7
:101A000000000000000000000000000000000000D6
:101A100000000000000000000000000000000000C6
:101A200000000000000000000000000000000000B6
:101A300000000000000000000000000000000000A6
:101A40000000000000000000000000000000000096
:101A50000000000000000000000000000000000086
:101A60000000000000000000000000000000000076
:101A70000000000000000000000000000000000066
:101A80000000000000000000000000000000000056
:101A90000000000000000000000000000000000046
:101AA0000000000000000000000000000000000036
:101AB0000000000000000000000000000000000026
:101AC0000000000000000000000000000000000016
:101AD0000000000000000000000000000000000006
:101AE00000000000000000000000000000000000F6
:101AF00000000000000000000000000000000000E6
:101B000000000000000000000000000000000000D5
