:03000000027DA1DD
:0C7DA100787FE4F6D8FD758135027DE89E
:108D6500D2BCD2AC758DF4D28EE47850F208F222E2
:0F8D75007850E2FF08E2B507037F00227F01225A
:108C4D00C2AC7850E22400F8E2FF7850E204F2E280
:098C5D00C394504002E4F2D2ACD1
:018C660022EB
:080003003099FD8F99C299228A
:03002300028B59F4
:108B5900C0E0C0D075D008309818C2987851E22486
:108B690000F8E599F27851E204F2E2C39450400228
:078B7900E4F2D0D0D0E0329D
:108AE10078ABE2FB08E2FA08E2F9227590F6D2B619
:108AF100D2B77580FFD2AF22AF038F80D293C293DA
:088B010022C2AF7590F6ED22CF
:108A6000128B027006C2B7C2B68012EDB40106C204
:108A7000B7D2B68008EDB40204D2B7C2B6128AF9F2
:0D8A800078D7E2F580C291D291128AEC22E3
:1083FA00AE03128B027006C2B7C2B68012EDB40188
:10840A0006C2B7D2B68008EDB40204D2B7C2B6AF7C
:10841A00060E128AFB78A9E2FB0808E2F92401F2A7
:10842A0018E2FA3400F2124630F580C291D29178FD
:0A843A00ACE214F270D9128AEC22B1
:10890200128B027006C2B7C2B68012EDB40106C263
:10891200B7D2B68008EDB40204D2B7C2B6128AF951
:108922007580FFC292AF80D2927590F6D2B6D2B75E
:02893200D2AFC2
:018934002220
:10820B0078ABEBF208EAF208E9F2128AE112469A2D
:10821B00F47003E5F0F4603E128AE112469AFBAA71
:10822B00F0EAFDE4FF128902128AE1900002124685
:10823B0049FC6F6014128AE112469AFBAAF0EAFD20
:10824B0078D7ECF2E4FF128A6078ADE22403F218DF
:07825B00E23400F280B422BE
:018DFE002252
:105B84002562782025627820256278000A3C523EFE
:105B940025303262785B25303262785D3D253032C3
:105BA40062780025627820256278002562782025B5
:105BB4006278202562782025627820002531627879
:105BC4002025316278202531627820005265616495
:105BD4004173696342797465203D3D2025627820D4
:105BE4000A0063682562643A2562642000636825BC
:105BF40062643A2562642063682562643A256264BB
:105C0400200063682562643A256264206368256223
:105C1400643A2562642063682562643A25626420DC
:105C24000063682562643A256264206368256264BF
:105C34003A2562642063682562643A2562642063BD
:105C4400682562643A256264200063682562643AC8
:105C54002562642063682562643A2562642063686F
:105C64002562643A2562642063682562643A256289
:105C7400642063682562643A2562642000256264B6
:105C840020000A203D3D3D3D3D3D3D3D20504147E6
:105C9400452025623278203D3D3D3D3D3D3D3D3D25
:105CA4003D3D3D3D0A002562327809000A00253158
:105CB4006278202531627820636825316278206318
:105CC400682531627820636825316278206368250D
:105CD4003162782000656E726563616C6C00656E7C
:105CE400667265657A6500656E686D6972726F7259
:105CF40000656E766D6972726F7200656E656E68AE
:105D0400616E636500656E626C616E6B00656E62E8
:105D14006F756E6400656E626C696E6B00646973A6
:105D2400726563616C6C00646973667265657A653B
:105D340000646973686D6972726F72006469737666
:105D44006D6972726F7200646973656E68616E6307
:105D54006500646973626C616E6B00646973626F81
:105D6400756E6400646973626C696E6B003D3D3DE1
:105D74003D3D20466F726D6174203A206368303D6A
:105D84005B2562785D206368313D5B2562785D2028
:105D94006368323D5B2562785D206368333D5B2533
:105DA40062785D203D3D3D3D3D0A00256278202519
:105DB40062782063682562783A25627820636825D2
:105DC40062783A2562782063682562783A25627899
:105DD4002063682562783A256278200033323100E6
:105DE40026002800290062757377006275737200BB
:105DF400616D697800616D757465006164756D70BD
:105E040000616761696E00616C6976650062757333
:105E1400727400766D697800766D697865727200C7
:105E240076617474720079766D697800696E69744C
:105E340000766465740076736574660073737472B7
:105E4400006873636F6D006D6F64650064697373DC
:0F5E540063726F6C6C00766572000102040810B7
:048DD8004100D8007E
:1065490008F208E4F2087400F2087427F208E4F289
:10655900087400F208742CF208E4F2087400F208D6
:106569007428F208E4F2087400F208742DF208E4C1
:10657900F2087400F2742908F208E4F2082208F219
:1065890008E4F2087400F2087427F208E4F20874C7
:1065990000F208742CF208E4F2087400F208742876
:1065A900F208E4F2087400F208742DF208E4F20823
:1065B9007400F2742908F208E4F20822789EE2FBDA
:1065C90008E2FA08E2F92208F208E4F2087400F293
:1065D900087427F208E4F2087400F208742BF20830
:1065E900E4F2087400F2742808F208E4F208227848
:1065F900AD74FFF208745BF274E608F208E4F2087D
:10660900227400F208742EF208E4F2087400F2749D
:106619002A08F208E4F208227400F208742EF2083B
:10662900E4F2087400F2742A08F208E4F208227409
:1066390000F208742CF208E4F2087400F2742908D4
:10664900F208E4F2082278AD74FFF208745BF27480
:10665900F108F208E4F2082278AD74FFF208745CDC
:10666900F2748108F208E4F208227400F27427082F
:10667900F208E4F208227400F2742708F208E4F23E
:10668900082208F20874FEF2087400F2745608F23F
:106699000874FEF20822EBF208EAF208E9F278AD92
:1066A90074FEF2082208F208E4F2082278AD74FFB9
:1066B900F2082208F208E4F2082208F208E4F208D3
:1066C9002208F208E4F2082208F208E4F20822E2B9
:1066D900FF78A874FEF2087400F208745BF27BFE7E
:1066E9007A0079562208F208E4F2082208F208E44E
:1066F900F20822EBF208EAF208E9F222900001E43A
:1067090075F0010246C508F208E4F20822FFE22406
:106719005FF8EFF222E25401FB7D2022252AF52AB7
:1067290008E254032278A9EFF27BFF7A5B7990782B
:10673900A722E528905E5E93FFE527932F22124753
:0B6749002302463008F208E4F20822A8
:107EA20078AA1266FC081265C71267477002FF22A1
:107EB20078AD1265C7126747B4200A78AD1265C75C
:107EC20012670580EB78AD1265C7124723C003C065
:107ED20002C00178AA1265C7124743802178AD1209
:107EE20065C7126747FEB4200FE412467678AD12DA
:107EF20065C71267057F0122EE70037F012278AD0C
:087F02001265C712670580D566
:0587760078AA1266FC68
:10877B00E4F531F53278AA1265C7124630602578D8
:10878B00AAE2FB0808E2F92401F218E2FA3400F23B
:10879B00124630FF3395E0FEEF2532F532EE3531E0
:0887AB00F53180D1AE31AF328F
:0187B30022A3
:0F8D84007F411200037F431200037F4B02000365
:10867400E4F52A7856E2540312672525E025E01232
:108684006725C454F0126725C4333354C0252AF532
:108694002A7855E2B5070B785AE2B52A05E47865DD
:1086A400F22278657401F2785AE52AF27855EFF2ED
:0186B40022A3
:1085EF001266B5745BF274841265807400F274279E
:1085FF001265BE7400F274281265F17400F20874EB
:10860F0029F21258ECAB28AD27E4FF12890212674A
:10861F002EE527F208E528F21255750528E528B54D
:02862F0029E33D
:018631002226
:108935001266B5745BF274A71266037400F27427AD
:1089450012661A7400F2087428F21258ECAB28ADBE
:1089550027E4FF12890212672EE527F208E528F2BF
:0389650002557543
:108968001266B5745BF274841266317400F274276F
:108978001266487400F2742812665A7400F2087479
:1089880029F21258EC78D7E529F2AB28AD27E4FF95
:03899800028A60F0
:1083AE00E4F527F528F529F52AC003C0021266B5B3
:1083BE00745BF274AF12666C7400F27427126678F6
:1083CE007400F274281266847400F274291266AE78
:1083DE007400F208742AF2D002D0031258EC78D747
:0C83EE00E52AF2AB29AD28E4FF028A600A
:1084D700E4F527F528F529F52A1266B5745BF274D9
:1084E700C01266AE7400F274271266BC7400F27490
:1084F700281266BC7400F2087429F21258ECAB29F2
:10850700AD28E4FF1289028F2A7BFF7A5B79D07846
:07851700A7E52AF2025575E9
:026AA10078A4D7
:106AA30012669F7400F20874A4F27BFE7A0079A741
:106AB300127EA2E4FB7D1FFF1289CE78A71265C761
:106AC300127A2CEE6003026BDBEF24FE603D146050
:106AD30065147003026B5D147003026B85240460FC
:106AE30003026BDB1265F81266737400F208742CF0
:106AF300F278A41265C71258ECAB2CAD27E4FF1251
:106B03008033E527905E5E93026BD312664F126665
:106B1300737400F2742C1266C37400F27428126644
:106B2300C37400F208742DF278A41265C7126BDCEB
:106B330012673B026BD31266B5745CF2740612657E
:106B4300497400F208742EF278A41265C7126BDC44
:106B5300AB2EAD29126BF2026BD31266B5745CF2E5
:106B6300742512654912660A7400F208742FF278CC
:106B7300A41265C7126C08126BF2FFE52A932F0269
:106B83006BD31266B5745CF208744E12654A1266D2
:106B93000A7400F2742F1266CA7400F2742B126620
:106BA300CA7400F2087430F278A41265C7126C0834
:106BB300E4FF128033AB30AD2BE4FF128033126756
:106BC3003BFFE529932FFFE52A932FFFE52B932F17
:086BD300FD7B01E4FF1289CEF5
:106BDB00221258ECAB2CAD27E4FF128033AB2DAD5A
:106BEB0028E4FF12803322E4FF128033E528905E05
:106BFB005E93FFE527932FFFE529932F221258EC85
:106C0B00AB2CAD27E4FF128033AB2DAD28E4FF1284
:106C1B008033AB2EAD29E4FF128033AB2FAD2A228C
:0F8D9300E4FB7D1FFF1289CE7DFFE4FF028B09F9
:0270590078A419
:10705B0012669F7400F20874A4F27BFE7A0079A783
:10706B00127EA278A71265C7127A2CEE600302710A
:10707B0060EF24FE602F14605414606E14700302D2
:10708B007118240460030271601265F812667F7434
:10709B0000F208742CF278A41265C71258ECAB2CD2
:1070AB00AD2702715B12664F12667F7400F2742C6F
:1070BB001266D17400F274281266D17400F208744F
:1070CB002DF278A41265C712717B02715B1266B543
:1070DB00745CF274061265877400F208742EF278F1
:1070EB00A41265C712716102715B1266B5745CF212
:1070FB0074251265871266217400F208742FF278DA
:10710B00A41265C712716112718C02715B1266B5A4
:10711B00745CF208744E1265881266217400F27466
:10712B002F1266EE7400F2742B1266EE7400F208E6
:10713B007430F278A41265C712717BE4FF1281B030
:10714B00AB2EAD2912718CE4FF1281B0AB30AD2B9D
:05715B00E4FF1281B009
:10716000221258ECAB2CAD27E4FF1281B0AB2DAD51
:1071700028E4FF1281B0AB2EAD29221258ECAB2CC3
:10718000AD27E4FF1281B0AB2DAD2822E4FF1281C0
:06719000B0AB2FAD2A2276
:108CF1001266617400F2087427F21258ECAD27E491
:048D0100FF028B09D9
:10848E00E4F5287BFF7A5C798678A7E528F2125509
:10849E0075E4F527AB27AD28E4FF12890278A7EF24
:1084AE00F27BFF7A5C79AA1255750527E527540FE2
:1084BE0070097BFF7A5C79B0125575E52770D5058A
:0884CE0028E528C3940340BB1C
:0184D6002283
:10826200C003C002C0011266B5745CF274B2126639
:10827200F57400F274271266F57400F2742812661F
:108282008B7400F274571266977400F208745812D5
:1082920066987400F2087459F2D001D002D0031229
:1082A20058ECE527C454F0FFE528540F2FF52712A8
:0682B20066E7FF02690C03
:0563390078A41266FCCF
:10633E00E4F52F1266A712652378A71265C7127AA5
:10634E002C8F301266A712652378A71265C71287A5
:10635E00768E278F287A5C79D9126507B5280AEED2
:10636E00B527067529800263FB7A5C79E212650710
:10637E00B5280AEEB527067529400263FB7A5C79CB
:10638E00EB12650EB52809EEB52705752920805D3F
:10639E007A5C79F512650EB52809EEB527057529D3
:1063AE0010804A7A5C79FF126515B52809EEB5277B
:1063BE000575290880377A5D7909126515B52809A2
:1063CE00EEB5270575290480247A5D791112651CB6
:1063DE00B52809EEB5270575290280117A5D791960
:1063EE0012651CB5280DEEB52709752901752A0110
:1063FE000264A57A5D7921126534B5280AEEB527B7
:10640E00067529800264887A5D792B126534B52869
:10641E0009EEB5270575294080607A5D79351265DC
:10642E003BB52809EEB52705752920804D7A5D7993
:10643E004012653BB52809EEB52705752910803A3F
:10644E007A5D794B126542B52809EEB52705752997
:10645E000880277A5D7956126542B52809EEB52770
:10646E000575290480147BFF7A5D795F128776EFBC
:10647E00B5280CEEB52708752902E4F52A80187B9D
:10648E00FF7A5D7968128776EF65287003EE6527CF
:10649E007066752901F52A1266A77400F20874A4B5
:1064AE00F27BFE7A0079A7127EA2EF603278A712F5
:1064BE0065C7124630B477DF900001124649B469C1
:1064CE00D6900002124649B46ECDE92403F9E43A9F
:1064DE00FA127A2C742B252FF8A607052F80B8E513
:1064EE002F6015242AF8E6FFC395305007AB2AAD6E
:0864FE0029128A01152F80E725
:10650600227BFF128776EF227BFF128776EF227BB4
:10651600FF128776EF227BFF128776EF227400F256
:106526000874A4F27BFE7A0079A7127EA2227BFF72
:10653600128776EF227BFF128776EF227BFF128788
:0365460076EF22CB
:108D53001266617400F2087427F21258ECAF27020E
:028D63008D057C
:10899B00E4FF12851EC0077F0112851EC0077F02F0
:1089AB0012851EC0077F0312851E78AAEFF218D01E
:1089BB00E0F218D0E0F218D0E0F27BFF7A5D79712B
:0389CB00025575DD
:0276380078A434
:10763A0012669F7400F20874A4F27BFE7A0079A79E
:10764A00127EA278A71265C7127A2CEE600302771F
:10765A0024EF24FE602A1460511460762403600328
:10766A000277241265F87400F2742712670F740007
:10767A00F208742BF278A41265C712774302771FB7
:10768A001266B5745BF274F11265D07400F2087474
:10769A002CF278A41265C7127743E4FF128B31E506
:1076AA002CC454F0FBAD2802771F1266B5745CF245
:1076BA0074061265D01266387400F208742DF278D6
:1076CA00A41265C7127725E52DC454F0FBAD290233
:1076DA00771F1266B5745CF20874251265D11266BA
:1076EA00387400F2742D12670F7400F2742A12674C
:1076FA004D7400F208742EF278A41265C712772529
:10770A00E52DC454F0FBAD29E4FF128B31E52EC4FC
:0A771A0054F0FBAD2AE4FF128B319E
:10772400221258ECE52BC454F0FBAD27E4FF128B76
:1077340031E52CC454F0FBAD28E4FF128B31221246
:0B77440058ECE52BC454F0FBAD2722ED
:0281530078A40E
:1081550012669F12819D1265C7127A2C8F271266AF
:10816500A712819D1265C7127A2C8F287F04128D64
:10817500F87F03128DFB7F05128C1478A4E2F908B1
:10818500E2FA08E278ADC91266FDAB28AD277F019A
:088195001280947F050288CDE1
:10819D007400F20874A4F27BFE7A0079A7127EA215
:0381AD0078A7228E
:1087B400752801E4F527745B2527F8E230E40F748B
:1087C400562527F8E2FDE4FF128B09E4F528052776
:1087D400E527C3940440DFE528600FE4FB7D1FFF19
:0A87E4001289CE7DFFE4FF128B091D
:0187EE002268
:10719600C003C002C0011266B5745DF274AF126717
:1071A6004D7400F2087428F208E4F2087400F274D0
:1071B6002912668B7400F208745B1266987400F2EA
:1071C6000874571266987400F208745C1266987414
:1071D60000F20874581266987400F208745D12661C
:1071E600987400F20874591266987400F208745E76
:1071F600F2D001D002D0031258ECE528C454F0FFB7
:107206007852E2FEC433333354802FFFE529540FFE
:107216002F7864F2785BE27856126716785CE2782B
:1072260057126716785DE2FF7858126717785EE2A4
:10723600FF7859126717785F12671EE4FF128827D6
:10724600786012671E7F01128827786112671E7F99
:1072560002128827786212671E7F031288277BFE38
:107266007A00795F1273FB78641266D81251AC7893
:1072760064E2FF1266E712690CE4F527745B2527C2
:10728600F812671EAF27128A010527E527C3940463
:1072960040EAE4F510F511F5127513057F01128D1C
:1072A600CF7864E2FF1286747F08128C31E4FF12F5
:1072B6008C671285AB7BFE7A00795B124E3678645A
:0572C600E29000D8F089
:0172CB0022A0
:107F6E007F0312851EEFB40202C3227852E2B507D8
:107F7E0002D3227852EFF2E2C43333335480FF78C7
:107F8E0055E2547F4FF27F011288CD7852E2FF12F4
:107F9E007FD17BFE7A00795F1273FB78551266D81B
:107FAE001251AC7855E2FF1266E712690CE4FF122B
:107FBE008C671285AB7BFE7A00795B124E36128B84
:027FCE00A7D337
:017FD000228E
:108CAF001266B5745CF20874811266987400F2084B
:068CBF007453F20258ECB0
:058DEE007F010288CDA9
:108A3200E47F4D120003905DE0E49324D0FF120026
:108A420003905DE0A3E49324D075F00AA4FF15829D
:0E8A520075835DA3A3E49324D02FFF020003DD
:025E6300789E27
:105E650012669F7400F208749EF27BFE7A0079A197
:105E7500127EA278A11265C71287768E258F267AA3
:105E85005D79E41260ACB5260DEEB525091265C540
:105E95001285EF0260A97A5D79E61260ACB5260D30
:105EA500EEB525091265C51289350260A97A5D79B5
:105EB500E81260B3B5260DEEB525091265C5128940
:105EC500680260A97A5D79EA1260B3B5260DEEB570
:105ED50025091265C51283AE0260A97A5D79EF12B4
:105EE50060BAB5260DEEB525091265C51284D7022F
:105EF50060A97A5D79F41260BAB5260DEEB525096B
:105F05001265C5126AA10260A97A5D79F91260C1AC
:105F1500B5260AEEB52506128D930260A97A5D793C
:105F2500FF1260C1B5260AEEB52506126754026058
:105F3500A97A5E79051260C8B5260DEEB525091258
:105F450065C51270590260A97A5E790B1260C8B5F1
:105F5500260DEEB525091265C5128CF10260A97AE8
:105F65005E79111260CFB5260AEEB5250612848E2C
:105F75000260A97A5E79171260CFB52615EEB525B0
:105F8500117F4012885F1265C5128262128D8402EC
:105F950060A97A5E791C1260D6B5260DEEB5250985
:105FA5001265C51282620260A97A5E79241260D6F2
:105FB500B5260DEEB525091265C51263390260A92E
:105FC5007A5E792A1260DDB52610EEB5250C128DA4
:105FD500841265C5128D530260A97A5E793012600C
:105FE500DDB5260AEEB525061286320260A97A5E6F
:105FF50079351260E4B5260AEEB5250612899B02AD
:1060050060A97A5E793A1260E4B5260DEEB52509E8
:106015001265C51276380260A97A5E79401260EB86
:10602500B5260DEEB525091265C51281530260A985
:106035007A5E79451260EBB52624EEB52520128DE2
:10604500841265C51271961287B4128BA7E4FF12EC
:106055008DCFE4F512F513F51075110580467A5EBE
:10606500794B1260F2B5260FEEB5250B128D841211
:1060750065C5128CAF802D7A5E79501260F2B52617
:106085000CEEB52508128D84128DEE80177BFF7AF4
:106095005E795A128776EFB5260AEEB52506128D7A
:0660A50084128A327F0123
:1060AB00227BFF128776EF227BFF128776EF227B14
:1060BB00FF128776EF227BFF128776EF227BFF1290
:1060CB008776EF227BFF128776EF227BFF12877694
:1060DB00EF227BFF128776EF227BFF128776EF2270
:0E60EB007BFF128776EF227BFF128776EF2273
:108C98000D0A0044656275672050726F6772616DD6
:078CA800203E005043540080
:10830C00128D75EF640170497895E27044128C4DB2
:10831C008F25300003120003E52524F8601F24FB91
:10832C0070217894E2246BF8E4F2789504F27BFEE9
:10833C007A00796B128A8D300017028DC67894E220
:10834C0014F2227894E2246BF8E525F27894E20496
:01835C00F22E
:01835D0022FD
:098DC6007BFF7A8C7998028AB7D0
:0A889700789EEBF208EAF208E9F21D
:1088A100789EE2FB08E2FA08E2F9124630601C7891
:1088B1009EE2FB0808E2F92401F218E2FA3400F220
:0B88C100124630F525FF12000380D5A1
:0188CC002289
:108CC5003000097BFF7A8C799B128897E47894F2BF
:068CD50008F2786BF222A8
:098DCF00EF6003C20122D201226F
:0B8DB100C200C201C221E47899F22246
:108A8D00789EEBF208EAF208E9F220001C789EE2EB
:108A9D00FB08E2FA08E2F8AC02AD037BFF7A8C79B1
:0A8AAD00AB124936EF7002D200222E
:0785650078A4EEF208EFF22A
:10856C0078A5E2700218E26035E478A6F208F27899
:10857C00A6E2FE08E2FFE4FCFD7BD8FAF9F8D31280
:10858C004712400D78A7E22401F218E23400F28081
:0E859C00DE78A5E224FFF218E234FFF280C27E
:0185AA0022AE
:107E2D00E4789BF20874C8F2087464F2128BF112B4
:107E3D008DB1128DFE128632128CC512830C78957F
:107E4D00E2B401097BFE7A00796B125E637895E2EC
:107E5D00B40103128CC5302107127F6E5002C2216E
:107E6D00128D75EF6008789CE2751200F513E5131D
:107E7D0064014512700CF512F513789DE275100032
:107E8D00F511E5116401451070B11287EF75100001
:057E9D0075111480A620
:108BF100E4F5B8F5A8758780F5D0758921F58875F4
:108C01009852F5B175B210128D65128CDBD299D2E2
:038C1100AF00228F
:100026001010FFFFFFFFFFFFFFFFFFFFFFFFFFFFB8
:10003600FFFFFFFFFFFFFFFFFFFFFFFFFFFFFFFFCA
:10004600FFFFFFFFFFFFFFFFFFFFFFFFFFFFFFFFBA
:10005600FFFFFFFFFFFFFFFFFFFFFFFFFFFFFFFFAA
:10006600FFFFFFFFFFFFFFFFFFFFFFFFFFFFFFFF9A
:10007600FFFFFFFFFFFFFFFFFFFFFFFFFFFFFFFF8A
:10008600FFFFFFFFFFFFFFFFFFFFFFFFFFFFFFFF7A
:10009600FFFFFFFFFFFFFFFFFFFFFFFFFFFFFFFF6A
:1000A600FFFFFFFFFFFFFFFFFFFFFFFFFFFFFFFF5A
:1000B600FFFFFFFFFFFFFFFFFFFFFFFFFFFFFFFF4A
:1000C600FFFFFFFFFFFFFFFFFFFFFFFFFFFFFFFF3A
:1000D600FFFFFFFFFFFFFFFFFFFFFFFFFFFFFFFF2A
:1000E600FFFFFFFFFFFFFFFFFFFFFFFFFFFFFFFF1A
:1000F600FFFFFFFFFFFFFFFFFFFFFFFFFFFFFFFF0A
:10010600FFFFFFFFFFFFFFFFFFFFFFFFFFFFFFFFF9
:10011600FFFFFFFFFFFFFFFFFFFFFFFFFFFFFFFFE9
:10012600FFFF1010FFFFFFFFFFFFFFFFFFFFFFFFB7
:10013600FFFFFFFFFFFFFFFFFFFFFFFFFFFFFFFFC9
:10014600FFFFFFFFFFFFFFFFFFFFFFFFFFFFFFFFB9
:10015600FFFFFFFFFFFFFFFFFFFFFFFFFFFFFFFFA9
:10016600FFFFFFFFFFFFFFFFFFFFFFFFFFFFFFFF99
:10017600FFFFFFFFFFFFFFFFFFFFFFFFFFFFFFFF89
:10018600FFFFFFFFFFFFFFFFFFFFFFFFFFFFFFFF79
:10019600FFFFFFFFFFFFFFFFFFFFFFFFFFFFFFFF69
:1001A600FFFFFFFFFFFFFFFFFFFFFFFFFFFFFFFF59
:1001B600FFFFFFFFFFFFFFFFFFFFFFFFFFFFFFFF49
:1001C600FFFFFFFFFFFFFFFFFFFFFFFFFFFFFFFF39
:1001D600FFFFFFFFFFFFFFFFFFFFFFFFFFFFFFFF29
:1001E600FFFFFFFFFFFFFFFFFFFFFFFFFFFFFFFF19
:1001F600FFFFFFFFFFFFFFFFFFFFFFFFFFFFFFFF09
:10020600FFFFFFFFFFFFFFFFFFFFFFFFFFFFFFFFF8
:10021600FFFFFFFFFFFFFFFFFFFFFFFFFFFFFFFFE8
:10022600FFFFFFFF1010FFFFFFFFFFFFFFFFFFFFB6
:10023600FFFFFFFFFFFFFFFFFFFFFFFFFFFFFFFFC8
:10024600FFFFFFFFFFFFFFFFFFFFFFFFFFFFFFFFB8
:10025600FFFFFFFFFFFFFFFFFFFFFFFFFFFFFFFFA8
:10026600FFFFFFFFFFFFFFFFFFFFFFFFFFFFFFFF98
:10027600FFFFFFFFFFFFFFFFFFFFFFFFFFFFFFFF88
:10028600FFFFFFFFFFFFFFFFFFFFFFFFFFFFFFFF78
:10029600FFFFFFFFFFFFFFFFFFFFFFFFFFFFFFFF68
:1002A600FFFFFFFFFFFFFFFFFFFFFFFFFFFFFFFF58
:1002B600FFFFFFFFFFFFFFFFFFFFFFFFFFFFFFFF48
:1002C600FFFFFFFFFFFFFFFFFFFFFFFFFFFFFFFF38
:1002D600FFFFFFFFFFFFFFFFFFFFFFFFFFFFFFFF28
:1002E600FFFFFFFFFFFFFFFFFFFFFFFFFFFFFFFF18
:1002F600FFFFFFFFFFFFFFFFFFFFFFFFFFFFFFFF08
:10030600FFFFFFFFFFFFFFFFFFFFFFFFFFFFFFFFF7
:10031600FFFFFFFFFFFFFFFFFFFFFFFFFFFFFFFFE7
:10032600FFFFFFFFFFFF1010FFFFFFFFFFFFFFFFB5
:10033600FFFFFFFFFFFFFFFFFFFFFFFFFFFFFFFFC7
:10034600FFFFFFFFFFFFFFFFFFFFFFFFFFFFFFFFB7
:10035600FFFFFFFFFFFFFFFFFFFFFFFFFFFFFFFFA7
:10036600FFFFFFFFFFFFFFFFFFFFFFFFFFFFFFFF97
:10037600FFFFFFFFFFFFFFFFFFFFFFFFFFFFFFFF87
:10038600FFFFFFFFFFFFFFFFFFFFFFFFFFFFFFFF77
:10039600FFFFFFFFFFFFFFFFFFFFFFFFFFFFFFFF67
:1003A600FFFFFFFFFFFFFFFFFFFFFFFFFFFFFFFF57
:1003B600FFFFFFFFFFFFFFFFFFFFFFFFFFFFFFFF47
:1003C600FFFFFFFFFFFFFFFFFFFFFFFFFFFFFFFF37
:1003D600FFFFFFFFFFFFFFFFFFFFFFFFFFFFFFFF27
:1003E600FFFFFFFFFFFFFFFFFFFFFFFFFFFFFFFF17
:1003F600FFFFFFFFFFFFFFFFFFFFFFFFFFFFFFFF07
:10040600FFFFFFFFFFFFFFFFFFFFFFFFFFFFFFFFF6
:10041600FFFFFFFFFFFFFFFFFFFFFFFFFFFFFFFFE6
:10042600FFFFFFFFFFFFFFFF1010FFFFFFFFFFFFB4
:10043600FFFFFFFFFFFFFFFFFFFFFFFFFFFFFFFFC6
:10044600FFFFFFFFFFFFFFFFFFFFFFFFFFFFFFFFB6
:10045600FFFFFFFFFFFFFFFFFFFFFFFFFFFFFFFFA6
:10046600FFFFFFFFFFFFFFFFFFFFFFFFFFFFFFFF96
:10047600FFFFFFFFFFFFFFFFFFFFFFFFFFFFFFFF86
:10048600FFFFFFFFFFFFFFFFFFFFFFFFFFFFFFFF76
:10049600FFFFFFFFFFFFFFFFFFFFFFFFFFFFFFFF66
:1004A600FFFFFFFFFFFFFFFFFFFFFFFFFFFFFFFF56
:1004B600FFFFFFFFFFFFFFFFFFFFFFFFFFFFFFFF46
:1004C600FFFFFFFFFFFFFFFFFFFFFFFFFFFFFFFF36
:1004D600FFFFFFFFFFFFFFFFFFFFFFFFFFFFFFFF26
:1004E600FFFFFFFFFFFFFFFFFFFFFFFFFFFFFFFF16
:1004F600FFFFFFFFFFFFFFFFFFFFFFFFFFFFFFFF06
:10050600FFFFFFFFFFFFFFFFFFFFFFFFFFFFFFFFF5
:10051600FFFFFFFFFFFFFFFFFFFFFFFFFFFFFFFFE5
:10052600FFFFFFFFFFFFFFFFFFFF1010FFFFFFFFB3
:10053600FFFF00000000FFFFFFFFFFFFFFFFFFFFC1
:10054600FF000000000000FFFFFFFFFFFFFFFFFFAF
:100556000000020202020000FFFFFFFFFFFFFFFF95
:100566000000020202020000FFFFFFFFFFFFFF0084
:10057600000202000002020000FFFFFFFFFFFF0073
:10058600000202000002020000FFFFFFFFFF000062
:1005960002020000000002020000FFFFFFFF000051
:1005A600020200FFFF0002020000FFFFFF00000240
:1005B600020000FFFF000002020000FFFF00000231
:1005C6000200000000000002020000FF000002021C
:1005D60002020202020202020202000000000202FD
:1005E60002020202020202020202000000000202ED
:1005F60000000000000000000202000000000202ED
:100606000000FFFFFFFF00000202000000000202E0
:100616000000FFFFFFFF00000202000000000000D4
:100626000000FFFFFFFF00000000000010100000A8
:10063600000000000000000000000000FFFF0002B4
:1006460002020202020202020202000000FF00028F
:10065600020202020202020202020200000000007E
:100666000002020000000000020202020000FF0079
:1006760000020200FFFFFF00000202020000FF006E
:1006860000020200FFFFFF00000202020000FF005E
:1006960000020200000000000202020000FFFF004C
:1006A600000202020202020202020000FFFFFF0035
:1006B600000202020202020202020000FFFFFF0025
:1006C60000020200000000000202020000FFFF001C
:1006D60000020200FFFFFF00000202020000FF000E
:1006E60000020200FFFFFF000002020200000000FD
:1006F60000020200000000000202020200000002E6
:1007060002020202020202020202020000000002CB
:1007160002020202020202020202000000FF0000C0
:10072600000000000000000000000000FFFF1010A5
:10073600FFFFFF00000000000000000000FFFFFFB9
:10074600FFFF00000202020202020202000000FF96
:10075600FF00000202020202020202020200000080
:100766000000000202000000000000020202000079
:1007760000000202020000FFFFFF0000020200006C
:10078600000002020000FFFFFFFFFF000202000060
:10079600000002020000FFFFFFFFFFFF0000000055
:1007A600000002020000FFFFFFFFFFFFFFFFFFFF49
:1007B600000002020000FFFFFFFFFFFFFFFFFFFF39
:1007C600000002020000FFFFFFFFFF000000000024
:1007D600000002020000FFFFFFFFFF000202000010
:1007E60000000202000000FFFFFF000002020000FE
:1007F60000000202020000000000000202020000E7
:10080600FF000002020202020202020202000000CF
:10081600FFFF00000202020202020202000000FFC5
:10082600FFFFFF0000000000000000000000FFFFC7
:100836001010000000000000000000000000FFFF94
:10084600FFFF00000202020202020202020000FF93
:10085600FFFF000002020202020202020202000080
:10086600FFFF00000202000000000002020200007A
:10087600FFFF000002020000FFFF0000020200006E
:10088600FFFF000002020000FFFF0000020200005E
:10089600FFFF00000202000000000002020200004A
:1008A600FFFF00000202020202020202020000FF33
:1008B600FFFF00000202020202020202000000FF25
:1008C600FFFF000002020000020202000000FFFF1C
:1008D600FFFF000002020000000202020000FFFF0C
:1008E600FFFF00000202000000000202020000FFFB
:1008F600FFFF000002020000FF00000202020000EB
:10090600FFFF000002020000FFFF000002020200DB
:1009160000FF000002020000FFFFFF0000020202CB
:1009260000FF000000000000FFFFFFFF00000000C6
:1009360000FF101000000000FFFFFFFFFFFFFFFF9A
:10094600000000000000000000FFFFFFFFFFFF00A7
:100956000000000000000C0C0000FFFFFFFF00007D
:100966000C0C000000000C0C0C0000000000000C39
:100976000C0C000000000C0C0C0C000000000C0C11
:100986000C0C000000000C0C0C0C0C0C0C0C0C0CD1
:100996000C0C000000000C0C0C0C0C0C0C0C0C0CC1
:1009A6000C0C000000000C0C0C000C0C0C0C000CC9
:1009B6000C0C000000000C0C0C00000C0C00000CD1
:1009C6000C0C000000000C0C0C0000000000000CD9
:1009D6000C0C000000000C0C0C0000000000000CC9
:1009E6000C0C000000000C0C0C0000FFFF00000CBB
:1009F6000C0C000000000C0C0C0000FFFF00000CAB
:100A06000C0C000000000C0C0C0000FFFF00000C9A
:100A16000C0C000000000C0C0C0000FFFF00000C8A
:100A26000C0C000000000000000000FFFF000000AA
:100A3600000000001010FF00000000000000000091
:100A46000000000000FFFF00000202020202020294
:100A56000202020000FFFF0000020202020202027E
:100A66000202020000FFFF00000000000000020278
:100A76000200000000FFFFFFFFFFFFFF0000020271
:100A8600020000FFFFFFFFFFFFFFFFFF0000020263
:100A9600020000FFFFFFFFFFFFFFFFFF0000020253
:100AA600020000FFFFFFFFFFFFFFFFFF0000020243
:100AB600020000FFFFFFFFFFFFFFFFFF0000020233
:100AC600020000FFFFFFFFFFFFFFFFFF0000020223
:100AD600020000FFFFFFFF00000000FF000002020F
:100AE600020000FFFFFFFF000202000000000202FA
:100AF600020000FFFFFFFF000202020000020202E6
:100B0600020000FFFFFFFF000002020202020202D3
:100B1600000000FFFFFFFFFF0000020202020200CA
:100B26000000FFFFFFFFFFFFFF00000000000000C6
:100B360000FFFFFFFFFF1010FFFFFFFFFFFFFFFF9C
:100B4600FFFFFFFFFFFFFFFFFFFFFFFFFF000000AC
:100B560000000000FFFFFFFFFFFFFFFF0000010195
:100B660001010000FFFFFFFFFFFFFF000001010181
:100B760001010000FFFFFFFFFFFF0000010101016F
:100B8600010000FFFFFFFFFFFF000001010101015F
:100B96000000000000000000000001010101010149
:100BA6000101010101010000000101010101010132
:100BB6000101010101010000000101010101010122
:100BC6000101010101010000000001010101010113
:100BD6000101010101010000FF0000010101010105
:100BE6000000000000000000FFFF000001010101FD
:100BF600010000FFFFFFFFFFFFFFFF0000010101F3
:100C060001010000FFFFFFFFFFFFFFFF00000101E2
:100C160001010000FFFFFFFFFFFFFFFFFF000000D5
:100C260000000000FFFFFFFFFFFFFFFFFFFFFFFFCA
:100C3600FFFFFFFFFFFFFFFF1010FFFFFFFFFFFF9C
:100C4600FFFFFFFFFFFFFFFFFFFFFFFFFFFF0000AC
:100C56000000000000FFFFFFFFFFFFFFFFFF000097
:100C6600010101010000FFFFFFFFFFFFFFFF000082
:100C760001010101010000FFFFFFFFFFFFFFFF0071
:100C86000001010101010000FFFF0000000000005B
:100C9600000001010101010000FF00000101010146
:100CA6000101010101010101000000000101010132
:100CB6000101010101010101010000000101010121
:100CC6000101010101010101010000000000000015
:100CD600000001010101010000FF0000000000000A
:100CE600000001010101010000FFFFFFFFFFFF00FF
:100CF6000001010101010000FFFFFFFFFFFF0000EF
:100D060001010101010000FFFFFFFFFFFFFF0000DF
:100D1600010101010000FFFFFFFFFFFFFFFF0000D1
:100D26000000000000FFFFFFFFFFFFFFFFFFFFFFC8
:100D3600FFFFFFFFFFFFFFFFFFFF1010FFFFFFFF9B
:100D46000000000000000000FFFFFFFFFFFFFFFFA5
:100D56000000010101010000FFFFFFFFFFFFFFFF91
:100D66000000010101010000FFFFFFFFFFFFFFFF81
:100D76000000010101010000FFFFFFFFFFFFFFFF71
:100D86000000010101010000FFFFFFFF000000005D
:100D96000000010101010000000000000000010147
:100DA6000000010101010000010100000000010135
:100DB6000100010101010001010100000000010123
:100DC6000101010101010101010100000000010111
:100DD600010101010101010101010000FF00000103
:100DE6000101010101010101010000FFFFFF0000F7
:100DF60001010101010101010000FFFFFFFFFF00EA
:100E0600000101010101010000FFFFFFFFFFFFFFDD
:100E16000000010101010000FFFFFFFFFFFFFFFFD0
:100E2600FF000001010000FFFFFFFFFFFFFFFFFFC4
:100E3600FFFF00000000FFFFFFFFFFFF1010FFFF96
:100E4600FFFFFFFFFFFF0000000000000000FFFFA4
:100E5600FFFFFFFFFF000002020202020000FFFF89
:100E6600FFFFFFFF00000202020202020000FFFF76
:100E7600FFFFFF0000020202000002020000000065
:100E86000000000002020200000002020000000052
:100E96000202020202020200FF000202000000003B
:100EA6000202020202020200FF000202000000002B
:100EB6000202000000020200FF0002020000000021
:100EC600020200FF00020200FF0002020000000012
:100ED6000202000000020200FF0002020000000001
:100EE6000202020202020200FF00020200000000EB
:100EF60002020202020202000000020200000000DA
:100F06000000000000020202000002020000FFFFD3
:100F1600FFFFFFFF00000202020202020000FFFFC5
:100F2600FFFFFFFFFF000002020202020000FFFFB8
:100F3600FFFFFFFFFFFF0000000000000000101091
:100F46000000000000FFFFFFFFFFFF0000000000A1
:100F56000004040400FFFFFFFFFFFF000404040079
:100F66000004040400FFFFFFFFFFFF000404040069
:100F76000004040400FFFFFFFFFFFF000404040059
:100F86000004040400FFFFFFFFFFFF000404040049
:100F9600000404040000FFFFFFFF00000404040037
:100FA600000404040400FFFFFFFF0004040404001F
:100FB600000004040400FFFFFFFF00040404000017
:100FC60000000404040000FFFF0000040404000005
:100FD600FF0000040404000000000404040000FFF5
:100FE600FFFF000004040400000404040000FFFFE7
:100FF600FFFF000000040400000404000000FFFFDF
:10100600FFFFFF00000404040404040000FFFFFFC8
:10101600FFFFFFFF0000040404040000FFFFFFFFC2
:10102600FFFFFFFFFF00000404000000FFFFFFFFBB
:10103600FFFFFFFFFFFF0000000000FFFFFFFFFFB5
:10104600101000000000000000FFFFFFFFFFFFFF81
:10105600FFFF00000404040000FFFFFFFFFFFFFF87
:10106600FFFF00000404040000FFFFFFFFFFFFFF77
:10107600FFFF00000404040000FFFFFFFFFFFFFF67
:10108600FFFF00000404040000FFFFFFFFFFFFFF57
:10109600FFFF00000404040000FFFFFFFFFFFFFF47
:1010A600FFFF00000404040000FFFFFFFFFFFFFF37
:1010B600FFFF00000404040000FFFFFFFFFFFFFF27
:1010C600FFFF00000404040000FFFFFFFFFFFFFF17
:1010D600FFFF00000404040000FFFFFFFFFF000005
:1010E600000000000404040000FFFFFFFFFF0000F3
:1010F600000000000404040000FFFFFFFF000004DE
:1011060000000000040404000000000000000404C5
:101116000000000004040404040404040404040499
:101126000000000004040404040404040404040489
:1011360000000000000000000000000000000000A9
:1011460000001010FFFFFFFFFFFFFFFFFFFFFFFF85
:10115600FFFFFFFFFFFFFFFFFFFFFFFFFFFFFFFF99
:10116600FFFFFFFFFFFFFFFFFFFFFFFFFFFFFFFF89
:10117600FFFFFFFFFFFFFFFF00000000000000FF72
:10118600FFFFFFFFFFFFFF00000004040400000054
:10119600FFFFFFFFFFFF0000040404040404040033
:1011A60000FFFFFFFF000004040400000004040425
:1011B6000000FFFF00000004040000FF000004041C
:1011C600000000FF00000404040000FF0000040407
:1011D600040000FF00000404040000FF00000404F3
:1011E600040000FF00000404040000FF00000404E3
:1011F600040000FF00000004040000FF00000404D7
:10120600000000FFFF0000040404000000040404C2
:101216000000FFFFFFFF00000404040404040400B0
:1012260000FFFFFFFFFFFF000000040404000000B2
:10123600FFFFFFFFFFFFFFFF00000000000000FFB1
:10124600FFFFFFFF1010FFFFFFFFFFFFFFFFFFFF86
:10125600FFFFFFFFFFFFFFFFFFFFFFFFFFFFFFFF98
:10126600FFFFFFFFFFFFFFFFFFFFFFFFFFFFFFFF88
:10127600FFFFFFFFFFFFFFFFFFFF00000000000072
:101286000000FFFFFFFFFFFF00000000040404044E
:10129600000000FFFFFFFF00000004040404040434
:1012A60004040000FFFFFF00000404040000000027
:1012B6000404040000FFFF00000404040000FF0013
:1012C6000000000000FFFF0000000404040400000A
:1012D6000000FFFFFFFFFFFFFF00000404040404FB
:1012E600040000FFFFFFFFFFFFFF000000000404F3
:1012F60004040000FFFFFF0000000000FFFF0000E5
:101306000404040000FFFF000004040400000000C1
:101316000404040000FFFF000000040404040404A5
:1013260004040000FFFFFFFFFF00000004040404A4
:10133600000000FFFFFFFFFFFFFFFF0000000000AF
:101346000000FFFFFFFF101004040FFFFFFFFFFF69
:10135600FFFF0404FFFFFFFF040404FFFFFFFFFF7E
:10136600FFFF0404FFFFFFFF0404040FFFFFFFFF5E
:10137600FFFF0404FFFFFFFF040404040FFFFFFF49
:10138600FFFF0404FFFFFFFF0404FF0404FFFFFF49
:10139600FFFF0404FFFFFF040404FF04040FFFFF24
:1013A600FFFF0404FFFFFF040404FFFF0404FFFF24
:1013B600FFFF0404FFFFFF040404FFFF04040FFF04
:1013C600FFFF0404FFFFFF040404FFFFFF04040FF4
:1013D600FFFF0404FFFFFF040404FFFFFFFF0404F4
:1013E600FFFF0404FFFFFF040404FFFFFFFF0404E4
:1013F6000FFF0404FFFFFF040404FFFFFFFFFF04C9
:1014060004FF0404FFFFFF040404FFFFFFFFFFFFC8
:1014160004040404FFFFFFFF0404FFFFFFFFFFFFB8
:1014260004040404FFFFFFFF0404FFFFFFFFFFFFA8
:10143600FF040404FFFFFFFF0404FFFFFFFFFFFF9D
:10144600FF040404FFFFFFFF1010FFFFFF04040466
:101456000404040FFFFFFFFFFFFFFFFF0404040463
:1014660004040404040FFFFFFFFFFF040404FFFF4E
:10147600FFFFFF0404040FFFFFFF04040FFFFFFF3D
:10148600FFFFFFFF040404FFFFFF0404FFFFFFFF4D
:10149600FFFFFFFFFF04040FFFFF040FFFFFFFFF27
:1014A600FFFFFFFFFF040404FFFF04FFFFFFFFFF32
:1014B600FFFFFFFFFFFF0404FFFF04FFFFFFFFFF27
:1014C600FFFFFFFFFFFF0404FFFF04FFFFFFFFFF17
:1014D600FFFFFFFFFFFF0404FFFF04FFFFFFFFFF07
:1014E600FFFFFFFFFFFF0404FFFF040FFFFFFFFFE7
:1014F600FFFFFFFFFF040404FFFF0404FFFFFFFFDD
:10150600FFFFFFFFFF04040FFFFF04040FFFFFFFB1
:10151600FFFFFFFF040404FFFFFFFF040404FFFFB7
:10152600FFFFFF0404040FFFFFFFFFFF0404040492
:1015360004040404040FFFFFFFFFFFFFFFFF040482
:101546000404040FFFFFFFFFFFFF1010FFFFFFFF64
:10155600FF04040FFFFFFFFFFFFFFFFFFFFFFFFF7B
:10156600FF040404FFFFFFFFFFFFFFFFFFFFFFFF76
:10157600FFFF0404FFFFFFFFFFFFFFFFFFFFFFFF6B
:10158600FFFF04040FFFFFFFFFFFFFFFFFFFFFFF4B
:10159600FFFFFF0404FFFFFFFFFFFFFFFFFFFFFF4B
:1015A600FFFFFF04040FFFFFFFFFFFFFFFFFFFFF2B
:1015B600FFFFFF040404FFFFFFFFFF04FFFFFFFF21
:1015C600FFFFFFFF0404FFFFFFFFFF04FFFFFFFF16
:1015D600FFFFFFFF04040FFFFFFFFF04FFFFFFFFF6
:1015E600FFFFFFFF040404FFFFFF0404FFFFFFFFEC
:1015F600FFFFFFFFFF04040FFFFF0404FFFFFFFFD1
:10160600FFFFFFFFFF04040FFFFF0404FFFFFFFFC0
:10161600FFFFFFFFFFFF0404FF04040FFFFFFFFFB0
:10162600FFFFFFFFFFFF04040F0404FFFFFFFFFFA0
:10163600FFFFFFFFFFFF0404040404FFFFFFFFFF9B
:10164600FFFFFFFFFFFFFF0404040FFF1010FFFF63
:101656000404FFFF04040FFFFFFF04040404FF0457
:101666000404FFFF04040FFFFFFF04040404FF0447
:10167600040FFFFF04040FFFFFFF04040FFFFF0426
:1016860004FFFFFF04040FFFFFFF04040FFF040421
:101696000FFFFFFF04040FFFFFFF04040FFF040406
:1016A6000FFFFFFF04040FFFFFFF04040FFF0404F6
:1016B600FFFFFFFF04040FFFFFFF04040FFF040FEB
:1016C600FFFFFFFF04040FFFFFFF04040FFF04FFEB
:1016D600FFFFFFFF04040FFFFFFF04040FFF04FFDB
:1016E600FFFFFFFF04040FFFFFFF04040FFF0FFFC0
:1016F600FFFFFFFF04040FFFFFFF04040FFFFFFFC0
:10170600FFFFFFFF04040FFFFFFF04040FFFFFFFAF
:10171600FFFFFFFF04040FFFFFFF04040FFFFFFF9F
:10172600FFFFFFFF04040FFFFFFF04040FFFFFFF8F
:10173600FFFFFFFF04040FFFFFFF04040404FFFF85
:10174600FFFFFFFF04040FFFFFFF04040404101053
:1017560004040404040FFFFFFFFFFFFF0404040456
:1017660004040404040404FFFFFFFFFF040404044C
:10177600FFFFFFFFFF040404FFFFFFFF04040FFF4A
:10178600FFFFFFFFFFFF04040FFFFFFF04040FFF2F
:10179600FFFFFFFFFFFF040404FFFFFF04040FFF2A
:1017A600FFFFFFFFFFFFFF0404FFFFFF04040FFF1F
:1017B600FFFFFFFFFFFFFF04040FFFFF04040FFFFF
:1017C600FFFFFFFFFFFFFF04040FFFFF04040404F5
:1017D600FFFFFFFFFFFFFF04040FFFFF04040404E5
:1017E600FFFFFFFFFFFFFF04040FFFFF04040FFFCF
:1017F600FFFFFFFFFFFFFF0404FFFFFF04040FFFCF
:10180600FFFFFFFFFFFF040404FFFFFF04040FFFB9
:10181600FFFFFFFFFFFF04040FFFFFFF04040FFF9E
:10182600FFFFFFFFFF040404FFFFFFFF04040FFF99
:1018360004040404040404FFFFFFFFFF040404047B
:1018460004040404040FFFFFFFFFFFFF0404040465
:10185600101004040404040404040FFFFFFFFFFF38
:10186600FF0404040404040404040FFFFFFFFF0440
:101876000404FFFFFFFFFFFFFFFFFFFFFFFF04045E
:10188600040FFFFFFFFFFFFFFFFFFFFFFF0404043E
:10189600FFFFFFFFFFFFFFFFFFFFFFFFFF04040F38
:1018A600FFFFFFFFFFFFFFFFFFFFFFFFFF0404FF38
:1018B600FFFFFFFFFFFFFFFFFFFFFFFF04040FFF18
:1018C600FFFF040404040404040FFFFF04040FFFD5
:1018D600FFFF040404040404040FFFFF04040FFFC5
:1018E600FFFFFFFFFFFFFFFFFFFFFFFF04040FFFE8
:1018F600FFFFFFFFFFFFFFFFFFFFFFFFFF0404FFE8
:10190600FFFFFFFFFFFFFFFFFFFFFFFFFF04040FC7
:10191600FFFFFFFFFFFFFFFFFFFFFFFFFF040404C2
:10192600FFFFFFFFFFFFFFFFFFFFFFFFFFFF0404B7
:10193600040F04040404040404040FFFFFFFFF045F
:10194600040404040404040404040FFFFFFFFFFF5F
:10195600FF0410100404040404FFFFFFFFFFFFFF51
:10196600FFFFFFFF0404040404040FFFFFFFFFFF53
:10197600FFFFFFFFFFFFFFFF0404040FFFFFFFFF52
:10198600FFFFFFFFFFFFFFFFFFFF04040FFFFFFF47
:10199600FFFFFFFFFFFFFFFFFFFF040404FFFFFF42
:1019A600FFFFFFFFFFFFFFFFFFFFFF04040FFFFF27
:1019B600FFFFFFFFFFFFFFFFFFFFFF04040FFFFF17
:1019C600FFFFFFFFFFFFFFFFFFFFFF04040FFFFF07
:1019D600FFFFFFFFFFFFFFFFFFFFFF04040FFFFFF7
:1019E600FFFFFFFFFFFFFFFFFFFFFF04040FFFFFE7
:1019F600FFFFFFFFFFFFFFFFFFFFFF04040FFFFFD7
:101A0600FFFFFFFFFFFFFFFFFFFF040404FFFFFFD1
:101A1600FFFFFFFFFFFFFFFFFFFF04040FFFFFFFB6
:101A2600FFFFFFFFFFFFFFFF04040404FFFFFFFFAC
:101A3600FFFFFFFF0404040404040FFFFFFFFFFF82
:101A4600FFFFFFFF0404040404FFFFFFFFFFFFFF87
:101A5600FFFFFFFF1010FFFFFFFFFF040404040455
:101A6600040FFFFFFFFFFFFFFFFF0404040404044D
:101A7600040404FFFFFFFFFFFF040404FFFFFFFF52
:101A8600FF040404FFFFFFFF040404FFFFFFFFFF42
:101A9600FFFF04040FFFFFFF04040FFFFFFFFFFF1C
:101AA600FFFF04040FFFFFFFFF0404FFFFFFFFFF1C
:101AB600FFFFFFFFFFFFFFFFFF0404040404FFFF17
:101AC600FFFFFFFFFFFFFFFFFFFF04040404040402
:101AD6000404FFFFFFFFFFFFFFFFFFFFFF040404F7
:101AE6000404040FFFFFFFFFFFFFFFFFFFFFFFFFE1
:101AF600FF0404040FFFFF04040FFFFFFFFFFFFFB7
:101B0600FFFF04040FFFFFFF0404FFFFFFFFFFFFBB
:101B1600FFFF04040FFFFFFF04040FFFFFFFFFFF9B
:101B2600FFFF04040FFFFFFF04040404FFFFFFFF91
:101B3600FF040404FFFFFFFFFF040404040404047D
:101B4600040404FFFFFFFFFFFFFFFF040404040477
:101B5600040FFFFFFFFF1010FF04040FFFFFFFFF3E
:101B6600FFFFFF0404040404FF04040FFFFFFFFF4C
:101B7600FF04040404040404FF04040FFFFFFFFF32
:101B860004040404FFFFFFFFFF04040FFFFFFFFF31
:101B960004040FFFFFFFFFFFFF04040FFFFFFF0416
:101BA600040FFFFFFFFFFFFFFF04040FFFFFFF040B
:101BB60004FFFFFFFFFFFFFFFF04040FFFFFFF040B
:101BC60004FFFFFFFFFFFFFFFF04040FFFFF0404F6
:101BD60004FFFFFFFFFFFFFFFF04040FFFFF0404E6
:101BE6000FFFFFFFFFFF0404FF04040FFFFFFF04C6
:101BF60004FFFFFFFFFF0404FF04040FFFFFFF04C1
:101C060004FFFFFFFFFFFFFFFF04040FFFFFFF04BA
:101C1600040FFFFFFFFFFFFFFF04040FFFFFFFFF9F
:101C260004040FFFFFFFFFFFFF04040FFFFFFFFF8A
:101C360004040404FFFFFFFFFF04040FFFFFFFFF80
:101C4600FF04040404040404FF04040FFFFFFFFF61
:101C5600FFFFFFFF0404040410100404FFFFFFFF4E
:101C6600FFFFFF04040FFFFFFFFF0404040FFFFF45
:101C7600FFFFFF040404FFFFFFFFFF0404040FFF40
:101C8600FFFFFF0404040FFFFFFFFFFFFF0404FF35
:101C9600FFFFFF04040404FFFFFFFFFFFF04040F20
:101CA600FFFFFF040404040FFFFFFFFFFFFFFFFF1A
:101CB600FFFFFF0404FF04040FFFFFFFFFFFFFFF0A
:101CC600FFFFFF0404FFFF0404FFFFFFFFFFFFFF0A
:101CD600FFFFFF0404FFFF04040F040404040404CC
:101CE600FFFFFF0404FFFFFF0404040404040404CC
:101CF600FFFFFF0404FFFFFF0404FFFFFF040404CB
:101D0600FFFFFF0404FFFFFFFF04FFFFFF040404BF
:101D1600FFFFFF0404FFFFFFFFFFFFFFFF040404B4
:101D2600FFFFFF0404FFFFFFFFFFFFFF040404049F
:101D3600FFFFFF0404FFFFFFFFFF040404040FFF7F
:101D4600FFFFFF0404FFFFFFFFFF0404FFFFFFFF89
:101D5600FFFFFF0404FFFFFFFFFF1010FFFFFF045C
:101D660004FFFFFFFFFFFFFFFF040404FFFFFF0464
:101D760004FFFFFFFFFFFFFF04040404FFFFFF044F
:101D860004FFFFFFFFFFFFFF04040404FFFFFF043F
:101D960004FFFFFFFFFFFF040404FF04FFFFFF042F
:101DA60004FFFFFFFFFFFF04040FFF04FFFFFF0414
:101DB60004FFFFFFFFFFFF0404FFFFFFFFFFFF0419
:101DC60004FFFFFFFFFF04040FFFFFFFFFFFFF04F9
:101DD60004FFFFFFFFFF04040FFFFFFFFFFFFF04E9
:101DE60004FFFFFFFF040404FFFFFFFF0FFFFF04D4
:101DF60004FFFFFFFF04040404040404040FFF04AB
:101E060004FFFFFFFF040404040404040404FF04A5
:101E160004FFFFFF04040FFFFFFFFFFF04040F048E
:101E260004FFFFFF0404FFFFFFFFFFFFFF0404049E
:101E360004FFFF040404FFFFFFFFFFFFFFFF04048E
:101E460004FFFF04040FFFFFFFFFFFFFFFFF040473
:101E560004FFFF0404FFFFFFFFFFFFFF1010FFFF5B
:101E6600FFFFFFFFFFFF0404FFFFFFFFFFFF0FFF62
:101E7600FFFFFFFFFFFF0404FFFFFFFFFFFF0FFF52
:101E8600FFFFFFFFFFFF0404FFFFFFFFFFFF04FF4D
:101E9600FFFFFFFFFFFF0404FFFFFFFFFFFF040F2D
:101EA600FFFFFFFFFFFF0404FFFFFFFFFFFF040428
:101EB600FFFFFFFFFFFF0404FFFFFFFFFFFF040418
:101EC6000FFFFFFFFFFF0404FFFFFFFFFFFF0404F8
:101ED6000FFFFFFFFFFF0404FFFFFFFFFFFFFF04ED
:101EE60004FFFFFFFFFF0404FFFFFFFFFFFF0404E3
:101EF600040FFFFFFFFF0404FFFFFFFFFFFF0404C3
:101F06000404FFFFFFFF0404FFFFFFFFFFFFFFFFC7
:101F160004040FFFFFFF0404FFFFFFFFFFFFFFFFA7
:101F260004040FFFFFFF0404FFFFFFFFFFFFFFFF97
:101F3600FF0404FFFFFF0404FFFFFFFFFFFFFFFF97
:101F4600FF04040FFFFF0404040404040404FFFF59
:101F5600FFFF0404FFFF0404040404040404101037
:101F6600FFFFFFFFFF000000000000FFFFFFFFFF75
:101F7600FFFFFF00000002020202000000FFFFFF59
:101F8600FFFF000002020202020202020000FFFF3F
:101F9600FF0000020202000000000002020000FF33
:101FA600FF0002020200FFFFFFFF0000020200FF27
:101FB600FF00020202020000FFFFFF00000000FF18
:101FC600FF000002020202020000FFFFFFFFFFFF08
:101FD600FFFF0000000002020202000000FFFFFFF8
:101FE600FFFFFFFFFF00000002020202020000FFE7
:101FF600FFFFFFFFFFFFFF0000000202020200FFDB
:10200600FF00000000FFFFFFFF000000020200FFCC
:10201600FF0002020000FFFFFFFF0000020200FFB8
:10202600FF0000020200000000000002020000FFA4
:10203600FFFF000002020202020202020000FFFF8E
:10204600FFFFFF00000002020202020000FFFFFF86
:10205600FFFFFFFFFF00000000000000FFFFFFFF83
:10206600101000000000000000000000000000004A
:10207600000000010101010101010101010101014D
:10208600010000010101010101010101010101013C
:10209600010000010101010101010101010101012C
:1020A6000100000000000000010101010000000025
:1020B6000000FFFFFFFFFF000101010100FFFFFF1E
:1020C600FFFFFFFFFFFFFF000101010100FFFFFF10
:1020D600FFFFFFFFFFFFFF000101010100FFFFFF00
:1020E600FFFFFFFFFFFFFF000101010100FFFFFFF0
:1020F600FFFFFFFFFFFFFF000101010100FFFFFFE0
:10210600FFFFFFFFFFFFFF000101010100FFFFFFCF
:10211600FFFFFFFFFFFFFF000101010100FFFFFFBF
:10212600FFFFFFFFFFFFFF000101010100FFFFFFAF
:10213600FFFFFFFFFFFFFF000101010100FFFFFF9F
:10214600FFFFFFFFFFFFFF000101010100FFFFFF8F
:10215600FFFFFFFFFFFFFF000000000000FFFFFF83
:10216600FFFF1010FFFFFFFFFFFFFFFFFFFFFFFF57
:10217600FFFFFFFFFFFFFFFFFFFFFFFFFFFFFFFF69
:10218600FFFFFFFFFFFFFFFFFFFFFFFFFFFFFFFF59
:10219600FFFFFFFFFFFFFFFFFFFFFFFFFFFFFFFF49
:1021A600FFFFFFFFFFFFFFFFFFFFFFFFFFFFFFFF39
:1021B600FFFFFFFFFFFFFFFFFFFFFFFFFFFFFFFF29
:1021C600FFFFFFFFFFFFFFFFFFFFFFFFFFFFFFFF19
:1021D600FFFFFFFFFFFFFFFFFFFFFFFFFFFFFFFF09
:1021E600FFFFFFFF1010FFFFFFFFFFFFFFFFFFFFD7
:1021F600FFFFFFFFFFFFFFFFFFFFFFFFFFFFFFFFE9
:10220600FFFFFFFFFFFFFFFFFFFFFFFFFFFFFFFFD8
:10221600FFFFFFFFFFFFFFFFFFFFFFFFFFFFFFFFC8
:10222600FFFFFFFFFFFFFFFFFFFFFFFFFFFFFFFFB8
:10223600FFFFFFFFFFFFFFFFFFFFFFFFFFFFFFFFA8
:10224600FFFFFFFFFFFFFFFFFFFFFFFFFFFFFFFF98
:10225600FFFFFFFFFFFFFFFFFFFFFFFFFFFFFFFF88
:10226600FFFFFFFFFFFF1010FFFFFFFFFFFFFFFF56
:10227600FFFFFFFFFFFFFFFFFFFFFFFFFFFFFFFF68
:10228600FFFFFFFFFFFFFFFFFFFFFFFFFFFFFFFF58
:10229600FFFFFFFFFFFFFFFFFFFFFFFFFFFFFFFF48
:1022A600FFFFFFFFFFFFFFFFFFFFFFFFFFFFFFFF38
:1022B600FFFFFFFFFFFFFFFFFFFFFFFFFFFFFFFF28
:1022C600FFFFFFFFFFFFFFFFFFFFFFFFFFFFFFFF18
:1022D600FFFFFFFFFFFFFFFFFFFFFFFFFFFFFFFF08
:1022E600FFFFFFFFFFFFFFFF1010FFFFFFFFFFFFD6
:1022F600FFFFFFFFFFFFFFFFFFFFFFFFFFFFFFFFE8
:10230600FFFFFFFFFFFFFFFFFFFFFFFFFFFFFFFFD7
:10231600FFFFFFFFFFFFFFFFFFFFFFFFFFFFFFFFC7
:10232600FFFFFFFFFFFFFFFFFFFFFFFFFFFFFFFFB7
:10233600FFFFFFFFFFFFFFFFFFFFFFFFFFFFFFFFA7
:10234600FFFFFFFFFFFFFFFFFFFFFFFFFFFFFFFF97
:10235600FFFFFFFFFFFFFFFFFFFFFFFFFFFFFFFF87
:10236600FFFFFFFFFFFFFFFFFFFF1010FFFFFFFF55
:10237600FFFFFFFFFFFFFFFFFFFFFFFFFFFFFFFF67
:10238600FFFFFFFFFFFFFFFFFFFFFFFFFFFFFFFF57
:10239600FFFFFFFFFFFFFFFFFFFFFFFFFFFFFFFF47
:1023A600FFFFFFFFFFFFFFFFFFFFFFFFFFFFFFFF37
:1023B600FFFFFFFFFFFFFFFFFFFFFFFFFFFFFFFF27
:1023C600FFFFFFFFFFFFFFFFFFFFFFFFFFFFFFFF17
:1023D600FFFFFFFFFFFFFFFFFFFFFFFFFFFFFFFF07
:1023E600FFFFFFFFFFFFFFFFFFFFFFFF1010FFFFD5
:1023F600FF0000FFFFFFFFFFF000000FFFFFFFFFE2
:1024060000222200FFFFFFFF00222200FFFFFFF055
:10241600022002200FFFFFF0022002200FFFFF0024
:102426002200002200FFFF00220FF02200FFF00230
:10243600200FF002200FF00220000002200F0022E1
:1024460022222222220000222222222222000022EE
:10245600000000002200002200FFFF0022000022F0
:1024660000FFFF002200000000FFFF000000101028
:1024760000000000000000FF022222222222000F9C
:102486000222222222222000000220000022220014
:10249600F00220FFF0022200F00220FFF0022200EC
:1024A600F00220000022200FF0022222222200FF4A
:1024B600F0022222222200FFF00220000022200F3A
:1024C600F00220FFF0022200F00220FFF0022200BC
:1024D60000022000002222000222222222222000C4
:1024E600022222222222000F00000000000000FF2C
:1024F60010101010101010101010101010101010D6
:062506001010101010106F
:1086F60078B6E2FB08E2FA08E2F9124649FF7898F2
:10870600E22F78D7F222F278B6E2FB0808E2F924E3
:1087160001F218E2FA3400F202463078B6E2FB08BB
:10872600E2FA08E2F922E22401F218E23400F22227
:058DF300E47898F22273
:0A6C2B0078AEEFF208ECF208EDF28B
:106C350078AEE2FF25E0F2E22408F278B5F278AF0B
:106C4500E2FE08E27803C333CE33CED8F979B0F348
:106C5500EE19F378B0E2240812872FAF037E007C8B
:106C6500017D0212468874262FF974003EFA78B623
:106C750074FFF208EAF208E912870C78B112870C62
:106C850078B2F2E408F278B1E2FF78B3E2C39F404C
:106C950003026D4DE408F278B2E2FF78B4E2C39FD7
:106CA5004003026D3A128721124630128703E4FB36
:106CB5007D02FF128A609000011286F67B01126D3B
:106CC500759000021286F67B02126D75128721906F
:106CD50000031287007B03126D7D78D77480F27BE9
:106CE50004126D7D78B8E2240412872F78B5E27816
:106CF500D7F27B05126D9008E278D7F27B07126D0B
:106D050090E27E007802C333CE33CED8F9126D4EB1
:106D1500126D8520E7FA78AFE225E025E0440812F8
:106D25006D4E126D8520E7FA78B5E204F218E2247B
:106D350004F2026C9C78AEE278B5F278B012872C3A
:086D450078B3E204F2026C8B4A
:106D4D002278D7F27B097D02E4FF128A607B0A7DEF
:106D5D0002E4FF128902EF543F448078D7F27B0A98
:106D6D007D02E4FF128A60227D02E4FF128A602216
:106D7D007D02E4FF128A60227B0A7D02E4FF128904
:0D6D8D0002EF227D02E4FF128A6078AF223F
:0A80F40078A7EFF208EDF208EBF2B6
:1080FE000812872312000E78ADEFF2C364809480CD
:10810E00404278A7E230E02F78A8E2FF08E2FD7C3B
:10811E000008128723124630FB126C2B78ADE21446
:10812E00F21812872C78A8E22402F278ADE2D3641A
:10813E0080948050D3800A78ADE2D36480948050CE
:04814E00F6128DFE9A
:01815200220A
:108BCC000500000600000700000800000900000A6C
:108BDC0000001F000020000B000C000D000E000F09
:058BEC0010111212003F
:038DDC0001210072
:107AFC007856E275F003A424CCF9748B35F0FA783F
:107B0C00AA74FFF2082278A4900001E2FB08E2FAC2
:107B1C0008E2F902464978A4E2FB08E2FA08E2F925
:107B2C00227856E2FF74017E00A8070822FF7863D2
:107B3C00E2FDEF5D22748BF20874EBF222748BF28F
:107B4C000874D8F222748BF20874E9F222900002C5
:107B5C00024649EAF208E9F2E4FB22124630540CE0
:107B6C001313543FF52722748BF20874E1F2E4FBF3
:107B7C007D0122EAF208E9F27B12227B017D127C64
:107B8C0000227D197B057C007F3A22EBF208EAF299
:107B9C0008E9F2229000030246497B017D0F7C002C
:107BAC00227B01FDFC7F0122EAF208E9F27B0F2225
:0F7BBC007B01E4FDFC7F41227BFE7A00795B2296
:108444001272CC128DF37F04128DF87F03128DFB10
:10845400E4F527AF271284790527E527C39406405E
:10846400F27F011288CD7FFF128DFB7F0812847981
:04847400E47853F263
:1084780022128C1478A8E4F2087426F27B5AE4FDE0
:06848800FCFF127C6C22D7
:104E360078A4127B977F02128DF87FFF128DFB7884
:104E460055E21247924E79114E8A214EB2224ECF2A
:104E5600314F02334F34344F6C414FBA914FD0A18A
:104E66004FFEA25025B15069B350A6B450E7C10019
:104E760000514878A4127B2412463020E1030251E7
:104E860048024FC878A4127B2412463030E109123A
:104E96007AFC127B5F125194127B1220E1030251BD
:104EA600487857127AFE127BB4024FF978A4127B27
:104EB6002412463030E106127AFC125149127B1256
:104EC60020E10302514802501878A4127B241246AE
:104ED6003030E109127AFC127B5F125194127B1278
:104EE60030E1087857127AFE12518578A4900002B4
:104EF600127B1720E103025148024F2F78A4127B40
:104F06002412463030E106127AFC125149127B1205
:104F160030E1087857127AFE12517678A4127B2473
:104F2600127B5920E1030251487858024FB178A408
:104F3600127B2412463030E106127AFC12515812C6
:104F46007B1230E1087857127AFE12517678A41255
:104F56007B24127B5920E1030251487858127AFECD
:104F6600127BB40250E278A4127B2412463030E160
:104F760006127AFC125158127B1230E10B78571246
:104F86007AFE127B5F12519C78A4127B24127B5905
:104F960030E1087858127AFE12518578A4127B24E3
:104FA600127BA020E1030251487859127AFE127B47
:104FB600B402502078A4127B2412463020E103026A
:104FC6005148127AFC127B5F802978A4127B241246
:104FD600463030E10D127AFC127B5F7D297F01128B
:104FE60080F4127B1220E1030251487857127AFEB0
:104FF600127B7F7D2902514378A4127B241246300E
:1050060030E106127AFC125167127B1220E103028C
:1050160051487857127AFE127B5F7D3E02514378E3
:10502600A4127B2412463030E10D127AFC127B5F0B
:105036007D297F011280F4127B1230E10B78571222
:105046007AFE127B7F1251A478A4127B24127B591C
:1050560020E1030251487858127AFE127B7F7D3E8A
:1050660002514378A4127B2412463030E106127AAC
:10507600FC125167127B1230E10B7857127AFE123E
:105086007B5F12519C78A4127B24127B5920E1038A
:105096000251487858127AFE127B7F7D3E025143B8
:1050A60078A4127B2412463030E109127AFC127B76
:1050B6005F1251A4127B1230E10F7857127AFE125A
:1050C6007B5F7D3E7F011280F478A4127B24127BE5
:1050D6005930E16E7858127AFE127B7F7D140251A8
:1050E6004378A4127B2412463030E10D127AFC126A
:1050F6007B5F7D147F011280F4127B1230E10F7802
:1051060057127AFE127B5F7D3E7F011280F478A4EF
:10511600127B24127B5930E10F7858127AFE127BEB
:105126007F7D147F011280F478A4127B24127BA069
:1051360030E10F7859127AFE127B7F7D3E7F011295
:1051460080F422EAF208E9F2E4FB7D147F01128082
:10515600F422EAF208E9F2E4FB7D147F011280F4FE
:1051660022EAF208E9F2E4FB7D147F011280F422C0
:10517600EAF208E9F2E4FB7D3E7F011280F422EABE
:10518600F208E9F27B0F7D147F011280F4227D295B
:105196007F011280F4227D3E7F011280F4227D146D
:0651A6007F011280F422DB
:078DE0007854E24480F22206
:1087EF007B787D01E4FF128902EF540FFF7863F26B
:1087FF007854E26F6021D2217B31E4FDFF128902B0
:10880F00EF547F78D7F27B31E4FDFF128A60123389
:08881F00AC7863E27854F22208
:0560F90078A4127B9762
:1060FE007F41128DF87855E2124792613111615845
:10610E002161A62261FB31623933627634613191AD
:10611E006158A161A6A261FBB16239B36276B40087
:10612E000062C378A4127B24127B676003026205AF
:10613E0012630D127B2412463030E50302621F7883
:10614E0053E260030262C302623378A4127B24120C
:10615E007B67600D1262C4127B0A127B5F7D1C800E
:10616E0015126300127B2412463030E5101262DDE8
:10617E00127B0B127B737F011280F4800B7853E23B
:10618E007006127BAD127BCB78A4127B14127B6A45
:10619E0060030262800261F178A4127B24127B6795
:1061AE00600D1262C4127B0A127B5F7D1C80151279
:1061BE006300127B2412463030E5101262DD127B32
:1061CE000B127B737F011280F4800B7853E2700602
:1061DE00127BAD127BCB78A4127B14127B6A600308
:1061EE000262807B01E4FDFC7F460262C078A4124D
:1061FE007B24127B67600E1262E7127B0A127B5FB2
:10620E007D310262B312630D127B2412463030E5EB
:10621E000C12631A127B0B127B730262B37853E279
:10622E0060030262C3127BAD0262C078A4127B24AB
:10623E00127B67600E1262E7127B0A127B5F7D1C77
:10624E000262B37F1C126324127B2412463030E5A7
:10625E000C12631A127B0B127B730262B37853E239
:10626E007053127BAD0262C078A4127B14127B6A4B
:10627E00601C12632FE52725E0FFE433FE74E12F47
:10628E00F9748B3E127B0A127B5F7D4680177F4628
:10629E00126324127B2412463030E50E12632F1245
:1062AE007B0B127B737F010280F47853E27006122F
:0562BE007BAD127BCB5B
:1062C300227B02E4FDFCFF127BCBE52725E0FFE404
:1062D30033FE74E12FF9748B3E227B02E4FDFCFF55
:1062E300127BCB227B02E4FDFCFF127BCBE527254F
:1062F300E0FFE433FE74E12FF9748B3E227B01E46B
:10630300FDFC7F1C127BCB78A4227B01E4FDFC7F88
:1063130031127BCB78A4227B02E4FDFCFF127BCB02
:10632300227B01E4FDFC127BCB78A4227B02E4FDFB
:06633300FCFF127BCB22EF
:103D790078A4127B977F0C128DF87855E21247923E
:103D89003DB7113DC6213DEB223E0D313E4E333E3E
:103D990087343ECC413F2D913F47A13F7BA23FADA8
:103DA900B14000B3404BB4409CC100004108127BB4
:103DB9002212463030E003023F36023F40127B2296
:103DC90012463030E00B127B0B127B4912418B807B
:103DD9000312416078A4127B1430E003023F6602AB
:103DE9003F73127B2212463030E008127B0B1241DE
:103DF90009800312412B78A4127B1430E003023F9F
:103E09009A023FA7127B2212463030E00B127B0B3D
:103E1900127B4912418B800312416078A4127B14F2
:103E290030E00B127B0B127B491241B58008127BE3
:103E3900A67F17127BCB127B22127B5930E003023B
:103E49003F1B023F26127B2212463030E008127BCC
:103E59000B124109800312412B78A4127B1430E024
:103E69000B127B0B127B49124176800312413612E9
:103E79007B22127B5930E003023F1B023F26127B53
:103E89002212463030E008127B0B12411A800312CD
:103E9900414178A4127B1430E00B127B0B127B4951
:103EA9001241768003124136127B22127B5930E08F
:103EB9000B127B0B127B497B0F02408C7B017D0F20
:103EC900024095127B2212463030E008127B0B1219
:103ED900411A800312414178A4127B1430E00B127D
:103EE9007B0B127B491241A0800312416B127B228A
:103EF900127B5930E00B127B0B127B491241B580C2
:103F090008127BA67F17127BCB127B22127BA03073
:103F1900E00B127B0B127B497B0F023FA27B017DD9
:103F29000F023FF9127B2212463030E00A127B0B56
:103F3900127B49E4FB802E7B01E4FDFC802F127B80
:103F49002212463030E00B127B0B127B491241BF23
:103F5900800312419578A4127B1430E00D127B0B7B
:103F6900127B497B0F7D2C0240FB127BA67F2C0222
:103F79004105127B2212463030E00B127B0B127B7B
:103F89004912414C800312418078A4127B1430E01D
:103F99000D127B0B127B49E4FB7D410240FB127B36
:103FA900BC024105127B2212463030E00B127B0B1A
:103FB900127B491241BF800312419578A4127B14E8
:103FC90030E00B127B0B127B491241C98008127B2E
:103FD900877F17127BCB127B22127B5930E00D129F
:103FE9007B0B127B497B127D410240FB7B017D12D9
:103FF9007C007F41024105127B2212463030E00BE2
:10400900127B0B127B4912414C800312418078A428
:10401900127B1430E00B127B0B127B491241A080FA
:104029000312416B127B22127B5930E00D127B0B7C
:10403900127B497B127D410240FB127B877F410243
:104049004105127B2212463030E00B127B0B127BAA
:104059004912415680031241AA78A4127B1430E018
:104069000B127B0B127B491241D38006127BBC12C7
:104079007BCB127B22127B5930E00D127B0B127B1A
:10408900497B127D170240FB7B017D127C007F1763
:10409900024105127B2212463030E00B127B0B12D3
:1040A9007B4912415680031241AA78A4127B14302D
:1040B900E00B127B0B127B491241D38006127BBCA9
:1040C900127BCB127B22127B5930E00B127B0B1235
:1040D9007B491241C98008127B877F17127BCB125B
:1040E9007B22127BA030E00F127B0B127B497B12E3
:1040F9007D417F010280F4127B877F41127BCB22B5
:10410900748BF20874D8F2E4FB7D177F011280F4F6
:1041190022748BF20874D8F2E4FB7D177F011280B8
:10412900F4227B01E4FDFC7F17127BCB227B01E4A7
:10413900FDFC7F41127BCB227B01E4FDFC7F171242
:104149007BCB22E4FB7D177F011280F422E4FB7D07
:10415900177F011280F4227B01E4FDFC7F2C127B86
:10416900CB227B01E4FDFC7F41127BCB22E4FB7D6A
:10417900417F011280F4227B01E4FDFC7F17127B51
:10418900CB22E4FB7D2C7F011280F4227B01E4FD2C
:10419900FC7F2C127BCB22E4FB7D417F011280F452
:1041A900227B01E4FDFC7F17127BCB227B0F7D175D
:1041B9007F011280F422E4FB7D2C7F011280F4221E
:1041C9007B127D177F011280F422E4FB7D417F0180
:0441D9001280F4223A
:1039110078A4127B977F02128DF87855E2124792B4
:10392100394C11395D21398A2239AE3139F3333AB3
:1039310030343A79413AE0913B02A23B3AB13B9EA5
:10394100B33BEDB43C3FC100003CAE78A4127B24F4
:1039510012463030E403023AEB023AF878A4127BC3
:103961002412463030E40B127B0B127B51123D4680
:103971008003123D2678A4127B2412463030E403E2
:10398100023AEB127BA6023AFD78A4127B2412467E
:103991003030E408127B0B123CAF8003123CD1782B
:1039A100A4127B1430E403023B23023B3078A412BF
:1039B1007B2412463030E40B127B0B127B51123DFB
:1039C100468003123D2678A4127B1430E40B127B4F
:1039D1000B127B51123D508008127BA67F1F127B78
:1039E100CB78A4127B24127B5930E403023ACE0235
:1039F1003AD978A4127B2412463030E408127B0BAA
:103A0100123CAF8003123CD178A4127B1430E40B3A
:103A1100127B0B127B51123D1C8003123CDC78A4FB
:103A2100127B24127B5930E403023ACE023AD97850
:103A3100A4127B2412463030E408127B0B123CC0E6
:103A41008003123CE778A4127B1430E40B127B0B49
:103A5100127B51123D1C8003123CDC78A4127B24A2
:103A6100127B5930E40B127B0B127B517B0F023C12
:103A71002F7B017D0F023C3878A4127B2412463043
:103A810030E408127B0B123CC08003123CE778A49F
:103A9100127B1430E40B127B0B127B51123D3180EF
:103AA10003123D0678A4127B24127B5930E40B12D9
:103AB1007B0B127B51123D508008127BA67F1F1297
:103AC1007BCB78A4127B24127BA030E40B127B0BFE
:103AD100127B517B0F023B2B7B017D0F023B9778C1
:103AE100A4127B2412463030E40D127B0B127B5161
:103AF100E4FB7D34023CA17B01E4FDFC7F34023C0C
:103B0100AB78A4127B2412463030E40B127B0B12EB
:103B11007B51123CF28003123D1178A4127B1430C8
:103B2100E40D127B0B127B51E4FB7D49023CA17B2E
:103B310001E4FDFC7F49023CAB78A4127B241246D0
:103B41003030E411127B0B127B51E4FB7D347F0199
:103B51001280F4800A7B01E4FDFC7F34127BCB7878
:103B6100A4127B1430E40B127B0B127B51123D6FBC
:103B71008008127B877F1F127BCB78A4127B2412D3
:103B81007B5930E40D127B0B127B517B127D490274
:103B91003CA17B017D127C007F49023CAB78A412E1
:103BA1007B2412463030E40B127B0B127B51123C0A
:103BB100F28003123D1178A4127B1430E40B127BC6
:103BC1000B127B51123D318003123D0678A4127B0A
:103BD10024127B5930E40D127B0B127B517B127D39
:103BE10049023CA1127B877F49023CAB78A4127B3E
:103BF1002412463030E40B127B0B127B51123CFC39
:103C01008003123D3B78A4127B1430E40B127B0B32
:103C1100127B51123D658003123D5A78A4127B2418
:103C2100127B5930E40D127B0B127B517B127D1FED
:103C3100023CA17B017D127C007F1F023CAB78A47A
:103C4100127B2412463030E40B127B0B127B511293
:103C51003CFC8003123D3B78A4127B1430E40B1230
:103C61007B0B127B51123D658003123D5A78A412E1
:103C71007B24127B5930E40B127B0B127B51123DDA
:103C81006F8008127B877F1F127BCB78A4127B2465
:103C9100127BA030E40F127B0B127B517B127D490A
:103CA1007F010280F4127B877F49127BCB22748BC8
:103CB100F20874E9F2E4FB7D1F7F011280F42274A3
:103CC1008BF20874E9F2E4FB7D1F7F011280F4227C
:103CD1007B01E4FDFC7F1F127BCB227B01E4FDFC19
:103CE1007F49127BCB227B01E4FDFC7F1F127BCB42
:103CF10022E4FB7D1F7F011280F422E4FB7D1F7F04
:103D0100011280F4227B01E4FDFC7F49127BCB226E
:103D11007B01E4FDFC7F1F127BCB22E4FB7D497F0D
:103D2100011280F4227B01E4FDFC7F34127BCB2263
:103D3100E4FB7D497F011280F4227B01E4FDFC7FDD
:103D41001F127BCB22E4FB7D347F011280F4227BA6
:103D51000F7D1F7F011280F4227B01E4FDFC7F496E
:103D6100127BCB22E4FB7D497F011280F4227B127E
:083D71007D1F7F011280F42286
:1033AC007855E212479233DA1133FD22344131342D
:1033BC00B033351534358141360D913636A236820F
:1033CC00B136F0B33758B437D1C10000385A127B3C
:1033DC002D8005C333CE33CED8F9127B39600B1256
:1033EC007B0B127B417B0D0236267B057D0D023655
:1033FC002F127B2D8005C333CE33CED8F9127B39F7
:10340C00600B127B0B127B411238B780031238739E
:10341C007857127B2F8005C333CE33CED8F9127B6D
:10342C0039600B127B0B127B417B0D0236727B05D4
:10343C007D0D02367B127B2D8005C333CE33CED867
:10344C00F9127B396011127B0B127B417B077D25B6
:10345C007F011280F480057D071238FD7857127BAE
:10346C002F8005C333CE33CED8F9127B39600D12C1
:10347C007B0B127B417B151238D780031238C17835
:10348C0058127B2F8005C333CE33CED8F9127B393B
:10349C00600B127B0B127B417B150236727B057D18
:1034AC001502367B127B2D8005C333CE33CED8F973
:1034BC00127B39600B127B0B127B411238B78003E5
:1034CC001238737857127B2F8005C333CE33CED886
:1034DC00F9127B39600B127B0B127B411238CD80B9
:1034EC000312387F7858127B2F8005C333CE33CE2E
:1034FC00D8F9127B39600B127B0B127B417B1502C6
:10350C0036727B057D1502367B127B2D8005C3330D
:10351C00CE33CED8F9127B39600B127B0B127B4168
:10352C0012388B800312385B7857127B2F8005C3BF
:10353C0033CE33CED8F9127B39600D127B0B127B54
:10354C00417D3A1238F580087D0D127B90127BCBB1
:10355C007858127B2F8005C333CE33CED8F9127B2B
:10356C0039600B127B0B127B417B150237C17B053B
:10357C007D150237CA127B2D8005C333CE33CED8CE
:10358C00F9127B39600B127B0B127B4112388B804A
:10359C000312385B7857127B2F8005C333CE33CEA2
:1035AC00D8F9127B39600B127B0B127B411238CD90
:1035BC00800312387F7858127B2F8005C333CE33AB
:1035CC00CED8F9127B396011127B0B127B417B1523
:1035DC007D107F011280F480031238C17859127B60
:1035EC002F8005C333CE33CED8F9127B39600B1242
:1035FC007B0B127B417B150236727B057D150236E7
:10360C007B127B2D8005C333CE33CED8F9127B3998
:10361C00600D127B0B127B417B107D2502384F7B9A
:10362C00057D107C007F25023857127B2D8005C349
:10363C0033CE33CED8F9127B39600D127B0B127B53
:10364C00417B101238D780031238957857127B2F94
:10365C008005C333CE33CED8F9127B39600D127B83
:10366C000B127B417B107D3A02384F7B057D107C21
:10367C00007F3A023857127B2D8005C333CE33CEF0
:10368C00D8F9127B396011127B0B127B417B087DC0
:10369C00257F011280F480057D081238FD785712C1
:1036AC007B2F8005C333CE33CED8F9127B39600B18
:1036BC00127B0B127B4112390780031238DF7858CA
:1036CC00127B2F8005C333CE33CED8F9127B3960F1
:1036DC000D127B0B127B417B197D3A02384F127B0A
:1036EC008E023857127B2D8005C333CE33CED8F9DA
:1036FC00127B39600D127B0B127B417D101238F559
:10370C0080031238957857127B2F8005C333CE3344
:10371C00CED8F9127B39600B127B0B127B4112381D
:10372C00EB80031238AB7858127B2F8005C333CE55
:10373C0033CED8F9127B39600D127B0B127B417B97
:10374C00197D3A02384F127B8E023857127B2D802E
:10375C0005C333CE33CED8F9127B39600B127B0BF9
:10376C00127B411238A180031238677857127B2FD5
:10377C008005C333CE33CED8F9127B396011127B5E
:10378C000B127B417B107D3A7F011280F4800B7B06
:10379C00057D107C007F3A127BCB7858127B2F80F2
:1037AC0005C333CE33CED8F9127B39600D127B0BA7
:1037BC00127B417B197D1002384F7B057D197C00F3
:1037CC007F10023857127B2D8005C333CE33CED8F1
:1037DC00F9127B39600B127B0B127B411238A180E2
:1037EC00031238677857127B2F8005C333CE33CE44
:1037FC00D8F9127B39600B127B0B127B411238EB20
:10380C0080031238AB7858127B2F8005C333CE332C
:10381C00CED8F9127B39600B127B0B127B4112391B
:10382C000780031238DF7859127B2F8005C333CE03
:10383C0033CED8F9127B39600F127B0B127B417B94
:10384C00197D3A7F010280F4127B8E127BCB227B96
:10385C00057D077C007F10127BCB227B057D087CCD
:10386C00007F10127BCB227B057D0D7C007F10121C
:10387C007BCB227B057D077C007F3A127BCB227BA6
:10388C00077D107F011280F4227B057D107C007F68
:10389C0010127BCB227B087D107F011280F4227BDF
:1038AC00057D087C007F3A127BCB227B0D7D107F3F
:1038BC00011280F4227B057D157C007F10127BCBDE
:1038CC00227B077D3A7F011280F4227D107F01124A
:1038DC0080F4227B057D197C007F10127BCB227B30
:1038EC00087D3A7F011280F4227B0D7F011280F457
:1038FC00227B057C007F25127BCB227B197D107FE0
:05390C00011280F4220D
:1085AB00E4FF128C147853E224FE6011047029123C
:1085BB0085E4127B0B748BF20874DB800C1285E460
:1085CB00127B0B748BF20874DEF2E4FB7D017F01EE
:1085DB001280F47FFF128DFB227F03128DFB7F0431
:0485EB00128DF822D3
:108BA700E4FF128C14785BE230E112127BC4123DB1
:108BB70079127BC4123911127BC41260F9128DE04D
:058BC700E4FF0288CD6F
:10250C0000000000000000000000000000000000BF
:10251C0000000000000000000000000000000000AF
:10252C00003E007E00FE01CE038E7F8E7F8E738E6A
:10253C00738E738E7F8E7F8E01CE00FE007E003EEA
:10254C0000000000020006000E001E003FFE7FFE91
:10255C007FFE3FFE1E000E00060002000000000081
:10256C000000000000400060007000787FFC7FFEDF
:10257C007FFE7FFC007800700060004000000000CF
:10258C00000003C003C003C003C003C003C003C0EA
:10259C0003C03FFC1FF80FF007E003C001800000F0
:1025AC0003C003C007E007E00E700E701C381C3827
:1025BC00381C381C7FFE7FFE700E700E700E700E75
:1025CC007FF87FFC383E381E381E381E383C3FF8EA
:1025DC003FF8383C381E381E381E383E7FFC7FF8DA
:1025EC000FF81FFC3C1C380E780E700E700070003B
:1025FC0070007000700E700E380E3C1C1FFC0FF833
:10260C007FF07FF07078703C703C703C70787FF09D
:10261C007FE0778073C071E070F07078703C701E52
:10262C0000006006700E781E7C3E7FFE77EE73CE47
:10263C00718E700E700E700E700E700E700E700E1D
:10264C0000001FF81FF800E000E000E000E000E0F0
:10265C0000E000E000E070E079E03FC01F800F0078
:10266C0000000000000003C007800F001E003FFCAC
:10267C003FFC1E000F00078003C00000000000009C
:10268C0000000000000003C001E000F000783FFCF7
:10269C003FFC007800F001E003C0000000000000E7
:1026AC0000000000018001800180018011881998D0
:1026BC001DB81FF80FF007E003C0018000000000F8
:1026CC00003E007E00FE01CE038E7F8E7F8E738EC9
:1026DC00738E738E7F8E7F8E01CE00FE007E003E49
:1026EC00700E700E700E700E700E700E781E381C00
:1026FC00381C1C381C380E700FF007E003C001802A
:10270C000000380038003800380038003800380035
:10271C0038003800380038063806380E3FFE3FFEC9
:10272C000000000000000000000003800FE01C709F
:10273C00183038383838383818301C700FE00380AF
:10274C000000000000000000000003C00FF01C3867
:10275C001C000F0007E000F000381C380FF003C01D
:10276C00000000000000000000000000000000005D
:10277C00000000000000000000000000000000004D
:10278C00000000000000000000000000000000003D
:10279C00000000000000000000000000000000002D
:1027AC00000000000000000000000000000000001D
:1027BC00000000000000000000000000000000000D
:1027CC0000000000000000000000000000000000FD
:1027DC0000000000000000000000000000000000ED
:1027EC0000000000000000000000000000000000DD
:1027FC0000000000000000000000000000000000CD
:10280C0000000000000000000000000000000000BC
:10281C0000000000000000000000000000000000AC
:10282C00000000000000000000000000000000009C
:10283C00000000000000000000000000000000008C
:10284C00000000000000000000000000000000007C
:10285C00000000000000000000000000000000006C
:10286C00000000000000000000000000000000005C
:10287C00000000000000000000000000000000004C
:10288C00000000000000000000000000000000003C
:10289C00000000000000000000000000000000002C
:1028AC00000000000000000000000000000000001C
:1028BC00000000000000000000000000000000000C
:1028CC0000000000000000000000000000000000FC
:1028DC0000000000000000000000000000000000EC
:1028EC0000000000000000000000000000000000DC
:1028FC0000000000000000000000000000000000CC
:10290C0000000000000000000000000000000000BB
:10291C0000000000000000000000000000000000AB
:10292C00000007000F800F800F800F80070007004A
:10293C00070002000200000002000700070002006E
:10294C000000EE006600440088000000000000005B
:10295C00000000000000000000000000000000006B
:10296C00000008200820082008203FF80820082034
:10297C000820082008203FF80820082008200820FC
:10298C0000000FC01B603330333033001B000F00CE
:10299C0003C0036013303B3033301B600FC00300A7
:1029AC000000380844108420044004800900127090
:1029BC00E4880908120822084210822001C0000095
:1029CC0000000E001B00318031801B000E001C002B
:1029DC003678632061A060E0606030F01F9C0000DE
:1029EC0000000000000000000000000000000000DB
:1029FC00000000000000800060007000380018002B
:102A0C0000000004000800180010003000300030F6
:102A1C0000300030003000100018000800040002E4
:102A2C0000008000400060002000300030003000CA
:102A3C0030003000300020006000400080000000BA
:102A4C00000002004210222012400A800700FFFC06
:102A5C0007000A80124022204210020002000000EF
:102A6C0000000000030003000300030003007FF8D4
:102A7C007FF80300030003000300030000000000C4
:102A8C00000000000000000000000000000000003A
:102A9C00000018003C003C00180010002000400012
:102AAC0000000000000000000000000000007FF8A3
:102ABC007FF8000000000000000000000000000093
:102ACC0000000000000000000000000000000000FA
:102ADC00000000000000780084008400840078006E
:102AEC00000000180030006000C0018003000600E8
:102AFC000C00180030006000C000800000000000D6
:102B0C0000000FE0183030183038307830D8319859
:102B1C00331836183C183818301818300FE00000ED
:102B2C000000030007000F00030003000300030074
:102B3C000300030003000300030003001FE0000078
:102B4C0000000FE01830301830183038007001C019
:102B5C0003000E001800300830083FF83FF8000062
