:030000000272CABF
:0C72CA00787FE4F6D8FD75813502731161
:10834200D2BCD2AC758DF4D28EE47850F208F2220F
:0F8352007850E2FF08E2B507037F00227F012287
:10822A00C2AC7850E22400F8E2FF7850E204F2E2AD
:09823A00C394504002E4F2D2ACFE
:018243002218
:080003003099FD8F99C299228A
:0300230002813621
:10813600C0E0C0D075D008309818C2987851E224B3
:1081460000F8E599F27851E204F2E2C39450400255
:07815600E4F2D0D0D0E032CA
:1080BE0078ACE2FB08E2FA08E2F9227590F6D2B645
:1080CE00D2B77580FFD2AF22AF038F80D293C29307
:0880DE0022C2AF7590F6ED22FD
:10803D001280DF7006C2B7C2B68012EDB40106C25F
:10804D00B7D2B68008EDB40204D2B7C2B61280D64C
:0D805D0078D8E2F580C291D2911280C9223C
:107A0F00AE031280DF7006C2B7C2B68012EDB401AA
:107A1F0006C2B7D2B68008EDB40204D2B7C2B6AF71
:107A2F00060E1280D878AAE2FB0808E2F92401F2C8
:107A3F0018E2FA3400F2123C5EF580C291D29178CE
:0A7A4F00ADE214F270D91280C922D2
:107EDF001280DF7006C2B7C2B68012EDB40106C2BF
:107EEF00B7D2B68008EDB40204D2B7C2B61280D6AC
:107EFF007580FFC292AF80D2927590F6D2B6D2B78C
:027F0F00D2AFEF
:017F1100224D
:1078200078ACEBF208EAF208E9F21280BE123CC82A
:10783000F47003E5F0F4603E1280BE123CC8FBAA6F
:10784000F0EAFDE4FF127EDF1280BE900002123CDF
:1078500077FC6F60141280BE123CC8FBAAF0EAFDF0
:1078600078D8ECF2E4FF12803D78AEE22403F218FF
:07787000E23400F280B422B3
:0183DE00227C
:10516C002562782025627820256278000A3C523E20
:10517C0025303262785B25303262785D3D253032E5
:10518C0062780025627820256278002562782025D7
:10519C00627820256278202562782000253162789B
:1051AC0020253162782025316278200052656164B7
:1051BC004173696342797465203D3D2025627820F6
:1051CC000A0063682562643A2562642000636825DE
:1051DC0062643A2562642063682562643A256264DD
:1051EC00200063682562643A256264206368256246
:1051FC00643A2562642063682562643A25626420FF
:10520C000063682562643A256264206368256264E1
:10521C003A2562642063682562643A2562642063DF
:10522C00682562643A256264200063682562643AEA
:10523C002562642063682562643A25626420636891
:10524C002562643A2562642063682562643A2562AB
:10525C00642063682562643A2562642000256264D8
:10526C0020000A203D3D3D3D3D3D3D3D2050414708
:10527C00452025623278203D3D3D3D3D3D3D3D3D47
:10528C003D3D3D3D0A002562327809000A0025317A
:10529C00627820253162782063682531627820633A
:1052AC00682531627820636825316278206368252F
:1052BC003162782000656E726563616C6C00656E9E
:1052CC00667265657A6500656E686D6972726F727B
:1052DC0000656E766D6972726F7200656E656E68D0
:1052EC00616E636500656E626C616E6B00656E620B
:1052FC006F756E6400656E626C696E6B00646973C9
:10530C00726563616C6C00646973667265657A655D
:10531C0000646973686D6972726F72006469737688
:10532C006D6972726F7200646973656E68616E6329
:10533C006500646973626C616E6B00646973626FA3
:10534C00756E6400646973626C696E6B003D3D3D03
:10535C003D3D20466F726D6174203A206368303D8C
:10536C005B2562785D206368313D5B2562785D204A
:10537C006368323D5B2562785D206368333D5B2555
:10538C0062785D203D3D3D3D3D0A0025627820253B
:10539C0062782063682562783A25627820636825F4
:1053AC0062783A2562782063682562783A256278BB
:1053BC002063682562783A25627820003332310008
:1053CC0026002800290062757377006275737200DD
:1053DC00616D697800616D757465006164756D70DF
:1053EC0000616761696E00616C6976650062757356
:1053FC00727400766D697800766D697865727200EA
:10540C0076617474720079766D697800696E69746E
:10541C0000766465740076736574660073737472D9
:10542C00006873636F6D006D6F64650064697373FE
:0F543C0063726F6C6C00766572000102040810D9
:04838E004100D900D1
:105B410008F208E4F2087400F2087427F208E4F29B
:105B5100087400F208742CF208E4F2087400F208E8
:105B61007428F208E4F2087400F208742DF208E4D3
:105B7100F2087400F2742908F208E4F2082208F22B
:105B810008E4F2087400F2087427F208E4F20874D9
:105B910000F208742CF208E4F2087400F208742888
:105BA100F208E4F2087400F208742DF208E4F20835
:105BB1007400F2742908F208E4F20822789FE2FBEB
:105BC10008E2FA08E2F92208F208E4F2087400F2A5
:105BD100087427F208E4F2087400F208742BF20842
:105BE100E4F2087400F2742808F208E4F20822785A
:105BF100AE74FFF2087451F274CE08F208E4F208B0
:105C0100227400F208742EF208E4F2087400F274AF
:105C11002A08F208E4F208227400F208742EF2084D
:105C2100E4F2087400F2742A08F208E4F20822741B
:105C310000F208742CF208E4F2087400F2742908E6
:105C4100F208E4F2082278AE74FFF2087451F2749B
:105C5100D908F208E4F2082278AE74FFF20874520F
:105C6100F2746908F208E4F208227400F274270859
:105C7100F208E4F208227400F2742708F208E4F250
:105C8100082208F20874FEF2087400F2745608F251
:105C91000874FEF20822EBF208EAF208E9F278AEA3
:105CA10074FEF2082208F208E4F2082278AE74FFCA
:105CB100F2082208F208E4F2082208F208E4F208E5
:105CC1002208F208E4F2082208F208E4F20822E2CB
:105CD100FF78A974FEF2087400F208745BF27BFE8F
:105CE1007A0079562208F208E4F2082208F208E460
:105CF100F20822EBF208EAF208E9F222900001E44C
:105D010075F001023CF308F208E4F20822FFE224F4
:105D11005FF8EFF222E25401FB7D2022252AF52AC9
:105D210008E254032278AAEFF27BFF7A517978785E
:105D3100A822E52890544693FFE527932F22123D90
:0B5D410051023C5E08F208E4F2082268
:10744F0078AB125CF408125BBF125D3F7002FF2233
:10745F0078AE125BBF125D3FB4200A78AE125BBFED
:10746F00125CFD80EB78AE125BBF123D51C003C0C2
:10747F0002C00178AB125BBF123D71802178AE1252
:10748F005BBF125D3FFEB4200FE4123CA478AE1236
:10749F005BBF125CFD7F0122EE70037F012278AE8D
:0874AF00125BBF125CFD80D5E9
:057D8B0078AB125CF46E
:107D9000E4F531F53278AB125BBF123C5E602578BA
:107DA000ABE2FB0808E2F92401F218E2FA3400F22F
:107DB000123C5EFF3395E0FEEF2532F532EE3531B1
:087DC000F53180D1AE31AF3284
:017DC8002298
:0F8361007F411200037F431200037F4B02000392
:107C8900E4F52A7856E25403125D1D25E025E01239
:107C99005D1DC454F0125D1DC4333354C0252AF54B
:107CA9002A7855E2B5070B785AE2B52A05E47865D2
:107CB900F22278657401F2785AE52AF27855EFF2E2
:017CC9002298
:107C0400125CAD7451F2746C125B787400F27427D8
:107C1400125BB67400F27428125BE97400F2087403
:107C240029F2124ED4AB28AD27E4FF127EDF125D99
:107C340026E527F208E528F212482D0528E528B59F
:027C440029E332
:017C4600221B
:107F1200125CAD7451F2748F125BFB7400F2742721
:107F2200125C127400F2087428F2124ED4AB28AD1F
:107F320027E4FF127EDF125D26E527F208E528F22C
:037F420002482DC5
:107F4500125CAD7451F2746C125C297400F27427E2
:107F5500125C407400F27428125C527400F20874CA
:107F650029F2124ED478D8E529F2AB28AD27E4FFE3
:037F750002803D4A
:1079C300E4F527F528F529F52AC003C002125CADBA
:1079D3007451F27497125C647400F27427125C7031
:1079E3007400F27428125C7C7400F27429125CA691
:1079F3007400F208742AF2D002D003124ED478D85D
:0C7A0300E52AF2AB29AD28E4FF02803D2B
:107AEC00E4F527F528F529F52A125CAD7451F274EA
:107AFC00A8125CA67400F27427125CB47400F274C1
:107B0C0028125CB47400F2087429F2124ED4AB291A
:107B1C00AD28E4FF127EDF8F2A7BFF7A5179B8788B
:077B2C00A8E52AF202482D32
:0260990078A5E8
:10609B00125C977400F20874A5F27BFE7A0079A863
:1060AB0012744FE4FB7D1FFF127FAB78A8125BBF0E
:1060BB00127024EE60030261D3EF24FE603D146086
:1060CB006514700302615514700302617D24046032
:1060DB00030261D3125BF0125C6B7400F208742C38
:1060EB00F278A5125BBF124ED4AB2CAD27E4FF1296
:1060FB007648E527905446930261CB125C47125CBD
:10610B006B7400F2742C125CBB7400F27428125C7A
:10611B00BB7400F208742DF278A5125BBF1261D428
:10612B00125D330261CB125CAD7451F274EE125BF3
:10613B00417400F208742EF278A5125BBF1261D481
:10614B00AB2EAD291261EA0261CB125CAD7452F237
:10615B00740D125B41125C027400F208742FF2781A
:10616B00A5125BBF1262001261EAFFE52A932F02B0
:10617B0061CB125CAD7452F2087436125B42125C46
:10618B00027400F2742F125CC27400F2742B125C56
:10619B00C27400F2087430F278A5125BBF12620071
:1061AB00E4FF127648AB30AD2BE4FF127648125D5C
:1061BB0033FFE529932FFFE52A932FFFE52B932F31
:0861CB00FD7B01E4FF127FAB34
:1061D30022124ED4AB2CAD27E4FF127648AB2DAD83
:1061E30028E4FF12764822E4FF127648E52890540B
:1061F3004693FFE527932FFFE529932F22124ED4D1
:10620300AB2CAD27E4FF127648AB2DAD28E4FF128B
:106213007648AB2EAD29E4FF127648AB2FAD2A2288
:0F837000E4FB7D1FFF127FAB7DFFE4FF0280E681
:0266510078A52A
:10665300125C977400F20874A5F27BFE7A0079A8A5
:1066630012744F78A8125BBF127024EE60030267A6
:1066730058EF24FE602F14605414606E14700302EC
:10668300671024046003026758125BF0125C77748E
:1066930000F208742CF278A5125BBF124ED4AB2C17
:1066A300AD27026753125C47125C777400F2742CB7
:1066B300125CC97400F27428125CC97400F2087485
:1066C3002DF278A5125BBF126773026753125CAD9C
:1066D3007451F274EE125B7F7400F208742EF27838
:1066E300A5125BBF126759026753125CAD7452F275
:1066F300740D125B7F125C197400F208742FF27828
:10670300A5125BBF126759126784026753125CAD0F
:106713007452F2087436125B80125C197400F274BE
:106723002F125CE67400F2742B125CE67400F2081C
:106733007430F278A5125BBF126773E4FF1277C55A
:10674300AB2EAD29126784E4FF1277C5AB30AD2BB6
:05675300E4FF1277C510
:1067580022124ED4AB2CAD27E4FF1277C5AB2DAD7A
:1067680028E4FF1277C5AB2EAD2922124ED4AB2CEC
:10677800AD27E4FF1277C5AB2DAD2822E4FF1277D1
:06678800C5AB2FAD2A2273
:1082CE00125C597400F2087427F2124ED4AD27E4F2
:0482DE00FF0280E635
:107AA300E4F5287BFF7A52796E78A8E528F212482C
:107AB3002DE4F527AB27AD28E4FF127EDF78A8EF8E
:107AC300F27BFF7A52799212482D0527E527540F4E
:107AD30070097BFF7A52799812482DE52770D505F6
:087AE30028E528C3940340BB11
:017AEB002278
:10787700C003C002C001125CAD7452F2749A125C6C
:10788700ED7400F27427125CED7400F27428125C38
:10789700837400F27457125C8F7400F208745812E4
:1078A7005C907400F2087459F2D001D002D0031230
:1078B7004ED4E527C454F0FFE528540F2FF52712BF
:0678C7005CDFFF025F041C
:0559310078A5125CF4F2
:10593600E4F52F125C9F125B1B78A8125BBF1270F6
:10594600248F30125C9F125B1B78A8125BBF127DFE
:105956008B8E278F287A5279C1125AFFB5280AEE04
:10596600B527067529800259F37A5279CA125AFF69
:10597600B5280AEEB527067529400259F37A5279F9
:10598600D3125B06B52809EEB52705752920805D7B
:105996007A5279DD125B06B52809EEB52705752919
:1059A60010804A7A5279E7125B0DB52809EEB527C1
:1059B6000575290880377A5279F1125B0DB52809E9
:1059C600EEB5270575290480247A5279F9125B14FD
:1059D600B52809EEB5270575290280117A53790194
:1059E600125B14B5280DEEB52709752901752A0134
:1059F600025A9D7A537909125B2CB5280AEEB5270F
:105A060006752980025A807A537913125B2CB528C1
:105A160009EEB5270575294080607A53791D125B1A
:105A260033B52809EEB52705752920804D7A5379B7
:105A360028125B33B52809EEB52705752910803A7B
:105A46007A537933125B3AB52809EEB527057529DD
:105A56000880277A53793E125B3AB52809EEB527B6
:105A66000575290480147BFF7A537947127D8BEFE5
:105A7600B5280CEEB52708752902E4F52A80187BAF
:105A8600FF7A537950127D8BEF65287003EE6527F8
:105A96007066752901F52A125C9F7400F20874A5D8
:105AA600F27BFE7A0079A812744FEF603278A81262
:105AB6005BBF123C5EB477DF900001123C77B4699D
:105AC600D6900002123C77B46ECDE92403F9E43A8D
:105AD600FA127024742B252FF8A607052F80B8E537
:105AE6002F6015242AF8E6FFC395305007AB2AAD80
:085AF60029127FDE152F80E765
:105AFE00227BFF127D8BEF227BFF127D8BEF227BB1
:105B0E00FF127D8BEF227BFF127D8BEF227400F252
:105B1E000874A5F27BFE7A0079A812744F227BFFDF
:105B2E00127D8BEF227BFF127D8BEF227BFF127D8E
:035B3E008BEF22C8
:10833000125C597400F2087427F2124ED4AF27026F
:0283400082E2D7
:107F7800E4FF127B33C0077F01127B33C0077F0207
:107F8800127B33C0077F03127B3378ABEFF218D034
:107F9800E0F218D0E0F218D0E0F27BFF7A5379597A
:037FA80002482D5F
:026C300078A545
:106C3200125C977400F20874A5F27BFE7A0079A8C0
:106C420012744F78A8125BBF127024EE6003026DBB
:106C52001CEF24FE602A1460511460762403600342
:106C6200026D1C125BF07400F27427125D0774004F
:106C7200F208742BF278A5125BBF126D3B026D17FE
:106C8200125CAD7451F274D9125BC87400F20874CC
:106C92002CF278A5125BBF126D3BE4FF12810EE568
:106CA2002CC454F0FBAD28026D17125CAD7451F286
:106CB20074EE125BC8125C307400F208742DF27824
:106CC200A5125BBF126D1DE52DC454F0FBAD290268
:106CD2006D17125CAD7452F208740D125BC9125C2E
:106CE200307400F2742D125D077400F2742A125D82
:106CF200457400F208742EF278A5125BBF126D1D66
:106D0200E52DC454F0FBAD29E4FF12810EE52EC43B
:0A6D120054F0FBAD2AE4FF12810EDD
:106D1C0022124ED4E52BC454F0FBAD27E4FF1281B4
:106D2C000EE52CC454F0FBAD28E4FF12810E2212A8
:0B6D3C004ED4E52BC454F0FBAD272221
:0277680078A502
:10776A00125C971277B2125BBF1270248F27125CD9
:10777A009F1277B2125BBF1270248F287F04128384
:10778A00D87F031283DB7F051281F178A5E2F9081D
:10779A00E2FA08E278AEC9125CF5AB28AD277F01A0
:0877AA001276A97F05027EAAF8
:1077B2007400F20874A5F27BFE7A0079A812744F65
:0377C20078A82282
:107DC900752801E4F527745B2527F8E230E40F7480
:107DD900562527F8E2FDE4FF1280E6E4F528052799
:107DE900E527C3940440DFE528600FE4FB7D1FFF0E
:0A7DF900127FAB7DFFE4FF1280E66D
:017E0300225C
:10678E00C003C002C001125CAD7453F27497125D67
:10679E00457400F2087428F208E4F2087400F274EA
:1067AE0029125C837400F208745B125C907400F220
:1067BE00087457125C907400F208745C125C90744A
:1067CE0000F2087458125C907400F208745D125C4A
:1067DE00907400F2087459125C907400F208745EA2
:1067EE00F2D001D002D003124ED4E528C454F0FFEB
:1067FE007852E2FEC433333354802FFFE529540F11
:10680E002F7864F2785BE27856125D0E785CE2784F
:10681E0057125D0E785DE2FF7858125D0F785EE2DA
:10682E00FF7859125D0F785F125D16E4FF127E0439
:10683E007860125D167F01127E047861125D167FFC
:10684E0002127E047862125D167F03127E047BFEB6
:10685E007A00795F1269F37864125CD0124464781E
:10686E0064E2FF125CDF125F04E4F527745B2527F8
:10687E00F8125D16AF27127FDE0527E527C39404B5
:10688E0040EAE4F510F511F5127513057F01128338
:10689E00B77864E2FF127C897F0812820EE4FF1241
:1068AE008244127BC07BFE7A00795B124B267864A1
:0568BE00E29000D9F09A
:0168C30022B2
:107583007F03127B33EFB40202C3227852E2B507C2
:1075930002D3227852EFF2E2C43333335480FF78BC
:1075A30055E2547F4FF27F01127EAA7852E2FF1216
:1075B30075E67BFE7A00795F1269F37855125CD029
:1075C3001244647855E2FF125CDF125F04E4FF1299
:1075D3008244127BC07BFE7A00795B124B261281B8
:0275E30084D34F
:0175E5002283
:10828C00125CAD7452F2087469125C907400F208BE
:06829C007453F2024ED4FF
:0583CE007F01027EAA00
:10800F00E47F4D1200039053C8E49324D0FF120075
:10801F00039053C8A3E49324D075F00AA4FF1582EC
:0E802F00758353A3A3E49324D02FFF02000314
:02544B00789F48
:10544D00125C977400F208749FF27BFE7A0079A2C9
:10545D0012744F78A2125BBF127D8B8E258F267A28
:10546D005379CC12568AB5260DEEB52509125BBDC2
:10547D00127C040256877A5379CE12568AB5260DC0
:10548D00EEB52509125BBD127F120256877A53794C
:10549D00D0125691B5260DEEB52509125BBD127FC2
:1054AD00450256877A5379D2125691B5260DEEB52F
:1054BD002509125BBD1279C30256877A5379D7122B
:1054CD005698B5260DEEB52509125BBD127AEC0284
:1054DD0056877A5379DC125698B5260DEEB5250907
:1054ED00125BBD1260990256877A5379E112569F6D
:1054FD00B5260AEEB525061283700256877A5379C2
:10550D00E712569FB5260AEEB52506125D4C0256DA
:10551D00877A5379ED1256A6B5260DEEB5250912EB
:10552D005BBD1266510256877A5379F31256A6B5B2
:10553D00260DEEB52509125BBD1282CE0256877A75
:10554D005379F91256ADB5260AEEB52506127AA392
:10555D000256877A5379FF1256ADB52615EEB5254D
:10556D00117F40127E3C125BBD127877128361026F
:10557D0056877A5479041256B4B5260DEEB5250921
:10558D00125BBD1278770256877A54790C1256B495
:10559D00B5260DEEB52509125BBD125931025687A0
:1055AD007A5479121256BBB52610EEB5250C12831E
:1055BD0061125BBD1283300256877A5479181256E8
:1055CD00BBB5260AEEB52506127C470256877A54DE
:1055DD00791D1256C2B5260AEEB52506127F780240
:1055ED0056877A5479221256C2B5260DEEB5250985
:1055FD00125BBD126C300256877A5479281256C947
:10560D00B5260DEEB52509125BBD127768025687DA
:10561D007A54792D1256C9B5261AEEB52516128370
:10562D0061125BBD12678E127DC9128184E4FF1277
:10563D0083B780467A5479331256D0B5260FEEB51E
:10564D00250B128361125BBD12828C802D7A5479E9
:10565D00381256D0B5260CEEB5250812836112838B
:10566D00CE80177BFF7A547942127D8BEFB5260AD7
:0C567D00EEB5250612836112800F7F013C
:10568900227BFF127D8BEF227BFF127D8BEF227B2A
:10569900FF127D8BEF227BFF127D8BEF227BFF12A6
:1056A9007D8BEF227BFF127D8BEF227BFF127D8B9F
:1056B900EF227BFF127D8BEF227BFF127D8BEF2286
:0E56C9007BFF127D8BEF227BFF127D8BEF2289
:108275000D0A0044656275672050726F6772616D03
:07828500203E0050435400AD
:10792100128352EF640170497895E2704412822A01
:107931008F25300003120003E52524F8601F24FB86
:1079410070217894E2246BF8E4F2789504F27BFEDE
:107951007A00796B12806A3000170283AE7894E264
:1079610014F2227894E2246BF8E525F27894E2048B
:01797100F223
:0179720022F2
:0983AE007BFF7A8279750280944C
:0A7E7400789FEBF208EAF208E9F249
:107E7E00789FE2FB08E2FA08E2F9123C5E601C7899
:107E8E009FE2FB0808E2F92401F218E2FA3400F24C
:0B7E9E00123C5EF525FF12000380D5AA
:017EA90022B6
:1082A2003000097BFF7A827978127E74E47894F246
:0682B20008F2786BF222D5
:0983B700EF6003C20122D2012291
:0B839900C200C201C221E4789AF22267
:10806A00789FEBF208EAF208E9F220001C789FE216
:10807A00FB08E2FA08E2F8AC02AD037BFF7A8279E8
:0A808A0088123F64EF7002D200225A
:077B7A0078A5EEF208EFF21E
:107B810078A6E2700218E26035E478A7F208F2788C
:107B9100A7E2FE08E2FFE4FCFD7BD8FAF9F8D31274
:107BA1003D40400D78A8E22401F218E23400F28051
:0E7BB100DE78A6E224FFF218E234FFF280C272
:017BBF0022A3
:1073DA00E4789CF20874C8F2087464F21281CE123E
:1073EA0083991283DE127C471282A2127921789540
:1073FA00E2B401097BFE7A00796B12544B7895E26C
:10740A00B401031282A23021071275835002C221ED
:10741A00128352EF6008789DE2751200F513E513A6
:10742A0064014512700CF512F513789EE27510008E
:10743A00F511E5116401451070B11273567510000B
:05744A0075111480A67D
:1081CE00E4F5B8F5A8758780F5D0758921F5887521
:1081DE009852F5B175B2101283421282B8D299D26A
:0381EE00AF0022BD
:100026001010FFFFFFFFFFFFFFFFFFFFFFFFFFFFB8
:10003600FFFFFFFFFFFFFFFFFFFFFFFFFFFFFFFFCA
:10004600FFFFFFFFFFFFFFFFFFFFFFFFFFFFFFFFBA
:10005600FFFFFFFFFFFFFFFFFFFFFFFFFFFFFFFFAA
:10006600FFFFFFFFFFFFFFFFFFFFFFFFFFFFFFFF9A
:10007600FFFFFFFFFFFFFFFFFFFFFFFFFFFFFFFF8A
:10008600FFFFFFFFFFFFFFFFFFFFFFFFFFFFFFFF7A
:10009600FFFFFFFFFFFFFFFFFFFFFFFFFFFFFFFF6A
:1000A600FFFFFFFFFFFFFFFFFFFFFFFFFFFFFFFF5A
:1000B600FFFFFFFFFFFFFFFFFFFFFFFFFFFFFFFF4A
:1000C600FFFFFFFFFFFFFFFFFFFFFFFFFFFFFFFF3A
:1000D600FFFFFFFFFFFFFFFFFFFFFFFFFFFFFFFF2A
:1000E600FFFFFFFFFFFFFFFFFFFFFFFFFFFFFFFF1A
:1000F600FFFFFFFFFFFFFFFFFFFFFFFFFFFFFFFF0A
:10010600FFFFFFFFFFFFFFFFFFFFFFFFFFFFFFFFF9
:10011600FFFFFFFFFFFFFFFFFFFFFFFFFFFFFFFFE9
:10012600FFFF1010FFFFFFFFFFFFFFFFFFFFFFFFB7
:10013600FFFFFFFFFFFFFFFFFFFFFFFFFFFFFFFFC9
:10014600FFFFFFFFFFFFFFFFFFFFFFFFFFFFFFFFB9
:10015600FFFFFFFFFFFFFFFFFFFFFFFFFFFFFFFFA9
:10016600FFFFFFFFFFFFFFFFFFFFFFFFFFFFFFFF99
:10017600FFFFFFFFFFFFFFFFFFFFFFFFFFFFFFFF89
:10018600FFFFFFFFFFFFFFFFFFFFFFFFFFFFFFFF79
:10019600FFFFFFFFFFFFFFFFFFFFFFFFFFFFFFFF69
:1001A600FFFFFFFFFFFFFFFFFFFFFFFFFFFFFFFF59
:1001B600FFFFFFFFFFFFFFFFFFFFFFFFFFFFFFFF49
:1001C600FFFFFFFFFFFFFFFFFFFFFFFFFFFFFFFF39
:1001D600FFFFFFFFFFFFFFFFFFFFFFFFFFFFFFFF29
:1001E600FFFFFFFFFFFFFFFFFFFFFFFFFFFFFFFF19
:1001F600FFFFFFFFFFFFFFFFFFFFFFFFFFFFFFFF09
:10020600FFFFFFFFFFFFFFFFFFFFFFFFFFFFFFFFF8
:10021600FFFFFFFFFFFFFFFFFFFFFFFFFFFFFFFFE8
:10022600FFFFFFFF1010FFFFFFFFFFFFFFFFFFFFB6
:10023600FFFFFFFFFFFFFFFFFFFFFFFFFFFFFFFFC8
:10024600FFFFFFFFFFFFFFFFFFFFFFFFFFFFFFFFB8
:10025600FFFFFFFFFFFFFFFFFFFFFFFFFFFFFFFFA8
:10026600FFFFFFFFFFFFFFFFFFFFFFFFFFFFFFFF98
:10027600FFFFFFFFFFFFFFFFFFFFFFFFFFFFFFFF88
:10028600FFFFFFFFFFFFFFFFFFFFFFFFFFFFFFFF78
:10029600FFFFFFFFFFFFFFFFFFFFFFFFFFFFFFFF68
:1002A600FFFFFFFFFFFFFFFFFFFFFFFFFFFFFFFF58
:1002B600FFFFFFFFFFFFFFFFFFFFFFFFFFFFFFFF48
:1002C600FFFFFFFFFFFFFFFFFFFFFFFFFFFFFFFF38
:1002D600FFFFFFFFFFFFFFFFFFFFFFFFFFFFFFFF28
:1002E600FFFFFFFFFFFFFFFFFFFFFFFFFFFFFFFF18
:1002F600FFFFFFFFFFFFFFFFFFFFFFFFFFFFFFFF08
:10030600FFFFFFFFFFFFFFFFFFFFFFFFFFFFFFFFF7
:10031600FFFFFFFFFFFFFFFFFFFFFFFFFFFFFFFFE7
:10032600FFFFFFFFFFFF1010FFFFFFFFFFFFFFFFB5
:10033600FFFFFFFFFFFFFFFFFFFFFFFFFFFFFFFFC7
:10034600FFFFFFFFFFFFFFFFFFFFFFFFFFFFFFFFB7
:10035600FFFFFFFFFFFFFFFFFFFFFFFFFFFFFFFFA7
:10036600FFFFFFFFFFFFFFFFFFFFFFFFFFFFFFFF97
:10037600FFFFFFFFFFFFFFFFFFFFFFFFFFFFFFFF87
:10038600FFFFFFFFFFFFFFFFFFFFFFFFFFFFFFFF77
:10039600FFFFFFFFFFFFFFFFFFFFFFFFFFFFFFFF67
:1003A600FFFFFFFFFFFFFFFFFFFFFFFFFFFFFFFF57
:1003B600FFFFFFFFFFFFFFFFFFFFFFFFFFFFFFFF47
:1003C600FFFFFFFFFFFFFFFFFFFFFFFFFFFFFFFF37
:1003D600FFFFFFFFFFFFFFFFFFFFFFFFFFFFFFFF27
:1003E600FFFFFFFFFFFFFFFFFFFFFFFFFFFFFFFF17
:1003F600FFFFFFFFFFFFFFFFFFFFFFFFFFFFFFFF07
:10040600FFFFFFFFFFFFFFFFFFFFFFFFFFFFFFFFF6
:10041600FFFFFFFFFFFFFFFFFFFFFFFFFFFFFFFFE6
:10042600FFFFFFFFFFFFFFFF1010FFFFFFFFFFFFB4
:10043600FFFFFFFFFFFFFFFFFFFFFFFFFFFFFFFFC6
:10044600FFFFFFFFFFFFFFFFFFFFFFFFFFFFFFFFB6
:10045600FFFFFFFFFFFFFFFFFFFFFFFFFFFFFFFFA6
:10046600FFFFFFFFFFFFFFFFFFFFFFFFFFFFFFFF96
:10047600FFFFFFFFFFFFFFFFFFFFFFFFFFFFFFFF86
:10048600FFFFFFFFFFFFFFFFFFFFFFFFFFFFFFFF76
:10049600FFFFFFFFFFFFFFFFFFFFFFFFFFFFFFFF66
:1004A600FFFFFFFFFFFFFFFFFFFFFFFFFFFFFFFF56
:1004B600FFFFFFFFFFFFFFFFFFFFFFFFFFFFFFFF46
:1004C600FFFFFFFFFFFFFFFFFFFFFFFFFFFFFFFF36
:1004D600FFFFFFFFFFFFFFFFFFFFFFFFFFFFFFFF26
:1004E600FFFFFFFFFFFFFFFFFFFFFFFFFFFFFFFF16
:1004F600FFFFFFFFFFFFFFFFFFFFFFFFFFFFFFFF06
:10050600FFFFFFFFFFFFFFFFFFFFFFFFFFFFFFFFF5
:10051600FFFFFFFFFFFFFFFFFFFFFFFFFFFFFFFFE5
:10052600FFFFFFFFFFFFFFFFFFFF1010FFFFFFFFB3
:10053600FFFF00000000FFFFFFFFFFFFFFFFFFFFC1
:10054600FF000000000000FFFFFFFFFFFFFFFFFFAF
:100556000000020202020000FFFFFFFFFFFFFFFF95
:100566000000020202020000FFFFFFFFFFFFFF0084
:10057600000202000002020000FFFFFFFFFFFF0073
:10058600000202000002020000FFFFFFFFFF000062
:1005960002020000000002020000FFFFFFFF000051
:1005A600020200FFFF0002020000FFFFFF00000240
:1005B600020000FFFF000002020000FFFF00000231
:1005C6000200000000000002020000FF000002021C
:1005D60002020202020202020202000000000202FD
:1005E60002020202020202020202000000000202ED
:1005F60000000000000000000202000000000202ED
:100606000000FFFFFFFF00000202000000000202E0
:100616000000FFFFFFFF00000202000000000000D4
:100626000000FFFFFFFF00000000000010100000A8
:10063600000000000000000000000000FFFF0002B4
:1006460002020202020202020202000000FF00028F
:10065600020202020202020202020200000000007E
:100666000002020000000000020202020000FF0079
:1006760000020200FFFFFF00000202020000FF006E
:1006860000020200FFFFFF00000202020000FF005E
:1006960000020200000000000202020000FFFF004C
:1006A600000202020202020202020000FFFFFF0035
:1006B600000202020202020202020000FFFFFF0025
:1006C60000020200000000000202020000FFFF001C
:1006D60000020200FFFFFF00000202020000FF000E
:1006E60000020200FFFFFF000002020200000000FD
:1006F60000020200000000000202020200000002E6
:1007060002020202020202020202020000000002CB
:1007160002020202020202020202000000FF0000C0
:10072600000000000000000000000000FFFF1010A5
:10073600FFFFFF00000000000000000000FFFFFFB9
:10074600FFFF00000202020202020202000000FF96
:10075600FF00000202020202020202020200000080
:100766000000000202000000000000020202000079
:1007760000000202020000FFFFFF0000020200006C
:10078600000002020000FFFFFFFFFF000202000060
:10079600000002020000FFFFFFFFFFFF0000000055
:1007A600000002020000FFFFFFFFFFFFFFFFFFFF49
:1007B600000002020000FFFFFFFFFFFFFFFFFFFF39
:1007C600000002020000FFFFFFFFFF000000000024
:1007D600000002020000FFFFFFFFFF000202000010
:1007E60000000202000000FFFFFF000002020000FE
:1007F60000000202020000000000000202020000E7
:10080600FF000002020202020202020202000000CF
:10081600FFFF00000202020202020202000000FFC5
:10082600FFFFFF0000000000000000000000FFFFC7
:100836001010000000000000000000000000FFFF94
:10084600FFFF00000202020202020202020000FF93
:10085600FFFF000002020202020202020202000080
:10086600FFFF00000202000000000002020200007A
:10087600FFFF000002020000FFFF0000020200006E
:10088600FFFF000002020000FFFF0000020200005E
:10089600FFFF00000202000000000002020200004A
:1008A600FFFF00000202020202020202020000FF33
:1008B600FFFF00000202020202020202000000FF25
:1008C600FFFF000002020000020202000000FFFF1C
:1008D600FFFF000002020000000202020000FFFF0C
:1008E600FFFF00000202000000000202020000FFFB
:1008F600FFFF000002020000FF00000202020000EB
:10090600FFFF000002020000FFFF000002020200DB
:1009160000FF000002020000FFFFFF0000020202CB
:1009260000FF000000000000FFFFFFFF00000000C6
:1009360000FF101000000000FFFFFFFFFFFFFFFF9A
:10094600000000000000000000FFFFFFFFFFFF00A7
:100956000000000000000C0C0000FFFFFFFF00007D
:100966000C0C000000000C0C0C0000000000000C39
:100976000C0C000000000C0C0C0C000000000C0C11
:100986000C0C000000000C0C0C0C0C0C0C0C0C0CD1
:100996000C0C000000000C0C0C0C0C0C0C0C0C0CC1
:1009A6000C0C000000000C0C0C000C0C0C0C000CC9
:1009B6000C0C000000000C0C0C00000C0C00000CD1
:1009C6000C0C000000000C0C0C0000000000000CD9
:1009D6000C0C000000000C0C0C0000000000000CC9
:1009E6000C0C000000000C0C0C0000FFFF00000CBB
:1009F6000C0C000000000C0C0C0000FFFF00000CAB
:100A06000C0C000000000C0C0C0000FFFF00000C9A
:100A16000C0C000000000C0C0C0000FFFF00000C8A
:100A26000C0C000000000000000000FFFF000000AA
:100A3600000000001010FF00000000000000000091
:100A46000000000000FFFF00000202020202020294
:100A56000202020000FFFF0000020202020202027E
:100A66000202020000FFFF00000000000000020278
:100A76000200000000FFFFFFFFFFFFFF0000020271
:100A8600020000FFFFFFFFFFFFFFFFFF0000020263
:100A9600020000FFFFFFFFFFFFFFFFFF0000020253
:100AA600020000FFFFFFFFFFFFFFFFFF0000020243
:100AB600020000FFFFFFFFFFFFFFFFFF0000020233
:100AC600020000FFFFFFFFFFFFFFFFFF0000020223
:100AD600020000FFFFFFFF00000000FF000002020F
:100AE600020000FFFFFFFF000202000000000202FA
:100AF600020000FFFFFFFF000202020000020202E6
:100B0600020000FFFFFFFF000002020202020202D3
:100B1600000000FFFFFFFFFF0000020202020200CA
:100B26000000FFFFFFFFFFFFFF00000000000000C6
:100B360000FFFFFFFFFF1010FFFFFFFFFFFFFFFF9C
:100B4600FFFFFFFFFFFFFFFFFFFFFFFFFF000000AC
:100B560000000000FFFFFFFFFFFFFFFF0000010195
:100B660001010000FFFFFFFFFFFFFF000001010181
:100B760001010000FFFFFFFFFFFF0000010101016F
:100B8600010000FFFFFFFFFFFF000001010101015F
:100B96000000000000000000000001010101010149
:100BA6000101010101010000000101010101010132
:100BB6000101010101010000000101010101010122
:100BC6000101010101010000000001010101010113
:100BD6000101010101010000FF0000010101010105
:100BE6000000000000000000FFFF000001010101FD
:100BF600010000FFFFFFFFFFFFFFFF0000010101F3
:100C060001010000FFFFFFFFFFFFFFFF00000101E2
:100C160001010000FFFFFFFFFFFFFFFFFF000000D5
:100C260000000000FFFFFFFFFFFFFFFFFFFFFFFFCA
:100C3600FFFFFFFFFFFFFFFF1010FFFFFFFFFFFF9C
:100C4600FFFFFFFFFFFFFFFFFFFFFFFFFFFF0000AC
:100C56000000000000FFFFFFFFFFFFFFFFFF000097
:100C6600010101010000FFFFFFFFFFFFFFFF000082
:100C760001010101010000FFFFFFFFFFFFFFFF0071
:100C86000001010101010000FFFF0000000000005B
:100C9600000001010101010000FF00000101010146
:100CA6000101010101010101000000000101010132
:100CB6000101010101010101010000000101010121
:100CC6000101010101010101010000000000000015
:100CD600000001010101010000FF0000000000000A
:100CE600000001010101010000FFFFFFFFFFFF00FF
:100CF6000001010101010000FFFFFFFFFFFF0000EF
:100D060001010101010000FFFFFFFFFFFFFF0000DF
:100D1600010101010000FFFFFFFFFFFFFFFF0000D1
:100D26000000000000FFFFFFFFFFFFFFFFFFFFFFC8
:100D3600FFFFFFFFFFFFFFFFFFFF1010FFFFFFFF9B
:100D46000000000000000000FFFFFFFFFFFFFFFFA5
:100D56000000010101010000FFFFFFFFFFFFFFFF91
:100D66000000010101010000FFFFFFFFFFFFFFFF81
:100D76000000010101010000FFFFFFFFFFFFFFFF71
:100D86000000010101010000FFFFFFFF000000005D
:100D96000000010101010000000000000000010147
:100DA6000000010101010000010100000000010135
:100DB6000100010101010001010100000000010123
:100DC6000101010101010101010100000000010111
:100DD600010101010101010101010000FF00000103
:100DE6000101010101010101010000FFFFFF0000F7
:100DF60001010101010101010000FFFFFFFFFF00EA
:100E0600000101010101010000FFFFFFFFFFFFFFDD
:100E16000000010101010000FFFFFFFFFFFFFFFFD0
:100E2600FF000001010000FFFFFFFFFFFFFFFFFFC4
:100E3600FFFF00000000FFFFFFFFFFFF1010FFFF96
:100E4600FFFFFFFFFFFF0000000000000000FFFFA4
:100E5600FFFFFFFFFF000002020202020000FFFF89
:100E6600FFFFFFFF00000202020202020000FFFF76
:100E7600FFFFFF0000020202000002020000000065
:100E86000000000002020200000002020000000052
:100E96000202020202020200FF000202000000003B
:100EA6000202020202020200FF000202000000002B
:100EB6000202000000020200FF0002020000000021
:100EC600020200FF00020200FF0002020000000012
:100ED6000202000000020200FF0002020000000001
:100EE6000202020202020200FF00020200000000EB
:100EF60002020202020202000000020200000000DA
:100F06000000000000020202000002020000FFFFD3
:100F1600FFFFFFFF00000202020202020000FFFFC5
:100F2600FFFFFFFFFF000002020202020000FFFFB8
:100F3600FFFFFFFFFFFF0000000000000000101091
:100F46000000000000FFFFFFFFFFFF0000000000A1
:100F56000004040400FFFFFFFFFFFF000404040079
:100F66000004040400FFFFFFFFFFFF000404040069
:100F76000004040400FFFFFFFFFFFF000404040059
:100F86000004040400FFFFFFFFFFFF000404040049
:100F9600000404040000FFFFFFFF00000404040037
:100FA600000404040400FFFFFFFF0004040404001F
:100FB600000004040400FFFFFFFF00040404000017
:100FC60000000404040000FFFF0000040404000005
:100FD600FF0000040404000000000404040000FFF5
:100FE600FFFF000004040400000404040000FFFFE7
:100FF600FFFF000000040400000404000000FFFFDF
:10100600FFFFFF00000404040404040000FFFFFFC8
:10101600FFFFFFFF0000040404040000FFFFFFFFC2
:10102600FFFFFFFFFF00000404000000FFFFFFFFBB
:10103600FFFFFFFFFFFF0000000000FFFFFFFFFFB5
:10104600101000000000000000FFFFFFFFFFFFFF81
:10105600FFFF00000404040000FFFFFFFFFFFFFF87
:10106600FFFF00000404040000FFFFFFFFFFFFFF77
:10107600FFFF00000404040000FFFFFFFFFFFFFF67
:10108600FFFF00000404040000FFFFFFFFFFFFFF57
:10109600FFFF00000404040000FFFFFFFFFFFFFF47
:1010A600FFFF00000404040000FFFFFFFFFFFFFF37
:1010B600FFFF00000404040000FFFFFFFFFFFFFF27
:1010C600FFFF00000404040000FFFFFFFFFFFFFF17
:1010D600FFFF00000404040000FFFFFFFFFF000005
:1010E600000000000404040000FFFFFFFFFF0000F3
:1010F600000000000404040000FFFFFFFF000004DE
:1011060000000000040404000000000000000404C5
:101116000000000004040404040404040404040499
:101126000000000004040404040404040404040489
:1011360000000000000000000000000000000000A9
:1011460000001010FFFFFFFFFFFFFFFFFFFFFFFF85
:10115600FFFFFFFFFFFFFFFFFFFFFFFFFFFFFFFF99
:10116600FFFFFFFFFFFFFFFFFFFFFFFFFFFFFFFF89
:10117600FFFFFFFFFFFFFFFF00000000000000FF72
:10118600FFFFFFFFFFFFFF00000004040400000054
:10119600FFFFFFFFFFFF0000040404040404040033
:1011A60000FFFFFFFF000004040400000004040425
:1011B6000000FFFF00000004040000FF000004041C
:1011C600000000FF00000404040000FF0000040407
:1011D600040000FF00000404040000FF00000404F3
:1011E600040000FF00000404040000FF00000404E3
:1011F600040000FF00000004040000FF00000404D7
:10120600000000FFFF0000040404000000040404C2
:101216000000FFFFFFFF00000404040404040400B0
:1012260000FFFFFFFFFFFF000000040404000000B2
:10123600FFFFFFFFFFFFFFFF00000000000000FFB1
:10124600FFFFFFFF1010FFFFFFFFFFFFFFFFFFFF86
:10125600FFFFFFFFFFFFFFFFFFFFFFFFFFFFFFFF98
:10126600FFFFFFFFFFFFFFFFFFFFFFFFFFFFFFFF88
:10127600FFFFFFFFFFFFFFFFFFFF00000000000072
:101286000000FFFFFFFFFFFF00000000040404044E
:10129600000000FFFFFFFF00000004040404040434
:1012A60004040000FFFFFF00000404040000000027
:1012B6000404040000FFFF00000404040000FF0013
:1012C6000000000000FFFF0000000404040400000A
:1012D6000000FFFFFFFFFFFFFF00000404040404FB
:1012E600040000FFFFFFFFFFFFFF000000000404F3
:1012F60004040000FFFFFF0000000000FFFF0000E5
:101306000404040000FFFF000004040400000000C1
:101316000404040000FFFF000000040404040404A5
:1013260004040000FFFFFFFFFF00000004040404A4
:10133600000000FFFFFFFFFFFFFFFF0000000000AF
:101346000000FFFFFFFF101004040FFFFFFFFFFF69
:10135600FFFF0404FFFFFFFF040404FFFFFFFFFF7E
:10136600FFFF0404FFFFFFFF0404040FFFFFFFFF5E
:10137600FFFF0404FFFFFFFF040404040FFFFFFF49
:10138600FFFF0404FFFFFFFF0404FF0404FFFFFF49
:10139600FFFF0404FFFFFF040404FF04040FFFFF24
:1013A600FFFF0404FFFFFF040404FFFF0404FFFF24
:1013B600FFFF0404FFFFFF040404FFFF04040FFF04
:1013C600FFFF0404FFFFFF040404FFFFFF04040FF4
:1013D600FFFF0404FFFFFF040404FFFFFFFF0404F4
:1013E600FFFF0404FFFFFF040404FFFFFFFF0404E4
:1013F6000FFF0404FFFFFF040404FFFFFFFFFF04C9
:1014060004FF0404FFFFFF040404FFFFFFFFFFFFC8
:1014160004040404FFFFFFFF0404FFFFFFFFFFFFB8
:1014260004040404FFFFFFFF0404FFFFFFFFFFFFA8
:10143600FF040404FFFFFFFF0404FFFFFFFFFFFF9D
:10144600FF040404FFFFFFFF1010FFFFFF04040466
:101456000404040FFFFFFFFFFFFFFFFF0404040463
:1014660004040404040FFFFFFFFFFF040404FFFF4E
:10147600FFFFFF0404040FFFFFFF04040FFFFFFF3D
:10148600FFFFFFFF040404FFFFFF0404FFFFFFFF4D
:10149600FFFFFFFFFF04040FFFFF040FFFFFFFFF27
:1014A600FFFFFFFFFF040404FFFF04FFFFFFFFFF32
:1014B600FFFFFFFFFFFF0404FFFF04FFFFFFFFFF27
:1014C600FFFFFFFFFFFF0404FFFF04FFFFFFFFFF17
:1014D600FFFFFFFFFFFF0404FFFF04FFFFFFFFFF07
:1014E600FFFFFFFFFFFF0404FFFF040FFFFFFFFFE7
:1014F600FFFFFFFFFF040404FFFF0404FFFFFFFFDD
:10150600FFFFFFFFFF04040FFFFF04040FFFFFFFB1
:10151600FFFFFFFF040404FFFFFFFF040404FFFFB7
:10152600FFFFFF0404040FFFFFFFFFFF0404040492
:1015360004040404040FFFFFFFFFFFFFFFFF040482
:101546000404040FFFFFFFFFFFFF1010FFFFFFFF64
:10155600FF04040FFFFFFFFFFFFFFFFFFFFFFFFF7B
:10156600FF040404FFFFFFFFFFFFFFFFFFFFFFFF76
:10157600FFFF0404FFFFFFFFFFFFFFFFFFFFFFFF6B
:10158600FFFF04040FFFFFFFFFFFFFFFFFFFFFFF4B
:10159600FFFFFF0404FFFFFFFFFFFFFFFFFFFFFF4B
:1015A600FFFFFF04040FFFFFFFFFFFFFFFFFFFFF2B
:1015B600FFFFFF040404FFFFFFFFFF04FFFFFFFF21
:1015C600FFFFFFFF0404FFFFFFFFFF04FFFFFFFF16
:1015D600FFFFFFFF04040FFFFFFFFF04FFFFFFFFF6
:1015E600FFFFFFFF040404FFFFFF0404FFFFFFFFEC
:1015F600FFFFFFFFFF04040FFFFF0404FFFFFFFFD1
:10160600FFFFFFFFFF04040FFFFF0404FFFFFFFFC0
:10161600FFFFFFFFFFFF0404FF04040FFFFFFFFFB0
:10162600FFFFFFFFFFFF04040F0404FFFFFFFFFFA0
:10163600FFFFFFFFFFFF0404040404FFFFFFFFFF9B
:10164600FFFFFFFFFFFFFF0404040FFF1010FFFF63
:101656000404FFFF04040FFFFFFF04040404FF0457
:101666000404FFFF04040FFFFFFF04040404FF0447
:10167600040FFFFF04040FFFFFFF04040FFFFF0426
:1016860004FFFFFF04040FFFFFFF04040FFF040421
:101696000FFFFFFF04040FFFFFFF04040FFF040406
:1016A6000FFFFFFF04040FFFFFFF04040FFF0404F6
:1016B600FFFFFFFF04040FFFFFFF04040FFF040FEB
:1016C600FFFFFFFF04040FFFFFFF04040FFF04FFEB
:1016D600FFFFFFFF04040FFFFFFF04040FFF04FFDB
:1016E600FFFFFFFF04040FFFFFFF04040FFF0FFFC0
:1016F600FFFFFFFF04040FFFFFFF04040FFFFFFFC0
:10170600FFFFFFFF04040FFFFFFF04040FFFFFFFAF
:10171600FFFFFFFF04040FFFFFFF04040FFFFFFF9F
:10172600FFFFFFFF04040FFFFFFF04040FFFFFFF8F
:10173600FFFFFFFF04040FFFFFFF04040404FFFF85
:10174600FFFFFFFF04040FFFFFFF04040404101053
:1017560004040404040FFFFFFFFFFFFF0404040456
:1017660004040404040404FFFFFFFFFF040404044C
:10177600FFFFFFFFFF040404FFFFFFFF04040FFF4A
:10178600FFFFFFFFFFFF04040FFFFFFF04040FFF2F
:10179600FFFFFFFFFFFF040404FFFFFF04040FFF2A
:1017A600FFFFFFFFFFFFFF0404FFFFFF04040FFF1F
:1017B600FFFFFFFFFFFFFF04040FFFFF04040FFFFF
:1017C600FFFFFFFFFFFFFF04040FFFFF04040404F5
:1017D600FFFFFFFFFFFFFF04040FFFFF04040404E5
:1017E600FFFFFFFFFFFFFF04040FFFFF04040FFFCF
:1017F600FFFFFFFFFFFFFF0404FFFFFF04040FFFCF
:10180600FFFFFFFFFFFF040404FFFFFF04040FFFB9
:10181600FFFFFFFFFFFF04040FFFFFFF04040FFF9E
:10182600FFFFFFFFFF040404FFFFFFFF04040FFF99
:1018360004040404040404FFFFFFFFFF040404047B
:1018460004040404040FFFFFFFFFFFFF0404040465
:10185600101004040404040404040FFFFFFFFFFF38
:10186600FF0404040404040404040FFFFFFFFF0440
:101876000404FFFFFFFFFFFFFFFFFFFFFFFF04045E
:10188600040FFFFFFFFFFFFFFFFFFFFFFF0404043E
:10189600FFFFFFFFFFFFFFFFFFFFFFFFFF04040F38
:1018A600FFFFFFFFFFFFFFFFFFFFFFFFFF0404FF38
:1018B600FFFFFFFFFFFFFFFFFFFFFFFF04040FFF18
:1018C600FFFF040404040404040FFFFF04040FFFD5
:1018D600FFFF040404040404040FFFFF04040FFFC5
:1018E600FFFFFFFFFFFFFFFFFFFFFFFF04040FFFE8
:1018F600FFFFFFFFFFFFFFFFFFFFFFFFFF0404FFE8
:10190600FFFFFFFFFFFFFFFFFFFFFFFFFF04040FC7
:10191600FFFFFFFFFFFFFFFFFFFFFFFFFF040404C2
:10192600FFFFFFFFFFFFFFFFFFFFFFFFFFFF0404B7
:10193600040F04040404040404040FFFFFFFFF045F
:10194600040404040404040404040FFFFFFFFFFF5F
:10195600FF0410100404040404FFFFFFFFFFFFFF51
:10196600FFFFFFFF0404040404040FFFFFFFFFFF53
:10197600FFFFFFFFFFFFFFFF0404040FFFFFFFFF52
:10198600FFFFFFFFFFFFFFFFFFFF04040FFFFFFF47
:10199600FFFFFFFFFFFFFFFFFFFF040404FFFFFF42
:1019A600FFFFFFFFFFFFFFFFFFFFFF04040FFFFF27
:1019B600FFFFFFFFFFFFFFFFFFFFFF04040FFFFF17
:1019C600FFFFFFFFFFFFFFFFFFFFFF04040FFFFF07
:1019D600FFFFFFFFFFFFFFFFFFFFFF04040FFFFFF7
:1019E600FFFFFFFFFFFFFFFFFFFFFF04040FFFFFE7
:1019F600FFFFFFFFFFFFFFFFFFFFFF04040FFFFFD7
:101A0600FFFFFFFFFFFFFFFFFFFF040404FFFFFFD1
:101A1600FFFFFFFFFFFFFFFFFFFF04040FFFFFFFB6
:101A2600FFFFFFFFFFFFFFFF04040404FFFFFFFFAC
:101A3600FFFFFFFF0404040404040FFFFFFFFFFF82
:101A4600FFFFFFFF0404040404FFFFFFFFFFFFFF87
:101A5600FFFFFFFF1010FFFFFFFFFF040404040455
:101A6600040FFFFFFFFFFFFFFFFF0404040404044D
:101A7600040404FFFFFFFFFFFF040404FFFFFFFF52
:101A8600FF040404FFFFFFFF040404FFFFFFFFFF42
:101A9600FFFF04040FFFFFFF04040FFFFFFFFFFF1C
:101AA600FFFF04040FFFFFFFFF0404FFFFFFFFFF1C
:101AB600FFFFFFFFFFFFFFFFFF0404040404FFFF17
:101AC600FFFFFFFFFFFFFFFFFFFF04040404040402
:101AD6000404FFFFFFFFFFFFFFFFFFFFFF040404F7
:101AE6000404040FFFFFFFFFFFFFFFFFFFFFFFFFE1
:101AF600FF0404040FFFFF04040FFFFFFFFFFFFFB7
:101B0600FFFF04040FFFFFFF0404FFFFFFFFFFFFBB
:101B1600FFFF04040FFFFFFF04040FFFFFFFFFFF9B
:101B2600FFFF04040FFFFFFF04040404FFFFFFFF91
:101B3600FF040404FFFFFFFFFF040404040404047D
:101B4600040404FFFFFFFFFFFFFFFF040404040477
:101B5600040FFFFFFFFF1010FF04040FFFFFFFFF3E
:101B6600FFFFFF0404040404FF04040FFFFFFFFF4C
:101B7600FF04040404040404FF04040FFFFFFFFF32
:101B860004040404FFFFFFFFFF04040FFFFFFFFF31
:101B960004040FFFFFFFFFFFFF04040FFFFFFF0416
:101BA600040FFFFFFFFFFFFFFF04040FFFFFFF040B
:101BB60004FFFFFFFFFFFFFFFF04040FFFFFFF040B
:101BC60004FFFFFFFFFFFFFFFF04040FFFFF0404F6
:101BD60004FFFFFFFFFFFFFFFF04040FFFFF0404E6
:101BE6000FFFFFFFFFFF0404FF04040FFFFFFF04C6
:101BF60004FFFFFFFFFF0404FF04040FFFFFFF04C1
:101C060004FFFFFFFFFFFFFFFF04040FFFFFFF04BA
:101C1600040FFFFFFFFFFFFFFF04040FFFFFFFFF9F
:101C260004040FFFFFFFFFFFFF04040FFFFFFFFF8A
:101C360004040404FFFFFFFFFF04040FFFFFFFFF80
:101C4600FF04040404040404FF04040FFFFFFFFF61
:101C5600FFFFFFFF0404040410100404FFFFFFFF4E
:101C6600FFFFFF04040FFFFFFFFF0404040FFFFF45
:101C7600FFFFFF040404FFFFFFFFFF0404040FFF40
:101C8600FFFFFF0404040FFFFFFFFFFFFF0404FF35
:101C9600FFFFFF04040404FFFFFFFFFFFF04040F20
:101CA600FFFFFF040404040FFFFFFFFFFFFFFFFF1A
:101CB600FFFFFF0404FF04040FFFFFFFFFFFFFFF0A
:101CC600FFFFFF0404FFFF0404FFFFFFFFFFFFFF0A
:101CD600FFFFFF0404FFFF04040F040404040404CC
:101CE600FFFFFF0404FFFFFF0404040404040404CC
:101CF600FFFFFF0404FFFFFF0404FFFFFF040404CB
:101D0600FFFFFF0404FFFFFFFF04FFFFFF040404BF
:101D1600FFFFFF0404FFFFFFFFFFFFFFFF040404B4
:101D2600FFFFFF0404FFFFFFFFFFFFFF040404049F
:101D3600FFFFFF0404FFFFFFFFFF040404040FFF7F
:101D4600FFFFFF0404FFFFFFFFFF0404FFFFFFFF89
:101D5600FFFFFF0404FFFFFFFFFF1010FFFFFF045C
:101D660004FFFFFFFFFFFFFFFF040404FFFFFF0464
:101D760004FFFFFFFFFFFFFF04040404FFFFFF044F
:101D860004FFFFFFFFFFFFFF04040404FFFFFF043F
:101D960004FFFFFFFFFFFF040404FF04FFFFFF042F
:101DA60004FFFFFFFFFFFF04040FFF04FFFFFF0414
:101DB60004FFFFFFFFFFFF0404FFFFFFFFFFFF0419
:101DC60004FFFFFFFFFF04040FFFFFFFFFFFFF04F9
:101DD60004FFFFFFFFFF04040FFFFFFFFFFFFF04E9
:101DE60004FFFFFFFF040404FFFFFFFF0FFFFF04D4
:101DF60004FFFFFFFF04040404040404040FFF04AB
:101E060004FFFFFFFF040404040404040404FF04A5
:101E160004FFFFFF04040FFFFFFFFFFF04040F048E
:101E260004FFFFFF0404FFFFFFFFFFFFFF0404049E
:101E360004FFFF040404FFFFFFFFFFFFFFFF04048E
:101E460004FFFF04040FFFFFFFFFFFFFFFFF040473
:101E560004FFFF0404FFFFFFFFFFFFFF1010FFFF5B
:101E6600FFFFFFFFFFFF0404FFFFFFFFFFFF0FFF62
:101E7600FFFFFFFFFFFF0404FFFFFFFFFFFF0FFF52
:101E8600FFFFFFFFFFFF0404FFFFFFFFFFFF04FF4D
:101E9600FFFFFFFFFFFF0404FFFFFFFFFFFF040F2D
:101EA600FFFFFFFFFFFF0404FFFFFFFFFFFF040428
:101EB600FFFFFFFFFFFF0404FFFFFFFFFFFF040418
:101EC6000FFFFFFFFFFF0404FFFFFFFFFFFF0404F8
:101ED6000FFFFFFFFFFF0404FFFFFFFFFFFFFF04ED
:101EE60004FFFFFFFFFF0404FFFFFFFFFFFF0404E3
:101EF600040FFFFFFFFF0404FFFFFFFFFFFF0404C3
:101F06000404FFFFFFFF0404FFFFFFFFFFFFFFFFC7
:101F160004040FFFFFFF0404FFFFFFFFFFFFFFFFA7
:101F260004040FFFFFFF0404FFFFFFFFFFFFFFFF97
:101F3600FF0404FFFFFF0404FFFFFFFFFFFFFFFF97
:101F4600FF04040FFFFF0404040404040404FFFF59
:101F5600FFFF0404FFFF0404040404040404101037
:101F6600FFFFFFFFFF000000000000FFFFFFFFFF75
:101F7600FFFFFF00000002020202000000FFFFFF59
:101F8600FFFF000002020202020202020000FFFF3F
:101F9600FF0000020202000000000002020000FF33
:101FA600FF0002020200FFFFFFFF0000020200FF27
:101FB600FF00020202020000FFFFFF00000000FF18
:101FC600FF000002020202020000FFFFFFFFFFFF08
:101FD600FFFF0000000002020202000000FFFFFFF8
:101FE600FFFFFFFFFF00000002020202020000FFE7
:101FF600FFFFFFFFFFFFFF0000000202020200FFDB
:10200600FF00000000FFFFFFFF000000020200FFCC
:10201600FF0002020000FFFFFFFF0000020200FFB8
:10202600FF0000020200000000000002020000FFA4
:10203600FFFF000002020202020202020000FFFF8E
:10204600FFFFFF00000002020202020000FFFFFF86
:10205600FFFFFFFFFF00000000000000FFFFFFFF83
:10206600101000000000000000000000000000004A
:10207600000000010101010101010101010101014D
:10208600010000010101010101010101010101013C
:10209600010000010101010101010101010101012C
:1020A6000100000000000000010101010000000025
:1020B6000000FFFFFFFFFF000101010100FFFFFF1E
:1020C600FFFFFFFFFFFFFF000101010100FFFFFF10
:1020D600FFFFFFFFFFFFFF000101010100FFFFFF00
:1020E600FFFFFFFFFFFFFF000101010100FFFFFFF0
:1020F600FFFFFFFFFFFFFF000101010100FFFFFFE0
:10210600FFFFFFFFFFFFFF000101010100FFFFFFCF
:10211600FFFFFFFFFFFFFF000101010100FFFFFFBF
:10212600FFFFFFFFFFFFFF000101010100FFFFFFAF
:10213600FFFFFFFFFFFFFF000101010100FFFFFF9F
:10214600FFFFFFFFFFFFFF000101010100FFFFFF8F
:10215600FFFFFFFFFFFFFF000000000000FFFFFF83
:10216600FFFF1010FFFFFFFFFFFFFFFFFFFFFFFF57
:10217600FFFFFFFFFFFFFFFFFFFFFFFFFFFFFFFF69
:10218600FFFFFFFFFFFFFFFFFFFFFFFFFFFFFFFF59
:10219600FFFFFFFFFFFFFFFFFFFFFFFFFFFFFFFF49
:1021A600FFFFFFFFFFFFFFFFFFFFFFFFFFFFFFFF39
:1021B600FFFFFFFFFFFFFFFFFFFFFFFFFFFFFFFF29
:1021C600FFFFFFFFFFFFFFFFFFFFFFFFFFFFFFFF19
:1021D600FFFFFFFFFFFFFFFFFFFFFFFFFFFFFFFF09
:1021E600FFFFFFFF1010FFFFFFFFFFFFFFFFFFFFD7
:1021F600FFFFFFFFFFFFFFFFFFFFFFFFFFFFFFFFE9
:10220600FFFFFFFFFFFFFFFFFFFFFFFFFFFFFFFFD8
:10221600FFFFFFFFFFFFFFFFFFFFFFFFFFFFFFFFC8
:10222600FFFFFFFFFFFFFFFFFFFFFFFFFFFFFFFFB8
:10223600FFFFFFFFFFFFFFFFFFFFFFFFFFFFFFFFA8
:10224600FFFFFFFFFFFFFFFFFFFFFFFFFFFFFFFF98
:10225600FFFFFFFFFFFFFFFFFFFFFFFFFFFFFFFF88
:10226600FFFFFFFFFFFF1010FFFFFFFFFFFFFFFF56
:10227600FFFFFFFFFFFFFFFFFFFFFFFFFFFFFFFF68
:10228600FFFFFFFFFFFFFFFFFFFFFFFFFFFFFFFF58
:10229600FFFFFFFFFFFFFFFFFFFFFFFFFFFFFFFF48
:1022A600FFFFFFFFFFFFFFFFFFFFFFFFFFFFFFFF38
:1022B600FFFFFFFFFFFFFFFFFFFFFFFFFFFFFFFF28
:1022C600FFFFFFFFFFFFFFFFFFFFFFFFFFFFFFFF18
:1022D600FFFFFFFFFFFFFFFFFFFFFFFFFFFFFFFF08
:1022E600FFFFFFFFFFFFFFFF1010FFFFFFFFFFFFD6
:1022F600FFFFFFFFFFFFFFFFFFFFFFFFFFFFFFFFE8
:10230600FFFFFFFFFFFFFFFFFFFFFFFFFFFFFFFFD7
:10231600FFFFFFFFFFFFFFFFFFFFFFFFFFFFFFFFC7
:10232600FFFFFFFFFFFFFFFFFFFFFFFFFFFFFFFFB7
:10233600FFFFFFFFFFFFFFFFFFFFFFFFFFFFFFFFA7
:10234600FFFFFFFFFFFFFFFFFFFFFFFFFFFFFFFF97
:10235600FFFFFFFFFFFFFFFFFFFFFFFFFFFFFFFF87
:10236600FFFFFFFFFFFFFFFFFFFF1010FFFFFFFF55
:10237600FFFFFFFFFFFFFFFFFFFFFFFFFFFFFFFF67
:10238600FFFFFFFFFFFFFFFFFFFFFFFFFFFFFFFF57
:10239600FFFFFFFFFFFFFFFFFFFFFFFFFFFFFFFF47
:1023A600FFFFFFFFFFFFFFFFFFFFFFFFFFFFFFFF37
:1023B600FFFFFFFFFFFFFFFFFFFFFFFFFFFFFFFF27
:1023C600FFFFFFFFFFFFFFFFFFFFFFFFFFFFFFFF17
:1023D600FFFFFFFFFFFFFFFFFFFFFFFFFFFFFFFF07
:1023E600FFFFFFFFFFFFFFFFFFFFFFFF1010FFFFD5
:1023F600FF0000FFFFFFFFFFF000000FFFFFFFFFE2
:1024060000222200FFFFFFFF00222200FFFFFFF055
:10241600022002200FFFFFF0022002200FFFFF0024
:102426002200002200FFFF00220FF02200FFF00230
:10243600200FF002200FF00220000002200F0022E1
:1024460022222222220000222222222222000022EE
:10245600000000002200002200FFFF0022000022F0
:1024660000FFFF002200000000FFFF000000101028
:1024760000000000000000FF022222222222000F9C
:102486000222222222222000000220000022220014
:10249600F00220FFF0022200F00220FFF0022200EC
:1024A600F00220000022200FF0022222222200FF4A
:1024B600F0022222222200FFF00220000022200F3A
:1024C600F00220FFF0022200F00220FFF0022200BC
:1024D60000022000002222000222222222222000C4
:1024E600022222222222000F00000000000000FF2C
:1024F60010101010101010101010101010101010D6
:062506001010101010106F
:107D0B0078B7E2FB08E2FA08E2F9123C77FF7898C1
:107D1B00E22F78D8F222F278B7E2FB0808E2F924D6
:107D2B0001F218E2FA3400F2023C5E78B7E2FB088B
:107D3B00E2FA08E2F922E22401F218E23400F2221C
:0583D300E47898F2229D
:0A62230078AFEFF208ECF208EDF29C
:10622D0078AFE2FF25E0F2E22408F278B6F278B01A
:10623D00E2FE08E27803C333CE33CED8F979B1F359
:10624D00EE19F378B1E22408127D44AF037E007C91
:10625D00017D02123CB674262FF974003EFA78B710
:10626D0074FFF208EAF208E9127D2178B2127D215D
:10627D0078B3F2E408F278B2E2FF78B4E2C39F405B
:10628D0003026345E408F278B3E2FF78B5E2C39FF9
:10629D004003026332127D36123C5E127D18E4FB20
:1062AD007D02FF12803D900001127D0B7B01126378
:1062BD006D900002127D0B7B0212636D127D369084
:1062CD000003127D157B0312637578D87480F27B01
:1062DD000412637578B9E22404127D4478B6E2782D
:1062ED00D8F27B0512638808E278D8F27B07126337
:1062FD0088E27E007802C333CE33CED8F9126346DE
:10630D0012637D20E7FA78B0E225E025E04408121B
:10631D00634612637D20E7FA78B6E204F218E224B0
:10632D0004F202629478AFE278B6F278B1127D4150
:08633D0078B4E204F20262836D
:106345002278D8F27B097D02E4FF12803D7B0A7D2D
:1063550002E4FF127EDFEF543F448078D8F27B0AD7
:106365007D02E4FF12803D227D02E4FF12803D2282
:106375007D02E4FF12803D227B0A7D02E4FF127E4E
:0D638500DFEF227D02E4FF12803D78B022A0
:0A77090078A8EFF208EDF208EBF2A9
:1077130008127D3812000E78AEEFF2C364809480B5
:10772300404278A8E230E02F78A9E2FF08E2FD7C2E
:107733000008127D38123C5EFB12622378AEE2141D
:10774300F218127D4178A9E22402F278AEE2D36402
:1077530080948050D3800A78AEE2D36480948050C2
:04776300F61283DEB9
:0177670022FF
:1081A9000500000600000700000800000900000A99
:1081B90000001F000020000B000C000D000E000F36
:0581C90010111212006C
:06839200012100819900A9
:1074B7007856E275F003A424A9F9748135F0FA78B7
:1074C700AB74FFF208EAF208E9F22278A5E2FB08BA
:1074D700E2FA08E2F92278AB74FFF2087481F20845
:1074E70074B5F222900001023C77123C5E540C13F3
:1074F70013543FF52722900002023C777B01FDFCE5
:107507007F0122900003023C777B017D127C0022E1
:087517007B01E4FDFC7F412231
:107A59001268C41283D37F041283D87F031283DB95
:107A6900E4F527AF27127A8E0527E527C394064048
:107A7900F27F01127EAA7FFF1283DB7F08127A8EC2
:047A8900E47853F258
:107A8D00221281F178A9E4F2087426F27B5AE4FD02
:067A9D00FCFF12719522AE
:104B260078A5EB1274CA7F021283D87FFF1283DB4B
:104B36007855E2123DC04B6A114B79214B9E224BB0
:104B4600BC314BEB334C1C344C52414C99914CAC20
:104B5600A14CD3A24CFAB14D32B34D6AB44D9FC1AC
:104B660000004DE71274D2123C5E20E103024DE7CD
:104B7600024CA51274D2123C5E30E1061274B712D2
:104B86004E1A1274D21274EB20E103024DE77857E5
:104B96001274B97B0F024CCE1274D2123C5E30E115
:104BA600061274B7124DE81274D21274EB20E103A8
:104BB600024DE7024CEE1274D2123C5E30E1061250
:104BC60074B7124E1A1274D21274EB30E108785789
:104BD6001274B9124E2E1274D21274FD20E1030221
:104BE6004DE7024C171274D2123C5E30E106127485
:104BF600B7124DE81274D21274EB30E108785712EE
:104C060074B9124E101274D21274FD20E103024DD3
:104C1600E77858024C911274D2123C5E30E10612CB
:104C260074B7124DF21274D21274EB30E108785751
:104C36001274B9124E101274D21274FD20E10302DE
:104C46004DE778581274B97B0F024D9A1274D2123E
:104C56003C5E30E1061274B7124DF21274D2127431
:104C6600EB30E10878571274B9124E241274D2123E
:104C760074FD30E10878581274B9124E2E1274D2AF
:104C860012750A20E103024DE778591274B97B0FB9
:104C9600024CF51274D2123C5E20E103024DE7127B
:104CA60074B7E4FB80221274D2123C5E30E1061225
:104CB60074B7124E381274D21274EB20E103024D0F
:104CC600E778571274B97B127D29024DE21274D22D
:104CD600123C5E30E1061274B7124DFC1274D21209
:104CE60074EB20E103024DE778571274B9E4FB7DBB
:104CF6003E024DE21274D2123C5E30E1061274B7E7
:104D0600124E381274D21274EB30E10878571274CE
:104D1600B9124E421274D21274FD20E103024DE71D
:104D260078581274B97B127D3E024DE21274D2128B
:104D36003C5E30E1061274B7124DFC1274D2127446
:104D4600EB30E10878571274B9124E241274D2125D
:104D560074FD20E103024DE778581274B97B127D89
:104D66003E024DE21274D2123C5E30E1061274B776
:104D7600124E061274D21274EB30E1087857127490
:104D8600B9124E4C1274D21274FD30E15478581296
:104D960074B97B127D14024DE21274D2123C5E305D
:104DA600E1061274B7124E061274D21274EB30E199
:104DB6000878571274B9124E4C1274D21274FD3020
:104DC600E10878581274B9124E421274D212750A5A
:104DD60030E10E78591274B97B127D3E7F0112774D
:104DE6000922E4FB7D147F0112770922E4FB7D147E
:104DF6007F0112770922E4FB7D147F0112770922D5
:104E0600E4FB7D147F0112770922E4FB7D3E7F01DE
:104E160012770922E4FB7D297F0112770922E4FB40
:104E26007D3E7F01127709227B0F7D147F01127769
:104E36000922E4FB7D297F01127709227B127D146A
:104E46007F0112770922E4FB7D3E7F01127709225A
:0783C0007854E24480F22230
:107356007B787D01E4FF127EDFEF540FFF7863F246
:107366007854E26F606DD2217B31E4FDFF127EDF3F
:10737600EF547F78D8F27B31E4FDFF12803D7863CD
:10738600E2FF7854F2EFF4540FFF603E7899E26F13
:10739600FF60377863E2F4540FFE789FEFF25EF2F7
:1073A60030E0028016789FE230E102800E789FE29C
:1073B60030E2028006789FE230E30F7F5512000329
:1073C6007F4C1200037F4B1200037863E2F4540FE4
:0373D6007899F2B1
:0173D9002291
:0656D70078A5EB1274CA75
:1056DD007F411283D87855E2123DC05710115737CC
:1056ED002157812257D231580933583F34571091E1
:1056FD005737A15781A257D2B15809B3583FB400BB
:10570D0000589978A51274D41274F160030257DC15
:10571D0012590F1274D4123C5E30E5030257F5781E
:10572D0053E2600302589902580378A51274D412FB
:10573D0074F1600C1258B51274C5E4FB7D1C800F1A
:10574D001259021274D4123C5E30E50A12589A7F37
:10575D0001127709800B7853E270061275031270EF
:10576D00F478A51274D41274EB1274F46003025819
:10577D004C0257C878A51274D41274F1600C1258EB
:10578D00B51274C5E4FB7D1C800F1259021274D43E
:10579D00123C5E30E50A12589A7F01127709800B90
:1057AD007853E270061275031270F478A51274D452
:1057BD001274EB1274F4600302584C7B01E4FDFC8F
:1057CD007F4602589678A51274D41274F1600D12AA
:1057DD0058E91274C5E4FB7D3102588912590F1234
:1057ED0074D4123C5E30E5061258CE0258897853B7
:1057FD00E2600302589912750302589678A5127447
:10580D00D41274F1600D1258E91274C5E4FB7D1CBD
:10581D000258897F1C12591C1274D4123C5E30E55B
:10582D00061258CE0258897853E270601275030241
:10583D00589678A51274D41274EB1274F4601B127E
:10584D005927E52725E0FFE433FE74BE2FF9748157
:10585D003E1274C5E4FB7D4680227F4612591C1210
:10586D0074D4123C5E30E51912592778AB74FFF2EF
:10587D00087481F20874BEF2E4FB7D017F010277AA
:0C588D00097853E270061275031270F4E3
:10589900227B02E4FDFCFF1270F478AB74FFF2087E
:1058A9007481F20874BEF2E4FB7D01227B02E4FDFF
:1058B900FCFF1270F4E52725E0FFE433FE74BE2FE8
:1058C900F974813E227B02E4FDFCFF1270F478AB8F
:1058D90074FFF2087481F20874BEF2E4FB7D0122C0
:1058E9007B02E4FDFCFF1270F4E52725E0FFE433B9
:1058F900FE74BE2FF974813E227B01E4FDFC7F1CFE
:105909001270F478A5227B01E4FDFC7F311270F45A
:1059190078A5227B01E4FDFC1270F478A5227B02B4
:08592900E4FDFCFF1270F42202
:1033AC0078A5EB1274CA7F0C1283D87855E2123DC3
:1033BC00C033EB1133FC21342322344A31348733AC
:1033CC0034C434350A41356691357FA135B5A23503
:1033DC00E6B13637B33680B436CFC1000037387813
:1033EC00A51274D4123C5E30E003023571023578BC
:1033FC0078A51274D4123C5E30E0081274DD1237DA
:10340C00AD800312378278A51274D41274EB30E0BD
:10341C00030235A00235AA78A51274D4123C5E3092
:10342C00E0081274DD123744800312373978A51284
:10343C0074D41274EB30E0030235D60235E078A573
:10344C001274D4123C5E30E0081274DD1237AD8079
:10345C000312378278A51274D41274EB30E0081280
:10346C0074DD1237E380031237CC78A51274D412B2
:10347C0074FD30E00302355702355F78A51274D421
:10348C00123C5E30E0081274DD12374480031237B0
:10349C003978A51274D41274EB30E0081274DD1272
:1034AC003798800312375878A51274D41274FD30F3
:1034BC00E00302355702355F78A51274D4123C5ED6
:1034CC0030E0081274DD12374E800312376378A592
:1034DC001274D41274EB30E0081274DD1237988039
:1034EC000312375878A51274D41274FD30E0081208
:1034FC0074DD7B0F0236BF7B017D0F0236C878A5C9
:10350C001274D4123C5E30E0081274DD12374E8017
:10351C000312376378A51274D41274EB30E00812DE
:10352C0074DD1237C2800312378D78A51274D41251
:10353C0074FD30E0081274DD1237E380031237CCCF
:10354C0078A51274D412750A30E0081274DD7B0F62
:10355C000235DB7B017D0F02363078A51274D41254
:10356C003C5E30E0071274DDE4FB802D7B01E4FD52
:10357C00FC803178A51274D4123C5E30E0081274D1
:10358C00DD1237ED80031237B778A51274D412749C
:10359C00EB30E00A1274DD7B0F7D2C02372B7B01A4
:1035AC007D0F7C007F2C02373578A51274D4123C29
:1035BC005E30E0081274DD12376E80031237A27889
:1035CC00A51274D41274EB30E00A1274DDE4FB7DA6
:1035DC004102372B12751702373578A51274D412A5
:1035EC003C5E30E0081274DD1237ED80031237B701
:1035FC0078A51274D41274EB30E0081274DD123713
:10360C00F780081275107F171270F478A51274D415
:10361C001274FD30E00A1274DD7B127D4102372BEF
:10362C007B017D127C007F4102373578A51274D462
:10363C00123C5E30E0081274DD12376E80031237D4
:10364C00A278A51274D41274EB30E0081274DD1257
:10365C0037C2800312378D78A51274D41274FD30E2
:10366C00E00A1274DD7B127D4102372B1275107F3C
:10367C004102373578A51274D4123C5E30E0081242
:10368C0074DD12377880031237D878A51274D412EF
:10369C0074EB30E0081274DD1238018006127517D5
:1036AC001270F478A51274D41274FD30E00A1274FE
:1036BC00DD7B127D1702372B7B017D127C007F177F
:1036CC0002373578A51274D4123C5E30E0081274BF
:1036DC00DD12377880031237D878A51274D412749F
:1036EC00EB30E0081274DD123801800612751712E7
:1036FC0070F478A51274D41274FD30E0081274DDE5
:10370C001237F780081275107F171270F478A51213
:10371C0074D412750A30E00C1274DD7B127D417F7B
:10372C00010277091275107F411270F4227B01E4BB
:10373C00FDFC7F171270F422E4FB7D177F011277DA
:10374C000922E4FB7D177F01127709227B01E4FD3E
:10375C00FC7F411270F4227B01E4FDFC7F17127098
:10376C00F422E4FB7D177F0112770922E4FB7D171D
:10377C007F01127709227B01E4FDFC7F2C1270F48F
:10378C00227B01E4FDFC7F411270F422E4FB7D41BD
:10379C007F01127709227B01E4FDFC7F171270F484
:1037AC0022E4FB7D2C7F01127709227B01E4FDFCD6
:1037BC007F2C1270F422E4FB7D417F0112770922E9
:1037CC007B017D0F7C007F171270F4227B01E4FDDE
:1037DC00FC7F171270F4227B0F7D177F0112770983
:1037EC0022E4FB7D2C7F01127709227B127D177F4F
:0F37FC000112770922E4FB7D417F011277092238
:107BC000E4FF1281F17853E224FE600E0470231268
:107BD0007BF37481F20874B88009127BF37481F22C
:107BE0000874BBF2E4FB7D017F011277097FFF126D
:107BF00083DB227F031283DB7F041283D878AB748C
:047C0000FFF2082265
:10818400E4FF1281F1785BE230E1127BFE7A007940
:108194005B1233AC7BFE7A00795B1256D71283C034
:0581A400E4FF027EAAC9
:10250C0000000000000000000000000000000000BF
:10251C0000000000000000000000000000000000AF
:10252C00003E007E00FE01CE038E7F8E7F8E738E6A
:10253C00738E738E7F8E7F8E01CE00FE007E003EEA
:10254C0000000000020006000E001E003FFE7FFE91
:10255C007FFE3FFE1E000E00060002000000000081
:10256C000000000000400060007000787FFC7FFEDF
:10257C007FFE7FFC007800700060004000000000CF
:10258C00000003C003C003C003C003C003C003C0EA
:10259C0003C03FFC1FF80FF007E003C001800000F0
:1025AC0003C003C007E007E00E700E701C381C3827
:1025BC00381C381C7FFE7FFE700E700E700E700E75
:1025CC007FF87FFC383E381E381E381E383C3FF8EA
:1025DC003FF8383C381E381E381E383E7FFC7FF8DA
:1025EC000FF81FFC3C1C380E780E700E700070003B
:1025FC0070007000700E700E380E3C1C1FFC0FF833
:10260C007FF07FF07078703C703C703C70787FF09D
:10261C007FE0778073C071E070F07078703C701E52
:10262C0000006006700E781E7C3E7FFE77EE73CE47
:10263C00718E700E700E700E700E700E700E700E1D
:10264C0000001FF81FF800E000E000E000E000E0F0
:10265C0000E000E000E070E079E03FC01F800F0078
:10266C0000000000000003C007800F001E003FFCAC
:10267C003FFC1E000F00078003C00000000000009C
:10268C0000000000000003C001E000F000783FFCF7
:10269C003FFC007800F001E003C0000000000000E7
:1026AC0000000000018001800180018011881998D0
:1026BC001DB81FF80FF007E003C0018000000000F8
:1026CC00003E007E00FE01CE038E7F8E7F8E738EC9
:1026DC00738E738E7F8E7F8E01CE00FE007E003E49
:1026EC00700E700E700E700E700E700E781E381C00
:1026FC00381C1C381C380E700FF007E003C001802A
:10270C000000380038003800380038003800380035
:10271C0038003800380038063806380E3FFE3FFEC9
:10272C000000000000000000000003800FE01C709F
:10273C00183038383838383818301C700FE00380AF
:10274C000000000000000000000003C00FF01C3867
:10275C001C000F0007E000F000381C380FF003C01D
:10276C00000000000000000000000000000000005D
:10277C00000000000000000000000000000000004D
:10278C00000000000000000000000000000000003D
:10279C00000000000000000000000000000000002D
:1027AC00000000000000000000000000000000001D
:1027BC00000000000000000000000000000000000D
:1027CC0000000000000000000000000000000000FD
:1027DC0000000000000000000000000000000000ED
:1027EC0000000000000000000000000000000000DD
:1027FC0000000000000000000000000000000000CD
:10280C0000000000000000000000000000000000BC
:10281C0000000000000000000000000000000000AC
:10282C00000000000000000000000000000000009C
:10283C00000000000000000000000000000000008C
:10284C00000000000000000000000000000000007C
:10285C00000000000000000000000000000000006C
:10286C00000000000000000000000000000000005C
:10287C00000000000000000000000000000000004C
:10288C00000000000000000000000000000000003C
:10289C00000000000000000000000000000000002C
:1028AC00000000000000000000000000000000001C
:1028BC00000000000000000000000000000000000C
:1028CC0000000000000000000000000000000000FC
:1028DC0000000000000000000000000000000000EC
:1028EC0000000000000000000000000000000000DC
:1028FC0000000000000000000000000000000000CC
:10290C0000000000000000000000000000000000BB
:10291C0000000000000000000000000000000000AB
:10292C00000007000F800F800F800F80070007004A
:10293C00070002000200000002000700070002006E
:10294C000000EE006600440088000000000000005B
:10295C00000000000000000000000000000000006B
:10296C00000008200820082008203FF80820082034
:10297C000820082008203FF80820082008200820FC
:10298C0000000FC01B603330333033001B000F00CE
:10299C0003C0036013303B3033301B600FC00300A7
:1029AC000000380844108420044004800900127090
:1029BC00E4880908120822084210822001C0000095
:1029CC0000000E001B00318031801B000E001C002B
:1029DC003678632061A060E0606030F01F9C0000DE
:1029EC0000000000000000000000000000000000DB
:1029FC00000000000000800060007000380018002B
:102A0C0000000004000800180010003000300030F6
:102A1C0000300030003000100018000800040002E4
:102A2C0000008000400060002000300030003000CA
:102A3C0030003000300020006000400080000000BA
:102A4C00000002004210222012400A800700FFFC06
:102A5C0007000A80124022204210020002000000EF
:102A6C0000000000030003000300030003007FF8D4
:102A7C007FF80300030003000300030000000000C4
:102A8C00000000000000000000000000000000003A
:102A9C00000018003C003C00180010002000400012
:102AAC0000000000000000000000000000007FF8A3
:102ABC007FF8000000000000000000000000000093
:102ACC0000000000000000000000000000000000FA
:102ADC00000000000000780084008400840078006E
:102AEC00000000180030006000C0018003000600E8
:102AFC000C00180030006000C000800000000000D6
:102B0C0000000FE0183030183038307830D8319859
:102B1C00331836183C183818301818300FE00000ED
:102B2C000000030007000F00030003000300030074
:102B3C000300030003000300030003001FE0000078
:102B4C0000000FE01830301830183038007001C019
:102B5C0003000E001800300830083FF83FF8000062
:102B6C00000007C0183030183018003000E003C0E7
:102B7C0000E00030001830183018183007C0000082
:102B8C00000000C001C003C006C00CC018C030C09B
:102B9C0060C0C0C0C0C0FFF800C000C003F000009F
:102BAC0000003FF03FF030003000300037C03830CC
:102BBC0030180018001830183018183007C00000F2
:102BCC00000007E01830303030003000300037E0C3
:102BDC003830301830183018301818300FC000004A
:102BEC0000003FF83FF8201820180030006000C0AB
:102BFC000180030003000300030003000300000036
:102C0C0000000780186030303030303018600FC052
:102C1C001860303060186018601830300FC0000039
:102C2C0000000780186030303018301830183038F9
:102C3C00187807980018303038301860078000007A
:102C4C0000000000000000000300078003000000EB
:102C5C0000000300078003000000000000000000DB
:102C6C0000000000000000000300078003000000CB
:102C7C0000000300078003800180070000000000B3
:102C8C0000000000001800600180060018006000C1
:102C9C008000600018000600018000600018000031
:102CAC00000000000000000000007FF87FF800002A
:102CBC0000007FF87FF8000000000000000000001A
:102CCC000000800060001800060001800060001801
:102CDC0000040018006001800600180060008000ED
:102CEC00000007800FC01CE038E038E011C0018004
:102CFC0003000300020002000000020007000700AE
:102D0C0000000FC030604010478888C890C890C839
:102D1C0090C890C888D84770400830700FC0000029
:102D2C00000003000300078007800CC00CC0186073
:102D3C0018601FE03030303060186018F03C000034
:102D4C0000003F80186018301830183018601FC011
:102D5C001860183018181818181818303FC00000D0
:102D6C000000078818683038601860086000600040
:102D7C006000600060086018303018600780000048
:102D8C0000007F8030E030383018301830183018A0
:102D9C003018301830183018303030E07F80000098
:102DAC0000003FF0183018101800188018801F8091
:102DBC001880188018001800181018303FF0000008
:102DCC0000003FF0183018101800188018801F8071
:102DDC001880188018001800180018003C0000001B
:102DEC0000000F90187030306010601060006000B0
:102DFC006078603060306030307018F00FB00000D8
:102E0C0000007878303030303030303030303FF0B7
:102E1C003030303030303030303030307878000076
:102E2C0000000FC0030003000300030003000300B5
:102E3C000300030003000300030003000FC00000A5
:102E4C00000001F000600060006000600060006045
:102E5C00006000603060306030E019C00F0000008E
:102E6C00000078F8306030C03180330036003C0010
:102E7C003E003300318030C030603030787C000050
:102E8C0000003C001800180018001800180018006A
:102E9C001800180018001808181818383FF8000007
:102EAC000000E03CE038F078F078D8D8D8D8C89852
:102EBC00CD98CD98C518C718C218C018E07C000072
:102ECC000000C078E030F030F830DC30CE30C73065
:102EDC00C3B0C1F0C0F0C070C030C030E0780000AA
:102EEC0000000FC0387070386018601860186018D7
:102EFC006018601860186018703838700FC00000C7
:102F0C0000003FC0187018381818181818381870A6
:102F1C001FC0180018001800180018003C00000012
:102F2C0000001F8070E0E070C030C030C030C03096
:102F3C00C030C030C030CF30E1F070E01FEC003852
:102F4C0000003F8018E0187018301830187018E026
:102F5C001FC01B80198018C0186018303C7C000002
:102F6C0000000FD018703030301018000E000380A5
:102F7C0000E000302018301838182C3027E0000002
:102F8C0000007FF873386318430803000300030044
:102F9C00030003000300030003000300078000008C
:102FAC0000007878303030303030303030303030E5
:102FBC00303030303030303030301CE00FC000005A
:102FCC000000F0786030603060306030603060302D
:102FDC0060306030306018C00D80070002000000C7
:102FEC000000C71C82088208C718471845104510F6
:102FFC006DB06DB028A038E01040104010400000BB
:10300C000000F07C6030306018C008800D80070034
:10301C00020007000D8018C030606030F07C0000AA
:10302C000000F03C6018303018600CC007800300C2
:10303C0003000300030003000300030007800000EB
:10304C0000003FF8301820180030006000C00180EC
:10305C00030006000C001800300860187FF8000010
:10306C000000001C00300060006000600060006028
:10307C000060006000600060006000600030001CB8
:10308C0000008000C0006000300018000C0006003A
:10309C000300018000C0006000300018000C000428
:1030AC000000E0003000180018001800180018008C
:1030BC001800180018001800180018003000E00064
:1030CC0000000000000000000000000000000000F4
:1030DC00020007000D8018C07070C01C00000000BA
:1030EC0000000000000000000000000000000000D4
:1030FC000000000000000000000000000000FFFEC7
:10310C0000000E00070001800040000000000000DD
:10311C0000000000000000000000000000000000A3
:10312C000000000000000000000000000F8030C014
:10313C0000C00FC018C030C030C031D01F600000BC
:10314C000000380018001800180018001FC01C6080
:10315C00183018301830183018301C603FC0000080
:10316C000000000000000000000000000FC018600C
:10317C003060306030003000300018200FC000008C
:10318C000000007000300030003000300FB01870BC
:10319C003030303030303030303018700FB00000FC
:1031AC000000000000000000000000000FC01860CC
:1031BC00303030303FF03000300018300FE000007D
:1031CC00000003C006600660060006003FC0060053
:1031DC000600060006000600060006000F000000B0
:1031EC00000000000000000000000FB018E018C044
:1031FC0018C00F80070018C03060306018C00F80F6
:10320C000000380018001800180018001BC01E60C1
:10321C001C30183018301830183018303C7800003A
:10322C000000000003000300000000000700030082
:10323C0003000300030003000300030007800000E9
:10324C0000000180018000000000038001800180EB
:10325C000180018001801980198019800F00000005
:10326C0000003800180018001800180019F018C0D9
:10327C0019801B001F801CC0186018303C7C00009B
:10328C000000070003000300030003000300030019
:10329C000300030003000300030003000780000089
:1032AC00000000000000000000000000DEF0739839
:1032BC00631863186318631863186318F39C000091
:1032CC0000000000000000000000000037C01C607F
:1032DC001860186018601860186018603CF00000E6
:1032EC000000000000000000000000000FC018608B
:1032FC003030303030303030303018600FC000009B
:10330C0000000000000000000000000037C01C603E
:10331C001830183018301C601FC0180018003C0002
:10332C000000000000000000000000000F8018E00A
:10333C0030603060306018E00FE00060006000F03A
:10334C000000000000000000000000001BC00EE0A8
:10335C000C600C000C000C000C000C001E0000009B
:10336C000000000000000000000000000FC018E08A
:10337C0018200E00030001C0106018600FC0000080
:10338C000000000000000600060006003FC006001A
:10339C000600060006000600066006E007C00300F3
:1064FB0075F020A4240CF9742535F0FA74FFF2081A
:10650B00EAF208E9F278B6E2FB08E2FA08E2F922CD
:10651B00EF543F448078D8F27B0A7D02E4FF22EFF0
:10652B00F208ECF208EDF208EBF2E51678D8F2E49B
:10653B00FB7D02FF2225E025E0FDE22D440278D809
:10654B00F27B097D02E4FF2278D1E2FF04F2EF44F3
:10655B008078D8F27B047D02E4FF22E51678D8F22E
:10656B007B017D02E4FF22E51678D8F27B027D02E7
:10657B00E4FF22E51678D8F27B037D02E4FF2208C4
:10658B00E278D8F27B077D02E4FF22EFF208EBF210
:10659B0008EAF208E9F222123C7775F020A4240CE9
:1065AB00F9742535F0FA2278ACE2FF08E2FD7C00A5
:1065BB0078B1E2FEFB78AEE2F908E2FA08E222F2E9
:1065CB0008E2FE08E278032278B3E225E025E0FF3B
:1065DB0078B5E225E025E014FEC454F04F22E22406
:1065EB0001F218E23400F22278D8F27B057D02E446
:1065FB00FF2278D8F27B0F7D02E4FF2278ACE224F5
:10660B0008F278B1E2D3648094802278A87454F2B3
:10661B000874FFF222ECF208EDF208EBF22208E22A
:10662B0078D8F27B087D02E4FF22E278D8F27B0671
:10663B007D02E4FF22F8E2FB08E2FA08E27E002288
:06664B00900001023C7703
:0383D8008F1722DA
:0383DB008F1622D8
:1079730078A5EFF208EDF278D8EBF27B0B1279BB26
:1079830078A8E278D8F27B0C1279BB78A9E278D890
:10799300F27B0D7D02E4FF12803D78A5E230E00624
:1079A30008E24480800578A6E244C078D8F27B0ED2
:1079B3007D02E4FF12803D227D02E4FF12803D221E
:1068C40078D874C0F27B1F7D02E4FF12803D78D833
:1068D400740C1265FF12803D1266167F021269BFA6
:1068E4007454F208744AF27B4C7F021269D374FF29
