:03000000028BC0B0
:0C8BC000787FE4F6D8FD758135028C0743
:109FB300D2BCD2AC758DF4D28EE490018DF0A3F0B7
:019FC300227B
:109FC40090018DE0FFA3E0B507037F00227F01220B
:109D0B00C2AC90008FE0243EF582E43400F583E092
:109D1B00FF90008FE004F0E0C39450748094804077
:059D2B0002E4F0D2ACDF
:019D30002210
:080003003099FD8F99C299228A
:03002300029845FB
:10984500C0E0C083C082C0D075D008309825C298CA
:1098550090008EE0FF04F0743E2FF582E43400F5AD
:1098650083E599F090008EE0C39450748094804015
:0C98750002E4F0D0D0D082D083D0E032EA
:109BAE00C291D2917590F6C2B6C2B722E490010C62
:109BBE00F0A3F022C390010CE09400229000A2E0EA
:0F9BCE00FBA3E0FAA3E0F92290010CE004F022DF
:109E6D00E49000CFF07EFFC2AF129BB28E80D293F2
:0C9E7D00C2938F80129BAE7580FFD2AFA5
:019E890022B6
:109E2D00C2AFAF05129E6D129BB2AF038F80D2935E
:109E3D00C2939000CEE0F580129BAE7580FFD2AF3D
:019E4D0022F2
:108CC800AC03C2AFAF05129E6D129BB2129BBA12D3
:108CD8009BC2500BA3E004F070F5129BD680F0AF56
:108CE800040C8F80D293129BBA129BC2500BA3E044
:108CF80004F070F5129BD680F0C2939000A0E0FBC0
:108D0800A3E475F00112342CA9F0FA1233ACF58003
:108D1800C291129BBA129BC2500BA3E004F070F5EB
:108D2800129BD680F0D2919000A3E014F070B0129C
:088D38009BB27580FFD2AF224F
:029DA200AC070C
:109DA400C2AFAF05129E6D129BB2AF038F80D293E8
:109DB400C2937580FFC292AF80D292129BB2D2AF8F
:019DC400227C
:1092E0009000A2EBF0A3EAF0A3E9F0129BCA1234BB
:1092F00042F47003E5F0F46038123442FBAAF0EA5D
:10930000FDE4FF129DA2129BCA9000021233C5FC1D
:109310006F6012123442FBAAF0EAFD9000CEECF02E
:10932000E4FF129E2D9000A3E475F0031234168022
:02933000BA225F
:01A06A0022D3
:099D3100900095EFF0AA03A905CA
:109D3A00129DA2AE07900098E0F45EFFA3E04FFEEA
:0D9D4A00900095E0FF9000CEEEF0029E2DFF
:1061A4002562782025627820256278000A3C523ED8
:1061B40025303262785B25303262785D3D2530329D
:1061C400627800256278202562780025627820258F
:1061D4006278202562782025627820002531627853
:1061E400202531627820253162782000526561646F
:1061F4004173696342797465203D3D2025627820AE
:106204000A0063682562643A256264200063682595
:1062140062643A2562642063682562643A25626494
:10622400200063682562643A2562642063682562FD
:10623400643A2562642063682562643A25626420B6
:106244000063682562643A25626420636825626499
:106254003A2562642063682562643A256264206397
:10626400682562643A256264200063682562643AA2
:106274002562642063682562643A25626420636849
:106284002562643A2562642063682562643A256263
:10629400642063682562643A256264200025626490
:1062A40020000A203D3D3D3D3D3D3D3D20504147C0
:1062B400452025623278203D3D3D3D3D3D3D3D3DFF
:1062C4003D3D3D3D0A002562327809000A00253132
:1062D40062782025316278206368253162782063F2
:1062E40068253162782063682531627820636825E7
:1062F4003162782000656E726563616C6C00656E56
:10630400667265657A6500656E686D6972726F7232
:1063140000656E766D6972726F7200656E656E6887
:10632400616E636500656E626C616E6B00656E62C2
:106334006F756E6400656E626C696E6B0064697380
:10634400726563616C6C00646973667265657A6515
:1063540000646973686D6972726F72006469737640
:106364006D6972726F7200646973656E68616E63E1
:106374006500646973626C616E6B00646973626F5B
:10638400756E6400646973626C696E6B003D3D3DBB
:106394003D3D20466F726D6174203A206368303D44
:1063A4005B2562785D206368313D5B2562785D2002
:1063B4006368323D5B2562785D206368333D5B250D
:1063C40062785D203D3D3D3D3D0A002562782025F3
:1063D40062782063682562783A25627820636825AC
:1063E40062783A2562782063682562783A25627873
:1063F4002063682562783A256278200033333500BB
:106404002600280029006275737700627573720094
:10641400616D697800616D757465006164756D7096
:1064240000616761696E00616C697665006275730D
:10643400727400766D697800766D697865727200A1
:1064440076617474720079766D697800696E697426
:106454000076646574007673657466007373747291
:10646400006873636F6D006D6F64650064697373B6
:1064740063726F6C6C00766572000D0A414343458C
:1064840053533D30000D0A4143434553533D3100BE
:056494000102040810E4
:048D400041017F006E
:106C0E00A3F0A3E4F0A37400F0A37427F0A3E4F0C0
:106C1E00A37400F0A3742CF0A3E4F0A37400F0A30B
:106C2E007428F0A3E4F0A37400F0A3742DF0A3E491
:106C3E00F0A37400F07429A3F0A3E4F0A322A3F050
:106C4E00A3E4F0A37400F0A37427F0A3E4F0A374FC
:106C5E0000F0A3742CF0A3E4F0A37400F0A3742846
:106C6E00F0A3E4F0A37400F0A3742DF0A3E4F0A35A
:106C7E007400F07429A3F0A3E4F0A322900095E031
:106C8E00FBA3E0FAA3E0F922A3F0A3E4F0A37400BF
:106C9E00F0A37427F0A3E4F0A37400F0A3742BF018
:106CAE00A3E4F0A37400F07428A3F0A3E4F0A322ED
:106CBE009000A474FFF0A37462F07406A3F0A3E432
:106CCE00F0A3227400F0A3742EF0A3E4F0A37400DA
:106CDE00F0742AA3F0A3E4F0A3227400F0A3742EA0
:106CEE00F0A3E4F0A37400F0742AA3F0A3E4F0A3DD
:106CFE00227400F0A3742CF0A3E4F0A37400F074DB
:106D0E0029A3F0A3E4F0A3229000A474FFF0A374CF
:106D1E0062F07411A3F0A3E4F0A3229000A474FF18
:106D2E00F0A37462F074A1A3F0A3E4F0A3227400A4
:106D3E00F07427A3F0A3E4F0A3227400F07427A349
:106D4E00F0A3E4F0A3229000A474FFF0A322EBF0D2
:106D5E00A3EAF0A3E9F09000A47401F0A322A3F03B
:106D6E00A37401F0A37401F0746AA3F0A37401F08C
:106D7E00A322A3F0A3E4F0A322A3F0A3E4F0A322A2
:106D8E00A3F0A3E4F0A322A3F0A3E4F0A322A3F0C4
:106D9E00A3E4F0A322FFE02473F582E43401F5832B
:106DAE00EFF022E0FF90009F7401F0A37401F0A3B6
:106DBE00746FF07B017A01796A22A3F0A3E4F0A349
:106DCE0022A3F0A3E4F0A322EBF0A3EAF0A3E9F0F0
:106DDE0022900001E475F00102346D7BFF7A617937
:106DEE00B09000A1F022A3F0A3E4F0A322E054019E
:106DFE00FB7D2022252AF52AA3E0540322E52890C4
:106E0E00649493FFE527932F221236590233ACA3D5
:066E1E00F0A3E4F0A32242
:108E97009000A1126DD6A3126C8D126E177002FF8F
:108EA700229000A4126C8D126E17B4200B9000A4B0
:108EB700126C8D126DDF80E99000A4126C8D123652
:108EC70059C003C002C0019000A1126C8D123679FF
:108ED70080239000A4126C8D126E17FEB42010E44C
:108EE7001233F29000A4126C8D126DDF7F0122EE17
:108EF70070037F01229000A4126C8D126DDF80D267
:0697CB009000A1126DD612
:1097D100E4F531F5329000A1126C8D1233AC6022A8
:1097E1009000A1A3E475F00112342CA9F0FA123310
:1097F100ACFF3395E0FEEF2532F532EE3531F53130
:0698010080D3AE31AF324E
:01980700223E
:0F9FD4007F411200037F431200037F4B02000303
:10955E00E4F52A90016AE05403126E0225E025E03C
:10956E00126E02C454F0126E02C4333354C0252A54
:10957E00F52A900169E0B5070D90016EE0B52A0657
:10958E00E4900179F0229001797401F090016EE57A
:07959E002AF0900169EFF0D3
:0195A50022A3
:10963600126D547461F074A4126C457400F07427B2
:10964600126C837400F07428126CB77400F0A37463
:1096560029F0125F0BAB28AD27E4FF129DA2900004
:10966600A3EFF0E527126DE9A3E528F0129BDD05CF
:0696760028E528B529DFFC
:01967C0022CB
:10993100126D547461F074C7126CCA7400F074270C
:10994100126CE17400F0A37428F0125F0BAB28AD28
:1099510027E4FF129DA29000A3EFF0E527126DE925
:07996100A3E528F0029BDDE5
:109AE300126D547461F074A4126CF87400F074274E
:109AF300126D0F7400F07428126D227400F0A374B9
:109B030029F0125F0B9000CEE529F0AB28AD27E4D6
:049B1300FF029E2D82
:1094C400E4F527F528F529F52AC003C002126D54E6
:1094D4007461F074CF126D357400F07427126D410D
:1094E4007400F07428126D4D7400F07429126D80AC
:1094F4007400F0A3742AF0D002D003125F0B900022
:0D950400CEE52AF0AB29AD28E4FF029E2D34
:1095A600E4F527F528F529F52A126D547461F0744F
:1095B600E0126D807400F07427126D877400F074E9
:1095C60028126D877400F0A37429F0125F0BAB2983
:1095D600AD28E4FF129DA28F2A7BFF7A6179F09075
:0895E60000A1E52AF0029BDD63
:0375000090009B5D
:10750300126D5C7400F0A3749BF07B017A00799E8A
:10751300128E97E4FB7D1FFF12996890009E126CF8
:107523008D1286F0EE6003027641EF24FE603E1476
:1075330060671470030275C11470030275EA2404B2
:107543006003027641126CBE126D3C7400F0A374AA
:107553002CF090009B126C8D125F0BAB2CAD27E4CB
:10756300FF128E26E52790649493027639126D16E6
:10757300126D3C7400F0742C126D8E7400F074283C
:10758300126D8E7400F0A3742DF090009B126C8D1D
:10759300127642126E0B027639126D547462F074D5
:1075A30026126C0E7400F0A3742EF090009B126CE4
:1075B3008D127642AB2EAD29127658027639126DB2
:1075C300547462F07445126C0E126CD17400F0A303
:1075D300742FF090009B126C8D12766E127658FF0A
:1075E300E52A932F027639126D547462F0A3746EF8
:1075F300126C0F126CD17400F0742F126D9574001D
:10760300F0742B126D957400F0A37430F090009B0E
:10761300126C8D12766EE4FF128E26AB30AD2BE426
:10762300FF128E26126E0BFFE529932FFFE52A9397
:0E7633002FFFE52B932FFD7B01E4FF129968DA
:1076410022125F0BAB2CAD27E4FF128E26AB2DADC2
:1076510028E4FF128E2622E4FF128E26E52890648C
:107661009493FFE527932FFFE529932F22125F0BB8
:10767100AB2CAD27E4FF128E26AB2DAD28E4FF1213
:107681008E26AB2EAD29E4FF128E26AB2FAD2A221A
:0F9FE300E4FB7D1FFF1299687DFFE4FF029C39AC
:037C1B0090009B3B
:107C1E00126D5C7400F0A3749BF07B017A00799E68
:107C2E00128E9790009E126C8D1286F0EE600302FB
:107C3E007D29EF24FE6030146056146071147003B9
:107C4E00027CE024046003027D29126CBE126D4892
:107C5E007400F0A3742CF090009B126C8D125F0BCD
:107C6E00AB2CAD27027D24126D16126D487400F0F8
:107C7E00742C126D9C7400F07428126D9C7400F0BC
:107C8E00A3742DF090009B126C8D127D44027D2406
:107C9E00126D547462F07426126C4C7400F0A3745E
:107CAE002EF090009B126C8D127D2A027D24126D97
:107CBE00547462F07445126C4C126CE87400F0A3AC
:107CCE00742FF090009B126C8D127D2A127D55023E
:107CDE007D24126D547462F0A3746E126C4D126C8E
:107CEE00E87400F0742F126DC87400F0742B126DCE
:107CFE00C87400F0A37430F090009B126C8D127D4E
:107D0E0044E4FF128FDFAB2EAD29127D55E4FF1236
:0B7D1E008FDFAB30AD2BE4FF128FDFD6
:107D290022125F0BAB2CAD27E4FF128FDFAB2DAD19
:107D390028E4FF128FDFAB2EAD2922125F0BAB2C8B
:107D4900AD27E4FF128FDFAB2DAD2822E4FF128FA0
:067D5900DFAB2FAD2A2272
:109F1A00126D297400F0A37427F0125F0BAD27E4C9
:049F2A00FF029C395D
:10938400E4F528C3E52894037480948050427BFF5D
:109394007A6279A69000A1E528F0129BDDE4F52716
:1093A400AB27AD28E4FF129DA29000A1EFF07BFF54
:1093B4007A6279CA129BDD0527E527540F70097B71
:1093C400FF7A6279D0129BDDE52770D4052880B33B
:0193D4002276
:10923600C003C002C001126D547462F074D2126D84
:10924600CF7400F07427126DCF7400F07428126D7D
:109256006C7401F0746B126D787401F0A3746C1267
:109266006D797401F0A3746DF0D001D002D00312B1
:109276005F0BE527C454F0FFE528540F2FF527129E
:069286006DC1FF027369D7
:0669F70090009B126DD61A
:1069FD00E4F52F7B019000A404F0A37400F0A374C0
:106A0D009BF07A00799E128E9790009E126C8D12DB
:106A1D0086F08F30126D64126BEF90009E126C8DAC
:106A2D001297CB8E278F287A6279F9126BCCB52805
:106A3D000AEEB52706752980026ACC7A63790212AF
:106A4D006BCCB5280AEEB52706752940026ACC7ABB
:106A5D0063790B126BD3B52809EEB527057529207F
:106A6D00805D7A637915126BD3B52809EEB52705CC
:106A7D00752910804A7A63791F126BDAB52809EEF1
:106A8D00B5270575290880377A637929126BDAB530
:106A9D002809EEB5270575290480247A637931120A
:106AAD006BE1B52809EEB5270575290280117A63CA
:106ABD007939126BE1B5280DEEB5270975290175E8
:106ACD002A01026B767A637941126BE8B5280AEEDA
:106ADD00B52706752980026B597A63794B126BE8DD
:106AED00B52809EEB5270575294080607A6379557B
:106AFD00126C00B52809EEB52705752920804D7A51
:106B0D00637960126C00B52809EEB527057529105B
:106B1D00803A7A63796B126C07B52809EEB52705B3
:106B2D0075290880277A637976126C07B52809EEE6
:106B3D00B5270575290480147BFF7A63797F129739
:106B4D00CBEFB5280CEEB52708752902E4F52A80A0
:106B5D00187BFF7A6379881297CBEF65287003EE67
:106B6D006527705A752901F52A126D64126BEFEFC6
:106B7D00603390009E126C8D1233ACB477EB9000A5
:106B8D00011233C5B469E29000021233C5B46ED957
:106B9D00E92403F9E43AFA1286F0742B252FF8A6AE
:106BAD0007052F80C4E52F6015242AF8E6FFC3954D
:0E6BBD00305007AB2AAD29129AAE152F80E793
:106BCB00227BFF1297CBEF227BFF1297CBEF227B1F
:106BDB00FF1297CBEF227BFF1297CBEF227BFF129B
:106BEB0097CBEF227400F0A3749BF07B017A0079B2
:106BFB009E128E97227BFF1297CBEF227BFF129771
:036C0B00CBEF22AA
:109F7D00126D297400F0A37427F0125F0BAF270246
:029F8D009F2E05
:1098BD00E4FF129425C0077F01129425C0077F0293
:1098CD00129425C0077F031294259000A4EFF09009
:1098DD0000A3D0E0F09000A2D0E0F09000A1D0E085
:0A98ED00F07BFF7A637991029BDDA6
:0380E90090009B69
:1080EC00126D5C7400F0A3749BF07B017A00799E96
:1080FC00128E9790009E126C8D1286F0EE60030229
:10810C0081DBEF24FE602B14605314607924036030
:10811C00030281DB126CBE7400F07427126DF474D0
:10812C0000F0A3742BF090009B126C8D1281FA025C
:10813C0081D6126D547462F07411126C967400F046
:10814C00A3742CF090009B126C8D1281FAE4FF1238
:10815C009C91E52CC454F0FBAD280281D6126D54D1
:10816C007462F07426126C96126CFF7400F0A37497
:10817C002DF090009B126C8D1281DCE52DC454F017
:10818C00FBAD290281D6126D547462F0A3744512B2
:10819C006C97126CFF7400F0742D126DF47400F077
:1081AC00742A126E1D7400F0A3742EF090009B12B2
:1081BC006C8D1281DCE52DC454F0FBAD29E4FF126B
:0F81CC009C91E52EC454F0FBAD2AE4FF129C9168
:1081DB0022125F0BE52BC454F0FBAD27E4FF129C7E
:1081EB0091E52CC454F0FBAD28E4FF129C912212B4
:0B81FB005F0BE52BC454F0FBAD272206
:0391790090009BC8
:10917C00126D5C1291C6126C8D1286F08F27126DD7
:10918C00641291C6126C8D1286F08F287F0412A087
:10919C00617F0312A0647F05129E4E90009BE0F944
:1091AC00A3E0FAA3E09000A4C9126DD7AB28AD27B9
:0A91BC007F011290B17F05029A0DA9
:1091C6007400F0A3749BF07B017A00799E128E974F
:0491D60090009E2245
:10951100752801E4F527C3E52794047480948050ED
:1095210028746F2527F582E43401F583E030E415D2
:10953100746A2527F582E43401F583E0FDE4FF1226
:109541009C39E4F528052780CDE528600FE4FB7DF3
:0C9551001FFF1299687DFFE4FF129C3997
:01955D0022EB
:10798000C003C002C001126D547463F074CF126E54
:107990001D7400F0A37428F0A3E4F0A37400F07445
:1079A00029126D6C7401F0A3746F126D797401F07B
:1079B000A3746B126D797401F0A37470126D7974F5
:1079C00001F0A3746C126D797401F0A37471126DDF
:1079D000797401F0A3746D126D797401F0A374725F
:1079E000F0D001D002D003125F0BE528C454F0FFA1
:1079F000900166E0FEC433333354802FFFE52954F1
:107A00000F2F900178F090016FE090016A126DA342
:107A1000900170E090016B126DA3900171E0FF90F6
:107A2000016C126DA4900172E0FF90016D126DA4C3
:107A3000900173126DFBE4FF129881900174126D36
:107A4000FB7F01129881900175126DFB7F021298E5
:107A500081900176126DFB7F031298817B017A0180
:107A60007973127AD4900178126DB112544E90014C
:107A700078E0FF126DC1127369E4F527C3E527941E
:107A800004748094805017746F2527F582E43401C4
:107A9000F583126DFBAF27129AAE052780DEE4F561
:107AA00010F511F5127513057F0112A03D900178B4
:107AB000E0FF12955E7F08129B17E4FF129E8A1268
:107AC000967D7B017A01796F1250B4900178E09035
:037AD000017FF043
:017AD3002290
:108DB5007F03129425EFFD3395E0FCED64024C70C2
:108DC50002C322900166E0B50702D322900166EF47
:108DD500F0E0C43333335480FF900169E0547F4F92
:108DE500F07F01129A0D900166E0FF1291157B014B
:108DF5007A017973127AD4900169126DB112544EC9
:108E0500900169E0FF126DC1127369E4FF129E8A39
:108E150012967D7B017A01796F1250B4129CBBD3F7
:018E2500222A
:109F0400126D547462F0A374A1126D797401F0A3FC
:069F14007467F0025F0B10
:05A05C007F01029A0DD6
:109C6600E490009BF07F4D120003906400129C87E5
:109C7600A3129C87A3A3E493FF1200037F50020064
:019C860003DA
:0A9C8700E493FF1200039064002232
:03649900900095DB
:10649C00126D5C7400F0A37495F07B017A0079980E
:1064AC00128E97900098126C8D1297CB8E258F269A
:1064BC007A6479041266FCB5260DEEB52509126CCA
:1064CC008A1296360266F97A6479061266FCB5264B
:1064DC000DEEB52509126C8A1299310266F97A64AF
:1064EC007908126703B5260DEEB52509126C8A12D0
:1064FC009AE30266F97A64790A126703B5260DEEFF
:10650C00B52509126C8A1294C40266F97A64790F63
:10651C0012670AB5260DEEB52509126C8A1295A6DE
:10652C000266F97A64791412670AB5260DEEB52560
:10653C0009126C8A1275000266F97A64791912676D
:10654C0011B5260AEEB52506129FE30266F97A64A8
:10655C00791F126711B5260AEEB52506126E2402B4
:10656C0066F97A647925126718B5260DEEB52509FA
:10657C00126C8A127C1B0266F97A64792B126718EA
:10658C00B5260DEEB52509126C8A129F1A0266F912
:10659C007A64793112671FB5260AEEB52506129377
:1065AC00840266F97A64793712671FB52615EEB541
:1065BC0025117F401296C2126C8A129236129FD409
:1065CC000266F97A64793C126726B5260DEEB5257C
:1065DC0009126C8A1292360266F97A64794412674F
:1065EC0026B5260DEEB52509126C8A1269F70266DE
:1065FC00F97A64794A12672DB52610EEB5250C127E
:10660C009FD4126C8A129F7D0266F97A64795012BB
:10661C00672DB5260AEEB525061297060266F97A9D
:10662C00647955126734B5260AEEB525061298BD65
:10663C000266F97A64795A126734B5260DEEB525DF
:10664C0009126C8A1280E90266F97A647960126721
:10665C003BB5260DEEB52509126C8A1291790266AE
:10666C00F97A64796512673BB5261AEEB5251612D0
:10667C009FD4126C8A127980129511129CBBE4FF84
:10668C0012A03D80687A64796B126742B5260FEED2
:10669C00B5250B129FD4126C8A129F04804F7A641A
:1066AC007970126742B5260CEEB52508129FD412EC
:1066BC00A05C80397BFF7A64797A1297CBEF6526E0
:1066CC007003EE65257026129FD4129C6690010E05
:1066DC00E064017009F07BFF7A64797E800C900194
:0F66EC000E7401F07BFF7A647989129BDD7F01C8
:1066FB00227BFF1297CBEF227BFF1297CBEF227BF4
:10670B00FF1297CBEF227BFF1297CBEF227BFF126F
:10671B0097CBEF227BFF1297CBEF227BFF1297CB0E
:10672B00EF227BFF1297CBEF227BFF1297CBEF224F
:0E673B007BFF1297CBEF227BFF1297CBEF2252
:109EED000D0A0044656275672050726F6772616D6F
:079EFD00203E005043540019
:048D440041010E01DA
:0EA0100090010AE024E1F582E43400F5832299
:10947500129F8FEF6401704690010BE07040129DC2
:109485000B8F25300003120003E52524F8601C240A
:10949500FB701F12A010E4F090010B04F0FB7A00A2
:1094A50079E1129B7E30001602A03490010AE01487
:0E94B500F02212A010E525F090010AE004F06C
:0194C3002286
:09A034007BFF7A9E79ED029E0B80
:0B9A7900900095EBF0A3EAF0A3E9F0E9
:109A8400900095E0FBA3E0FAA3E0F91233AC60196F
:109A9400900095A3E475F00112342CA9F0FA123366
:099AA400ACF525FF12000380D788
:019AAD002296
:109EBD003000097BFF7A9E79F0129A79E490010ABD
:089ECD00F0A3F09000E1F02287
:09A03D00EF6003C20122D20122EE
:0CA01E00C200C201C223E4900190F022B5
:109B7E00900095EBF0A3EAF0A3E9F020002190000D
:109B8E0095E0FBA3E0FAA3E0F8AC02AD037BFF7A0D
:109B9E009F790012386CEF3395E04F7002D200229D
:0893D50090009BEEF0A3EFF005
:1093DD0090009BE07002A3E0603DE490009DF0A33F
:1093ED00F090009DE0FEA3E0FFE4FCFD7BD8FAF9D0
:1093FD00F8D31235D7401090009EE004F070E29043
:10940D00009DE004F080DA90009CE024FFF09000D5
:07941D009BE034FFF080B971
:019424002225
:1087CB00E4900092F0A374C8F0A37464F0129DC5FA
:1087DB0012A01E12A06A129706129EBD9000CE74B4
:1087EB0030F07B57E4FDFF129E2D9000987408F03B
:1087FB00A3F07B187D01E4FF129D31900098740863
:10880B00F0A3F07B287D01E4FF129D3190010EE077
:10881B006401702112947590010BE0640170097B67
:10882B00017A0079E112649990010BE064017010F8
:10883B00129EBD800B129F8FEF60051257CB80F5F8
:10884B00302307128DB55002C223129FC4EF60096B
:10885B00900093E0751200F513E513640145127057
:10886B000DF512F513900094E0751000F511E5115C
:10887B006401451070961298F775100075111480ED
:01888B008B61
:109DC500E4F5B8F5A8758780F5D0758921F588750E
:109DD5009852F5B175B210129FB3129D57D299D210
:039DE500AF0022AA
:100026001010FFFFFFFFFFFFFFFFFFFFFFFFFFFFB8
:10003600FFFFFFFFFFFFFFFFFFFFFFFFFFFFFFFFCA
:10004600FFFFFFFFFFFFFFFFFFFFFFFFFFFFFFFFBA
:10005600FFFFFFFFFFFFFFFFFFFFFFFFFFFFFFFFAA
:10006600FFFFFFFFFFFFFFFFFFFFFFFFFFFFFFFF9A
:10007600FFFFFFFFFFFFFFFFFFFFFFFFFFFFFFFF8A
:10008600FFFFFFFFFFFFFFFFFFFFFFFFFFFFFFFF7A
:10009600FFFFFFFFFFFFFFFFFFFFFFFFFFFFFFFF6A
:1000A600FFFFFFFFFFFFFFFFFFFFFFFFFFFFFFFF5A
:1000B600FFFFFFFFFFFFFFFFFFFFFFFFFFFFFFFF4A
:1000C600FFFFFFFFFFFFFFFFFFFFFFFFFFFFFFFF3A
:1000D600FFFFFFFFFFFFFFFFFFFFFFFFFFFFFFFF2A
:1000E600FFFFFFFFFFFFFFFFFFFFFFFFFFFFFFFF1A
:1000F600FFFFFFFFFFFFFFFFFFFFFFFFFFFFFFFF0A
:10010600FFFFFFFFFFFFFFFFFFFFFFFFFFFFFFFFF9
:10011600FFFFFFFFFFFFFFFFFFFFFFFFFFFFFFFFE9
:10012600FFFF1010FFFFFFFFFFFFFFFFFFFFFFFFB7
:10013600FFFFFFFFFFFFFFFFFFFFFFFFFFFFFFFFC9
:10014600FFFFFFFFFFFFFFFFFFFFFFFFFFFFFFFFB9
:10015600FFFFFFFFFFFFFFFFFFFFFFFFFFFFFFFFA9
:10016600FFFFFFFFFFFFFFFFFFFFFFFFFFFFFFFF99
:10017600FFFFFFFFFFFFFFFFFFFFFFFFFFFFFFFF89
:10018600FFFFFFFFFFFFFFFFFFFFFFFFFFFFFFFF79
:10019600FFFFFFFFFFFFFFFFFFFFFFFFFFFFFFFF69
:1001A600FFFFFFFFFFFFFFFFFFFFFFFFFFFFFFFF59
:1001B600FFFFFFFFFFFFFFFFFFFFFFFFFFFFFFFF49
:1001C600FFFFFFFFFFFFFFFFFFFFFFFFFFFFFFFF39
:1001D600FFFFFFFFFFFFFFFFFFFFFFFFFFFFFFFF29
:1001E600FFFFFFFFFFFFFFFFFFFFFFFFFFFFFFFF19
:1001F600FFFFFFFFFFFFFFFFFFFFFFFFFFFFFFFF09
:10020600FFFFFFFFFFFFFFFFFFFFFFFFFFFFFFFFF8
:10021600FFFFFFFFFFFFFFFFFFFFFFFFFFFFFFFFE8
:10022600FFFFFFFF1010FFFFFFFFFFFFFFFFFFFFB6
:10023600FFFFFFFFFFFFFFFFFFFFFFFFFFFFFFFFC8
:10024600FFFFFFFFFFFFFFFFFFFFFFFFFFFFFFFFB8
:10025600FFFFFFFFFFFFFFFFFFFFFFFFFFFFFFFFA8
:10026600FFFFFFFFFFFFFFFFFFFFFFFFFFFFFFFF98
:10027600FFFFFFFFFFFFFFFFFFFFFFFFFFFFFFFF88
:10028600FFFFFFFFFFFFFFFFFFFFFFFFFFFFFFFF78
:10029600FFFFFFFFFFFFFFFFFFFFFFFFFFFFFFFF68
:1002A600FFFFFFFFFFFFFFFFFFFFFFFFFFFFFFFF58
:1002B600FFFFFFFFFFFFFFFFFFFFFFFFFFFFFFFF48
:1002C600FFFFFFFFFFFFFFFFFFFFFFFFFFFFFFFF38
:1002D600FFFFFFFFFFFFFFFFFFFFFFFFFFFFFFFF28
:1002E600FFFFFFFFFFFFFFFFFFFFFFFFFFFFFFFF18
:1002F600FFFFFFFFFFFFFFFFFFFFFFFFFFFFFFFF08
:10030600FFFFFFFFFFFFFFFFFFFFFFFFFFFFFFFFF7
:10031600FFFFFFFFFFFFFFFFFFFFFFFFFFFFFFFFE7
:10032600FFFFFFFFFFFF1010FFFFFFFFFFFFFFFFB5
:10033600FFFFFFFFFFFFFFFFFFFFFFFFFFFFFFFFC7
:10034600FFFFFFFFFFFFFFFFFFFFFFFFFFFFFFFFB7
:10035600FFFFFFFFFFFFFFFFFFFFFFFFFFFFFFFFA7
:10036600FFFFFFFFFFFFFFFFFFFFFFFFFFFFFFFF97
:10037600FFFFFFFFFFFFFFFFFFFFFFFFFFFFFFFF87
:10038600FFFFFFFFFFFFFFFFFFFFFFFFFFFFFFFF77
:10039600FFFFFFFFFFFFFFFFFFFFFFFFFFFFFFFF67
:1003A600FFFFFFFFFFFFFFFFFFFFFFFFFFFFFFFF57
:1003B600FFFFFFFFFFFFFFFFFFFFFFFFFFFFFFFF47
:1003C600FFFFFFFFFFFFFFFFFFFFFFFFFFFFFFFF37
:1003D600FFFFFFFFFFFFFFFFFFFFFFFFFFFFFFFF27
:1003E600FFFFFFFFFFFFFFFFFFFFFFFFFFFFFFFF17
:1003F600FFFFFFFFFFFFFFFFFFFFFFFFFFFFFFFF07
:10040600FFFFFFFFFFFFFFFFFFFFFFFFFFFFFFFFF6
:10041600FFFFFFFFFFFFFFFFFFFFFFFFFFFFFFFFE6
:10042600FFFFFFFFFFFFFFFF1010FFFFFFFFFFFFB4
:10043600FFFFFFFFFFFFFFFFFFFFFFFFFFFFFFFFC6
:10044600FFFFFFFFFFFFFFFFFFFFFFFFFFFFFFFFB6
:10045600FFFFFFFFFFFFFFFFFFFFFFFFFFFFFFFFA6
:10046600FFFFFFFFFFFFFFFFFFFFFFFFFFFFFFFF96
:10047600FFFFFFFFFFFFFFFFFFFFFFFFFFFFFFFF86
:10048600FFFFFFFFFFFFFFFFFFFFFFFFFFFFFFFF76
:10049600FFFFFFFFFFFFFFFFFFFFFFFFFFFFFFFF66
:1004A600FFFFFFFFFFFFFFFFFFFFFFFFFFFFFFFF56
:1004B600FFFFFFFFFFFFFFFFFFFFFFFFFFFFFFFF46
:1004C600FFFFFFFFFFFFFFFFFFFFFFFFFFFFFFFF36
:1004D600FFFFFFFFFFFFFFFFFFFFFFFFFFFFFFFF26
:1004E600FFFFFFFFFFFFFFFFFFFFFFFFFFFFFFFF16
:1004F600FFFFFFFFFFFFFFFFFFFFFFFFFFFFFFFF06
:10050600FFFFFFFFFFFFFFFFFFFFFFFFFFFFFFFFF5
:10051600FFFFFFFFFFFFFFFFFFFFFFFFFFFFFFFFE5
:10052600FFFFFFFFFFFFFFFFFFFF1010FFFFFFFFB3
:10053600FFFF00000000FFFFFFFFFFFFFFFFFFFFC1
:10054600FF000000000000FFFFFFFFFFFFFFFFFFAF
:100556000000020202020000FFFFFFFFFFFFFFFF95
:100566000000020202020000FFFFFFFFFFFFFF0084
:10057600000202000002020000FFFFFFFFFFFF0073
:10058600000202000002020000FFFFFFFFFF000062
:1005960002020000000002020000FFFFFFFF000051
:1005A600020200FFFF0002020000FFFFFF00000240
:1005B600020000FFFF000002020000FFFF00000231
:1005C6000200000000000002020000FF000002021C
:1005D60002020202020202020202000000000202FD
:1005E60002020202020202020202000000000202ED
:1005F60000000000000000000202000000000202ED
:100606000000FFFFFFFF00000202000000000202E0
:100616000000FFFFFFFF00000202000000000000D4
:100626000000FFFFFFFF00000000000010100000A8
:10063600000000000000000000000000FFFF0002B4
:1006460002020202020202020202000000FF00028F
:10065600020202020202020202020200000000007E
:100666000002020000000000020202020000FF0079
:1006760000020200FFFFFF00000202020000FF006E
:1006860000020200FFFFFF00000202020000FF005E
:1006960000020200000000000202020000FFFF004C
:1006A600000202020202020202020000FFFFFF0035
:1006B600000202020202020202020000FFFFFF0025
:1006C60000020200000000000202020000FFFF001C
:1006D60000020200FFFFFF00000202020000FF000E
:1006E60000020200FFFFFF000002020200000000FD
:1006F60000020200000000000202020200000002E6
:1007060002020202020202020202020000000002CB
:1007160002020202020202020202000000FF0000C0
:10072600000000000000000000000000FFFF1010A5
:10073600FFFFFF00000000000000000000FFFFFFB9
:10074600FFFF00000202020202020202000000FF96
:10075600FF00000202020202020202020200000080
:100766000000000202000000000000020202000079
:1007760000000202020000FFFFFF0000020200006C
:10078600000002020000FFFFFFFFFF000202000060
:10079600000002020000FFFFFFFFFFFF0000000055
:1007A600000002020000FFFFFFFFFFFFFFFFFFFF49
:1007B600000002020000FFFFFFFFFFFFFFFFFFFF39
:1007C600000002020000FFFFFFFFFF000000000024
:1007D600000002020000FFFFFFFFFF000202000010
:1007E60000000202000000FFFFFF000002020000FE
:1007F60000000202020000000000000202020000E7
:10080600FF000002020202020202020202000000CF
:10081600FFFF00000202020202020202000000FFC5
:10082600FFFFFF0000000000000000000000FFFFC7
:100836001010000000000000000000000000FFFF94
:10084600FFFF00000202020202020202020000FF93
:10085600FFFF000002020202020202020202000080
:10086600FFFF00000202000000000002020200007A
:10087600FFFF000002020000FFFF0000020200006E
:10088600FFFF000002020000FFFF0000020200005E
:10089600FFFF00000202000000000002020200004A
:1008A600FFFF00000202020202020202020000FF33
:1008B600FFFF00000202020202020202000000FF25
:1008C600FFFF000002020000020202000000FFFF1C
:1008D600FFFF000002020000000202020000FFFF0C
:1008E600FFFF00000202000000000202020000FFFB
:1008F600FFFF000002020000FF00000202020000EB
:10090600FFFF000002020000FFFF000002020200DB
:1009160000FF000002020000FFFFFF0000020202CB
:1009260000FF000000000000FFFFFFFF00000000C6
:1009360000FF101000000000FFFFFFFFFFFFFFFF9A
:10094600000000000000000000FFFFFFFFFFFF00A7
:100956000000000000000C0C0000FFFFFFFF00007D
:100966000C0C000000000C0C0C0000000000000C39
:100976000C0C000000000C0C0C0C000000000C0C11
:100986000C0C000000000C0C0C0C0C0C0C0C0C0CD1
:100996000C0C000000000C0C0C0C0C0C0C0C0C0CC1
:1009A6000C0C000000000C0C0C000C0C0C0C000CC9
:1009B6000C0C000000000C0C0C00000C0C00000CD1
:1009C6000C0C000000000C0C0C0000000000000CD9
:1009D6000C0C000000000C0C0C0000000000000CC9
:1009E6000C0C000000000C0C0C0000FFFF00000CBB
:1009F6000C0C000000000C0C0C0000FFFF00000CAB
:100A06000C0C000000000C0C0C0000FFFF00000C9A
:100A16000C0C000000000C0C0C0000FFFF00000C8A
:100A26000C0C000000000000000000FFFF000000AA
:100A3600000000001010FF00000000000000000091
:100A46000000000000FFFF00000202020202020294
:100A56000202020000FFFF0000020202020202027E
:100A66000202020000FFFF00000000000000020278
:100A76000200000000FFFFFFFFFFFFFF0000020271
:100A8600020000FFFFFFFFFFFFFFFFFF0000020263
:100A9600020000FFFFFFFFFFFFFFFFFF0000020253
:100AA600020000FFFFFFFFFFFFFFFFFF0000020243
:100AB600020000FFFFFFFFFFFFFFFFFF0000020233
:100AC600020000FFFFFFFFFFFFFFFFFF0000020223
:100AD600020000FFFFFFFF00000000FF000002020F
:100AE600020000FFFFFFFF000202000000000202FA
:100AF600020000FFFFFFFF000202020000020202E6
:100B0600020000FFFFFFFF000002020202020202D3
:100B1600000000FFFFFFFFFF0000020202020200CA
:100B26000000FFFFFFFFFFFFFF00000000000000C6
:100B360000FFFFFFFFFF1010FFFFFFFFFFFFFFFF9C
:100B4600FFFFFFFFFFFFFFFFFFFFFFFFFF000000AC
:100B560000000000FFFFFFFFFFFFFFFF0000010195
:100B660001010000FFFFFFFFFFFFFF000001010181
:100B760001010000FFFFFFFFFFFF0000010101016F
:100B8600010000FFFFFFFFFFFF000001010101015F
:100B96000000000000000000000001010101010149
:100BA6000101010101010000000101010101010132
:100BB6000101010101010000000101010101010122
:100BC6000101010101010000000001010101010113
:100BD6000101010101010000FF0000010101010105
:100BE6000000000000000000FFFF000001010101FD
:100BF600010000FFFFFFFFFFFFFFFF0000010101F3
:100C060001010000FFFFFFFFFFFFFFFF00000101E2
:100C160001010000FFFFFFFFFFFFFFFFFF000000D5
:100C260000000000FFFFFFFFFFFFFFFFFFFFFFFFCA
:100C3600FFFFFFFFFFFFFFFF1010FFFFFFFFFFFF9C
:100C4600FFFFFFFFFFFFFFFFFFFFFFFFFFFF0000AC
:100C56000000000000FFFFFFFFFFFFFFFFFF000097
:100C6600010101010000FFFFFFFFFFFFFFFF000082
:100C760001010101010000FFFFFFFFFFFFFFFF0071
:100C86000001010101010000FFFF0000000000005B
:100C9600000001010101010000FF00000101010146
:100CA6000101010101010101000000000101010132
:100CB6000101010101010101010000000101010121
:100CC6000101010101010101010000000000000015
:100CD600000001010101010000FF0000000000000A
:100CE600000001010101010000FFFFFFFFFFFF00FF
:100CF6000001010101010000FFFFFFFFFFFF0000EF
:100D060001010101010000FFFFFFFFFFFFFF0000DF
:100D1600010101010000FFFFFFFFFFFFFFFF0000D1
:100D26000000000000FFFFFFFFFFFFFFFFFFFFFFC8
:100D3600FFFFFFFFFFFFFFFFFFFF1010FFFFFFFF9B
:100D46000000000000000000FFFFFFFFFFFFFFFFA5
:100D56000000010101010000FFFFFFFFFFFFFFFF91
:100D66000000010101010000FFFFFFFFFFFFFFFF81
:100D76000000010101010000FFFFFFFFFFFFFFFF71
:100D86000000010101010000FFFFFFFF000000005D
:100D96000000010101010000000000000000010147
:100DA6000000010101010000010100000000010135
:100DB6000100010101010001010100000000010123
:100DC6000101010101010101010100000000010111
:100DD600010101010101010101010000FF00000103
:100DE6000101010101010101010000FFFFFF0000F7
:100DF60001010101010101010000FFFFFFFFFF00EA
:100E0600000101010101010000FFFFFFFFFFFFFFDD
:100E16000000010101010000FFFFFFFFFFFFFFFFD0
:100E2600FF000001010000FFFFFFFFFFFFFFFFFFC4
:100E3600FFFF00000000FFFFFFFFFFFF1010FFFF96
:100E4600FFFFFFFFFFFF0000000000000000FFFFA4
:100E5600FFFFFFFFFF000002020202020000FFFF89
:100E6600FFFFFFFF00000202020202020000FFFF76
:100E7600FFFFFF0000020202000002020000000065
:100E86000000000002020200000002020000000052
:100E96000202020202020200FF000202000000003B
:100EA6000202020202020200FF000202000000002B
:100EB6000202000000020200FF0002020000000021
:100EC600020200FF00020200FF0002020000000012
:100ED6000202000000020200FF0002020000000001
:100EE6000202020202020200FF00020200000000EB
:100EF60002020202020202000000020200000000DA
:100F06000000000000020202000002020000FFFFD3
:100F1600FFFFFFFF00000202020202020000FFFFC5
:100F2600FFFFFFFFFF000002020202020000FFFFB8
:100F3600FFFFFFFFFFFF0000000000000000101091
:100F46000000000000FFFFFFFFFFFF0000000000A1
:100F56000004040400FFFFFFFFFFFF000404040079
:100F66000004040400FFFFFFFFFFFF000404040069
:100F76000004040400FFFFFFFFFFFF000404040059
:100F86000004040400FFFFFFFFFFFF000404040049
:100F9600000404040000FFFFFFFF00000404040037
:100FA600000404040400FFFFFFFF0004040404001F
:100FB600000004040400FFFFFFFF00040404000017
:100FC60000000404040000FFFF0000040404000005
:100FD600FF0000040404000000000404040000FFF5
:100FE600FFFF000004040400000404040000FFFFE7
:100FF600FFFF000000040400000404000000FFFFDF
:10100600FFFFFF00000404040404040000FFFFFFC8
:10101600FFFFFFFF0000040404040000FFFFFFFFC2
:10102600FFFFFFFFFF00000404000000FFFFFFFFBB
:10103600FFFFFFFFFFFF0000000000FFFFFFFFFFB5
:10104600101000000000000000FFFFFFFFFFFFFF81
:10105600FFFF00000404040000FFFFFFFFFFFFFF87
:10106600FFFF00000404040000FFFFFFFFFFFFFF77
:10107600FFFF00000404040000FFFFFFFFFFFFFF67
:10108600FFFF00000404040000FFFFFFFFFFFFFF57
:10109600FFFF00000404040000FFFFFFFFFFFFFF47
:1010A600FFFF00000404040000FFFFFFFFFFFFFF37
:1010B600FFFF00000404040000FFFFFFFFFFFFFF27
:1010C600FFFF00000404040000FFFFFFFFFFFFFF17
:1010D600FFFF00000404040000FFFFFFFFFF000005
:1010E600000000000404040000FFFFFFFFFF0000F3
:1010F600000000000404040000FFFFFFFF000004DE
:1011060000000000040404000000000000000404C5
:101116000000000004040404040404040404040499
:101126000000000004040404040404040404040489
:1011360000000000000000000000000000000000A9
:1011460000001010FFFFFFFFFFFFFFFFFFFFFFFF85
:10115600FFFFFFFFFFFFFFFFFFFFFFFFFFFFFFFF99
:10116600FFFFFFFFFFFFFFFFFFFFFFFFFFFFFFFF89
:10117600FFFFFFFFFFFFFFFF00000000000000FF72
:10118600FFFFFFFFFFFFFF00000004040400000054
:10119600FFFFFFFFFFFF0000040404040404040033
:1011A60000FFFFFFFF000004040400000004040425
:1011B6000000FFFF00000004040000FF000004041C
:1011C600000000FF00000404040000FF0000040407
:1011D600040000FF00000404040000FF00000404F3
:1011E600040000FF00000404040000FF00000404E3
:1011F600040000FF00000004040000FF00000404D7
:10120600000000FFFF0000040404000000040404C2
:101216000000FFFFFFFF00000404040404040400B0
:1012260000FFFFFFFFFFFF000000040404000000B2
:10123600FFFFFFFFFFFFFFFF00000000000000FFB1
:10124600FFFFFFFF1010FFFFFFFFFFFFFFFFFFFF86
:10125600FFFFFFFFFFFFFFFFFFFFFFFFFFFFFFFF98
:10126600FFFFFFFFFFFFFFFFFFFFFFFFFFFFFFFF88
:10127600FFFFFFFFFFFFFFFFFFFF00000000000072
:101286000000FFFFFFFFFFFF00000000040404044E
:10129600000000FFFFFFFF00000004040404040434
:1012A60004040000FFFFFF00000404040000000027
:1012B6000404040000FFFF00000404040000FF0013
:1012C6000000000000FFFF0000000404040400000A
:1012D6000000FFFFFFFFFFFFFF00000404040404FB
:1012E600040000FFFFFFFFFFFFFF000000000404F3
:1012F60004040000FFFFFF0000000000FFFF0000E5
:101306000404040000FFFF000004040400000000C1
:101316000404040000FFFF000000040404040404A5
:1013260004040000FFFFFFFFFF00000004040404A4
:10133600000000FFFFFFFFFFFFFFFF0000000000AF
:101346000000FFFFFFFF101004040FFFFFFFFFFF69
:10135600FFFF0404FFFFFFFF040404FFFFFFFFFF7E
:10136600FFFF0404FFFFFFFF0404040FFFFFFFFF5E
:10137600FFFF0404FFFFFFFF040404040FFFFFFF49
:10138600FFFF0404FFFFFFFF0404FF0404FFFFFF49
:10139600FFFF0404FFFFFF040404FF04040FFFFF24
:1013A600FFFF0404FFFFFF040404FFFF0404FFFF24
:1013B600FFFF0404FFFFFF040404FFFF04040FFF04
:1013C600FFFF0404FFFFFF040404FFFFFF04040FF4
:1013D600FFFF0404FFFFFF040404FFFFFFFF0404F4
:1013E600FFFF0404FFFFFF040404FFFFFFFF0404E4
:1013F6000FFF0404FFFFFF040404FFFFFFFFFF04C9
:1014060004FF0404FFFFFF040404FFFFFFFFFFFFC8
:1014160004040404FFFFFFFF0404FFFFFFFFFFFFB8
:1014260004040404FFFFFFFF0404FFFFFFFFFFFFA8
:10143600FF040404FFFFFFFF0404FFFFFFFFFFFF9D
:10144600FF040404FFFFFFFF1010FFFFFF04040466
:101456000404040FFFFFFFFFFFFFFFFF0404040463
:1014660004040404040FFFFFFFFFFF040404FFFF4E
:10147600FFFFFF0404040FFFFFFF04040FFFFFFF3D
:10148600FFFFFFFF040404FFFFFF0404FFFFFFFF4D
:10149600FFFFFFFFFF04040FFFFF040FFFFFFFFF27
:1014A600FFFFFFFFFF040404FFFF04FFFFFFFFFF32
:1014B600FFFFFFFFFFFF0404FFFF04FFFFFFFFFF27
:1014C600FFFFFFFFFFFF0404FFFF04FFFFFFFFFF17
:1014D600FFFFFFFFFFFF0404FFFF04FFFFFFFFFF07
:1014E600FFFFFFFFFFFF0404FFFF040FFFFFFFFFE7
:1014F600FFFFFFFFFF040404FFFF0404FFFFFFFFDD
:10150600FFFFFFFFFF04040FFFFF04040FFFFFFFB1
:10151600FFFFFFFF040404FFFFFFFF040404FFFFB7
:10152600FFFFFF0404040FFFFFFFFFFF0404040492
:1015360004040404040FFFFFFFFFFFFFFFFF040482
:101546000404040FFFFFFFFFFFFF1010FFFFFFFF64
:10155600FF04040FFFFFFFFFFFFFFFFFFFFFFFFF7B
:10156600FF040404FFFFFFFFFFFFFFFFFFFFFFFF76
:10157600FFFF0404FFFFFFFFFFFFFFFFFFFFFFFF6B
:10158600FFFF04040FFFFFFFFFFFFFFFFFFFFFFF4B
:10159600FFFFFF0404FFFFFFFFFFFFFFFFFFFFFF4B
:1015A600FFFFFF04040FFFFFFFFFFFFFFFFFFFFF2B
:1015B600FFFFFF040404FFFFFFFFFF04FFFFFFFF21
:1015C600FFFFFFFF0404FFFFFFFFFF04FFFFFFFF16
:1015D600FFFFFFFF04040FFFFFFFFF04FFFFFFFFF6
:1015E600FFFFFFFF040404FFFFFF0404FFFFFFFFEC
:1015F600FFFFFFFFFF04040FFFFF0404FFFFFFFFD1
:10160600FFFFFFFFFF04040FFFFF0404FFFFFFFFC0
:10161600FFFFFFFFFFFF0404FF04040FFFFFFFFFB0
:10162600FFFFFFFFFFFF04040F0404FFFFFFFFFFA0
:10163600FFFFFFFFFFFF0404040404FFFFFFFFFF9B
:10164600FFFFFFFFFFFFFF0404040FFF1010FFFF63
:101656000404FFFF04040FFFFFFF04040404FF0457
:101666000404FFFF04040FFFFFFF04040404FF0447
:10167600040FFFFF04040FFFFFFF04040FFFFF0426
:1016860004FFFFFF04040FFFFFFF04040FFF040421
:101696000FFFFFFF04040FFFFFFF04040FFF040406
:1016A6000FFFFFFF04040FFFFFFF04040FFF0404F6
:1016B600FFFFFFFF04040FFFFFFF04040FFF040FEB
:1016C600FFFFFFFF04040FFFFFFF04040FFF04FFEB
:1016D600FFFFFFFF04040FFFFFFF04040FFF04FFDB
:1016E600FFFFFFFF04040FFFFFFF04040FFF0FFFC0
:1016F600FFFFFFFF04040FFFFFFF04040FFFFFFFC0
:10170600FFFFFFFF04040FFFFFFF04040FFFFFFFAF
:10171600FFFFFFFF04040FFFFFFF04040FFFFFFF9F
:10172600FFFFFFFF04040FFFFFFF04040FFFFFFF8F
:10173600FFFFFFFF04040FFFFFFF04040404FFFF85
:10174600FFFFFFFF04040FFFFFFF04040404101053
:1017560004040404040FFFFFFFFFFFFF0404040456
:1017660004040404040404FFFFFFFFFF040404044C
:10177600FFFFFFFFFF040404FFFFFFFF04040FFF4A
:10178600FFFFFFFFFFFF04040FFFFFFF04040FFF2F
:10179600FFFFFFFFFFFF040404FFFFFF04040FFF2A
:1017A600FFFFFFFFFFFFFF0404FFFFFF04040FFF1F
:1017B600FFFFFFFFFFFFFF04040FFFFF04040FFFFF
:1017C600FFFFFFFFFFFFFF04040FFFFF04040404F5
:1017D600FFFFFFFFFFFFFF04040FFFFF04040404E5
:1017E600FFFFFFFFFFFFFF04040FFFFF04040FFFCF
:1017F600FFFFFFFFFFFFFF0404FFFFFF04040FFFCF
:10180600FFFFFFFFFFFF040404FFFFFF04040FFFB9
:10181600FFFFFFFFFFFF04040FFFFFFF04040FFF9E
:10182600FFFFFFFFFF040404FFFFFFFF04040FFF99
:1018360004040404040404FFFFFFFFFF040404047B
:1018460004040404040FFFFFFFFFFFFF0404040465
:10185600101004040404040404040FFFFFFFFFFF38
:10186600FF0404040404040404040FFFFFFFFF0440
:101876000404FFFFFFFFFFFFFFFFFFFFFFFF04045E
:10188600040FFFFFFFFFFFFFFFFFFFFFFF0404043E
:10189600FFFFFFFFFFFFFFFFFFFFFFFFFF04040F38
:1018A600FFFFFFFFFFFFFFFFFFFFFFFFFF0404FF38
:1018B600FFFFFFFFFFFFFFFFFFFFFFFF04040FFF18
:1018C600FFFF040404040404040FFFFF04040FFFD5
:1018D600FFFF040404040404040FFFFF04040FFFC5
:1018E600FFFFFFFFFFFFFFFFFFFFFFFF04040FFFE8
:1018F600FFFFFFFFFFFFFFFFFFFFFFFFFF0404FFE8
:10190600FFFFFFFFFFFFFFFFFFFFFFFFFF04040FC7
:10191600FFFFFFFFFFFFFFFFFFFFFFFFFF040404C2
:10192600FFFFFFFFFFFFFFFFFFFFFFFFFFFF0404B7
:10193600040F04040404040404040FFFFFFFFF045F
:10194600040404040404040404040FFFFFFFFFFF5F
:10195600FF0410100404040404FFFFFFFFFFFFFF51
:10196600FFFFFFFF0404040404040FFFFFFFFFFF53
:10197600FFFFFFFFFFFFFFFF0404040FFFFFFFFF52
:10198600FFFFFFFFFFFFFFFFFFFF04040FFFFFFF47
:10199600FFFFFFFFFFFFFFFFFFFF040404FFFFFF42
:1019A600FFFFFFFFFFFFFFFFFFFFFF04040FFFFF27
:1019B600FFFFFFFFFFFFFFFFFFFFFF04040FFFFF17
:1019C600FFFFFFFFFFFFFFFFFFFFFF04040FFFFF07
:1019D600FFFFFFFFFFFFFFFFFFFFFF04040FFFFFF7
:1019E600FFFFFFFFFFFFFFFFFFFFFF04040FFFFFE7
:1019F600FFFFFFFFFFFFFFFFFFFFFF04040FFFFFD7
:101A0600FFFFFFFFFFFFFFFFFFFF040404FFFFFFD1
:101A1600FFFFFFFFFFFFFFFFFFFF04040FFFFFFFB6
:101A2600FFFFFFFFFFFFFFFF04040404FFFFFFFFAC
:101A3600FFFFFFFF0404040404040FFFFFFFFFFF82
:101A4600FFFFFFFF0404040404FFFFFFFFFFFFFF87
:101A5600FFFFFFFF1010FFFFFFFFFF040404040455
:101A6600040FFFFFFFFFFFFFFFFF0404040404044D
:101A7600040404FFFFFFFFFFFF040404FFFFFFFF52
:101A8600FF040404FFFFFFFF040404FFFFFFFFFF42
:101A9600FFFF04040FFFFFFF04040FFFFFFFFFFF1C
:101AA600FFFF04040FFFFFFFFF0404FFFFFFFFFF1C
:101AB600FFFFFFFFFFFFFFFFFF0404040404FFFF17
:101AC600FFFFFFFFFFFFFFFFFFFF04040404040402
:101AD6000404FFFFFFFFFFFFFFFFFFFFFF040404F7
:101AE6000404040FFFFFFFFFFFFFFFFFFFFFFFFFE1
:101AF600FF0404040FFFFF04040FFFFFFFFFFFFFB7
:101B0600FFFF04040FFFFFFF0404FFFFFFFFFFFFBB
:101B1600FFFF04040FFFFFFF04040FFFFFFFFFFF9B
:101B2600FFFF04040FFFFFFF04040404FFFFFFFF91
:101B3600FF040404FFFFFFFFFF040404040404047D
:101B4600040404FFFFFFFFFFFFFFFF040404040477
:101B5600040FFFFFFFFF1010FF04040FFFFFFFFF3E
:101B6600FFFFFF0404040404FF04040FFFFFFFFF4C
:101B7600FF04040404040404FF04040FFFFFFFFF32
:101B860004040404FFFFFFFFFF04040FFFFFFFFF31
:101B960004040FFFFFFFFFFFFF04040FFFFFFF0416
:101BA600040FFFFFFFFFFFFFFF04040FFFFFFF040B
:101BB60004FFFFFFFFFFFFFFFF04040FFFFFFF040B
:101BC60004FFFFFFFFFFFFFFFF04040FFFFF0404F6
:101BD60004FFFFFFFFFFFFFFFF04040FFFFF0404E6
:101BE6000FFFFFFFFFFF0404FF04040FFFFFFF04C6
:101BF60004FFFFFFFFFF0404FF04040FFFFFFF04C1
:101C060004FFFFFFFFFFFFFFFF04040FFFFFFF04BA
:101C1600040FFFFFFFFFFFFFFF04040FFFFFFFFF9F
:101C260004040FFFFFFFFFFFFF04040FFFFFFFFF8A
:101C360004040404FFFFFFFFFF04040FFFFFFFFF80
:101C4600FF04040404040404FF04040FFFFFFFFF61
:101C5600FFFFFFFF0404040410100404FFFFFFFF4E
:101C6600FFFFFF04040FFFFFFFFF0404040FFFFF45
:101C7600FFFFFF040404FFFFFFFFFF0404040FFF40
:101C8600FFFFFF0404040FFFFFFFFFFFFF0404FF35
:101C9600FFFFFF04040404FFFFFFFFFFFF04040F20
:101CA600FFFFFF040404040FFFFFFFFFFFFFFFFF1A
:101CB600FFFFFF0404FF04040FFFFFFFFFFFFFFF0A
:101CC600FFFFFF0404FFFF0404FFFFFFFFFFFFFF0A
:101CD600FFFFFF0404FFFF04040F040404040404CC
:101CE600FFFFFF0404FFFFFF0404040404040404CC
:101CF600FFFFFF0404FFFFFF0404FFFFFF040404CB
:101D0600FFFFFF0404FFFFFFFF04FFFFFF040404BF
:101D1600FFFFFF0404FFFFFFFFFFFFFFFF040404B4
:101D2600FFFFFF0404FFFFFFFFFFFFFF040404049F
:101D3600FFFFFF0404FFFFFFFFFF040404040FFF7F
:101D4600FFFFFF0404FFFFFFFFFF0404FFFFFFFF89
:101D5600FFFFFF0404FFFFFFFFFF1010FFFFFF045C
:101D660004FFFFFFFFFFFFFFFF040404FFFFFF0464
:101D760004FFFFFFFFFFFFFF04040404FFFFFF044F
:101D860004FFFFFFFFFFFFFF04040404FFFFFF043F
:101D960004FFFFFFFFFFFF040404FF04FFFFFF042F
:101DA60004FFFFFFFFFFFF04040FFF04FFFFFF0414
:101DB60004FFFFFFFFFFFF0404FFFFFFFFFFFF0419
:101DC60004FFFFFFFFFF04040FFFFFFFFFFFFF04F9
:101DD60004FFFFFFFFFF04040FFFFFFFFFFFFF04E9
:101DE60004FFFFFFFF040404FFFFFFFF0FFFFF04D4
:101DF60004FFFFFFFF04040404040404040FFF04AB
:101E060004FFFFFFFF040404040404040404FF04A5
:101E160004FFFFFF04040FFFFFFFFFFF04040F048E
:101E260004FFFFFF0404FFFFFFFFFFFFFF0404049E
:101E360004FFFF040404FFFFFFFFFFFFFFFF04048E
:101E460004FFFF04040FFFFFFFFFFFFFFFFF040473
:101E560004FFFF0404FFFFFFFFFFFFFF1010FFFF5B
:101E6600FFFFFFFFFFFF0404FFFFFFFFFFFF0FFF62
:101E7600FFFFFFFFFFFF0404FFFFFFFFFFFF0FFF52
:101E8600FFFFFFFFFFFF0404FFFFFFFFFFFF04FF4D
:101E9600FFFFFFFFFFFF0404FFFFFFFFFFFF040F2D
:101EA600FFFFFFFFFFFF0404FFFFFFFFFFFF040428
:101EB600FFFFFFFFFFFF0404FFFFFFFFFFFF040418
:101EC6000FFFFFFFFFFF0404FFFFFFFFFFFF0404F8
:101ED6000FFFFFFFFFFF0404FFFFFFFFFFFFFF04ED
:101EE60004FFFFFFFFFF0404FFFFFFFFFFFF0404E3
:101EF600040FFFFFFFFF0404FFFFFFFFFFFF0404C3
:101F06000404FFFFFFFF0404FFFFFFFFFFFFFFFFC7
:101F160004040FFFFFFF0404FFFFFFFFFFFFFFFFA7
:101F260004040FFFFFFF0404FFFFFFFFFFFFFFFF97
:101F3600FF0404FFFFFF0404FFFFFFFFFFFFFFFF97
:101F4600FF04040FFFFF0404040404040404FFFF59
:101F5600FFFF0404FFFF0404040404040404101037
:101F6600FFFFFFFFFF000000000000FFFFFFFFFF75
:101F7600FFFFFF00000002020202000000FFFFFF59
:101F8600FFFF000002020202020202020000FFFF3F
:101F9600FF0000020202000000000002020000FF33
:101FA600FF0002020200FFFFFFFF0000020200FF27
:101FB600FF00020202020000FFFFFF00000000FF18
:101FC600FF000002020202020000FFFFFFFFFFFF08
:101FD600FFFF0000000002020202000000FFFFFFF8
:101FE600FFFFFFFFFF00000002020202020000FFE7
:101FF600FFFFFFFFFFFFFF0000000202020200FFDB
:10200600FF00000000FFFFFFFF000000020200FFCC
:10201600FF0002020000FFFFFFFF0000020200FFB8
:10202600FF0000020200000000000002020000FFA4
:10203600FFFF000002020202020202020000FFFF8E
:10204600FFFFFF00000002020202020000FFFFFF86
:10205600FFFFFFFFFF00000000000000FFFFFFFF83
:10206600101000000000000000000000000000004A
:10207600000000010101010101010101010101014D
:10208600010000010101010101010101010101013C
:10209600010000010101010101010101010101012C
:1020A6000100000000000000010101010000000025
:1020B6000000FFFFFFFFFF000101010100FFFFFF1E
:1020C600FFFFFFFFFFFFFF000101010100FFFFFF10
:1020D600FFFFFFFFFFFFFF000101010100FFFFFF00
:1020E600FFFFFFFFFFFFFF000101010100FFFFFFF0
:1020F600FFFFFFFFFFFFFF000101010100FFFFFFE0
:10210600FFFFFFFFFFFFFF000101010100FFFFFFCF
:10211600FFFFFFFFFFFFFF000101010100FFFFFFBF
:10212600FFFFFFFFFFFFFF000101010100FFFFFFAF
:10213600FFFFFFFFFFFFFF000101010100FFFFFF9F
:10214600FFFFFFFFFFFFFF000101010100FFFFFF8F
:10215600FFFFFFFFFFFFFF000000000000FFFFFF83
:10216600FFFF1010FFFFFFFFFFFFFFFFFFFFFFFF57
:10217600FFFFFFFFFFFFFFFFFFFFFFFFFFFFFFFF69
:10218600FFFFFFFFFFFFFFFFFFFFFFFFFFFFFFFF59
:10219600FFFFFFFFFFFFFFFFFFFFFFFFFFFFFFFF49
:1021A600FFFFFFFFFFFFFFFFFFFFFFFFFFFFFFFF39
:1021B600FFFFFFFFFFFFFFFFFFFFFFFFFFFFFFFF29
:1021C600FFFFFFFFFFFFFFFFFFFFFFFFFFFFFFFF19
:1021D600FFFFFFFFFFFFFFFFFFFFFFFFFFFFFFFF09
:1021E600FFFFFFFF1010FFFFFFFFFFFFFFFFFFFFD7
:1021F600FFFFFFFFFFFFFFFFFFFFFFFFFFFFFFFFE9
:10220600FFFFFFFFFFFFFFFFFFFFFFFFFFFFFFFFD8
:10221600FFFFFFFFFFFFFFFFFFFFFFFFFFFFFFFFC8
:10222600FFFFFFFFFFFFFFFFFFFFFFFFFFFFFFFFB8
:10223600FFFFFFFFFFFFFFFFFFFFFFFFFFFFFFFFA8
:10224600FFFFFFFFFFFFFFFFFFFFFFFFFFFFFFFF98
:10225600FFFFFFFFFFFFFFFFFFFFFFFFFFFFFFFF88
:10226600FFFFFFFFFFFF1010FFFFFFFFFFFFFFFF56
:10227600FFFFFFFFFFFFFFFFFFFFFFFFFFFFFFFF68
:10228600FFFFFFFFFFFFFFFFFFFFFFFFFFFFFFFF58
:10229600FFFFFFFFFFFFFFFFFFFFFFFFFFFFFFFF48
:1022A600FFFFFFFFFFFFFFFFFFFFFFFFFFFFFFFF38
:1022B600FFFFFFFFFFFFFFFFFFFFFFFFFFFFFFFF28
:1022C600FFFFFFFFFFFFFFFFFFFFFFFFFFFFFFFF18
:1022D600FFFFFFFFFFFFFFFFFFFFFFFFFFFFFFFF08
:1022E600FFFFFFFFFFFFFFFF1010FFFFFFFFFFFFD6
:1022F600FFFFFFFFFFFFFFFFFFFFFFFFFFFFFFFFE8
:10230600FFFFFFFFFFFFFFFFFFFFFFFFFFFFFFFFD7
:10231600FFFFFFFFFFFFFFFFFFFFFFFFFFFFFFFFC7
:10232600FFFFFFFFFFFFFFFFFFFFFFFFFFFFFFFFB7
:10233600FFFFFFFFFFFFFFFFFFFFFFFFFFFFFFFFA7
:10234600FFFFFFFFFFFFFFFFFFFFFFFFFFFFFFFF97
:10235600FFFFFFFFFFFFFFFFFFFFFFFFFFFFFFFF87
:10236600FFFFFFFFFFFFFFFFFFFF1010FFFFFFFF55
:10237600FFFFFFFFFFFFFFFFFFFFFFFFFFFFFFFF67
:10238600FFFFFFFFFFFFFFFFFFFFFFFFFFFFFFFF57
:10239600FFFFFFFFFFFFFFFFFFFFFFFFFFFFFFFF47
:1023A600FFFFFFFFFFFFFFFFFFFFFFFFFFFFFFFF37
:1023B600FFFFFFFFFFFFFFFFFFFFFFFFFFFFFFFF27
:1023C600FFFFFFFFFFFFFFFFFFFFFFFFFFFFFFFF17
:1023D600FFFFFFFFFFFFFFFFFFFFFFFFFFFFFFFF07
:1023E600FFFFFFFFFFFFFFFFFFFFFFFF1010FFFFD5
:1023F600FF0000FFFFFFFFFFF000000FFFFFFFFFE2
:1024060000222200FFFFFFFF00222200FFFFFFF055
:10241600022002200FFFFFF0022002200FFFFF0024
:102426002200002200FFFF00220FF02200FFF00230
:10243600200FF002200FF00220000002200F0022E1
:1024460022222222220000222222222222000022EE
:10245600000000002200002200FFFF0022000022F0
:1024660000FFFF002200000000FFFF000000101028
:1024760000000000000000FF022222222222000F9C
:102486000222222222222000000220000022220014
:10249600F00220FFF0022200F00220FFF0022200EC
:1024A600F00220000022200FF0022222222200FF4A
:1024B600F0022222222200FFF00220000022200F3A
:1024C600F00220FFF0022200F00220FFF0022200BC
:1024D60000022000002222000222222222222000C4
:1024E600022222222222000F00000000000000FF2C
:1024F60010101010101010101010101010101010D6
:062506001010101010106F
:10974A001233C5FF90018FE02F9000CEF0229000D7
:10975A00ADE0FBA3E0FAA3E0F922F09000ADE0FB54
:10976A00A3E475F00112342CA9F0FA0233AC90008C
:10977A00A4E0FF3395E0FED3EF9400EE648094807A
:01978A0022BC
:06A05600E490018FF022EE
:0B71C7009000A5EFF0A3ECF0A3EDF0AA
:1071D2009000A5E0FF25E0F0E02408F09000ACF07C
:1071E2009000A6E0FEA3E07803C333CE33CED8F9F5
:1071F200F0EE9000A6F0A3E02408F09000A6E034A0
:1072020000F0AF037E007C017D0212340474262F4D
:10721200F974003EFA9000AD74FFF0A3EAF0A3E91E
:107222001297649000A81297649000A9F0E4A3F06A
:107232009000A8E0FF9000AAE0C39F400302730EF3
:10724200E4A3F09000A9E0FF9000ABE0C39F4003ED
:107252000272EF1297581233AC12974DE4FB7D0283
:10726200FF129E2D12975890000112974A7B01122D
:10727200733890000212974A7B021273389000030F
:1072820012974A7B0312734B9000CE7480F07B04FA
:1072920012734B9000AEE475F0041234169000ACF9
:1072A200E09000CEF07B05127353A3E09000CEF085
:1072B2007B07127353E07E007802C333CE33CED8FD
:1072C200F912730F12735E20E7FA9000A6E025E030
:1072D20025E0440812730F12735E20E7FA9000ACA7
:1072E200E004F09000ABE02404F00272459000A5A7
:1072F200E09000ACF09000A7E004F070069000A6C9
:0C730200E004F09000AAE004F0027232F7
:10730E00229000CEF07B097D02E4FF129E2D7B0AB7
:10731E007D02E4FF129DA2EF543F44809000CEF018
:10732E007B0A7D02E4FF129E2D227D02E4FF129E57
:10733E002D9000ADE0FBA3E0FAA3E0F9227D02E47C
:10734E00FF129E2D227D02E4FF129E2D9000A6229A
:0B735E007B0A7D02E4FF129DA2EF22DB
:0B904A0090009EEFF0A3EDF0A3EBF010
:10905500A312975B12000E9000A4EFF03395E0C3C6
:1090650064809480404590009EE054016401703313
:1090750090009FE0FFA3E0FD7C00A312975B1233F5
:10908500ACFB1271C79000A4E014F09000A2E47547
:10909500F00112341690009FE02402F012977850E8
:0B90A500CF800512977850FB12A06AE4
:0190B000229D
:109D7D000500000600000700000800000900000AA9
:109D8D0000001F000020000B000C000D000E000F46
:059D9D0010111212007C
:038D480001210006
:10860B0090016AE075F003A4247DF9749D35F0FAAE
:10861B009000A174FFF0A32290009BE0FBA3E0FA73
:10862B00A3E0F922900166E0FD7C007B0122749DA2
:10863B00F07489A3F0900166E0FB229000011233E5
:10864B00C554026402229000011233C55401640127
:10865B00229000011233C55410641022749DF0A3B4
:10866B007489F022749DF0A3749A221233AC5402D5
:10867B006402221233AC54016401221233AC541045
:10868B006410221233AC540C1313543FF527227B86
:10869B00017D0F7C00227B017D127C0022EAF0A37E
:1086AB00E9F07B0F22EAF0A3E9F07B12229001663E
:1086BB00E0FD7C007B02E422EAF0A3E9F07B0122DF
:1086CB00EBF0A3EAF0A3E9F022749DF0A3749222DD
:1086DB00EAF0A3E9F0E4FB229000010233C57B0131
:0586EB007A01796F2205
:10933200127D5F12A0567F0412A0617F0312A06407
:10934200E4F527C3E5279406748094805009AF277B
:1093520012936E052780EC7F01129A0D7FFF12A0F7
:0B936200647F0812936EE4900167F036
:10936D0022129E4E90009FE4F0A37426F07B5AE4E7
:07937D00FDFCFF12894222F2
:1050B40090009B1286CB7F0212A0617FFF12A06436
:1050C400900169E01236C850F911510D2151322274
:1050D40051573151933351CC34520541525C915262
:1050E4006FA1529DA252C4B1530DB35348B453801F
:1050F400C1000053DC12862312867660030253DC5F
:1051040012860B1286DB0252981286231286767060
:105114000612860B12543712862312864660030247
:1051240053DC90016B12860E1286A80252981286E6
:1051340023128676700612860B1253DD1286231212
:10514400864660030253DC90016B12860E1286DBE6
:105154000252BF128623128676700612860B1254F0
:1051640037128623128646700C90016B12860E123B
:1051740086A81254461286239000021286496003C0
:105184000253DC90016C12860E1286A80252BF12E2
:105194008623128676700612860B1253DD1286233E
:1051A400128646700990016B12860E1254281286DC
:1051B4002390000212864960030253DC90016C12B2
:1051C400860E1286A80252BF1286231286767006B5
:1051D40012860B1253FB1286231286467009900125
:1051E4006B12860E125428128623900002128649EE
:1051F40060030253DC90016C12860E1286A80253DF
:105204007B128623128676700612860B1253FB12CB
:105214008623128646701090016B12860E1286DB6E
:105224007D3E7F0112904A12862390000212864925
:10523400700C90016C12860E1286A81254461286C7
:105244002390000312864960030253DC90016D121F
:10525400860E1286A80252BF128623128676600337
:105264000253DC12860B1286C3802912862312860F
:1052740076700D12860B1286C37D297F0112904A27
:1052840012862312864660030253DC90016B128659
:105294000E1286B07D290253D712862312867670A9
:1052A4000612860B1253EC12862312864660030202
:1052B40053DC90016B12860E1286C37D3E0253D7D7
:1052C400128623128676700D12860B1286C37D29F0
:1052D4007F0112904A128623128646701090016B49
:1052E40012860E1286B07D147F0112904A12862314
:1052F40090000212864960030253DC90016C12860E
:105304000E1286B07D3E0253D71286231286767023
:105314000612860B1253EC128623128646700990ED
:10532400016B12860E12540A128623900002128612
:105334004960030253DC90016C12860E1286B07D24
:105344003E0253D7128623128676700612860B12FB
:105354005419128623128646700990016B12860E28
:1053640012540A128623900002128649706A900130
:105374006C12860E1286B07D140253D71286231245
:105384008676700612860B125419128623128646EC
:10539400701090016B12860E1286C37D3E7F01123F
:1053A400904A128623900002128649701090016C74
:1053B40012860E1286B07D147F0112904A12862343
:1053C400900003128649701090016D12860E1286A9
:1053D400B07D3E7F0112904A22EAF0A3E9F0E4FB9B
:1053E4007D147F0112904A22EAF0A3E9F07B017D4B
:1053F400147F0112904A22EAF0A3E9F0E4FB7D1441
:105404007F0112904A22EAF0A3E9F07B017D3E7FFE
:105414000112904A22EAF0A3E9F07B017D147F0196
:1054240012904A22EAF0A3E9F0E4FB7D3E7F0112E8
:10543400904A22EAF0A3E9F0E4FB7D297F0112906F
:0A5444004A227D147F0112904A22D3
:08A04600900168E04480F02263
:1098F7007B787D01E4FF129DA2EF540FFF90017763
:10990700F0900168E06F6021D2237B31E4FDFF1204
:109917009DA2EF547F9000CEF07B31E4FDFF129EB5
:0A9927002D900177E0900168F02216
:0667490090009B1286CBBC
:10674F007F4112A061900169E01236C8678311671B
:10675F00AF2168132268823168DF3369363467836B
:10676F009167AFA16813A26882B168DFB36936B4CD
:10677F000000699490009B12862612868E60030299
:10678F00688D12862F1269EE1286261233AC30E511
:10679F00030268BD900167E060030269940268D745
:1067AF0090009B12862612868E60101269951286B3
:1067BF001AEAF0E912863E7D1C801D12862F12699F
:1067CF00E51286261233AC30E5151269B312861B1B
:1067DF001286D412863F7D017F0112904A800E905F
:1067EF000167E0700812862F7F0112888C90009B42
:1067FF001286261286E31286919001666003026963
:10680F004702687A90009B12862612868E601112BC
:10681F00699512861AEAF0A3E912863F7D1C801D46
:10682F0012862F1269E51286261233AC30E5151247
:10683F0069B312861B1286D412863F7D017F011227
:10684F00904A800E900167E0700812862F7F011228
:10685F00888C90009B1286261286E3128691600820
:10686F007B02E4FDFC02694A9001661286327F4684
:10687F0002699190009B12862612868E6021126902
:10688F00C2E52725E0FFE433FE74922FF9749D3E95
:10689F0012861AEAF0A3E912863F7D31026981124E
:1068AF00862F1269EE1286261233AC30E51112696B
:1068BF00C212861B1286D412863F7D010269819017
:1068CF000167E0600302699412862F7F01026991CC
:1068DF0090009B12862612868E60151286B812695A
:1068EF00D112861AEAF0A3E912863F7D1C02698154
:1068FF0012862F7F1C12888C90009B1286261233D3
:10690F00AC30E5151286B8FF12888C12861B1286E2
:10691F00D412863F7D01026981900167E070661293
:10692F00862F7F0102699190009B1286261286E3C3
:10693F0012869160179001661286BB1269D112867A
:10694F001AEAF0A3E912863F7D46802612862F7F32
:10695F004612888C90009B1286261233AC30E517B6
:10696F001286B8FF12888C12861B1286D412863FAD
:10697F007D017F0102904A900167E0700812862F17
:05698F007F0112888C5D
:1069940022900166E0FD7C007B02E4FF12888CE516
:1069A4002725E0FFE433FE74922FF9749D3E229074
:1069B4000166E0FD7C007B02E4FF12888C229001DA
:1069C40066E0FD7C007B02E4FF12888C22FF1288C3
:1069D4008CE52725E0FFE433FE74922FF9749D3E85
:1069E400227F1C12888C90009B227F3112888C900D
:0369F400009B22E3
:10398C0090009B1286CB7F0C12A061900169E01213
:10399C0036C839CC1139E9213A18223A4E313A9EBF
:1039AC00333AE7343B39413BB4913BD1A13C0FA2B4
:1039BC003C50B13CB3B33D12B43D78C100003E0263
:1039CC0090009B12862612867E700A12861B128627
:1039DC0067E4023BC97B01E4FDFC023C0A90009BBE
:1039EC0012862612867E700D12861B1286677D2C1F
:1039FC00123E568003123E4190009B128626128680
:103A0C00517003023BFA12869A023C0A90009B12F8
:103A1C00862612867E700B12861B128667123E0358
:103A2C008003123E1790009B128626128651700A54
:103A3C0012861B128667E4023C427B01E4FDFC0209
:103A4C003C4B90009B12862612867E700D12861BB4
:103A5C00128667E4FB123E718003123E4190009B7C
:103A6C00128626128651700B12861B128667123E26
:103A7C0037800812869A7F1712888C90009B1286CA
:103A8C00269000021286547003023BA312869A02FF
:103A9C003C4B90009B12862612867E700B12861B66
:103AAC00128667123E038003123E1790009B12860B
:103ABC0026128651700B12861B128667123E2D80C1
:103ACC0003123E2290009B1286269000021286540E
:103ADC007003023BA312869A023C4B90009B128609
:103AEC002612867E700B12861B128667123E0D8084
:103AFC0003123E5E90009B128626128651700B12AA
:103B0C00861B128667123E2D8003123E2290009B6C
:103B1C00128626900002128654700B12861B128697
:103B2C00677B0F023D687B017D0F023D7190009B0E
:103B3C0012862612867E700B12861B128667123E28
:103B4C000D8003123E5E90009B12862612865170E9
:103B5C000D12861B1286677D41123E56800A7B0130
:103B6C00E4FDFC7F4112888C90009B12862690000D
:103B7C0002128654700B12861B128667123E378017
:103B8C000812869A7F1712888C90009B12862690BA
:103B9C000003128654700B12861B1286677B0F0271
:103BAC003C4312869A023C4B90009B12862612864E
:103BBC007E700D12861B128667900166E0FB8036C4
:103BCC0012862F803990009B12862612867E700BEF
:103BDC0012861B128639123E71800812862F7F2C9A
:103BEC0012888C90009B128626128651700D1286BC
:103BFC001B1286677B0F7D2C023DF512869A7F2C5B
:103C0C00023DFF90009B12862612867E700B128658
:103C1C001B128639123E69800812862F7F17128874
:103C2C008C90009B128626128651701012861B12E5
:103C3C008667900166E0FB7D41023DF512862F7F81
:103C4C0041023DFF90009B12862612867E700F1259
:103C5C00861B1286397D2C7F0112904A80081286B1
:103C6C002F7F2C12888C90009B1286261286517006
:103C7C000B12861B128667123E4C80081286A17F9F
:103C8C001712888C90009B12862690000212865484
:103C9C00700D12861B1286677B127D41023DF51258
:103CAC0086A17F41023DFF90009B12862612867EE4
:103CBC00700B12861B128639123E69800812862FF1
:103CCC007F1712888C90009B128626128651700BDF
:103CDC0012861B128639123E79800812862F7F417C
:103CEC0012888C90009B12862690000212865470CB
:103CFC000D12861B1286677B127D41023DF51286E2
:103D0C00A17F41023DFF90009B12862612867E7099
:103D1C000F12861B1286397D177F0112904A80087C
:103D2C0012862F7F1712888C90009B128626128683
:103D3C0051700B12861B128639123E79800812863E
:103D4C002F7F4112888C90009B12862690000212C5
:103D5C008654700D12861B1286677B127D17023DEE
:103D6C00F57B017D127C007F17023DFF90009B12BA
:103D7C00862612867E700F12861B1286397D177F5F
:103D8C000112904A800812862F7F1712888C90009F
:103D9C009B128626128651700F12861B1286397D55
:103DAC00417F0112904A800812862F7F4112888C25
:103DBC0090009B128626900002128654700B12867D
:103DCC001B128667123E4C80081286A17F17128840
:103DDC008C90009B128626900003128654700F1252
:103DEC00861B1286677B127D417F0102904A1286E8
:103DFC00A17F4112888C22E4FB7D177F0112904A2F
:103E0C0022E4FB7D177F0112904A227B01E4FDFC2A
:103E1C007F1712888C227B01E4FDFC7F4112888C79
:103E2C0022E4FB7D417F0112904A227B0F7D177F9C
:103E3C000112904A227B01E4FDFC7F2C12888C221B
:103E4C007B127D177F0112904A22E4FB7F011290B6
:103E5C004A227B01E4FDFC7F1712888C227D177FA0
:103E6C000112904A227D2C7F0112904A227D417FC3
:053E7C000112904A2232
:103E810090009B1286CB7F0212A061900169E01223
:103E910036C83EBE113ED3213F08223F3C313F8A06
:103EA100333FD03440234140969140BAA240FFB104
:103EB1004166B341D0B44235C1000042C690009B77
:103EC1001286261286867002802C7B01E4FDFC029C
:103ED10040B590009B128626128686700B12861BB7
:103EE10012866F124343800312430F90009B128688
:103EF10026128686700B12861B12866FF0E4024032
:103F0100AC12869A0240B590009B128626128686D4
:103F1100700812861B1242C780031242E390009B75
:103F210012862612865C700B12861B12866FF0E4D5
:103F31000240F17B01E4FDFC0240FA90009B1286F5
:103F410026128686700B12861B12866F12434380DF
:103F51000312430F90009B12862612865C700B128F
:103F6100861B12866F124304800812869A7F1F12E5
:103F7100888C90009B12862690000212865F700347
:103F810002408412869A0240FA90009B1286261201
:103F91008686700812861B1242C780031242E39084
:103FA100009B12862612865C700B12861B12866F8E
:103FB1001242F980031242EE90009B128626900075
:103FC1000212865F700302408412869A0240FA90C0
:103FD100009B128626128686700B12861B12866F34
:103FE1001242D8800312433090009B12862612861B
:103FF1005C700B12861B12866F1242F9800312420B
:10400100EE90009B12862690000212865F700C12C1
:10401100861B12866FF07B0F0242257B017D0F020A
:10402100422E90009B128626128686700B12861BEA
:1040310012866F1242D8800312433090009B128681
:104041002612865C700B12861B12866F12431A8031
:104051000312434E90009B12862690000212865F47
:10406100700B12861B12866F124304800812869A07
:104071007F1F12888C90009B128626900003128667
:104081005F700C12861B12866FF07B0F0240F212DA
:10409100869A0240FA90009B12862612868670113B
:1040A10012861B12866FF0900166E0FB7D3402429E
:1040B100B912862F7F340242C390009B12862612CA
:1040C1008686700E12861B12866F12863F12433B44
:1040D100800812862F7F1F12888C90009B128626E3
:1040E10012865C701112861B12866FF0900166E0D9
:1040F100FB7D490242B912862F7F490242C39000DB
:104101009B128626128686701212861B12866F12E9
:10411100863F7D347F0112904A800812862F7F34BA
:1041210012888C90009B12862612865C700B128678
:104131001B12866F12432580081286A17F1F1288E9
:104141008C90009B12862690000212865F700E12E0
:10415100861B12866FF07B127D490242B91286A13D
:104161007F490242C390009B128626128686700EFA
:1041710012861B12866F12863F12433B80081286FD
:104181002F7F1F12888C90009B12862612865C70EE
:104191001212861B12866F12863F7D497F01129093
:1041A1004A800812862F7F4912888C90009B1286C4
:1041B1002690000212865F700E12861B12866FF027
:1041C1007B127D490242B91286A17F490242C39006
:1041D100009B128626128686701212861B12866F2B
:1041E10012863F7D1F7F0112904A800812862F7F21
:1041F1001F12888C90009B12862612865C700B120F
:10420100861B12866F12431A800312434E90009B45
:1042110012862690000212865F700E12861B12868D
:104221006FF07B127D1F0242B97B017D127C007F02
:104231001F0242C390009B128626128686701212BC
:10424100861B12866F12863F7D1F7F0112904A8066
:104251000812862F7F1F12888C90009B12862612CF
:10426100865C701212861B12866F12863F7D497F13
:104271000112904A800812862F7F4912888C900083
:104281009B12862690000212865F700B12861B120B
:10429100866F12432580081286A17F1F12888C9099
:1042A100009B12862690000312865F701012861BF7
:1042B10012866FF07B127D497F0102904A1286A11E
:1042C1007F4912888C22749DF0A3749AF0E4FB7DDF
:1042D1001F7F0112904A22F0E4FB7D1F7F011290A3
:1042E1004A227B01E4FDFC7F1F12888C227B01E4C2
:1042F100FDFC7F4912888C22F0E4FB7D497F01128D
:10430100904A22F07B0F7D1F7F0112904A227B0190
:10431100E4FDFC7F3412888C22F0E4FB7D497F01AF
:1043210012904A22F07B127D1F7F0112904A227B5C
:1043310001E4FDFC7F1F12888C227D1F7F011290FA
:104341004A22F0E4FB7D347F0112904A227B01E492
:08435100FDFC7F4912888C225B
:10967D00E4FF129E4E900167E024FE6011047029F4
:10968D001296B712861B749DF0A3748C800C1296E3
:10969D00B712861B749DF0A3748F12863F7D017FD8
:1096AD000112904A7FFF12A064227F0312A0647FF3
:0596BD000412A061226F
:109CBB00E4FF129E4E90016FE05402640270121288
:109CCB0086E912398C1286E9123E811286E91267F7
:099CDB004912A046E4FF029A0DB3
:10250C0000000000000000000000000000000000BF
:10251C0000000000000000000000000000000000AF
:10252C00003E007E00FE01CE038E7F8E7F8E738E6A
:10253C00738E738E7F8E7F8E01CE00FE007E003EEA
:10254C0000000000020006000E001E003FFE7FFE91
:10255C007FFE3FFE1E000E00060002000000000081
:10256C000000000000400060007000787FFC7FFEDF
:10257C007FFE7FFC007800700060004000000000CF
:10258C00000003C003C003C003C003C003C003C0EA
:10259C0003C03FFC1FF80FF007E003C001800000F0
:1025AC0003C003C007E007E00E700E701C381C3827
:1025BC00381C381C7FFE7FFE700E700E700E700E75
:1025CC007FF87FFC383E381E381E381E383C3FF8EA
:1025DC003FF8383C381E381E381E383E7FFC7FF8DA
:1025EC000FF81FFC3C1C380E780E700E700070003B
:1025FC0070007000700E700E380E3C1C1FFC0FF833
:10260C007FF07FF07078703C703C703C70787FF09D
:10261C007FE0778073C071E070F07078703C701E52
:10262C0000006006700E781E7C3E7FFE77EE73CE47
:10263C00718E700E700E700E700E700E700E700E1D
:10264C0000001FF81FF800E000E000E000E000E0F0
:10265C0000E000E000E070E079E03FC01F800F0078
:10266C0000000000000003C007800F001E003FFCAC
:10267C003FFC1E000F00078003C00000000000009C
:10268C0000000000000003C001E000F000783FFCF7
:10269C003FFC007800F001E003C0000000000000E7
:1026AC0000000000018001800180018011881998D0
:1026BC001DB81FF80FF007E003C0018000000000F8
:1026CC00003E007E00FE01CE038E7F8E7F8E738EC9
:1026DC00738E738E7F8E7F8E01CE00FE007E003E49
:1026EC00700E700E700E700E700E700E781E381C00
:1026FC00381C1C381C380E700FF007E003C001802A
:10270C000000380038003800380038003800380035
:10271C0038003800380038063806380E3FFE3FFEC9
:10272C000000000000000000000003800FE01C709F
:10273C00183038383838383818301C700FE00380AF
:10274C000000000000000000000003C00FF01C3867
:10275C001C000F0007E000F000381C380FF003C01D
:10276C00000000000000000000000000000000005D
:10277C00000000000000000000000000000000004D
:10278C00000000000000000000000000000000003D
:10279C00000000000000000000000000000000002D
:1027AC00000000000000000000000000000000001D
:1027BC00000000000000000000000000000000000D
:1027CC0000000000000000000000000000000000FD
:1027DC0000000000000000000000000000000000ED
:1027EC0000000000000000000000000000000000DD
:1027FC0000000000000000000000000000000000CD
:10280C0000000000000000000000000000000000BC
:10281C0000000000000000000000000000000000AC
:10282C00000000000000000000000000000000009C
:10283C00000000000000000000000000000000008C
:10284C00000000000000000000000000000000007C
:10285C00000000000000000000000000000000006C
:10286C00000000000000000000000000000000005C
:10287C00000000000000000000000000000000004C
:10288C00000000000000000000000000000000003C
:10289C00000000000000000000000000000000002C
:1028AC00000000000000000000000000000000001C
:1028BC00000000000000000000000000000000000C
:1028CC0000000000000000000000000000000000FC
:1028DC0000000000000000000000000000000000EC
:1028EC0000000000000000000000000000000000DC
:1028FC0000000000000000000000000000000000CC
:10290C0000000000000000000000000000000000BB
:10291C0000000000000000000000000000000000AB
:10292C00000007000F800F800F800F80070007004A
:10293C00070002000200000002000700070002006E
:10294C000000EE006600440088000000000000005B
:10295C00000000000000000000000000000000006B
:10296C00000008200820082008203FF80820082034
:10297C000820082008203FF80820082008200820FC
:10298C0000000FC01B603330333033001B000F00CE
:10299C0003C0036013303B3033301B600FC00300A7
:1029AC000000380844108420044004800900127090
:1029BC00E4880908120822084210822001C0000095
:1029CC0000000E001B00318031801B000E001C002B
:1029DC003678632061A060E0606030F01F9C0000DE
:1029EC0000000000000000000000000000000000DB
:1029FC00000000000000800060007000380018002B
:102A0C0000000004000800180010003000300030F6
:102A1C0000300030003000100018000800040002E4
:102A2C0000008000400060002000300030003000CA
:102A3C0030003000300020006000400080000000BA
:102A4C00000002004210222012400A800700FFFC06
:102A5C0007000A80124022204210020002000000EF
:102A6C0000000000030003000300030003007FF8D4
:102A7C007FF80300030003000300030000000000C4
:102A8C00000000000000000000000000000000003A
:102A9C00000018003C003C00180010002000400012
:102AAC0000000000000000000000000000007FF8A3
:102ABC007FF8000000000000000000000000000093
:102ACC0000000000000000000000000000000000FA
:102ADC00000000000000780084008400840078006E
:102AEC00000000180030006000C0018003000600E8
:102AFC000C00180030006000C000800000000000D6
:102B0C0000000FE0183030183038307830D8319859
:102B1C00331836183C183818301818300FE00000ED
:102B2C000000030007000F00030003000300030074
:102B3C000300030003000300030003001FE0000078
:102B4C0000000FE01830301830183038007001C019
:102B5C0003000E001800300830083FF83FF8000062
:102B6C00000007C0183030183018003000E003C0E7
:102B7C0000E00030001830183018183007C0000082
:102B8C00000000C001C003C006C00CC018C030C09B
:102B9C0060C0C0C0C0C0FFF800C000C003F000009F
:102BAC0000003FF03FF030003000300037C03830CC
:102BBC0030180018001830183018183007C00000F2
:102BCC00000007E01830303030003000300037E0C3
:102BDC003830301830183018301818300FC000004A
:102BEC0000003FF83FF8201820180030006000C0AB
:102BFC000180030003000300030003000300000036
:102C0C0000000780186030303030303018600FC052
:102C1C001860303060186018601830300FC0000039
:102C2C0000000780186030303018301830183038F9
:102C3C00187807980018303038301860078000007A
:102C4C0000000000000000000300078003000000EB
:102C5C0000000300078003000000000000000000DB
:102C6C0000000000000000000300078003000000CB
:102C7C0000000300078003800180070000000000B3
:102C8C0000000000001800600180060018006000C1
:102C9C008000600018000600018000600018000031
:102CAC00000000000000000000007FF87FF800002A
:102CBC0000007FF87FF8000000000000000000001A
:102CCC000000800060001800060001800060001801
:102CDC0000040018006001800600180060008000ED
:102CEC00000007800FC01CE038E038E011C0018004
:102CFC0003000300020002000000020007000700AE
:102D0C0000000FC030604010478888C890C890C839
:102D1C0090C890C888D84770400830700FC0000029
:102D2C00000003000300078007800CC00CC0186073
