:030000000277AADA
:0C77AA00787FE4F6D8FD7581350277F198
:10876B00D2BCD2AC758DF4D28EE47850F208F222E2
:0F877B007850E2FF08E2B507037F00227F01225A
:10865300C2AC7850E22400F8E2FF7850E204F2E280
:09866300C394504002E4F2D2ACD1
:01866C0022EB
:080003003099FD8F99C299228A
:0300230002855FF4
:10855F00C0E0C0D075D008309818C2987851E22486
:10856F0000F8E599F27851E204F2E2C39450400228
:07857F00E4F2D0D0D0E0329D
:1084E70078ABE2FB08E2FA08E2F9227590F6D2B619
:1084F700D2B77580FFD2AF22AF038F80D293C293DA
:0885070022C2AF7590F6ED22CF
:10843C001285087006C2B7C2B68012EDB40106C22E
:10844C00B7D2B68008EDB40204D2B7C2B61284FF1C
:0D845C0078D7E2F580C291D2911284F2220D
:107E0300AE031285087006C2B7C2B68012EDB40184
:107E130006C2B7D2B68008EDB40204D2B7C2B6AF79
:107E2300060E12850178A9E2FB0808E2F92401F2A3
:107E330018E2FA3400F212404EF580C291D29178E2
:0A7E4300ACE214F270D91284F222AE
:10830C001285087006C2B7C2B68012EDB40106C25F
:10831C00B7D2B68008EDB40204D2B7C2B61284FF4D
:10832C007580FFC292AF80D2927590F6D2B6D2B75A
:02833C00D2AFBE
:01833E00221C
:107C140078ABEBF208EAF208E9F21284E71240B812
:107C2400F47003E5F0F4603E1284E71240B8FBAA56
:107C3400F0EAFDE4FF12830C1284E7900002124084
:107C440067FC6F60141284E71240B8FBAAF0EAFDE7
:107C540078D7ECF2E4FF12843C78ADE22403F21806
:077C6400E23400F280B422BB
:018804002251
:105584002562782025627820256278000A3C523E04
:1055940025303262785B25303262785D3D253032C9
:1055A40062780025627820256278002562782025BB
:1055B400627820256278202562782000253162787F
:1055C400202531627820253162782000526561649B
:1055D4004173696342797465203D3D2025627820DA
:1055E4000A0063682562643A2562642000636825C2
:1055F40062643A2562642063682562643A256264C1
:10560400200063682562643A256264206368256229
:10561400643A2562642063682562643A25626420E2
:105624000063682562643A256264206368256264C5
:105634003A2562642063682562643A2562642063C3
:10564400682562643A256264200063682562643ACE
:105654002562642063682562643A25626420636875
:105664002562643A2562642063682562643A25628F
:10567400642063682562643A2562642000256264BC
:1056840020000A203D3D3D3D3D3D3D3D20504147EC
:10569400452025623278203D3D3D3D3D3D3D3D3D2B
:1056A4003D3D3D3D0A002562327809000A0025315E
:1056B400627820253162782063682531627820631E
:1056C4006825316278206368253162782063682513
:1056D4003162782000656E726563616C6C00656E82
:1056E400667265657A6500656E686D6972726F725F
:1056F40000656E766D6972726F7200656E656E68B4
:10570400616E636500656E626C616E6B00656E62EE
:105714006F756E6400656E626C696E6B00646973AC
:10572400726563616C6C00646973667265657A6541
:1057340000646973686D6972726F7200646973766C
:105744006D6972726F7200646973656E68616E630D
:105754006500646973626C616E6B00646973626F87
:10576400756E6400646973626C696E6B003D3D3DE7
:105774003D3D20466F726D6174203A206368303D70
:105784005B2562785D206368313D5B2562785D202E
:105794006368323D5B2562785D206368333D5B2539
:1057A40062785D203D3D3D3D3D0A0025627820251F
:1057B40062782063682562783A25627820636825D8
:1057C40062783A2562782063682562783A2562789F
:1057D4002063682562783A256278200033333500E7
:1057E40026002800290062757377006275737200C1
:1057F400616D697800616D757465006164756D70C3
:1058040000616761696E00616C6976650062757339
:10581400727400766D697800766D697865727200CD
:1058240076617474720079766D697800696E697452
:1058340000766465740076736574660073737472BD
:10584400006873636F6D006D6F64650064697373E2
:0F58540063726F6C6C00766572000102040810BD
:0487DE004100D8007E
:105F8B0008F208E4F2087400F2087427F208E4F24D
:105F9B00087400F208742CF208E4F2087400F2089A
:105FAB007428F208E4F2087400F208742DF208E485
:105FBB00F2087400F2742908F208E4F2082208F2DD
:105FCB0008E4F2087400F2087427F208E4F208748B
:105FDB0000F208742CF208E4F2087400F20874283A
:105FEB00F208E4F2087400F208742DF208E4F208E7
:105FFB007400F2742908F208E4F20822789EE2FB9E
:10600B0008E2FA08E2F92208F208E4F2087400F256
:10601B00087427F208E4F2087400F208742BF208F3
:10602B00E4F2087400F2742808F208E4F20822780B
:10603B00AD74FFF2087455F274E608F208E4F20846
:10604B00227400F208742EF208E4F2087400F27461
:10605B002A08F208E4F208227400F208742EF208FF
:10606B00E4F2087400F2742A08F208E4F2082274CD
:10607B0000F208742CF208E4F2087400F274290898
:10608B00F208E4F2082278AD74FFF2087455F2744A
:10609B00F108F208E4F2082278AD74FFF2087456A6
:1060AB00F2748108F208E4F208227400F2742708F3
:1060BB00F208E4F208227400F2742708F208E4F202
:1060CB00082208F20874FEF2087400F2745608F203
:1060DB000874FEF20822EBF208EAF208E9F278AD56
:1060EB0074FEF2082208F208E4F2082278AD74FF7D
:1060FB00F2082208F208E4F2082208F208E4F20897
:10610B002208F208E4F2082208F208E4F20822E27C
:10611B00FF78A874FEF2087400F208745BF27BFE41
:10612B007A0079562208F208E4F2082208F208E411
:10613B00F20822EBF208EAF208E9F222900001E4FD
:10614B0075F0010240E308F208E4F20822FFE224B2
:10615B005FF8EFF222E25401FB7D2022252AF52A7B
:10616B0008E254032278A9EFF27BFF7A55799078F5
:10617B00A722E52890585E93FFE527932F22124123
:0B618B004102404E08F208E4F2082236
:1078AB0078AA12613E081260091261897002FF22E8
:1078BB0078AD126009126189B4200A78AD126009A3
:1078CB0012614780EB78AD126009124141C003C0D1
:1078DB0002C00178AA126009124161802178AD12B1
:1078EB006009126189FEB4200FE412409478AD1246
:1078FB0060091261477F0122EE70037F012278AD90
:08790B0012600912614780D5EA
:0581830078AA12613E24
:10818800E4F531F53278AA12600912404E6025787C
:10819800AAE2FB0808E2F92401F218E2FA3400F234
:1081A80012404EFF3395E0FEEF2532F532EE3531C1
:0881B800F53180D1AE31AF3288
:0181C000229C
:0F878A007F411200037F431200037F4B02000365
:10808100E4F52A7856E2540312616725E025E012EF
:108091006167C454F0126167C4333354C0252AF5B3
:1080A1002A7855E2B5070B785AE2B52A05E47865D6
:1080B100F22278657401F2785AE52AF27855EFF2E6
:0180C100229C
:10803E001260F77455F27484125FC27400F27427E2
:10804E001260007400F274281260337400F2087427
:10805E0029F21252ECAB28AD27E4FF12830C126109
:10806E0070E527F208E528F2124C1D0528E528B523
:02807E0029E3F4
:0180800022DD
:10833F001260F77455F274A71260457400F2742737
:10834F0012605C7400F2087428F21252ECAB28AD84
:10835F0027E4FF12830C126170E527F208E528F27B
:03836F00024C1DA0
:108372001260F77455F274841260737400F27427F9
:1083820012608A7400F2742812609C7400F20874FD
:1083920029F21252EC78D7E529F2AB28AD27E4FF97
:0383A20002843C16
:107DB700E4F527F528F529F52AC003C0021260F774
:107DC7007455F274AF1260AE7400F274271260BA81
:107DD7007400F274281260C67400F274291260F0FD
:107DE7007400F208742AF2D002D0031252EC78D74A
:0C7DF700E52AF2AB29AD28E4FF02843C31
:107EE000E4F527F528F529F52A1260F77455F274A0
:107EF000C01260F07400F274271260FE7400F27415
:107F0000281260FE7400F2087429F21252ECAB29B8
:107F1000AD28E4FF12830C8F2A7BFF7A5579D07845
:077F2000A7E52AF2024C1D47
:0264E30078A49B
:1064E5001260E17400F20874A4F27BFE7A0079A7C9
:1064F5001278ABE4FB7D1FFF1283D878A7126009E1
:1065050012746EEE600302661DEF24FE603D14609A
:106515006514700302659F1470030265C724046047
:106525000302661D12603A1260B57400F208742CFD
:10653500F278A41260091252ECAB2CAD27E4FF12DD
:106545007A3CE52790585E930266151260911260B9
:10655500B57400F2742C1261057400F2742812618E
:10656500057400F208742DF278A412600912661EF3
:1065750012617D0266151260F77456F27406125F99
:106585008B7400F208742EF278A412600912661E4C
:10659500AB2EAD291266340266151260F77456F2F9
:1065A5007425125F8B12604C7400F208742FF27818
:1065B500A412600912664A126634FFE52A932F0277
:1065C50066151260F77456F208744E125F8C1260ED
:1065D5004C7400F2742F12610C7400F2742B12616A
:1065E5000C7400F2087430F278A412600912664A3D
:1065F500E4FF127A3CAB30AD2BE4FF127A3C12611A
:106605007DFFE529932FFFE52A932FFFE52B932F98
:08661500FD7B01E4FF1283D8B4
:10661D00221252ECAB2CAD27E4FF127A3CAB2DAD20
:10662D0028E4FF127A3C22E4FF127A3CE5289058C8
:10663D005E93FFE527932FFFE529932F221252EC4E
:10664D00AB2CAD27E4FF127A3CAB2DAD28E4FF1245
:10665D007A3CAB2EAD29E4FF127A3CAB2FAD2A224A
:0F879900E4FB7D1FFF1283D87DFFE4FF02850FF5
:026A9B0078A4DD
:106A9D001260E17400F20874A4F27BFE7A0079A70B
:106AAD001278AB78A712600912746EEE6003026B58
:106ABD00A2EF24FE602F14605414606E1470030254
:106ACD006B5A24046003026BA212603A1260C17407
:106ADD0000F208742CF278A41260091252ECAB2C5F
:106AED00AD27026B9D1260911260C17400F2742C7F
:106AFD001261137400F274281261137400F2087499
:106B0D002DF278A4126009126BBD026B9D1260F715
:106B1D007456F27406125FC97400F208742EF2787E
:106B2D00A4126009126BA3026B9D1260F77456F2EA
:106B3D007425125FC91260637400F208742FF27825
:106B4D00A4126009126BA3126BCE026B9D1260F73B
:106B5D007456F208744E125FCA1260637400F274B8
:106B6D002F1261307400F2742B1261307400F20830
:106B7D007430F278A4126009126BBDE4FF127BB978
:106B8D00AB2EAD29126BCEE4FF127BB9AB30AD2B22
:056B9D00E4FF127BB9CA
:106BA200221252ECAB2CAD27E4FF127BB9AB2DAD18
:106BB20028E4FF127BB9AB2EAD29221252ECAB2C8A
:106BC200AD27E4FF127BB9AB2DAD2822E4FF127B87
:066BD200B9AB2FAD2A2231
:1086F7001260A37400F2087427F21252ECAD27E45B
:04870700FF02850FD9
:107E9700E4F5287BFF7A56798678A7E528F2124C15
:107EA7001DE4F527AB27AD28E4FF12830C78A7EF75
:107EB700F27BFF7A5679AA124C1D0527E527540F46
:107EC70070097BFF7A5679B0124C1DE52770D505EE
:087ED70028E528C3940340BB19
:017EDF002280
:107C6B00C003C002C0011260F77456F274B2126105
:107C7B00377400F274271261377400F274281260A3
:107C8B00CD7400F274571260D97400F20874581254
:107C9B0060DA7400F2087459F2D001D002D00312EA
:107CAB0052ECE527C454F0FFE528540F2FF52712AB
:067CBB006129FF02634E87
:055D7B0078A412613E56
:105D8000E4F52F1260E9125F6578A71260091274BA
:105D90006E8F301260E9125F6578A7126009128178
:105DA000838E278F287A5679D9125F49B5280AEE53
:105DB000B52706752980025E3D7A5679E2125F4961
:105DC000B5280AEEB52706752940025E3D7A567958
:105DD000EB125F50B52809EEB52705752920805DC7
:105DE0007A5679F5125F50B52809EEB52705752961
:105DF00010804A7A5679FF125F57B52809EEB52709
:105E00000575290880377A577909125F57B528092F
:105E1000EEB5270575290480247A577911125F5E43
:105E2000B52809EEB5270575290280117A57791929
:105E3000125F5EB5280DEEB52709752901752A0197
:105E4000025EE77A577921125F76B5280AEEB52708
:105E500006752980025ECA7A57792B125F76B528BB
:105E600009EEB5270575294080607A577935125FAC
:105E70007DB52809EEB52705752920804D7A57791B
:105E800040125F7DB52809EEB52705752910803AC7
:105E90007A57794B125F84B52809EEB52705752925
:105EA0000880277A577956125F84B52809EEB527FE
:105EB0000575290480147BFF7A57795F128183EF7F
:105EC000B5280CEEB52708752902E4F52A80187B61
:105ED000FF7A577968128183EF65287003EE652792
:105EE0007066752901F52A1260E97400F20874A43D
:105EF000F27BFE7A0079A71278ABEF603278A712B6
:105F0000600912404EB477DF900001124067B46917
:105F1000D6900002124067B46ECDE92403F9E43A4A
:105F2000FA12746E742B252FF8A607052F80B8E59A
:105F30002F6015242AF8E6FFC395305007AB2AAD31
:085F40002912840B152F80E7E4
:105F4800227BFF128183EF227BFF128183EF227B6A
:105F5800FF128183EF227BFF128183EF227400F20C
:105F68000874A4F27BFE7A0079A71278AB227BFF33
:105F7800128183EF227BFF128183EF227BFF128144
:035F880083EF2282
:108759001260A37400F2087427F21252ECAF2702D8
:02876900870B7C
:1083A500E4FF127F27C0077F01127F27C0077F02E6
:1083B500127F27C0077F03127F2778AAEFF218D014
:1083C500E0F218D0E0F218D0E0F27BFF7A5779712D
:0383D500024C1D3A
:02707A0078A4F8
:10707C001260E17400F20874A4F27BFE7A0079A726
:10708C001278AB78A712600912746EEE600302716D
:10709C0066EF24FE602A14605114607624036003AA
:1070AC0002716612603A7400F27427126151740016
:1070BC00F208742BF278A4126009127185027161C6
:1070CC001260F77455F274F11260127400F20874C5
:1070DC002CF278A4126009127185E4FF128537E551
:1070EC002CC454F0FBAD280271611260F77456F297
:1070FC00740612601212607A7400F208742DF27821
:10710C00A4126009127167E52DC454F0FBAD29027D
:10711C0071611260F77456F20874251260131260D4
:10712C007A7400F2742D1261517400F2742A126197
:10713C008F7400F208742EF278A412600912716731
:10714C00E52DC454F0FBAD29E4FF128537E52EC4C0
:0A715C0054F0FBAD2AE4FF12853762
:10716600221252ECE52BC454F0FBAD27E4FF128546
:1071760037E52CC454F0FBAD28E4FF128537221204
:0B71860052ECE52BC454F0FBAD2722B7
:027B5C0078A40B
:107B5E001260E1127BA612600912746E8F271260FA
:107B6E00E9127BA612600912746E8F287F041287A9
:107B7E00FE7F031288017F0512861A78A4E2F908A7
:107B8E00E2FA08E278ADC912613FAB28AD277F015A
:087B9E00127A9D7F050282D7D7
:107BA6007400F20874A4F27BFE7A0079A71278AB0F
:037BB60078A7228B
:1081C100752801E4F527745B2527F8E230E40F7484
:1081D100562527F8E2FDE4FF12850FE4F52805276F
:1081E100E527C3940440DFE528600FE4FB7D1FFF12
:0A81F1001283D87DFFE4FF12850F12
:0181FB002261
:106BD800C003C002C0011260F77457F274AF1261AB
:106BE8008F7400F2087428F208E4F2087400F27452
:106BF800291260CD7400F208745B1260DA7400F236
:106C08000874571260DA7400F208745C1260DA745F
:106C180000F20874581260DA7400F208745D1260A9
:106C2800DA7400F20874591260DA7400F208745EBB
:106C3800F2D001D002D0031252ECE528C454F0FF80
:106C48007852E2FEC433333354802FFFE529540FC2
:106C58002F7864F2785BE27856126158785CE278B3
:106C680057126158785DE2FF7858126159785EE2F0
:106C7800FF7859126159785F126160E4FF1281FC54
:106C880078601261607F011281FC78611261607F17
:106C9800021281FC78621261607F031281FC7BFE24
:106CA8007A00795F126E3D786412611A124854783E
:106CB80064E2FF12612912634EE4F527745B25270D
:106CC800F8126160AF2712840B0527E527C39404E7
:106CD80040EAE4F510F511F5127513057F011287E6
:106CE800D57864E2FF1280817F08128637E4FF12AC
:106CF800866D127FB47BFE7A00795B124F1678643A
:056D0800E29000D8F04C
:016D0D002263
:107977007F03127F27EFB40202C3227852E2B507D2
:1079870002D3227852EFF2E2C43333335480FF78C4
:1079970055E2547F4FF27F011282D77852E2FF12ED
:1079A70079DA7BFE7A00795F126E3D785512611A9B
:1079B7001248547855E2FF12612912634EE4FF1210
:1079C700866D127FB47BFE7A00795B124F161285A3
:0279D700ADD32E
:0179D900228B
:1086B5001260F77456F20874811260DA7400F208D9
:0686C5007453F20252ECB6
:0587F4007F010282D7A5
:10846900E478A4F27F4D1200039057E0128489A3A7
:10847900128489A3A3E493FF1200037F500200032F
:0A848900E493FF1200039057E02275
:02586300789E2D
:105865001260E17400F208749EF27BFE7A0079A161
:105875001278AB78A11260091281838E258F267A62
:105885005779E4125AA2B5260DEEB525091260071F
:1058950012803E025A9F7A5779E6125AA2B5260D12
:1058A500EEB5250912600712833F025A9F7A577990
:1058B500E8125AA9B5260DEEB5250912600712831F
:1058C50072025A9F7A5779EA125AA9B5260DEEB592
:1058D5002509126007127DB7025A9F7A5779EF1290
:1058E5005AB0B5260DEEB52509126007127EE00205
:1058F5005A9F7A5779F4125AB0B5260DEEB5250997
:105905001260071264E3025A9F7A5779F9125AB75F
:10591500B5260AEEB52506128799025A9F7A577958
:10592500FF125AB7B5260AEEB52506126196025A38
:105935009F7A587905125ABEB5260DEEB52509127E
:105945006007126A9B025A9F7A58790B125ABEB5A4
:10595500260DEEB525091260071286F7025A9F7AC1
:10596500587911125AC5B5260AEEB52506127E9745
:10597500025A9F7A587917125AC5B52615EEB525DC
:10598500117F40128234126007127C6B12878A02E3
:105995005A9F7A58791C125ACCB5260DEEB52509B1
:1059A500126007127C6B025A9F7A587924125ACCDE
:1059B500B5260DEEB52509126007125D7B025A9FCB
:1059C5007A58792A125AD3B52610EEB5250C1287C6
:1059D5008A126007128759025A9F7A587930125AEB
:1059E500D3B5260AEEB52506127FFA025A9F7A58D4
:1059F5007935125ADAB5260AEEB525061283A502BF
:105A05005A9F7A58793A125ADAB5260DEEB5250914
:105A150012600712707A025A9F7A587940125AE139
:105A2500B5260DEEB52509126007127B5C025A9F5B
:105A35007A587945125AE1B5261AEEB52516128718
:105A45008A126007126BD81281C11285ADE4FF126C
:105A550087D580467A58794B125AE8B5260FEEB5A8
:105A6500250B12878A1260071286B5802D7A587920
:105A750050125AE8B5260CEEB5250812878A12870A
:105A8500F480177BFF7A58795A128183EFB5260A7D
:0C5A9500EEB5250612878A1284697F0195
:105AA100227BFF128183EF227BFF128183EF227B16
:105AB100FF128183EF227BFF128183EF227BFF1292
:105AC1008183EF227BFF128183EF227BFF1281838F
:105AD100EF227BFF128183EF227BFF128183EF2272
:0E5AE1007BFF128183EF227BFF128183EF2275
:10869E000D0A0044656275672050726F6772616DD6
:0786AE00203E005043540080
:107D150012877BEF640170497895E27044128653AF
:107D25008F25300003120003E52524F8601F24FB8E
:107D350070217894E2246BF8E4F2789504F27BFEE6
:107D45007A00796B1284933000170287CC7894E21D
:107D550014F2227894E2246BF8E525F27894E20493
:017D6500F22B
:017D660022FA
:0987CC007BFF7A86799E0284BDD0
:0A826C00789EEBF208EAF208E9F24E
:10827600789EE2FB08E2FA08E2F912404E601C78AA
:108286009EE2FB0808E2F92401F218E2FA3400F251
:0B82960012404EF525FF12000380D5BA
:0182A10022BA
:1086CB003000097BFF7A8679A112826CE47894F2F0
:0686DB0008F2786BF222A8
:0987D500EF6003C20122D201226F
:0B87B700C200C201C221E47899F22246
:10849300789EEBF208EAF208E9F220001C789EE2EB
:1084A300FB08E2FA08E2F8AC02AD037BFF7A8679B7
:0A84B300B1124354EF7002D2002210
:077F6E0078A4EEF208EFF227
:107F750078A5E2700218E26035E478A6F208F27896
:107F8500A6E2FE08E2FFE4FCFD7BD8FAF9F8D3127D
:107F95004130400D78A7E22401F218E23400F28066
:0E7FA500DE78A5E224FFF218E234FFF280C27B
:017FB30022AB
:10783600E4789BF20874C8F2087464F21285F712B1
:1078460087B7128804127FFA1286CB127D157895B7
:10785600E2B401097BFE7A00796B1258637895E2EF
:10786600B401031286CB3021071279775002C22168
:1078760012877BEF6008789CE2751200F513E5131A
:1078860064014512700CF512F513789DE27510002F
:10789600F511E5116401451070B11282A275100050
:0578A60075111480A61D
:1085F700E4F5B8F5A8758780F5D0758921F58875F4
:108607009852F5B175B21012876B1286E1D299D2E2
:03861700AF00228F
:100026001010FFFFFFFFFFFFFFFFFFFFFFFFFFFFB8
:10003600FFFFFFFFFFFFFFFFFFFFFFFFFFFFFFFFCA
:10004600FFFFFFFFFFFFFFFFFFFFFFFFFFFFFFFFBA
:10005600FFFFFFFFFFFFFFFFFFFFFFFFFFFFFFFFAA
:10006600FFFFFFFFFFFFFFFFFFFFFFFFFFFFFFFF9A
:10007600FFFFFFFFFFFFFFFFFFFFFFFFFFFFFFFF8A
:10008600FFFFFFFFFFFFFFFFFFFFFFFFFFFFFFFF7A
:10009600FFFFFFFFFFFFFFFFFFFFFFFFFFFFFFFF6A
:1000A600FFFFFFFFFFFFFFFFFFFFFFFFFFFFFFFF5A
:1000B600FFFFFFFFFFFFFFFFFFFFFFFFFFFFFFFF4A
:1000C600FFFFFFFFFFFFFFFFFFFFFFFFFFFFFFFF3A
:1000D600FFFFFFFFFFFFFFFFFFFFFFFFFFFFFFFF2A
:1000E600FFFFFFFFFFFFFFFFFFFFFFFFFFFFFFFF1A
:1000F600FFFFFFFFFFFFFFFFFFFFFFFFFFFFFFFF0A
:10010600FFFFFFFFFFFFFFFFFFFFFFFFFFFFFFFFF9
:10011600FFFFFFFFFFFFFFFFFFFFFFFFFFFFFFFFE9
:10012600FFFF1010FFFFFFFFFFFFFFFFFFFFFFFFB7
:10013600FFFFFFFFFFFFFFFFFFFFFFFFFFFFFFFFC9
:10014600FFFFFFFFFFFFFFFFFFFFFFFFFFFFFFFFB9
:10015600FFFFFFFFFFFFFFFFFFFFFFFFFFFFFFFFA9
:10016600FFFFFFFFFFFFFFFFFFFFFFFFFFFFFFFF99
:10017600FFFFFFFFFFFFFFFFFFFFFFFFFFFFFFFF89
:10018600FFFFFFFFFFFFFFFFFFFFFFFFFFFFFFFF79
:10019600FFFFFFFFFFFFFFFFFFFFFFFFFFFFFFFF69
:1001A600FFFFFFFFFFFFFFFFFFFFFFFFFFFFFFFF59
:1001B600FFFFFFFFFFFFFFFFFFFFFFFFFFFFFFFF49
:1001C600FFFFFFFFFFFFFFFFFFFFFFFFFFFFFFFF39
:1001D600FFFFFFFFFFFFFFFFFFFFFFFFFFFFFFFF29
:1001E600FFFFFFFFFFFFFFFFFFFFFFFFFFFFFFFF19
:1001F600FFFFFFFFFFFFFFFFFFFFFFFFFFFFFFFF09
:10020600FFFFFFFFFFFFFFFFFFFFFFFFFFFFFFFFF8
:10021600FFFFFFFFFFFFFFFFFFFFFFFFFFFFFFFFE8
:10022600FFFFFFFF1010FFFFFFFFFFFFFFFFFFFFB6
:10023600FFFFFFFFFFFFFFFFFFFFFFFFFFFFFFFFC8
:10024600FFFFFFFFFFFFFFFFFFFFFFFFFFFFFFFFB8
:10025600FFFFFFFFFFFFFFFFFFFFFFFFFFFFFFFFA8
:10026600FFFFFFFFFFFFFFFFFFFFFFFFFFFFFFFF98
:10027600FFFFFFFFFFFFFFFFFFFFFFFFFFFFFFFF88
:10028600FFFFFFFFFFFFFFFFFFFFFFFFFFFFFFFF78
:10029600FFFFFFFFFFFFFFFFFFFFFFFFFFFFFFFF68
:1002A600FFFFFFFFFFFFFFFFFFFFFFFFFFFFFFFF58
:1002B600FFFFFFFFFFFFFFFFFFFFFFFFFFFFFFFF48
:1002C600FFFFFFFFFFFFFFFFFFFFFFFFFFFFFFFF38
:1002D600FFFFFFFFFFFFFFFFFFFFFFFFFFFFFFFF28
:1002E600FFFFFFFFFFFFFFFFFFFFFFFFFFFFFFFF18
:1002F600FFFFFFFFFFFFFFFFFFFFFFFFFFFFFFFF08
:10030600FFFFFFFFFFFFFFFFFFFFFFFFFFFFFFFFF7
:10031600FFFFFFFFFFFFFFFFFFFFFFFFFFFFFFFFE7
:10032600FFFFFFFFFFFF1010FFFFFFFFFFFFFFFFB5
:10033600FFFFFFFFFFFFFFFFFFFFFFFFFFFFFFFFC7
:10034600FFFFFFFFFFFFFFFFFFFFFFFFFFFFFFFFB7
:10035600FFFFFFFFFFFFFFFFFFFFFFFFFFFFFFFFA7
:10036600FFFFFFFFFFFFFFFFFFFFFFFFFFFFFFFF97
:10037600FFFFFFFFFFFFFFFFFFFFFFFFFFFFFFFF87
:10038600FFFFFFFFFFFFFFFFFFFFFFFFFFFFFFFF77
:10039600FFFFFFFFFFFFFFFFFFFFFFFFFFFFFFFF67
:1003A600FFFFFFFFFFFFFFFFFFFFFFFFFFFFFFFF57
:1003B600FFFFFFFFFFFFFFFFFFFFFFFFFFFFFFFF47
:1003C600FFFFFFFFFFFFFFFFFFFFFFFFFFFFFFFF37
:1003D600FFFFFFFFFFFFFFFFFFFFFFFFFFFFFFFF27
:1003E600FFFFFFFFFFFFFFFFFFFFFFFFFFFFFFFF17
:1003F600FFFFFFFFFFFFFFFFFFFFFFFFFFFFFFFF07
:10040600FFFFFFFFFFFFFFFFFFFFFFFFFFFFFFFFF6
:10041600FFFFFFFFFFFFFFFFFFFFFFFFFFFFFFFFE6
:10042600FFFFFFFFFFFFFFFF1010FFFFFFFFFFFFB4
:10043600FFFFFFFFFFFFFFFFFFFFFFFFFFFFFFFFC6
:10044600FFFFFFFFFFFFFFFFFFFFFFFFFFFFFFFFB6
:10045600FFFFFFFFFFFFFFFFFFFFFFFFFFFFFFFFA6
:10046600FFFFFFFFFFFFFFFFFFFFFFFFFFFFFFFF96
:10047600FFFFFFFFFFFFFFFFFFFFFFFFFFFFFFFF86
:10048600FFFFFFFFFFFFFFFFFFFFFFFFFFFFFFFF76
:10049600FFFFFFFFFFFFFFFFFFFFFFFFFFFFFFFF66
:1004A600FFFFFFFFFFFFFFFFFFFFFFFFFFFFFFFF56
:1004B600FFFFFFFFFFFFFFFFFFFFFFFFFFFFFFFF46
:1004C600FFFFFFFFFFFFFFFFFFFFFFFFFFFFFFFF36
:1004D600FFFFFFFFFFFFFFFFFFFFFFFFFFFFFFFF26
:1004E600FFFFFFFFFFFFFFFFFFFFFFFFFFFFFFFF16
:1004F600FFFFFFFFFFFFFFFFFFFFFFFFFFFFFFFF06
:10050600FFFFFFFFFFFFFFFFFFFFFFFFFFFFFFFFF5
:10051600FFFFFFFFFFFFFFFFFFFFFFFFFFFFFFFFE5
:10052600FFFFFFFFFFFFFFFFFFFF1010FFFFFFFFB3
:10053600FFFF00000000FFFFFFFFFFFFFFFFFFFFC1
:10054600FF000000000000FFFFFFFFFFFFFFFFFFAF
:100556000000020202020000FFFFFFFFFFFFFFFF95
:100566000000020202020000FFFFFFFFFFFFFF0084
:10057600000202000002020000FFFFFFFFFFFF0073
:10058600000202000002020000FFFFFFFFFF000062
:1005960002020000000002020000FFFFFFFF000051
:1005A600020200FFFF0002020000FFFFFF00000240
:1005B600020000FFFF000002020000FFFF00000231
:1005C6000200000000000002020000FF000002021C
:1005D60002020202020202020202000000000202FD
:1005E60002020202020202020202000000000202ED
:1005F60000000000000000000202000000000202ED
:100606000000FFFFFFFF00000202000000000202E0
:100616000000FFFFFFFF00000202000000000000D4
:100626000000FFFFFFFF00000000000010100000A8
:10063600000000000000000000000000FFFF0002B4
:1006460002020202020202020202000000FF00028F
:10065600020202020202020202020200000000007E
:100666000002020000000000020202020000FF0079
:1006760000020200FFFFFF00000202020000FF006E
:1006860000020200FFFFFF00000202020000FF005E
:1006960000020200000000000202020000FFFF004C
:1006A600000202020202020202020000FFFFFF0035
:1006B600000202020202020202020000FFFFFF0025
:1006C60000020200000000000202020000FFFF001C
:1006D60000020200FFFFFF00000202020000FF000E
:1006E60000020200FFFFFF000002020200000000FD
:1006F60000020200000000000202020200000002E6
:1007060002020202020202020202020000000002CB
:1007160002020202020202020202000000FF0000C0
:10072600000000000000000000000000FFFF1010A5
:10073600FFFFFF00000000000000000000FFFFFFB9
:10074600FFFF00000202020202020202000000FF96
:10075600FF00000202020202020202020200000080
:100766000000000202000000000000020202000079
:1007760000000202020000FFFFFF0000020200006C
:10078600000002020000FFFFFFFFFF000202000060
:10079600000002020000FFFFFFFFFFFF0000000055
:1007A600000002020000FFFFFFFFFFFFFFFFFFFF49
:1007B600000002020000FFFFFFFFFFFFFFFFFFFF39
:1007C600000002020000FFFFFFFFFF000000000024
:1007D600000002020000FFFFFFFFFF000202000010
:1007E60000000202000000FFFFFF000002020000FE
:1007F60000000202020000000000000202020000E7
:10080600FF000002020202020202020202000000CF
:10081600FFFF00000202020202020202000000FFC5
:10082600FFFFFF0000000000000000000000FFFFC7
:100836001010000000000000000000000000FFFF94
:10084600FFFF00000202020202020202020000FF93
:10085600FFFF000002020202020202020202000080
:10086600FFFF00000202000000000002020200007A
:10087600FFFF000002020000FFFF0000020200006E
:10088600FFFF000002020000FFFF0000020200005E
:10089600FFFF00000202000000000002020200004A
:1008A600FFFF00000202020202020202020000FF33
:1008B600FFFF00000202020202020202000000FF25
:1008C600FFFF000002020000020202000000FFFF1C
:1008D600FFFF000002020000000202020000FFFF0C
:1008E600FFFF00000202000000000202020000FFFB
:1008F600FFFF000002020000FF00000202020000EB
:10090600FFFF000002020000FFFF000002020200DB
:1009160000FF000002020000FFFFFF0000020202CB
:1009260000FF000000000000FFFFFFFF00000000C6
:1009360000FF101000000000FFFFFFFFFFFFFFFF9A
:10094600000000000000000000FFFFFFFFFFFF00A7
:100956000000000000000C0C0000FFFFFFFF00007D
:100966000C0C000000000C0C0C0000000000000C39
:100976000C0C000000000C0C0C0C000000000C0C11
:100986000C0C000000000C0C0C0C0C0C0C0C0C0CD1
:100996000C0C000000000C0C0C0C0C0C0C0C0C0CC1
:1009A6000C0C000000000C0C0C000C0C0C0C000CC9
:1009B6000C0C000000000C0C0C00000C0C00000CD1
:1009C6000C0C000000000C0C0C0000000000000CD9
:1009D6000C0C000000000C0C0C0000000000000CC9
:1009E6000C0C000000000C0C0C0000FFFF00000CBB
:1009F6000C0C000000000C0C0C0000FFFF00000CAB
:100A06000C0C000000000C0C0C0000FFFF00000C9A
:100A16000C0C000000000C0C0C0000FFFF00000C8A
:100A26000C0C000000000000000000FFFF000000AA
:100A3600000000001010FF00000000000000000091
:100A46000000000000FFFF00000202020202020294
:100A56000202020000FFFF0000020202020202027E
:100A66000202020000FFFF00000000000000020278
:100A76000200000000FFFFFFFFFFFFFF0000020271
:100A8600020000FFFFFFFFFFFFFFFFFF0000020263
:100A9600020000FFFFFFFFFFFFFFFFFF0000020253
:100AA600020000FFFFFFFFFFFFFFFFFF0000020243
:100AB600020000FFFFFFFFFFFFFFFFFF0000020233
:100AC600020000FFFFFFFFFFFFFFFFFF0000020223
:100AD600020000FFFFFFFF00000000FF000002020F
:100AE600020000FFFFFFFF000202000000000202FA
:100AF600020000FFFFFFFF000202020000020202E6
:100B0600020000FFFFFFFF000002020202020202D3
:100B1600000000FFFFFFFFFF0000020202020200CA
:100B26000000FFFFFFFFFFFFFF00000000000000C6
:100B360000FFFFFFFFFF1010FFFFFFFFFFFFFFFF9C
:100B4600FFFFFFFFFFFFFFFFFFFFFFFFFF000000AC
:100B560000000000FFFFFFFFFFFFFFFF0000010195
:100B660001010000FFFFFFFFFFFFFF000001010181
:100B760001010000FFFFFFFFFFFF0000010101016F
:100B8600010000FFFFFFFFFFFF000001010101015F
:100B96000000000000000000000001010101010149
:100BA6000101010101010000000101010101010132
:100BB6000101010101010000000101010101010122
:100BC6000101010101010000000001010101010113
:100BD6000101010101010000FF0000010101010105
:100BE6000000000000000000FFFF000001010101FD
:100BF600010000FFFFFFFFFFFFFFFF0000010101F3
:100C060001010000FFFFFFFFFFFFFFFF00000101E2
:100C160001010000FFFFFFFFFFFFFFFFFF000000D5
:100C260000000000FFFFFFFFFFFFFFFFFFFFFFFFCA
:100C3600FFFFFFFFFFFFFFFF1010FFFFFFFFFFFF9C
:100C4600FFFFFFFFFFFFFFFFFFFFFFFFFFFF0000AC
:100C56000000000000FFFFFFFFFFFFFFFFFF000097
:100C6600010101010000FFFFFFFFFFFFFFFF000082
:100C760001010101010000FFFFFFFFFFFFFFFF0071
:100C86000001010101010000FFFF0000000000005B
:100C9600000001010101010000FF00000101010146
:100CA6000101010101010101000000000101010132
:100CB6000101010101010101010000000101010121
:100CC6000101010101010101010000000000000015
:100CD600000001010101010000FF0000000000000A
:100CE600000001010101010000FFFFFFFFFFFF00FF
:100CF6000001010101010000FFFFFFFFFFFF0000EF
:100D060001010101010000FFFFFFFFFFFFFF0000DF
:100D1600010101010000FFFFFFFFFFFFFFFF0000D1
:100D26000000000000FFFFFFFFFFFFFFFFFFFFFFC8
:100D3600FFFFFFFFFFFFFFFFFFFF1010FFFFFFFF9B
:100D46000000000000000000FFFFFFFFFFFFFFFFA5
:100D56000000010101010000FFFFFFFFFFFFFFFF91
:100D66000000010101010000FFFFFFFFFFFFFFFF81
:100D76000000010101010000FFFFFFFFFFFFFFFF71
:100D86000000010101010000FFFFFFFF000000005D
:100D96000000010101010000000000000000010147
:100DA6000000010101010000010100000000010135
:100DB6000100010101010001010100000000010123
:100DC6000101010101010101010100000000010111
:100DD600010101010101010101010000FF00000103
:100DE6000101010101010101010000FFFFFF0000F7
:100DF60001010101010101010000FFFFFFFFFF00EA
:100E0600000101010101010000FFFFFFFFFFFFFFDD
:100E16000000010101010000FFFFFFFFFFFFFFFFD0
:100E2600FF000001010000FFFFFFFFFFFFFFFFFFC4
:100E3600FFFF00000000FFFFFFFFFFFF1010FFFF96
:100E4600FFFFFFFFFFFF0000000000000000FFFFA4
:100E5600FFFFFFFFFF000002020202020000FFFF89
:100E6600FFFFFFFF00000202020202020000FFFF76
:100E7600FFFFFF0000020202000002020000000065
:100E86000000000002020200000002020000000052
:100E96000202020202020200FF000202000000003B
:100EA6000202020202020200FF000202000000002B
:100EB6000202000000020200FF0002020000000021
:100EC600020200FF00020200FF0002020000000012
:100ED6000202000000020200FF0002020000000001
:100EE6000202020202020200FF00020200000000EB
:100EF60002020202020202000000020200000000DA
:100F06000000000000020202000002020000FFFFD3
:100F1600FFFFFFFF00000202020202020000FFFFC5
:100F2600FFFFFFFFFF000002020202020000FFFFB8
:100F3600FFFFFFFFFFFF0000000000000000101091
:100F46000000000000FFFFFFFFFFFF0000000000A1
:100F56000004040400FFFFFFFFFFFF000404040079
:100F66000004040400FFFFFFFFFFFF000404040069
:100F76000004040400FFFFFFFFFFFF000404040059
:100F86000004040400FFFFFFFFFFFF000404040049
:100F9600000404040000FFFFFFFF00000404040037
:100FA600000404040400FFFFFFFF0004040404001F
:100FB600000004040400FFFFFFFF00040404000017
:100FC60000000404040000FFFF0000040404000005
:100FD600FF0000040404000000000404040000FFF5
:100FE600FFFF000004040400000404040000FFFFE7
:100FF600FFFF000000040400000404000000FFFFDF
:10100600FFFFFF00000404040404040000FFFFFFC8
:10101600FFFFFFFF0000040404040000FFFFFFFFC2
:10102600FFFFFFFFFF00000404000000FFFFFFFFBB
:10103600FFFFFFFFFFFF0000000000FFFFFFFFFFB5
:10104600101000000000000000FFFFFFFFFFFFFF81
:10105600FFFF00000404040000FFFFFFFFFFFFFF87
:10106600FFFF00000404040000FFFFFFFFFFFFFF77
:10107600FFFF00000404040000FFFFFFFFFFFFFF67
:10108600FFFF00000404040000FFFFFFFFFFFFFF57
:10109600FFFF00000404040000FFFFFFFFFFFFFF47
:1010A600FFFF00000404040000FFFFFFFFFFFFFF37
:1010B600FFFF00000404040000FFFFFFFFFFFFFF27
:1010C600FFFF00000404040000FFFFFFFFFFFFFF17
:1010D600FFFF00000404040000FFFFFFFFFF000005
:1010E600000000000404040000FFFFFFFFFF0000F3
:1010F600000000000404040000FFFFFFFF000004DE
:1011060000000000040404000000000000000404C5
:101116000000000004040404040404040404040499
:101126000000000004040404040404040404040489
:1011360000000000000000000000000000000000A9
:1011460000001010FFFFFFFFFFFFFFFFFFFFFFFF85
:10115600FFFFFFFFFFFFFFFFFFFFFFFFFFFFFFFF99
:10116600FFFFFFFFFFFFFFFFFFFFFFFFFFFFFFFF89
:10117600FFFFFFFFFFFFFFFF00000000000000FF72
:10118600FFFFFFFFFFFFFF00000004040400000054
:10119600FFFFFFFFFFFF0000040404040404040033
:1011A60000FFFFFFFF000004040400000004040425
:1011B6000000FFFF00000004040000FF000004041C
:1011C600000000FF00000404040000FF0000040407
:1011D600040000FF00000404040000FF00000404F3
:1011E600040000FF00000404040000FF00000404E3
:1011F600040000FF00000004040000FF00000404D7
:10120600000000FFFF0000040404000000040404C2
:101216000000FFFFFFFF00000404040404040400B0
:1012260000FFFFFFFFFFFF000000040404000000B2
:10123600FFFFFFFFFFFFFFFF00000000000000FFB1
:10124600FFFFFFFF1010FFFFFFFFFFFFFFFFFFFF86
:10125600FFFFFFFFFFFFFFFFFFFFFFFFFFFFFFFF98
:10126600FFFFFFFFFFFFFFFFFFFFFFFFFFFFFFFF88
:10127600FFFFFFFFFFFFFFFFFFFF00000000000072
:101286000000FFFFFFFFFFFF00000000040404044E
:10129600000000FFFFFFFF00000004040404040434
:1012A60004040000FFFFFF00000404040000000027
:1012B6000404040000FFFF00000404040000FF0013
:1012C6000000000000FFFF0000000404040400000A
:1012D6000000FFFFFFFFFFFFFF00000404040404FB
:1012E600040000FFFFFFFFFFFFFF000000000404F3
:1012F60004040000FFFFFF0000000000FFFF0000E5
:101306000404040000FFFF000004040400000000C1
:101316000404040000FFFF000000040404040404A5
:1013260004040000FFFFFFFFFF00000004040404A4
:10133600000000FFFFFFFFFFFFFFFF0000000000AF
:101346000000FFFFFFFF101004040FFFFFFFFFFF69
:10135600FFFF0404FFFFFFFF040404FFFFFFFFFF7E
:10136600FFFF0404FFFFFFFF0404040FFFFFFFFF5E
:10137600FFFF0404FFFFFFFF040404040FFFFFFF49
:10138600FFFF0404FFFFFFFF0404FF0404FFFFFF49
:10139600FFFF0404FFFFFF040404FF04040FFFFF24
:1013A600FFFF0404FFFFFF040404FFFF0404FFFF24
:1013B600FFFF0404FFFFFF040404FFFF04040FFF04
:1013C600FFFF0404FFFFFF040404FFFFFF04040FF4
:1013D600FFFF0404FFFFFF040404FFFFFFFF0404F4
:1013E600FFFF0404FFFFFF040404FFFFFFFF0404E4
:1013F6000FFF0404FFFFFF040404FFFFFFFFFF04C9
:1014060004FF0404FFFFFF040404FFFFFFFFFFFFC8
:1014160004040404FFFFFFFF0404FFFFFFFFFFFFB8
:1014260004040404FFFFFFFF0404FFFFFFFFFFFFA8
:10143600FF040404FFFFFFFF0404FFFFFFFFFFFF9D
:10144600FF040404FFFFFFFF1010FFFFFF04040466
:101456000404040FFFFFFFFFFFFFFFFF0404040463
:1014660004040404040FFFFFFFFFFF040404FFFF4E
:10147600FFFFFF0404040FFFFFFF04040FFFFFFF3D
:10148600FFFFFFFF040404FFFFFF0404FFFFFFFF4D
:10149600FFFFFFFFFF04040FFFFF040FFFFFFFFF27
:1014A600FFFFFFFFFF040404FFFF04FFFFFFFFFF32
:1014B600FFFFFFFFFFFF0404FFFF04FFFFFFFFFF27
:1014C600FFFFFFFFFFFF0404FFFF04FFFFFFFFFF17
:1014D600FFFFFFFFFFFF0404FFFF04FFFFFFFFFF07
:1014E600FFFFFFFFFFFF0404FFFF040FFFFFFFFFE7
:1014F600FFFFFFFFFF040404FFFF0404FFFFFFFFDD
:10150600FFFFFFFFFF04040FFFFF04040FFFFFFFB1
:10151600FFFFFFFF040404FFFFFFFF040404FFFFB7
:10152600FFFFFF0404040FFFFFFFFFFF0404040492
:1015360004040404040FFFFFFFFFFFFFFFFF040482
:101546000404040FFFFFFFFFFFFF1010FFFFFFFF64
:10155600FF04040FFFFFFFFFFFFFFFFFFFFFFFFF7B
:10156600FF040404FFFFFFFFFFFFFFFFFFFFFFFF76
:10157600FFFF0404FFFFFFFFFFFFFFFFFFFFFFFF6B
:10158600FFFF04040FFFFFFFFFFFFFFFFFFFFFFF4B
:10159600FFFFFF0404FFFFFFFFFFFFFFFFFFFFFF4B
:1015A600FFFFFF04040FFFFFFFFFFFFFFFFFFFFF2B
:1015B600FFFFFF040404FFFFFFFFFF04FFFFFFFF21
:1015C600FFFFFFFF0404FFFFFFFFFF04FFFFFFFF16
:1015D600FFFFFFFF04040FFFFFFFFF04FFFFFFFFF6
:1015E600FFFFFFFF040404FFFFFF0404FFFFFFFFEC
:1015F600FFFFFFFFFF04040FFFFF0404FFFFFFFFD1
:10160600FFFFFFFFFF04040FFFFF0404FFFFFFFFC0
:10161600FFFFFFFFFFFF0404FF04040FFFFFFFFFB0
:10162600FFFFFFFFFFFF04040F0404FFFFFFFFFFA0
:10163600FFFFFFFFFFFF0404040404FFFFFFFFFF9B
:10164600FFFFFFFFFFFFFF0404040FFF1010FFFF63
:101656000404FFFF04040FFFFFFF04040404FF0457
:101666000404FFFF04040FFFFFFF04040404FF0447
:10167600040FFFFF04040FFFFFFF04040FFFFF0426
:1016860004FFFFFF04040FFFFFFF04040FFF040421
:101696000FFFFFFF04040FFFFFFF04040FFF040406
:1016A6000FFFFFFF04040FFFFFFF04040FFF0404F6
:1016B600FFFFFFFF04040FFFFFFF04040FFF040FEB
:1016C600FFFFFFFF04040FFFFFFF04040FFF04FFEB
:1016D600FFFFFFFF04040FFFFFFF04040FFF04FFDB
:1016E600FFFFFFFF04040FFFFFFF04040FFF0FFFC0
:1016F600FFFFFFFF04040FFFFFFF04040FFFFFFFC0
:10170600FFFFFFFF04040FFFFFFF04040FFFFFFFAF
:10171600FFFFFFFF04040FFFFFFF04040FFFFFFF9F
:10172600FFFFFFFF04040FFFFFFF04040FFFFFFF8F
:10173600FFFFFFFF04040FFFFFFF04040404FFFF85
:10174600FFFFFFFF04040FFFFFFF04040404101053
:1017560004040404040FFFFFFFFFFFFF0404040456
:1017660004040404040404FFFFFFFFFF040404044C
:10177600FFFFFFFFFF040404FFFFFFFF04040FFF4A
:10178600FFFFFFFFFFFF04040FFFFFFF04040FFF2F
:10179600FFFFFFFFFFFF040404FFFFFF04040FFF2A
:1017A600FFFFFFFFFFFFFF0404FFFFFF04040FFF1F
:1017B600FFFFFFFFFFFFFF04040FFFFF04040FFFFF
:1017C600FFFFFFFFFFFFFF04040FFFFF04040404F5
:1017D600FFFFFFFFFFFFFF04040FFFFF04040404E5
:1017E600FFFFFFFFFFFFFF04040FFFFF04040FFFCF
:1017F600FFFFFFFFFFFFFF0404FFFFFF04040FFFCF
:10180600FFFFFFFFFFFF040404FFFFFF04040FFFB9
:10181600FFFFFFFFFFFF04040FFFFFFF04040FFF9E
:10182600FFFFFFFFFF040404FFFFFFFF04040FFF99
:1018360004040404040404FFFFFFFFFF040404047B
:1018460004040404040FFFFFFFFFFFFF0404040465
:10185600101004040404040404040FFFFFFFFFFF38
:10186600FF0404040404040404040FFFFFFFFF0440
:101876000404FFFFFFFFFFFFFFFFFFFFFFFF04045E
:10188600040FFFFFFFFFFFFFFFFFFFFFFF0404043E
:10189600FFFFFFFFFFFFFFFFFFFFFFFFFF04040F38
:1018A600FFFFFFFFFFFFFFFFFFFFFFFFFF0404FF38
:1018B600FFFFFFFFFFFFFFFFFFFFFFFF04040FFF18
:1018C600FFFF040404040404040FFFFF04040FFFD5
:1018D600FFFF040404040404040FFFFF04040FFFC5
:1018E600FFFFFFFFFFFFFFFFFFFFFFFF04040FFFE8
:1018F600FFFFFFFFFFFFFFFFFFFFFFFFFF0404FFE8
:10190600FFFFFFFFFFFFFFFFFFFFFFFFFF04040FC7
:10191600FFFFFFFFFFFFFFFFFFFFFFFFFF040404C2
:10192600FFFFFFFFFFFFFFFFFFFFFFFFFFFF0404B7
:10193600040F04040404040404040FFFFFFFFF045F
:10194600040404040404040404040FFFFFFFFFFF5F
:10195600FF0410100404040404FFFFFFFFFFFFFF51
:10196600FFFFFFFF0404040404040FFFFFFFFFFF53
:10197600FFFFFFFFFFFFFFFF0404040FFFFFFFFF52
:10198600FFFFFFFFFFFFFFFFFFFF04040FFFFFFF47
:10199600FFFFFFFFFFFFFFFFFFFF040404FFFFFF42
:1019A600FFFFFFFFFFFFFFFFFFFFFF04040FFFFF27
:1019B600FFFFFFFFFFFFFFFFFFFFFF04040FFFFF17
:1019C600FFFFFFFFFFFFFFFFFFFFFF04040FFFFF07
:1019D600FFFFFFFFFFFFFFFFFFFFFF04040FFFFFF7
:1019E600FFFFFFFFFFFFFFFFFFFFFF04040FFFFFE7
:1019F600FFFFFFFFFFFFFFFFFFFFFF04040FFFFFD7
:101A0600FFFFFFFFFFFFFFFFFFFF040404FFFFFFD1
:101A1600FFFFFFFFFFFFFFFFFFFF04040FFFFFFFB6
:101A2600FFFFFFFFFFFFFFFF04040404FFFFFFFFAC
:101A3600FFFFFFFF0404040404040FFFFFFFFFFF82
:101A4600FFFFFFFF0404040404FFFFFFFFFFFFFF87
:101A5600FFFFFFFF1010FFFFFFFFFF040404040455
:101A6600040FFFFFFFFFFFFFFFFF0404040404044D
:101A7600040404FFFFFFFFFFFF040404FFFFFFFF52
:101A8600FF040404FFFFFFFF040404FFFFFFFFFF42
:101A9600FFFF04040FFFFFFF04040FFFFFFFFFFF1C
:101AA600FFFF04040FFFFFFFFF0404FFFFFFFFFF1C
:101AB600FFFFFFFFFFFFFFFFFF0404040404FFFF17
:101AC600FFFFFFFFFFFFFFFFFFFF04040404040402
:101AD6000404FFFFFFFFFFFFFFFFFFFFFF040404F7
:101AE6000404040FFFFFFFFFFFFFFFFFFFFFFFFFE1
:101AF600FF0404040FFFFF04040FFFFFFFFFFFFFB7
:101B0600FFFF04040FFFFFFF0404FFFFFFFFFFFFBB
:101B1600FFFF04040FFFFFFF04040FFFFFFFFFFF9B
:101B2600FFFF04040FFFFFFF04040404FFFFFFFF91
:101B3600FF040404FFFFFFFFFF040404040404047D
:101B4600040404FFFFFFFFFFFFFFFF040404040477
:101B5600040FFFFFFFFF1010FF04040FFFFFFFFF3E
:101B6600FFFFFF0404040404FF04040FFFFFFFFF4C
:101B7600FF04040404040404FF04040FFFFFFFFF32
:101B860004040404FFFFFFFFFF04040FFFFFFFFF31
:101B960004040FFFFFFFFFFFFF04040FFFFFFF0416
:101BA600040FFFFFFFFFFFFFFF04040FFFFFFF040B
:101BB60004FFFFFFFFFFFFFFFF04040FFFFFFF040B
:101BC60004FFFFFFFFFFFFFFFF04040FFFFF0404F6
:101BD60004FFFFFFFFFFFFFFFF04040FFFFF0404E6
:101BE6000FFFFFFFFFFF0404FF04040FFFFFFF04C6
:101BF60004FFFFFFFFFF0404FF04040FFFFFFF04C1
:101C060004FFFFFFFFFFFFFFFF04040FFFFFFF04BA
:101C1600040FFFFFFFFFFFFFFF04040FFFFFFFFF9F
:101C260004040FFFFFFFFFFFFF04040FFFFFFFFF8A
:101C360004040404FFFFFFFFFF04040FFFFFFFFF80
:101C4600FF04040404040404FF04040FFFFFFFFF61
:101C5600FFFFFFFF0404040410100404FFFFFFFF4E
:101C6600FFFFFF04040FFFFFFFFF0404040FFFFF45
:101C7600FFFFFF040404FFFFFFFFFF0404040FFF40
:101C8600FFFFFF0404040FFFFFFFFFFFFF0404FF35
:101C9600FFFFFF04040404FFFFFFFFFFFF04040F20
:101CA600FFFFFF040404040FFFFFFFFFFFFFFFFF1A
:101CB600FFFFFF0404FF04040FFFFFFFFFFFFFFF0A
:101CC600FFFFFF0404FFFF0404FFFFFFFFFFFFFF0A
:101CD600FFFFFF0404FFFF04040F040404040404CC
:101CE600FFFFFF0404FFFFFF0404040404040404CC
:101CF600FFFFFF0404FFFFFF0404FFFFFF040404CB
:101D0600FFFFFF0404FFFFFFFF04FFFFFF040404BF
:101D1600FFFFFF0404FFFFFFFFFFFFFFFF040404B4
:101D2600FFFFFF0404FFFFFFFFFFFFFF040404049F
:101D3600FFFFFF0404FFFFFFFFFF040404040FFF7F
:101D4600FFFFFF0404FFFFFFFFFF0404FFFFFFFF89
:101D5600FFFFFF0404FFFFFFFFFF1010FFFFFF045C
:101D660004FFFFFFFFFFFFFFFF040404FFFFFF0464
:101D760004FFFFFFFFFFFFFF04040404FFFFFF044F
:101D860004FFFFFFFFFFFFFF04040404FFFFFF043F
:101D960004FFFFFFFFFFFF040404FF04FFFFFF042F
:101DA60004FFFFFFFFFFFF04040FFF04FFFFFF0414
:101DB60004FFFFFFFFFFFF0404FFFFFFFFFFFF0419
:101DC60004FFFFFFFFFF04040FFFFFFFFFFFFF04F9
:101DD60004FFFFFFFFFF04040FFFFFFFFFFFFF04E9
:101DE60004FFFFFFFF040404FFFFFFFF0FFFFF04D4
:101DF60004FFFFFFFF04040404040404040FFF04AB
:101E060004FFFFFFFF040404040404040404FF04A5
:101E160004FFFFFF04040FFFFFFFFFFF04040F048E
:101E260004FFFFFF0404FFFFFFFFFFFFFF0404049E
:101E360004FFFF040404FFFFFFFFFFFFFFFF04048E
:101E460004FFFF04040FFFFFFFFFFFFFFFFF040473
:101E560004FFFF0404FFFFFFFFFFFFFF1010FFFF5B
:101E6600FFFFFFFFFFFF0404FFFFFFFFFFFF0FFF62
:101E7600FFFFFFFFFFFF0404FFFFFFFFFFFF0FFF52
:101E8600FFFFFFFFFFFF0404FFFFFFFFFFFF04FF4D
:101E9600FFFFFFFFFFFF0404FFFFFFFFFFFF040F2D
:101EA600FFFFFFFFFFFF0404FFFFFFFFFFFF040428
:101EB600FFFFFFFFFFFF0404FFFFFFFFFFFF040418
:101EC6000FFFFFFFFFFF0404FFFFFFFFFFFF0404F8
:101ED6000FFFFFFFFFFF0404FFFFFFFFFFFFFF04ED
:101EE60004FFFFFFFFFF0404FFFFFFFFFFFF0404E3
:101EF600040FFFFFFFFF0404FFFFFFFFFFFF0404C3
:101F06000404FFFFFFFF0404FFFFFFFFFFFFFFFFC7
:101F160004040FFFFFFF0404FFFFFFFFFFFFFFFFA7
:101F260004040FFFFFFF0404FFFFFFFFFFFFFFFF97
:101F3600FF0404FFFFFF0404FFFFFFFFFFFFFFFF97
:101F4600FF04040FFFFF0404040404040404FFFF59
:101F5600FFFF0404FFFF0404040404040404101037
:101F6600FFFFFFFFFF000000000000FFFFFFFFFF75
:101F7600FFFFFF00000002020202000000FFFFFF59
:101F8600FFFF000002020202020202020000FFFF3F
:101F9600FF0000020202000000000002020000FF33
:101FA600FF0002020200FFFFFFFF0000020200FF27
:101FB600FF00020202020000FFFFFF00000000FF18
:101FC600FF000002020202020000FFFFFFFFFFFF08
:101FD600FFFF0000000002020202000000FFFFFFF8
:101FE600FFFFFFFFFF00000002020202020000FFE7
:101FF600FFFFFFFFFFFFFF0000000202020200FFDB
:10200600FF00000000FFFFFFFF000000020200FFCC
:10201600FF0002020000FFFFFFFF0000020200FFB8
:10202600FF0000020200000000000002020000FFA4
:10203600FFFF000002020202020202020000FFFF8E
:10204600FFFFFF00000002020202020000FFFFFF86
:10205600FFFFFFFFFF00000000000000FFFFFFFF83
:10206600101000000000000000000000000000004A
:10207600000000010101010101010101010101014D
:10208600010000010101010101010101010101013C
:10209600010000010101010101010101010101012C
:1020A6000100000000000000010101010000000025
:1020B6000000FFFFFFFFFF000101010100FFFFFF1E
:1020C600FFFFFFFFFFFFFF000101010100FFFFFF10
:1020D600FFFFFFFFFFFFFF000101010100FFFFFF00
:1020E600FFFFFFFFFFFFFF000101010100FFFFFFF0
:1020F600FFFFFFFFFFFFFF000101010100FFFFFFE0
:10210600FFFFFFFFFFFFFF000101010100FFFFFFCF
:10211600FFFFFFFFFFFFFF000101010100FFFFFFBF
:10212600FFFFFFFFFFFFFF000101010100FFFFFFAF
:10213600FFFFFFFFFFFFFF000101010100FFFFFF9F
:10214600FFFFFFFFFFFFFF000101010100FFFFFF8F
:10215600FFFFFFFFFFFFFF000000000000FFFFFF83
:10216600FFFF1010FFFFFFFFFFFFFFFFFFFFFFFF57
:10217600FFFFFFFFFFFFFFFFFFFFFFFFFFFFFFFF69
:10218600FFFFFFFFFFFFFFFFFFFFFFFFFFFFFFFF59
:10219600FFFFFFFFFFFFFFFFFFFFFFFFFFFFFFFF49
:1021A600FFFFFFFFFFFFFFFFFFFFFFFFFFFFFFFF39
:1021B600FFFFFFFFFFFFFFFFFFFFFFFFFFFFFFFF29
:1021C600FFFFFFFFFFFFFFFFFFFFFFFFFFFFFFFF19
:1021D600FFFFFFFFFFFFFFFFFFFFFFFFFFFFFFFF09
:1021E600FFFFFFFF1010FFFFFFFFFFFFFFFFFFFFD7
:1021F600FFFFFFFFFFFFFFFFFFFFFFFFFFFFFFFFE9
:10220600FFFFFFFFFFFFFFFFFFFFFFFFFFFFFFFFD8
:10221600FFFFFFFFFFFFFFFFFFFFFFFFFFFFFFFFC8
:10222600FFFFFFFFFFFFFFFFFFFFFFFFFFFFFFFFB8
:10223600FFFFFFFFFFFFFFFFFFFFFFFFFFFFFFFFA8
:10224600FFFFFFFFFFFFFFFFFFFFFFFFFFFFFFFF98
:10225600FFFFFFFFFFFFFFFFFFFFFFFFFFFFFFFF88
:10226600FFFFFFFFFFFF1010FFFFFFFFFFFFFFFF56
:10227600FFFFFFFFFFFFFFFFFFFFFFFFFFFFFFFF68
:10228600FFFFFFFFFFFFFFFFFFFFFFFFFFFFFFFF58
:10229600FFFFFFFFFFFFFFFFFFFFFFFFFFFFFFFF48
:1022A600FFFFFFFFFFFFFFFFFFFFFFFFFFFFFFFF38
:1022B600FFFFFFFFFFFFFFFFFFFFFFFFFFFFFFFF28
:1022C600FFFFFFFFFFFFFFFFFFFFFFFFFFFFFFFF18
:1022D600FFFFFFFFFFFFFFFFFFFFFFFFFFFFFFFF08
:1022E600FFFFFFFFFFFFFFFF1010FFFFFFFFFFFFD6
:1022F600FFFFFFFFFFFFFFFFFFFFFFFFFFFFFFFFE8
:10230600FFFFFFFFFFFFFFFFFFFFFFFFFFFFFFFFD7
:10231600FFFFFFFFFFFFFFFFFFFFFFFFFFFFFFFFC7
:10232600FFFFFFFFFFFFFFFFFFFFFFFFFFFFFFFFB7
:10233600FFFFFFFFFFFFFFFFFFFFFFFFFFFFFFFFA7
:10234600FFFFFFFFFFFFFFFFFFFFFFFFFFFFFFFF97
:10235600FFFFFFFFFFFFFFFFFFFFFFFFFFFFFFFF87
:10236600FFFFFFFFFFFFFFFFFFFF1010FFFFFFFF55
:10237600FFFFFFFFFFFFFFFFFFFFFFFFFFFFFFFF67
:10238600FFFFFFFFFFFFFFFFFFFFFFFFFFFFFFFF57
:10239600FFFFFFFFFFFFFFFFFFFFFFFFFFFFFFFF47
:1023A600FFFFFFFFFFFFFFFFFFFFFFFFFFFFFFFF37
:1023B600FFFFFFFFFFFFFFFFFFFFFFFFFFFFFFFF27
:1023C600FFFFFFFFFFFFFFFFFFFFFFFFFFFFFFFF17
:1023D600FFFFFFFFFFFFFFFFFFFFFFFFFFFFFFFF07
:1023E600FFFFFFFFFFFFFFFFFFFFFFFF1010FFFFD5
:1023F600FF0000FFFFFFFFFFF000000FFFFFFFFFE2
:1024060000222200FFFFFFFF00222200FFFFFFF055
:10241600022002200FFFFFF0022002200FFFFF0024
:102426002200002200FFFF00220FF02200FFF00230
:10243600200FF002200FF00220000002200F0022E1
:1024460022222222220000222222222222000022EE
:10245600000000002200002200FFFF0022000022F0
:1024660000FFFF002200000000FFFF000000101028
:1024760000000000000000FF022222222222000F9C
:102486000222222222222000000220000022220014
:10249600F00220FFF0022200F00220FFF0022200EC
:1024A600F00220000022200FF0022222222200FF4A
:1024B600F0022222222200FFF00220000022200F3A
:1024C600F00220FFF0022200F00220FFF0022200BC
:1024D60000022000002222000222222222222000C4
:1024E600022222222222000F00000000000000FF2C
:1024F60010101010101010101010101010101010D6
:062506001010101010106F
:1081030078B6E2FB08E2FA08E2F9124067FF7898D2
:10811300E22F78D7F222F278B6E2FB0808E2F924DC
:1081230001F218E2FA3400F202404E78B6E2FB089C
:10813300E2FA08E2F922E22401F218E23400F22220
:0587F900E47898F22273
:0A666D0078AEEFF208ECF208EDF24F
:1066770078AEE2FF25E0F2E22408F278B5F278AFCF
:10668700E2FE08E27803C333CE33CED8F979B0F30C
:10669700EE19F378B0E2240812813CAF037E007C48
:1066A700017D021240A674262FF974003EFA78B6CF
:1066B70074FFF208EAF208E912811978B112811918
:1066C70078B2F2E408F278B1E2FF78B3E2C39F4010
:1066D7000302678FE408F278B2E2FF78B4E2C39F5F
:1066E700400302677C12812E12404E128110E4FB98
:1066F7007D02FF12843C9000011281037B01126727
:10670700B79000021281037B021267B712812E90A5
:10671700000312810D7B031267BF78D77480F27B69
:10672700041267BF78B8E2240412813C78B5E27896
:10673700D7F27B051267D208E278D7F27B07126798
:10674700D2E27E007802C333CE33CED8F9126790F7
:106757001267C720E7FA78AFE225E025E044081280
:1067670067901267C720E7FA78B5E204F218E224C7
:1067770004F20266DE78AEE278B5F278B0128139BB
:0867870078B3E204F20266CDD2
:10678F002278D7F27B097D02E4FF12843C7B0A7DDD
:10679F0002E4FF12830CEF543F448078D7F27B0A58
:1067AF007D02E4FF12843C227D02E4FF12843C222E
:1067BF007D02E4FF12843C227B0A7D02E4FF1283F8
:0D67CF000CEF227D02E4FF12843C78AF2223
:0A7AFD0078A7EFF208EDF208EBF2B3
:107B07000812813012000E78ADEFF2C364809480C2
:107B1700404278A7E230E02F78A8E2FF08E2FD7C38
:107B2700000812813012404EFB12666D78ADE214E8
:107B3700F21812813978A8E22402F278ADE2D36410
:107B470080948050D3800A78ADE2D36480948050CB
:047B5700F612880496
:017B5B002207
:1085D2000500000600000700000800000900000A6C
:1085E20000001F000020000B000C000D000E000F09
:0585F20010111212003F
:0387E20001210072
:107714007856E275F003A424D2F9748535F0FA782A
:10772400AA74FFF208EAF208E9F22278A4900001B0
:10773400E2FB08E2FA08E2F902406778A4E2FB08F7
:10774400E2FA08E2F92278AA74FFF2087485F208D2
:1077540074DEF22278AA74FFF2087485F20874EFDA
:10776400F2227852E2FD7C007B012290000202406A
:107774006712404E540C1313543FF527227B017DAE
:107784000F7C00227B017D127C00229000030240CA
:10779400677852E2FB7D1C227852E2FB7F01227B58
:0677A400FE7A00795B2271
:107E4D00126D0E1287F97F041287FE7F03128801CF
:107E5D00E4F527AF27127E820527E527C394064058
:107E6D00F27F011282D77FFF1288017F08127E8276
:047E7D00E47853F260
:107E81002212861A78A8E4F2087426F27B5AE4FDDD
:067E9100FCFF1275DF2268
:104F160078A4EB1277277F021287FE7FFF128801A3
:104F26007855E21241B04F5A114F70214F96224FD9
:104F3600BA314FF733502E3450654150B19150C6B7
:104F4600A150ECA25112B1514BB35184B451BAC124
:104F56000000520B78A412774112404E20E1030262
:104F6600520B127714E4FB0250E778A41277411231
:104F7600404E30E1081277147D2912524812772FDD
:104F860020E10302520B78571277167B0F0250E787
:104F960078A412774112404E30E10612771412526D
:104FA6000C12772F20E10302520B7857127716E482
:104FB600FB02510D78A412774112404E30E10C12DB
:104FC6007714E4FB7D297F01127AFD12772F30E1F9
:104FD60008785712771612525078A490000212776A
:104FE6003420E10302520B78581277167B0F0251D8
:104FF6000D78A412774112404E30E1061277141252
:10500600520C12772F30E108785712771612523465
:1050160078A412774112776F20E10302520B785879
:105026001277167B0F02510D78A412774112404E6B
:1050360030E10612771412522012772F30E10878E9
:105046005712771612523478A412774112776F20CE
:10505600E10302520B78581277167B0F0251B5788E
:10506600A412774112404E30E106127714125220F4
:1050760012772F30E10A78571277167D3E12524882
:1050860078A412774112776F30E1087858127716B4
:1050960012525078A412774112778F20E103025200
:1050A6000B78591277167B0F02510D78A4127741AF
:1050B60012404E20E10302520B1277147B0180212D
:1050C60078A412774112404E30E10612771412523C
:1050D6003E12772F20E10302520B78571277167B88
:1050E600127D2902520678A412774112404E30E111
:1050F6000612771412521612772F20E10302520B72
:1051060078571277167B017D3E02520678A41277F5
:105116004112404E30E10612771412523E12772F9A
:1051260030E108785712771612526478A412774144
:1051360012776F20E10302520B78581277167B1212
:105146007D3E02520678A412774112404E30E106A7
:1051560012771412521612772F30E1087857127709
:105166001612525A78A412774112776F20E1030281
:10517600520B78581277167B127D3E02520678A49F
:1051860012774112404E30E10612771412522A125B
:10519600772F30E108785712771612525A78A412F0
:1051A600774112776F30E15D78581277167B127D62
:1051B6001402520678A412774112404E30E10612CC
:1051C600771412522A12772F30E10E78571277167B
:1051D6007B017D3E7F01127AFD78A412774112771A
:1051E6006F30E108785812771612526478A4127755
:1051F6004112778F30E10E78591277167B127D3E79
:105206007F01127AFD22E4FB7D147F01127AFD22D2
:105216007B017D147F01127AFD22E4FB7D147F0160
:10522600127AFD227B017D147F01127AFD22E4FBB6
:105236007D3E7F01127AFD227B017D297F01127A54
:10524600FD22E4FB7F01127AFD227B0F7D147F0194
:10525600127AFD227B017D3E7F01127AFD227B12AE
:085266007D147F01127AFD2284
:0787E6007854E24480F22206
:1082A2007B787D01E4FF12830CEF540FFF7863F2B9
:1082B2007854E26F601ED2217B31E4FDFF12830C01
:1082C200EF547F78D7F27B31E4FDFF12843C786370
:0582D200E27854F222E5
:065AEF0078A4EB127727FA
:105AF5007F411287FE7855E21241B05B28115B5653
:105B0500215BA4225BFC315C3F335C7F345B2891D5
:105B15005B56A15BA4A25BFCB15C3FB35C7FB400A8
:105B2500005CF678A41277411277756003025C0673
:105B35001277667F3112753E78A412774112404E76
:105B450030E503025C287853E26003025CF6025CF0
:105B55003678A4127741127775600B125D181277AB
:105B6500221277958012127766125D7312774112B1
:105B7500404E30E50A125CF77F01127AFD800E78FF
:105B850053E27009181277687F0112753E78A412E6
:105B9500773112777878526003025C8B025BF47878
:105BA500A4127741127775600B125D1812772212D5
:105BB50077958012127766125D7312774112404E07
:105BC50030E50A125CF77F01127AFD800E7853E208
:105BD5007009181277687F0112753E78A412773123
:105BE50012777860087B02E4FDFC025C9278521221
:105BF50077687F46025CF378A41277411277756067
:105C05000F125D561277227852E2FB7D31025CE37A
:105C15001277667F3112753E78A412774112404E95
:105C250030E506125D35025CE37853E26003025C01
:105C3500F6181277687F01025CF378A41277411297
:105C45007775600C125D56127722127795025CE328
:105C55001277667F1C12753E78A412774112404E6A
:105C650030E506125D35025CE37853E26003025CC1
:105C7500F6181277687F01025CF378A41277311267
:105C8500777860277852E2FD7C007B02E4FF12758D
:105C95003EE52725E0FFE433FE74E72FF974853EE2
:105CA5001277227852E2FB7D4680331277667F4673
:105CB50012753E78A412774112404E30E525785290
:105CC500E2FD7C007B02E4FF12753E78AA74FFF2C8
:105CD500087485F20874E7F27852E2FB7D017F01D2
:105CE500027AFD7853E27009181277687F01127500
:015CF5003E70
:105CF600227852E2FD7C007B02E4FF12753E78AA10
:105D060074FFF2087485F20874E7F27852E2FB7DBC
:105D160001227852E2FD7C007B02E4FF12753EE52B
:105D26002725E0FFE433FE74E72FF974853E2278D9
:105D360052E2FD7C007B02E4FF12753E78AA74FFF6
:105D4600F2087485F20874E7F27852E2FB7D0122CC
:105D56007852E2FD7C007B02E4FF12753EE52725C2
:105D6600E0FFE433FE74E72FF974853E227F1C12B0
:055D7600753E78A42237
:1037FF0078A4EB1277277F0C1287FE7855E21241DF
:10380F00B0383E11385621387B2238A63138E43390
:10381F00391D34395C4139C09139D7A13A0AA23ADE
:10382F003FB13A8BB33AD7B43B26C100003B92125B
:10383F00773F12404E30E00712774AE40239CF7BD0
:10384F0001E4FDFC023A0512773F12404E30E008CA
:10385F0012774A123C0C8003123BF778A41277318F
:10386F0030E0030239F8127781023A0512773F12DE
:10387F00404E30E00812774A123BAB8003123BCB2D
:10388F0078A412773130E00712774AE4023A317B9D
:10389F0001E4FDFC023A3A12773F12404E30E00845
:1038AF0012774A123C0C8003123BF778A41277313F
:1038BF0030E00812774A123C0280081277817F1796
:1038CF0012753E12773F12776F30E0030239B21252
:1038DF007781023A3A12773F12404E30E008127762
:1038EF004A123BAB8003123BCB78A412773130E006
:1038FF000812774A123BED8003123BD612773F1224
:10390F00776F30E0030239B2127781023A3A1277B9
:10391F003F12404E30E00812774A123BB580031237
:10392F003C1678A412773130E00812774A123BED3B
:10393F008003123BD612773F12776F30E008127771
:10394F004A7B0F023B167B017D0F023B1F12773F15
:10395F0012404E30E00812774A123BB58003123CFA
:10396F001678A412773130E00E12774AE4FB7D41CE
:10397F007F01127AFD800A7B01E4FDFC7F41127505
:10398F003E12773F12776F30E00812774A123C02EF
:10399F0080081277817F1712753E12773F12778F4B
:1039AF0030E00812774A7B0F023A32127781023ADF
:1039BF003A12773F12404E30E00912774A7852E2BE
:1039CF00FB802B127766802E12773F12404E30E02D
:1039DF000812774A123BE180081277667F2C127526
:1039EF003E78A412773130E00A12774A7B0F7D2C94
:1039FF00023B851277817F2C023B8F12773F12405B
:103A0F004E30E00812774A123B9380081277667F98
:103A1F001712753E78A412773130E00C12774A787E
:103A2F0052E2FB7D41023B851277667F41023B8F5D
:103A3F0012773F12404E30E00812774A123BE18076
:103A4F00081277667F2C12753E78A412773130E01A
:103A5F000812774A123C2180081277887F17127557
:103A6F003E12773F12776F30E00A12774A7B127D52
:103A7F0041023B851277887F41023B8F12773F12BD
:103A8F00404E30E00812774A123B93800812776657
:103A9F007F1712753E78A412773130E00812774AFB
:103AAF00123BBF80081277667F4112753E12773F37
:103ABF0012776F30E00A12774A7B127D41023B8505
:103ACF001277887F41023B8F12773F12404E30E0D2
:103ADF000812774A123B9F80081277667F1712757C
:103AEF003E78A412773130E00812774A123BBF803C
:103AFF00081277667F4112753E12773F12776F304B
:103B0F00E00A12774A7B127D17023B857B017D12FB
:103B1F007C007F17023B8F12773F12404E30E00838
:103B2F0012774A123B9F80081277667F1712753EF5
:103B3F0078A412773130E00D12774A7D4112779CCD
:103B4F00127AFD80081277667F4112753E12773F19
:103B5F0012776F30E00812774A123C2180081277F3
:103B6F00887F1712753E12773F12778F30E00C1255
:103B7F00774A7B127D417F01027AFD1277887F4160
:103B8F0012753E227852E2FB7D177F01127AFD22D9
:103B9F007852E2FB7D177F01127AFD22E4FB7D173D
:103BAF007F01127AFD22E4FB7D177F01127AFD223D
:103BBF007852E2FB7D417F01127AFD227B01E4FD09
:103BCF00FC7F1712753E227B01E4FDFC7F411275CD
:103BDF003E227852E2FB7D2C7F01127AFD22E4FB1C
:103BEF007D417F01127AFD227B01E4FDFC7F2C12C7
:103BFF00753E227B0F7D177F01127AFD22E4FB7D3C
:103C0F002C7F01127AFD227B01E4FDFC7F171275D8
:0C3C1F003E227B127D177F01127AFD22ED
:103C2B0078A4EB1277277F021287FE7855E21241B8
:103C3B00B03C67113C7C213CAA223CD7313D193367
:103C4B003D56343D99413DF6913E15A23E4CB13E59
:103C5B00A1B33EF1B43F3FC100003FAC78A4127753
:103C6B004112404E30E40280297B01E4FDFC023E10
:103C7B001078A412774112404E30E4081277581294
:103C8B004010800312400578A412774112404E3049
:103C9B00E407127758E4023E07127781023E107850
:103CAB00A412774112404E30E408127758123FC5E8
:103CBB008003123FD978A412773130E4071277587A
:103CCB00E4023E3E7B01E4FDFC023E4778A4127702
:103CDB004112404E30E40812775812401080031204
:103CEB00400578A412773130E4081277581240253A
:103CFB0080081277817F1F12753E78A412774112CC
:103D0B00776F30E403023DE8127781023E4778A4D7
:103D1B0012774112404E30E408127758123FC5809B
:103D2B0003123FD978A412773130E4081277581276
:103D3B003FFB8003123FE478A412774112776F3078
:103D4B00E403023DE8127781023E4778A4127741E3
:103D5B0012404E30E408127758123FCF80031240C6
:103D6B001A78A412773130E408127758123FFB808F
:103D7B0003123FE478A412774112776F30E40812F4
:103D8B0077587B0F023F2F7B017D0F023F3878A4C2
:103D9B0012774112404E30E408127758123FCF8011
:103DAB000312401A78A412773130E40812775812B4
:103DBB00402F800312403978A412774112776F306D
:103DCB00E40812775812402580081277817F1F1262
:103DDB00753E78A412774112778F30E4081277582A
:103DEB007B0F023E3F127781023E4778A412774148
:103DFB0012404E30E40C1277587852E2FB7D3402BD
:103E0B003F9F1277667F34023FA978A41277411245
:103E1B00404E30E408127758123FAD800812776697
:103E2B007F1F12753E78A412773130E40C1277584D
:103E3B007852E2FB7D49023F9F1277667F49023F32
:103E4B00A978A412774112404E30E40D1277587DB9
:103E5B003412779C127AFD80081277667F341275C4
:103E6B003E78A412773130E4081277581240448020
:103E7B00081277887F1F12753E78A412774112774C
:103E8B006F30E40A1277587B127D49023F9F1277FD
:103E9B00887F49023FA978A412774112404E30E443
:103EAB0008127758123FAD80081277667F1F127584
:103EBB003E78A412773130E408127758123FEF8026
:103ECB00081277667F4912753E78A41277411277F4
:103EDB006F30E40A1277587B127D49023F9F1277AD
:103EEB00887F49023FA978A412774112404E30E4F3
:103EFB0008127758123FB980081277667F1F127528
:103F0B003E78A412773130E40812775812402F8094
:103F1B000312403978A412774112776F30E40A12FA
:103F2B0077587B127D1F023F9F7B017D127C007FA8
:103F3B001F023FA978A412774112404E30E40812B9
:103F4B007758123FB980081277667F1F12753E783B
:103F5B00A412773130E408127758123FEF80081221
:103F6B0077667F4912753E78A412774112776F30CE
:103F7B00E40812775812404480081277887F1F128A
:103F8B00753E78A412774112778F30E40C12775874
:103F9B007B127D497F01027AFD1277887F4912756A
:103FAB003E227852E2FB7D1F7F01127AFD2278526E
:103FBB00E2FB7D1F7F01127AFD22E4FB7D1F7F0157
:103FCB00127AFD22E4FB7D1F7F01127AFD227B0119
:103FDB00E4FDFC7F1F12753E227B01E4FDFC7F4953
:103FEB0012753E227852E2FB7D497F01127AFD2247
:103FFB00E4FB7D497F01127AFD227B01E4FDFC7F0E
:10400B003412753E22E4FB7D347F01127AFD227B54
:10401B0001E4FDFC7F1F12753E227B0F7D1F7F018C
:10402B00127AFD22E4FB7D497F01127AFD227B018E
:10403B00E4FDFC7F4912753E227B127D1F7F01122E
:03404B007AFD22D9
:107FB400E4FF12861A7853E224FE600E0470251240
:107FC4007FE97485F20874E18009127FE97485F20F
:107FD4000874E4F27852E2FB7D017F01127AFD7F9E
:107FE400FF128801227F031288017F041287FE7822
:067FF400AA74FFF208224E
:1085AD00E4FF12861A785BE230E1121277A31237DC
:1085BD00FF1277A3123C2B1277A3125AEF1287E604
:0585CD00E4FF0282D76B
:10250C0000000000000000000000000000000000BF
:10251C0000000000000000000000000000000000AF
:10252C00003E007E00FE01CE038E7F8E7F8E738E6A
:10253C00738E738E7F8E7F8E01CE00FE007E003EEA
:10254C0000000000020006000E001E003FFE7FFE91
:10255C007FFE3FFE1E000E00060002000000000081
:10256C000000000000400060007000787FFC7FFEDF
:10257C007FFE7FFC007800700060004000000000CF
:10258C00000003C003C003C003C003C003C003C0EA
:10259C0003C03FFC1FF80FF007E003C001800000F0
:1025AC0003C003C007E007E00E700E701C381C3827
:1025BC00381C381C7FFE7FFE700E700E700E700E75
:1025CC007FF87FFC383E381E381E381E383C3FF8EA
:1025DC003FF8383C381E381E381E383E7FFC7FF8DA
:1025EC000FF81FFC3C1C380E780E700E700070003B
:1025FC0070007000700E700E380E3C1C1FFC0FF833
:10260C007FF07FF07078703C703C703C70787FF09D
:10261C007FE0778073C071E070F07078703C701E52
:10262C0000006006700E781E7C3E7FFE77EE73CE47
:10263C00718E700E700E700E700E700E700E700E1D
:10264C0000001FF81FF800E000E000E000E000E0F0
:10265C0000E000E000E070E079E03FC01F800F0078
:10266C0000000000000003C007800F001E003FFCAC
:10267C003FFC1E000F00078003C00000000000009C
:10268C0000000000000003C001E000F000783FFCF7
:10269C003FFC007800F001E003C0000000000000E7
:1026AC0000000000018001800180018011881998D0
:1026BC001DB81FF80FF007E003C0018000000000F8
:1026CC00003E007E00FE01CE038E7F8E7F8E738EC9
:1026DC00738E738E7F8E7F8E01CE00FE007E003E49
:1026EC00700E700E700E700E700E700E781E381C00
:1026FC00381C1C381C380E700FF007E003C001802A
:10270C000000380038003800380038003800380035
:10271C0038003800380038063806380E3FFE3FFEC9
:10272C000000000000000000000003800FE01C709F
:10273C00183038383838383818301C700FE00380AF
:10274C000000000000000000000003C00FF01C3867
:10275C001C000F0007E000F000381C380FF003C01D
:10276C00000000000000000000000000000000005D
:10277C00000000000000000000000000000000004D
:10278C00000000000000000000000000000000003D
:10279C00000000000000000000000000000000002D
:1027AC00000000000000000000000000000000001D
:1027BC00000000000000000000000000000000000D
:1027CC0000000000000000000000000000000000FD
:1027DC0000000000000000000000000000000000ED
:1027EC0000000000000000000000000000000000DD
:1027FC0000000000000000000000000000000000CD
:10280C0000000000000000000000000000000000BC
:10281C0000000000000000000000000000000000AC
:10282C00000000000000000000000000000000009C
:10283C00000000000000000000000000000000008C
:10284C00000000000000000000000000000000007C
:10285C00000000000000000000000000000000006C
:10286C00000000000000000000000000000000005C
:10287C00000000000000000000000000000000004C
:10288C00000000000000000000000000000000003C
:10289C00000000000000000000000000000000002C
:1028AC00000000000000000000000000000000001C
:1028BC00000000000000000000000000000000000C
:1028CC0000000000000000000000000000000000FC
:1028DC0000000000000000000000000000000000EC
:1028EC0000000000000000000000000000000000DC
:1028FC0000000000000000000000000000000000CC
:10290C0000000000000000000000000000000000BB
:10291C0000000000000000000000000000000000AB
:10292C00000007000F800F800F800F80070007004A
:10293C00070002000200000002000700070002006E
:10294C000000EE006600440088000000000000005B
:10295C00000000000000000000000000000000006B
:10296C00000008200820082008203FF80820082034
:10297C000820082008203FF80820082008200820FC
:10298C0000000FC01B603330333033001B000F00CE
:10299C0003C0036013303B3033301B600FC00300A7
:1029AC000000380844108420044004800900127090
:1029BC00E4880908120822084210822001C0000095
:1029CC0000000E001B00318031801B000E001C002B
:1029DC003678632061A060E0606030F01F9C0000DE
:1029EC0000000000000000000000000000000000DB
:1029FC00000000000000800060007000380018002B
:102A0C0000000004000800180010003000300030F6
:102A1C0000300030003000100018000800040002E4
:102A2C0000008000400060002000300030003000CA
:102A3C0030003000300020006000400080000000BA
:102A4C00000002004210222012400A800700FFFC06
:102A5C0007000A80124022204210020002000000EF
:102A6C0000000000030003000300030003007FF8D4
:102A7C007FF80300030003000300030000000000C4
:102A8C00000000000000000000000000000000003A
:102A9C00000018003C003C00180010002000400012
:102AAC0000000000000000000000000000007FF8A3
:102ABC007FF8000000000000000000000000000093
:102ACC0000000000000000000000000000000000FA
:102ADC00000000000000780084008400840078006E
:102AEC00000000180030006000C0018003000600E8
:102AFC000C00180030006000C000800000000000D6
:102B0C0000000FE0183030183038307830D8319859
:102B1C00331836183C183818301818300FE00000ED
:102B2C000000030007000F00030003000300030074
:102B3C000300030003000300030003001FE0000078
:102B4C0000000FE01830301830183038007001C019
:102B5C0003000E001800300830083FF83FF8000062
:102B6C00000007C0183030183018003000E003C0E7
:102B7C0000E00030001830183018183007C0000082
:102B8C00000000C001C003C006C00CC018C030C09B
:102B9C0060C0C0C0C0C0FFF800C000C003F000009F
:102BAC0000003FF03FF030003000300037C03830CC
:102BBC0030180018001830183018183007C00000F2
:102BCC00000007E01830303030003000300037E0C3
:102BDC003830301830183018301818300FC000004A
:102BEC0000003FF83FF8201820180030006000C0AB
:102BFC000180030003000300030003000300000036
:102C0C0000000780186030303030303018600FC052
:102C1C001860303060186018601830300FC0000039
:102C2C0000000780186030303018301830183038F9
:102C3C00187807980018303038301860078000007A
:102C4C0000000000000000000300078003000000EB
:102C5C0000000300078003000000000000000000DB
:102C6C0000000000000000000300078003000000CB
:102C7C0000000300078003800180070000000000B3
:102C8C0000000000001800600180060018006000C1
:102C9C008000600018000600018000600018000031
:102CAC00000000000000000000007FF87FF800002A
:102CBC0000007FF87FF8000000000000000000001A
:102CCC000000800060001800060001800060001801
:102CDC0000040018006001800600180060008000ED
:102CEC00000007800FC01CE038E038E011C0018004
:102CFC0003000300020002000000020007000700AE
:102D0C0000000FC030604010478888C890C890C839
:102D1C0090C890C888D84770400830700FC0000029
:102D2C00000003000300078007800CC00CC0186073
:102D3C0018601FE03030303060186018F03C000034
:102D4C0000003F80186018301830183018601FC011
:102D5C001860183018181818181818303FC00000D0
:102D6C000000078818683038601860086000600040
:102D7C006000600060086018303018600780000048
:102D8C0000007F8030E030383018301830183018A0
:102D9C003018301830183018303030E07F80000098
:102DAC0000003FF0183018101800188018801F8091
:102DBC001880188018001800181018303FF0000008
:102DCC0000003FF0183018101800188018801F8071
:102DDC001880188018001800180018003C0000001B
:102DEC0000000F90187030306010601060006000B0
:102DFC006078603060306030307018F00FB00000D8
:102E0C0000007878303030303030303030303FF0B7
:102E1C003030303030303030303030307878000076
:102E2C0000000FC0030003000300030003000300B5
:102E3C000300030003000300030003000FC00000A5
:102E4C00000001F000600060006000600060006045
:102E5C00006000603060306030E019C00F0000008E
:102E6C00000078F8306030C03180330036003C0010
:102E7C003E003300318030C030603030787C000050
:102E8C0000003C001800180018001800180018006A
:102E9C001800180018001808181818383FF8000007
:102EAC000000E03CE038F078F078D8D8D8D8C89852
:102EBC00CD98CD98C518C718C218C018E07C000072
:102ECC000000C078E030F030F830DC30CE30C73065
:102EDC00C3B0C1F0C0F0C070C030C030E0780000AA
:102EEC0000000FC0387070386018601860186018D7
:102EFC006018601860186018703838700FC00000C7
:102F0C0000003FC0187018381818181818381870A6
:102F1C001FC0180018001800180018003C00000012
:102F2C0000001F8070E0E070C030C030C030C03096
:102F3C00C030C030C030CF30E1F070E01FEC003852
:102F4C0000003F8018E0187018301830187018E026
:102F5C001FC01B80198018C0186018303C7C000002
:102F6C0000000FD018703030301018000E000380A5
:102F7C0000E000302018301838182C3027E0000002
:102F8C0000007FF873386318430803000300030044
:102F9C00030003000300030003000300078000008C
:102FAC0000007878303030303030303030303030E5
:102FBC00303030303030303030301CE00FC000005A
:102FCC000000F0786030603060306030603060302D
:102FDC0060306030306018C00D80070002000000C7
:102FEC000000C71C82088208C718471845104510F6
:102FFC006DB06DB028A038E01040104010400000BB
:10300C000000F07C6030306018C008800D80070034
:10301C00020007000D8018C030606030F07C0000AA
:10302C000000F03C6018303018600CC007800300C2
:10303C0003000300030003000300030007800000EB
:10304C0000003FF8301820180030006000C00180EC
:10305C00030006000C001800300860187FF8000010
:10306C000000001C00300060006000600060006028
:10307C000060006000600060006000600030001CB8
:10308C0000008000C0006000300018000C0006003A
:10309C000300018000C0006000300018000C000428
:1030AC000000E0003000180018001800180018008C
:1030BC001800180018001800180018003000E00064
:1030CC0000000000000000000000000000000000F4
:1030DC00020007000D8018C07070C01C00000000BA
:1030EC0000000000000000000000000000000000D4
:1030FC000000000000000000000000000000FFFEC7
:10310C0000000E00070001800040000000000000DD
:10311C0000000000000000000000000000000000A3
:10312C000000000000000000000000000F8030C014
:10313C0000C00FC018C030C030C031D01F600000BC
:10314C000000380018001800180018001FC01C6080
:10315C00183018301830183018301C603FC0000080
