:030000000281D6A4
:0C81D600787FE4F6D8FD75813502821D2B
:0C91A000E204F2E2C39450748094802238
:10915400D2BCD2AC758DF4D28EE47850F208F222EF
:0F9164007850E2FF08E2B507037F00227F012267
:10908B00C2AC7850E22400F8E2FF78501291A04075
:05909B0002E4F2D2AC7A
:0190A00022AD
:080003003099FD8F99C299228A
:03002300028F8EBB
:108F8E00C0E0C0D075D008309814C2987851E22451
:108F9E0000F8E599F278511291A04002E4F2D0D097
:038FAE00D0E032DE
:108EA40078ABE2FB08E2FA08E2F922C2B6C2B7756F
:108EB40090F6AF038F80D293C29322C291D2917560
:088EC40090F67580FFD2AF2289
:10900D00E478D8F27EFFC2AF7590F6C2B6C2B78EC5
:0A901D0080D293C2938F80128EBFA1
:019027002226
:10910900C2AFAF0512900D128EAF78D7E2F580127B
:039119008EBF22E4
:108BE500AC03C2AFAF0512900DC2B6C2B77590F611
:108BF500AF040C128EB878A9E2FB0808E2F924014B
:108C0500F218E2FA3400F2124BE3F580C291D291E8
:0B8C150078ACE214F270D9128EC3227A
:02902800AC0793
:10902A00C2AFAF0512900D128EAF7580FFC292AF1C
:08903A0080D2927590F6D2AFCE
:01904200220B
:1085E20078ABEBF208EAF208E9F2128EA4124C4DD3
:1085F200F47003E5F0F4603E128EA4124C4DFBAA17
:10860200F0EAFDE4FF129028128EA4900002124BB1
:10861200FCFC6F6014128EA4124C4DFBAAF0EAFD12
:1086220078D7ECF2E4FF12910978ADE22403F21854
:07863200E23400F280B422E3
:0191F9002253
:105D89002562782025627820256278000A3C523EF7
:105D990025303262785B25303262785D3D253032BC
:105DA90062780025627820256278002562782025AE
:105DB9006278202562782025627820002531627872
:105DC900202531627820253162782000526561648E
:105DD9004173696342797465203D3D2025627820CD
:105DE9000A0063682562643A2562642000636825B5
:105DF90062643A2562642063682562643A256264B4
:105E0900200063682562643A25626420636825621C
:105E1900643A2562642063682562643A25626420D5
:105E29000063682562643A256264206368256264B8
:105E39003A2562642063682562643A2562642063B6
:105E4900682562643A256264200063682562643AC1
:105E59002562642063682562643A25626420636868
:105E69002562643A2562642063682562643A256282
:105E7900642063682562643A2562642000256264AF
:105E890020000A203D3D3D3D3D3D3D3D20504147DF
:105E9900452025623278203D3D3D3D3D3D3D3D3D1E
:105EA9003D3D3D3D0A002562327809000A00253151
:105EB9006278202531627820636825316278206311
:105EC9006825316278206368253162782063682506
:105ED9003162782000656E726563616C6C00656E75
:105EE900667265657A6500656E686D6972726F7252
:105EF90000656E766D6972726F7200656E656E68A7
:105F0900616E636500656E626C616E6B00656E62E1
:105F19006F756E6400656E626C696E6B006469739F
:105F2900726563616C6C00646973667265657A6534
:105F390000646973686D6972726F7200646973765F
:105F49006D6972726F7200646973656E68616E6300
:105F59006500646973626C616E6B00646973626F7A
:105F6900756E6400646973626C696E6B003D3D3DDA
:105F79003D3D20466F726D6174203A206368303D63
:105F89005B2562785D206368313D5B2562785D2021
:105F99006368323D5B2562785D206368333D5B252C
:105FA90062785D203D3D3D3D3D0A00256278202512
:105FB90062782063682562783A25627820636825CB
:105FC90062783A2562782063682562783A25627892
:105FD9002063682562783A256278200033333200DD
:105FE90026002800290062757377006275737200B4
:105FF900616D697800616D757465006164756D70B6
:1060090000616761696E00616C697665006275732C
:10601900727400766D697800766D697865727200C0
:1060290076617474720079766D697800696E697445
:1060390000766465740076736574660073737472B0
:10604900006873636F6D006D6F64650064697373D5
:0F60590063726F6C6C00766572000102040810B0
:0491D3004100D9007E
:10678C0008F208E4F2087400F2087427F208E4F244
:10679C00087400F208742CF208E4F2087400F20891
:1067AC007428F208E4F2087400F208742DF208E47C
:1067BC00F2087400F2742908F208E4F2082208F2D4
:1067CC0008E4F2087400F2087427F208E4F2087482
:1067DC0000F208742CF208E4F2087400F208742831
:1067EC00F208E4F2087400F208742DF208E4F208DE
:1067FC007400F2742908F208E4F20822789EE2FB95
:10680C0008E2FA08E2F92208F208E4F2087400F24D
:10681C00087427F208E4F2087400F208742BF208EA
:10682C00E4F2087400F2742808F208E4F208227802
:10683C00AD74FFF208745DF274EB08F208E4F20830
:10684C00227400F208742EF208E4F2087400F27458
:10685C002A08F208E4F208227400F208742EF208F6
:10686C00E4F2087400F2742A08F208E4F2082274C4
:10687C0000F208742CF208E4F2087400F27429088F
:10688C00F208E4F2082278AD74FFF208745DF27439
:10689C00F608F208E4F2082278AD74FFF208745E90
:1068AC00F2748608F208E4F208227400F2742708E5
:1068BC00F208E4F208227400F2742708F208E4F2F9
:1068CC00082208F20874FEF2087400F2745608F2FA
:1068DC000874FEF20822EBF208EAF208E9F278AD4D
:1068EC0074FEF2082208F208E4F2082278AD74FF74
:1068FC00F2082208F208E4F2082208F208E4F2088E
:10690C002208F208E4F2082208F208E4F20822E273
:10691C00FF78A874FEF2087400F208745BF27BFE38
:10692C007A0079562208F208E4F2082208F208E408
:10693C00F20822EBF208EAF208E9F222900001E4F4
:10694C0075F001024C7808F208E4F20822FFE22408
:10695C005FF8EFF222E25401FB7D2022252AF52A72
:10696C0008E254032278A9EFF27BFF7A5D799578DF
:10697C00A722E52890606393FFE527932F22124C02
:0B698C00D6024BE308F208E4F20822F8
:1083440078AA12693F0812680A12698A7002FF2229
:1083540078AD12680A12698AB4200A78AD12680AE4
:1083640012694880EB78AD12680A124CD6C003C07B
:1083740002C00178AA12680A124CF6802178AD1264
:10838400680A12698AFEB4200FE4124C2978AD12EF
:10839400680A1269487F0122EE70037F012278ADDA
:0883A40012680A12694880D535
:058B6B0078AA12693F29
:108B7000E4F531F53278AA12680A124BE3602578E1
:108B8000AAE2FB0808E2F92401F218E2FA3400F242
:108B9000124BE3FF3395E0FEEF2532F532EE35312F
:088BA000F53180D1AE31AF3296
:018BA80022AA
:0F9173007F411200037F431200037F4B02000372
:108A6800E4F52A7856E2540312696825E025E012F5
:108A78006968C454F0126968C4333354C0252AF5B0
:108A88002A7855E2B5070B785AE2B52A05E47865E5
:108A9800F22278657401F2785AE52AF27855EFF2F5
:018AA80022AB
:1089E3001268F8745DF274891267C37400F2742715
:1089F3001268017400F274281268347400F2087467
:108A030029F2125AF1AB28AD27E4FF12902812691C
:108A130071E527F208E528F212577A0528E528B50B
:028A230029E345
:018A2500222E
:108D2F001268F8745DF274AC1268467400F274271E
:108D3F0012685D7400F2087428F2125AF1AB28AD74
:108D4F0027E4FF129028126971E527F208E528F24F
:038D5F0002577A3E
:108D62001268F8745DF274891268747400F27427E0
:108D720012688B7400F2742812689D7400F20874F1
:108D820029F2125AF178D7E529F2AB28AD27E4FF90
:038D920002910942
:10887900E4F527F528F529F52AC003C0021268F89E
:10888900745DF274B41268AF7400F274271268BB95
:108899007400F274281268C77400F274291268F11E
:1088A9007400F208742AF2D002D003125AF178D770
:0C88B900E52AF2AB29AD28E4FF0291098A
:10891000E4F527F528F529F52A1268F8745DF27454
:10892000C51268F17400F274271268FF7400F274C3
:10893000281268FF7400F2087429F2125AF1AB2968
:10894000AD28E4FF1290288F2A7BFF7A5D79D578D5
:07895000A7E52AF202577AA5
:026E750078A4FF
:106E77001268E27400F20874A4F27BFE7A0079A724
:106E8700128344E4FB7D1FFF128CFB78A712680A6C
:106E9700127F30EE6003026FAFEF24FE603D146097
:106EA70065147003026F31147003026F5924046074
:106EB70003026FAF12683B1268B67400F208742CB5
:106EC700F278A412680A125AF1AB2CAD27E4FF122C
:106ED700840EE52790606393026FA7126892126889
:106EE700B67400F2742C1269067400F274281269E1
:106EF700067400F208742DF278A412680A126FB0B3
:106F070012697E026FA71268F8745EF2740B12673B
:106F17008C7400F208742EF278A412680A126FB00B
:106F2700AB2EAD29126FC6026FA71268F8745EF216
:106F3700742A12678C12684D7400F208742FF27865
:106F4700A412680A126FDC126FC6FFE52A932F029C
:106F57006FA71268F8745EF208745312678D12688F
:106F67004D7400F2742F12690D7400F2742B1269BC
:106F77000D7400F2087430F278A412680A126FDCFC
:106F8700E4FF12840EAB30AD2BE4FF12840E1269BE
:106F97007EFFE529932FFFE52A932FFFE52B932FFC
:086FA700FD7B01E4FF128CFBED
:106FAF0022125AF1AB2CAD27E4FF12840EAB2DAD9C
:106FBF0028E4FF12840E22E4FF12840EE52890606D
:106FCF006393FFE527932FFFE529932F22125AF1A1
:106FDF00AB2CAD27E4FF12840EAB2DAD28E4FF12CE
:106FEF00840EAB2EAD29E4FF12840EAB2FAD2A22F7
:0F918200E4FB7D1FFF128CFB7DFFE4FF028E7B61
:0274480078A426
:10744A001268E27400F20874A4F27BFE7A0079A74B
:10745A0012834478A712680A127F30EE600302751D
:10746A004FEF24FE602F14605414606E14700302F0
:10747A0075072404600302754F12683B1268C274D0
:10748A0000F208742CF278A412680A125AF1AB2C92
:10749A00AD2702754A1268921268C27400F2742CFF
:1074AA001269147400F274281269147400F20874D0
:1074BA002DF278A412680A12756A02754A1268F8DF
:1074CA00745EF2740B1267CA7400F208742EF278B2
:1074DA00A412680A12755002754A1268F8745EF2AC
:1074EA00742A1267CA1268647400F208742FF27858
:1074FA00A412680A12755012757B02754A1268F84E
:10750A00745EF20874531267CB1268647400F274E2
:10751A002F1269317400F2742B1269317400F20867
:10752A007430F278A412680A12756AE4FF12858729
:10753A00AB2EAD2912757BE4FF128587AB30AD2BDC
:05754A00E4FF1285873B
:10754F0022125AF1AB2CAD27E4FF128587AB2DAD7C
:10755F0028E4FF128587AB2EAD2922125AF1AB2CEE
:10756F00AD27E4FF128587AB2DAD2822E4FF1285EE
:06757F0087AB2FAD2A22AC
:1090CD001268A47400F2087427F2125AF1AD27E465
:0490DD00FF028E7B85
:10882A00E4F528C3E52894037480948050407BFFC4
:10883A007A5E798B78A7E528F212577AE4F527ABA6
:10884A0027AD28E4FF12902878A7EFF27BFF7A5E23
:10885A0079AF12577A0527E527540F70097BFF7AFB
:0E886A005E79B512577AE52770D5052880B5DE
:0188780022DD
:10863900C003C002C0011268F8745EF274B712690F
:10864900387400F274271269387400F274281268B9
:10865900CE7400F274571268DA7400F20874581272
:1086690068DB7400F2087459F2D001D002D0031209
:108679005AF1E527C454F0FFE528540F2FF52712C6
:06868900692AFF026B4F9D
:05657C0078A412693F44
:10658100E4F52F1268EA12676678A712680A127F8B
:10659100308F301268EA12676678A712680A128B88
:1065A1006B8E278F287A5E79DE12674AB5280AEE4C
:1065B100B5270675298002663E7A5E79E712674A39
:1065C100B5280AEEB5270675294002663E7A5E793E
:1065D100F0126751B52809EEB52705752920805DB0
:1065E1007A5E79FA126751B52809EEB52705752942
:1065F10010804A7A5F7904126758B52809EEB527E9
:106601000575290880377A5F790E126758B5280910
:10661100EEB5270575290480247A5F791612675F24
:10662100B52809EEB5270575290280117A5F791E13
:1066310012675FB5280DEEB52709752901752A0185
:106641000266E87A5F7926126777B5280AEEB527E0
:10665100067529800266CB7A5F7930126777B52893
:1066610009EEB5270575294080607A5F793A12678E
:106671007EB52809EEB52705752920804D7A5F7909
:106681004512677EB52809EEB52705752910803AB0
:106691007A5F7950126785B52809EEB52705752906
:1066A1000880277A5F795B126785B52809EEB527DF
:1066B1000575290480147BFF7A5F7964128B6BEF77
:1066C100B5280CEEB52708752902E4F52A80187B58
:1066D100FF7A5F796D128B6BEF65287003EE65278A
:1066E1007066752901F52A1268EA7400F20874A42B
:1066F100F27BFE7A0079A7128344EF603278A71209
:10670100680A124BE3B477DF900001124BFCB469C5
:10671100D6900002124BFCB46ECDE92403F9E43AA1
:10672100FA127F30742B252FF8A607052F80B8E5C4
:106731002F6015242AF8E6FFC395305007AB2AAD28
:0867410029128DC8152F80E715
:10674900227BFF128B6BEF227BFF128B6BEF227B7D
:10675900FF128B6BEF227BFF128B6BEF227400F21F
:106769000874A4F27BFE7A0079A7128344227BFF86
:10677900128B6BEF227BFF128B6BEF227BFF128B4D
:036789006BEF2291
:109142001268A47400F2087427F2125AF1AF2702CF
:0291520090E1AA
:108D9500E4FF1288C5C0077F011288C5C0077F029E
:108DA5001288C5C0077F031288C578AAEFF218D0CC
:108DB500E0F218D0E0F218D0E0F27BFF7A5F797626
:038DC50002577AD8
:027A2D0078A43B
:107A2F001268E27400F20874A4F27BFE7A0079A760
:107A3F0012834478A712680A127F30EE6003027B2C
:107A4F0019EF24FE602A146051146076240360033A
:107A5F00027B1912683B7400F2742712695274008A
:107A6F00F208742BF278A412680A127B38027B1486
:107A7F001268F8745DF274F61268137400F20874E9
:107A8F002CF278A412680A127B38E4FF128EF4E508
:107A9F002CC454F0FBAD28027B141268F8745EF20C
:107AAF00740B12681312687B7400F208742DF2784D
:107ABF00A412680A127B1AE52DC454F0FBAD2902FB
:107ACF007B141268F8745EF208742A126814126834
:107ADF007B7400F2742D1269527400F2742A1269C9
:107AEF00907400F208742EF278A412680A127B1AAE
:107AFF00E52DC454F0FBAD29E4FF128EF4E52EC43E
:0A7B0F0054F0FBAD2AE4FF128EF4DF
:107B190022125AF1E52BC454F0FBAD27E4FF128E73
:107B2900F4E52CC454F0FBAD28E4FF128EF42212C4
:0B7B39005AF1E52BC454F0FBAD2722ED
:0284CF0078A48F
:1084D1001268E212851912680A127F308F2712681A
:1084E100EA12851912680A127F308F287F041291CF
:1084F100F37F031291F67F05128FD478A4E2F90875
:10850100E2FA08E278ADC9126940AB28AD277F01D4
:0885110012846F7F05028CC685
:108519007400F20874A4F27BFE7A0079A7128344EE
:0385290078A7220E
:108AA900752801E4F527C3E5279404748094805060
:108AB9001C745B2527F8E230E40F74562527F8E289
:108AC900FDE4FF128E7BE4F528052780D9E52860AF
:108AD9000FE4FB7D1FFF128CFB7DFFE4FF128E7BF1
:018AE900226A
:10758500C003C002C0011268F8745FF274B41269D6
:10759500907400F2087428F208E4F2087400F2749A
:1075A500291268CE7400F208745B1268DB7400F26D
:1075B5000874571268DB7400F208745C1268DB7497
:1075C50000F20874581268DB7400F208745D1268E2
:1075D500DB7400F20874591268DB7400F208745EFB
:1075E500F2D001D002D003125AF1E528C454F0FFBD
:1075F5007852E2FEC433333354802FFFE529540F0C
:107605002F7864F2785BE27856126959785CE278F3
:1076150057126959785DE2FF785812695A785EE227
:10762500FF785912695A785F126961E4FF128C5824
:1076350078601269617F01128C5878611269617FE7
:1076450002128C5878621269617F03128C587BFE96
:107655007A00795F1277F0786412691B1253B1785A
:1076650064E2FF12692A126B4FE4F527C3E52794FC
:1076750004748094805011745B2527F8126961AFFA
:1076850027128DC8052780E4E4F510F511F512756C
:1076950013057F011291CA7864E2FF128A687F0898
:1076A500128FF1E4FF12904312899D7BFE7A0079D7
:0B76B5005B124FE97864E29000D9F00E
:0176C00022A7
:1082D9007F031288C5EFFD3395E0FCED64024C7015
:1082E90002C3227852E2B50702D3227852EFF2E2B2
:1082F900C43333335480FF7855E2547F4FF27F0102
:10830900128CC67852E2FF1283AC7BFE7A00795F49
:108319001277F0785512691B1253B17855E2FF12A2
:10832900692A126B4FE4FF12904312899D7BFE7AF2
:0A83390000795B124FE9128ECCD3DD
:018343002217
:1090A1001268F8745EF20874861268DB7400F208C4
:0690B1007453F2025AF1B3
:0591E9007F01028CC6AD
:108E2700E478A4F27F4D120003905FE5128E47A30A
:108E3700128E47A3A3E493FF1200037F4E020003A1
:0A8E4700E493FF120003905FE522A0
:02606800789E20
:10606A001268E27400F208749EF27BFE7A0079A14B
:10607A0012834478A112680A128B6B8E258F267AB6
:10608A005F79E91262B1B5260DEEB52509126808E5
:10609A001289E30262AE7A5F79EB1262B1B5260D1C
:1060AA00EEB52509126808128D2F0262AE7A5F7961
:1060BA00ED1262B8B5260DEEB52509126808128DE3
:1060CA00620262AE7A5F79EF1262B8B5260DEEB55A
:1060DA0025091268081288790262AE7A5F79F41289
:1060EA0062BFB5260DEEB52509126808128910029D
:1060FA0062AE7A5F79F91262BFB5260DEEB525094F
:10610A00126808126E750262AE7A5F79FE1262C672
:10611A00B5260AEEB525061291820262AE7A607938
:10612A00041262C6B5260AEEB525061269970262FE
:10613A00AE7A60790A1262CDB5260DEEB52509123E
:10614A0068081274480262AE7A6079101262CDB59C
:10615A00260DEEB525091268081290CD0262AE7AB4
:10616A006079161262D4B5260AEEB5250612882A77
:10617A000262AE7A60791C1262D4B52615EEB52594
:10618A00117F40128BA91268081286391291730284
:10619A0062AE7A6079211262DBB5260DEEB5250969
:1061AA001268081286390262AE7A6079291262DBB5
:1061BA00B5260DEEB5250912680812657C0262AE95
:1061CA007A60792F1262E2B52610EEB5250C12918B
:1061DA00731268081291420262AE7A6079351262CD
:1061EA00E2B5260AEEB52506128A260262AE7A6062
:1061FA00793A1262E9B5260AEEB52506128D95029C
:10620A0062AE7A60793F1262E9B5260DEEB52509CC
:10621A00126808127A2D0262AE7A6079451262F02B
:10622A00B5260DEEB525091268081284CF0262AEB2
:10623A007A60794A1262F0B52624EEB525201291C9
:10624A0073126808127585128AA9128ECCE4FF129D
:10625A0091CAE4F512F513F51075110580467A60B6
:10626A0079501262F7B5260FEEB5250B129173120B
:10627A0068081290A1802D7A6079551262F7B526C6
:10628A000CEEB525081291731291E980177BFF7AFB
:10629A0060795F128B6BEFB5260AEEB5250612916F
:0662AA0073128E277F0134
:1062B000227BFF128B6BEF227BFF128B6BEF227B1B
:1062C000FF128B6BEF227BFF128B6BEF227BFF1297
:1062D0008B6BEF227BFF128B6BEF227BFF128B6BA2
:1062E000EF227BFF128B6BEF227BFF128B6BEF2277
:0E62F0007BFF128B6BEF227BFF128B6BEF227A
:109074000D0A0044656275672050726F6772616DF6
:07908400203E0050435400A0
:10873600129164EF640170497895E2704412908B4F
:108746008F25300003120003E52524F8601F24FB63
:1087560070217894E2246BF8E4F2789504F27BFEBB
:108766007A00796B128DF93000170291C17894E284
:1087760014F2227894E2246BF8E525F27894E20468
:01878600F200
:0187870022CF
:0991C1007BFF7A907974028E5153
:0A8C9000789EEBF208EAF208E9F220
:108C9A00789EE2FB08E2FA08E2F9124BE3601C78DC
:108CAA009EE2FB0808E2F92401F218E2FA3400F223
:0B8CBA00124BE3F525FF12000380D5EC
:018CC500228C
:1090B7003000097BFF7A907977128C90E47894F2EC
:0690C70008F2786BF222B2
:0991CA00EF6003C20122D2012270
:0B91AC00C200C201C221E47899F22247
:108DF900789EEBF208EAF208E9F2200020789EE278
:108E0900FB08E2FA08E2F8AC02AD037BFF7A90793D
:0E8E190087124EE9EF3395E04F7002D200222F
:0789570078A4EEF208EFF234
:10895E0078A5E2700218E26035E478A6F208F278A3
:10896E00A6E2FE08E2FFE4FCFD7BD8FAF9F8D3128A
:10897E004CC5400D78A7E22401F218E23400F280D3
:0E898E00DE78A5E224FFF218E234FFF280C288
:01899C0022B8
:10826200E4789BF20874C8F2087464F2128FB112B7
:1082720091AC1291F9128A261290B712873678952C
:10828200E2640170097BFE7A00796B12606878956E
:10829200E2640170031290B73021071282D95002B2
:1082A200C221129164EF6008789CE2751200F51306
:1082B200E51364014512700CF512F513789DE27511
:1082C2001000F511E5116401451070AF128C207594
:0782D200100075111480A4D7
:108FB100E4F5B8F5A8758780F5D0758921F5887530
:108FC1009852F5B175B210129154128F43D299D2C1
:038FD100AF0022CC
:100026001010FFFFFFFFFFFFFFFFFFFFFFFFFFFFB8
:10003600FFFFFFFFFFFFFFFFFFFFFFFFFFFFFFFFCA
:10004600FFFFFFFFFFFFFFFFFFFFFFFFFFFFFFFFBA
:10005600FFFFFFFFFFFFFFFFFFFFFFFFFFFFFFFFAA
:10006600FFFFFFFFFFFFFFFFFFFFFFFFFFFFFFFF9A
:10007600FFFFFFFFFFFFFFFFFFFFFFFFFFFFFFFF8A
:10008600FFFFFFFFFFFFFFFFFFFFFFFFFFFFFFFF7A
:10009600FFFFFFFFFFFFFFFFFFFFFFFFFFFFFFFF6A
:1000A600FFFFFFFFFFFFFFFFFFFFFFFFFFFFFFFF5A
:1000B600FFFFFFFFFFFFFFFFFFFFFFFFFFFFFFFF4A
:1000C600FFFFFFFFFFFFFFFFFFFFFFFFFFFFFFFF3A
:1000D600FFFFFFFFFFFFFFFFFFFFFFFFFFFFFFFF2A
:1000E600FFFFFFFFFFFFFFFFFFFFFFFFFFFFFFFF1A
:1000F600FFFFFFFFFFFFFFFFFFFFFFFFFFFFFFFF0A
:10010600FFFFFFFFFFFFFFFFFFFFFFFFFFFFFFFFF9
:10011600FFFFFFFFFFFFFFFFFFFFFFFFFFFFFFFFE9
:10012600FFFF1010FFFFFFFFFFFFFFFFFFFFFFFFB7
:10013600FFFFFFFFFFFFFFFFFFFFFFFFFFFFFFFFC9
:10014600FFFFFFFFFFFFFFFFFFFFFFFFFFFFFFFFB9
:10015600FFFFFFFFFFFFFFFFFFFFFFFFFFFFFFFFA9
:10016600FFFFFFFFFFFFFFFFFFFFFFFFFFFFFFFF99
:10017600FFFFFFFFFFFFFFFFFFFFFFFFFFFFFFFF89
:10018600FFFFFFFFFFFFFFFFFFFFFFFFFFFFFFFF79
:10019600FFFFFFFFFFFFFFFFFFFFFFFFFFFFFFFF69
:1001A600FFFFFFFFFFFFFFFFFFFFFFFFFFFFFFFF59
:1001B600FFFFFFFFFFFFFFFFFFFFFFFFFFFFFFFF49
:1001C600FFFFFFFFFFFFFFFFFFFFFFFFFFFFFFFF39
:1001D600FFFFFFFFFFFFFFFFFFFFFFFFFFFFFFFF29
:1001E600FFFFFFFFFFFFFFFFFFFFFFFFFFFFFFFF19
:1001F600FFFFFFFFFFFFFFFFFFFFFFFFFFFFFFFF09
:10020600FFFFFFFFFFFFFFFFFFFFFFFFFFFFFFFFF8
:10021600FFFFFFFFFFFFFFFFFFFFFFFFFFFFFFFFE8
:10022600FFFFFFFF1010FFFFFFFFFFFFFFFFFFFFB6
:10023600FFFFFFFFFFFFFFFFFFFFFFFFFFFFFFFFC8
:10024600FFFFFFFFFFFFFFFFFFFFFFFFFFFFFFFFB8
:10025600FFFFFFFFFFFFFFFFFFFFFFFFFFFFFFFFA8
:10026600FFFFFFFFFFFFFFFFFFFFFFFFFFFFFFFF98
:10027600FFFFFFFFFFFFFFFFFFFFFFFFFFFFFFFF88
:10028600FFFFFFFFFFFFFFFFFFFFFFFFFFFFFFFF78
:10029600FFFFFFFFFFFFFFFFFFFFFFFFFFFFFFFF68
:1002A600FFFFFFFFFFFFFFFFFFFFFFFFFFFFFFFF58
:1002B600FFFFFFFFFFFFFFFFFFFFFFFFFFFFFFFF48
:1002C600FFFFFFFFFFFFFFFFFFFFFFFFFFFFFFFF38
:1002D600FFFFFFFFFFFFFFFFFFFFFFFFFFFFFFFF28
:1002E600FFFFFFFFFFFFFFFFFFFFFFFFFFFFFFFF18
:1002F600FFFFFFFFFFFFFFFFFFFFFFFFFFFFFFFF08
:10030600FFFFFFFFFFFFFFFFFFFFFFFFFFFFFFFFF7
:10031600FFFFFFFFFFFFFFFFFFFFFFFFFFFFFFFFE7
:10032600FFFFFFFFFFFF1010FFFFFFFFFFFFFFFFB5
:10033600FFFFFFFFFFFFFFFFFFFFFFFFFFFFFFFFC7
:10034600FFFFFFFFFFFFFFFFFFFFFFFFFFFFFFFFB7
:10035600FFFFFFFFFFFFFFFFFFFFFFFFFFFFFFFFA7
:10036600FFFFFFFFFFFFFFFFFFFFFFFFFFFFFFFF97
:10037600FFFFFFFFFFFFFFFFFFFFFFFFFFFFFFFF87
:10038600FFFFFFFFFFFFFFFFFFFFFFFFFFFFFFFF77
:10039600FFFFFFFFFFFFFFFFFFFFFFFFFFFFFFFF67
:1003A600FFFFFFFFFFFFFFFFFFFFFFFFFFFFFFFF57
:1003B600FFFFFFFFFFFFFFFFFFFFFFFFFFFFFFFF47
:1003C600FFFFFFFFFFFFFFFFFFFFFFFFFFFFFFFF37
:1003D600FFFFFFFFFFFFFFFFFFFFFFFFFFFFFFFF27
:1003E600FFFFFFFFFFFFFFFFFFFFFFFFFFFFFFFF17
:1003F600FFFFFFFFFFFFFFFFFFFFFFFFFFFFFFFF07
:10040600FFFFFFFFFFFFFFFFFFFFFFFFFFFFFFFFF6
:10041600FFFFFFFFFFFFFFFFFFFFFFFFFFFFFFFFE6
:10042600FFFFFFFFFFFFFFFF1010FFFFFFFFFFFFB4
:10043600FFFFFFFFFFFFFFFFFFFFFFFFFFFFFFFFC6
:10044600FFFFFFFFFFFFFFFFFFFFFFFFFFFFFFFFB6
:10045600FFFFFFFFFFFFFFFFFFFFFFFFFFFFFFFFA6
:10046600FFFFFFFFFFFFFFFFFFFFFFFFFFFFFFFF96
:10047600FFFFFFFFFFFFFFFFFFFFFFFFFFFFFFFF86
:10048600FFFFFFFFFFFFFFFFFFFFFFFFFFFFFFFF76
:10049600FFFFFFFFFFFFFFFFFFFFFFFFFFFFFFFF66
:1004A600FFFFFFFFFFFFFFFFFFFFFFFFFFFFFFFF56
:1004B600FFFFFFFFFFFFFFFFFFFFFFFFFFFFFFFF46
:1004C600FFFFFFFFFFFFFFFFFFFFFFFFFFFFFFFF36
:1004D600FFFFFFFFFFFFFFFFFFFFFFFFFFFFFFFF26
:1004E600FFFFFFFFFFFFFFFFFFFFFFFFFFFFFFFF16
:1004F600FFFFFFFFFFFFFFFFFFFFFFFFFFFFFFFF06
:10050600FFFFFFFFFFFFFFFFFFFFFFFFFFFFFFFFF5
:10051600FFFFFFFFFFFFFFFFFFFFFFFFFFFFFFFFE5
:10052600FFFFFFFFFFFFFFFFFFFF1010FFFFFFFFB3
:10053600FFFF00000000FFFFFFFFFFFFFFFFFFFFC1
:10054600FF000000000000FFFFFFFFFFFFFFFFFFAF
:100556000000020202020000FFFFFFFFFFFFFFFF95
:100566000000020202020000FFFFFFFFFFFFFF0084
:10057600000202000002020000FFFFFFFFFFFF0073
:10058600000202000002020000FFFFFFFFFF000062
:1005960002020000000002020000FFFFFFFF000051
:1005A600020200FFFF0002020000FFFFFF00000240
:1005B600020000FFFF000002020000FFFF00000231
:1005C6000200000000000002020000FF000002021C
:1005D60002020202020202020202000000000202FD
:1005E60002020202020202020202000000000202ED
:1005F60000000000000000000202000000000202ED
:100606000000FFFFFFFF00000202000000000202E0
:100616000000FFFFFFFF00000202000000000000D4
:100626000000FFFFFFFF00000000000010100000A8
:10063600000000000000000000000000FFFF0002B4
:1006460002020202020202020202000000FF00028F
:10065600020202020202020202020200000000007E
:100666000002020000000000020202020000FF0079
:1006760000020200FFFFFF00000202020000FF006E
:1006860000020200FFFFFF00000202020000FF005E
:1006960000020200000000000202020000FFFF004C
:1006A600000202020202020202020000FFFFFF0035
:1006B600000202020202020202020000FFFFFF0025
:1006C60000020200000000000202020000FFFF001C
:1006D60000020200FFFFFF00000202020000FF000E
:1006E60000020200FFFFFF000002020200000000FD
:1006F60000020200000000000202020200000002E6
:1007060002020202020202020202020000000002CB
:1007160002020202020202020202000000FF0000C0
:10072600000000000000000000000000FFFF1010A5
:10073600FFFFFF00000000000000000000FFFFFFB9
:10074600FFFF00000202020202020202000000FF96
:10075600FF00000202020202020202020200000080
:100766000000000202000000000000020202000079
:1007760000000202020000FFFFFF0000020200006C
:10078600000002020000FFFFFFFFFF000202000060
:10079600000002020000FFFFFFFFFFFF0000000055
:1007A600000002020000FFFFFFFFFFFFFFFFFFFF49
:1007B600000002020000FFFFFFFFFFFFFFFFFFFF39
:1007C600000002020000FFFFFFFFFF000000000024
:1007D600000002020000FFFFFFFFFF000202000010
:1007E60000000202000000FFFFFF000002020000FE
:1007F60000000202020000000000000202020000E7
:10080600FF000002020202020202020202000000CF
:10081600FFFF00000202020202020202000000FFC5
:10082600FFFFFF0000000000000000000000FFFFC7
:100836001010000000000000000000000000FFFF94
:10084600FFFF00000202020202020202020000FF93
:10085600FFFF000002020202020202020202000080
:10086600FFFF00000202000000000002020200007A
:10087600FFFF000002020000FFFF0000020200006E
:10088600FFFF000002020000FFFF0000020200005E
:10089600FFFF00000202000000000002020200004A
:1008A600FFFF00000202020202020202020000FF33
:1008B600FFFF00000202020202020202000000FF25
:1008C600FFFF000002020000020202000000FFFF1C
:1008D600FFFF000002020000000202020000FFFF0C
:1008E600FFFF00000202000000000202020000FFFB
:1008F600FFFF000002020000FF00000202020000EB
:10090600FFFF000002020000FFFF000002020200DB
:1009160000FF000002020000FFFFFF0000020202CB
:1009260000FF000000000000FFFFFFFF00000000C6
:1009360000FF101000000000FFFFFFFFFFFFFFFF9A
:10094600000000000000000000FFFFFFFFFFFF00A7
:100956000000000000000C0C0000FFFFFFFF00007D
:100966000C0C000000000C0C0C0000000000000C39
:100976000C0C000000000C0C0C0C000000000C0C11
:100986000C0C000000000C0C0C0C0C0C0C0C0C0CD1
:100996000C0C000000000C0C0C0C0C0C0C0C0C0CC1
:1009A6000C0C000000000C0C0C000C0C0C0C000CC9
:1009B6000C0C000000000C0C0C00000C0C00000CD1
:1009C6000C0C000000000C0C0C0000000000000CD9
:1009D6000C0C000000000C0C0C0000000000000CC9
:1009E6000C0C000000000C0C0C0000FFFF00000CBB
:1009F6000C0C000000000C0C0C0000FFFF00000CAB
:100A06000C0C000000000C0C0C0000FFFF00000C9A
:100A16000C0C000000000C0C0C0000FFFF00000C8A
:100A26000C0C000000000000000000FFFF000000AA
:100A3600000000001010FF00000000000000000091
:100A46000000000000FFFF00000202020202020294
:100A56000202020000FFFF0000020202020202027E
:100A66000202020000FFFF00000000000000020278
:100A76000200000000FFFFFFFFFFFFFF0000020271
:100A8600020000FFFFFFFFFFFFFFFFFF0000020263
:100A9600020000FFFFFFFFFFFFFFFFFF0000020253
:100AA600020000FFFFFFFFFFFFFFFFFF0000020243
:100AB600020000FFFFFFFFFFFFFFFFFF0000020233
:100AC600020000FFFFFFFFFFFFFFFFFF0000020223
:100AD600020000FFFFFFFF00000000FF000002020F
:100AE600020000FFFFFFFF000202000000000202FA
:100AF600020000FFFFFFFF000202020000020202E6
:100B0600020000FFFFFFFF000002020202020202D3
:100B1600000000FFFFFFFFFF0000020202020200CA
:100B26000000FFFFFFFFFFFFFF00000000000000C6
:100B360000FFFFFFFFFF1010FFFFFFFFFFFFFFFF9C
:100B4600FFFFFFFFFFFFFFFFFFFFFFFFFF000000AC
:100B560000000000FFFFFFFFFFFFFFFF0000010195
:100B660001010000FFFFFFFFFFFFFF000001010181
:100B760001010000FFFFFFFFFFFF0000010101016F
:100B8600010000FFFFFFFFFFFF000001010101015F
:100B96000000000000000000000001010101010149
:100BA6000101010101010000000101010101010132
:100BB6000101010101010000000101010101010122
:100BC6000101010101010000000001010101010113
:100BD6000101010101010000FF0000010101010105
:100BE6000000000000000000FFFF000001010101FD
:100BF600010000FFFFFFFFFFFFFFFF0000010101F3
:100C060001010000FFFFFFFFFFFFFFFF00000101E2
:100C160001010000FFFFFFFFFFFFFFFFFF000000D5
:100C260000000000FFFFFFFFFFFFFFFFFFFFFFFFCA
:100C3600FFFFFFFFFFFFFFFF1010FFFFFFFFFFFF9C
:100C4600FFFFFFFFFFFFFFFFFFFFFFFFFFFF0000AC
:100C56000000000000FFFFFFFFFFFFFFFFFF000097
:100C6600010101010000FFFFFFFFFFFFFFFF000082
:100C760001010101010000FFFFFFFFFFFFFFFF0071
:100C86000001010101010000FFFF0000000000005B
:100C9600000001010101010000FF00000101010146
:100CA6000101010101010101000000000101010132
:100CB6000101010101010101010000000101010121
:100CC6000101010101010101010000000000000015
:100CD600000001010101010000FF0000000000000A
:100CE600000001010101010000FFFFFFFFFFFF00FF
:100CF6000001010101010000FFFFFFFFFFFF0000EF
:100D060001010101010000FFFFFFFFFFFFFF0000DF
:100D1600010101010000FFFFFFFFFFFFFFFF0000D1
:100D26000000000000FFFFFFFFFFFFFFFFFFFFFFC8
:100D3600FFFFFFFFFFFFFFFFFFFF1010FFFFFFFF9B
:100D46000000000000000000FFFFFFFFFFFFFFFFA5
:100D56000000010101010000FFFFFFFFFFFFFFFF91
:100D66000000010101010000FFFFFFFFFFFFFFFF81
:100D76000000010101010000FFFFFFFFFFFFFFFF71
:100D86000000010101010000FFFFFFFF000000005D
:100D96000000010101010000000000000000010147
:100DA6000000010101010000010100000000010135
:100DB6000100010101010001010100000000010123
:100DC6000101010101010101010100000000010111
:100DD600010101010101010101010000FF00000103
:100DE6000101010101010101010000FFFFFF0000F7
:100DF60001010101010101010000FFFFFFFFFF00EA
:100E0600000101010101010000FFFFFFFFFFFFFFDD
:100E16000000010101010000FFFFFFFFFFFFFFFFD0
:100E2600FF000001010000FFFFFFFFFFFFFFFFFFC4
:100E3600FFFF00000000FFFFFFFFFFFF1010FFFF96
:100E4600FFFFFFFFFFFF0000000000000000FFFFA4
:100E5600FFFFFFFFFF000002020202020000FFFF89
:100E6600FFFFFFFF00000202020202020000FFFF76
:100E7600FFFFFF0000020202000002020000000065
:100E86000000000002020200000002020000000052
:100E96000202020202020200FF000202000000003B
:100EA6000202020202020200FF000202000000002B
:100EB6000202000000020200FF0002020000000021
:100EC600020200FF00020200FF0002020000000012
:100ED6000202000000020200FF0002020000000001
:100EE6000202020202020200FF00020200000000EB
:100EF60002020202020202000000020200000000DA
:100F06000000000000020202000002020000FFFFD3
:100F1600FFFFFFFF00000202020202020000FFFFC5
:100F2600FFFFFFFFFF000002020202020000FFFFB8
:100F3600FFFFFFFFFFFF0000000000000000101091
:100F46000000000000FFFFFFFFFFFF0000000000A1
:100F56000004040400FFFFFFFFFFFF000404040079
:100F66000004040400FFFFFFFFFFFF000404040069
:100F76000004040400FFFFFFFFFFFF000404040059
:100F86000004040400FFFFFFFFFFFF000404040049
:100F9600000404040000FFFFFFFF00000404040037
:100FA600000404040400FFFFFFFF0004040404001F
:100FB600000004040400FFFFFFFF00040404000017
:100FC60000000404040000FFFF0000040404000005
:100FD600FF0000040404000000000404040000FFF5
:100FE600FFFF000004040400000404040000FFFFE7
:100FF600FFFF000000040400000404000000FFFFDF
:10100600FFFFFF00000404040404040000FFFFFFC8
:10101600FFFFFFFF0000040404040000FFFFFFFFC2
:10102600FFFFFFFFFF00000404000000FFFFFFFFBB
:10103600FFFFFFFFFFFF0000000000FFFFFFFFFFB5
:10104600101000000000000000FFFFFFFFFFFFFF81
:10105600FFFF00000404040000FFFFFFFFFFFFFF87
:10106600FFFF00000404040000FFFFFFFFFFFFFF77
:10107600FFFF00000404040000FFFFFFFFFFFFFF67
:10108600FFFF00000404040000FFFFFFFFFFFFFF57
:10109600FFFF00000404040000FFFFFFFFFFFFFF47
:1010A600FFFF00000404040000FFFFFFFFFFFFFF37
:1010B600FFFF00000404040000FFFFFFFFFFFFFF27
:1010C600FFFF00000404040000FFFFFFFFFFFFFF17
:1010D600FFFF00000404040000FFFFFFFFFF000005
:1010E600000000000404040000FFFFFFFFFF0000F3
:1010F600000000000404040000FFFFFFFF000004DE
:1011060000000000040404000000000000000404C5
:101116000000000004040404040404040404040499
:101126000000000004040404040404040404040489
:1011360000000000000000000000000000000000A9
:1011460000001010FFFFFFFFFFFFFFFFFFFFFFFF85
:10115600FFFFFFFFFFFFFFFFFFFFFFFFFFFFFFFF99
:10116600FFFFFFFFFFFFFFFFFFFFFFFFFFFFFFFF89
:10117600FFFFFFFFFFFFFFFF00000000000000FF72
:10118600FFFFFFFFFFFFFF00000004040400000054
:10119600FFFFFFFFFFFF0000040404040404040033
:1011A60000FFFFFFFF000004040400000004040425
:1011B6000000FFFF00000004040000FF000004041C
:1011C600000000FF00000404040000FF0000040407
:1011D600040000FF00000404040000FF00000404F3
:1011E600040000FF00000404040000FF00000404E3
:1011F600040000FF00000004040000FF00000404D7
:10120600000000FFFF0000040404000000040404C2
:101216000000FFFFFFFF00000404040404040400B0
:1012260000FFFFFFFFFFFF000000040404000000B2
:10123600FFFFFFFFFFFFFFFF00000000000000FFB1
:10124600FFFFFFFF1010FFFFFFFFFFFFFFFFFFFF86
:10125600FFFFFFFFFFFFFFFFFFFFFFFFFFFFFFFF98
:10126600FFFFFFFFFFFFFFFFFFFFFFFFFFFFFFFF88
:10127600FFFFFFFFFFFFFFFFFFFF00000000000072
:101286000000FFFFFFFFFFFF00000000040404044E
:10129600000000FFFFFFFF00000004040404040434
:1012A60004040000FFFFFF00000404040000000027
:1012B6000404040000FFFF00000404040000FF0013
:1012C6000000000000FFFF0000000404040400000A
:1012D6000000FFFFFFFFFFFFFF00000404040404FB
:1012E600040000FFFFFFFFFFFFFF000000000404F3
:1012F60004040000FFFFFF0000000000FFFF0000E5
:101306000404040000FFFF000004040400000000C1
:101316000404040000FFFF000000040404040404A5
:1013260004040000FFFFFFFFFF00000004040404A4
:10133600000000FFFFFFFFFFFFFFFF0000000000AF
:101346000000FFFFFFFF101004040FFFFFFFFFFF69
:10135600FFFF0404FFFFFFFF040404FFFFFFFFFF7E
:10136600FFFF0404FFFFFFFF0404040FFFFFFFFF5E
:10137600FFFF0404FFFFFFFF040404040FFFFFFF49
:10138600FFFF0404FFFFFFFF0404FF0404FFFFFF49
:10139600FFFF0404FFFFFF040404FF04040FFFFF24
:1013A600FFFF0404FFFFFF040404FFFF0404FFFF24
:1013B600FFFF0404FFFFFF040404FFFF04040FFF04
:1013C600FFFF0404FFFFFF040404FFFFFF04040FF4
:1013D600FFFF0404FFFFFF040404FFFFFFFF0404F4
:1013E600FFFF0404FFFFFF040404FFFFFFFF0404E4
:1013F6000FFF0404FFFFFF040404FFFFFFFFFF04C9
:1014060004FF0404FFFFFF040404FFFFFFFFFFFFC8
:1014160004040404FFFFFFFF0404FFFFFFFFFFFFB8
:1014260004040404FFFFFFFF0404FFFFFFFFFFFFA8
:10143600FF040404FFFFFFFF0404FFFFFFFFFFFF9D
:10144600FF040404FFFFFFFF1010FFFFFF04040466
:101456000404040FFFFFFFFFFFFFFFFF0404040463
:1014660004040404040FFFFFFFFFFF040404FFFF4E
:10147600FFFFFF0404040FFFFFFF04040FFFFFFF3D
:10148600FFFFFFFF040404FFFFFF0404FFFFFFFF4D
:10149600FFFFFFFFFF04040FFFFF040FFFFFFFFF27
:1014A600FFFFFFFFFF040404FFFF04FFFFFFFFFF32
:1014B600FFFFFFFFFFFF0404FFFF04FFFFFFFFFF27
:1014C600FFFFFFFFFFFF0404FFFF04FFFFFFFFFF17
:1014D600FFFFFFFFFFFF0404FFFF04FFFFFFFFFF07
:1014E600FFFFFFFFFFFF0404FFFF040FFFFFFFFFE7
:1014F600FFFFFFFFFF040404FFFF0404FFFFFFFFDD
:10150600FFFFFFFFFF04040FFFFF04040FFFFFFFB1
:10151600FFFFFFFF040404FFFFFFFF040404FFFFB7
:10152600FFFFFF0404040FFFFFFFFFFF0404040492
:1015360004040404040FFFFFFFFFFFFFFFFF040482
:101546000404040FFFFFFFFFFFFF1010FFFFFFFF64
:10155600FF04040FFFFFFFFFFFFFFFFFFFFFFFFF7B
:10156600FF040404FFFFFFFFFFFFFFFFFFFFFFFF76
:10157600FFFF0404FFFFFFFFFFFFFFFFFFFFFFFF6B
:10158600FFFF04040FFFFFFFFFFFFFFFFFFFFFFF4B
:10159600FFFFFF0404FFFFFFFFFFFFFFFFFFFFFF4B
:1015A600FFFFFF04040FFFFFFFFFFFFFFFFFFFFF2B
:1015B600FFFFFF040404FFFFFFFFFF04FFFFFFFF21
:1015C600FFFFFFFF0404FFFFFFFFFF04FFFFFFFF16
:1015D600FFFFFFFF04040FFFFFFFFF04FFFFFFFFF6
:1015E600FFFFFFFF040404FFFFFF0404FFFFFFFFEC
:1015F600FFFFFFFFFF04040FFFFF0404FFFFFFFFD1
:10160600FFFFFFFFFF04040FFFFF0404FFFFFFFFC0
:10161600FFFFFFFFFFFF0404FF04040FFFFFFFFFB0
:10162600FFFFFFFFFFFF04040F0404FFFFFFFFFFA0
:10163600FFFFFFFFFFFF0404040404FFFFFFFFFF9B
:10164600FFFFFFFFFFFFFF0404040FFF1010FFFF63
:101656000404FFFF04040FFFFFFF04040404FF0457
:101666000404FFFF04040FFFFFFF04040404FF0447
:10167600040FFFFF04040FFFFFFF04040FFFFF0426
:1016860004FFFFFF04040FFFFFFF04040FFF040421
:101696000FFFFFFF04040FFFFFFF04040FFF040406
:1016A6000FFFFFFF04040FFFFFFF04040FFF0404F6
:1016B600FFFFFFFF04040FFFFFFF04040FFF040FEB
:1016C600FFFFFFFF04040FFFFFFF04040FFF04FFEB
:1016D600FFFFFFFF04040FFFFFFF04040FFF04FFDB
:1016E600FFFFFFFF04040FFFFFFF04040FFF0FFFC0
:1016F600FFFFFFFF04040FFFFFFF04040FFFFFFFC0
:10170600FFFFFFFF04040FFFFFFF04040FFFFFFFAF
:10171600FFFFFFFF04040FFFFFFF04040FFFFFFF9F
:10172600FFFFFFFF04040FFFFFFF04040FFFFFFF8F
:10173600FFFFFFFF04040FFFFFFF04040404FFFF85
:10174600FFFFFFFF04040FFFFFFF04040404101053
:1017560004040404040FFFFFFFFFFFFF0404040456
:1017660004040404040404FFFFFFFFFF040404044C
:10177600FFFFFFFFFF040404FFFFFFFF04040FFF4A
:10178600FFFFFFFFFFFF04040FFFFFFF04040FFF2F
:10179600FFFFFFFFFFFF040404FFFFFF04040FFF2A
:1017A600FFFFFFFFFFFFFF0404FFFFFF04040FFF1F
:1017B600FFFFFFFFFFFFFF04040FFFFF04040FFFFF
:1017C600FFFFFFFFFFFFFF04040FFFFF04040404F5
:1017D600FFFFFFFFFFFFFF04040FFFFF04040404E5
:1017E600FFFFFFFFFFFFFF04040FFFFF04040FFFCF
:1017F600FFFFFFFFFFFFFF0404FFFFFF04040FFFCF
:10180600FFFFFFFFFFFF040404FFFFFF04040FFFB9
:10181600FFFFFFFFFFFF04040FFFFFFF04040FFF9E
:10182600FFFFFFFFFF040404FFFFFFFF04040FFF99
:1018360004040404040404FFFFFFFFFF040404047B
:1018460004040404040FFFFFFFFFFFFF0404040465
:10185600101004040404040404040FFFFFFFFFFF38
:10186600FF0404040404040404040FFFFFFFFF0440
:101876000404FFFFFFFFFFFFFFFFFFFFFFFF04045E
:10188600040FFFFFFFFFFFFFFFFFFFFFFF0404043E
:10189600FFFFFFFFFFFFFFFFFFFFFFFFFF04040F38
:1018A600FFFFFFFFFFFFFFFFFFFFFFFFFF0404FF38
:1018B600FFFFFFFFFFFFFFFFFFFFFFFF04040FFF18
:1018C600FFFF040404040404040FFFFF04040FFFD5
:1018D600FFFF040404040404040FFFFF04040FFFC5
:1018E600FFFFFFFFFFFFFFFFFFFFFFFF04040FFFE8
:1018F600FFFFFFFFFFFFFFFFFFFFFFFFFF0404FFE8
:10190600FFFFFFFFFFFFFFFFFFFFFFFFFF04040FC7
:10191600FFFFFFFFFFFFFFFFFFFFFFFFFF040404C2
:10192600FFFFFFFFFFFFFFFFFFFFFFFFFFFF0404B7
:10193600040F04040404040404040FFFFFFFFF045F
:10194600040404040404040404040FFFFFFFFFFF5F
:10195600FF0410100404040404FFFFFFFFFFFFFF51
:10196600FFFFFFFF0404040404040FFFFFFFFFFF53
:10197600FFFFFFFFFFFFFFFF0404040FFFFFFFFF52
:10198600FFFFFFFFFFFFFFFFFFFF04040FFFFFFF47
:10199600FFFFFFFFFFFFFFFFFFFF040404FFFFFF42
:1019A600FFFFFFFFFFFFFFFFFFFFFF04040FFFFF27
:1019B600FFFFFFFFFFFFFFFFFFFFFF04040FFFFF17
:1019C600FFFFFFFFFFFFFFFFFFFFFF04040FFFFF07
:1019D600FFFFFFFFFFFFFFFFFFFFFF04040FFFFFF7
:1019E600FFFFFFFFFFFFFFFFFFFFFF04040FFFFFE7
:1019F600FFFFFFFFFFFFFFFFFFFFFF04040FFFFFD7
:101A0600FFFFFFFFFFFFFFFFFFFF040404FFFFFFD1
:101A1600FFFFFFFFFFFFFFFFFFFF04040FFFFFFFB6
:101A2600FFFFFFFFFFFFFFFF04040404FFFFFFFFAC
:101A3600FFFFFFFF0404040404040FFFFFFFFFFF82
:101A4600FFFFFFFF0404040404FFFFFFFFFFFFFF87
:101A5600FFFFFFFF1010FFFFFFFFFF040404040455
:101A6600040FFFFFFFFFFFFFFFFF0404040404044D
:101A7600040404FFFFFFFFFFFF040404FFFFFFFF52
:101A8600FF040404FFFFFFFF040404FFFFFFFFFF42
:101A9600FFFF04040FFFFFFF04040FFFFFFFFFFF1C
:101AA600FFFF04040FFFFFFFFF0404FFFFFFFFFF1C
:101AB600FFFFFFFFFFFFFFFFFF0404040404FFFF17
:101AC600FFFFFFFFFFFFFFFFFFFF04040404040402
:101AD6000404FFFFFFFFFFFFFFFFFFFFFF040404F7
:101AE6000404040FFFFFFFFFFFFFFFFFFFFFFFFFE1
:101AF600FF0404040FFFFF04040FFFFFFFFFFFFFB7
:101B0600FFFF04040FFFFFFF0404FFFFFFFFFFFFBB
:101B1600FFFF04040FFFFFFF04040FFFFFFFFFFF9B
:101B2600FFFF04040FFFFFFF04040404FFFFFFFF91
:101B3600FF040404FFFFFFFFFF040404040404047D
:101B4600040404FFFFFFFFFFFFFFFF040404040477
:101B5600040FFFFFFFFF1010FF04040FFFFFFFFF3E
:101B6600FFFFFF0404040404FF04040FFFFFFFFF4C
:101B7600FF04040404040404FF04040FFFFFFFFF32
:101B860004040404FFFFFFFFFF04040FFFFFFFFF31
:101B960004040FFFFFFFFFFFFF04040FFFFFFF0416
:101BA600040FFFFFFFFFFFFFFF04040FFFFFFF040B
:101BB60004FFFFFFFFFFFFFFFF04040FFFFFFF040B
:101BC60004FFFFFFFFFFFFFFFF04040FFFFF0404F6
:101BD60004FFFFFFFFFFFFFFFF04040FFFFF0404E6
:101BE6000FFFFFFFFFFF0404FF04040FFFFFFF04C6
:101BF60004FFFFFFFFFF0404FF04040FFFFFFF04C1
:101C060004FFFFFFFFFFFFFFFF04040FFFFFFF04BA
:101C1600040FFFFFFFFFFFFFFF04040FFFFFFFFF9F
:101C260004040FFFFFFFFFFFFF04040FFFFFFFFF8A
:101C360004040404FFFFFFFFFF04040FFFFFFFFF80
:101C4600FF04040404040404FF04040FFFFFFFFF61
:101C5600FFFFFFFF0404040410100404FFFFFFFF4E
:101C6600FFFFFF04040FFFFFFFFF0404040FFFFF45
:101C7600FFFFFF040404FFFFFFFFFF0404040FFF40
:101C8600FFFFFF0404040FFFFFFFFFFFFF0404FF35
:101C9600FFFFFF04040404FFFFFFFFFFFF04040F20
:101CA600FFFFFF040404040FFFFFFFFFFFFFFFFF1A
:101CB600FFFFFF0404FF04040FFFFFFFFFFFFFFF0A
:101CC600FFFFFF0404FFFF0404FFFFFFFFFFFFFF0A
:101CD600FFFFFF0404FFFF04040F040404040404CC
:101CE600FFFFFF0404FFFFFF0404040404040404CC
:101CF600FFFFFF0404FFFFFF0404FFFFFF040404CB
:101D0600FFFFFF0404FFFFFFFF04FFFFFF040404BF
:101D1600FFFFFF0404FFFFFFFFFFFFFFFF040404B4
:101D2600FFFFFF0404FFFFFFFFFFFFFF040404049F
:101D3600FFFFFF0404FFFFFFFFFF040404040FFF7F
:101D4600FFFFFF0404FFFFFFFFFF0404FFFFFFFF89
:101D5600FFFFFF0404FFFFFFFFFF1010FFFFFF045C
:101D660004FFFFFFFFFFFFFFFF040404FFFFFF0464
:101D760004FFFFFFFFFFFFFF04040404FFFFFF044F
:101D860004FFFFFFFFFFFFFF04040404FFFFFF043F
:101D960004FFFFFFFFFFFF040404FF04FFFFFF042F
:101DA60004FFFFFFFFFFFF04040FFF04FFFFFF0414
:101DB60004FFFFFFFFFFFF0404FFFFFFFFFFFF0419
:101DC60004FFFFFFFFFF04040FFFFFFFFFFFFF04F9
:101DD60004FFFFFFFFFF04040FFFFFFFFFFFFF04E9
:101DE60004FFFFFFFF040404FFFFFFFF0FFFFF04D4
:101DF60004FFFFFFFF04040404040404040FFF04AB
:101E060004FFFFFFFF040404040404040404FF04A5
:101E160004FFFFFF04040FFFFFFFFFFF04040F048E
:101E260004FFFFFF0404FFFFFFFFFFFFFF0404049E
:101E360004FFFF040404FFFFFFFFFFFFFFFF04048E
:101E460004FFFF04040FFFFFFFFFFFFFFFFF040473
:101E560004FFFF0404FFFFFFFFFFFFFF1010FFFF5B
:101E6600FFFFFFFFFFFF0404FFFFFFFFFFFF0FFF62
:101E7600FFFFFFFFFFFF0404FFFFFFFFFFFF0FFF52
:101E8600FFFFFFFFFFFF0404FFFFFFFFFFFF04FF4D
:101E9600FFFFFFFFFFFF0404FFFFFFFFFFFF040F2D
:101EA600FFFFFFFFFFFF0404FFFFFFFFFFFF040428
:101EB600FFFFFFFFFFFF0404FFFFFFFFFFFF040418
:101EC6000FFFFFFFFFFF0404FFFFFFFFFFFF0404F8
:101ED6000FFFFFFFFFFF0404FFFFFFFFFFFFFF04ED
:101EE60004FFFFFFFFFF0404FFFFFFFFFFFF0404E3
:101EF600040FFFFFFFFF0404FFFFFFFFFFFF0404C3
:101F06000404FFFFFFFF0404FFFFFFFFFFFFFFFFC7
:101F160004040FFFFFFF0404FFFFFFFFFFFFFFFFA7
:101F260004040FFFFFFF0404FFFFFFFFFFFFFFFF97
:101F3600FF0404FFFFFF0404FFFFFFFFFFFFFFFF97
:101F4600FF04040FFFFF0404040404040404FFFF59
:101F5600FFFF0404FFFF0404040404040404101037
:101F6600FFFFFFFFFF000000000000FFFFFFFFFF75
:101F7600FFFFFF00000002020202000000FFFFFF59
:101F8600FFFF000002020202020202020000FFFF3F
:101F9600FF0000020202000000000002020000FF33
:101FA600FF0002020200FFFFFFFF0000020200FF27
:101FB600FF00020202020000FFFFFF00000000FF18
:101FC600FF000002020202020000FFFFFFFFFFFF08
:101FD600FFFF0000000002020202000000FFFFFFF8
:101FE600FFFFFFFFFF00000002020202020000FFE7
:101FF600FFFFFFFFFFFFFF0000000202020200FFDB
:10200600FF00000000FFFFFFFF000000020200FFCC
:10201600FF0002020000FFFFFFFF0000020200FFB8
:10202600FF0000020200000000000002020000FFA4
:10203600FFFF000002020202020202020000FFFF8E
:10204600FFFFFF00000002020202020000FFFFFF86
:10205600FFFFFFFFFF00000000000000FFFFFFFF83
:10206600101000000000000000000000000000004A
:10207600000000010101010101010101010101014D
:10208600010000010101010101010101010101013C
:10209600010000010101010101010101010101012C
:1020A6000100000000000000010101010000000025
:1020B6000000FFFFFFFFFF000101010100FFFFFF1E
:1020C600FFFFFFFFFFFFFF000101010100FFFFFF10
:1020D600FFFFFFFFFFFFFF000101010100FFFFFF00
:1020E600FFFFFFFFFFFFFF000101010100FFFFFFF0
:1020F600FFFFFFFFFFFFFF000101010100FFFFFFE0
:10210600FFFFFFFFFFFFFF000101010100FFFFFFCF
:10211600FFFFFFFFFFFFFF000101010100FFFFFFBF
:10212600FFFFFFFFFFFFFF000101010100FFFFFFAF
:10213600FFFFFFFFFFFFFF000101010100FFFFFF9F
:10214600FFFFFFFFFFFFFF000101010100FFFFFF8F
:10215600FFFFFFFFFFFFFF000000000000FFFFFF83
:10216600FFFF1010FFFFFFFFFFFFFFFFFFFFFFFF57
:10217600FFFFFFFFFFFFFFFFFFFFFFFFFFFFFFFF69
:10218600FFFFFFFFFFFFFFFFFFFFFFFFFFFFFFFF59
:10219600FFFFFFFFFFFFFFFFFFFFFFFFFFFFFFFF49
:1021A600FFFFFFFFFFFFFFFFFFFFFFFFFFFFFFFF39
:1021B600FFFFFFFFFFFFFFFFFFFFFFFFFFFFFFFF29
:1021C600FFFFFFFFFFFFFFFFFFFFFFFFFFFFFFFF19
:1021D600FFFFFFFFFFFFFFFFFFFFFFFFFFFFFFFF09
:1021E600FFFFFFFF1010FFFFFFFFFFFFFFFFFFFFD7
:1021F600FFFFFFFFFFFFFFFFFFFFFFFFFFFFFFFFE9
:10220600FFFFFFFFFFFFFFFFFFFFFFFFFFFFFFFFD8
:10221600FFFFFFFFFFFFFFFFFFFFFFFFFFFFFFFFC8
:10222600FFFFFFFFFFFFFFFFFFFFFFFFFFFFFFFFB8
:10223600FFFFFFFFFFFFFFFFFFFFFFFFFFFFFFFFA8
:10224600FFFFFFFFFFFFFFFFFFFFFFFFFFFFFFFF98
:10225600FFFFFFFFFFFFFFFFFFFFFFFFFFFFFFFF88
:10226600FFFFFFFFFFFF1010FFFFFFFFFFFFFFFF56
:10227600FFFFFFFFFFFFFFFFFFFFFFFFFFFFFFFF68
:10228600FFFFFFFFFFFFFFFFFFFFFFFFFFFFFFFF58
:10229600FFFFFFFFFFFFFFFFFFFFFFFFFFFFFFFF48
:1022A600FFFFFFFFFFFFFFFFFFFFFFFFFFFFFFFF38
:1022B600FFFFFFFFFFFFFFFFFFFFFFFFFFFFFFFF28
:1022C600FFFFFFFFFFFFFFFFFFFFFFFFFFFFFFFF18
:1022D600FFFFFFFFFFFFFFFFFFFFFFFFFFFFFFFF08
:1022E600FFFFFFFFFFFFFFFF1010FFFFFFFFFFFFD6
:1022F600FFFFFFFFFFFFFFFFFFFFFFFFFFFFFFFFE8
:10230600FFFFFFFFFFFFFFFFFFFFFFFFFFFFFFFFD7
:10231600FFFFFFFFFFFFFFFFFFFFFFFFFFFFFFFFC7
:10232600FFFFFFFFFFFFFFFFFFFFFFFFFFFFFFFFB7
:10233600FFFFFFFFFFFFFFFFFFFFFFFFFFFFFFFFA7
:10234600FFFFFFFFFFFFFFFFFFFFFFFFFFFFFFFF97
:10235600FFFFFFFFFFFFFFFFFFFFFFFFFFFFFFFF87
:10236600FFFFFFFFFFFFFFFFFFFF1010FFFFFFFF55
:10237600FFFFFFFFFFFFFFFFFFFFFFFFFFFFFFFF67
:10238600FFFFFFFFFFFFFFFFFFFFFFFFFFFFFFFF57
:10239600FFFFFFFFFFFFFFFFFFFFFFFFFFFFFFFF47
:1023A600FFFFFFFFFFFFFFFFFFFFFFFFFFFFFFFF37
:1023B600FFFFFFFFFFFFFFFFFFFFFFFFFFFFFFFF27
:1023C600FFFFFFFFFFFFFFFFFFFFFFFFFFFFFFFF17
:1023D600FFFFFFFFFFFFFFFFFFFFFFFFFFFFFFFF07
:1023E600FFFFFFFFFFFFFFFFFFFFFFFF1010FFFFD5
:1023F600FF0000FFFFFFFFFFF000000FFFFFFFFFE2
:1024060000222200FFFFFFFF00222200FFFFFFF055
:10241600022002200FFFFFF0022002200FFFFF0024
:102426002200002200FFFF00220FF02200FFF00230
:10243600200FF002200FF00220000002200F0022E1
:1024460022222222220000222222222222000022EE
:10245600000000002200002200FFFF0022000022F0
:1024660000FFFF002200000000FFFF000000101028
:1024760000000000000000FF022222222222000F9C
:102486000222222222222000000220000022220014
:10249600F00220FFF0022200F00220FFF0022200EC
:1024A600F00220000022200FF0022222222200FF4A
:1024B600F0022222222200FFF00220000022200F3A
:1024C600F00220FFF0022200F00220FFF0022200BC
:1024D60000022000002222000222222222222000C4
:1024E600022222222222000F00000000000000FF2C
:1024F60010101010101010101010101010101010D6
:062506001010101010106F
:1087880078B6E2FB08E2FA08E2F9124BFCFF7898A7
:10879800E22F78D7F222F278B6E2FB0808E2F92451
:1087A80001F218E2FA3400F2024BE378B6E2FB0871
:1087B800E2FA08E2F92278ADE2FF3395E0FED3EF62
:1087C8009400EE6480948022E22401F218E23400DE
:0287D800F2228B
:0591EE00E47898F22274
:0A6FFF0078AEEFF208ECF208EDF2B4
:1070090078AEE2FF25E0F2E22408F278B5F278AF33
:10701900E2FE08E27803C333CE33CED8F9FF78AF66
:10702900EEF208EFF24E7005E2240A800578B0E22C
:1070390024061287D3AF037E007C017D02124C3BEC
:1070490074262FF974003EFA78B674FFF208EAF252
:1070590008E912879E78B112879E78B2F2E408F2A5
:1070690078B1E2FF78B3E2C39F4003027137E408C5
:10707900F278B2E2FF78B4E2C39F400302712412AE
:1070890087B3124BE3128795E4FB7D02FF12910946
:107099009000011287887B0112715F9000021287AC
:1070A900887B0212715F1287B39000031287927B6B
:1070B9000312716778D77480F27B0412716778B80C
:1070C900E224041287D378B5E278D7F27B057D02F2
:1070D900E4FF12910978AF08E278D7F27B077D02C5
:1070E900E4FF12910978AFE27E007802C333CE3310
:1070F900CED8F912713812716F20E7FA78AFE2250C
:10710900E025E0440812713812716F20E7FA78B56A
:10711900E204F218E22404F202707A78AEE278B559
:0E712900F278B01287D078B3E204F2027069F7
:107137002278D7F27B097D02E4FF1291097B0A7D51
:1071470002E4FF129028EF543F448078D7F27B0A7D
:107157007D02E4FF129109227D02E4FF12910922C8
:107167007D02E4FF129109227B0A7D02E4FF12905F
:0371770028EF22DC
:0A852C0078A7EFF208EDF208EBF279
:10853600081287B512000E78ADEFF23395E0C364EA
:10854600809480403B78A7E254016401702A78A8A1
:10855600E2FF08E2FD7C00081287B5124BE3FB122E
:108566006FFF78ADE214F2181287D078A8E22402E1
:10857600F21287BE50D880051287BE50FB1291F9C1
:0185860022D2
:108F69000500000600000700000800000900000ACB
:108F790000001F000020000B000C000D000E000F68
:058F890010111212009E
:0391D70001210073
:107D4C007856E275F003A42469F9748F35F0FA784B
:107D5C00AA74FFF2082278A4900001E2FB08E2FA70
:107D6C0008E2F9024BFC78A4E2FB08E2FA08E2F91B
:107D7C00227856E2FF7E007401A80708227852E2AE
:107D8C00FD7C007B0122748FF2087475F222FF785F
:107D9C0063E2FDEF5D22748FF2087488F222748F17
:107DAC00F2087486F222900002024BFC124BE35450
:107DBC0002640222124BE35401640122124BE3547D
:107DCC0010641022124BE3540C1313543FF527226A
:107DDC00748FF2747E08F27852E2FB227B017D0FE5
:107DEC007C00227B017D127C0022EAF208E9F27B06
:107DFC000F22EAF208E9F27B1222EAF208E9F278A1
:107E0C0052E2FB22EAF208E9F27B01227D197B05A2
:107E1C007C007F3A22EBF208EAF208E9F2229000A9
:107E2C0003024BFCEAF208E9F2E4FB227852E2FB93
:0A7E3C007F01227BFE7A00795B22B1
:1087DA001276C11291EE7F041291F37F031291F681
:1087EA00E4F527C3E5279406748094805009AF27DF
:1087FA00128815052780EC7F01128CC67FFF129123
:0A880A00F67F08128815E47853F297
:1088140022128FD478A8E4F2087426F27B5AE4FD7D
:06882400FCFF1280A122FE
:104FE90078A4127E217F021291F37FFF1291F67845
:104FF90055E2124D45502C115042215069225090D2
:105009003150D033510D34514A4151A79151BCA16E
:1050190051ECA25215B15262B352A1B452DDC10092
:1050290000533F78A4127D74127DB8600302533F88
:10503900127D4C127E300251E778A4127D74127DE4
:10504900B87006127D4C12539A127D6254026402A2
:10505900600302533F7857127D4E127DF60251E7E5
:1050690078A4127D74127DB87006127D4C125340DB
:10507900127D6254026402600302533F7857127D25
:105089004E127E3002521078A4127D74127DB870CF
:1050990006127D4C12539A127D6254026402700BFF
:1050A9007857127D4E127DF61253A978A49000020A
:1050B900127D6754026402600302533F7858127DDF
:1050C9004E127DF602521078A4127D74127DB870CA
:1050D90006127D4C125340127D625402640270081C
:1050E9007857127D4E12538B78A4127D74127DB2BB
:1050F90054026402600302533F7858127D4E127DB8
:10510900F602521078A4127D74127DB87006127DD1
:105119004C12535E127D6254026402700878571271
:105129007D4E12538B78A4127D74127DB2540264A1
:1051390002600302533F7858127D4E127DF60252E7
:10514900D878A4127D74127DB87006127D4C125362
:105159005E127D6254026402700F7857127D4E12FE
:105169007E307D3E7F0112852C78A4127D74127DDC
:10517900B254026402700B7858127D4E127DF612F9
:1051890053A978A4127D74127E2A54026402600322
:1051990002533F7859127D4E127DF602521078A4BF
:1051A900127D74127DB8600302533F127D4C127E4A
:1051B90010802B78A4127D74127DB8700D127D4C6D
:1051C900127E107D297F0112852C127D62540264A2
:1051D90002600302533F7857127D4E127DFE7D29EE
:1051E90002533A78A4127D74127DB87006127D4C70
:1051F90012534F127D6254026402600302533F78D6
:1052090057127D4E127E107D3E02533A78A4127DCC
:1052190074127DB8700D127D4C127E107D297F01AC
:1052290012852C127D6254026402700F7857127D28
:105239004E127DFE7D147F0112852C78A4127D7497
:10524900127DB254026402600302533F7858127D02
:105259004E127DFE7D3E02533A78A4127D74127D72
:10526900B87006127D4C12534F127D6254026402CB
:1052790070087857127D4E12536D78A4127D7412FE
:105289007DB254026402600302533F7858127D4E86
:10529900127DFE7D3E02533A78A4127D74127DB8C8
:1052A9007006127D4C12537C127D625402640270A6
:1052B900087857127D4E12536D78A4127D74127DB1
:1052C900B254026402706F7858127D4E127DFE7DD1
:1052D9001402533A78A4127D74127DB87006127DB7
:1052E9004C12537C127D6254026402700F7857127B
:1052F9007D4E127E107D3E7F0112852C78A4127D91
:1053090074127DB254026402700F7858127D4E12E5
:105319007DFE7D147F0112852C78A4127D74127E86
:105329002A54026402700F7859127D4E127DFE7D57
:105339003E7F0112852C22EAF208E9F2E4FB7D1492
:105349007F0112852C22EAF208E9F27B017D147FA4
:105359000112852C22EAF208E9F2E4FB7D147F01AF
:1053690012852C22EAF208E9F27B017D3E7F0112C7
:10537900852C22EAF208E9F27B017D147F0112856E
:105389002C22EAF208E9F2E4FB7D3E7F0112852C2A
:1053990022EAF208E9F2E4FB7D297F0112852C2239
:0853A9007D147F0112852C2206
:0791DB007854E24480F22207
:108C20007B787D01E4FF129028EF540FFF7863F208
:108C30007854E26F6021D2217B31E4FDFF1290284D
:108C4000EF547F78D7F27B31E4FDFF1291091233A4
:088C5000AC7863E27854F222D3
:0562FE0078A4127E21CE
:106303007F411291F37855E2124D45633611636470
:106313002163BF22642131646B3364B234633691E9
:106323006364A163BFA26421B1646BB364B2B400BC
:1063330000651D78A4127D74127DD0600302642B66
:10634300127D897F3112800078A4127D74124BE391
:1063530030E50302644C7853E2600302651D026476
:106363006278A4127D74127DD0601012651E127DB6
:106373005AEAF2E9127DE17D1C801A127D891265C9
:1063830074127D74124BE330E51212653B127D5B90
:10639300127DDC7D017F0112852C800E7853E27023
:1063A3000918127D8B7F0112800078A4127D64127C
:1063B3007DD3785260030264BE02641978A4127D0F
:1063C30074127DD0600D12651E127D5A127E067DF9
:1063D3001C801A127D89126574127D74124BE3308E
:1063E300E51212653B127D5B127DDC7D017F01129C
:1063F300852C800E7853E2700918127D8B7F011271
:10640300800078A4127D64127DD360087B02E4FDD2
:10641300FC0264C57852127D8B7F4602651A78A40C
:10642300127D74127DD0600E126549127D5A127E60
:10643300067D3102650A127D897F3112800078A4BE
:10644300127D74124BE330E50E126566127D5B120A
:106453007DDC7D0102650A7853E2600302651D1845
:10646300127D8B7F0102651A78A4127D74127DD090
:10647300600E126549127D5A127E067D1C02650A62
:10648300127D897F1C12800078A4127D74124BE365
:1064930030E50E126566127D5B127DDC7D010265BF
:1064A3000A7853E2707418127D8B7F0102651A78A3
:1064B300A4127D64127DD360267852E2FD7C007BBA
:1064C30002E4FF128000E52725E0FFE433FE747E3B
:1064D3002FF9748F3E127D5A127E067D4680281254
:1064E3007D897F4612800078A4127D74124BE330BD
:1064F300E51A7852E2FD7C007B02E4FF1280001271
:106503007D5B127DDC7D017F0102852C7853E27077
:0A6513000918127D8B7F0112800031
:10651D00227852E2FD7C007B02E4FF128000E52729
:10652D0025E0FFE433FE747E2FF9748F3E227852FE
:10653D00E2FD7C007B02E4FF128000227852E2FD36
:10654D007C007B02E4FF128000E52725E0FFE433A9
:10655D00FE747E2FF9748F3E227852E2FD7C007B13
:0F656D0002E4FF128000227F1C12800078A4221B
:103E210078A4127E217F0C1291F37855E2124D4550
:103E31003E5F113E79213EA3223ED6313F1F333FE3
:103E410063343FB0414028914041A1407CA240B938
:103E5100B14113B3416DB441CAC10000424A127D60
:103E610072127DC0700A127D5B127D92E4024039AC
:103E71007B01E4FDFC024077127D72127DC0700B64
:103E8100127D5B127D921242C480031242AF78A46C
:103E9100127D64540164017003024067127DE802DF
:103EA1004077127D72127DC0700B127D5B127D9284
:103EB100124263800312428378A4127D6454016428
:103EC10001700A127D5B127D92E40240AB7B01E43A
:103ED100FDFC0240B4127D72127DC0700B127D5B3D
:103EE100127D921242C480031242AF78A4127D6403
:103EF10054016401700B127D5B127D921242BA80F3
:103F010008127DE87F17128000127D72127DB25473
:103F11000164017003024017127DE80240B4127D72
:103F210072127DC0700B127D5B127D921242638012
:103F31000312428378A4127D6454016401700B1250
:103F41007D5B127D921242A5800312428E127D7218
:103F5100127DB2540164017003024017127DE80220
:103F610040B4127D72127DC0700B127D5B127D9286
:103F710012426D80031242CE78A4127D6454016412
:103F810001700B127D5B127D921242A580031242D9
:103F91008E127D72127DB254016401700B127D5B31
:103FA100127D927B0F0241BA7B017D0F0241C31248
:103FB1007D72127DC0700B127D5B127D9212426D7B
:103FC10080031242CE78A4127D6454016401701101
:103FD100127D5B127D92E4FB7D417F0112852C8075
:103FE1000A7B01E4FDFC7F41128000127D72127D8B
:103FF100B254016401700B127D5B127D921242BAC0
:104001008008127DE87F17128000127D72127E2ACD
:1040110054016401700B127D5B127D927B0F024093
:10402100AC127DE80240B4127D72127DC0700C1298
:104031007D5B127D927852E2FB8033127D8980365E
:10404100127D72127DC0700B127D5B127D92124245
:10405100998008127D897F2C12800078A4127D64DA
:1040610054016401700D127D5B127D927B0F7D2CDA
:1040710002423D127DE87F2C024247127D72127D81
:10408100C0700B127D5B127D9212424B8008127D33
:10409100897F1712800078A4127D64540164017035
:1040A1000F127D5B127D927852E2FB7D4102423D0F
:1040B100127D897F41024247127D72127DC0700BD1
:1040C100127D5B127D921242998008127D897F2CAC
:1040D10012800078A4127D6454016401700B127D7A
:1040E1005B127D921242D98008127DEF7F171280F8
:1040F10000127D72127DB254016401700D127D5B5C
:10410100127D927B127D4102423D127DEF7F410281
:104111004247127D72127DC0700B127D5B127D923F
:1041210012424B8008127D897F1712800078A412F9
:104131007D6454016401700B127D5B127D92124209
:10414100778008127D897F41128000127D72127D75
:10415100B254016401700D127D5B127D927B127D60
:104161004102423D127DEF7F41024247127D7212B0
:104171007DC0700B127D5B127D9212425780081236
:104181007D897F1712800078A4127D645401640137
:10419100700B127D5B127D921242778008127D892D
:1041A1007F41128000127D72127DB2540164017050
:1041B1000D127D5B127D927B127D1702423D7B01C8
:1041C1007D127C007F17024247127D72127DC07002
:1041D1000B127D5B127D921242578008127D897FFE
:1041E1001712800078A4127D6454016401701012CA
:1041F1007D5B127D927D41127E3812852C800812E2
:104201007D897F41128000127D72127DB25401645A
:1042110001700B127D5B127D921242D98008127DD2
:10422100EF7F17128000127D72127E2A5401640101
:10423100700F127D5B127D927B127D417F010285A1
:104241002C127DEF7F41128000227852E2FB7D1714
:104251007F0112852C227852E2FB7D177F011285A6
:104261002C22E4FB7D177F0112852C22E4FB7D17B4
:104271007F0112852C227852E2FB7D417F0112855C
:104281002C227B01E4FDFC7F17128000227B01E4DC
:10429100FDFC7F41128000227852E2FB7D2C7F01E0
:1042A10012852C22E4FB7D417F0112852C227B01AA
:1042B100E4FDFC7F2C128000227B0F7D177F011211
:1042C100852C22E4FB7D2C7F0112852C227B01E4CD
:1042D100FDFC7F17128000227B127D177F01128562
:0242E1002C228D
:1042E30078A4127E217F021291F37855E2124D4594
:1042F300431E1143322143642243993143E633443D
:104303002E34447F4144F0914511A24550B145B349
:10431300B34611B4466DC1000046EE78A4127D7415
:10432300127DC87002802A7B01E4FDFC02450C78F3
:10433300A4127D74127DC8700B127D5B127DAA12CC
:104343004752800312474778A4127D74127DC870C8
:104353000A127D5B127DAAE4024503127DE8024541
:104363000C78A4127D74127DC8700B127D5B127DD4
:10437300AA124707800312471B78A4127D645410C6
:104383006410700A127D5B127DAAE40245427B0130
:10439300E4FDFC02454B78A4127D74127DC8700BBA
:1043A300127D5B127DAA124752800312474778A4FD
:1043B300127D6454106410700B127D5B127DAA127F
:1043C30047678008127DE87F1F12800078A4127D62
:1043D30074127DB25410641070030244DF127DE83E
:1043E30002454B78A4127D74127DC8700B127D5B5D
:1043F300127DAA124707800312471B78A4127D641B
:1044030054106410700B127D5B127DAA12473D801D
:104413000312472678A4127D74127DB254106410DF
:1044230070030244DF127DE802454B78A4127D74C9
:10443300127DC8700B127D5B127DAA124711800397
:1044430012475C78A4127D6454106410700B127DC3
:104453005B127DAA12473D800312472678A4127D82
:1044630074127DB254106410700B127D5B127DAA1E
:104473007B0F02465D7B017D0F02466678A4127DA9
:1044830074127DC8700B127D5B127DAA12471180D6
:104493000312475C78A4127D6454106410700B12ED
:1044A3007D5B127DAA124771800312477B78A412A9
:1044B3007D74127DB254106410700B127D5B127DFB
:1044C300AA1247678008127DE87F1F12800078A434
:1044D300127D74127E2A54106410700B127D5B12CD
:1044E3007DAA7B0F024543127DE802454B78A41257
:1044F3007D74127DC8700F127D5B127DAA7852E223
:10450300FB7D340246E1127D897F340246EB78A4B9
:10451300127D74127DC8700B127D5B127DAA124648
:10452300EF8008127D897F1F12800078A4127D64BA
:1045330054106410700F127D5B127DAA7852E2FB57
:104543007D490246E1127D897F490246EB78A41238
:104553007D74127DC87010127D5B127DAA7D3412AA
:104563007E3812852C8008127D897F341280007872
:10457300A4127D6454106410700B127D5B127DAA2B
:104583001247868008127DEF7F1F12800078A412E5
:104593007D74127DB254106410700D127D5B127D18
:1045A300AA7B127D490246E1127DEF7F490246EB69
:1045B30078A4127D74127DC8700B127D5B127DAAE4
:1045C3001246EF8008127D897F1F12800078A412A3
:1045D3007D6454106410700B127D5B127DAA124728
:1045E300318008127D897F4912800078A4127D747E
:1045F300127DB254106410700D127D5B127DAA7B84
:10460300127D490246E1127DEF7F490246EB78A411
:10461300127D74127DC8700B127D5B127DAA124647
:10462300FB8008127D897F1F12800078A4127D64AD
:1046330054106410700B127D5B127DAA12477180B7
:104643000312477B78A4127D74127DB25410641058
:10465300700D127D5B127DAA7B127D1F0246E17BEA
:10466300017D127C007F1F0246EB78A4127D741239
:104673007DC8700B127D5B127DAA1246FB80081267
:104683007D897F1F12800078A4127D64541064100A
:10469300700B127D5B127DAA1247318008127D894F
:1046A3007F4912800078A4127D74127DB254106485
:1046B30010700B127D5B127DAA1247868008127D53
:1046C300EF7F1F12800078A4127D74127E2A54108B
:1046D3006410700F127D5B127DAA7B127D497F01EE
:1046E30002852C127DEF7F49128000227852E2FB73
:1046F3007D1F7F0112852C227852E2FB7D1F7F01F3
:1047030012852C22E4FB7D1F7F0112852C22E4FB02
:104713007D1F7F0112852C227B01E4FDFC7F1F128C
:104723008000227B01E4FDFC7F4912800022785245
:10473300E2FB7D497F0112852C22E4FB7D497F0149
:1047430012852C227B01E4FDFC7F3412800022E4DD
:10475300FB7D347F0112852C227B01E4FDFC7F1F4E
:10476300128000227B0F7D1F7F0112852C22E4FB28
:104773007D497F0112852C227B01E4FDFC7F4912D8
:0D4783008000227B127D1F7F0112852C22F9
:1033AC007855E2124D4533DA1133FD223441313474
:1033BC00B033351534358141360D913636A236820F
:1033CC00B136F0B33758B437D1C10000385A127D3A
:1033DC007D8005C333CE33CED8F9127D9A600B12A3
:1033EC007D5B127DA27B0D0236267B057D0D0236A0
:1033FC002F127D7D8005C333CE33CED8F9127D9A42
:10340C00600B127D5B127DA21238B78003123873E9
:10341C007857127D7F8005C333CE33CED8F9127D19
:10342C009A600B127D5B127DA27B0D0236727B05BE
:10343C007D0D02367B127D7D8005C333CE33CED815
:10344C00F9127D9A6011127D5B127DA27B077D259E
:10345C007F0112852C80057D071238FD7857127D6F
:10346C007F8005C333CE33CED8F9127D9A600D120E
:10347C007D5B127DA27B151238D780031238C17880
:10348C0058127D7F8005C333CE33CED8F9127D9A86
:10349C00600B127D5B127DA27B150236727B057D63
:1034AC001502367B127D7D8005C333CE33CED8F921
:1034BC00127D9A600B127D5B127DA21238B78003CD
:1034CC001238737857127D7F8005C333CE33CED834
:1034DC00F9127D9A600B127D5B127DA21238CD80A1
:1034EC000312387F7858127D7F8005C333CE33CEDC
:1034FC00D8F9127D9A600B127D5B127DA27B1502AE
:10350C0036727B057D1502367B127D7D8005C333BB
:10351C00CE33CED8F9127D9A600B127D5B127DA250
:10352C0012388B800312385B7857127D7F8005C36D
:10353C0033CE33CED8F9127D9A600D127D5B127D9D
:10354C00A27D3A1238F580087D0D127E1A12800089
:10355C007858127D7F8005C333CE33CED8F9127DD7
:10356C009A600B127D5B127DA27B150237C17B0525
:10357C007D150237CA127D7D8005C333CE33CED87C
:10358C00F9127D9A600B127D5B127DA212388B8032
:10359C000312385B7857127D7F8005C333CE33CE50
:1035AC00D8F9127D9A600B127D5B127DA21238CD78
:1035BC00800312387F7858127D7F8005C333CE3359
:1035CC00CED8F9127D9A6011127D5B127DA27B150B
:1035DC007D107F0112852C80031238C17859127D21
:1035EC007F8005C333CE33CED8F9127D9A600B128F
:1035FC007D5B127DA27B150236727B057D15023632
:10360C007B127D7D8005C333CE33CED8F9127D9AE3
:10361C00600D127D5B127DA27B107D2502384F7BE5
:10362C00057D107C007F25023857127D7D8005C3F7
:10363C0033CE33CED8F9127D9A600D127D5B127D9C
:10364C00A27B101238D780031238957857127D7FE1
:10365C008005C333CE33CED8F9127D9A600D127D1E
:10366C005B127DA27B107D3A02384F7B057D107C6E
:10367C00007F3A023857127D7D8005C333CE33CE9E
:10368C00D8F9127D9A6011127D5B127DA27B087DA8
:10369C00257F0112852C80057D081238FD78571284
:1036AC007D7F8005C333CE33CED8F9127D9A600B63
:1036BC00127D5B127DA212390780031238DF785815
:1036CC00127D7F8005C333CE33CED8F9127D9A603C
:1036DC000D127D5B127DA27B197D3A02384F127E52
:1036EC0018023857127D7D8005C333CE33CED8F9FE
:1036FC00127D9A600D127D5B127DA27D101238F541
:10370C0080031238957857127D7F8005C333CE33F2
:10371C00CED8F9127D9A600B127D5B127DA2123805
:10372C00EB80031238AB7858127D7F8005C333CE03
:10373C0033CED8F9127D9A600D127D5B127DA27B7F
:10374C00197D3A02384F127E18023857127D7D804F
:10375C0005C333CE33CED8F9127D9A600B127D5B44
:10376C00127DA21238A180031238677857127D7F20
:10377C008005C333CE33CED8F9127D9A6011127DF9
:10378C005B127DA27B107D3A7F0112852C800B7B16
:10379C00057D107C007F3A1280007858127D7F8066
:1037AC0005C333CE33CED8F9127D9A600D127D5BF2
:1037BC00127DA27B197D1002384F7B057D197C0090
:1037CC007F10023857127D7D8005C333CE33CED89F
:1037DC00F9127D9A600B127D5B127DA21238A180CA
:1037EC00031238677857127D7F8005C333CE33CEF2
:1037FC00D8F9127D9A600B127D5B127DA21238EB08
:10380C0080031238AB7858127D7F8005C333CE33DA
:10381C00CED8F9127D9A600B127D5B127DA2123903
:10382C000780031238DF7859127D7F8005C333CEB1
:10383C0033CED8F9127D9A600F127D5B127DA27B7C
:10384C00197D3A7F0102852C127E18128000227B92
:10385C00057D077C007F10128000227B057D087C93
:10386C00007F10128000227B057D0D7C007F1012E2
:10387C008000227B057D077C007F3A128000227B32
:10388C00077D107F0112852C227B057D107C007F2B
:10389C0010128000227B087D107F0112852C227B68
:1038AC00057D087C007F3A128000227B0D7D107F05
:1038BC000112852C227B057D157C007F1012800067
:1038CC00227B077D3A7F0112852C227D107F01120D
:1038DC00852C227B057D197C007F10128000227BB9
:1038EC00087D3A7F0112852C227B0D7F0112852CDD
:1038FC00227B057C007F25128000227B197D107FA6
:05390C000112852C22D0
:10899D00E4FF128FD47853E224FE601104702B1281
:1089AD0089D8127D5B748FF2087478800C1289D887
:1089BD00127D5B748FF208747BF27852E2FB7D01BD
:1089CD007F0112852C7FFF1291F6227F031291F603
:0689DD007F041291F32259
:108ECC00E4FF128FD4785BE2540264027012127EBB
:108EDC003F123E21127E3F1242E3127E3F1262FE8F
:088EEC001291DBE4FF028CC6C9
:10250C0000000000000000000000000000000000BF
:10251C0000000000000000000000000000000000AF
:10252C00003E007E00FE01CE038E7F8E7F8E738E6A
:10253C00738E738E7F8E7F8E01CE00FE007E003EEA
:10254C0000000000020006000E001E003FFE7FFE91
:10255C007FFE3FFE1E000E00060002000000000081
:10256C000000000000400060007000787FFC7FFEDF
:10257C007FFE7FFC007800700060004000000000CF
:10258C00000003C003C003C003C003C003C003C0EA
:10259C0003C03FFC1FF80FF007E003C001800000F0
:1025AC0003C003C007E007E00E700E701C381C3827
:1025BC00381C381C7FFE7FFE700E700E700E700E75
:1025CC007FF87FFC383E381E381E381E383C3FF8EA
:1025DC003FF8383C381E381E381E383E7FFC7FF8DA
:1025EC000FF81FFC3C1C380E780E700E700070003B
:1025FC0070007000700E700E380E3C1C1FFC0FF833
:10260C007FF07FF07078703C703C703C70787FF09D
:10261C007FE0778073C071E070F07078703C701E52
:10262C0000006006700E781E7C3E7FFE77EE73CE47
:10263C00718E700E700E700E700E700E700E700E1D
:10264C0000001FF81FF800E000E000E000E000E0F0
:10265C0000E000E000E070E079E03FC01F800F0078
:10266C0000000000000003C007800F001E003FFCAC
:10267C003FFC1E000F00078003C00000000000009C
:10268C0000000000000003C001E000F000783FFCF7
:10269C003FFC007800F001E003C0000000000000E7
:1026AC0000000000018001800180018011881998D0
:1026BC001DB81FF80FF007E003C0018000000000F8
:1026CC00003E007E00FE01CE038E7F8E7F8E738EC9
:1026DC00738E738E7F8E7F8E01CE00FE007E003E49
:1026EC00700E700E700E700E700E700E781E381C00
:1026FC00381C1C381C380E700FF007E003C001802A
:10270C000000380038003800380038003800380035
:10271C0038003800380038063806380E3FFE3FFEC9
:10272C000000000000000000000003800FE01C709F
:10273C00183038383838383818301C700FE00380AF
:10274C000000000000000000000003C00FF01C3867
:10275C001C000F0007E000F000381C380FF003C01D
:10276C00000000000000000000000000000000005D
:10277C00000000000000000000000000000000004D
:10278C00000000000000000000000000000000003D
:10279C00000000000000000000000000000000002D
:1027AC00000000000000000000000000000000001D
:1027BC00000000000000000000000000000000000D
:1027CC0000000000000000000000000000000000FD
:1027DC0000000000000000000000000000000000ED
:1027EC0000000000000000000000000000000000DD
:1027FC0000000000000000000000000000000000CD
:10280C0000000000000000000000000000000000BC
:10281C0000000000000000000000000000000000AC
:10282C00000000000000000000000000000000009C
:10283C00000000000000000000000000000000008C
:10284C00000000000000000000000000000000007C
:10285C00000000000000000000000000000000006C
:10286C00000000000000000000000000000000005C
:10287C00000000000000000000000000000000004C
:10288C00000000000000000000000000000000003C
:10289C00000000000000000000000000000000002C
:1028AC00000000000000000000000000000000001C
:1028BC00000000000000000000000000000000000C
:1028CC0000000000000000000000000000000000FC
:1028DC0000000000000000000000000000000000EC
:1028EC0000000000000000000000000000000000DC
:1028FC0000000000000000000000000000000000CC
:10290C0000000000000000000000000000000000BB
:10291C0000000000000000000000000000000000AB
:10292C00000007000F800F800F800F80070007004A
:10293C00070002000200000002000700070002006E
:10294C000000EE006600440088000000000000005B
:10295C00000000000000000000000000000000006B
:10296C00000008200820082008203FF80820082034
:10297C000820082008203FF80820082008200820FC
:10298C0000000FC01B603330333033001B000F00CE
:10299C0003C0036013303B3033301B600FC00300A7
:1029AC000000380844108420044004800900127090
:1029BC00E4880908120822084210822001C0000095
:1029CC0000000E001B00318031801B000E001C002B
:1029DC003678632061A060E0606030F01F9C0000DE
