:03000000027AA8D9
:0C7AA800787FE4F6D8FD758135027AEF96
:108A8900D2BCD2AC758DF4D28EE47850F208F222C1
:0F8A99007850E2FF08E2B507037F00227F012239
:10895E00C2AC7850E22400F8E2FF7850E204F2E272
:09896E00C394504002E4F2D2ACC3
:0189770022DD
:080003003099FD8F99C299228A
:03002300027FBF9A
:107FBF00C0E0C0D075D008309846C2987851E2FF23
:107FCF002401FDE433FC18E27A00B50D07EAB50C85
:107FDF0003E204F2EFB44F087850E27003E204F2C8
:107FEF007850E2C394504002E4F27851E22400F852
:107FFF00E599F27851E204F2E2C394504002E4F2C0
:05800F00D0D0D0E032EA
:1088430078ABE2FB08E2FA08E2F9227590F6D2B6B9
:10885300D2B77580FFD2AF22AF038F80D293C2937A
:0888630022C2AF7590F6ED2270
:108796001288647006C2B7C2B68012EDB40106C272
:1087A600B7D2B68008EDB40204D2B7C2B612885B5F
:0D87B60078D7E2F580C291D29112884E2250
:10815600AE031288647006C2B7C2B68012EDB401CF
:1081660006C2B7D2B68008EDB40204D2B7C2B6AF23
:10817600060E12885D78A9E2FB0808E2F92401F2EE
:1081860018E2FA3400F212442CF580C291D29178AA
:0A819600ACE214F270D912884E22F8
:108666001288647006C2B7C2B68012EDB40106C2A3
:10867600B7D2B68008EDB40204D2B7C2B612885B90
:108686007580FFC292AF80D2927590F6D2B6D2B7FD
:02869600D2AF61
:0186980022BF
:107F120078ABEBF208EAF208E9F2128843124496CF
:107F2200F47003E5F0F4603E128843124496FBAA13
:107F3200F0EAFDE4FF1286661288439000021244C2
:107F420045FC6F6014128843124496FBAAF0EAFDC6
:107F520078D7ECF2E4FF12879678ADE22403F218A8
:077F6200E23400F280B422BA
:018B29002229
:105980002562782025627820256278000A3C523E04
:1059900025303262785B25303262785D3D253032C9
:1059A00062780025627820256278002562782025BB
:1059B000627820256278202562782000253162787F
:1059C000202531627820253162782000526561649B
:1059D0004173696342797465203D3D2025627820DA
:1059E0000A0063682562643A2562642000636825C2
:1059F00062643A2562642063682562643A256264C1
:105A0000200063682562643A256264206368256229
:105A1000643A2562642063682562643A25626420E2
:105A20000063682562643A256264206368256264C5
:105A30003A2562642063682562643A2562642063C3
:105A4000682562643A256264200063682562643ACE
:105A50002562642063682562643A25626420636875
:105A60002562643A2562642063682562643A25628F
:105A7000642063682562643A2562642000256264BC
:105A800020000A203D3D3D3D3D3D3D3D20504147EC
:105A9000452025623278203D3D3D3D3D3D3D3D3D2B
:105AA0003D3D3D3D0A002562327809000A0025315E
:105AB000627820253162782063682531627820631E
:105AC0006825316278206368253162782063682513
:105AD0003162782000656E726563616C6C00656E82
:105AE000667265657A6500656E686D6972726F725F
:105AF00000656E766D6972726F7200656E656E68B4
:105B0000616E636500656E626C616E6B00656E62EE
:105B10006F756E6400656E626C696E6B00646973AC
:105B2000726563616C6C00646973667265657A6541
:105B300000646973686D6972726F7200646973766C
:105B40006D6972726F7200646973656E68616E630D
:105B50006500646973626C616E6B00646973626F87
:105B6000756E6400646973626C696E6B003D3D3DE7
:105B70003D3D20466F726D6174203A206368303D70
:105B80005B2562785D206368313D5B2562785D202E
:105B90006368323D5B2562785D206368333D5B2539
:105BA00062785D203D3D3D3D3D0A0025627820251F
:105BB00062782063682562783A25627820636825D8
:105BC00062783A2562782063682562783A2562789F
:105BD0002063682562783A256278200033340026F5
:105BE0000028002900627573770062757372006186
:105BF0006D697800616D757465006164756D700024
:105C0000616761696E00616C6976650062757372C7
:105C10007400766D697800766D69786572720076C9
:105C2000617474720079766D697800696E697400C8
:105C300076646574007673657466007373747200BD
:105C40006873636F6D006D6F64650064697373637F
:0E5C5000726F6C6C0076657200010204081021
:068AE000C1214100D80095
:1061080008F208E4F2087400F2087427F208E4F2CE
:10611800087400F208742CF208E4F2087400F2081B
:106128007428F208E4F2087400F208742DF208E406
:10613800F2087400F2742908F208E4F2082208F25E
:1061480008E4F2087400F2087427F208E4F208740C
:1061580000F208742CF208E4F2087400F2087428BB
:10616800F208E4F2087400F208742DF208E4F20868
:106178007400F2742908F208E4F20822789EE2FB1F
:1061880008E2FA08E2F92208F208E4F2087400F2D8
:10619800087427F208E4F2087400F208742BF20875
:1061A800E4F2087400F2742808F208E4F20822788D
:1061B800AD74FFF2087459F274E208F208E4F208C8
:1061C800227400F208742EF208E4F2087400F274E3
:1061D8002A08F208E4F208227400F208742EF20881
:1061E800E4F2087400F2742A08F208E4F20822744F
:1061F80000F208742CF208E4F2087400F27429081A
:10620800F208E4F2082278AD74FFF2087459F274C7
:10621800ED08F208E4F2082278AD74FFF208745A27
:10622800F2747D08F208E4F208227400F274270878
:10623800F208E4F208227400F2742708F208E4F283
:10624800082208F20874FEF2087400F2745608F284
:106258000874FEF20822EBF208EAF208E9F278ADD7
:1062680074FEF2082208F208E4F2082278AD74FFFE
:10627800F2082208F208E4F2082208F208E4F20818
:106288002208F208E4F2082208F208E4F20822E2FE
:10629800FF78A874FEF2087400F208745BF27BFEC3
:1062A8007A0079562208F208E4F2082208F208E493
:1062B800F20822EBF208EAF208E9F222900001E47F
:1062C80075F0010244C108F208E4F20822FFE22452
:1062D8005FF8EFF222E25401FB7D2022252AF52AFD
:1062E80008E254032278A9EFF27BFF7A59798C7877
:1062F800A722E528905C5993FFE527932F221245A2
:0B6308001F02442C08F208E4F20822F7
:107BA90078AA1262BB081261861263067002FF226C
:107BB90078AD126186126306B4200A78AD12618627
:107BC9001262C480EB78AD12618612451FC003C0F2
:107BD90002C00178AA12618612453F802178AD1250
:107BE9006186126306FEB4200FE412447278AD1266
:107BF90061861262C47F0122EE70037F012278AD93
:087C09001261861262C480D5ED
:0585120078AA1262BB13
:10851700E4F531F53278AA12618612442C60257889
:10852700AAE2FB0808E2F92401F218E2FA3400F2A1
:1085370012442CFF3395E0FEEF2532F532EE35314C
:08854700F53180D1AE31AF32F5
:01854F002209
:0F8AA8007F411200037F431200037F4B02000344
:1083D000E4F52A7856E254031262E425E025E0121F
:1083E00062E4C454F01262E4C4333354C0252AF565
:1083F0002A7855E2B5070B785AE2B52A05E4786584
:10840000F22278657401F2785AE52AF27855EFF293
:018410002249
:10834B001262747459F2748012613F7400F27427D4
:10835B0012617D7400F274281261B07400F208741B
:10836B0029F21256E8AB28AD27E4FF12866612629B
:10837B00EDE527F208E528F21253710528E528B53B
:02838B0029E3E4
:01838D0022CD
:108699001262747459F274A31261C27400F27427DD
:1086A9001261D97400F2087428F21256E8AB28ADA9
:1086B90027E4FF1286661262EDE527F208E528F243
:0386C900025371E8
:1086CC001262747459F274801261F07400F274279F
:1086DC001262077400F274281262197400F20874A2
:1086EC0029F21256E878D7E529F2AB28AD27E4FF3A
:0386FC000287965C
:10810A00E4F527F528F529F52AC003C0021262749E
:10811A007459F274AB12622B7400F274271262372C
:10812A007400F274281262437400F2742912626DA8
:10813A007400F208742AF2D002D0031256E878D7F3
:0C814A00E52AF2AB29AD28E4FF0287967D
:10823300E4F527F528F529F52A1262747459F274C6
:10824300BC12626D7400F2742712627B7400F274C4
:108253002812627B7400F2087429F21256E8AB29E3
:10826300AD28E4FF1286668F2A7BFF7A5979CC7892
:07827300A7E52AF202537196
:0266600078A41C
:1066620012625E7400F20874A4F27BFE7A0079A7CB
:10667200127BA9E4FB7D1FFF12873278A712618685
:1066820012773EEE600302679AEF24FE603D1460CB
:106692006514700302671C147003026744240460CB
:1066A2000302679A1261B71262327400F208742C04
:1066B200F278A41261861256E8AB2CAD27E4FF12E1
:1066C2007D3AE527905C599302679212620E12623C
:1066D200327400F2742C1262827400F27428126214
:1066E200827400F208742DF278A412618612679BFC
:1066F2001262FA026792126274745AF2740212619E
:10670200087400F208742EF278A412618612679B54
:10671200AB2EAD291267B1026792126274745AF2FB
:1067220074211261081261C97400F208742FF278A0
:10673200A41261861267C71267B1FFE52A932F027E
:106742006792126274745AF208744A1261091261F1
:10675200C97400F2742F1262897400F2742B1262EF
:10676200897400F2087430F278A41261861267C745
:10677200E4FF127D3AAB30AD2BE4FF127D3A126298
:10678200FAFFE529932FFFE52A932FFFE52B932F9D
:08679200FD7B01E4FF128732D8
:10679A00221256E8AB2CAD27E4FF127D3AAB2DADA1
:1067AA0028E4FF127D3A22E4FF127D3AE528905C44
:1067BA005993FFE527932FFFE529932F221256E8D5
:1067CA00AB2CAD27E4FF127D3AAB2DAD28E4FF12C6
:1067DA007D3AAB2EAD29E4FF127D3AAB2FAD2A22CA
:0F8AB700E4FB7D1FFF1287327DFFE4FF02886B17
:026D6B0078A40A
:106D6D0012625E7400F20874A4F27BFE7A0079A7B9
:106D7D00127BA978A712618612773EEE6003026E30
:106D8D0072EF24FE602F14605414606E14700302B1
:106D9D006E2A24046003026E721261B712623E7491
:106DAD0000F208742CF278A41261861256E8AB2C0E
:106DBD00AD27026E6D12620E12623E7400F2742CDB
:106DCD001262907400F274281262907400F20874CA
:106DDD002DF278A4126186126E8D026E6D126274A0
:106DED00745AF274021261467400F208742EF2782D
:106DFD00A4126186126E73026E6D126274745AF271
:106E0D0074211261461261E07400F208742FF27859
:106E1D00A4126186126E73126E9E026E6D126274F2
:106E2D00745AF208744A1261471261E07400F274E8
:106E3D002F1262AD7400F2742B1262AD7400F20861
:106E4D007430F278A4126186126E8DE4FF127EB753
:106E5D00AB2EAD29126E9EE4FF127EB7AB30AD2B7B
:056E6D00E4FF127EB7F6
:106E7200221256E8AB2CAD27E4FF127EB7AB2DAD44
:106E820028E4FF127EB7AB2EAD29221256E8AB2CB6
:106E9200AD27E4FF127EB7AB2DAD2822E4FF127EB0
:066EA200B7AB2FAD2A2260
:108A02001262207400F2087427F21256E8AD27E4CD
:048A1200FF02886B6C
:1081EA00E4F5287BFF7A5A798278A7E528F21253B8
:1081FA0071E4F527AB27AD28E4FF12866678A7EF6E
:10820A00F27BFF7A5A79A61253710527E527540F94
:10821A0070097BFF7A5A79AC125371E52770D5053C
:08822A0028E528C3940340BBC2
:018232002229
:107F6900C003C002C001126274745AF274AE126284
:107F7900B47400F274271262B47400F274281262A5
:107F89004A7400F274571262567400F20874581257
:107F990062577400F2087459F2D001D002D003126A
:107FA90056E8E527C454F0FFE528540F2FF52712AA
:067FB90062A6FF0264CB8A
:055EF80078A41262BB5A
:105EFD00E4F52F1262661260E278A71261861277BE
:105F0D003E8F301262661260E278A71261861285AA
:105F1D00128E278F287A5A79D51260C6B5280AEEC7
:105F2D00B52706752980025FBA7A5A79DE1260C6E6
:105F3D00B5280AEEB52706752940025FBA7A5A7957
:105F4D00E71260CDB52809EEB52705752920805DCE
:105F5D007A5A79F11260CDB52809EEB52705752964
:105F6D0010804A7A5A79FB1260D4B52809EEB5270C
:105F7D000575290880377A5B79051260D4B5280933
:105F8D00EEB5270575290480247A5B790D1260DB47
:105F9D00B52809EEB5270575290280117A5B7915AB
:105FAD001260DBB5280DEEB52709752901752A019B
:105FBD000260647A5B791D1260F3B5280AEEB5278D
:105FCD00067529800260477A5B79271260F3B52840
:105FDD0009EEB5270575294080607A5B793112602D
:105FED00FAB52809EEB52705752920804D7A5B791C
:105FFD003C1260FAB52809EEB52705752910803ACF
:10600D007A5B7947126101B52809EEB52705752927
:10601D000880277A5B7952126101B52809EEB52700
:10602D000575290480147BFF7A5B795B128512EF6D
:10603D00B5280CEEB52708752902E4F52A80187BE2
:10604D00FF7A5B7964128512EF65287003EE652780
:10605D007066752901F52A1262667400F20874A43F
:10606D00F27BFE7A0079A7127BA9EF603278A71236
:10607D00618612442CB477DF900001124445B46957
:10608D00D6900002124445B46ECDE92403F9E43AEA
:10609D00FA12773E742B252FF8A607052F80B8E549
:1060AD002F6015242AF8E6FFC395305007AB2AADB3
:0860BD0029128765152F80E709
:1060C500227BFF128512EF227BFF128512EF227BC6
:1060D500FF128512EF227BFF128512EF227400F268
:1060E5000874A4F27BFE7A0079A7127BA9227BFFB4
:1060F500128512EF227BFF128512EF227BFF12859C
:0361050012EF2274
:108A77001262207400F2087427F21256E8AF270238
:028A87008A164D
:1086FF00E4FF12827AC0077F0112827AC0077F02DD
:10870F0012827AC0077F0312827A78AAEFF218D00A
:10871F00E0F218D0E0F218D0E0F27BFF7A5B796DCF
:03872F0002537181
:02734A0078A425
:10734C0012625E7400F20874A4F27BFE7A0079A7D4
:10735C00127BA978A712618612773EEE6003027445
:10736C0036EF24FE602A1460511460762403600307
:10737C000274361261B77400F274271262CE740074
:10738C00F208742BF278A4126186127455027431CF
:10739C001262747459F274ED12618F7400F20874F5
:1073AC002CF278A4126186127455E4FF128893E5CE
:1073BC002CC454F0FBAD28027431126274745AF26E
:1073CC00740212618F1261F77400F208742DF27856
:1073DC00A4126186127437E52DC454F0FBAD29025A
:1073EC007431126274745AF2087421126190126131
:1073FC00F77400F2742D1262CE7400F2742A1263C8
:10740C000C7400F208742EF278A412618612743790
:10741C00E52DC454F0FBAD29E4FF128893E52EC48E
:0A742C0054F0FBAD2AE4FF12889330
:10743600221256E8E52BC454F0FBAD27E4FF128870
:1074460093E52CC454F0FBAD28E4FF128893221276
:0B74560056E8E52BC454F0FBAD2722E4
:027E5A0078A40A
:107E5C0012625E127EA412618612773E8F27126226
:107E6C0066127EA412618612773E8F287F04128BD5
:107E7C00237F03128B267F0512892578A4E2F9084B
:107E8C00E2FA08E278ADC91262BCAB28AD277F01DB
:087E9C00127D9B7F0502863177
:107EA4007400F20874A4F27BFE7A0079A7127BA90D
:037EB40078A7228A
:10855000752801E4F527745B2527F8E230E40F74F1
:10856000562527F8E2FDE4FF12886BE4F52805277D
:10857000E527C3940440DFE528600FE4FB7D1FFF7F
:0A8580001287327DFFE4FF12886BC2
:01858A0022CE
:106EA800C003C002C001126274745BF274AB126357
:106EB8000C7400F2087428F208E4F2087400F27402
:106EC8002912624A7400F208745B1262577400F265
:106ED8000874571262577400F208745C126257748F
:106EE80000F20874581262577400F208745D126256
:106EF800577400F20874591262577400F208745EED
:106F0800F2D001D002D0031256E8E528C454F0FFAD
:106F18007852E2FEC433333354802FFFE529540FEF
:106F28002F7864F2785BE278561262D5785CE27862
:106F3800571262D5785DE2FF78581262D6785EE221
:106F4800FF78591262D6785F1262DDE4FF12858BF2
:106F580078601262DD7F0112858B78611262DD7FB5
:106F68000212858B78621262DD7F0312858B7BFEAD
:106F78007A00795F12710D7864126297124FA878BF
:106F880064E2FF1262A61264CBE4F527745B25273E
:106F9800F81262DDAF271287650527E527C3940439
:106FA80040EAE4F510F511F5127513057F01128A10
:106FB800FD7864E2FF1283D07F08128942E4FF1251
:106FC80089781283077BFE7A00795B124C327864E9
:056FD800E29000D8F07A
:016FDD002291
:107C75007F0312827AEFB40202C3227852E2B5077B
:107C850002D3227852EFF2E2C43333335480FF78C3
:107C950055E2547F4FF27F011286317852E2FF128E
:107CA5007CD87BFE7A00795F12710D785512629748
:107CB500124FA87855E2FF1262A61264CBE4FF12B8
:107CC50089781283077BFE7A00795B124C32128821
:027CD500E2C308
:017CD700228A
:1089C000126274745AF208747D1262577400F208CD
:0689D0007453F20256E8A8
:058B14007F0102863123
:108A3E00905BDCE493FF120003905BDCA3E493FFF6
:038A4E0002000320
:025C5E00789E2E
:105C600012625E7400F208749EF27BFE7A0079A1E3
:105C7000127BA978A11261861285128E258F267A51
:105C80005B79DF125EABB5260DEEB5250912618496
:105C900012834B025EA87A5B79E1125EABB5260DEA
:105CA000EEB52509126184128699025EA87A5B79A5
:105CB000E3125EB2B5260DEEB52509126184128697
:105CC000CC025EA87A5B79E5125EB2B5260DEEB520
:105CD000250912618412810A025EA87A5B79EA12B0
:105CE0005EB9B5260DEEB525091261841282330224
:105CF0005EA87A5B79EF125EB9B5260DEEB525097F
:105D0000126184126660025EA87A5B79F4125EC04A
:105D1000B5260AEEB52506128AB7025EA87A5B7927
:105D2000FA125EC0B5260AEEB52506126313025EAE
:105D3000A87A5C7900125EC7B5260DEEB52509126A
:105D40006184126D6B025EA87A5C7906125EC7B53B
:105D5000260DEEB52509126184128A02025EA87A28
:105D60005C790C125ECEB5260AEEB525061281EAE4
:105D7000025EA87A5C7912125ECEB52615EEB525C4
:105D8000117F401285C3126184127F69128AA802B2
:105D90005EA87A5C7917125ED5B5260DEEB5250999
:105DA000126184127F69025EA87A5C791F125ED547
:105DB000B5260DEEB52509126184125EF8025EA8C3
:105DC0007A5C7925125EDCB52610EEB5250C128AB8
:105DD000A8126184128A77025EA87A5C792B125E1F
:105DE000DCB5260AEEB5250612838E025EA87A5C23
:105DF0007930125EE3B5260AEEB525061286FF025B
:105E00005EA87A5C7935125EE3B5260DEEB52509FC
:105E100012618412734A025EA87A5C793B125EEAD0
:105E2000B5260DEEB52509126184127E5A025EA8D0
:105E30007A5C7940125EEAB52628EEB52524128AEE
:105E4000A8126184126EA81285501288E2E4FF1233
:105E50008AFDC222C221E4F512F513F51075110571
:105E600080467A5C7946125EF1B5260FEEB5250BB9
:105E7000128AA81261841289C0802D7A5C794B1233
:105E80005EF1B5260CEEB52508128AA8128B148097
:105E9000177BFF7A5C7955128512EFB5260AEEB5AD
:0A5EA0002506128AA8128A3E7F012F
:105EAA00227BFF128512EF227BFF128512EF227BE3
:105EBA00FF128512EF227BFF128512EF227BFF125F
:105ECA008512EF227BFF128512EF227BFF128512C9
:105EDA00EF227BFF128512EF227BFF128512EF223F
:0E5EEA007BFF128512EF227BFF128512EF2242
:1089A9000D0A0044656275672050726F6772616DC8
:0789B900203E005043540072
:10806800128A99EF640170497895E2704412895E2A
:108078008F25300003120003E52524F8601F24FB38
:1080880070217894E2246BF8E4F2789504F27BFE90
:108098007A00796B1287EF300017028AF47894E23D
:1080A80014F2227894E2246BF8E525F27894E2043D
:0180B800F2D5
:0180B90022A4
:098AF4007BFF7A8979A902881937
:0A85FB00789EEBF208EAF208E9F2BC
:10860500789EE2FB08E2FA08E2F912442C601C7835
:108615009EE2FB0808E2F92401F218E2FA3400F2BE
:0B86250012442CF525FF12000380D545
:018630002227
:1089D6003000097BFF7A8979AC1285FBE47894F242
:0689E60008F2786BF2229A
:098AFD00EF6003C20122D2012244
:0B8AD500C200C201C222E47899F22224
:1087EF00789EEBF208EAF208E9F220001C789EE28C
:1087FF00FB08E2FA08E2F8AC02AD037BFF7A897955
:0A880F00BC124732EF7002D20022C3
:0782C10078A4EEF208EFF2D1
:1082C80078A5E2700218E26035E478A6F208F27840
:1082D800A6E2FE08E2FFE4FCFD7B0FFAF9F8D312F0
:1082E800450E400D78A7E22401F218E23400F2802E
:0E82F800DE78A5E224FFF218E234FFF280C225
:018306002254
:107B3400E4789BF20874C8F2087464F2128907129C
:107B44008AD5128B2912838E1289D6128068789571
:107B5400E2B401097BFE7A00796B125C5E7895E2EF
:107B6400B401031289D6302207127C755002C22256
:107B7400128A99EF6008789CE2751200F513E513F8
:107B840064014512700CF512F513789DE27510002E
:107B9400F511E5116401451070B11284927510005D
:057BA40075111480A61C
:10890700E4F5B8F5A8758780F5D0758921F58875E0
:0E8917009852128A891289ECD299D2AF0022AE
:100026001010FFFFFFFFFFFFFFFFFFFFFFFFFFFFB8
:10003600FFFFFFFFFFFFFFFFFFFFFFFFFFFFFFFFCA
:10004600FFFFFFFFFFFFFFFFFFFFFFFFFFFFFFFFBA
:10005600FFFFFFFFFFFFFFFFFFFFFFFFFFFFFFFFAA
:10006600FFFFFFFFFFFFFFFFFFFFFFFFFFFFFFFF9A
:10007600FFFFFFFFFFFFFFFFFFFFFFFFFFFFFFFF8A
:10008600FFFFFFFFFFFFFFFFFFFFFFFFFFFFFFFF7A
:10009600FFFFFFFFFFFFFFFFFFFFFFFFFFFFFFFF6A
:1000A600FFFFFFFFFFFFFFFFFFFFFFFFFFFFFFFF5A
:1000B600FFFFFFFFFFFFFFFFFFFFFFFFFFFFFFFF4A
:1000C600FFFFFFFFFFFFFFFFFFFFFFFFFFFFFFFF3A
:1000D600FFFFFFFFFFFFFFFFFFFFFFFFFFFFFFFF2A
:1000E600FFFFFFFFFFFFFFFFFFFFFFFFFFFFFFFF1A
:1000F600FFFFFFFFFFFFFFFFFFFFFFFFFFFFFFFF0A
:10010600FFFFFFFFFFFFFFFFFFFFFFFFFFFFFFFFF9
:10011600FFFFFFFFFFFFFFFFFFFFFFFFFFFFFFFFE9
:10012600FFFF1010FFFFFFFFFFFFFFFFFFFFFFFFB7
:10013600FFFFFFFFFFFFFFFFFFFFFFFFFFFFFFFFC9
:10014600FFFFFFFFFFFFFFFFFFFFFFFFFFFFFFFFB9
:10015600FFFFFFFFFFFFFFFFFFFFFFFFFFFFFFFFA9
:10016600FFFFFFFFFFFFFFFFFFFFFFFFFFFFFFFF99
:10017600FFFFFFFFFFFFFFFFFFFFFFFFFFFFFFFF89
:10018600FFFFFFFFFFFFFFFFFFFFFFFFFFFFFFFF79
:10019600FFFFFFFFFFFFFFFFFFFFFFFFFFFFFFFF69
:1001A600FFFFFFFFFFFFFFFFFFFFFFFFFFFFFFFF59
:1001B600FFFFFFFFFFFFFFFFFFFFFFFFFFFFFFFF49
:1001C600FFFFFFFFFFFFFFFFFFFFFFFFFFFFFFFF39
:1001D600FFFFFFFFFFFFFFFFFFFFFFFFFFFFFFFF29
:1001E600FFFFFFFFFFFFFFFFFFFFFFFFFFFFFFFF19
:1001F600FFFFFFFFFFFFFFFFFFFFFFFFFFFFFFFF09
:10020600FFFFFFFFFFFFFFFFFFFFFFFFFFFFFFFFF8
:10021600FFFFFFFFFFFFFFFFFFFFFFFFFFFFFFFFE8
:10022600FFFFFFFF1010FFFFFFFFFFFFFFFFFFFFB6
:10023600FFFFFFFFFFFFFFFFFFFFFFFFFFFFFFFFC8
:10024600FFFFFFFFFFFFFFFFFFFFFFFFFFFFFFFFB8
:10025600FFFFFFFFFFFFFFFFFFFFFFFFFFFFFFFFA8
:10026600FFFFFFFFFFFFFFFFFFFFFFFFFFFFFFFF98
:10027600FFFFFFFFFFFFFFFFFFFFFFFFFFFFFFFF88
:10028600FFFFFFFFFFFFFFFFFFFFFFFFFFFFFFFF78
:10029600FFFFFFFFFFFFFFFFFFFFFFFFFFFFFFFF68
:1002A600FFFFFFFFFFFFFFFFFFFFFFFFFFFFFFFF58
:1002B600FFFFFFFFFFFFFFFFFFFFFFFFFFFFFFFF48
:1002C600FFFFFFFFFFFFFFFFFFFFFFFFFFFFFFFF38
:1002D600FFFFFFFFFFFFFFFFFFFFFFFFFFFFFFFF28
:1002E600FFFFFFFFFFFFFFFFFFFFFFFFFFFFFFFF18
:1002F600FFFFFFFFFFFFFFFFFFFFFFFFFFFFFFFF08
:10030600FFFFFFFFFFFFFFFFFFFFFFFFFFFFFFFFF7
:10031600FFFFFFFFFFFFFFFFFFFFFFFFFFFFFFFFE7
:10032600FFFFFFFFFFFF1010FFFFFFFFFFFFFFFFB5
:10033600FFFFFFFFFFFFFFFFFFFFFFFFFFFFFFFFC7
:10034600FFFFFFFFFFFFFFFFFFFFFFFFFFFFFFFFB7
:10035600FFFFFFFFFFFFFFFFFFFFFFFFFFFFFFFFA7
:10036600FFFFFFFFFFFFFFFFFFFFFFFFFFFFFFFF97
:10037600FFFFFFFFFFFFFFFFFFFFFFFFFFFFFFFF87
:10038600FFFFFFFFFFFFFFFFFFFFFFFFFFFFFFFF77
:10039600FFFFFFFFFFFFFFFFFFFFFFFFFFFFFFFF67
:1003A600FFFFFFFFFFFFFFFFFFFFFFFFFFFFFFFF57
:1003B600FFFFFFFFFFFFFFFFFFFFFFFFFFFFFFFF47
:1003C600FFFFFFFFFFFFFFFFFFFFFFFFFFFFFFFF37
:1003D600FFFFFFFFFFFFFFFFFFFFFFFFFFFFFFFF27
:1003E600FFFFFFFFFFFFFFFFFFFFFFFFFFFFFFFF17
:1003F600FFFFFFFFFFFFFFFFFFFFFFFFFFFFFFFF07
:10040600FFFFFFFFFFFFFFFFFFFFFFFFFFFFFFFFF6
:10041600FFFFFFFFFFFFFFFFFFFFFFFFFFFFFFFFE6
:10042600FFFFFFFFFFFFFFFF1010FFFFFFFFFFFFB4
:10043600FFFFFFFFFFFFFFFFFFFFFFFFFFFFFFFFC6
:10044600FFFFFFFFFFFFFFFFFFFFFFFFFFFFFFFFB6
:10045600FFFFFFFFFFFFFFFFFFFFFFFFFFFFFFFFA6
:10046600FFFFFFFFFFFFFFFFFFFFFFFFFFFFFFFF96
:10047600FFFFFFFFFFFFFFFFFFFFFFFFFFFFFFFF86
:10048600FFFFFFFFFFFFFFFFFFFFFFFFFFFFFFFF76
:10049600FFFFFFFFFFFFFFFFFFFFFFFFFFFFFFFF66
:1004A600FFFFFFFFFFFFFFFFFFFFFFFFFFFFFFFF56
:1004B600FFFFFFFFFFFFFFFFFFFFFFFFFFFFFFFF46
:1004C600FFFFFFFFFFFFFFFFFFFFFFFFFFFFFFFF36
:1004D600FFFFFFFFFFFFFFFFFFFFFFFFFFFFFFFF26
:1004E600FFFFFFFFFFFFFFFFFFFFFFFFFFFFFFFF16
:1004F600FFFFFFFFFFFFFFFFFFFFFFFFFFFFFFFF06
:10050600FFFFFFFFFFFFFFFFFFFFFFFFFFFFFFFFF5
:10051600FFFFFFFFFFFFFFFFFFFFFFFFFFFFFFFFE5
:10052600FFFFFFFFFFFFFFFFFFFF1010FFFFFFFFB3
:10053600FFFF00000000FFFFFFFFFFFFFFFFFFFFC1
:10054600FF000000000000FFFFFFFFFFFFFFFFFFAF
:100556000000020202020000FFFFFFFFFFFFFFFF95
:100566000000020202020000FFFFFFFFFFFFFF0084
:10057600000202000002020000FFFFFFFFFFFF0073
:10058600000202000002020000FFFFFFFFFF000062
:1005960002020000000002020000FFFFFFFF000051
:1005A600020200FFFF0002020000FFFFFF00000240
:1005B600020000FFFF000002020000FFFF00000231
:1005C6000200000000000002020000FF000002021C
:1005D60002020202020202020202000000000202FD
:1005E60002020202020202020202000000000202ED
:1005F60000000000000000000202000000000202ED
:100606000000FFFFFFFF00000202000000000202E0
:100616000000FFFFFFFF00000202000000000000D4
:100626000000FFFFFFFF00000000000010100000A8
:10063600000000000000000000000000FFFF0002B4
:1006460002020202020202020202000000FF00028F
:10065600020202020202020202020200000000007E
:100666000002020000000000020202020000FF0079
:1006760000020200FFFFFF00000202020000FF006E
:1006860000020200FFFFFF00000202020000FF005E
:1006960000020200000000000202020000FFFF004C
:1006A600000202020202020202020000FFFFFF0035
:1006B600000202020202020202020000FFFFFF0025
:1006C60000020200000000000202020000FFFF001C
:1006D60000020200FFFFFF00000202020000FF000E
:1006E60000020200FFFFFF000002020200000000FD
:1006F60000020200000000000202020200000002E6
:1007060002020202020202020202020000000002CB
:1007160002020202020202020202000000FF0000C0
:10072600000000000000000000000000FFFF1010A5
:10073600FFFFFF00000000000000000000FFFFFFB9
:10074600FFFF00000202020202020202000000FF96
:10075600FF00000202020202020202020200000080
:100766000000000202000000000000020202000079
:1007760000000202020000FFFFFF0000020200006C
:10078600000002020000FFFFFFFFFF000202000060
:10079600000002020000FFFFFFFFFFFF0000000055
:1007A600000002020000FFFFFFFFFFFFFFFFFFFF49
:1007B600000002020000FFFFFFFFFFFFFFFFFFFF39
:1007C600000002020000FFFFFFFFFF000000000024
:1007D600000002020000FFFFFFFFFF000202000010
:1007E60000000202000000FFFFFF000002020000FE
:1007F60000000202020000000000000202020000E7
:10080600FF000002020202020202020202000000CF
:10081600FFFF00000202020202020202000000FFC5
:10082600FFFFFF0000000000000000000000FFFFC7
:100836001010000000000000000000000000FFFF94
:10084600FFFF00000202020202020202020000FF93
:10085600FFFF000002020202020202020202000080
:10086600FFFF00000202000000000002020200007A
:10087600FFFF000002020000FFFF0000020200006E
:10088600FFFF000002020000FFFF0000020200005E
:10089600FFFF00000202000000000002020200004A
:1008A600FFFF00000202020202020202020000FF33
:1008B600FFFF00000202020202020202000000FF25
:1008C600FFFF000002020000020202000000FFFF1C
:1008D600FFFF000002020000000202020000FFFF0C
:1008E600FFFF00000202000000000202020000FFFB
:1008F600FFFF000002020000FF00000202020000EB
:10090600FFFF000002020000FFFF000002020200DB
:1009160000FF000002020000FFFFFF0000020202CB
:1009260000FF000000000000FFFFFFFF00000000C6
:1009360000FF101000000000FFFFFFFFFFFFFFFF9A
:10094600000000000000000000FFFFFFFFFFFF00A7
:100956000000000000000C0C0000FFFFFFFF00007D
:100966000C0C000000000C0C0C0000000000000C39
:100976000C0C000000000C0C0C0C000000000C0C11
:100986000C0C000000000C0C0C0C0C0C0C0C0C0CD1
:100996000C0C000000000C0C0C0C0C0C0C0C0C0CC1
:1009A6000C0C000000000C0C0C000C0C0C0C000CC9
:1009B6000C0C000000000C0C0C00000C0C00000CD1
:1009C6000C0C000000000C0C0C0000000000000CD9
:1009D6000C0C000000000C0C0C0000000000000CC9
:1009E6000C0C000000000C0C0C0000FFFF00000CBB
:1009F6000C0C000000000C0C0C0000FFFF00000CAB
:100A06000C0C000000000C0C0C0000FFFF00000C9A
:100A16000C0C000000000C0C0C0000FFFF00000C8A
:100A26000C0C000000000000000000FFFF000000AA
:100A3600000000001010FF00000000000000000091
:100A46000000000000FFFF00000202020202020294
:100A56000202020000FFFF0000020202020202027E
:100A66000202020000FFFF00000000000000020278
:100A76000200000000FFFFFFFFFFFFFF0000020271
:100A8600020000FFFFFFFFFFFFFFFFFF0000020263
:100A9600020000FFFFFFFFFFFFFFFFFF0000020253
:100AA600020000FFFFFFFFFFFFFFFFFF0000020243
:100AB600020000FFFFFFFFFFFFFFFFFF0000020233
:100AC600020000FFFFFFFFFFFFFFFFFF0000020223
:100AD600020000FFFFFFFF00000000FF000002020F
:100AE600020000FFFFFFFF000202000000000202FA
:100AF600020000FFFFFFFF000202020000020202E6
:100B0600020000FFFFFFFF000002020202020202D3
:100B1600000000FFFFFFFFFF0000020202020200CA
:100B26000000FFFFFFFFFFFFFF00000000000000C6
:100B360000FFFFFFFFFF1010FFFFFFFFFFFFFFFF9C
:100B4600FFFFFFFFFFFFFFFFFFFFFFFFFF000000AC
:100B560000000000FFFFFFFFFFFFFFFF0000010195
:100B660001010000FFFFFFFFFFFFFF000001010181
:100B760001010000FFFFFFFFFFFF0000010101016F
:100B8600010000FFFFFFFFFFFF000001010101015F
:100B96000000000000000000000001010101010149
:100BA6000101010101010000000101010101010132
:100BB6000101010101010000000101010101010122
:100BC6000101010101010000000001010101010113
:100BD6000101010101010000FF0000010101010105
:100BE6000000000000000000FFFF000001010101FD
:100BF600010000FFFFFFFFFFFFFFFF0000010101F3
:100C060001010000FFFFFFFFFFFFFFFF00000101E2
:100C160001010000FFFFFFFFFFFFFFFFFF000000D5
:100C260000000000FFFFFFFFFFFFFFFFFFFFFFFFCA
:100C3600FFFFFFFFFFFFFFFF1010FFFFFFFFFFFF9C
:100C4600FFFFFFFFFFFFFFFFFFFFFFFFFFFF0000AC
:100C56000000000000FFFFFFFFFFFFFFFFFF000097
:100C6600010101010000FFFFFFFFFFFFFFFF000082
:100C760001010101010000FFFFFFFFFFFFFFFF0071
:100C86000001010101010000FFFF0000000000005B
:100C9600000001010101010000FF00000101010146
:100CA6000101010101010101000000000101010132
:100CB6000101010101010101010000000101010121
:100CC6000101010101010101010000000000000015
:100CD600000001010101010000FF0000000000000A
:100CE600000001010101010000FFFFFFFFFFFF00FF
:100CF6000001010101010000FFFFFFFFFFFF0000EF
:100D060001010101010000FFFFFFFFFFFFFF0000DF
:100D1600010101010000FFFFFFFFFFFFFFFF0000D1
:100D26000000000000FFFFFFFFFFFFFFFFFFFFFFC8
:100D3600FFFFFFFFFFFFFFFFFFFF1010FFFFFFFF9B
:100D46000000000000000000FFFFFFFFFFFFFFFFA5
:100D56000000010101010000FFFFFFFFFFFFFFFF91
:100D66000000010101010000FFFFFFFFFFFFFFFF81
:100D76000000010101010000FFFFFFFFFFFFFFFF71
:100D86000000010101010000FFFFFFFF000000005D
:100D96000000010101010000000000000000010147
:100DA6000000010101010000010100000000010135
:100DB6000100010101010001010100000000010123
:100DC6000101010101010101010100000000010111
:100DD600010101010101010101010000FF00000103
:100DE6000101010101010101010000FFFFFF0000F7
:100DF60001010101010101010000FFFFFFFFFF00EA
:100E0600000101010101010000FFFFFFFFFFFFFFDD
:100E16000000010101010000FFFFFFFFFFFFFFFFD0
:100E2600FF000001010000FFFFFFFFFFFFFFFFFFC4
:100E3600FFFF00000000FFFFFFFFFFFF1010FFFF96
:100E4600FFFFFFFFFFFF0000000000000000FFFFA4
:100E5600FFFFFFFFFF000002020202020000FFFF89
:100E6600FFFFFFFF00000202020202020000FFFF76
:100E7600FFFFFF0000020202000002020000000065
:100E86000000000002020200000002020000000052
:100E96000202020202020200FF000202000000003B
:100EA6000202020202020200FF000202000000002B
:100EB6000202000000020200FF0002020000000021
:100EC600020200FF00020200FF0002020000000012
:100ED6000202000000020200FF0002020000000001
:100EE6000202020202020200FF00020200000000EB
:100EF60002020202020202000000020200000000DA
:100F06000000000000020202000002020000FFFFD3
:100F1600FFFFFFFF00000202020202020000FFFFC5
:100F2600FFFFFFFFFF000002020202020000FFFFB8
:100F3600FFFFFFFFFFFF0000000000000000101091
:100F46000000000000FFFFFFFFFFFF0000000000A1
:100F56000001010100FFFFFFFFFFFF00010101008B
:100F66000001010100FFFFFFFFFFFF00010101007B
:100F76000001010100FFFFFFFFFFFF00010101006B
:100F86000001010100FFFFFFFFFFFF00010101005B
:100F9600000101010000FFFFFFFF00000101010049
:100FA600000101010100FFFFFFFF00010101010037
:100FB600000001010100FFFFFFFF00010101000029
:100FC60000000101010000FFFF0000010101000017
:100FD600FF0000010101000000000101010000FF07
:100FE600FFFF000001010100000101010000FFFFF9
:100FF600FFFF000000010100000101000000FFFFEB
:10100600FFFFFF00000101010101010000FFFFFFDA
:10101600FFFFFFFF0000010101010000FFFFFFFFCE
:10102600FFFFFFFFFF00000101000000FFFFFFFFC1
:10103600FFFFFFFFFFFF0000000000FFFFFFFFFFB5
:10104600101000000000000000FFFFFFFFFFFFFF81
:10105600FFFF00000101010000FFFFFFFFFFFFFF90
:10106600FFFF00000101010000FFFFFFFFFFFFFF80
:10107600FFFF00000101010000FFFFFFFFFFFFFF70
:10108600FFFF00000101010000FFFFFFFFFFFFFF60
:10109600FFFF00000101010000FFFFFFFFFFFFFF50
:1010A600FFFF00000101010000FFFFFFFFFFFFFF40
:1010B600FFFF00000101010000FFFFFFFFFFFFFF30
:1010C600FFFF00000101010000FFFFFFFFFFFFFF20
:1010D600FFFF00000101010000FFFFFFFFFF00000E
:1010E600000000000101010000FFFFFFFFFF0000FC
:1010F600000000000101010000FFFFFFFF000001EA
:1011060000000000010101000000000000000101D4
:1011160000000000010101010101010101010101BD
:1011260000000000010101010101010101010101AD
:1011360000000000000000000000000000000000A9
:1011460000001010FFFFFFFFFFFFFFFFFFFFFFFF85
:10115600FFFFFFFFFFFFFFFFFFFFFFFFFFFFFFFF99
:10116600FFFFFFFFFFFFFFFFFFFFFFFFFFFFFFFF89
:10117600FFFFFFFFFFFFFFFF00000000000000FF72
:10118600FFFFFFFFFFFFFF0000000101010000005D
:10119600FFFFFFFFFFFF0000010101010101010048
:1011A60000FFFFFFFF000001010100000001010137
:1011B6000000FFFF00000001010000FF0000010128
:1011C600000000FF00000101010000FF0000010116
:1011D600010000FF00000101010000FF0000010105
:1011E600010000FF00000101010000FF00000101F5
:1011F600010000FF00000001010000FF00000101E6
:10120600000000FFFF0000010101000000010101D4
:101216000000FFFFFFFF00000101010101010100C5
:1012260000FFFFFFFFFFFF000000010101000000BB
:10123600FFFFFFFFFFFFFFFF00000000000000FFB1
:10124600FFFFFFFF1010FFFFFFFFFFFFFFFFFFFF86
:10125600FFFFFFFFFFFFFFFFFFFF00000000000092
:101266000000FFFFFFFFFFFF000000000202020276
:10127600000000FFFFFFFF00000002020202020260
:1012860002020000FFFFFF00000202020000000051
:101296000202020000FFFF00000202020000FF003F
:1012A6000000000000FFFF00000002020202000032
:1012B6000000FFFFFFFFFFFFFF0000020202020225
:1012C600020000FFFFFFFFFFFFFF00000000020219
:1012D60002020000FFFFFF0000000000FFFF000009
:1012E6000202020000FFFF000002020200000000EE
:1012F6000202020000FFFF000000020202020202D8
:1013060002020000FFFFFFFFFF00000002020202D0
:10131600000000FFFFFFFFFFFFFFFF0000000000CF
:101326000000FFFFFFFFFFFFFFFFFFFFFFFFFFFFC5
:10133600FFFFFFFFFFFFFFFFFFFFFFFFFFFFFFFFB7
:10134600FFFFFFFFFFFF1010FFFFFFFFFFFFFFFF85
:10135600FFFFFFFFFFFFFFFFFF040404FFFFFFFF88
:10136600FFFF040404FFFFFFFF04040404FFFFFF64
:10137600FFFF040404FFFFFFFF04040404FFFFFF54
:10138600FFFF040404FFFFFFFF0404040404FFFF3F
:10139600FFFF040404FFFFFFFF0404FF0404FFFF34
:1013A600FFFF040404FFFFFFFF0404FFFF0404FF24
:1013B600FFFF040404FFFFFFFF0404FFFFFF040414
:1013C600FFFF040404FFFFFFFF0404FFFFFF040404
:1013D600FFFF040404FFFFFFFF0404FFFFFFFF04F9
:1013E60004FF040404FFFFFFFF0404FFFFFFFF04E4
:1013F6000404040404FFFFFFFF0404FFFFFFFFFFD4
:101406000404040404FFFFFFFF0404FFFFFFFFFFC3
:10141600FF04040404FFFFFFFF0404FFFFFFFFFFB8
:10142600FF04040404FFFFFFFF0404FFFFFFFFFFA8
:10143600FFFF040404FFFFFFFFFFFFFFFFFFFFFFA7
:10144600FFFFFFFFFFFFFFFF1010FFFFFFFFFFFF84
:10145600FFFFFFFFFFFFFFFFFFFFFFFFFFFF04048C
:1014660004040404FFFFFFFFFFFFFFFF040404045E
:10147600040404040404FFFFFFFFFF04040404043F
:1014860004040404040404FFFFFF04040404FFFF2F
:10149600FFFFFFFF040404FFFFFF040404FFFFFF38
:1014A600FFFFFFFFFF040404FFFF0404FFFFFFFF2D
:1014B600FFFFFFFFFF040404FFFF0404FFFFFFFF1D
:1014C600FFFFFFFFFF040404FFFF0404FFFFFFFF0D
:1014D600FFFFFFFFFF040404FFFF040404FFFFFFF8
:1014E600FFFFFFFFFF040404FFFF040404FFFFFFE8
:1014F600FFFFFFFFFF040404FFFF04040404FFFFD3
:10150600FFFFFFFF040404FFFFFFFF0404040404BD
:1015160004040404040404FFFFFFFFFF040404049E
:10152600040404040404FFFFFFFFFFFFFFFF04049D
:1015360004040404FFFFFFFFFFFFFFFFFFFFFFFFA1
:10154600FFFFFFFFFFFFFFFFFFFF1010FFFFFFFF83
:10155600FFFFFFFFFFFFFFFFFFFFFFFFFFFFFFFF95
:10156600FFFF040404FFFFFFFFFFFFFFFFFFFFFF76
:10157600FFFF040404FFFFFFFFFFFFFFFFFFFFFF66
:10158600FFFFFF040404FFFFFFFFFFFFFFFFFFFF56
:10159600FFFFFF040404FFFFFFFFFF04FFFFFFFF41
:1015A600FFFFFF040404FFFFFFFFFF04FFFFFFFF31
:1015B600FFFFFFFF040404FFFFFF0404FFFFFFFF1C
:1015C600FFFFFFFF040404FFFFFF0404FFFFFFFF0C
:1015D600FFFFFFFFFF0404FFFFFF0404FFFFFFFF01
:1015E600FFFFFFFFF2040404FF040404FFFFFFFFF4
:1015F600FFFFFFFFFF040404FF040404FFFFFFFFD7
:10160600FFFFFFFFFFFF0404040404FFFFFFFFFFCB
:10161600FFFFFFFFFFFF0404040404FFFFFFFFFFBB
:10162600FFFFFFFFFFFF0404040404FFFFFFFFFFAB
:10163600FFFFFFFFFFFFFF040404FFFFFFFFFFFFA5
:10164600FFFFFFFFFFFFFFFFFFFFFFFF1010FFFF82
:10165600FFFFFFFFFFFFFFFFFFFFFFFFFFFF04048A
:1016660004FFFF040404FFFFFF040404040404044D
:1016760004FFFF040404FFFFFF040404040404043D
:10168600FFFFFF040404FFFFFF0404040404040432
:10169600FFFFFF040404FFFFFF040404FFFF04042C
:1016A600FFFFFF040404FFFFFF040404FFFF04FF21
:1016B600FFFFFF040404FFFFFF040404FFFF04FF11
:1016C600FFFFFF040404FFFFFF040404FFFF04FF01
:1016D600FFFFFF040404FFFFFF040404FFFFFFFFF6
:1016E600FFFFFF040404FFFFFF040404FFFFFFFFE6
:1016F600FFFFFF040404FFFFFF040404FFFFFFFFD6
:10170600FFFFFF040404FFFFFF040404FFFFFFFFC5
:10171600FFFFFF040404FFFFFF0404040404FFFFAB
:10172600FFFFFF040404FFFFFF0404040404FFFF9B
:10173600FFFFFF040404FFFFFF0404040404FFFF8B
:10174600FFFFFFFFFFFFFFFFFFFFFFFFFFFF101081
:10175600FFFFFFFFFFFFFFFFFFFFFFFFFFFFFFFF93
:1017660004040404FFFFFFFFFFFFFF040404040456
:101776000404040404FFFFFFFFFFFF040404040441
:10178600040404040404FFFFFFFFFF04040404042C
:10179600FFFFFF04040404FFFFFFFF040404FFFF30
:1017A600FFFFFFFF040404FFFFFFFF040404FFFF25
:1017B600FFFFFFFFFF0404FFFFFFFF040404FFFF1A
:1017C600FFFFFFFFFF0404FFFFFFFF040404040400
:1017D600FFFFFFFFFF0404FFFFFFFF0404040404F0
:1017E600FFFFFFFFFF0404FFFFFFFF040404FFFFEA
:1017F600FFFFFFFF040404FFFFFFFF040404FFFFD5
:10180600FFFFFFFF040404FFFFFFFF040404FFFFC4
:10181600040404040404FFFFFFFFFF04040404049B
:101826000404040404FFFFFFFFFFFF040404040490
:1018360004040404FFFFFFFFFFFFFF040404040485
:10184600FFFFFFFFFFFFFFFFFFFFFFFFFFFFFFFFA2
:101856001010FFFFFFFFFFFFFFFFFFFFFFFFFFFF70
:10186600FFFF040404040404FFFFFFFFFFFFFF045F
:101876000404040404040404FFFFFFFFFF0404043B
:101886000404040404040404FFFFFFFF0404040426
:101896000404FFFFFFFFFFFFFFFFFFFF040404FF39
:1018A600FFFFFFFFFFFFFFFFFFFFFF040404FFFF33
:1018B600FFFFFFFFFFFFFFFFFFFFFF040404FFFF23
:1018C600FFFF0404040404FFFFFFFF040404FFFFFA
:1018D600FFFF0404040404FFFFFFFF040404FFFFEA
:1018E600FFFFFFFFFFFFFFFFFFFFFF040404FFFFF3
:1018F600FFFFFFFFFFFFFFFFFFFFFF040404FFFFE3
:10190600FFFFFFFFFFFFFFFFFFFFFFFF040404FFD2
:10191600FFFF040404040404FFFFFFFF040404049F
:101926000404040404040404FFFFFFFFFF0404048A
:101936000404040404040404FFFFFFFFFFFFFF0484
:101946000404FFFFFFFFFFFFFFFFFFFFFFFFFFFF97
:10195600FFFF1010FFFFFFFFFFFFFFFFFFFFFFFF6F
:10196600FFFFFFFF040404FFFFFFFFFFFFFFFFFF72
:10197600FFFFFFFF0404040404FFFFFFFFFFFFFF58
:10198600FFFFFFFF040404040404FFFFFFFFFFFF43
:10199600FFFFFFFFFFFFFF040404FFFFFFFFFFFF42
:1019A600FFFFFFFFFFFFFFFF040404FFFFFFFFFF32
:1019B600FFFFFFFFFFFFFFFF040404FFFFFFFFFF22
:1019C600FFFFFFFFFFFFFFFF040404FFFFFFFFFF12
:1019D600FFFFFFFFFFFFFFFF040404FFFFFFFFFF02
:1019E600FFFFFFFFFFFFFFFF040404FFFFFFFFFFF2
:1019F600FFFFFFFFFFFFFFFF040404FFFFFFFFFFE2
:101A0600FFFFFFFFFFFFFF040404FFFFFFFFFFFFD1
:101A1600FFFFFFFF040404040404FFFFFFFFFFFFB2
:101A2600FFFFFFFF0404040404FFFFFFFFFFFFFFA7
:101A3600FFFFFFFF040404FFFFFFFFFFFFFFFFFFA1
:101A4600FFFFFFFFFFFFFFFFFFFFFFFFFFFFFFFFA0
:101A5600FFFFFFFF1010FFFFFFFFFFFFFFFFFFFF6E
:101A6600FFFFFFFFFFFFFFFFFFFF04040404040462
:101A7600FFFFFFFFFF04FFFF040404040404040443
:101A860004FFFFFFFF04FFFF04040404040404042E
:101A96000404FFFFFF04FF040404FFFFFFFFFF042D
:101AA6000404FFFFFF04FF040404FFFFFFFFFFFF22
:101AB6000404FFFFFF04FFFF04040404FFFFFFFF0D
:101AC600FFFFFFFFFF04FFFF0404040404040404F3
:101AD600FFFFFFFFFF04FFFFFFFF040404040404ED
:101AE60004FFFFFFFF04FFFFFFFFFFFFFFFF0404EC
:101AF6000404FFFFFF04040404FFFFFFFFFFFFFFD2
:101B06000404FFFFFF0404040404FFFFFFFFFF04B7
:101B16000404FFFFFF04FF04040404040404040493
:101B26000404FFFFFF04FFFF040404040404040488
:101B360004FFFFFFFF04FFFFFF0404040404040482
:101B4600FFFFFFFFFF04FFFFFFFFFFFFFFFFFFFF9A
:101B5600FFFFFFFFFFFF1010FFFFFFFFFFFFFFFF6D
:101B6600FFFFFFFFFFFFFFFF0404FFFFFFFFFFFF75
:101B7600FF040404040404FF0404FFFFFFFFFF0442
:101B860004040404040404040404FFFFFFFF040423
:101B960004040404040404040404FFFFFF0404040E
:101BA60004FFFFFFFFFFFF040404FFFFFF0404041C
:101BB600FFFFFFFFFFFFFFFF0404FFFF040404FF16
:101BC600FFFFFFFFFFFFFFFF0404FFFF040404FF06
:101BD600FFFFFFFFFFFFFFFF0404FFFF040404FFF6
:101BE600FFFFFFFF040404040404FFFF040404FFD2
:101BF600FFFFFFFF040404040404FFFFFF040404C2
:101C0600FFFFFFFFFFFFFFFF0404FFFFFF040404C5
:101C160004FFFFFFFFFFFFFF0404FFFFFFFF0404B5
:101C260004040404040404040404FFFFFFFFFF0487
:101C360004040404040404040404FFFFFFFFFFFF7C
:101C4600FF040404040404FFFFFFFFFFFFFFFFFF80
:101C5600FFFFFFFFFFFFFFFF1010FFFFFFFFFFFF6C
:101C6600FFFFFFFFFFFFFFFFFFFFFFFFFFFFFF0479
:101C76000404FFFFFFFFFFFFFF0404FFFFFFFF0455
:101C8600040404FFFFFFFFFFFF040404FFFFFF043B
:101C960004040404FFFFFFFFFF04040404FFFF0421
:101CA60004040404FFFFFFFFFF04FFFFFFFFFF0420
:101CB6000404040404FFFFFFFF04FFFFFFFFFF040B
:101CC6000404FFFF0404FFFFFF04FFFFFFFFFF0400
:101CD6000404FFFF0404FFFFFF04040404FFFF04E1
:101CE6000404FFFFFF0404FFFF04040404FFFF04D1
:101CF6000404FFFFFF0404FFFF04040404FFFF04C1
:101D06000404FFFFFFFF04040404040404FFFF04AB
:101D16000404FFFFFFFFFF040404040404FFFF04A0
:101D26000404FFFFFFFFFF04040404FFFFFFFF049A
:101D36000404FFFFFFFFFFFF0404FFFFFFFFFF0494
:101D46000404FFFFFFFFFFFF0404FFFFFFFFFFFF89
:101D5600FFFFFFFFFFFFFFFFFFFF1010FFFFFFFF6B
:101D6600FFFFFFFFFFFFFFFFFFFFFFFF0404FFFF73
:101D7600FFFFFFFFFF04040404FFFFFF0404FFFF4F
:101D8600FFFFFFFF0404040404FFFFFF0404FFFF3A
:101D9600FFFFFFFF040404040404FFFF0404FFFF25
:101DA600FFFFFFFF0404FF040404FFFF0404FFFF1A
:101DB600FFFFFF040404FFFF0404FFFF0404FFFF0A
:101DC600FFFFFF0404FFFFFF040404FF0404FFFFFA
:101DD600FFFF040404FFFFFFFF0404FF0404FFFFEA
:101DE600FFFF040404FFFFFFFF0404040404FFFFD5
:101DF600FF04040404040404040404040404FFFFAC
:101E0600FF04040404040404040404040404FFFF9B
:101E1600FF04040404040404040404040404FFFF8B
:101E2600040404FFFFFFFFFFFFFFFF040404FFFF9E
:101E36000404FFFFFFFFFFFFFFFFFF040404FF048E
:101E46000404FFFFFFFFFFFFFFFFFFFFFFFFFFFF92
:101E5600FFFFFFFFFFFFFFFFFFFFFFFF1010FFFF6A
:101E6600FFFFFFFFFFFFFFFFFFFFFFFFFFFFFFFF7C
:101E7600FFFFFF040404FFFFFFFFFFFFFFFFFFFF5D
:101E8600FFFFFF040404FFFFFFFFFFFFFFFFFFFF4D
:101E9600FFFFFF040404FFFFFFFFFFFFFFFFFFFF3D
:101EA600FFFFFF040404FFFFFFFFFFFFFFFFFFFF2D
:101EB600FFFFFF040404FFFFFFFFFFFFFFFFFFFF1D
:101EC600FFFFFF040404FFFFFFFFFFFFFFFFFFFF0D
:101ED600FFFFFF040404FFFFFFFFFFFFFFFFFFFFFD
:101EE600FFFFFF040404FFFFFFFFFFFFFFFFFFFFED
:101EF600FFFFFF040404FFFFFFFFFFFFFFFF04FFD8
:101F0600FFFFFF040404FFFFFFFFFFFFFFFF04FFC7
:101F1600FFFFFF040404FFFFFFFFFFFFFFFF04FFB7
:101F2600FFFFFF04040404040404040404FF04047F
:101F3600FFFFFF04040404040404040404FF04046F
:101F4600FFFFFF04040404040404040404FFFFFF69
:101F5600FFFFFFFFFFFFFFFFFFFFFFFFFFFF101069
:101F6600FFFFFFFFFFFFFFFFFFFFFFFFFFFFFFFF7B
:101F7600FFFFFFFFFFFFFFFFFFFFFFFFFFFFFFFF6B
:101F8600FFFFFFFFFFFFFFFFFFFFFFFFFFFFFFFF5B
:101F9600FFFFFFFFFFFFFFFFFFFFFFFFFFFFFFFF4B
:101FA600FFFFFFFFFFFFFFFFFFFFFFFFFFFFFFFF3B
:101FB600FFFFFFFFFFFFFFFFFFFFFFFFFFFFFFFF2B
:101FC600FFFFFFFFFFFFFFFFFFFFFFFFFFFFFFFF1B
:101FD600FFFFFFFFFFFFFFFFFFFFFFFFFFFFFFFF0B
:101FE6001010FFFFFFFFFFFFFFFFFFFFFFFFFFFFD9
:101FF600FFFFFFFFFFFFFFFFFFFFFFFFFFFFFFFFEB
:10200600FFFFFFFFFFFFFFFFFFFFFFFFFFFFFFFFDA
:10201600FFFFFFFFFFFFFFFFFFFFFFFFFFFFFFFFCA
:10202600FFFFFFFFFFFFFFFFFFFFFFFFFFFFFFFFBA
:10203600FFFFFFFFFFFFFFFFFFFFFFFFFFFFFFFFAA
:10204600FFFFFFFFFFFFFFFFFFFFFFFFFFFFFFFF9A
:10205600FFFFFFFFFFFFFFFFFFFFFFFFFFFFFFFF8A
:10206600FFFF1010FFFFFFFFFFFFFFFFFFFFFFFF58
:10207600FFFFFFFFFFFFFFFFFFFFFFFFFFFFFFFF6A
:10208600FFFFFFFFFFFFFFFFFFFFFFFFFFFFFFFF5A
:10209600FFFFFFFFFFFFFFFFFFFFFFFFFFFFFFFF4A
:1020A600FFFFFFFFFFFFFFFFFFFFFFFFFFFFFFFF3A
:1020B600FFFFFFFFFFFFFFFFFFFFFFFFFFFFFFFF2A
:1020C600FFFFFFFFFFFFFFFFFFFFFFFFFFFFFFFF1A
:1020D600FFFFFFFFFFFFFFFFFFFFFFFFFFFFFFFF0A
:1020E600FFFFFFFF1010FFFFFFFFFFFFFFFFFFFFD8
:1020F600FFFFFFFFFFFFFFFFFFFFFFFFFFFFFFFFEA
:10210600FFFFFFFFFFFFFFFFFFFFFFFFFFFFFFFFD9
:10211600FFFFFFFFFFFFFFFFFFFFFFFFFFFFFFFFC9
:10212600FFFFFFFFFFFFFFFFFFFFFFFFFFFFFFFFB9
:10213600FFFFFFFFFFFFFFFFFFFFFFFFFFFFFFFFA9
:10214600FFFFFFFFFFFFFFFFFFFFFFFFFFFFFFFF99
:10215600FFFFFFFFFFFFFFFFFFFFFFFFFFFFFFFF89
:10216600FFFFFFFFFFFF1010FFFFFFFFFFFFFFFF57
:10217600FFFFFFFFFFFFFFFFFFFFFFFFFFFFFFFF69
:10218600FFFFFFFFFFFFFFFFFFFFFFFFFFFFFFFF59
:10219600FFFFFFFFFFFFFFFFFFFFFFFFFFFFFFFF49
:1021A600FFFFFFFFFFFFFFFFFFFFFFFFFFFFFFFF39
:1021B600FFFFFFFFFFFFFFFFFFFFFFFFFFFFFFFF29
:1021C600FFFFFFFFFFFFFFFFFFFFFFFFFFFFFFFF19
:1021D600FFFFFFFFFFFFFFFFFFFFFFFFFFFFFFFF09
:1021E600FFFFFFFFFFFFFFFF1010FFFFFF0000FFD5
:1021F600FFFFFFFFF000000FFFFFFFFF002222009E
:10220600FFFFFFFF00222200FFFFFFF00220022057
:102216000FFFFFF0022002200FFFFF002200002226
:1022260000FFFF00220FF02200FFF002200FF00255
:10223600200FF00220000002200F0022222222227C
:102246002200002222222222220000220000000078
:102256002200002200FFFF002200002200FFFF00F4
:102266002200000000FFFF00000010100000000028
:10227600000000FF022222222222000F0222222236
:10228600222220000002200000222200F00220FF6D
:10229600F0022200F00220FFF0022200F0022000ED
:1022A6000022200FF0022222222200FFF002222228
:1022B600222200FFF00220000022200FF00220FF61
:1022C600F0022200F00220FFF002220000022000AD
:1022D6000022220002222222222220000222222280
:1022E6002222000F00000000000000FF1010101056
:1022F60010101010101010101010101010101010D8
:022306001010B5
:1084520078B6E2FB08E2FA08E2F9124445FF78989E
:10846200E22F78D7F222F278B6E2FB0808E2F9248A
:1084720001F218E2FA3400F202442C78B6E2FB0868
:10848200E2FA08E2F922E22401F218E23400F222CE
:058B1900E47898F2224F
:058B1E007898EFF2223F
:0A67EA0078AEEFF208ECF208EDF2D1
:1067F40078AEE2FF25E0F2E22408F278B5F278AF51
:10680400E2FE08E27803C333CE33CED8F979B0F38D
:10681400EE19F378B0E2240812848BAF037E007C77
:10682400017D0212448474262FF974003EFA78B66E
:1068340074FFF208EAF208E912846878B1128468F5
:1068440078B2F2E408F278B1E2FF78B3E2C39F4091
:106854000302690CE408F278B2E2FF78B4E2C39F61
:1068640040030268F912847D12442C12845FE4FB15
:106874007D02FF1287969000011284527B011269F7
:10688400349000021284527B0212693412847D9087
:10689400000312845C7B0312693C78D77480F27B1A
:1068A4000412693C78B8E2240412848B78B5E27847
:1068B400D7F27B0512694F08E278D7F27B07126999
:1068C4004FE27E007802C333CE33CED8F912690D7D
:1068D40012694420E7FA78AFE225E025E044081283
:1068E400690D12694420E7FA78B5E204F218E2244B
:1068F40004F202685B78AEE278B5F278B01284886C
:0869040078B3E204F202684AD4
:10690C002278D7F27B097D02E4FF1287967B0A7D01
:10691C0002E4FF128666EF543F448078D7F27B0A7C
:10692C007D02E4FF128796227D02E4FF12879622F5
:10693C007D02E4FF128796227B0A7D02E4FF128619
:0D694C0066EF227D02E4FF12879678AF22ED
:0A7DFB0078A7EFF208EDF208EBF2B2
:107E05000812847F12000E78ADEFF2C3648094806F
:107E1500404278A7E230E02F78A8E2FF08E2FD7C37
:107E2500000812847F12442CFB1267EA78ADE21435
:107E3500F21812848878A8E22402F278ADE2D364BD
:107E450080948050D3800A78ADE2D36480948050CA
:047E5500F6128B296D
:017E59002206
:1087C3000500000600000700000800000900000A79
:1087D300000012000020000B000C000D000E00131F
:0C87E3001415161718191A1B1C1D1E0077
:038AE6000121006B
:10780E007856E275F003A424C3F9748735F0FA783C
:10781E00AA74FFF2082278A4900001E2FB08E2FAB3
:10782E0008E2F902444578A4E2FB08E2FA08E2F91C
:10783E00227856E2FF74017E00A8070822FF7863C3
:10784E00E2FDEF5D227487F20874E2F2227487F291
:10785E000874CFF2227487F20874E0F222900002CC
:10786E00024445EAF208E9F2E4FB2212442C540CDD
:10787E001313543FF52722EAF208E9F27B12227B1A
:10788E00017D127C00227D197B057C007F3422EB6A
:10789E00F208EAF208E9F2229000030244457B0165
:1078AE007D0F7C0022EAF208E9F27B0F227B01E4D5
:1078BE00FDFC7F1C227B01E4FDFC7F41227BFE7AD6
:0478CE0000795B22C0
:1081A000126FDE128B197F04128B237F03128B2632
:1081B000E4F527AF271281D50527E527C3940640AC
:1081C000F27F011286317FFF128B267F081281D544
:0481D000E47853F20A
:1081D4002212892578A8E4F2087426F27B5AE4FD79
:0681E400FCFF127973227A
:104C320078A412789D7F02128B237FFF128B267835
:104C420055E212458E4C75114C86214CAE224CCB4E
:104C5200314CFE334D30344D68414DB6914DCCA1AF
:104C62004DFAA24E21B14E65B34EA2B44EE3C1003D
:104C7200004F4478A412783612442C20E103024FEC
:104C820044024DC478A412783612442C30E1091241
:104C9200780E127871124F9012782420E103024F9D
:104CA2004478571278101278B3024DF578A412782E
:104CB2003612442C30E10612780E124F4512782437
:104CC20020E103024F44024E1478A41278361244B3
:104CD2002C30E10912780E127871124F901278245A
:104CE20030E1087857127810124F8178A4900002B0
:104CF20012782920E103024F44024D2B78A4127846
:104D02003612442C30E10612780E124F45127824E6
:104D120030E1087857127810124F7278A412783660
:104D220012786B20E103024F447858024DAD78A40B
:104D320012783612442C30E10612780E124F5412B9
:104D4200782430E1087857127810124F7278A41242
:104D5200783612786B20E103024F447858127810AB
:104D62001278B3024EDE78A412783612442C30E167
:104D72000612780E124F5412782430E10B78571233
:104D82007810127871124F9878A412783612786BD4
:104D920030E1087858127810124F8178A4127836D0
:104DA2001278A620E103024F447859127810127843
:104DB200B3024E1C78A412783612442C20E103026E
:104DC2004F4412780E127871802978A41278361224
:104DD200442C30E10D12780E1278717D297F011278
:104DE2007DFB12782420E103024F44785712781099
:104DF2001278857D29024F3F78A412783612442C0E
:104E020030E10612780E124F6312782420E1030279
:104E12004F4478571278101278717D3E024F3F78D6
:104E2200A412783612442C30E10D12780E127871E9
:104E32007D297F01127DFB12782430E10B78571215
:104E42007810127885124FA078A412783612786BF7
:104E520020E103024F4478581278101278857D3E83
:104E6200024F3F78A412783612442C30E1061278B1
:104E72000E124F6312782430E10B78571278101219
:104E82007871124F9878A412783612786B20E10369
:104E9200024F4478581278101278857D3E024F3FB7
:104EA20078A412783612442C30E10912780E127866
:104EB20071124FA012782430E10F78571278101235
:104EC20078717D3E7F01127DFB78A41278361278CC
:104ED2006B30E16E78581278101278857D14024F8B
:104EE2003F78A412783612442C30E10D12780E125B
:104EF20078717D147F01127DFB12782430E10F78E6
:104F0200571278101278717D3E7F01127DFB78A4D2
:104F120012783612786B30E10F78581278101278C6
:104F2200857D147F01127DFB78A41278361278A653
:104F320030E10F78591278101278857D3E7F011288
:104F42007DFB22EAF208E9F2E4FB7D147F01127D87
:104F5200FB22EAF208E9F2E4FB7D147F01127DFBF9
:104F620022EAF208E9F2E4FB7D147F01127DFB22C2
:104F7200EAF208E9F2E4FB7D3E7F01127DFB22EAC0
:104F8200F208E9F27B0F7D147F01127DFB227D295D
:104F92007F01127DFB227D3E7F01127DFB227D146B
:064FA2007F01127DFB22DD
:078B06007854E24480F222E2
:108492007B787D01E4FF128666EF540FFF7863F26A
:1084A2007854E26F60297B31E4FDFF128666EF5457
:1084B2007F78D7F27B31E4FDFF12879620220AD221
:1084C200227F4D128B231231A87863E27854F22274
:056C180078A412789D34
:106C1D007F41128B237855E212458E6C50116C60BA
:106C2D00216C8F226CC1316CE3336CFF346C50914D
:106C3D006C60A16C8FA26CC1B16CE3B36CFFB4003E
:106C4D00006D3878A41278361278796003026CCB17
:106C5D00026CD978A41278361278796012126D39D7
:106C6D0012781C1278717D1C7F01127DFB8006123B
:106C7D0078BB1278D278A412782612787C60320212
:106C8D006D0978A41278361278796012126D391266
:106C9D00781C1278717D1C7F01127DFB80061278A5
:106CAD00BB1278D278A412782612787C6003026D1C
:106CBD0009026D2E78A4127836127879600E126D55
:106CCD005212781C1278717D31026D297B01E4FD21
:106CDD00FC7F31026D3578A4127836127879600D0B
:106CED00126D5212781C1278717D1C802F1278BB98
:106CFD00803678A412782612787C60257B02E4FD1C
:106D0D00FCFF1278D2E52725E0FFE433FE74D82F7F
:106D1D00F974873E12781C1278717D467F01027DD1
:0B6D2D00FB7B01E4FDFC7F461278D2E6
:106D3800227B02E4FDFCFF1278D2E52725E0FFE480
:106D480033FE74D82FF974873E227B02E4FDFCFFE2
:106D58001278D2E52725E0FFE433FE74D82FF974C2
:036D6800873E2241
:103B750078A412789D7F0C128B237855E212458E1E
:103B85003BB3113BC2213BE7223C09313C4A333C64
:103B950083343CC8413D29913D43A13D77A23DA9D0
:103BA500B13DFCB33E47B43E98C100003F041278D6
:103BB5003412442C30E003023D32023D3C1278348D
:103BC50012442C30E00B12781D12785B123F87806F
:103BD50003123F5C78A412782630E003023D6202AE
:103BE5003D6F12783412442C30E00812781D123FD4
:103BF500058003123F2778A412782630E003023DA2
:103C050096023DA312783412442C30E00B12781D35
:103C150012785B123F878003123F5C78A4127826E6
:103C250030E00B12781D12785B123FB180081278D4
:103C3500AC7F171278D212783412786B30E0030219
:103C45003D17023D2212783412442C30E0081278D8
:103C55001D123F058003123F2778A412782630E015
:103C65000B12781D12785B123F728003123F3212DD
:103C7500783412786B30E003023D17023D2212784A
:103C85003412442C30E00812781D123F16800312BE
:103C95003F3D78A412782630E00B12781D12785B30
:103CA500123F728003123F3212783412786B30E083
:103CB5000B12781D12785B7B0F023E887B017D0F0E
:103CC500023E9112783412442C30E00812781D120D
:103CD5003F168003123F3D78A412782630E00B1280
:103CE500781D12785B123F9C8003123F671278346F
:103CF50012786B30E00B12781D12785B123FB180A1
:103D0500081278AC7F171278D21278341278A63060
:103D1500E00B12781D12785B7B0F023D9E7B017DC7
:103D25000F023DF512783412442C30E00A12781D4A
:103D350012785BE4FB802E7B01E4FDFC802F12787A
:103D45003412442C30E00B12781D12785B123FBB05
:103D55008003123F9178A412782630E00D12781D69
:103D650012785B7B0F7D2C023EF71278AC7F2C021C
:103D75003F0112783412442C30E00B12781D127872
:103D85005B123F488003123F7C78A412782630E00E
:103D95000D12781D12785BE4FB7D41023EF7127827
:103DA500C3023F0112783412442C30E00B12781D07
:103DB50012785B123FBB8003123F9178A4127826DC
:103DC50030E00B12781D12785B123FC5800812781F
:103DD5008D7F171278D212783412786B30E00D127D
:103DE500781D12785B7B127D41023EF77B017D12C7
:103DF5007C007F41023F0112783412442C30E00BE5
:103E050012781D12785B123F488003123F7C78A41C
:103E150012782630E00B12781D12785B123F9C80D9
:103E250003123F6712783412786B30E00D12781D5B
:103E350012785B7B127D41023EF712788D7F41023D
:103E45003F0112783412442C30E00B12781D1278A1
:103E55005B123F528003123FA678A412782630E009
:103E65000B12781D12785B123FCF80061278C312B1
:103E750078D212783412786B30E00D12781D1278F2
:103E85005B7B127D17023EF77B017D127C007F175D
:103E9500023F0112783412442C30E00B12781D12C7
:103EA500785B123F528003123FA678A41278263021
:103EB500E00B12781D12785B123FCF80061278C393
:103EC5001278D212783412786B30E00B12781D120A
:103ED500785B123FC5800812788D7F171278D21251
:103EE50078341278A630E00F12781D12785B7B12B9
:103EF5007D417F01027DFB12788D7F411278D222B0
:103F05007487F20874CFF2E4FB7D177F01127DFB05
:103F1500227487F20874CFF2E4FB7D177F01127DCE
:103F2500FB227B01E4FDFC7F171278D2227B01E4A2
:103F3500FDFC7F411278D2227B01E4FDFC7F171244
:103F450078D222E4FB7D177F01127DFB22E4FB7D05
:103F5500177F01127DFB227B01E4FDFC7F2C12788B
:103F6500D2227B01E4FDFC7F411278D222E4FB7D65
:103F7500417F01127DFB227B01E4FDFC7F17127856
:103F8500D222E4FB7D2C7F01127DFB227B01E4FD27
:103F9500FC7F2C1278D222E4FB7D417F01127DFB50
:103FA500227B01E4FDFC7F171278D2227B0F7D175F
:103FB5007F01127DFB22E4FB7D2C7F01127DFB221C
:103FC5007B127D177F01127DFB22E4FB7D417F0182
:043FD500127DFB223C
:10370D0078A412789D7F02128B237855E212458E94
:10371D0037481137592137862237AA3137EF3338D9
:10372D002C3438754138DC9138FEA23936B1399ACE
:10373D00B339E9B43A3BC100003AAA78A4127836FD
:10374D0012442C30E4030238E70238F478A41278DE
:10375D003612442C30E40B12781D127863123B4262
:10376D008003123B2278A412783612442C30E403E5
:10377D000238E71278AC0238F978A4127836124480
:10378D002C30E40812781D123AAB8003123ACD7832
:10379D00A412782630E40302391F02392C78A412C2
:1037AD00783612442C30E40B12781D127863123BDC
:1037BD00428003123B2278A412782630E40B127853
:1037CD001D127863123B4C80081278AC7F1F127863
:1037DD00D278A412783612786B30E4030238CA021C
:1037ED0038D578A412783612442C30E40812781D9E
:1037FD00123AAB8003123ACD78A412782630E40B3E
:10380D0012781D127863123B188003123AD878A4EF
:10381D0012783612786B30E4030238CA0238D57844
:10382D00A412783612442C30E40812781D123ABCDA
:10383D008003123AE378A412782630E40B12781D37
:10384D00127863123B188003123AD878A412783696
:10385D0012786B30E40B12781D1278637B0F023AED
:10386D002B7B017D0F023A3478A412783612442C4A
:10387D0030E40812781D123ABC8003123AE378A4A2
:10388D0012782630E40B12781D127863123B2D80CE
:10389D0003123B0278A412783612786B30E40B12C7
:1038AD00781D127863123B4C80081278AC7F1F1282
:1038BD0078D278A41278361278A630E40B12781DDF
:1038CD001278637B0F0239277B017D0F02399378C4
:1038DD00A412783612442C30E40D12781D12786340
:1038ED00E4FB7D34023A9D7B01E4FDFC7F34023A1A
:1038FD00A778A412783612442C30E40B12781D12DE
:10390D007863123AEE8003123B0D78A412782630BC
:10391D00E40D12781D127863E4FB7D49023A9D7B1C
:10392D0001E4FDFC7F49023AA778A41278361244CF
:10393D002C30E41112781D127863E4FB7D347F0185
:10394D00127DFB800A7B01E4FDFC7F341278D27876
:10395D00A412782630E40B12781D127863123B6B9B
:10396D00800812788D7F1F1278D278A412783612C3
:10397D00786B30E40D12781D1278637B127D49024D
:10398D003A9D7B017D127C007F49023AA778A412F3
:10399D00783612442C30E40B12781D127863123AEB
:1039AD00EE8003123B0D78A412782630E40B1278CA
:1039BD001D127863123B2D8003123B0278A41278FE
:1039CD003612786B30E40D12781D1278637B127D00
:1039DD0049023A9D12788D7F49023AA778A4127850
:1039ED003612442C30E40B12781D127863123AF81B
:1039FD008003123B3778A412782630E40B12781D21
:103A0D00127863123B618003123B5678A41278360C
:103A1D0012786B30E40D12781D1278637B127D1FC6
:103A2D00023A9D7B017D127C007F1F023AA778A48C
:103A3D0012783612442C30E40B12781D1278631272
:103A4D003AF88003123B3778A412782630E40B1233
:103A5D00781D127863123B618003123B5678A412D5
:103A6D00783612786B30E40B12781D127863123BA6
:103A7D006B800812788D7F1F1278D278A412783659
:103A8D001278A630E40F12781D1278637B127D49EF
:103A9D007F01027DFB12788D7F491278D2227487C7
:103AAD00F20874E0F2E4FB7D1F7F01127DFB2274AE
:103ABD0087F20874E0F2E4FB7D1F7F01127DFB228B
:103ACD007B01E4FDFC7F1F1278D2227B01E4FDFC1B
:103ADD007F491278D2227B01E4FDFC7F1F1278D240
:103AED0022E4FB7D1F7F01127DFB22E4FB7D1F7F06
:103AFD0001127DFB227B01E4FDFC7F491278D2226D
:103B0D007B01E4FDFC7F1F1278D222E4FB7D497F0F
:103B1D0001127DFB227B01E4FDFC7F341278D22261
:103B2D00E4FB7D497F01127DFB227B01E4FDFC7FDF
:103B3D001F1278D222E4FB7D347F01127DFB227BA4
:103B4D000F7D1F7F01127DFB227B01E4FDFC7F4970
:103B5D001278D222E4FB7D497F01127DFB227B127C
:083B6D007D1F7F01127DFB2288
:1031A8007855E212458E31D61131F922323D31324D
:1031B800AC33331134337D413409913432A2347E37
:1031C800B134ECB33554B435CDC10000365612785D
:1031D8003F8005C333CE33CED8F912784B600B123B
:1031E800781D1278537B0D0234227B057D0D023445
:1031F8002B12783F8005C333CE33CED8F912784BE3
:10320800600B12781D1278531236B3800312366F92
:1032180078571278418005C333CE33CED8F9127867
:103228004B600B12781D1278537B0D02346E7B05B0
:103238007D0D02347712783F8005C333CE33CED864
:10324800F912784B601112781D1278537B077D1F95
:103258007F01127DFB80057D071236F978571278B9
:10326800418005C333CE33CED8F912784B600D12A6
:10327800781D1278537B151236D380031236BD7829
:10328800581278418005C333CE33CED8F912784B23
:10329800600B12781D1278537B1502346E7B057D06
:1032A8001502347712783F8005C333CE33CED8F970
:1032B80012784B600B12781D1278531236B38003C4
:1032C80012366F78571278418005C333CE33CED883
:1032D800F912784B600B12781D1278531236C98098
:1032E8000312367B78581278418005C333CE33CE2B
:1032F800D8F912784B600B12781D1278537B15029F
:10330800346E7B057D1502347712783F8005C33310
:10331800CE33CED8F912784B600B12781D12785341
:10332800123687800312365778571278418005C3C2
:1033380033CE33CED8F912784B600D12781D12783F
:10334800537D341236F180087D0D1278961278D2AA
:1033580078581278418005C333CE33CED8F9127825
:103368004B600B12781D1278537B150235BD7B0517
:103378007D150235C612783F8005C333CE33CED8CB
:10338800F912784B600B12781D1278531236878029
:103398000312365778571278418005C333CE33CE9F
:1033A800D8F912784B600B12781D1278531236C96F
:1033B800800312367B78581278418005C333CE33A8
:1033C800CED8F912784B601112781D1278537B15FC
:1033D8007D0A7F01127DFB80031236BD7859127871
:1033E800418005C333CE33CED8F912784B600B1227
:1033F800781D1278537B1502346E7B057D150234D7
:103408007712783F8005C333CE33CED8F912784B84
:10341800600D12781D1278537B107D1F02364B7B8E
:10342800057D107C007F1F02365312783F8005C34C
:1034380033CE33CED8F912784B600D12781D12783E
:10344800537B101236D38003123691785712784185
:103458008005C333CE33CED8F912784B600D12787D
:103468001D1278537B107D3402364B7B057D107C12
:10347800007F3402365312783F8005C333CE33CEF3
:10348800D8F912784B601112781D1278537B087D99
:103498001F7F01127DFB80057D081236F9785712CF
:1034A80078418005C333CE33CED8F912784B600B00
:1034B80012781D12785312370380031236DB7858BE
:1034C8001278418005C333CE33CED8F912784B60D9
:1034D8000D12781D1278537B197D3402364B127801
:1034E8009402365312783F8005C333CE33CED8F9D1
:1034F80012784B600D12781D1278537D0A1236F13E
:10350800800312369178571278418005C333CE3341
:10351800CED8F912784B600B12781D1278531236F8
:10352800E780031236A778581278418005C333CE56
:1035380033CED8F912784B600D12781D1278537B70
:10354800197D3402364B12789402365312783F8034
:1035580005C333CE33CED8F912784B600B12781DE1
:1035680012785312369D80031236637857127841C9
:103578008005C333CE33CED8F912784B6011127858
:103588001D1278537B107D347F01127DFB800B7BED
:10359800057D107C007F341278D2785812784180EB
:1035A80005C333CE33CED8F912784B600D12781D8F
:1035B8001278537B197D0A02364B7B057D197C00F6
:1035C8007F0A02365312783F8005C333CE33CED8F4
:1035D800F912784B600B12781D12785312369D80C1
:1035E8000312366378571278418005C333CE33CE41
:1035F800D8F912784B600B12781D1278531236E7FF
:1036080080031236A778581278418005C333CE3329
:10361800CED8F912784B600B12781D1278531237F6
:103628000380031236DB78591278418005C333CE04
:1036380033CED8F912784B600F12781D1278537B6D
:10364800197D347F01027DFB1278941278D2227B97
:10365800057D077C007F0A1278D2227B057D087CD5
:10366800007F0A1278D2227B057D0D7C007F0A122A
:1036780078D2227B057D077C007F341278D2227BAA
:10368800077D0A7F01127DFB227B057D107C007F70
:103698000A1278D2227B087D0A7F01127DFB227BE9
:1036A800057D087C007F341278D2227B0D7D0A7F4D
:1036B80001127DFB227B057D157C007F0A1278D2E2
:1036C800227B077D347F01127DFB227D0A7F011258
:1036D8007DFB227B057D197C007F0A1278D2227B34
:1036E800087D347F01127DFB227B0D7F01127DFB5B
:1036F800227B057C007F1F1278D2227B197D0A7FEE
:0537080001127DFB220F
:10830700E4FF1289257853E224FE601104702912D4
:10831700834012781D7487F20874D2800C12834050
:1083270012781D7487F20874D5F2E4FB7D017F0192
:10833700127DFB7FFF128B26227F03128B267F0481
:04834700128B232250
:1088E200E4FF128925785BE230E1121278CB123B69
:1088F200751278CB12370D1278CB126C18128B06C8
:05890200E4FF028631D4
:1023080000000000000000000000000000000000C5
:1023180000000000000000000000000000000000B5
:10232800003E007E00FE01CE038E7F8E7F8E738E70
:10233800738E738E7F8E7F8E01CE00FE007E003EF0
:1023480000000000020006000E001E003FFE7FFE97
:102358007FFE3FFE1E000E00060002000000000087
:102368000000000000400060007000787FFC7FFEE5
:102378007FFE7FFC007800700060004000000000D5
:10238800000003C003C003C003C003C003C003C0F0
:1023980003C03FFC1FF80FF007E003C001800000F6
:1023A80003C003C007E007E00E700E701C381C382D
:1023B800381C381C7FFE7FFE700E700E700E700E7B
:1023C8007FF87FFC383E381E381E381E383C3FF8F0
:1023D8003FF8383C381E381E381E383E7FFC7FF8E0
:1023E8000FF81FFC3C1C380E780E700E7000700041
:1023F80070007000700E700E380E3C1C1FFC0FF839
:102408007FF07FF07078703C703C703C70787FF0A3
:102418007FE0778073C071E070F07078703C701E58
:1024280000006006700E781E7C3E7FFE77EE73CE4D
:10243800718E700E700E700E700E700E700E700E23
:1024480000001FF81FF800E000E000E000E000E0F6
:1024580000E000E000E070E079E03FC01F800F007E
:1024680000000000000003C007800F001E003FFCB2
:102478003FFC1E000F00078003C0000000000000A2
:1024880000000000000003C001E000F000783FFCFD
:102498003FFC007800F001E003C0000000000000ED
:1024A80000000000018001800180018011881998D6
:1024B8001DB81FF80FF007E003C0018000000000FE
:1024C800003E007E00FE01CE038E7F8E7F8E738ECF
:1024D800738E738E7F8E7F8E01CE00FE007E003E4F
:1024E800700E700E700E700E700E700E781E381C06
:1024F800381C1C381C380E700FF007E003C0018030
:10250800000038003800380038003800380038003B
:1025180038003800380038063806380E3FFE3FFECF
:102528000000000000000000000003800FE01C70A5
:10253800183038383838383818301C700FE00380B5
:102548000000000000000000000003C00FF01C386D
:102558001C000F0007E000F000381C380FF003C023
:102568000000000000000000000000000000000063
:102578000000000000000000000000000000000053
:102588000000000000000000000000000000000043
:102598000000000000000000000000000000000033
:1025A8000000000000000000000000000000000023
:1025B8000000000000000000000000000000000013
:1025C8000000000000000000000000000000000003
:1025D80000000000000000000000000000000000F3
:1025E80000000000000000000000000000000000E3
:1025F80000000000000000000000000000000000D3
:1026080000000000000000000000000000000000C2
:1026180000000000000000000000000000000000B2
:1026280000000000000000000000000000000000A2
:102638000000000000000000000000000000000092
:102648000000000000000000000000000000000082
:102658000000000000000000000000000000000072
:102668000000000000000000000000000000000062
:102678000000000000000000000000000000000052
:102688000000000000000000000000000000000042
:102698000000000000000000000000000000000032
:1026A8000000000000000000000000000000000022
:1026B8000000000000000000000000000000000012
:1026C8000000000000000000000000000000000002
:1026D80000000000000000000000000000000000F2
:1026E80000000000000000000000000000000000E2
:1026F80000000000000000000000000000000000D2
:1027080000000000000000000000000000000000C1
:1027180000000000000000000000000000000000B1
:10272800000007000F800F800F800F800700070050
:102738000700020002000000020007000700020074
:102748000000EE0066004400880000000000000061
:102758000000000000000000000000000000000071
:10276800000008200820082008203FF8082008203A
:102778000820082008203FF8082008200820082002
:1027880000000FC01B603330333033001B000F00D4
:1027980003C0036013303B3033301B600FC00300AD
:1027A8000000380844108420044004800900127096
:1027B800E4880908120822084210822001C000009B
:1027C80000000E001B00318031801B000E001C0031
:1027D8003678632061A060E0606030F01F9C0000E4
:1027E80000000000000000000000000000000000E1
:1027F8000000000000008000600070003800180031
:1028080000000004000800180010003000300030FC
:1028180000300030003000100018000800040002EA
:1028280000008000400060002000300030003000D0
:1028380030003000300020006000400080000000C0
:10284800000002004210222012400A800700FFFC0C
:1028580007000A80124022204210020002000000F5
:1028680000000000030003000300030003007FF8DA
:102878007FF80300030003000300030000000000CA
:102888000000000000000000000000000000000040
:10289800000018003C003C00180010002000400018
:1028A80000000000000000000000000000007FF8A9
:1028B8007FF8000000000000000000000000000099
:1028C8000000000000000000000000000000000000
:1028D8000000000000007800840084008400780074
:1028E800000000180030006000C0018003000600EE
:1028F8000C00180030006000C000800000000000DC
:1029080000000FE0183030183038307830D831985F
:10291800331836183C183818301818300FE00000F3
:102928000000030007000F0003000300030003007A
:102938000300030003000300030003001FE000007E
:1029480000000FE01830301830183038007001C01F
:1029580003000E001800300830083FF83FF8000068
:10296800000007C0183030183018003000E003C0ED
:1029780000E00030001830183018183007C0000088
:10298800000000C001C003C006C00CC018C030C0A1
:1029980060C0C0C0C0C0FFF800C000C003F00000A5
:1029A80000003FF03FF030003000300037C03830D2
:1029B80030180018001830183018183007C00000F8
:1029C800000007E01830303030003000300037E0C9
:1029D8003830301830183018301818300FC0000050
:1029E80000003FF83FF8201820180030006000C0B1
:1029F800018003000300030003000300030000003C
:102A080000000780186030303030303018600FC058
:102A18001860303060186018601830300FC000003F
:102A280000000780186030303018301830183038FF
:102A38001878079800183030383018600780000080
:102A480000000000000000000300078003000000F1
:102A580000000300078003000000000000000000E1
:102A680000000000000000000300078003000000D1
:102A780000000300078003800180070000000000B9
:102A880000000000001800600180060018006000C7
:102A98008000600018000600018000600018000037
:102AA800000000000000000000007FF87FF8000030
:102AB80000007FF87FF80000000000000000000020
:102AC8000000800060001800060001800060001807
:102AD80000040018006001800600180060008000F3
:102AE800000007800FC01CE038E038E011C001800A
:102AF80003000300020002000000020007000700B4
:102B080000000FC030604010478888C890C890C83F
:102B180090C890C888D84770400830700FC000002F
:102B2800000003000300078007800CC00CC0186079
:102B380018601FE03030303060186018F03C00003A
:102B480000003F80186018301830183018601FC017
:102B58001860183018181818181818303FC00000D6
:102B68000000078818683038601860086000600046
:102B7800600060006008601830301860078000004E
:102B880000007F8030E030383018301830183018A6
:102B98003018301830183018303030E07F8000009E
:102BA80000003FF0183018101800188018801F8097
:102BB8001880188018001800181018303FF000000E
:102BC80000003FF0183018101800188018801F8077
:102BD8001880188018001800180018003C00000021
:102BE80000000F90187030306010601060006000B6
:102BF8006078603060306030307018F00FB00000DE
:102C080000007878303030303030303030303FF0BD
:102C1800303030303030303030303030787800007C
:102C280000000FC0030003000300030003000300BB
