:030000000288A5CE
:0C88A500787FE4F6D8FD7581350288EC80
:0C990A00E204F2E2C394507480948022C6
:1098BE00D2BCD2AC758DF4D28EE47850F208F2227E
:0F98CE007850E2FF08E2B507037F00227F0122F6
:10980800C2AC7850E22400F8E2FF785012990A407E
:0598180002E4F2D2ACF5
:01981D002228
:080003003099FD8F99C299228A
:0300230002971D24
:10971D00C0E0C0D075D008309814C2987851E224BA
:10972D0000F8E599F2785112990A4002E4F2D0D08E
:03973D00D0E03247
:1097400078ACE2FB08E2FA08E2F9227590F6789A22
:10975000E222C2AF789AE2640122AE038E80D293F5
:03976000C293228F
:1096D300E478D9F27EFFC2AF7590F6C2B6C2B71274
:1096E300975C8F80C291D2917590F6C2B6C2B7755E
:0496F30080FFD2AF73
:0196F7002250
:108B5C001297527005AF051296D312974BFF640112
:108B6C007006C2B6C2B78028EDF582758300700618
:108B7C00C2B7C2B6801AE582640145837006C2B7DB
:108B8C00D2B6800CE582640245837004D2B7C2B6BB
:108B9C0012975A78D8E2F580C291D2917590F6EF7F
:108BAC0064017006C2B6C2B78004D2B6D2B7758063
:048BBC00FFD2AF2213
:10893100AC031297527005AF051296D312974B6490
:10894100017006C2B6C2B78022EDFF7E007006C27A
:10895100B7C2B68016EF64014E7006C2B7D2B680B8
:108961000AEF64024E7004D2B7C2B6AF040C8F8016
:10897100D293C29378AAE2FB0808E2F92401F21823
:10898100E2FA3400F2124FF3F580C291D29178AD40
:10899100E214F270D612974B64017006C2B6C2B7E8
:0C89A1008004D2B6D2B77580FFD2AF229E
:028AF700AC07CA
:108AF9001297527005AF051296D312974BFF640176
:108B09007006C2B6C2B78028EDF58275830070067B
:108B1900C2B7C2B6801AE582640145837006C2B73E
:108B2900D2B6800CE582640245837004D2B7C2B61E
:108B390012975A7580FFC292AE80D2927590F6EF65
:108B490064017006C2B6C2B78004D2B6D2B7D2AF3A
:028B5900AF0665
:018B5B0022F7
:108DF50078ACEBF208EAF208E9F212974012505DFE
:108E0500F47003E5F0F4603E12974012505DFBAA42
:108E1500F0EAFDE4FF128AF7129740900002125023
:108E25000CFC6F601412974012505DFBAAF0EAFD2E
:108E350078D8ECF2E4FF128B5C78AEE22403F218EA
:078E4500E23400F280B422C8
:0199660022DE
:106202002562782025627820256278000A3C523E79
:1062120025303262785B25303262785D3D2530323E
:106222006278002562782025627800256278202530
:1062320062782025627820256278200025316278F4
:106242002025316278202531627820005265616410
:106252004173696342797465203D3D20256278204F
:106262000A0063682562643A256264200063682537
:1062720062643A2562642063682562643A25626436
:10628200200063682562643A25626420636825629F
:10629200643A2562642063682562643A2562642058
:1062A2000063682562643A2562642063682562643B
:1062B2003A2562642063682562643A256264206339
:1062C200682562643A256264200063682562643A44
:1062D2002562642063682562643A256264206368EB
:1062E2002562643A2562642063682562643A256205
:1062F200642063682562643A256264200025626432
:1063020020000A203D3D3D3D3D3D3D3D2050414761
:10631200452025623278203D3D3D3D3D3D3D3D3DA0
:106322003D3D3D3D0A002562327809000A002531D3
:106332006278202531627820636825316278206393
:106342006825316278206368253162782063682588
:106352003162782000656E726563616C6C00656EF7
:10636200667265657A6500656E686D6972726F72D4
:1063720000656E766D6972726F7200656E656E6829
:10638200616E636500656E626C616E6B00656E6264
:106392006F756E6400656E626C696E6B0064697322
:1063A200726563616C6C00646973667265657A65B7
:1063B20000646973686D6972726F720064697376E2
:1063C2006D6972726F7200646973656E68616E6383
:1063D2006500646973626C616E6B00646973626FFD
:1063E200756E6400646973626C696E6B003D3D3D5D
:1063F2003D3D20466F726D6174203A206368303DE6
:106402005B2562785D206368313D5B2562785D20A3
:106412006368323D5B2562785D206368333D5B25AE
:1064220062785D203D3D3D3D3D0A00256278202594
:1064320062782063682562783A256278206368254D
:1064420062783A2562782063682562783A25627814
:106452002063682562783A2562782000333337005A
:106462002600280029006275737700627573720036
:10647200616D697800616D757465006164756D7038
:1064820000616761696E00616C69766500627573AF
:10649200727400766D697800766D69786572720043
:1064A20076617474720079766D697800696E6974C8
:1064B2000076646574007673657466007373747233
:1064C200006873636F6D006D6F6465006469737358
:0F64D20063726F6C6C0076657200010204081033
:049916004100DA0032
:106C050008F208E4F2087400F2087427F208E4F2C6
:106C1500087400F208742CF208E4F2087400F20813
:106C25007428F208E4F2087400F208742DF208E4FE
:106C3500F2087400F2742908F208E4F2082208F256
:106C450008E4F2087400F2087427F208E4F2087404
:106C550000F208742CF208E4F2087400F2087428B3
:106C6500F208E4F2087400F208742DF208E4F20860
:106C75007400F2742908F208E4F20822789FE2FB16
:106C850008E2FA08E2F92208F208E4F2087400F2D0
:106C9500087427F208E4F2087400F208742BF2086D
:106CA500E4F2087400F2742808F208E4F208227885
:106CB500AE74FFF2087462F2746408F208E4F20834
:106CC500227400F208742EF208E4F2087400F274DB
:106CD5002A08F208E4F208227400F208742EF20879
:106CE500E4F2087400F2742A08F208E4F208227447
:106CF50000F208742CF208E4F2087400F274290812
:106D0500F208E4F2082278AE74FFF2087462F274B5
:106D15006F08F208E4F2082278AE74FFF208746294
:106D2500F274FF08F208E4F208227400F2742708EE
:106D3500F208E4F208227400F2742708F208E4F27B
:106D4500082208F20874FEF2087400F2745608F27C
:106D55000874FEF20822EBF208EAF208E9F278AECE
:106D650074FEF2082208F208E4F2082278AE74FFF5
:106D7500F2082208F208E4F2082208F208E4F20810
:106D85002208F208E4F2082208F208E4F20822E2F6
:106D9500FF78A974FEF2087400F208745BF27BFEBA
:106DA5007A0079562208F208E4F2082208F208E48B
:106DB500F20822EBF208EAF208E9F222900001E477
:106DC50075F00102508808F208E4F20822FFE22477
:106DD5005FF8EFF222E25401FB7D2022252AF52AF5
:106DE50008E254032278AAEFF27BFF7A62790E78E3
:106DF500A822E5289064DC93FFE527932F22125003
:0B6E0500E6024FF308F208E4F2082256
:108A8F0078AB126DB808126C83126E037002FF225E
:108A9F0078AE126C83126E03B4200A78AE126C8318
:108AAF00126DC180EB78AE126C831250E6C003C01A
:108ABF0002C00178AB126C83125106802178AE127E
:108ACF006C83126E03FEB4200FE412503978AE128D
:108ADF006C83126DC17F0122EE70037F012278AE8D
:088AEF00126C83126DC180D5E9
:0593340078AB126DB8DA
:10933900E4F531F53278AB126C83124FF36025787E
:10934900ABE2FB0808E2F92401F218E2FA3400F270
:10935900124FF3FF3395E0FEEF2532F532EE35314A
:08936900F53180D1AE31AF32C5
:0193710022D9
:0F98DD007F411200037F431200037F4B02000301
:10923100E4F52A7856E25403126DE125E025E012A7
:109241006DE1C454F0126DE1C4333354C0252AF5E5
:109251002A7855E2B5070B785AE2B52A05E4786514
:10926100F22278657401F2785AE52AF27855EFF224
:0192710022DA
:1091AB00126D717462F27402126C3C7400F27427CB
:1091BB00126C7A7400F27428126CAD7400F208749D
:1091CB0029F2125F6AAB28AD27E4FF128AF7126D02
:1091DB00EAE527F208E528F2125BF30528E528B546
:0291EB0029E376
:0191ED00225F
:1094BD00126D717462F27425126CBF7400F2742710
:1094CD00126CD67400F2087428F2125F6AAB28ADE4
:1094DD0027E4FF128AF7126DEAE527F208E528F274
:0394ED00025BF32C
:1094F000126D717462F27402126CED7400F27427D2
:10950000126D047400F27428126D167400F208745F
:1095100029F2125F6A78D8E529F2AB28AD27E4FF7B
:03952000028B5C5F
:10908C00E4F527F528F529F52AC003C002126D7105
:10909C007462F2742D126D287400F27427126D3400
:1090AC007400F27428126D407400F27429126D6A07
:1090BC007400F208742AF2D002D003125F6A78D8D6
:0C90CC00E52AF2AB29AD28E4FF028B5C22
:1090D800E4F527F528F529F52A126D717462F27402
:1090E8003E126D6A7400F27427126D787400F2747F
:1090F80028126D787400F2087429F2125F6AAB299D
:10910800AD28E4FF128AF78F2A7BFF7A62794E78BE
:07911800A8E52AF2025BF357
:0276840078A5E7
:10768600126D5B7400F20874A5F27BFE7A0079A88D
:10769600128A8FE4FB7D1FFF12948978A8126C83EF
:1076A6001284CCEE60030277BEEF24FE603D1460C8
:1076B600651470030277401470030277682404602F
:1076C600030277BE126CB4126D2F7400F208742C8C
:1076D600F278A5126C83125F6AAB2CAD27E4FF1219
:1076E6008BC0E5279064DC930277B6126D0B126DA2
:1076F6002F7400F2742C126D7F7400F27428126DD0
:107706007F7400F208742DF278A5126C831277BF8D
:10771600126DF70277B6126D717462F27484126C90
:10772600057400F208742EF278A5126C831277BFE6
:10773600AB2EAD291277D50277B6126D717462F24F
:1077460074A3126C05126CC67400F208742FF278DA
:10775600A5126C831277EB1277D5FFE52A932F02D9
:1077660077B6126D717462F20874CC126C06126CE4
:10777600C67400F2742F126D867400F2742B126DAB
:10778600867400F2087430F278A5126C831277EBD7
:10779600E4FF128BC0AB30AD2BE4FF128BC0126D31
:1077A600F7FFE529932FFFE52A932FFFE52B932F6C
:0877B600FD7B01E4FF12948940
:1077BE0022125F6AAB2CAD27E4FF128BC0AB2DAD4E
:1077CE0028E4FF128BC022E4FF128BC0E5289064E0
:1077DE00DC93FFE527932FFFE529932F22125F6A93
:1077EE00AB2CAD27E4FF128BC0AB2DAD28E4FF12FE
:1077FE008BC0AB2EAD29E4FF128BC0AB2FAD2A226E
:0F98EC00E4FB7D1FFF1294897DFFE4FF02960DC0
:027ADC0078A58B
:107ADE00126D5B7400F20874A5F27BFE7A0079A831
:107AEE00128A8F78A8126C831284CCEE6003027B0C
:107AFE00E3EF24FE602F14605414606E14700302C2
:107B0E007B9B24046003027BE3126CB4126D3B7406
:107B1E0000F208742CF278A5126C83125F6AAB2CFB
:107B2E00AD27027BDE126D0B126D3B7400F2742CCE
:107B3E00126D8D7400F27428126D8D7400F208743B
:107B4E002DF278A5126C83127BFE027BDE126D7114
:107B5E007462F27484126C437400F208742EF2781C
:107B6E00A5126C83127BE4027BDE126D717462F2DD
:107B7E0074A3126C43126CDD7400F208742FF27849
:107B8E00A5126C83127BE4127C0F027BDE126D71E8
:107B9E007462F20874CC126C44126CDD7400F274D0
:107BAE002F126DAA7400F2742B126DAA7400F208D3
:107BBE007430F278A5126C83127BFEE4FF128D9A5C
:107BCE00AB2EAD29127C0FE4FF128D9AAB30AD2B8C
:057BDE00E4FF128D9A86
:107BE30022125F6AAB2CAD27E4FF128D9AAB2DAD49
:107BF30028E4FF128D9AAB2EAD2922125F6AAB2CBB
:107C0300AD27E4FF128D9AAB2DAD2822E4FF128D30
:067C13009AAB2FAD2A22FE
:10984A00126D1D7400F2087427F2125F6AAD27E4E4
:04985A00FF02960D66
:10903D00E4F528C3E52894037480948050407BFFA9
:10904D007A63790478A8E528F2125BF3E4F527AB8F
:10905D0027AD28E4FF128AF778A8EFF27BFF7A6339
:10906D007928125BF30527E527540F70097BFF7AEA
:0E907D0063792E125BF3E52770D5052880B5C8
:01908B0022C2
:108E4C00C003C002C001126D717463F27430126DF4
:108E5C00B17400F27427126DB17400F27428126DA3
:108E6C00477400F27457126D537400F20874581260
:108E7C006D547400F2087459F2D001D002D0031270
:108E8C005F6AE527C454F0FFE528540F2FF527122D
:068E9C006DA3FF027361EB
:0569F50078A5126DB849
:1069FA00E4F52F126D63126BDF78A8126C83128490
:106A0A00CC8F30126D63126BDF78A8126C831293ED
:106A1A00348E278F287A637957126BC3B5280AEE0A
:106A2A00B52706752980026AB77A637960126BC343
:106A3A00B5280AEEB52706752940026AB77A63793E
:106A4A0069126BCAB52809EEB52705752920805D3C
:106A5A007A637973126BCAB52809EEB527057529C9
:106A6A0010804A7A63797D126BD1B52809EEB52771
:106A7A000575290880377A637987126BD1B5280999
:106A8A00EEB5270575290480247A63798F126BD8AD
:106A9A00B52809EEB5270575290280117A63799719
:106AAA00126BD8B5280DEEB52709752901752A018B
:106ABA00026B617A63799F126BF0B5280AEEB527EB
:106ACA0006752980026B447A6379A9126BF0B5289E
:106ADA0009EEB5270575294080607A6379B3126B90
:106AEA00F7B52809EEB52705752920804D7A63790F
:106AFA00BE126BF7B52809EEB52705752910803A3D
:106B0A007A6379C9126BFEB52809EEB5270575298E
:106B1A000880277A6379D4126BFEB52809EEB52767
:106B2A000575290480147BFF7A6379DD129334EFAB
:106B3A00B5280CEEB52708752902E4F52A80187BDA
:106B4A00FF7A6379E6129334EF65287003EE6527BE
:106B5A007066752901F52A126D637400F20874A52E
:106B6A00F27BFE7A0079A8128A8FEF603278A81237
:106B7A006C83124FF3B477DF90000112500CB469A2
:106B8A00D690000212500CB46ECDE92403F9E43A0F
:106B9A00FA1284CC742B252FF8A607052F80B8E5A6
:106BAA002F6015242AF8E6FFC395305007AB2AADAB
:086BBA0029129556152F80E702
:106BC200227BFF129334EF227BFF129334EF227B5E
:106BD200FF129334EF227BFF129334EF227400F200
:106BE2000874A5F27BFE7A0079A8128A8F227BFFB5
:106BF200129334EF227BFF129334EF227BFF129326
:036C020034EF224A
:1098AC00126D1D7400F2087427F2125F6AAF270262
:0298BC00985EB4
:10952300E4FF128815C0077F01128815C0077F0268
:10953300128815C0077F0312881578ABEFF218D095
:10954300E0F218D0E0F218D0E0F27BFF7A6379EF13
:03955300025BF3C5
:0280D20078A58F
:1080D400126D5B7400F20874A5F27BFE7A0079A835
:1080E400128A8F78A8126C831284CCEE600302810A
:1080F400BEEF24FE602A14605114607624036003EA
:108104000281BE126CB47400F27427126DCB740039
:10811400F208742BF278A5126C831281DD0281B906
:10812400126D717462F2746F126C8C7400F20874C4
:108134002CF278A5126C831281DDE4FF12965EE5C1
:108144002CC454F0FBAD280281B9126D717462F233
:108154007484126C8C126CF47400F208742DF2782E
:10816400A5126C831281BFE52DC454F0FBAD290226
:1081740081B9126D717462F20874A3126C8D126C61
:10818400F47400F2742D126DCB7400F2742A126E22
:10819400097400F208742EF278A5126C831281BF60
:1081A400E52DC454F0FBAD29E4FF12965EE52EC420
:0A81B40054F0FBAD2AE4FF12965EC2
:1081BE0022125F6AE52BC454F0FBAD27E4FF129642
:1081CE005EE52CC454F0FBAD28E4FF12965E22123D
:0B81DE005F6AE52BC454F0FBAD2722C4
:028CE20078A573
:108CE400126D5B128D2C126C831284CC8F27126D43
:108CF40063128D2C126C831284CC8F287F041299FA
:108D0400607F031299637F0512978678A5E2F908BC
:108D1400E2FA08E278AEC9126DB9AB28AD277F013B
:088D2400128C827F05029454B9
:108D2C007400F20874A5F27BFE7A0079A8128A8F7F
:038D3C0078A822F2
:10927200752801E4F527C3E527940474809480508F
:109282001C745B2527F8E230E40F74562527F8E2B8
:10929200FDE4FF12960DE4F528052780D9E5286044
:1092A2000FE4FB7D1FFF1294897DFFE4FF12960DF0
:0192B2002299
:107C1900C003C002C001126D717464F2742D126E3A
:107C2900097400F2087428F208E4F2087400F27486
:107C390029126D477400F208745B126D547400F2D6
:107C4900087457126D547400F208745C126D547400
:107C590000F2087458126D547400F208745D126DC4
:107C6900547400F2087459126D547400F208745E69
:107C7900F2D001D002D003125F6AE528C454F0FFA4
:107C89007852E2FEC433333354802FFFE529540F71
:107C99002F7864F2785BE27856126DD2785CE278DC
:107CA90057126DD2785DE2FF7858126DD3785EE293
:107CB900FF7859126DD3785F126DDAE4FF1293E6FB
:107CC9007860126DDA7F011293E67861126DDA7FBE
:107CD900021293E67862126DDA7F031293E67BFE55
:107CE9007A00795F1274F67864126D941253F978F8
:107CF90064E2FF126DA3127361E4F527C3E52794CB
:107D090004748094805011745B2527F8126DDAAFE2
:107D190027129556052780E4E4F510F511F512753B
:107D290013057F0112993F7864E2FF1292317F08AF
:107D39001297A3E4FF1297BF1291657BFE7A00792F
:0B7D49005B1257C97864E29000DAF08A
:017D5400220C
:108A24007F03128815EFFD3395E0FCED64024C7072
:108A340002C3227852E2B50702D3227852EFF2E25F
:108A4400C43333335480FF7855E2547F4FF27F01AF
:108A54001294547852E2FF12877E7BFE7A00795F8B
:108A64001274F67855126D941253F97855E2FF1288
:108A74006DA3127361E4FF1297BF1291657BFE7AB6
:0A8A840000795B1257C9129636D331
:018A8E0022C5
:10981E00126D717462F20874FF126D547400F208C6
:06982E007453F2025F6AB0
:059956007F01029454A2
:1091EE00E478A5F27F4D12000390645E129227A3DD
:1091FE00129227A3A3E493FF1200037F4E120003E3
:10920E00789AE264017F3370071200037F3780057E
:08921E001200037F351200036A
:0B92260022E493FF12000390645E221C
:0264E100789FA2
:1064E300126D5B7400F208749FF27BFE7A0079A24E
:1064F300128A8F78A2126C831293348E258F267A98
:1065030064796212672AB5260DEEB52509126C81EE
:106513001291AB0267277A64796412672AB5260D54
:10652300EEB52509126C811294BD0267277A64794E
:1065330066126731B5260DEEB52509126C811294EA
:10654300F00267277A647968126731B5260DEEB5D4
:106553002509126C8112908C0267277A64796D1277
:106563006738B5260DEEB52509126C811290D80255
:1065730067277A647972126738B5260DEEB5250957
:10658300126C811276840267277A64797712673FE7
:10659300B5260AEEB525061298EC0267277A6479C8
:1065A3007D12673FB5260AEEB525061271A902676B
:1065B300277A647983126746B5260DEEB52509124D
:1065C3006C81127ADC0267277A647989126746B58F
:1065D300260DEEB52509126C8112984A0267277AB7
:1065E30064798F12674DB5260AEEB5250612903DE4
:1065F3000267277A64799512674DB52615EEB5259E
:10660300117F40129372126C81128E4C1298DD022C
:1066130067277A64799A126754B5260DEEB5250972
:10662300126C81128E4C0267277A6479A212675426
:10663300B5260DEEB52509126C811269F50267279F
:106643007A6479A812675BB52610EEB5250C12980B
:10665300DD126C811298AC0267277A6479AE1267F7
:106663005BB5260AEEB52506128C210267277A64EC
:1066730079B3126762B5260AEEB525061295230291
:1066830067277A6479B8126762B5260DEEB52509D6
:10669300126C811280D20267277A6479BE1267690D
:1066A300B5260DEEB52509126C81128CE20267271F
:1066B3007A6479C3126769B52624EEB5252012984A
:1066C300DD126C81127C19129272129636E4FF125B
:1066D300993FE4F512F513F51075110580467A64B8
:1066E30079C9126770B5260FEEB5250B1298DD1226
:1066F3006C8112981E802D7A6479CE126770B5264C
:106703000CEEB525081298DD12995680177BFF7A97
:106713006479D8129334EFB5260AEEB5250612989C
:06672300DD1291EE7F0182
:10672900227BFF129334EF227BFF129334EF227BFB
:10673900FF129334EF227BFF129334EF227BFF1277
:106749009334EF227BFF129334EF227BFF129334B1
:10675900EF227BFF129334EF227BFF129334EF2257
:0E6769007BFF129334EF227BFF129334EF225A
:1097F1000D0A0044656275672050726F6772616D72
:07980100203E00504354001B
:108F49001298CEEF640170497895E270441298083E
:108F59008F25300003120003E52524F8601F24FB48
:108F690070217894E2246BF8E4F2789504F27BFEA0
:108F79007A00796B1295873000170299367894E256
:108F890014F2227894E2246BF8E525F27894E2044D
:018F9900F2E5
:018F9A0022B4
:099936007BFF7A9779F10295E3B9
:0A941E00789FEBF208EAF208E9F289
:10942800789FE2FB08E2FA08E2F9124FF3601C7831
:109438009FE2FB0808E2F92401F218E2FA3400F28C
:0B944800124FF3F525FF12000380D542
:0194530022F6
:109834003000097BFF7A9779F412941EE47894F24D
:0698440008F2786BF2222D
:09993F00EF6003C20122D20122F3
:0B992100C200C201C221E47899F222CA
:10958700789FEBF208EAF208E9F2200020789FE2E0
:10959700FB08E2FA08E2F8AC02AD037BFF7A9879A0
:0E95A700041252F9EF3395E04F7002D2002209
:07911F0078A5EEF208EFF263
:1091260078A6E2700218E26035E478A7F208F278D1
:10913600A7E2FE08E2FFE4FCFD7BD8FAF9F8D312B9
:1091460050D5400D78A8E22401F218E23400F280EE
:0E915600DE78A6E224FFF218E234FFF280C2B7
:0191640022E8
:1089AD00E4789CF20874C8F2087464F212976312AA
:1089BD009921129966128C21129834128F4978954B
:1089CD00E2640170097BFE7A00796B1264E178959F
:1089DD00E264017003129834302107128A24500288
:1089ED00C2211298CEEF6008789DE2751200F51342
:1089FD00E51364014512700CF512F513789EE275BE
:108A0D001000F511E5116401451070AF1293AE75AC
:078A1D00100075111480A484
:10976300E4F5B8F5A8758780F5D0758921F5887576
:109773009852F5B175B2101298BE1296ADD299D225
:03978300AF002212
:100026001010FFFFFFFFFFFFFFFFFFFFFFFFFFFFB8
:10003600FFFFFFFFFFFFFFFFFFFFFFFFFFFFFFFFCA
:10004600FFFFFFFFFFFFFFFFFFFFFFFFFFFFFFFFBA
:10005600FFFFFFFFFFFFFFFFFFFFFFFFFFFFFFFFAA
:10006600FFFFFFFFFFFFFFFFFFFFFFFFFFFFFFFF9A
:10007600FFFFFFFFFFFFFFFFFFFFFFFFFFFFFFFF8A
:10008600FFFFFFFFFFFFFFFFFFFFFFFFFFFFFFFF7A
:10009600FFFFFFFFFFFFFFFFFFFFFFFFFFFFFFFF6A
:1000A600FFFFFFFFFFFFFFFFFFFFFFFFFFFFFFFF5A
:1000B600FFFFFFFFFFFFFFFFFFFFFFFFFFFFFFFF4A
:1000C600FFFFFFFFFFFFFFFFFFFFFFFFFFFFFFFF3A
:1000D600FFFFFFFFFFFFFFFFFFFFFFFFFFFFFFFF2A
:1000E600FFFFFFFFFFFFFFFFFFFFFFFFFFFFFFFF1A
:1000F600FFFFFFFFFFFFFFFFFFFFFFFFFFFFFFFF0A
:10010600FFFFFFFFFFFFFFFFFFFFFFFFFFFFFFFFF9
:10011600FFFFFFFFFFFFFFFFFFFFFFFFFFFFFFFFE9
:10012600FFFF1010FFFFFFFFFFFFFFFFFFFFFFFFB7
:10013600FFFFFFFFFFFFFFFFFFFFFFFFFFFFFFFFC9
:10014600FFFFFFFFFFFFFFFFFFFFFFFFFFFFFFFFB9
:10015600FFFFFFFFFFFFFFFFFFFFFFFFFFFFFFFFA9
:10016600FFFFFFFFFFFFFFFFFFFFFFFFFFFFFFFF99
:10017600FFFFFFFFFFFFFFFFFFFFFFFFFFFFFFFF89
:10018600FFFFFFFFFFFFFFFFFFFFFFFFFFFFFFFF79
:10019600FFFFFFFFFFFFFFFFFFFFFFFFFFFFFFFF69
:1001A600FFFFFFFFFFFFFFFFFFFFFFFFFFFFFFFF59
:1001B600FFFFFFFFFFFFFFFFFFFFFFFFFFFFFFFF49
:1001C600FFFFFFFFFFFFFFFFFFFFFFFFFFFFFFFF39
:1001D600FFFFFFFFFFFFFFFFFFFFFFFFFFFFFFFF29
:1001E600FFFFFFFFFFFFFFFFFFFFFFFFFFFFFFFF19
:1001F600FFFFFFFFFFFFFFFFFFFFFFFFFFFFFFFF09
:10020600FFFFFFFFFFFFFFFFFFFFFFFFFFFFFFFFF8
:10021600FFFFFFFFFFFFFFFFFFFFFFFFFFFFFFFFE8
:10022600FFFFFFFF1010FFFFFFFFFFFFFFFFFFFFB6
:10023600FFFFFFFFFFFFFFFFFFFFFFFFFFFFFFFFC8
:10024600FFFFFFFFFFFFFFFFFFFFFFFFFFFFFFFFB8
:10025600FFFFFFFFFFFFFFFFFFFFFFFFFFFFFFFFA8
:10026600FFFFFFFFFFFFFFFFFFFFFFFFFFFFFFFF98
:10027600FFFFFFFFFFFFFFFFFFFFFFFFFFFFFFFF88
:10028600FFFFFFFFFFFFFFFFFFFFFFFFFFFFFFFF78
:10029600FFFFFFFFFFFFFFFFFFFFFFFFFFFFFFFF68
:1002A600FFFFFFFFFFFFFFFFFFFFFFFFFFFFFFFF58
:1002B600FFFFFFFFFFFFFFFFFFFFFFFFFFFFFFFF48
:1002C600FFFFFFFFFFFFFFFFFFFFFFFFFFFFFFFF38
:1002D600FFFFFFFFFFFFFFFFFFFFFFFFFFFFFFFF28
:1002E600FFFFFFFFFFFFFFFFFFFFFFFFFFFFFFFF18
:1002F600FFFFFFFFFFFFFFFFFFFFFFFFFFFFFFFF08
:10030600FFFFFFFFFFFFFFFFFFFFFFFFFFFFFFFFF7
:10031600FFFFFFFFFFFFFFFFFFFFFFFFFFFFFFFFE7
:10032600FFFFFFFFFFFF1010FFFFFFFFFFFFFFFFB5
:10033600FFFFFFFFFFFFFFFFFFFFFFFFFFFFFFFFC7
:10034600FFFFFFFFFFFFFFFFFFFFFFFFFFFFFFFFB7
:10035600FFFFFFFFFFFFFFFFFFFFFFFFFFFFFFFFA7
:10036600FFFFFFFFFFFFFFFFFFFFFFFFFFFFFFFF97
:10037600FFFFFFFFFFFFFFFFFFFFFFFFFFFFFFFF87
:10038600FFFFFFFFFFFFFFFFFFFFFFFFFFFFFFFF77
:10039600FFFFFFFFFFFFFFFFFFFFFFFFFFFFFFFF67
:1003A600FFFFFFFFFFFFFFFFFFFFFFFFFFFFFFFF57
:1003B600FFFFFFFFFFFFFFFFFFFFFFFFFFFFFFFF47
:1003C600FFFFFFFFFFFFFFFFFFFFFFFFFFFFFFFF37
:1003D600FFFFFFFFFFFFFFFFFFFFFFFFFFFFFFFF27
:1003E600FFFFFFFFFFFFFFFFFFFFFFFFFFFFFFFF17
:1003F600FFFFFFFFFFFFFFFFFFFFFFFFFFFFFFFF07
:10040600FFFFFFFFFFFFFFFFFFFFFFFFFFFFFFFFF6
:10041600FFFFFFFFFFFFFFFFFFFFFFFFFFFFFFFFE6
:10042600FFFFFFFFFFFFFFFF1010FFFFFFFFFFFFB4
:10043600FFFFFFFFFFFFFFFFFFFFFFFFFFFFFFFFC6
:10044600FFFFFFFFFFFFFFFFFFFFFFFFFFFFFFFFB6
:10045600FFFFFFFFFFFFFFFFFFFFFFFFFFFFFFFFA6
:10046600FFFFFFFFFFFFFFFFFFFFFFFFFFFFFFFF96
:10047600FFFFFFFFFFFFFFFFFFFFFFFFFFFFFFFF86
:10048600FFFFFFFFFFFFFFFFFFFFFFFFFFFFFFFF76
:10049600FFFFFFFFFFFFFFFFFFFFFFFFFFFFFFFF66
:1004A600FFFFFFFFFFFFFFFFFFFFFFFFFFFFFFFF56
:1004B600FFFFFFFFFFFFFFFFFFFFFFFFFFFFFFFF46
:1004C600FFFFFFFFFFFFFFFFFFFFFFFFFFFFFFFF36
:1004D600FFFFFFFFFFFFFFFFFFFFFFFFFFFFFFFF26
:1004E600FFFFFFFFFFFFFFFFFFFFFFFFFFFFFFFF16
:1004F600FFFFFFFFFFFFFFFFFFFFFFFFFFFFFFFF06
:10050600FFFFFFFFFFFFFFFFFFFFFFFFFFFFFFFFF5
:10051600FFFFFFFFFFFFFFFFFFFFFFFFFFFFFFFFE5
:10052600FFFFFFFFFFFFFFFFFFFF1010FFFFFFFFB3
:10053600FFFF00000000FFFFFFFFFFFFFFFFFFFFC1
:10054600FF000000000000FFFFFFFFFFFFFFFFFFAF
:100556000000020202020000FFFFFFFFFFFFFFFF95
:100566000000020202020000FFFFFFFFFFFFFF0084
:10057600000202000002020000FFFFFFFFFFFF0073
:10058600000202000002020000FFFFFFFFFF000062
:1005960002020000000002020000FFFFFFFF000051
:1005A600020200FFFF0002020000FFFFFF00000240
:1005B600020000FFFF000002020000FFFF00000231
:1005C6000200000000000002020000FF000002021C
:1005D60002020202020202020202000000000202FD
:1005E60002020202020202020202000000000202ED
:1005F60000000000000000000202000000000202ED
:100606000000FFFFFFFF00000202000000000202E0
:100616000000FFFFFFFF00000202000000000000D4
:100626000000FFFFFFFF00000000000010100000A8
:10063600000000000000000000000000FFFF0002B4
:1006460002020202020202020202000000FF00028F
:10065600020202020202020202020200000000007E
:100666000002020000000000020202020000FF0079
:1006760000020200FFFFFF00000202020000FF006E
:1006860000020200FFFFFF00000202020000FF005E
:1006960000020200000000000202020000FFFF004C
:1006A600000202020202020202020000FFFFFF0035
:1006B600000202020202020202020000FFFFFF0025
:1006C60000020200000000000202020000FFFF001C
:1006D60000020200FFFFFF00000202020000FF000E
:1006E60000020200FFFFFF000002020200000000FD
:1006F60000020200000000000202020200000002E6
:1007060002020202020202020202020000000002CB
:1007160002020202020202020202000000FF0000C0
:10072600000000000000000000000000FFFF1010A5
:10073600FFFFFF00000000000000000000FFFFFFB9
:10074600FFFF00000202020202020202000000FF96
:10075600FF00000202020202020202020200000080
:100766000000000202000000000000020202000079
:1007760000000202020000FFFFFF0000020200006C
:10078600000002020000FFFFFFFFFF000202000060
:10079600000002020000FFFFFFFFFFFF0000000055
:1007A600000002020000FFFFFFFFFFFFFFFFFFFF49
:1007B600000002020000FFFFFFFFFFFFFFFFFFFF39
:1007C600000002020000FFFFFFFFFF000000000024
:1007D600000002020000FFFFFFFFFF000202000010
:1007E60000000202000000FFFFFF000002020000FE
:1007F60000000202020000000000000202020000E7
:10080600FF000002020202020202020202000000CF
:10081600FFFF00000202020202020202000000FFC5
:10082600FFFFFF0000000000000000000000FFFFC7
:100836001010000000000000000000000000FFFF94
:10084600FFFF00000202020202020202020000FF93
:10085600FFFF000002020202020202020202000080
:10086600FFFF00000202000000000002020200007A
:10087600FFFF000002020000FFFF0000020200006E
:10088600FFFF000002020000FFFF0000020200005E
:10089600FFFF00000202000000000002020200004A
:1008A600FFFF00000202020202020202020000FF33
:1008B600FFFF00000202020202020202000000FF25
:1008C600FFFF000002020000020202000000FFFF1C
:1008D600FFFF000002020000000202020000FFFF0C
:1008E600FFFF00000202000000000202020000FFFB
:1008F600FFFF000002020000FF00000202020000EB
:10090600FFFF000002020000FFFF000002020200DB
:1009160000FF000002020000FFFFFF0000020202CB
:1009260000FF000000000000FFFFFFFF00000000C6
:1009360000FF101000000000FFFFFFFFFFFFFFFF9A
:10094600000000000000000000FFFFFFFFFFFF00A7
:100956000000000000000C0C0000FFFFFFFF00007D
:100966000C0C000000000C0C0C0000000000000C39
:100976000C0C000000000C0C0C0C000000000C0C11
:100986000C0C000000000C0C0C0C0C0C0C0C0C0CD1
:100996000C0C000000000C0C0C0C0C0C0C0C0C0CC1
:1009A6000C0C000000000C0C0C000C0C0C0C000CC9
:1009B6000C0C000000000C0C0C00000C0C00000CD1
:1009C6000C0C000000000C0C0C0000000000000CD9
:1009D6000C0C000000000C0C0C0000000000000CC9
:1009E6000C0C000000000C0C0C0000FFFF00000CBB
:1009F6000C0C000000000C0C0C0000FFFF00000CAB
:100A06000C0C000000000C0C0C0000FFFF00000C9A
:100A16000C0C000000000C0C0C0000FFFF00000C8A
:100A26000C0C000000000000000000FFFF000000AA
:100A3600000000001010FF00000000000000000091
:100A46000000000000FFFF00000202020202020294
:100A56000202020000FFFF0000020202020202027E
:100A66000202020000FFFF00000000000000020278
:100A76000200000000FFFFFFFFFFFFFF0000020271
:100A8600020000FFFFFFFFFFFFFFFFFF0000020263
:100A9600020000FFFFFFFFFFFFFFFFFF0000020253
:100AA600020000FFFFFFFFFFFFFFFFFF0000020243
:100AB600020000FFFFFFFFFFFFFFFFFF0000020233
:100AC600020000FFFFFFFFFFFFFFFFFF0000020223
:100AD600020000FFFFFFFF00000000FF000002020F
:100AE600020000FFFFFFFF000202000000000202FA
:100AF600020000FFFFFFFF000202020000020202E6
:100B0600020000FFFFFFFF000002020202020202D3
:100B1600000000FFFFFFFFFF0000020202020200CA
:100B26000000FFFFFFFFFFFFFF00000000000000C6
:100B360000FFFFFFFFFF1010FFFFFFFFFFFFFFFF9C
:100B4600FFFFFFFFFFFFFFFFFFFFFFFFFF000000AC
:100B560000000000FFFFFFFFFFFFFFFF0000010195
:100B660001010000FFFFFFFFFFFFFF000001010181
:100B760001010000FFFFFFFFFFFF0000010101016F
:100B8600010000FFFFFFFFFFFF000001010101015F
:100B96000000000000000000000001010101010149
:100BA6000101010101010000000101010101010132
:100BB6000101010101010000000101010101010122
:100BC6000101010101010000000001010101010113
:100BD6000101010101010000FF0000010101010105
:100BE6000000000000000000FFFF000001010101FD
:100BF600010000FFFFFFFFFFFFFFFF0000010101F3
:100C060001010000FFFFFFFFFFFFFFFF00000101E2
:100C160001010000FFFFFFFFFFFFFFFFFF000000D5
:100C260000000000FFFFFFFFFFFFFFFFFFFFFFFFCA
:100C3600FFFFFFFFFFFFFFFF1010FFFFFFFFFFFF9C
:100C4600FFFFFFFFFFFFFFFFFFFFFFFFFFFF0000AC
:100C56000000000000FFFFFFFFFFFFFFFFFF000097
:100C6600010101010000FFFFFFFFFFFFFFFF000082
:100C760001010101010000FFFFFFFFFFFFFFFF0071
:100C86000001010101010000FFFF0000000000005B
:100C9600000001010101010000FF00000101010146
:100CA6000101010101010101000000000101010132
:100CB6000101010101010101010000000101010121
:100CC6000101010101010101010000000000000015
:100CD600000001010101010000FF0000000000000A
:100CE600000001010101010000FFFFFFFFFFFF00FF
:100CF6000001010101010000FFFFFFFFFFFF0000EF
:100D060001010101010000FFFFFFFFFFFFFF0000DF
:100D1600010101010000FFFFFFFFFFFFFFFF0000D1
:100D26000000000000FFFFFFFFFFFFFFFFFFFFFFC8
:100D3600FFFFFFFFFFFFFFFFFFFF1010FFFFFFFF9B
:100D46000000000000000000FFFFFFFFFFFFFFFFA5
:100D56000000010101010000FFFFFFFFFFFFFFFF91
:100D66000000010101010000FFFFFFFFFFFFFFFF81
:100D76000000010101010000FFFFFFFFFFFFFFFF71
:100D86000000010101010000FFFFFFFF000000005D
:100D96000000010101010000000000000000010147
:100DA6000000010101010000010100000000010135
:100DB6000100010101010001010100000000010123
:100DC6000101010101010101010100000000010111
:100DD600010101010101010101010000FF00000103
:100DE6000101010101010101010000FFFFFF0000F7
:100DF60001010101010101010000FFFFFFFFFF00EA
:100E0600000101010101010000FFFFFFFFFFFFFFDD
:100E16000000010101010000FFFFFFFFFFFFFFFFD0
:100E2600FF000001010000FFFFFFFFFFFFFFFFFFC4
:100E3600FFFF00000000FFFFFFFFFFFF1010FFFF96
:100E4600FFFFFFFFFFFF0000000000000000FFFFA4
:100E5600FFFFFFFFFF000002020202020000FFFF89
:100E6600FFFFFFFF00000202020202020000FFFF76
:100E7600FFFFFF0000020202000002020000000065
:100E86000000000002020200000002020000000052
:100E96000202020202020200FF000202000000003B
:100EA6000202020202020200FF000202000000002B
:100EB6000202000000020200FF0002020000000021
:100EC600020200FF00020200FF0002020000000012
:100ED6000202000000020200FF0002020000000001
:100EE6000202020202020200FF00020200000000EB
:100EF60002020202020202000000020200000000DA
:100F06000000000000020202000002020000FFFFD3
:100F1600FFFFFFFF00000202020202020000FFFFC5
:100F2600FFFFFFFFFF000002020202020000FFFFB8
:100F3600FFFFFFFFFFFF0000000000000000101091
:100F46000000000000FFFFFFFFFFFF0000000000A1
:100F56000004040400FFFFFFFFFFFF000404040079
:100F66000004040400FFFFFFFFFFFF000404040069
:100F76000004040400FFFFFFFFFFFF000404040059
:100F86000004040400FFFFFFFFFFFF000404040049
:100F9600000404040000FFFFFFFF00000404040037
:100FA600000404040400FFFFFFFF0004040404001F
:100FB600000004040400FFFFFFFF00040404000017
:100FC60000000404040000FFFF0000040404000005
:100FD600FF0000040404000000000404040000FFF5
:100FE600FFFF000004040400000404040000FFFFE7
:100FF600FFFF000000040400000404000000FFFFDF
:10100600FFFFFF00000404040404040000FFFFFFC8
:10101600FFFFFFFF0000040404040000FFFFFFFFC2
:10102600FFFFFFFFFF00000404000000FFFFFFFFBB
:10103600FFFFFFFFFFFF0000000000FFFFFFFFFFB5
:10104600101000000000000000FFFFFFFFFFFFFF81
:10105600FFFF00000404040000FFFFFFFFFFFFFF87
:10106600FFFF00000404040000FFFFFFFFFFFFFF77
:10107600FFFF00000404040000FFFFFFFFFFFFFF67
:10108600FFFF00000404040000FFFFFFFFFFFFFF57
:10109600FFFF00000404040000FFFFFFFFFFFFFF47
:1010A600FFFF00000404040000FFFFFFFFFFFFFF37
:1010B600FFFF00000404040000FFFFFFFFFFFFFF27
:1010C600FFFF00000404040000FFFFFFFFFFFFFF17
:1010D600FFFF00000404040000FFFFFFFFFF000005
:1010E600000000000404040000FFFFFFFFFF0000F3
:1010F600000000000404040000FFFFFFFF000004DE
:1011060000000000040404000000000000000404C5
:101116000000000004040404040404040404040499
:101126000000000004040404040404040404040489
:1011360000000000000000000000000000000000A9
:1011460000001010FFFFFFFFFFFFFFFFFFFFFFFF85
:10115600FFFFFFFFFFFFFFFFFFFFFFFFFFFFFFFF99
:10116600FFFFFFFFFFFFFFFFFFFFFFFFFFFFFFFF89
:10117600FFFFFFFFFFFFFFFF00000000000000FF72
:10118600FFFFFFFFFFFFFF00000004040400000054
:10119600FFFFFFFFFFFF0000040404040404040033
:1011A60000FFFFFFFF000004040400000004040425
:1011B6000000FFFF00000004040000FF000004041C
:1011C600000000FF00000404040000FF0000040407
:1011D600040000FF00000404040000FF00000404F3
:1011E600040000FF00000404040000FF00000404E3
:1011F600040000FF00000004040000FF00000404D7
:10120600000000FFFF0000040404000000040404C2
:101216000000FFFFFFFF00000404040404040400B0
:1012260000FFFFFFFFFFFF000000040404000000B2
:10123600FFFFFFFFFFFFFFFF00000000000000FFB1
:10124600FFFFFFFF1010FFFFFFFFFFFFFFFFFFFF86
:10125600FFFFFFFFFFFFFFFFFFFFFFFFFFFFFFFF98
:10126600FFFFFFFFFFFFFFFFFFFFFFFFFFFFFFFF88
:10127600FFFFFFFFFFFFFFFFFFFF00000000000072
:101286000000FFFFFFFFFFFF00000000040404044E
:10129600000000FFFFFFFF00000004040404040434
:1012A60004040000FFFFFF00000404040000000027
:1012B6000404040000FFFF00000404040000FF0013
:1012C6000000000000FFFF0000000404040400000A
:1012D6000000FFFFFFFFFFFFFF00000404040404FB
:1012E600040000FFFFFFFFFFFFFF000000000404F3
:1012F60004040000FFFFFF0000000000FFFF0000E5
:101306000404040000FFFF000004040400000000C1
:101316000404040000FFFF000000040404040404A5
:1013260004040000FFFFFFFFFF00000004040404A4
:10133600000000FFFFFFFFFFFFFFFF0000000000AF
:101346000000FFFFFFFF101004040FFFFFFFFFFF69
:10135600FFFF0404FFFFFFFF040404FFFFFFFFFF7E
:10136600FFFF0404FFFFFFFF0404040FFFFFFFFF5E
:10137600FFFF0404FFFFFFFF040404040FFFFFFF49
:10138600FFFF0404FFFFFFFF0404FF0404FFFFFF49
:10139600FFFF0404FFFFFF040404FF04040FFFFF24
:1013A600FFFF0404FFFFFF040404FFFF0404FFFF24
:1013B600FFFF0404FFFFFF040404FFFF04040FFF04
:1013C600FFFF0404FFFFFF040404FFFFFF04040FF4
:1013D600FFFF0404FFFFFF040404FFFFFFFF0404F4
:1013E600FFFF0404FFFFFF040404FFFFFFFF0404E4
:1013F6000FFF0404FFFFFF040404FFFFFFFFFF04C9
:1014060004FF0404FFFFFF040404FFFFFFFFFFFFC8
:1014160004040404FFFFFFFF0404FFFFFFFFFFFFB8
:1014260004040404FFFFFFFF0404FFFFFFFFFFFFA8
:10143600FF040404FFFFFFFF0404FFFFFFFFFFFF9D
:10144600FF040404FFFFFFFF1010FFFFFF04040466
:101456000404040FFFFFFFFFFFFFFFFF0404040463
:1014660004040404040FFFFFFFFFFF040404FFFF4E
:10147600FFFFFF0404040FFFFFFF04040FFFFFFF3D
:10148600FFFFFFFF040404FFFFFF0404FFFFFFFF4D
:10149600FFFFFFFFFF04040FFFFF040FFFFFFFFF27
:1014A600FFFFFFFFFF040404FFFF04FFFFFFFFFF32
:1014B600FFFFFFFFFFFF0404FFFF04FFFFFFFFFF27
:1014C600FFFFFFFFFFFF0404FFFF04FFFFFFFFFF17
:1014D600FFFFFFFFFFFF0404FFFF04FFFFFFFFFF07
:1014E600FFFFFFFFFFFF0404FFFF040FFFFFFFFFE7
:1014F600FFFFFFFFFF040404FFFF0404FFFFFFFFDD
:10150600FFFFFFFFFF04040FFFFF04040FFFFFFFB1
:10151600FFFFFFFF040404FFFFFFFF040404FFFFB7
:10152600FFFFFF0404040FFFFFFFFFFF0404040492
:1015360004040404040FFFFFFFFFFFFFFFFF040482
:101546000404040FFFFFFFFFFFFF1010FFFFFFFF64
:10155600FF04040FFFFFFFFFFFFFFFFFFFFFFFFF7B
:10156600FF040404FFFFFFFFFFFFFFFFFFFFFFFF76
:10157600FFFF0404FFFFFFFFFFFFFFFFFFFFFFFF6B
:10158600FFFF04040FFFFFFFFFFFFFFFFFFFFFFF4B
:10159600FFFFFF0404FFFFFFFFFFFFFFFFFFFFFF4B
:1015A600FFFFFF04040FFFFFFFFFFFFFFFFFFFFF2B
:1015B600FFFFFF040404FFFFFFFFFF04FFFFFFFF21
:1015C600FFFFFFFF0404FFFFFFFFFF04FFFFFFFF16
:1015D600FFFFFFFF04040FFFFFFFFF04FFFFFFFFF6
:1015E600FFFFFFFF040404FFFFFF0404FFFFFFFFEC
:1015F600FFFFFFFFFF04040FFFFF0404FFFFFFFFD1
:10160600FFFFFFFFFF04040FFFFF0404FFFFFFFFC0
:10161600FFFFFFFFFFFF0404FF04040FFFFFFFFFB0
:10162600FFFFFFFFFFFF04040F0404FFFFFFFFFFA0
:10163600FFFFFFFFFFFF0404040404FFFFFFFFFF9B
:10164600FFFFFFFFFFFFFF0404040FFF1010FFFF63
:101656000404FFFF04040FFFFFFF04040404FF0457
:101666000404FFFF04040FFFFFFF04040404FF0447
:10167600040FFFFF04040FFFFFFF04040FFFFF0426
:1016860004FFFFFF04040FFFFFFF04040FFF040421
:101696000FFFFFFF04040FFFFFFF04040FFF040406
:1016A6000FFFFFFF04040FFFFFFF04040FFF0404F6
:1016B600FFFFFFFF04040FFFFFFF04040FFF040FEB
:1016C600FFFFFFFF04040FFFFFFF04040FFF04FFEB
:1016D600FFFFFFFF04040FFFFFFF04040FFF04FFDB
:1016E600FFFFFFFF04040FFFFFFF04040FFF0FFFC0
:1016F600FFFFFFFF04040FFFFFFF04040FFFFFFFC0
:10170600FFFFFFFF04040FFFFFFF04040FFFFFFFAF
:10171600FFFFFFFF04040FFFFFFF04040FFFFFFF9F
:10172600FFFFFFFF04040FFFFFFF04040FFFFFFF8F
:10173600FFFFFFFF04040FFFFFFF04040404FFFF85
:10174600FFFFFFFF04040FFFFFFF04040404101053
:1017560004040404040FFFFFFFFFFFFF0404040456
:1017660004040404040404FFFFFFFFFF040404044C
:10177600FFFFFFFFFF040404FFFFFFFF04040FFF4A
:10178600FFFFFFFFFFFF04040FFFFFFF04040FFF2F
:10179600FFFFFFFFFFFF040404FFFFFF04040FFF2A
:1017A600FFFFFFFFFFFFFF0404FFFFFF04040FFF1F
:1017B600FFFFFFFFFFFFFF04040FFFFF04040FFFFF
:1017C600FFFFFFFFFFFFFF04040FFFFF04040404F5
:1017D600FFFFFFFFFFFFFF04040FFFFF04040404E5
:1017E600FFFFFFFFFFFFFF04040FFFFF04040FFFCF
:1017F600FFFFFFFFFFFFFF0404FFFFFF04040FFFCF
:10180600FFFFFFFFFFFF040404FFFFFF04040FFFB9
:10181600FFFFFFFFFFFF04040FFFFFFF04040FFF9E
:10182600FFFFFFFFFF040404FFFFFFFF04040FFF99
:1018360004040404040404FFFFFFFFFF040404047B
:1018460004040404040FFFFFFFFFFFFF0404040465
:10185600101004040404040404040FFFFFFFFFFF38
:10186600FF0404040404040404040FFFFFFFFF0440
:101876000404FFFFFFFFFFFFFFFFFFFFFFFF04045E
:10188600040FFFFFFFFFFFFFFFFFFFFFFF0404043E
:10189600FFFFFFFFFFFFFFFFFFFFFFFFFF04040F38
:1018A600FFFFFFFFFFFFFFFFFFFFFFFFFF0404FF38
:1018B600FFFFFFFFFFFFFFFFFFFFFFFF04040FFF18
:1018C600FFFF040404040404040FFFFF04040FFFD5
:1018D600FFFF040404040404040FFFFF04040FFFC5
:1018E600FFFFFFFFFFFFFFFFFFFFFFFF04040FFFE8
:1018F600FFFFFFFFFFFFFFFFFFFFFFFFFF0404FFE8
:10190600FFFFFFFFFFFFFFFFFFFFFFFFFF04040FC7
:10191600FFFFFFFFFFFFFFFFFFFFFFFFFF040404C2
:10192600FFFFFFFFFFFFFFFFFFFFFFFFFFFF0404B7
:10193600040F04040404040404040FFFFFFFFF045F
:10194600040404040404040404040FFFFFFFFFFF5F
:10195600FF0410100404040404FFFFFFFFFFFFFF51
:10196600FFFFFFFF0404040404040FFFFFFFFFFF53
:10197600FFFFFFFFFFFFFFFF0404040FFFFFFFFF52
:10198600FFFFFFFFFFFFFFFFFFFF04040FFFFFFF47
:10199600FFFFFFFFFFFFFFFFFFFF040404FFFFFF42
:1019A600FFFFFFFFFFFFFFFFFFFFFF04040FFFFF27
:1019B600FFFFFFFFFFFFFFFFFFFFFF04040FFFFF17
:1019C600FFFFFFFFFFFFFFFFFFFFFF04040FFFFF07
:1019D600FFFFFFFFFFFFFFFFFFFFFF04040FFFFFF7
:1019E600FFFFFFFFFFFFFFFFFFFFFF04040FFFFFE7
:1019F600FFFFFFFFFFFFFFFFFFFFFF04040FFFFFD7
:101A0600FFFFFFFFFFFFFFFFFFFF040404FFFFFFD1
:101A1600FFFFFFFFFFFFFFFFFFFF04040FFFFFFFB6
:101A2600FFFFFFFFFFFFFFFF04040404FFFFFFFFAC
:101A3600FFFFFFFF0404040404040FFFFFFFFFFF82
:101A4600FFFFFFFF0404040404FFFFFFFFFFFFFF87
:101A5600FFFFFFFF1010FFFFFFFFFF040404040455
:101A6600040FFFFFFFFFFFFFFFFF0404040404044D
:101A7600040404FFFFFFFFFFFF040404FFFFFFFF52
:101A8600FF040404FFFFFFFF040404FFFFFFFFFF42
:101A9600FFFF04040FFFFFFF04040FFFFFFFFFFF1C
:101AA600FFFF04040FFFFFFFFF0404FFFFFFFFFF1C
:101AB600FFFFFFFFFFFFFFFFFF0404040404FFFF17
:101AC600FFFFFFFFFFFFFFFFFFFF04040404040402
:101AD6000404FFFFFFFFFFFFFFFFFFFFFF040404F7
:101AE6000404040FFFFFFFFFFFFFFFFFFFFFFFFFE1
:101AF600FF0404040FFFFF04040FFFFFFFFFFFFFB7
:101B0600FFFF04040FFFFFFF0404FFFFFFFFFFFFBB
:101B1600FFFF04040FFFFFFF04040FFFFFFFFFFF9B
:101B2600FFFF04040FFFFFFF04040404FFFFFFFF91
:101B3600FF040404FFFFFFFFFF040404040404047D
:101B4600040404FFFFFFFFFFFFFFFF040404040477
:101B5600040FFFFFFFFF1010FF04040FFFFFFFFF3E
:101B6600FFFFFF0404040404FF04040FFFFFFFFF4C
:101B7600FF04040404040404FF04040FFFFFFFFF32
:101B860004040404FFFFFFFFFF04040FFFFFFFFF31
:101B960004040FFFFFFFFFFFFF04040FFFFFFF0416
:101BA600040FFFFFFFFFFFFFFF04040FFFFFFF040B
:101BB60004FFFFFFFFFFFFFFFF04040FFFFFFF040B
:101BC60004FFFFFFFFFFFFFFFF04040FFFFF0404F6
:101BD60004FFFFFFFFFFFFFFFF04040FFFFF0404E6
:101BE6000FFFFFFFFFFF0404FF04040FFFFFFF04C6
:101BF60004FFFFFFFFFF0404FF04040FFFFFFF04C1
:101C060004FFFFFFFFFFFFFFFF04040FFFFFFF04BA
:101C1600040FFFFFFFFFFFFFFF04040FFFFFFFFF9F
:101C260004040FFFFFFFFFFFFF04040FFFFFFFFF8A
:101C360004040404FFFFFFFFFF04040FFFFFFFFF80
:101C4600FF04040404040404FF04040FFFFFFFFF61
:101C5600FFFFFFFF0404040410100404FFFFFFFF4E
:101C6600FFFFFF04040FFFFFFFFF0404040FFFFF45
:101C7600FFFFFF040404FFFFFFFFFF0404040FFF40
:101C8600FFFFFF0404040FFFFFFFFFFFFF0404FF35
:101C9600FFFFFF04040404FFFFFFFFFFFF04040F20
:101CA600FFFFFF040404040FFFFFFFFFFFFFFFFF1A
:101CB600FFFFFF0404FF04040FFFFFFFFFFFFFFF0A
:101CC600FFFFFF0404FFFF0404FFFFFFFFFFFFFF0A
:101CD600FFFFFF0404FFFF04040F040404040404CC
:101CE600FFFFFF0404FFFFFF0404040404040404CC
:101CF600FFFFFF0404FFFFFF0404FFFFFF040404CB
:101D0600FFFFFF0404FFFFFFFF04FFFFFF040404BF
:101D1600FFFFFF0404FFFFFFFFFFFFFFFF040404B4
:101D2600FFFFFF0404FFFFFFFFFFFFFF040404049F
:101D3600FFFFFF0404FFFFFFFFFF040404040FFF7F
:101D4600FFFFFF0404FFFFFFFFFF0404FFFFFFFF89
:101D5600FFFFFF0404FFFFFFFFFF1010FFFFFF045C
:101D660004FFFFFFFFFFFFFFFF040404FFFFFF0464
:101D760004FFFFFFFFFFFFFF04040404FFFFFF044F
:101D860004FFFFFFFFFFFFFF04040404FFFFFF043F
:101D960004FFFFFFFFFFFF040404FF04FFFFFF042F
:101DA60004FFFFFFFFFFFF04040FFF04FFFFFF0414
:101DB60004FFFFFFFFFFFF0404FFFFFFFFFFFF0419
:101DC60004FFFFFFFFFF04040FFFFFFFFFFFFF04F9
:101DD60004FFFFFFFFFF04040FFFFFFFFFFFFF04E9
:101DE60004FFFFFFFF040404FFFFFFFF0FFFFF04D4
:101DF60004FFFFFFFF04040404040404040FFF04AB
:101E060004FFFFFFFF040404040404040404FF04A5
:101E160004FFFFFF04040FFFFFFFFFFF04040F048E
:101E260004FFFFFF0404FFFFFFFFFFFFFF0404049E
:101E360004FFFF040404FFFFFFFFFFFFFFFF04048E
:101E460004FFFF04040FFFFFFFFFFFFFFFFF040473
:101E560004FFFF0404FFFFFFFFFFFFFF1010FFFF5B
:101E6600FFFFFFFFFFFF0404FFFFFFFFFFFF0FFF62
:101E7600FFFFFFFFFFFF0404FFFFFFFFFFFF0FFF52
:101E8600FFFFFFFFFFFF0404FFFFFFFFFFFF04FF4D
:101E9600FFFFFFFFFFFF0404FFFFFFFFFFFF040F2D
:101EA600FFFFFFFFFFFF0404FFFFFFFFFFFF040428
:101EB600FFFFFFFFFFFF0404FFFFFFFFFFFF040418
:101EC6000FFFFFFFFFFF0404FFFFFFFFFFFF0404F8
:101ED6000FFFFFFFFFFF0404FFFFFFFFFFFFFF04ED
:101EE60004FFFFFFFFFF0404FFFFFFFFFFFF0404E3
:101EF600040FFFFFFFFF0404FFFFFFFFFFFF0404C3
:101F06000404FFFFFFFF0404FFFFFFFFFFFFFFFFC7
:101F160004040FFFFFFF0404FFFFFFFFFFFFFFFFA7
:101F260004040FFFFFFF0404FFFFFFFFFFFFFFFF97
:101F3600FF0404FFFFFF0404FFFFFFFFFFFFFFFF97
:101F4600FF04040FFFFF0404040404040404FFFF59
:101F5600FFFF0404FFFF0404040404040404101037
:101F6600FFFFFFFFFF000000000000FFFFFFFFFF75
:101F7600FFFFFF00000002020202000000FFFFFF59
:101F8600FFFF000002020202020202020000FFFF3F
:101F9600FF0000020202000000000002020000FF33
:101FA600FF0002020200FFFFFFFF0000020200FF27
:101FB600FF00020202020000FFFFFF00000000FF18
:101FC600FF000002020202020000FFFFFFFFFFFF08
:101FD600FFFF0000000002020202000000FFFFFFF8
:101FE600FFFFFFFFFF00000002020202020000FFE7
:101FF600FFFFFFFFFFFFFF0000000202020200FFDB
:10200600FF00000000FFFFFFFF000000020200FFCC
:10201600FF0002020000FFFFFFFF0000020200FFB8
:10202600FF0000020200000000000002020000FFA4
:10203600FFFF000002020202020202020000FFFF8E
:10204600FFFFFF00000002020202020000FFFFFF86
:10205600FFFFFFFFFF00000000000000FFFFFFFF83
:10206600101000000000000000000000000000004A
:10207600000000010101010101010101010101014D
:10208600010000010101010101010101010101013C
:10209600010000010101010101010101010101012C
:1020A6000100000000000000010101010000000025
:1020B6000000FFFFFFFFFF000101010100FFFFFF1E
:1020C600FFFFFFFFFFFFFF000101010100FFFFFF10
:1020D600FFFFFFFFFFFFFF000101010100FFFFFF00
:1020E600FFFFFFFFFFFFFF000101010100FFFFFFF0
:1020F600FFFFFFFFFFFFFF000101010100FFFFFFE0
:10210600FFFFFFFFFFFFFF000101010100FFFFFFCF
:10211600FFFFFFFFFFFFFF000101010100FFFFFFBF
:10212600FFFFFFFFFFFFFF000101010100FFFFFFAF
:10213600FFFFFFFFFFFFFF000101010100FFFFFF9F
:10214600FFFFFFFFFFFFFF000101010100FFFFFF8F
:10215600FFFFFFFFFFFFFF000000000000FFFFFF83
:10216600FFFF1010FFFFFFFFFFFFFFFFFFFFFFFF57
:10217600FFFFFFFFFFFFFFFFFFFFFFFFFFFFFFFF69
:10218600FFFFFFFFFFFFFFFFFFFFFFFFFFFFFFFF59
:10219600FFFFFFFFFFFFFFFFFFFFFFFFFFFFFFFF49
:1021A600FFFFFFFFFFFFFFFFFFFFFFFFFFFFFFFF39
:1021B600FFFFFFFFFFFFFFFFFFFFFFFFFFFFFFFF29
:1021C600FFFFFFFFFFFFFFFFFFFFFFFFFFFFFFFF19
:1021D600FFFFFFFFFFFFFFFFFFFFFFFFFFFFFFFF09
:1021E600FFFFFFFF1010FFFFFFFFFFFFFFFFFFFFD7
:1021F600FFFFFFFFFFFFFFFFFFFFFFFFFFFFFFFFE9
:10220600FFFFFFFFFFFFFFFFFFFFFFFFFFFFFFFFD8
:10221600FFFFFFFFFFFFFFFFFFFFFFFFFFFFFFFFC8
:10222600FFFFFFFFFFFFFFFFFFFFFFFFFFFFFFFFB8
:10223600FFFFFFFFFFFFFFFFFFFFFFFFFFFFFFFFA8
:10224600FFFFFFFFFFFFFFFFFFFFFFFFFFFFFFFF98
:10225600FFFFFFFFFFFFFFFFFFFFFFFFFFFFFFFF88
:10226600FFFFFFFFFFFF1010FFFFFFFFFFFFFFFF56
:10227600FFFFFFFFFFFFFFFFFFFFFFFFFFFFFFFF68
:10228600FFFFFFFFFFFFFFFFFFFFFFFFFFFFFFFF58
:10229600FFFFFFFFFFFFFFFFFFFFFFFFFFFFFFFF48
:1022A600FFFFFFFFFFFFFFFFFFFFFFFFFFFFFFFF38
:1022B600FFFFFFFFFFFFFFFFFFFFFFFFFFFFFFFF28
:1022C600FFFFFFFFFFFFFFFFFFFFFFFFFFFFFFFF18
:1022D600FFFFFFFFFFFFFFFFFFFFFFFFFFFFFFFF08
:1022E600FFFFFFFFFFFFFFFF1010FFFFFFFFFFFFD6
:1022F600FFFFFFFFFFFFFFFFFFFFFFFFFFFFFFFFE8
:10230600FFFFFFFFFFFFFFFFFFFFFFFFFFFFFFFFD7
:10231600FFFFFFFFFFFFFFFFFFFFFFFFFFFFFFFFC7
:10232600FFFFFFFFFFFFFFFFFFFFFFFFFFFFFFFFB7
:10233600FFFFFFFFFFFFFFFFFFFFFFFFFFFFFFFFA7
:10234600FFFFFFFFFFFFFFFFFFFFFFFFFFFFFFFF97
:10235600FFFFFFFFFFFFFFFFFFFFFFFFFFFFFFFF87
:10236600FFFFFFFFFFFFFFFFFFFF1010FFFFFFFF55
:10237600FFFFFFFFFFFFFFFFFFFFFFFFFFFFFFFF67
:10238600FFFFFFFFFFFFFFFFFFFFFFFFFFFFFFFF57
:10239600FFFFFFFFFFFFFFFFFFFFFFFFFFFFFFFF47
:1023A600FFFFFFFFFFFFFFFFFFFFFFFFFFFFFFFF37
:1023B600FFFFFFFFFFFFFFFFFFFFFFFFFFFFFFFF27
:1023C600FFFFFFFFFFFFFFFFFFFFFFFFFFFFFFFF17
:1023D600FFFFFFFFFFFFFFFFFFFFFFFFFFFFFFFF07
:1023E600FFFFFFFFFFFFFFFFFFFFFFFF1010FFFFD5
:1023F600FF0000FFFFFFFFFFF000000FFFFFFFFFE2
:1024060000222200FFFFFFFF00222200FFFFFFF055
:10241600022002200FFFFFF0022002200FFFFF0024
:102426002200002200FFFF00220FF02200FFF00230
:10243600200FF002200FF00220000002200F0022E1
:1024460022222222220000222222222222000022EE
:10245600000000002200002200FFFF0022000022F0
:1024660000FFFF002200000000FFFF000000101028
:1024760000000000000000FF022222222222000F9C
:102486000222222222222000000220000022220014
:10249600F00220FFF0022200F00220FFF0022200EC
:1024A600F00220000022200FF0022222222200FF4A
:1024B600F0022222222200FFF00220000022200F3A
:1024C600F00220FFF0022200F00220FFF0022200BC
:1024D60000022000002222000222222222222000C4
:1024E600022222222222000F00000000000000FF2C
:1024F60010101010101010101010101010101010D6
:062506001010101010106F
:108F9B0078B7E2FB08E2FA08E2F912500CFF789876
:108FAB00E22F78D8F222F278B7E2FB0808E2F92434
:108FBB0001F218E2FA3400F2024FF378B7E2FB0841
:108FCB00E2FA08E2F92278AEE2FF3395E0FED3EF46
:108FDB009400EE6480948022E22401F218E23400C3
:028FEB00F22270
:05995B00E47898F222FF
:0A6FED0078AFEFF208ECF208EDF2C5
:106FF70078AFE2FF25E0F2E22408F278B6F278B043
:10700700E2FE08E27803C333CE33CED8F979B1F381
:10701700EE19F3789AE26401704678B0E2FE08E26E
:10702700FF4E602EEF7803CEC313CE13D8F9FF645B
:10703700074E601EEF640D4E6018EF64154E601228
:10704700EF64084E600CEF64104E6006EF64194E53
:10705700700778B1E2240A800C78B1E22406800533
:1070670078B1E22408128FE6AF037E007C017D022F
:1070770012504B74262FF974003EFA78B774FFF25A
:1070870008EAF208E9128FB178B2128FB178B3F239
:10709700E408F278B2E2FF78B4E2C39F40030271DA
:1070A7005CE408F278B3E2FF78B5E2C39F400302DD
:1070B7007149128FC6124FF3128FA8E4FB7D02FFAE
:1070C700128B5C900001128F9B7B011271849000E0
:1070D70002128F9B7B02127184128FC690000312DB
:1070E7008FA57B0312718C78D87480F27B041271A0
:1070F7008C78B9E22404128FE678B6E278D8F27B6E
:107107000512719F08E278D8F27B0712719FE27E21
:10711700007802C333CE33CED8F912715D12719461
:1071270020E7FA78B0E225E025E0440812715D1205
:10713700719420E7FA78B6E204F218E22404F20226
:1071470070AB78AFE278B6F278B1128FE378B4E239
:0571570004F202709A31
:10715C002278D8F27B097D02E4FF128B5C7B0A7DDE
:10716C0002E4FF128AF7EF543F448078D8F27B0A8E
:10717C007D02E4FF128B5C227D02E4FF128B5C2209
:10718C007D02E4FF128B5C227B0A7D02E4FF128AF3
:0D719C00F7EF227D02E4FF128B5C78B02239
:0A8D3F0078A8EFF208EDF208EBF25D
:108D490008128FC812000E78AEEFF23395E0C364B3
:108D5900809480403B78A8E254016401702A78A984
:108D6900E2FF08E2FD7C0008128FC8124FF3FB12E4
:108D79006FED78AEE214F218128FE378A9E22402BB
:108D8900F2128FD150D88005128FD150FB129966FB
:018D990022B7
:1096F8000500000600000700000800000900000A35
:1097080000001F000020000B000C000D000E000FD1
:05971800101112120007
:03991A0001210028
:1082E8007856E275F003A424F8F9749635F0FA7814
:1082F800AB74FFF2082278A5900001E2FB08E2FACD
:1083080008E2F902500C78A5E2FB08E2FA08E2F963
:10831800227856E2FF7E007401A80708227852E20C
:10832800FD7C007B01227497F2087404F222FF7826
:1083380063E2FDEF5D227497F2087417F2227497D6
:10834800F2087415F22290000202500C124FF354F6
:1083580002640222124FF35401640122124FF354B3
:1083680010641022124FF3540C1313543FF52722B4
:108378007497F2740D08F27852E2FB227B017D0FAC
:108388007C00227B017D127C0022EAF208E9F27B64
:108398000F22EAF208E9F27B1222EAF208E9F278FF
:1083A80052E2FB22EAF208E9F27B01227D197B0501
:1083B8007C007F3A22EBF208EAF208E9F222900008
:1083C8000302500CEAF208E9F2E4FB227852E2FBDD
:0A83D8007F01227BFE7A00795B2210
:108FED00127E8612995B7F041299607F031299633A
:108FFD00E4F527C3E5279406748094805009AF27C4
:10900D00129028052780EC7F011294547FFF12994E
:0A901D00637F08129028E47853F2F4
:109027002212978678A9E4F2087426F27B5AE4FDA7
:06903700FCFF1286492235
:1057C90078A51283BD7F021299607FFF12996378D1
:1057D90055E2125155580C11582221584922587036
:1057E9003158B03358ED34592A41598791599CA100
:1057F90059CCA259F5B15A42B35A81B45ABDC10024
:10580900005B1F78A51283101283546003025B1F8B
:105819001282E81283CC0259C778A5128310128329
:105829005470061282E8125B7A1282FE54026402F4
:105839006003025B1F78571282EA1283920259C7EA
:1058490078A512831012835470061282E8125B2025
:105859001282FE540264026003025B1F78571282AF
:10586900EA1283CC0259F078A5128310128354707E
:10587900061282E8125B7A1282FE54026402700BED
:1058890078571282EA128392125B8978A5900002F6
:10589900128303540264026003025B1F7858128268
:1058A900EA1283920259F078A51283101283547078
:1058B900061282E8125B201282FE5402640270080A
:1058C90078571282EA125B6B78A512831012834E05
:1058D900540264026003025B1F78581282EA128341
:1058E900920259F078A5128310128354700612821D
:1058F900E8125B3E1282FE54026402700878571265
:1059090082EA125B6B78A512831012834E540264EB
:10591900026003025B1F78581282EA128392025ACC
:10592900B878A512831012835470061282E8125BAC
:105939003E1282FE54026402700F78571282EA12F4
:1059490083CC7D3E7F01128D3F78A512831012838F
:105959004E54026402700B78581282EA1283921232
:105969005B8978A51283101283C65402640260030E
:10597900025B1F78591282EA1283920259F078A5C4
:105989001283101283546003025B1F1282E8128390
:10599900AC802B78A5128310128354700D1282E803
:1059A9001283AC7D297F01128D3F1282FE5402645D
:1059B900026003025B1F78571282EA12839A7D29DB
:1059C900025B1A78A512831012835470061282E8BA
:1059D900125B2F1282FE540264026003025B1F787D
:1059E900571282EA1283AC7D3E025B1A78A51283B4
:1059F90010128354700D1282E81283AC7D297F0145
:105A0900128D3F1282FE54026402700F785712827F
:105A1900EA12839A7D147F01128D3F78A5128310B3
:105A290012834E540264026003025B1F785812828B
:105A3900EA12839A7D3E025B1A78A51283101283BB
:105A49005470061282E8125B2F1282FE540264021D
:105A5900700878571282EA125B4D78A512831012EA
:105A6900834E540264026003025B1F78581282EA73
:105A790012839A7D3E025B1A78A512831012835411
:105A890070061282E8125B5C1282FE540264027094
:105A99000878571282EA125B4D78A5128310128397
:105AA9004E54026402706F78581282EA12839A7D0A
:105AB90014025B1A78A5128310128354700612829D
:105AC900E8125B5C1282FE54026402700F7857126E
:105AD90082EA1283AC7D3E7F01128D3F78A5128345
:105AE9001012834E54026402700F78581282EA121F
:105AF900839A7D147F01128D3F78A512831012833A
:105B0900C654026402700F78591282EA12839A7D90
:105B19003E7F01128D3F22EAF208E9F2E4FB7D148F
:105B29007F01128D3F22EAF208E9F27B017D147FA1
:105B390001128D3F22EAF208E9F2E4FB7D147F01AC
:105B4900128D3F22EAF208E9F27B017D3E7F0112C4
:105B59008D3F22EAF208E9F27B017D147F01128D63
:105B69003F22EAF208E9F2E4FB7D3E7F01128D3F14
:105B790022EAF208E9F2E4FB7D297F01128D3F2236
:085B89007D147F01128D3F2203
:079948007854E24480F22292
:1093AE007B787D01E4FF128AF7EF540FFF7863F2AA
:1093BE007854E26F6021D2217B31E4FDFF128AF7EF
:1093CE00EF547F78D8F27B31E4FDFF128B5C123CB8
:0893DE00BC7863E27854F2222E
:0567770078A51283BDAE
:10677C007F411299607855E212515567AF1167DD70
:10678C0021683822689A3168E433692B3467AF91F9
:10679C0067DDA16838A2689AB168E4B3692BB400CC
:1067AC0000699678A512831012836C60030268A4AA
:1067BC001283257F3112859C78A5128310124FF31A
:1067CC0030E5030268C57853E260030269960268FB
:1067DC00DB78A512831012836C60101269971282F9
:1067EC00F6EAF2E912837D7D1C801A128325126968
:1067FC00ED128310124FF330E5121269B41282F7C6
:10680C001283787D017F01128D3F800E7853E270E8
:10681C0009181283277F0112859C78A51283001218
:10682C00836F7852600302693702689278A51283ED
:10683C001012836C600D1269971282F61283A27D7E
:10684C001C801A1283251269ED128310124FF3303B
:10685C00E5121269B41282F71283787D017F01125E
:10686C008D3F800E7853E27009181283277F011236
:10687C00859C78A512830012836F60087B02E4FD6F
:10688C00FC02693E78521283277F4602699378A5F1
:10689C0012831012836C600E1269C21282F612837C
:1068AC00A27D310269831283257F3112859C78A5E4
:1068BC00128310124FF330E50E1269DF1282F712B9
:1068CC0083787D010269837853E26003026996182C
:1068DC001283277F0102699378A512831012836CAF
:1068EC00600E1269C21282F61283A27D1C026983A9
:1068FC001283257F1C12859C78A5128310124FF3EE
:10690C0030E50E1269DF1282F71283787D0102697D
:10691C00837853E27074181283277F01026993788D
:10692C00A512830012836F60267852E2FD7C007BF7
:10693C0002E4FF12859CE52725E0FFE433FE740D8D
:10694C002FF974973E1282F61283A27D468028128C
:10695C0083257F4612859C78A5128310124FF33045
:10696C00E51A7852E2FD7C007B02E4FF12859C1252
:10697C0082F71283787D017F01028D3F7853E2709C
:0A698C0009181283277F0112859C71
:10699600227852E2FD7C007B02E4FF12859CE5270B
:1069A60025E0FFE433FE740D2FF974973E227852EA
:1069B600E2FD7C007B02E4FF12859C227852E2FD18
:1069C6007C007B02E4FF12859CE52725E0FFE4338B
:1069D600FE740D2FF974973E227852E2FD7C007BFF
:0F69E60002E4FF12859C227F1C12859C78A5225B
:1042210078A51283BD7F0C1299607855E212515521
:10423100425F1142792142A32242D631431F3343C7
:10424100633443B0414428914441A1447CA244B920
:10425100B14513B3456DB445CAC10000464A128346
:104261000E12835C700A1282F712832EE402443923
:104271007B01E4FDFC02447712830E12835C700B18
:104281001282F712832E1246C480031246AF78A51C
:104291001283005401640170030244671283840293
:1042A100447712830E12835C700B1282F712832EF5
:1042B100124663800312468378A512830054016479
:1042C10001700A1282F712832EE40244AB7B01E4EF
:1042D100FDFC0244B412830E12835C700B1282F750
:1042E10012832E1246C480031246AF78A5128300B2
:1042F10054016401700B1282F712832E1246BA80A8
:10430100081283847F1712859C12830E12834E54E8
:1043110001640170030244171283840244B41283BE
:104321000E12835C700B1282F712832E1246638089
:104331000312468378A512830054016401700B12A5
:1043410082F712832E1246A5800312468E12830E27
:1043510012834E54016401700302441712838402D4
:1043610044B412830E12835C700B1282F712832EF7
:1043710012466D80031246CE78A512830054016463
:1043810001700B1282F712832E1246A5800312468A
:104391008E12830E12834E54016401700B1282F748
:1043A10012832E7B0F0245BA7B017D0F0245C3129A
:1043B100830E12835C700B1282F712832E12466DEC
:1043C10080031246CE78A512830054016401701156
:1043D1001282F712832EE4FB7D417F01128D3F8013
:1043E1000A7B01E4FDFC7F4112859C12830E12833E
:1043F1004E54016401700B1282F712832E1246BAD9
:1044010080081283847F1712859C12830E1283C643
:1044110054016401700B1282F712832E7B0F024448
:10442100AC1283840244B412830E12835C700C12AA
:1044310082F712832E7852E2FB8033128325803675
:1044410012830E12835C700B1282F712832E1246B6
:104451009980081283257F2C12859C78A5128300F0
:1044610054016401700D1282F712832E7B0F7D2C93
:1044710002463D1283847F2C02464712830E12832B
:104481005C700B1282F712832E12464B8008128346
:10449100257F1712859C78A5128300540164017051
:1044A1000F1282F712832E7852E2FB7D4102463DC4
:1044B1001283257F4102464712830E12835C700BE3
:1044C1001282F712832E12469980081283257F2CBF
:1044D10012859C78A512830054016401700B12822D
:1044E100F712832E1246D9800812838B7F1712850B
:1044F1009C12830E12834E54016401700D1282F7D7
:1045010012832E7B127D4102463D12838B7F410235
:10451100464712830E12835C700B1282F712832EB0
:1045210012464B80081283257F1712859C78A512AD
:10453100830054016401700B1282F712832E12461C
:104541007780081283257F4112859C12830E128386
:104551004E54016401700D1282F712832E7B127D7D
:104561004102463D12838B7F4102464712830E1260
:10457100835C700B1282F712832E12465780081249
:1045810083257F1712859C78A5128300540164014D
:10459100700B1282F712832E124677800812832540
:1045A1007F4112859C12830E12834E540164017067
:1045B1000D1282F712832E7B127D1702463D7B017D
:1045C1007D127C007F1702464712830E12835C70B6
:1045D1000B1282F712832E12465780081283257F11
:1045E1001712859C78A51283005401640170101282
:1045F10082F712832E7D411283D4128D3F800812DF
:1046010083257F4112859C12830E12834E540164CF
:1046110001700B1282F712832E1246D98008128381
:104621008B7F1712859C12830E1283C6540164017D
:10463100700F1282F712832E7B127D417F01028D52
:104641003F12838B7F4112859C227852E2FB7D17BA
:104651007F01128D3F227852E2FB7D177F01128D7F
:104661003F22E4FB7D177F01128D3F22E4FB7D1782
:104671007F01128D3F227852E2FB7D417F01128D35
:104681003F227B01E4FDFC7F1712859C227B01E424
:10469100FDFC7F4112859C227852E2FB7D2C7F013B
:1046A100128D3F22E4FB7D417F01128D3F227B0170
:1046B100E4FDFC7F2C12859C227B0F7D177F01126C
:1046C1008D3F22E4FB7D2C7F01128D3F227B01E493
:1046D100FDFC7F1712859C227B127D177F01128DB5
:0246E1003F2276
:1046E30078A51283BD7F021299607855E212515565
:1046F300471E1147322147642247993147E6334821
:104703002E34487F4148F0914911A24950B149B331
:10471300B34A11B44A6DC100004AEE78A512831062
:104723001283647002802A7B01E4FDFC02490C7849
:10473300A5128310128364700B1282F71283461240
:104743004B528003124B4778A51283101283647077
:104753000A1282F7128346E4024903128384024950
:104763000C78A5128310128364700B1282F71283E4
:1047730046124B078003124B1B78A512830054107B
:104783006410700A1282F7128346E40249427B01E5
:10479300E4FDFC02494B78A5128310128364700B6D
:1047A3001282F7128346124B528003124B4778A5AD
:1047B30012830054106410700B1282F71283461296
:1047C3004B6780081283847F1F12859C78A5128310
:1047D3001012834E5410641070030248DF12838456
:1047E30002494B78A5128310128364700B1282F76F
:1047F300128346124B078003124B1B78A5128300CA
:1048030054106410700B1282F7128346124B3D80D2
:1048130003124B2678A512831012834E5410641092
:1048230070030248DF12838402494B78A512831078
:10483300128364700B1282F7128346124B118003AA
:10484300124B5C78A512830054106410700B128213
:10485300F7128346124B3D8003124B2678A5128331
:104863001012834E54106410700B1282F712834699
:104873007B0F024A5D7B017D0F024A6678A5128396
:1048830010128364700B1282F7128346124B11804D
:1048930003124B5C78A512830054106410700B1242
:1048A30082F7128346124B718003124B7B78A51259
:1048B300831012834E54106410700B1282F712830C
:1048C30046124B6780081283847F1F12859C78A54C
:1048D3001283101283C654106410700B1282F712E5
:1048E30083467B0F02494312838402494B78A51206
:1048F3008310128364700F1282F71283467852E298
:10490300FB7D34024AE11283257F34024AEB78A50A
:10491300128310128364700B1282F7128346124AB9
:10492300EF80081283257F1F12859C78A5128300D0
:1049330054106410700F1282F71283467852E2FB10
:104943007D49024AE11283257F49024AEB78A51289
:10495300831012836470101282F71283467D34121F
:1049630083D4128D3F80081283257F3412859C786F
:10497300A512830054106410700B1282F712834641
:10498300124B86800812838B7F1F12859C78A51299
:10499300831012834E54106410700D1282F7128329
:1049A300467B127D49024AE112838B7F49024AEB1F
:1049B30078A5128310128364700B1282F712834658
:1049C300124AEF80081283257F1F12859C78A51257
:1049D300830054106410700B1282F7128346124B3B
:1049E3003180081283257F4912859C78A512831094
:1049F30012834E54106410700D1282F71283467B9B
:104A0300127D49024AE112838B7F49024AEB78A562
:104A1300128310128364700B1282F7128346124AB8
:104A2300FB80081283257F1F12859C78A5128300C3
:104A330054106410700B1282F7128346124B71806C
:104A430003124B7B78A512831012834E541064100B
:104A5300700D1282F71283467B127D1F024AE17B9F
:104A6300017D127C007F1F024AEB78A5128310128E
:104A73008364700B1282F7128346124AFB8008127A
:104A830083257F1F12859C78A51283005410641020
:104A9300700B1282F7128346124B31800812832562
:104AA3007F4912859C78A512831012834E5410649B
:104AB30010700B1282F7128346124B868008128302
:104AC3008B7F1F12859C78A51283101283C6541006
:104AD3006410700F1282F71283467B127D497F01A7
:104AE300028D3F12838B7F4912859C227852E2FB11
:104AF3007D1F7F01128D3F227852E2FB7D1F7F01D4
:104B0300128D3F22E4FB7D1F7F01128D3F22E4FBC8
:104B13007D1F7F01128D3F227B01E4FDFC7F1F126D
:104B2300859C227B01E4FDFC7F4912859C227852FF
:104B3300E2FB7D497F01128D3F22E4FB7D497F012A
:104B4300128D3F227B01E4FDFC7F3412859C22E41D
:104B5300FB7D347F01128D3F227B01E4FDFC7F1F2F
:104B630012859C227B0F7D1F7F01128D3F22E4FB68
:104B73007D497F01128D3F227B01E4FDFC7F4912B9
:0D4B8300859C227B127D1F7F01128D3F2239
:103CBC007855E21251553CEA113D0D223D51313DF2
:103CCC00C0333E25343E91413F1D913F46A23F9269
:103CDC00B14000B34068B440E1C10000416A1283B6
:103CEC00198005C333CE33CED8F9128336600B124C
:103CFC0082F712833E7B0D023F367B057D0D023F22
:103D0C003F1283198005C333CE33CED8F9128336D4
:103D1C00600B1282F712833E1241C780031241835B
:103D2C00785712831B8005C333CE33CED8F9128358
:103D3C0036600B1282F712833E7B0D023F827B05AD
:103D4C007D0D023F8B1283198005C333CE33CED841
:103D5C00F912833660111282F712833E7B077D25A0
:103D6C007F01128D3F80057D0712420D785712831B
:103D7C001B8005C333CE33CED8F9128336600D12B7
:103D8C0082F712833E7B151241E780031241D178F2
:103D9C005812831B8005C333CE33CED8F912833629
:103DAC00600B1282F712833E7B15023F827B057DEE
:103DBC0015023F8B1283198005C333CE33CED8F94D
:103DCC00128336600B1282F712833E1241C78003B6
:103DDC00124183785712831B8005C333CE33CED860
:103DEC00F9128336600B1282F712833E1241DD808A
:103DFC000312418F785812831B8005C333CE33CE08
:103E0C00D8F9128336600B1282F712833E7B1502AF
:103E1C003F827B057D15023F8B1283198005C333CE
:103E2C00CE33CED8F9128336600B1282F712833E52
:103E3C0012419B800312416B785712831B8005C380
:103E4C0033CE33CED8F9128336600D1282F712833B
:103E5C003E7D3A12420580087D0D1283B612859C78
:103E6C00785812831B8005C333CE33CED8F9128316
:103E7C0036600B1282F712833E7B150240D17B0514
:103E8C007D150240DA1283198005C333CE33CED8A8
:103E9C00F9128336600B1282F712833E12419B801B
:103EAC000312416B785712831B8005C333CE33CE7C
:103EBC00D8F9128336600B1282F712833E1241DD61
:103ECC00800312418F785812831B8005C333CE3385
:103EDC00CED8F912833660111282F712833E7B150D
:103EEC007D107F01128D3F80031241D178591283CE
:103EFC001B8005C333CE33CED8F9128336600B1238
:103F0C0082F712833E7B15023F827B057D15023FB3
:103F1C008B1283198005C333CE33CED8F912833676
:103F2C00600D1282F712833E7B107D2502415F7B70
:103F3C00057D107C007F250241671283198005C323
:103F4C0033CE33CED8F9128336600D1282F712833A
:103F5C003E7B101241E780031241A5785712831B58
:103F6C008005C333CE33CED8F9128336600D12825E
:103F7C00F712833E7B107D3A02415F7B057D107CFE
:103F8C00007F3A0241671283198005C333CE33CECA
:103F9C00D8F912833660111282F712833E7B087DAA
:103FAC00257F01128D3F80057D0812420D78571236
:103FBC00831B8005C333CE33CED8F9128336600B06
:103FCC001282F712833E12421780031241EF785887
:103FDC0012831B8005C333CE33CED8F912833660DF
:103FEC000D1282F712833E7B197D3A02415F1283D8
:103FFC00B40241671283198005C333CE33CED8F98E
:10400C00128336600D1282F712833E7D1012420528
:10401C0080031241A5785712831B8005C333CE331E
:10402C00CED8F9128336600B1282F712833E1241FE
:10403C00FB80031241BB785812831B8005C333CE1F
:10404C0033CED8F9128336600D1282F712833E7B81
:10405C00197D3A02415F1283B402416712831980C1
:10406C0005C333CE33CED8F9128336600B1282F7E8
:10407C0012833E1241B18003124177785712831B91
:10408C008005C333CE33CED8F91283366011128239
:10409C00F712833E7B107D3A7F01128D3F800B7BA4
:1040AC00057D107C007F3A12859C785812831B800A
:1040BC0005C333CE33CED8F9128336600D1282F796
:1040CC0012833E7B197D1002415F7B057D197C00BC
:1040DC007F100241671283198005C333CE33CED8CB
:1040EC00F9128336600B1282F712833E1241B180B3
:1040FC0003124177785712831B8005C333CE33CE1E
:10410C00D8F9128336600B1282F712833E1241FBF0
:10411C0080031241BB785812831B8005C333CE3306
:10412C00CED8F9128336600B1282F712833E1242FC
:10413C001780031241EF785912831B8005C333CECD
:10414C0033CED8F9128336600F1282F712833E7B7E
:10415C00197D3A7F01028D3F1283B412859C227B1C
:10416C00057D077C007F1012859C227B057D087CD9
:10417C00007F1012859C227B057D0D7C007F101228
:10418C00859C227B057D077C007F3A12859C227BD7
:10419C00077D107F01128D3F227B057D107C007FF7
:1041AC001012859C227B087D107F01128D3F227B93
:1041BC00057D087C007F3A12859C227B0D7D107F4B
:1041CC0001128D3F227B057D157C007F1012859C92
:1041DC00227B077D3A7F01128D3F227D107F0112D9
:1041EC008D3F227B057D197C007F1012859C227BE4
:1041FC00087D3A7F01128D3F227B0D7F01128D3F8E
:10420C00227B057C007F2512859C227B197D107FEB
:05421C0001128D3F229C
:10916500E4FF1297867853E224FE601104702B12F7
:1091750091A01282F77497F2087407800C1291A0DF
:109185001282F77497F208740AF27852E2FB7D01B5
:109195007F01128D3F7FFF129963227F031299632E
:0691A5007F041299602214
:10963600E4FF129786785BE254026402701212838A
:10964600DB1242211283DB1246E31283DB126777B9
:08965600129948E4FF0294544C
:10250C0000000000000000000000000000000000BF
:10251C0000000000000000000000000000000000AF
:10252C00003E007E00FE01CE038E7F8E7F8E738E6A
:10253C00738E738E7F8E7F8E01CE00FE007E003EEA
:10254C0000000000020006000E001E003FFE7FFE91
:10255C007FFE3FFE1E000E00060002000000000081
:10256C000000000000400060007000787FFC7FFEDF
:10257C007FFE7FFC007800700060004000000000CF
:10258C00000003C003C003C003C003C003C003C0EA
:10259C0003C03FFC1FF80FF007E003C001800000F0
:1025AC0003C003C007E007E00E700E701C381C3827
:1025BC00381C381C7FFE7FFE700E700E700E700E75
:1025CC007FF87FFC383E381E381E381E383C3FF8EA
:1025DC003FF8383C381E381E381E383E7FFC7FF8DA
:1025EC000FF81FFC3C1C380E780E700E700070003B
:1025FC0070007000700E700E380E3C1C1FFC0FF833
:10260C007FF07FF07078703C703C703C70787FF09D
:10261C007FE0778073C071E070F07078703C701E52
:10262C0000006006700E781E7C3E7FFE77EE73CE47
:10263C00718E700E700E700E700E700E700E700E1D
:10264C0000001FF81FF800E000E000E000E000E0F0
:10265C0000E000E000E070E079E03FC01F800F0078
:10266C0000000000000003C007800F001E003FFCAC
:10267C003FFC1E000F00078003C00000000000009C
:10268C0000000000000003C001E000F000783FFCF7
:10269C003FFC007800F001E003C0000000000000E7
:1026AC0000000000018001800180018011881998D0
:1026BC001DB81FF80FF007E003C0018000000000F8
:1026CC00003E007E00FE01CE038E7F8E7F8E738EC9
:1026DC00738E738E7F8E7F8E01CE00FE007E003E49
:1026EC00700E700E700E700E700E700E781E381C00
:1026FC00381C1C381C380E700FF007E003C001802A
:10270C000000380038003800380038003800380035
:10271C0038003800380038063806380E3FFE3FFEC9
:10272C000000000000000000000003800FE01C709F
:10273C00183038383838383818301C700FE00380AF
:10274C000000000000000000000003C00FF01C3867
:10275C001C000F0007E000F000381C380FF003C01D
:10276C00000000000000000000000000000000005D
:10277C00000000000000000000000000000000004D
:10278C00000000000000000000000000000000003D
:10279C00000000000000000000000000000000002D
:1027AC00000000000000000000000000000000001D
:1027BC00000000000000000000000000000000000D
:1027CC0000000000000000000000000000000000FD
:1027DC0000000000000000000000000000000000ED
:1027EC0000000000000000000000000000000000DD
:1027FC0000000000000000000000000000000000CD
:10280C0000000000000000000000000000000000BC
:10281C0000000000000000000000000000000000AC
:10282C00000000000000000000000000000000009C
:10283C00000000000000000000000000000000008C
:10284C00000000000000000000000000000000007C
:10285C00000000000000000000000000000000006C
:10286C00000000000000000000000000000000005C
:10287C00000000000000000000000000000000004C
:10288C00000000000000000000000000000000003C
:10289C00000000000000000000000000000000002C
