:030000000288541F
:0C885400787FE4F6D8FD75813502889B22
:0C98B900E204F2E2C39450748094802218
:10986D00D2BCD2AC758DF4D28EE47850F208F222CF
:0F987D007850E2FF08E2B507037F00227F012247
:1097B700C2AC7850E22400F8E2FF78501298B94022
:0597C70002E4F2D2AC47
:0197CC00227A
:080003003099FD8F99C299228A
:030023000296CC76
:1096CC00C0E0C0D075D008309814C2987851E2240C
:1096DC0000F8E599F278511298B94002E4F2D0D032
:0396EC00D0E03299
:1096EF0078ACE2FB08E2FA08E2F9227590F6789A74
:1096FF00E222C2AF789AE2640122AE038E80D29347
:03970F00C29322E0
:10968200E478D9F27EFFC2AF7590F6C2B6C2B712C5
:10969200970B8F80C291D2917590F6C2B6C2B77500
:0496A20080FFD2AFC4
:0196A60022A1
:108B0B001297017005AF051296821296FAFF640157
:108B1B007006C2B6C2B78028EDF582758300700669
:108B2B00C2B7C2B6801AE582640145837006C2B72C
:108B3B00D2B6800CE582640245837004D2B7C2B60C
:108B4B0012970978D8E2F580C291D2917590F6EF21
:108B5B0064017006C2B6C2B78004D2B6D2B77580B4
:048B6B00FFD2AF2264
:1088E000AC031297017005AF051296821296FA64D6
:1088F000017006C2B6C2B78022EDFF7E007006C2CC
:10890000B7C2B68016EF64014E7006C2B7D2B68009
:108910000AEF64024E7004D2B7C2B6AF040C8F8067
:10892000D293C29378AAE2FB0808E2F92401F21874
:10893000E2FA3400F2124FF3F580C291D29178AD91
:10894000E214F270D61296FA64017006C2B6C2B78B
:0C8950008004D2B6D2B77580FFD2AF22EF
:028AA600AC071B
:108AA8001297017005AF051296821296FAFF6401BB
:108AB8007006C2B6C2B78028EDF5827583007006CD
:108AC800C2B7C2B6801AE582640145837006C2B790
:108AD800D2B6800CE582640245837004D2B7C2B670
:108AE8001297097580FFC292AE80D2927590F6EF08
:108AF80064017006C2B6C2B78004D2B6D2B7D2AF8C
:028B0800AF06B6
:018B0A002248
:108DA40078ACEBF208EAF208E9F21296EF12505DA1
:108DB400F47003E5F0F4603E1296EF12505DFBAAE6
:108DC400F0EAFDE4FF128AA61296EF900002125018
:108DD4000CFC6F60141296EF12505DFBAAF0EAFDD2
:108DE40078D8ECF2E4FF128B0B78AEE22403F2188D
:078DF400E23400F280B4221A
:01991500222F
:106236002562782025627820256278000A3C523E45
:1062460025303262785B25303262785D3D2530320A
:1062560062780025627820256278002562782025FC
:1062660062782025627820256278200025316278C0
:1062760020253162782025316278200052656164DC
:106286004173696342797465203D3D20256278201B
:106296000A0063682562643A256264200063682503
:1062A60062643A2562642063682562643A25626402
:1062B600200063682562643A25626420636825626B
:1062C600643A2562642063682562643A2562642024
:1062D6000063682562643A25626420636825626407
:1062E6003A2562642063682562643A256264206305
:1062F600682562643A256264200063682562643A10
:106306002562642063682562643A256264206368B6
:106316002562643A2562642063682562643A2562D0
:10632600642063682562643A2562642000256264FD
:1063360020000A203D3D3D3D3D3D3D3D205041472D
:10634600452025623278203D3D3D3D3D3D3D3D3D6C
:106356003D3D3D3D0A002562327809000A0025319F
:10636600627820253162782063682531627820635F
:106376006825316278206368253162782063682554
:106386003162782000656E726563616C6C00656EC3
:10639600667265657A6500656E686D6972726F72A0
:1063A60000656E766D6972726F7200656E656E68F5
:1063B600616E636500656E626C616E6B00656E6230
:1063C6006F756E6400656E626C696E6B00646973EE
:1063D600726563616C6C00646973667265657A6583
:1063E60000646973686D6972726F720064697376AE
:1063F6006D6972726F7200646973656E68616E634F
:106406006500646973626C616E6B00646973626FC8
:10641600756E6400646973626C696E6B003D3D3D28
:106426003D3D20466F726D6174203A206368303DB1
:106436005B2562785D206368313D5B2562785D206F
:106446006368323D5B2562785D206368333D5B257A
:1064560062785D203D3D3D3D3D0A00256278202560
:1064660062782063682562783A2562782063682519
:1064760062783A2562782063682562783A256278E0
:106486002063682562783A25627820003333370026
:106496002600280029006275737700627573720002
:1064A600616D697800616D757465006164756D7004
:1064B60000616761696E00616C697665006275737B
:1064C600727400766D697800766D6978657272000F
:1064D60076617474720079766D697800696E697494
:1064E60000766465740076736574660073737472FF
:1064F600006873636F6D006D6F6465006469737324
:0F65060063726F6C6C00766572000102040810FE
:0498C5004100DA0084
:106C390008F208E4F2087400F2087427F208E4F292
:106C4900087400F208742CF208E4F2087400F208DF
:106C59007428F208E4F2087400F208742DF208E4CA
:106C6900F2087400F2742908F208E4F2082208F222
:106C790008E4F2087400F2087427F208E4F20874D0
:106C890000F208742CF208E4F2087400F20874287F
:106C9900F208E4F2087400F208742DF208E4F2082C
:106CA9007400F2742908F208E4F20822789FE2FBE2
:106CB90008E2FA08E2F92208F208E4F2087400F29C
:106CC900087427F208E4F2087400F208742BF20839
:106CD900E4F2087400F2742808F208E4F208227851
:106CE900AE74FFF2087462F2749808F208E4F208CC
:106CF900227400F208742EF208E4F2087400F274A7
:106D09002A08F208E4F208227400F208742EF20844
:106D1900E4F2087400F2742A08F208E4F208227412
:106D290000F208742CF208E4F2087400F2742908DD
:106D3900F208E4F2082278AE74FFF2087462F27481
:106D4900A308F208E4F2082278AE74FFF20874632B
:106D5900F2743308F208E4F208227400F274270886
:106D6900F208E4F208227400F2742708F208E4F247
:106D7900082208F20874FEF2087400F2745608F248
:106D89000874FEF20822EBF208EAF208E9F278AE9A
:106D990074FEF2082208F208E4F2082278AE74FFC1
:106DA900F2082208F208E4F2082208F208E4F208DC
:106DB9002208F208E4F2082208F208E4F20822E2C2
:106DC900FF78A974FEF2087400F208745BF27BFE86
:106DD9007A0079562208F208E4F2082208F208E457
:106DE900F20822EBF208EAF208E9F222900001E443
:106DF90075F00102508808F208E4F20822FFE22443
:106E09005FF8EFF222E25401FB7D2022252AF52AC0
:106E190008E254032278AAEFF27BFF7A627942787A
:106E2900A822E52890651093FFE527932F22125099
:0B6E3900E6024FF308F208E4F2082222
:108A3E0078AB126DEC08126CB7126E377002FF2213
:108A4E0078AE126CB7126E37B4200A78AE126CB7CD
:108A5E00126DF580EB78AE126CB71250E6C003C003
:108A6E0002C00178AB126CB7125106802178AE129B
:108A7E006CB7126E37FEB4200FE412503978AE1276
:108A8E006CB7126DF57F0122EE70037F012278AE76
:088A9E00126CB7126DF580D5D2
:0592E30078AB126DECF8
:1092E800E4F531F53278AB126CB7124FF36025789C
:1092F800ABE2FB0808E2F92401F218E2FA3400F2C2
:10930800124FF3FF3395E0FEEF2532F532EE35319B
:08931800F53180D1AE31AF3216
:01932000222A
:0F988C007F411200037F431200037F4B02000352
:1091E000E4F52A7856E25403126E1525E025E012C4
:1091F0006E15C454F0126E15C4333354C0252AF5CD
:109200002A7855E2B5070B785AE2B52A05E4786565
:10921000F22278657401F2785AE52AF27855EFF275
:01922000222B
:10915A00126DA57462F27436126C707400F2742780
:10916A00126CAE7400F27428126CE17400F2087486
:10917A0029F2125F9EAB28AD27E4FF128AA6126E6F
:10918A001EE527F208E528F2125C270528E528B52E
:02919A0029E3C7
:01919C0022B0
:10946C00126DA57462F27459126CF37400F27427C5
:10947C00126D0A7400F2087428F2125F9EAB28ADCC
:10948C0027E4FF128AA6126E1EE527F208E528F2E1
:03949C00025C2748
:10949F00126DA57462F27436126D217400F2742786
:1094AF00126D387400F27428126D4A7400F2087449
:1094BF0029F2125F9E78D8E529F2AB28AD27E4FF99
:0394CF00028B0B02
:10903B00E4F527F528F529F52AC003C002126DA522
:10904B007462F27461126D5C7400F27427126D68B5
:10905B007400F27428126D747400F27429126D9EF0
:10906B007400F208742AF2D002D003125F9E78D8F3
:0C907B00E52AF2AB29AD28E4FF028B0BC4
:10908700E4F527F528F529F52A126DA57462F2741F
:1090970072126D9E7400F27427126DAC7400F27434
:1090A70028126DAC7400F2087429F2125F9EAB2986
:1090B700AD28E4FF128AA68F2A7BFF7A627982782D
:0790C700A8E52AF2025C2774
:02752A0078A542
:10752C00126D8F7400F20874A5F27BFE7A0079A8B4
:10753C00128A3EE4FB7D1FFF12943878A8126CB7B8
:10754C0012847BEE6003027664EF24FE603D1460CF
:10755C00651470030275E614700302760E24046041
:10756C0003027664126CE8126D637400F208742CDA
:10757C00F278A5126CB7125F9EAB2CAD27E4FF120C
:10758C008B6FE5279065109302765C126D3F126D40
:10759C00637400F2742C126DB37400F27428126DC3
:1075AC00B37400F208742DF278A5126CB7127665DC
:1075BC00126E2B02765C126DA57462F274B8126CAA
:1075CC00397400F208742EF278A5126CB712766535
:1075DC00AB2EAD2912767B02765C126DA57462F22D
:1075EC0074D7126C39126CFA7400F208742FF2789A
:1075FC00A5126CB712769112767BFFE52A932F02B7
:10760C00765C126DA57463F2087400126C3A126CFD
:10761C00FA7400F2742F126DBA7400F2742B126D9E
:10762C00BA7400F2087430F278A5126CB712769125
:10763C00E4FF128B6FAB30AD2BE4FF128B6F126E2D
:10764C002BFFE529932FFFE52A932FFFE52B932F93
:08765C00FD7B01E4FF129438EC
:1076640022125F9EAB2CAD27E4FF128B6FAB2DADC6
:1076740028E4FF128B6F22E4FF128B6FE5289065DC
:107684001093FFE527932FFFE529932F22125F9E86
:10769400AB2CAD27E4FF128B6FAB2DAD28E4FF12AA
:1076A4008B6FAB2EAD29E4FF128B6FAB2FAD2A226B
:0F989B00E4FB7D1FFF1294387DFFE4FF0295BCB4
:0279820078A5E6
:10798400126D8F7400F20874A5F27BFE7A0079A858
:10799400128A3E78A8126CB712847BEE6003027AD6
:1079A40089EF24FE602F14605414606E1470030277
:1079B4007A4124046003027A89126CE8126D6F74B0
:1079C40000F208742CF278A5126CB7125F9EAB2CEF
:1079D400AD27027A84126D3F126D6F7400F2742C1D
:1079E400126DC17400F27428126DC17400F208742F
:1079F4002DF278A5126CB7127AA4027A84126DA5BE
:107A04007462F274B8126C777400F208742EF2780F
:107A1400A5126CB7127A8A027A84126DA57462F286
:107A240074D7126C77126D117400F208742FF27807
:107A3400A5126CB7127A8A127AB5027A84126DA5ED
:107A44007463F2087400126C78126D117400F2748D
:107A54002F126DDE7400F2742B126DDE7400F208C6
:107A64007430F278A5126CB7127AA4E4FF128D492F
:107A7400AB2EAD29127AB5E4FF128D49AB30AD2B94
:057A8400E4FF128D4932
:107A890022125F9EAB2CAD27E4FF128D49AB2DADC1
:107A990028E4FF128D49AB2EAD2922125F9EAB2C33
:107AA900AD27E4FF128D49AB2DAD2822E4FF128DDD
:067AB90049AB2FAD2A22AB
:1097F900126D517400F2087427F2125F9EAD27E4CE
:04980900FF0295BC09
:108FEC00E4F528C3E52894037480948050407BFFFB
:108FFC007A63793878A8E528F2125C27E4F527AB78
:10900C0027AD28E4FF128AA678A8EFF27BFF7A63DB
:10901C00795C125C270527E527540F70097BFF7AD2
:0E902C00637962125C27E52770D5052880B5B0
:01903A002213
:108DFB00C003C002C001126DA57463F27464126DDE
:108E0B00E57400F27427126DE57400F27428126D8C
:108E1B007B7400F27457126D877400F20874581249
:108E2B006D887400F2087459F2D001D002D003128D
:108E3B005F9EE527C454F0FFE528540F2FF527124A
:068E4B006DD7FF027395D4
:056A290078A5126DECE0
:106A2E00E4F52F126D97126C1378A8126CB71284BE
:106A3E007B8F30126D97126C1378A8126CB712926E
:106A4E00E38E278F287A63798B126BF7B5280AEEBF
:106A5E00B52706752980026AEB7A637994126BF773
:106A6E00B5280AEEB52706752940026AEB7A6379D6
:106A7E009D126BFEB52809EEB52705752920805DA0
:106A8E007A6379A7126BFEB52809EEB5270575292D
:106A9E0010804A7A6379B1126C05B52809EEB527D4
:106AAE000575290880377A6379BB126C05B52809FC
:106ABE00EEB5270575290480247A6379C3126C0C10
:106ACE00B52809EEB5270575290280117A6379CBB1
:106ADE00126C0CB5280DEEB52709752901752A0122
:106AEE00026B957A6379D3126C24B5280AEEB5271A
:106AFE0006752980026B787A6379DD126C24B528CD
:106B0E0009EEB5270575294080607A6379E7126C26
:106B1E002BB52809EEB52705752920804D7A6379A6
:106B2E00F2126C2BB52809EEB52705752910803A9F
:106B3E007A6379FD126C32B52809EEB527057529F1
:106B4E000880277A647908126C32B52809EEB527C9
:106B5E000575290480147BFF7A6479111292E3EF94
:106B6E00B5280CEEB52708752902E4F52A80187BA6
:106B7E00FF7A64791A1292E3EF65287003EE6527A7
:106B8E007066752901F52A126D977400F20874A5C6
:106B9E00F27BFE7A0079A8128A3EEF603278A81254
:106BAE006CB7124FF3B477DF90000112500CB4693A
:106BBE00D690000212500CB46ECDE92403F9E43ADB
:106BCE00FA12847B742B252FF8A607052F80B8E5C3
:106BDE002F6015242AF8E6FFC395305007AB2AAD77
:086BEE0029129505152F80E71F
:106BF600227BFF1292E3EF227BFF1292E3EF227BCE
:106C0600FF1292E3EF227BFF1292E3EF227400F26F
:106C16000874A5F27BFE7A0079A8128A3E227BFFD1
:106C26001292E3EF227BFF1292E3EF227BFF129296
:036C3600E3EF2267
:10985B00126D517400F2087427F2125F9EAF27024B
:02986B00980D56
:1094D200E4FF1287C4C0077F011287C4C0077F025E
:1094E2001287C4C0077F031287C478ABEFF218D08B
:1094F200E0F218D0E0F218D0E0F27BFF7A64792330
:03950200025C27E1
:0280810078A5E0
:10808300126D8F7400F20874A5F27BFE7A0079A852
:10809300128A3E78A8126CB712847BEE60030281C9
:1080A3006DEF24FE602A146051146076240360038C
:1080B30002816D126CE87400F27427126DFF740074
:1080C300F208742BF278A5126CB712818C028168C6
:1080D300126DA57462F274A3126CC07400F208747A
:1080E3002CF278A5126CB712818CE4FF12960DE581
:1080F3002CC454F0FBAD28028168126DA57462F2A2
:1081030074B8126CC0126D287400F208742DF278E2
:10811300A5126CB712816EE52DC454F0FBAD290294
:108123008168126DA57462F20874D7126CC1126D66
:10813300287400F2742D126DFF7400F2742A126E0B
:108143003D7400F208742EF278A5126CB712816E9A
:10815300E52DC454F0FBAD29E4FF12960DE52EC4C2
:0A81630054F0FBAD2AE4FF12960D64
:10816D0022125F9EE52BC454F0FBAD27E4FF12965F
:10817D000DE52CC454F0FBAD28E4FF12960D221230
:0B818D005F9EE52BC454F0FBAD2722E1
:028C910078A5C4
:108C9300126D8F128CDB126CB712847B8F27126DCF
:108CA30097128CDB126CB712847B8F287F04129986
:108CB3000F7F031299127F0512973578A5E2F90801
:108CC300E2FA08E278AEC9126DEDAB28AD277F0159
:088CD300128C317F05029403AD
:108CDB007400F20874A5F27BFE7A0079A8128A3E22
:038CEB0078A82244
:10922100752801E4F527C3E52794047480948050E0
:109231001C745B2527F8E230E40F74562527F8E209
:10924100FDE4FF1295BCE4F528052780D9E52860E7
:109251000FE4FB7D1FFF1294387DFFE4FF1295BCE4
:0192610022EA
:107ABF00C003C002C001126DA57464F27461126E2E
:107ACF003D7400F2087428F208E4F2087400F274AE
:107ADF0029126D7B7400F208745B126D887400F2CA
:107AEF00087457126D887400F208745C126D8874F4
:107AFF0000F2087458126D887400F208745D126DEC
:107B0F00887400F2087459126D887400F208745E5C
:107B1F00F2D001D002D003125F9EE528C454F0FFCB
:107B2F007852E2FEC433333354802FFFE529540FCC
:107B3F002F7864F2785BE27856126E06785CE27802
:107B4F0057126E06785DE2FF7858126E07785EE284
:107B5F00FF7859126E07785F126E0EE4FF1293953D
:107B6F007860126E0E7F011293957861126E0E7F00
:107B7F00021293957862126E0E7F031293957BFE1D
:107B8F007A00795F127D2A7864126DC81253F978E2
:107B9F0064E2FF126DD7127395E4F527C3E52794BE
:107BAF0004748094805011745B2527F8126E0EAF09
:107BBF0027129505052780E4E4F510F511F51275E8
:107BCF0013057F011298EE7864E2FF1291E07F08AF
:107BDF00129752E4FF12976E1291147BFE7A00797E
:0B7BEF005B1257FD7864E29000DAF0B2
:017BFA002268
:1089D3007F031287C4EFFD3395E0FCED64024C7016
:1089E30002C3227852E2B50702D3227852EFF2E2B1
:1089F300C43333335480FF7855E2547F4FF27F0101
:108A03001294037852E2FF12872D7BFE7A00795F7E
:108A1300127D2A7855126DC81253F97855E2FF1268
:108A23006DD7127395E4FF12976E1291147BFE7A41
:0A8A330000795B1257FD1295E5D3A0
:018A3D002216
:1097CD00126DA57463F2087433126D887400F2087B
:0697DD007453F2025F9ECE
:059905007F0102940344
:10919D00E478A5F27F4D1200039064921291D6A34C
:1091AD001291D6A3A3E493FF1200037F4E12000386
:1091BD00789AE264017F3370071200037F378005D0
:0891CD001200037F35120003BC
:0B91D50022E493FF120003906492223A
:02651500789F6D
:10651700126D8F7400F208749FF27BFE7A0079A2E5
:10652700128A3E78A2126CB71292E38E258F267AD2
:1065370064799612675EB5260DEEB52509126CB51E
:1065470012915A02675B7A64799812675EB5260DD5
:10655700EEB52509126CB512946C02675B7A647903
:106567009A126765B5260DEEB52509126CB512941A
:106577009F02675B7A64799C126765B5260DEEB555
:106587002509126CB512903B02675B7A6479A112F8
:10659700676CB5260DEEB52509126CB5129087020A
:1065A700675B7A6479A612676CB5260DEEB5250987
:1065B700126CB512752A02675B7A6479AB1267733E
:1065C700B5260AEEB5250612989B02675B7A6479B1
:1065D700B1126773B5260AEEB525061271DD02679B
:1065E7005B7A6479B712677AB5260DEEB52509127D
:1065F7006CB512798202675B7A6479BD12677AB5E6
:10660700260DEEB52509126CB51297F902675B7A6C
:106617006479C3126781B5260AEEB52506128FEC99
:1066270002675B7A6479C9126781B52615EEB525CD
:10663700117F40129321126CB5128DFB12988C02B8
:10664700675B7A6479CE126788B5260DEEB52509A2
:10665700126CB5128DFB02675B7A6479D612678874
:10666700B5260DEEB52509126CB5126A2902675BCE
:106677007A6479DC12678FB52610EEB5250C12986F
:106687008C126CB512985B02675B7A6479E21267C9
:106697008FB5260AEEB52506128BD002675B7A64A2
:1066A70079E7126796B5260AEEB525061294D20247
:1066B700675B7A6479EC126796B5260DEEB5250906
:1066C700126CB512808102675B7A6479F212679D5A
:1066D700B5260DEEB52509126CB5128C9102675BD4
:1066E7007A6479F712679DB52624EEB525201298AE
:1066F7008C126CB5127ABF1292211295E5E4FF1243
:1067070098EEE4F512F513F51075110580467A64D5
:1067170079FD1267A4B5260FEEB5250B12988C12DA
:106727006CB51297CD802D7A6579021267A4B526CC
:106737000CEEB5250812988C12990580177BFF7A05
:1067470065790C1292E3EFB5260AEEB52506129885
:066757008C12919D7F01F0
:10675D00227BFF1292E3EF227BFF1292E3EF227B6B
:10676D00FF1292E3EF227BFF1292E3EF227BFF12E7
:10677D0092E3EF227BFF1292E3EF227BFF1292E373
:10678D00EF227BFF1292E3EF227BFF1292E3EF22C7
:0E679D007BFF1292E3EF227BFF1292E3EF22CA
:1097A0000D0A0044656275672050726F6772616DC3
:0797B000203E00504354006D
:108EF80012987DEF640170497895E270441297B733
:108F08008F25300003120003E52524F8601F24FB99
:108F180070217894E2246BF8E4F2789504F27BFEF1
:108F28007A00796B1295363000170298E57894E24A
:108F380014F2227894E2246BF8E525F27894E2049E
:018F4800F236
:018F49002205
:0998E5007BFF7A9779A0029592AD
:0A93CD00789FEBF208EAF208E9F2DB
:1093D700789FE2FB08E2FA08E2F9124FF3601C7883
:1093E7009FE2FB0808E2F92401F218E2FA3400F2DE
:0B93F700124FF3F525FF12000380D594
:019402002247
:1097E3003000097BFF7A9779A31293CDE47894F242
:0697F30008F2786BF2227F
:0998EE00EF6003C20122D2012245
:0B98D000C200C201C221E47899F2221C
:10953600789FEBF208EAF208E9F2200020789FE231
:10954600FB08E2FA08E2F8AC02AD037BFF7A9779F2
:0E955600B31252F9EF3395E04F7002D20022AB
:0790CE0078A5EEF208EFF2B5
:1090D50078A6E2700218E26035E478A7F208F27823
:1090E500A7E2FE08E2FFE4FCFD7BD8FAF9F8D3120B
:1090F50050D5400D78A8E22401F218E23400F28040
:0E910500DE78A6E224FFF218E234FFF280C208
:019113002239
:10895C00E4789CF20874C8F2087464F2129712124C
:10896C0098D0129915128BD01297E3128EF8789535
:10897C00E2640170097BFE7A00796B1265157895BB
:10898C00E2640170031297E33021071289D350027D
:10899C00C22112987DEF6008789DE2751200F513E4
:1089AC00E51364014512700CF512F513789EE2750F
:1089BC001000F511E5116401451070AF12935D754F
:0789CC00100075111480A4D6
:10971200E4F5B8F5A8758780F5D0758921F58875C7
:109722009852F5B175B21012986D12965CD299D218
:03973200AF002263
:100026001010FFFFFFFFFFFFFFFFFFFFFFFFFFFFB8
:10003600FFFFFFFFFFFFFFFFFFFFFFFFFFFFFFFFCA
:10004600FFFFFFFFFFFFFFFFFFFFFFFFFFFFFFFFBA
:10005600FFFFFFFFFFFFFFFFFFFFFFFFFFFFFFFFAA
:10006600FFFFFFFFFFFFFFFFFFFFFFFFFFFFFFFF9A
:10007600FFFFFFFFFFFFFFFFFFFFFFFFFFFFFFFF8A
:10008600FFFFFFFFFFFFFFFFFFFFFFFFFFFFFFFF7A
:10009600FFFFFFFFFFFFFFFFFFFFFFFFFFFFFFFF6A
:1000A600FFFFFFFFFFFFFFFFFFFFFFFFFFFFFFFF5A
:1000B600FFFFFFFFFFFFFFFFFFFFFFFFFFFFFFFF4A
:1000C600FFFFFFFFFFFFFFFFFFFFFFFFFFFFFFFF3A
:1000D600FFFFFFFFFFFFFFFFFFFFFFFFFFFFFFFF2A
:1000E600FFFFFFFFFFFFFFFFFFFFFFFFFFFFFFFF1A
:1000F600FFFFFFFFFFFFFFFFFFFFFFFFFFFFFFFF0A
:10010600FFFFFFFFFFFFFFFFFFFFFFFFFFFFFFFFF9
:10011600FFFFFFFFFFFFFFFFFFFFFFFFFFFFFFFFE9
:10012600FFFF1010FFFFFFFFFFFFFFFFFFFFFFFFB7
:10013600FFFFFFFFFFFFFFFFFFFFFFFFFFFFFFFFC9
:10014600FFFFFFFFFFFFFFFFFFFFFFFFFFFFFFFFB9
:10015600FFFFFFFFFFFFFFFFFFFFFFFFFFFFFFFFA9
:10016600FFFFFFFFFFFFFFFFFFFFFFFFFFFFFFFF99
:10017600FFFFFFFFFFFFFFFFFFFFFFFFFFFFFFFF89
:10018600FFFFFFFFFFFFFFFFFFFFFFFFFFFFFFFF79
:10019600FFFFFFFFFFFFFFFFFFFFFFFFFFFFFFFF69
:1001A600FFFFFFFFFFFFFFFFFFFFFFFFFFFFFFFF59
:1001B600FFFFFFFFFFFFFFFFFFFFFFFFFFFFFFFF49
:1001C600FFFFFFFFFFFFFFFFFFFFFFFFFFFFFFFF39
:1001D600FFFFFFFFFFFFFFFFFFFFFFFFFFFFFFFF29
:1001E600FFFFFFFFFFFFFFFFFFFFFFFFFFFFFFFF19
:1001F600FFFFFFFFFFFFFFFFFFFFFFFFFFFFFFFF09
:10020600FFFFFFFFFFFFFFFFFFFFFFFFFFFFFFFFF8
:10021600FFFFFFFFFFFFFFFFFFFFFFFFFFFFFFFFE8
:10022600FFFFFFFF1010FFFFFFFFFFFFFFFFFFFFB6
:10023600FFFFFFFFFFFFFFFFFFFFFFFFFFFFFFFFC8
:10024600FFFFFFFFFFFFFFFFFFFFFFFFFFFFFFFFB8
:10025600FFFFFFFFFFFFFFFFFFFFFFFFFFFFFFFFA8
:10026600FFFFFFFFFFFFFFFFFFFFFFFFFFFFFFFF98
:10027600FFFFFFFFFFFFFFFFFFFFFFFFFFFFFFFF88
:10028600FFFFFFFFFFFFFFFFFFFFFFFFFFFFFFFF78
:10029600FFFFFFFFFFFFFFFFFFFFFFFFFFFFFFFF68
:1002A600FFFFFFFFFFFFFFFFFFFFFFFFFFFFFFFF58
:1002B600FFFFFFFFFFFFFFFFFFFFFFFFFFFFFFFF48
:1002C600FFFFFFFFFFFFFFFFFFFFFFFFFFFFFFFF38
:1002D600FFFFFFFFFFFFFFFFFFFFFFFFFFFFFFFF28
:1002E600FFFFFFFFFFFFFFFFFFFFFFFFFFFFFFFF18
:1002F600FFFFFFFFFFFFFFFFFFFFFFFFFFFFFFFF08
:10030600FFFFFFFFFFFFFFFFFFFFFFFFFFFFFFFFF7
:10031600FFFFFFFFFFFFFFFFFFFFFFFFFFFFFFFFE7
:10032600FFFFFFFFFFFF1010FFFFFFFFFFFFFFFFB5
:10033600FFFFFFFFFFFFFFFFFFFFFFFFFFFFFFFFC7
:10034600FFFFFFFFFFFFFFFFFFFFFFFFFFFFFFFFB7
:10035600FFFFFFFFFFFFFFFFFFFFFFFFFFFFFFFFA7
:10036600FFFFFFFFFFFFFFFFFFFFFFFFFFFFFFFF97
:10037600FFFFFFFFFFFFFFFFFFFFFFFFFFFFFFFF87
:10038600FFFFFFFFFFFFFFFFFFFFFFFFFFFFFFFF77
:10039600FFFFFFFFFFFFFFFFFFFFFFFFFFFFFFFF67
:1003A600FFFFFFFFFFFFFFFFFFFFFFFFFFFFFFFF57
:1003B600FFFFFFFFFFFFFFFFFFFFFFFFFFFFFFFF47
:1003C600FFFFFFFFFFFFFFFFFFFFFFFFFFFFFFFF37
:1003D600FFFFFFFFFFFFFFFFFFFFFFFFFFFFFFFF27
:1003E600FFFFFFFFFFFFFFFFFFFFFFFFFFFFFFFF17
:1003F600FFFFFFFFFFFFFFFFFFFFFFFFFFFFFFFF07
:10040600FFFFFFFFFFFFFFFFFFFFFFFFFFFFFFFFF6
:10041600FFFFFFFFFFFFFFFFFFFFFFFFFFFFFFFFE6
:10042600FFFFFFFFFFFFFFFF1010FFFFFFFFFFFFB4
:10043600FFFFFFFFFFFFFFFFFFFFFFFFFFFFFFFFC6
:10044600FFFFFFFFFFFFFFFFFFFFFFFFFFFFFFFFB6
:10045600FFFFFFFFFFFFFFFFFFFFFFFFFFFFFFFFA6
:10046600FFFFFFFFFFFFFFFFFFFFFFFFFFFFFFFF96
:10047600FFFFFFFFFFFFFFFFFFFFFFFFFFFFFFFF86
:10048600FFFFFFFFFFFFFFFFFFFFFFFFFFFFFFFF76
:10049600FFFFFFFFFFFFFFFFFFFFFFFFFFFFFFFF66
:1004A600FFFFFFFFFFFFFFFFFFFFFFFFFFFFFFFF56
:1004B600FFFFFFFFFFFFFFFFFFFFFFFFFFFFFFFF46
:1004C600FFFFFFFFFFFFFFFFFFFFFFFFFFFFFFFF36
:1004D600FFFFFFFFFFFFFFFFFFFFFFFFFFFFFFFF26
:1004E600FFFFFFFFFFFFFFFFFFFFFFFFFFFFFFFF16
:1004F600FFFFFFFFFFFFFFFFFFFFFFFFFFFFFFFF06
:10050600FFFFFFFFFFFFFFFFFFFFFFFFFFFFFFFFF5
:10051600FFFFFFFFFFFFFFFFFFFFFFFFFFFFFFFFE5
:10052600FFFFFFFFFFFFFFFFFFFF1010FFFFFFFFB3
:10053600FFFF00000000FFFFFFFFFFFFFFFFFFFFC1
:10054600FF000000000000FFFFFFFFFFFFFFFFFFAF
:100556000000020202020000FFFFFFFFFFFFFFFF95
:100566000000020202020000FFFFFFFFFFFFFF0084
:10057600000202000002020000FFFFFFFFFFFF0073
:10058600000202000002020000FFFFFFFFFF000062
:1005960002020000000002020000FFFFFFFF000051
:1005A600020200FFFF0002020000FFFFFF00000240
:1005B600020000FFFF000002020000FFFF00000231
:1005C6000200000000000002020000FF000002021C
:1005D60002020202020202020202000000000202FD
:1005E60002020202020202020202000000000202ED
:1005F60000000000000000000202000000000202ED
:100606000000FFFFFFFF00000202000000000202E0
:100616000000FFFFFFFF00000202000000000000D4
:100626000000FFFFFFFF00000000000010100000A8
:10063600000000000000000000000000FFFF0002B4
:1006460002020202020202020202000000FF00028F
:10065600020202020202020202020200000000007E
:100666000002020000000000020202020000FF0079
:1006760000020200FFFFFF00000202020000FF006E
:1006860000020200FFFFFF00000202020000FF005E
:1006960000020200000000000202020000FFFF004C
:1006A600000202020202020202020000FFFFFF0035
:1006B600000202020202020202020000FFFFFF0025
:1006C60000020200000000000202020000FFFF001C
:1006D60000020200FFFFFF00000202020000FF000E
:1006E60000020200FFFFFF000002020200000000FD
:1006F60000020200000000000202020200000002E6
:1007060002020202020202020202020000000002CB
:1007160002020202020202020202000000FF0000C0
:10072600000000000000000000000000FFFF1010A5
:10073600FFFFFF00000000000000000000FFFFFFB9
:10074600FFFF00000202020202020202000000FF96
:10075600FF00000202020202020202020200000080
:100766000000000202000000000000020202000079
:1007760000000202020000FFFFFF0000020200006C
:10078600000002020000FFFFFFFFFF000202000060
:10079600000002020000FFFFFFFFFFFF0000000055
:1007A600000002020000FFFFFFFFFFFFFFFFFFFF49
:1007B600000002020000FFFFFFFFFFFFFFFFFFFF39
:1007C600000002020000FFFFFFFFFF000000000024
:1007D600000002020000FFFFFFFFFF000202000010
:1007E60000000202000000FFFFFF000002020000FE
:1007F60000000202020000000000000202020000E7
:10080600FF000002020202020202020202000000CF
:10081600FFFF00000202020202020202000000FFC5
:10082600FFFFFF0000000000000000000000FFFFC7
:100836001010000000000000000000000000FFFF94
:10084600FFFF00000202020202020202020000FF93
:10085600FFFF000002020202020202020202000080
:10086600FFFF00000202000000000002020200007A
:10087600FFFF000002020000FFFF0000020200006E
:10088600FFFF000002020000FFFF0000020200005E
:10089600FFFF00000202000000000002020200004A
:1008A600FFFF00000202020202020202020000FF33
:1008B600FFFF00000202020202020202000000FF25
:1008C600FFFF000002020000020202000000FFFF1C
:1008D600FFFF000002020000000202020000FFFF0C
:1008E600FFFF00000202000000000202020000FFFB
:1008F600FFFF000002020000FF00000202020000EB
:10090600FFFF000002020000FFFF000002020200DB
:1009160000FF000002020000FFFFFF0000020202CB
:1009260000FF000000000000FFFFFFFF00000000C6
:1009360000FF101000000000FFFFFFFFFFFFFFFF9A
:10094600000000000000000000FFFFFFFFFFFF00A7
:100956000000000000000C0C0000FFFFFFFF00007D
:100966000C0C000000000C0C0C0000000000000C39
:100976000C0C000000000C0C0C0C000000000C0C11
:100986000C0C000000000C0C0C0C0C0C0C0C0C0CD1
:100996000C0C000000000C0C0C0C0C0C0C0C0C0CC1
:1009A6000C0C000000000C0C0C000C0C0C0C000CC9
:1009B6000C0C000000000C0C0C00000C0C00000CD1
:1009C6000C0C000000000C0C0C0000000000000CD9
:1009D6000C0C000000000C0C0C0000000000000CC9
:1009E6000C0C000000000C0C0C0000FFFF00000CBB
:1009F6000C0C000000000C0C0C0000FFFF00000CAB
:100A06000C0C000000000C0C0C0000FFFF00000C9A
:100A16000C0C000000000C0C0C0000FFFF00000C8A
:100A26000C0C000000000000000000FFFF000000AA
:100A3600000000001010FF00000000000000000091
:100A46000000000000FFFF00000202020202020294
:100A56000202020000FFFF0000020202020202027E
:100A66000202020000FFFF00000000000000020278
:100A76000200000000FFFFFFFFFFFFFF0000020271
:100A8600020000FFFFFFFFFFFFFFFFFF0000020263
:100A9600020000FFFFFFFFFFFFFFFFFF0000020253
:100AA600020000FFFFFFFFFFFFFFFFFF0000020243
:100AB600020000FFFFFFFFFFFFFFFFFF0000020233
:100AC600020000FFFFFFFFFFFFFFFFFF0000020223
:100AD600020000FFFFFFFF00000000FF000002020F
:100AE600020000FFFFFFFF000202000000000202FA
:100AF600020000FFFFFFFF000202020000020202E6
:100B0600020000FFFFFFFF000002020202020202D3
:100B1600000000FFFFFFFFFF0000020202020200CA
:100B26000000FFFFFFFFFFFFFF00000000000000C6
:100B360000FFFFFFFFFF1010FFFFFFFFFFFFFFFF9C
:100B4600FFFFFFFFFFFFFFFFFFFFFFFFFF000000AC
:100B560000000000FFFFFFFFFFFFFFFF0000010195
:100B660001010000FFFFFFFFFFFFFF000001010181
:100B760001010000FFFFFFFFFFFF0000010101016F
:100B8600010000FFFFFFFFFFFF000001010101015F
:100B96000000000000000000000001010101010149
:100BA6000101010101010000000101010101010132
:100BB6000101010101010000000101010101010122
:100BC6000101010101010000000001010101010113
:100BD6000101010101010000FF0000010101010105
:100BE6000000000000000000FFFF000001010101FD
:100BF600010000FFFFFFFFFFFFFFFF0000010101F3
:100C060001010000FFFFFFFFFFFFFFFF00000101E2
:100C160001010000FFFFFFFFFFFFFFFFFF000000D5
:100C260000000000FFFFFFFFFFFFFFFFFFFFFFFFCA
:100C3600FFFFFFFFFFFFFFFF1010FFFFFFFFFFFF9C
:100C4600FFFFFFFFFFFFFFFFFFFFFFFFFFFF0000AC
:100C56000000000000FFFFFFFFFFFFFFFFFF000097
:100C6600010101010000FFFFFFFFFFFFFFFF000082
:100C760001010101010000FFFFFFFFFFFFFFFF0071
:100C86000001010101010000FFFF0000000000005B
:100C9600000001010101010000FF00000101010146
:100CA6000101010101010101000000000101010132
:100CB6000101010101010101010000000101010121
:100CC6000101010101010101010000000000000015
:100CD600000001010101010000FF0000000000000A
:100CE600000001010101010000FFFFFFFFFFFF00FF
:100CF6000001010101010000FFFFFFFFFFFF0000EF
:100D060001010101010000FFFFFFFFFFFFFF0000DF
:100D1600010101010000FFFFFFFFFFFFFFFF0000D1
:100D26000000000000FFFFFFFFFFFFFFFFFFFFFFC8
:100D3600FFFFFFFFFFFFFFFFFFFF1010FFFFFFFF9B
:100D46000000000000000000FFFFFFFFFFFFFFFFA5
:100D56000000010101010000FFFFFFFFFFFFFFFF91
:100D66000000010101010000FFFFFFFFFFFFFFFF81
:100D76000000010101010000FFFFFFFFFFFFFFFF71
:100D86000000010101010000FFFFFFFF000000005D
:100D96000000010101010000000000000000010147
:100DA6000000010101010000010100000000010135
:100DB6000100010101010001010100000000010123
:100DC6000101010101010101010100000000010111
:100DD600010101010101010101010000FF00000103
:100DE6000101010101010101010000FFFFFF0000F7
:100DF60001010101010101010000FFFFFFFFFF00EA
:100E0600000101010101010000FFFFFFFFFFFFFFDD
:100E16000000010101010000FFFFFFFFFFFFFFFFD0
:100E2600FF000001010000FFFFFFFFFFFFFFFFFFC4
:100E3600FFFF00000000FFFFFFFFFFFF1010FFFF96
:100E4600FFFFFFFFFFFF0000000000000000FFFFA4
:100E5600FFFFFFFFFF000002020202020000FFFF89
:100E6600FFFFFFFF00000202020202020000FFFF76
:100E7600FFFFFF0000020202000002020000000065
:100E86000000000002020200000002020000000052
:100E96000202020202020200FF000202000000003B
:100EA6000202020202020200FF000202000000002B
:100EB6000202000000020200FF0002020000000021
:100EC600020200FF00020200FF0002020000000012
:100ED6000202000000020200FF0002020000000001
:100EE6000202020202020200FF00020200000000EB
:100EF60002020202020202000000020200000000DA
:100F06000000000000020202000002020000FFFFD3
:100F1600FFFFFFFF00000202020202020000FFFFC5
:100F2600FFFFFFFFFF000002020202020000FFFFB8
:100F3600FFFFFFFFFFFF0000000000000000101091
:100F46000000000000FFFFFFFFFFFF0000000000A1
:100F56000004040400FFFFFFFFFFFF000404040079
:100F66000004040400FFFFFFFFFFFF000404040069
:100F76000004040400FFFFFFFFFFFF000404040059
:100F86000004040400FFFFFFFFFFFF000404040049
:100F9600000404040000FFFFFFFF00000404040037
:100FA600000404040400FFFFFFFF0004040404001F
:100FB600000004040400FFFFFFFF00040404000017
:100FC60000000404040000FFFF0000040404000005
:100FD600FF0000040404000000000404040000FFF5
:100FE600FFFF000004040400000404040000FFFFE7
:100FF600FFFF000000040400000404000000FFFFDF
:10100600FFFFFF00000404040404040000FFFFFFC8
:10101600FFFFFFFF0000040404040000FFFFFFFFC2
:10102600FFFFFFFFFF00000404000000FFFFFFFFBB
:10103600FFFFFFFFFFFF0000000000FFFFFFFFFFB5
:10104600101000000000000000FFFFFFFFFFFFFF81
:10105600FFFF00000404040000FFFFFFFFFFFFFF87
:10106600FFFF00000404040000FFFFFFFFFFFFFF77
:10107600FFFF00000404040000FFFFFFFFFFFFFF67
:10108600FFFF00000404040000FFFFFFFFFFFFFF57
:10109600FFFF00000404040000FFFFFFFFFFFFFF47
:1010A600FFFF00000404040000FFFFFFFFFFFFFF37
:1010B600FFFF00000404040000FFFFFFFFFFFFFF27
:1010C600FFFF00000404040000FFFFFFFFFFFFFF17
:1010D600FFFF00000404040000FFFFFFFFFF000005
:1010E600000000000404040000FFFFFFFFFF0000F3
:1010F600000000000404040000FFFFFFFF000004DE
:1011060000000000040404000000000000000404C5
:101116000000000004040404040404040404040499
:101126000000000004040404040404040404040489
:1011360000000000000000000000000000000000A9
:1011460000001010FFFFFFFFFFFFFFFFFFFFFFFF85
:10115600FFFFFFFFFFFFFFFFFFFFFFFFFFFFFFFF99
:10116600FFFFFFFFFFFFFFFFFFFFFFFFFFFFFFFF89
:10117600FFFFFFFFFFFFFFFF00000000000000FF72
:10118600FFFFFFFFFFFFFF00000004040400000054
:10119600FFFFFFFFFFFF0000040404040404040033
:1011A60000FFFFFFFF000004040400000004040425
:1011B6000000FFFF00000004040000FF000004041C
:1011C600000000FF00000404040000FF0000040407
:1011D600040000FF00000404040000FF00000404F3
:1011E600040000FF00000404040000FF00000404E3
:1011F600040000FF00000004040000FF00000404D7
:10120600000000FFFF0000040404000000040404C2
:101216000000FFFFFFFF00000404040404040400B0
:1012260000FFFFFFFFFFFF000000040404000000B2
:10123600FFFFFFFFFFFFFFFF00000000000000FFB1
:10124600FFFFFFFF1010FFFFFFFFFFFFFFFFFFFF86
:10125600FFFFFFFFFFFFFFFFFFFFFFFFFFFFFFFF98
:10126600FFFFFFFFFFFFFFFFFFFFFFFFFFFFFFFF88
:10127600FFFFFFFFFFFFFFFFFFFF00000000000072
:101286000000FFFFFFFFFFFF00000000040404044E
:10129600000000FFFFFFFF00000004040404040434
:1012A60004040000FFFFFF00000404040000000027
:1012B6000404040000FFFF00000404040000FF0013
:1012C6000000000000FFFF0000000404040400000A
:1012D6000000FFFFFFFFFFFFFF00000404040404FB
:1012E600040000FFFFFFFFFFFFFF000000000404F3
:1012F60004040000FFFFFF0000000000FFFF0000E5
:101306000404040000FFFF000004040400000000C1
:101316000404040000FFFF000000040404040404A5
:1013260004040000FFFFFFFFFF00000004040404A4
:10133600000000FFFFFFFFFFFFFFFF0000000000AF
:101346000000FFFFFFFF101004040FFFFFFFFFFF69
:10135600FFFF0404FFFFFFFF040404FFFFFFFFFF7E
:10136600FFFF0404FFFFFFFF0404040FFFFFFFFF5E
:10137600FFFF0404FFFFFFFF040404040FFFFFFF49
:10138600FFFF0404FFFFFFFF0404FF0404FFFFFF49
:10139600FFFF0404FFFFFF040404FF04040FFFFF24
:1013A600FFFF0404FFFFFF040404FFFF0404FFFF24
:1013B600FFFF0404FFFFFF040404FFFF04040FFF04
:1013C600FFFF0404FFFFFF040404FFFFFF04040FF4
:1013D600FFFF0404FFFFFF040404FFFFFFFF0404F4
:1013E600FFFF0404FFFFFF040404FFFFFFFF0404E4
:1013F6000FFF0404FFFFFF040404FFFFFFFFFF04C9
:1014060004FF0404FFFFFF040404FFFFFFFFFFFFC8
:1014160004040404FFFFFFFF0404FFFFFFFFFFFFB8
:1014260004040404FFFFFFFF0404FFFFFFFFFFFFA8
:10143600FF040404FFFFFFFF0404FFFFFFFFFFFF9D
:10144600FF040404FFFFFFFF1010FFFFFF04040466
:101456000404040FFFFFFFFFFFFFFFFF0404040463
:1014660004040404040FFFFFFFFFFF040404FFFF4E
:10147600FFFFFF0404040FFFFFFF04040FFFFFFF3D
:10148600FFFFFFFF040404FFFFFF0404FFFFFFFF4D
:10149600FFFFFFFFFF04040FFFFF040FFFFFFFFF27
:1014A600FFFFFFFFFF040404FFFF04FFFFFFFFFF32
:1014B600FFFFFFFFFFFF0404FFFF04FFFFFFFFFF27
:1014C600FFFFFFFFFFFF0404FFFF04FFFFFFFFFF17
:1014D600FFFFFFFFFFFF0404FFFF04FFFFFFFFFF07
:1014E600FFFFFFFFFFFF0404FFFF040FFFFFFFFFE7
:1014F600FFFFFFFFFF040404FFFF0404FFFFFFFFDD
:10150600FFFFFFFFFF04040FFFFF04040FFFFFFFB1
:10151600FFFFFFFF040404FFFFFFFF040404FFFFB7
:10152600FFFFFF0404040FFFFFFFFFFF0404040492
:1015360004040404040FFFFFFFFFFFFFFFFF040482
:101546000404040FFFFFFFFFFFFF1010FFFFFFFF64
:10155600FF04040FFFFFFFFFFFFFFFFFFFFFFFFF7B
:10156600FF040404FFFFFFFFFFFFFFFFFFFFFFFF76
:10157600FFFF0404FFFFFFFFFFFFFFFFFFFFFFFF6B
:10158600FFFF04040FFFFFFFFFFFFFFFFFFFFFFF4B
:10159600FFFFFF0404FFFFFFFFFFFFFFFFFFFFFF4B
:1015A600FFFFFF04040FFFFFFFFFFFFFFFFFFFFF2B
:1015B600FFFFFF040404FFFFFFFFFF04FFFFFFFF21
:1015C600FFFFFFFF0404FFFFFFFFFF04FFFFFFFF16
:1015D600FFFFFFFF04040FFFFFFFFF04FFFFFFFFF6
:1015E600FFFFFFFF040404FFFFFF0404FFFFFFFFEC
:1015F600FFFFFFFFFF04040FFFFF0404FFFFFFFFD1
:10160600FFFFFFFFFF04040FFFFF0404FFFFFFFFC0
:10161600FFFFFFFFFFFF0404FF04040FFFFFFFFFB0
:10162600FFFFFFFFFFFF04040F0404FFFFFFFFFFA0
:10163600FFFFFFFFFFFF0404040404FFFFFFFFFF9B
:10164600FFFFFFFFFFFFFF0404040FFF1010FFFF63
:101656000404FFFF04040FFFFFFF04040404FF0457
:101666000404FFFF04040FFFFFFF04040404FF0447
:10167600040FFFFF04040FFFFFFF04040FFFFF0426
:1016860004FFFFFF04040FFFFFFF04040FFF040421
:101696000FFFFFFF04040FFFFFFF04040FFF040406
:1016A6000FFFFFFF04040FFFFFFF04040FFF0404F6
:1016B600FFFFFFFF04040FFFFFFF04040FFF040FEB
:1016C600FFFFFFFF04040FFFFFFF04040FFF04FFEB
:1016D600FFFFFFFF04040FFFFFFF04040FFF04FFDB
:1016E600FFFFFFFF04040FFFFFFF04040FFF0FFFC0
:1016F600FFFFFFFF04040FFFFFFF04040FFFFFFFC0
:10170600FFFFFFFF04040FFFFFFF04040FFFFFFFAF
:10171600FFFFFFFF04040FFFFFFF04040FFFFFFF9F
:10172600FFFFFFFF04040FFFFFFF04040FFFFFFF8F
:10173600FFFFFFFF04040FFFFFFF04040404FFFF85
:10174600FFFFFFFF04040FFFFFFF04040404101053
:1017560004040404040FFFFFFFFFFFFF0404040456
:1017660004040404040404FFFFFFFFFF040404044C
:10177600FFFFFFFFFF040404FFFFFFFF04040FFF4A
:10178600FFFFFFFFFFFF04040FFFFFFF04040FFF2F
:10179600FFFFFFFFFFFF040404FFFFFF04040FFF2A
:1017A600FFFFFFFFFFFFFF0404FFFFFF04040FFF1F
:1017B600FFFFFFFFFFFFFF04040FFFFF04040FFFFF
:1017C600FFFFFFFFFFFFFF04040FFFFF04040404F5
:1017D600FFFFFFFFFFFFFF04040FFFFF04040404E5
:1017E600FFFFFFFFFFFFFF04040FFFFF04040FFFCF
:1017F600FFFFFFFFFFFFFF0404FFFFFF04040FFFCF
:10180600FFFFFFFFFFFF040404FFFFFF04040FFFB9
:10181600FFFFFFFFFFFF04040FFFFFFF04040FFF9E
:10182600FFFFFFFFFF040404FFFFFFFF04040FFF99
:1018360004040404040404FFFFFFFFFF040404047B
:1018460004040404040FFFFFFFFFFFFF0404040465
:10185600101004040404040404040FFFFFFFFFFF38
:10186600FF0404040404040404040FFFFFFFFF0440
:101876000404FFFFFFFFFFFFFFFFFFFFFFFF04045E
:10188600040FFFFFFFFFFFFFFFFFFFFFFF0404043E
:10189600FFFFFFFFFFFFFFFFFFFFFFFFFF04040F38
:1018A600FFFFFFFFFFFFFFFFFFFFFFFFFF0404FF38
:1018B600FFFFFFFFFFFFFFFFFFFFFFFF04040FFF18
:1018C600FFFF040404040404040FFFFF04040FFFD5
:1018D600FFFF040404040404040FFFFF04040FFFC5
:1018E600FFFFFFFFFFFFFFFFFFFFFFFF04040FFFE8
:1018F600FFFFFFFFFFFFFFFFFFFFFFFFFF0404FFE8
:10190600FFFFFFFFFFFFFFFFFFFFFFFFFF04040FC7
:10191600FFFFFFFFFFFFFFFFFFFFFFFFFF040404C2
:10192600FFFFFFFFFFFFFFFFFFFFFFFFFFFF0404B7
:10193600040F04040404040404040FFFFFFFFF045F
:10194600040404040404040404040FFFFFFFFFFF5F
:10195600FF0410100404040404FFFFFFFFFFFFFF51
:10196600FFFFFFFF0404040404040FFFFFFFFFFF53
:10197600FFFFFFFFFFFFFFFF0404040FFFFFFFFF52
:10198600FFFFFFFFFFFFFFFFFFFF04040FFFFFFF47
:10199600FFFFFFFFFFFFFFFFFFFF040404FFFFFF42
:1019A600FFFFFFFFFFFFFFFFFFFFFF04040FFFFF27
:1019B600FFFFFFFFFFFFFFFFFFFFFF04040FFFFF17
:1019C600FFFFFFFFFFFFFFFFFFFFFF04040FFFFF07
:1019D600FFFFFFFFFFFFFFFFFFFFFF04040FFFFFF7
:1019E600FFFFFFFFFFFFFFFFFFFFFF04040FFFFFE7
:1019F600FFFFFFFFFFFFFFFFFFFFFF04040FFFFFD7
:101A0600FFFFFFFFFFFFFFFFFFFF040404FFFFFFD1
:101A1600FFFFFFFFFFFFFFFFFFFF04040FFFFFFFB6
:101A2600FFFFFFFFFFFFFFFF04040404FFFFFFFFAC
:101A3600FFFFFFFF0404040404040FFFFFFFFFFF82
:101A4600FFFFFFFF0404040404FFFFFFFFFFFFFF87
:101A5600FFFFFFFF1010FFFFFFFFFF040404040455
:101A6600040FFFFFFFFFFFFFFFFF0404040404044D
:101A7600040404FFFFFFFFFFFF040404FFFFFFFF52
:101A8600FF040404FFFFFFFF040404FFFFFFFFFF42
:101A9600FFFF04040FFFFFFF04040FFFFFFFFFFF1C
:101AA600FFFF04040FFFFFFFFF0404FFFFFFFFFF1C
:101AB600FFFFFFFFFFFFFFFFFF0404040404FFFF17
:101AC600FFFFFFFFFFFFFFFFFFFF04040404040402
:101AD6000404FFFFFFFFFFFFFFFFFFFFFF040404F7
:101AE6000404040FFFFFFFFFFFFFFFFFFFFFFFFFE1
:101AF600FF0404040FFFFF04040FFFFFFFFFFFFFB7
:101B0600FFFF04040FFFFFFF0404FFFFFFFFFFFFBB
:101B1600FFFF04040FFFFFFF04040FFFFFFFFFFF9B
:101B2600FFFF04040FFFFFFF04040404FFFFFFFF91
:101B3600FF040404FFFFFFFFFF040404040404047D
:101B4600040404FFFFFFFFFFFFFFFF040404040477
:101B5600040FFFFFFFFF1010FF04040FFFFFFFFF3E
:101B6600FFFFFF0404040404FF04040FFFFFFFFF4C
:101B7600FF04040404040404FF04040FFFFFFFFF32
:101B860004040404FFFFFFFFFF04040FFFFFFFFF31
:101B960004040FFFFFFFFFFFFF04040FFFFFFF0416
:101BA600040FFFFFFFFFFFFFFF04040FFFFFFF040B
:101BB60004FFFFFFFFFFFFFFFF04040FFFFFFF040B
:101BC60004FFFFFFFFFFFFFFFF04040FFFFF0404F6
:101BD60004FFFFFFFFFFFFFFFF04040FFFFF0404E6
:101BE6000FFFFFFFFFFF0404FF04040FFFFFFF04C6
:101BF60004FFFFFFFFFF0404FF04040FFFFFFF04C1
:101C060004FFFFFFFFFFFFFFFF04040FFFFFFF04BA
:101C1600040FFFFFFFFFFFFFFF04040FFFFFFFFF9F
:101C260004040FFFFFFFFFFFFF04040FFFFFFFFF8A
:101C360004040404FFFFFFFFFF04040FFFFFFFFF80
:101C4600FF04040404040404FF04040FFFFFFFFF61
:101C5600FFFFFFFF0404040410100404FFFFFFFF4E
:101C6600FFFFFF04040FFFFFFFFF0404040FFFFF45
:101C7600FFFFFF040404FFFFFFFFFF0404040FFF40
:101C8600FFFFFF0404040FFFFFFFFFFFFF0404FF35
:101C9600FFFFFF04040404FFFFFFFFFFFF04040F20
:101CA600FFFFFF040404040FFFFFFFFFFFFFFFFF1A
:101CB600FFFFFF0404FF04040FFFFFFFFFFFFFFF0A
:101CC600FFFFFF0404FFFF0404FFFFFFFFFFFFFF0A
:101CD600FFFFFF0404FFFF04040F040404040404CC
:101CE600FFFFFF0404FFFFFF0404040404040404CC
:101CF600FFFFFF0404FFFFFF0404FFFFFF040404CB
:101D0600FFFFFF0404FFFFFFFF04FFFFFF040404BF
:101D1600FFFFFF0404FFFFFFFFFFFFFFFF040404B4
:101D2600FFFFFF0404FFFFFFFFFFFFFF040404049F
:101D3600FFFFFF0404FFFFFFFFFF040404040FFF7F
:101D4600FFFFFF0404FFFFFFFFFF0404FFFFFFFF89
:101D5600FFFFFF0404FFFFFFFFFF1010FFFFFF045C
:101D660004FFFFFFFFFFFFFFFF040404FFFFFF0464
:101D760004FFFFFFFFFFFFFF04040404FFFFFF044F
:101D860004FFFFFFFFFFFFFF04040404FFFFFF043F
:101D960004FFFFFFFFFFFF040404FF04FFFFFF042F
:101DA60004FFFFFFFFFFFF04040FFF04FFFFFF0414
:101DB60004FFFFFFFFFFFF0404FFFFFFFFFFFF0419
:101DC60004FFFFFFFFFF04040FFFFFFFFFFFFF04F9
:101DD60004FFFFFFFFFF04040FFFFFFFFFFFFF04E9
:101DE60004FFFFFFFF040404FFFFFFFF0FFFFF04D4
:101DF60004FFFFFFFF04040404040404040FFF04AB
:101E060004FFFFFFFF040404040404040404FF04A5
:101E160004FFFFFF04040FFFFFFFFFFF04040F048E
:101E260004FFFFFF0404FFFFFFFFFFFFFF0404049E
:101E360004FFFF040404FFFFFFFFFFFFFFFF04048E
:101E460004FFFF04040FFFFFFFFFFFFFFFFF040473
:101E560004FFFF0404FFFFFFFFFFFFFF1010FFFF5B
:101E6600FFFFFFFFFFFF0404FFFFFFFFFFFF0FFF62
:101E7600FFFFFFFFFFFF0404FFFFFFFFFFFF0FFF52
:101E8600FFFFFFFFFFFF0404FFFFFFFFFFFF04FF4D
:101E9600FFFFFFFFFFFF0404FFFFFFFFFFFF040F2D
:101EA600FFFFFFFFFFFF0404FFFFFFFFFFFF040428
:101EB600FFFFFFFFFFFF0404FFFFFFFFFFFF040418
:101EC6000FFFFFFFFFFF0404FFFFFFFFFFFF0404F8
:101ED6000FFFFFFFFFFF0404FFFFFFFFFFFFFF04ED
:101EE60004FFFFFFFFFF0404FFFFFFFFFFFF0404E3
:101EF600040FFFFFFFFF0404FFFFFFFFFFFF0404C3
:101F06000404FFFFFFFF0404FFFFFFFFFFFFFFFFC7
:101F160004040FFFFFFF0404FFFFFFFFFFFFFFFFA7
:101F260004040FFFFFFF0404FFFFFFFFFFFFFFFF97
:101F3600FF0404FFFFFF0404FFFFFFFFFFFFFFFF97
:101F4600FF04040FFFFF0404040404040404FFFF59
:101F5600FFFF0404FFFF0404040404040404101037
:101F6600FFFFFFFFFF000000000000FFFFFFFFFF75
:101F7600FFFFFF00000002020202000000FFFFFF59
:101F8600FFFF000002020202020202020000FFFF3F
:101F9600FF0000020202000000000002020000FF33
:101FA600FF0002020200FFFFFFFF0000020200FF27
:101FB600FF00020202020000FFFFFF00000000FF18
:101FC600FF000002020202020000FFFFFFFFFFFF08
:101FD600FFFF0000000002020202000000FFFFFFF8
:101FE600FFFFFFFFFF00000002020202020000FFE7
:101FF600FFFFFFFFFFFFFF0000000202020200FFDB
:10200600FF00000000FFFFFFFF000000020200FFCC
:10201600FF0002020000FFFFFFFF0000020200FFB8
:10202600FF0000020200000000000002020000FFA4
:10203600FFFF000002020202020202020000FFFF8E
:10204600FFFFFF00000002020202020000FFFFFF86
:10205600FFFFFFFFFF00000000000000FFFFFFFF83
:10206600101000000000000000000000000000004A
:10207600000000010101010101010101010101014D
:10208600010000010101010101010101010101013C
:10209600010000010101010101010101010101012C
:1020A6000100000000000000010101010000000025
:1020B6000000FFFFFFFFFF000101010100FFFFFF1E
:1020C600FFFFFFFFFFFFFF000101010100FFFFFF10
:1020D600FFFFFFFFFFFFFF000101010100FFFFFF00
:1020E600FFFFFFFFFFFFFF000101010100FFFFFFF0
:1020F600FFFFFFFFFFFFFF000101010100FFFFFFE0
:10210600FFFFFFFFFFFFFF000101010100FFFFFFCF
:10211600FFFFFFFFFFFFFF000101010100FFFFFFBF
:10212600FFFFFFFFFFFFFF000101010100FFFFFFAF
:10213600FFFFFFFFFFFFFF000101010100FFFFFF9F
:10214600FFFFFFFFFFFFFF000101010100FFFFFF8F
:10215600FFFFFFFFFFFFFF000000000000FFFFFF83
:10216600FFFF1010FFFFFFFFFFFFFFFFFFFFFFFF57
:10217600FFFFFFFFFFFFFFFFFFFFFFFFFFFFFFFF69
:10218600FFFFFFFFFFFFFFFFFFFFFFFFFFFFFFFF59
:10219600FFFFFFFFFFFFFFFFFFFFFFFFFFFFFFFF49
:1021A600FFFFFFFFFFFFFFFFFFFFFFFFFFFFFFFF39
:1021B600FFFFFFFFFFFFFFFFFFFFFFFFFFFFFFFF29
:1021C600FFFFFFFFFFFFFFFFFFFFFFFFFFFFFFFF19
:1021D600FFFFFFFFFFFFFFFFFFFFFFFFFFFFFFFF09
:1021E600FFFFFFFF1010FFFFFFFFFFFFFFFFFFFFD7
:1021F600FFFFFFFFFFFFFFFFFFFFFFFFFFFFFFFFE9
:10220600FFFFFFFFFFFFFFFFFFFFFFFFFFFFFFFFD8
:10221600FFFFFFFFFFFFFFFFFFFFFFFFFFFFFFFFC8
:10222600FFFFFFFFFFFFFFFFFFFFFFFFFFFFFFFFB8
:10223600FFFFFFFFFFFFFFFFFFFFFFFFFFFFFFFFA8
:10224600FFFFFFFFFFFFFFFFFFFFFFFFFFFFFFFF98
:10225600FFFFFFFFFFFFFFFFFFFFFFFFFFFFFFFF88
:10226600FFFFFFFFFFFF1010FFFFFFFFFFFFFFFF56
:10227600FFFFFFFFFFFFFFFFFFFFFFFFFFFFFFFF68
:10228600FFFFFFFFFFFFFFFFFFFFFFFFFFFFFFFF58
:10229600FFFFFFFFFFFFFFFFFFFFFFFFFFFFFFFF48
:1022A600FFFFFFFFFFFFFFFFFFFFFFFFFFFFFFFF38
:1022B600FFFFFFFFFFFFFFFFFFFFFFFFFFFFFFFF28
:1022C600FFFFFFFFFFFFFFFFFFFFFFFFFFFFFFFF18
:1022D600FFFFFFFFFFFFFFFFFFFFFFFFFFFFFFFF08
:1022E600FFFFFFFFFFFFFFFF1010FFFFFFFFFFFFD6
:1022F600FFFFFFFFFFFFFFFFFFFFFFFFFFFFFFFFE8
:10230600FFFFFFFFFFFFFFFFFFFFFFFFFFFFFFFFD7
:10231600FFFFFFFFFFFFFFFFFFFFFFFFFFFFFFFFC7
:10232600FFFFFFFFFFFFFFFFFFFFFFFFFFFFFFFFB7
:10233600FFFFFFFFFFFFFFFFFFFFFFFFFFFFFFFFA7
:10234600FFFFFFFFFFFFFFFFFFFFFFFFFFFFFFFF97
:10235600FFFFFFFFFFFFFFFFFFFFFFFFFFFFFFFF87
:10236600FFFFFFFFFFFFFFFFFFFF1010FFFFFFFF55
:10237600FFFFFFFFFFFFFFFFFFFFFFFFFFFFFFFF67
:10238600FFFFFFFFFFFFFFFFFFFFFFFFFFFFFFFF57
:10239600FFFFFFFFFFFFFFFFFFFFFFFFFFFFFFFF47
:1023A600FFFFFFFFFFFFFFFFFFFFFFFFFFFFFFFF37
:1023B600FFFFFFFFFFFFFFFFFFFFFFFFFFFFFFFF27
:1023C600FFFFFFFFFFFFFFFFFFFFFFFFFFFFFFFF17
:1023D600FFFFFFFFFFFFFFFFFFFFFFFFFFFFFFFF07
:1023E600FFFFFFFFFFFFFFFFFFFFFFFF1010FFFFD5
:1023F600FF0000FFFFFFFFFFF000000FFFFFFFFFE2
:1024060000222200FFFFFFFF00222200FFFFFFF055
:10241600022002200FFFFFF0022002200FFFFF0024
:102426002200002200FFFF00220FF02200FFF00230
:10243600200FF002200FF00220000002200F0022E1
:1024460022222222220000222222222222000022EE
:10245600000000002200002200FFFF0022000022F0
:1024660000FFFF002200000000FFFF000000101028
:1024760000000000000000FF022222222222000F9C
:102486000222222222222000000220000022220014
:10249600F00220FFF0022200F00220FFF0022200EC
:1024A600F00220000022200FF0022222222200FF4A
:1024B600F0022222222200FFF00220000022200F3A
:1024C600F00220FFF0022200F00220FFF0022200BC
:1024D60000022000002222000222222222222000C4
:1024E600022222222222000F00000000000000FF2C
:1024F60010101010101010101010101010101010D6
:062506001010101010106F
:108F4A0078B7E2FB08E2FA08E2F912500CFF7898C7
:108F5A00E22F78D8F222F278B7E2FB0808E2F92485
:108F6A0001F218E2FA3400F2024FF378B7E2FB0892
:108F7A00E2FA08E2F92278AEE2FF3395E0FED3EF97
:108F8A009400EE6480948022E22401F218E2340014
:028F9A00F222C1
:05990A00E47898F22250
:0A70210078AFEFF208ECF208EDF290
:10702B0078AFE2FF25E0F2E22408F278B6F278B00E
:10703B00E2FE08E27803C333CE33CED8F979B1F34D
:10704B00EE19F3789AE26401704678B0E2FE08E23A
:10705B00FF4E602EEF7803CEC313CE13D8F9FF6427
:10706B00074E601EEF640D4E6018EF64154E6012F4
:10707B00EF64084E600CEF64104E6006EF64194E1F
:10708B00700778B1E2240A800C78B1E224068005FF
:10709B0078B1E22408128F95AF037E007C017D024C
:1070AB0012504B74262FF974003EFA78B774FFF226
:1070BB0008EAF208E9128F6078B2128F6078B3F2A7
:1070CB00E408F278B2E2FF78B4E2C39F40030271A6
:1070DB0090E408F278B3E2FF78B5E2C39F40030275
:1070EB00717D128F75124FF3128F57E4FB7D02FFE8
:1070FB00128B0B900001128F4A7B011271B890001A
:10710B0002128F4A7B021271B8128F759000031214
:10711B008F547B031271C078D87480F27B04127188
:10712B00C078B9E22404128F9578B6E278D8F27B56
:10713B00051271D308E278D8F27B071271D3E27E85
:10714B00007802C333CE33CED8F91271911271C8C5
:10715B0020E7FA78B0E225E025E04408127191129D
:10716B0071C820E7FA78B6E204F218E22404F202BE
:10717B0070DF78AFE278B6F278B1128F9278B4E222
:05718B0004F20270CEC9
:107190002278D8F27B097D02E4FF128B0B7B0A7DFB
:1071A00002E4FF128AA6EF543F448078D8F27B0AAB
:1071B0007D02E4FF128B0B227D02E4FF128B0B2277
:1071C0007D02E4FF128B0B227B0A7D02E4FF128A10
:0D71D000A6EF227D02E4FF128B0B78B022A7
:0A8CEE0078A8EFF208EDF208EBF2AF
:108CF80008128F7712000E78AEEFF23395E0C36456
:108D0800809480403B78A8E254016401702A78A9D5
:108D1800E2FF08E2FD7C0008128F77124FF3FB1286
:108D2800702178AEE214F218128F9278A9E2240228
:108D3800F2128F8050D88005128F8050FB1299153F
:018D48002208
:1096A7000500000600000700000800000900000A86
:1096B70000001F000020000B000C000D000E000F23
:0596C700101112120059
:0398C9000121007A
:108297007856E275F003A424A7F9749635F0FA78B6
:1082A700AB74FFF2082278A5900001E2FB08E2FA1E
:1082B70008E2F902500C78A5E2FB08E2FA08E2F9B5
:1082C700227856E2FF7E007401A80708227852E25E
:1082D700FD7C007B01227496F20874B3F222FF78CA
:1082E70063E2FDEF5D227496F20874C6F22274967B
:1082F700F20874C4F22290000202500C124FF35499
:1083070002640222124FF35401640122124FF35404
:1083170010641022124FF3540C1313543FF5272205
:108327007496F274BC08F27852E2FB227B017D0F4F
:108337007C00227B017D127C0022EAF208E9F27BB5
:108347000F22EAF208E9F27B1222EAF208E9F27850
:1083570052E2FB22EAF208E9F27B01227D197B0552
:108367007C007F3A22EBF208EAF208E9F222900059
:108377000302500CEAF208E9F2E4FB227852E2FB2E
:0A8387007F01227BFE7A00795B2261
:108F9C00127BFB12990A7F0412990F7F031299120C
:108FAC00E4F527C3E5279406748094805009AF2715
:108FBC00128FD7052780EC7F011294037FFF129943
:0A8FCC00127F08128FD7E47853F2E9
:108FD6002212973578A9E4F2087426F27B5AE4FD4A
:068FE600FCFF1285F822D9
:1057FD0078A512836C7F0212990F7FFF1299127890
:10580D0055E2125155584011585621587D2258A431
:10581D003158E433592134595E4159BB9159D0A1C6
:10582D005A00A25A29B15A76B35AB5B45AF1C100E9
:10583D00005B5378A51282BF1283036003025B5392
:10584D0012829712837B0259FB78A51282BF1283B5
:10585D00037006128297125BAE1282AD540264027F
:10586D006003025B5378571282991283410259FBF0
:10587D0078A51282BF1283037006128297125B54B1
:10588D001282AD540264026003025B537857128298
:10589D009912837B025A2478A51282BF128303705A
:1058AD0006128297125BAE1282AD54026402700B27
:1058BD007857128299128341125BBD78A590000230
:1058CD001282B2540264026003025B537858128252
:1058DD0099128341025A2478A51282BF1283037054
:1058ED0006128297125B541282AD54026402700844
:1058FD007857128299125B9F78A51282BF1282FD92
:10590D00540264026003025B537858128299128329
:10591D0041025A2478A51282BF12830370061282A7
:10592D0097125B721282AD5402640270087857129E
:10593D008299125B9F78A51282BF1282FD54026478
:10594D00026003025B537858128299128341025A06
:10595D00EC78A51282BF1283037006128297125B38
:10596D00721282AD54026402700F7857128299122E
:10597D00837B7D3E7F01128CEE78A51282BF128251
:10598D00FD54026402700B785812829912834112F1
:10599D005BBD78A51282BF12837554026402600349
:1059AD00025B537859128299128341025A2478A5C9
:1059BD001282BF1283036003025B5312829712831C
:1059CD005B802B78A51282BF128303700D12829714
:1059DD0012835B7D297F01128CEE1282AD5402641D
:1059ED00026003025B5378571282991283497D2915
:1059FD00025B4E78A51282BF128303700612829746
:105A0D00125B631282AD540264026003025B537831
:105A1D005712829912835B7D3E025B4E78A51282EE
:105A2D00BF128303700D12829712835B7D297F0154
:105A3D00128CEE1282AD54026402700F78571282EE
:105A4D00991283497D147F01128CEE78A51282BFC5
:105A5D001282FD540264026003025B537858128275
:105A6D00991283497D3E025B4E78A51282BF128347
:105A7D00037006128297125B631282AD54026402A8
:105A8D0070087857128299125B8178A51282BF1225
:105A9D0082FD540264026003025B537858128299AE
:105AAD001283497D3E025B4E78A51282BF1283039D
:105ABD007006128297125B901282AD5402640270CE
:105ACD00087857128299125B8178A51282BF1282D3
:105ADD00FD54026402706F78581282991283497DC9
:105AED0014025B4E78A51282BF12830370061282D8
:105AFD0097125B901282AD54026402700F785712A8
:105B0D00829912835B7D3E7F01128CEE78A5128205
:105B1D00BF1282FD54026402700F785812829912DE
:105B2D0083497D147F01128CEE78A51282BF1283FA
:105B3D007554026402700F78591282991283497D4F
:105B4D003E7F01128CEE22EAF208E9F2E4FB7D14AD
:105B5D007F01128CEE22EAF208E9F27B017D147FBF
:105B6D0001128CEE22EAF208E9F2E4FB7D147F01CA
:105B7D00128CEE22EAF208E9F27B017D3E7F0112E2
:105B8D008CEE22EAF208E9F27B017D147F01128C82
:105B9D00EE22EAF208E9F2E4FB7D3E7F01128CEE83
:105BAD0022EAF208E9F2E4FB7D297F01128CEE2254
:085BBD007D147F01128CEE2221
:0798F7007854E24480F222E4
:10935D007B787D01E4FF128AA6EF540FFF7863F24C
:10936D007854E26F6021D2217B31E4FDFF128AA691
:10937D00EF547F78D8F27B31E4FDFF128B0B123C5A
:08938D00BC7863E27854F2227F
:0567AB0078A512836CCB
:1067B0007F4112990F7855E212515567E311681124
:1067C00021686C2268CE31691833695F3467E391C0
:1067D0006811A1686CA268CEB16918B3695FB40092
:1067E0000069CA78A51282BF12831B60030268D8B1
:1067F0001282D47F3112854B78A51282BF124FF3DB
:1068000030E5030268F97853E260030269CA02695D
:106810000F78A51282BF12831B60101269CB1282FF
:10682000A5EAF2E912832C7D1C801A1282D4126A26
:10683000211282BF124FF330E5121269E81282A6CC
:106840001283277D017F01128CEE800E7853E27057
:1068500009181282D67F0112854B78A51282AF12D9
:10686000831E7852600302696B0268C678A51282A3
:10687000BF12831B600D1269CB1282A51283517D5A
:106880001C801A1282D4126A211282BF124FF33076
:10689000E5121269E81282A61283277D017F011298
:1068A0008CEE800E7853E27009181282D67F0112A6
:1068B000854B78A51282AF12831E60087B02E4FD2F
:1068C000FC02697278521282D67F460269C778A5A7
:1068D0001282BF12831B600E1269F61282A5128308
:1068E000517D310269B71282D47F3112854B78A570
:1068F0001282BF124FF330E50E126A131282A612F3
:1069000083277D010269B77853E260030269CA18E0
:106910001282D67F010269C778A51282BF12831B3B
:10692000600E1269F61282A51283517D1C0269B7AE
:106930001282D47F1C12854B78A51282BF124FF3AE
:1069400030E50E126A131282A61283277D010269B6
:10695000B77853E27074181282D67F010269C77843
:10696000A51282AF12831E60267852E2FD7C007B66
:1069700002E4FF12854BE52725E0FFE433FE74BCFB
:106980002FF974963E1282A51283517D46802812FB
:1069900082D47F4612854B78A51282BF124FF33006
:1069A000E51A7852E2FD7C007B02E4FF12854B126F
:1069B00082A61283277D017F01028CEE7853E2705C
:0A69C00009181282D67F0112854BE0
:1069CA00227852E2FD7C007B02E4FF12854BE52728
:1069DA0025E0FFE433FE74BC2FF974963E22785208
:1069EA00E2FD7C007B02E4FF12854B227852E2FD35
:1069FA007C007B02E4FF12854BE52725E0FFE433A8
:106A0A00FE74BC2FF974963E227852E2FD7C007B1C
:0F6A1A0002E4FF12854B227F1C12854B78A522C8
:1042210078A512836C7F0C12990F7855E2125155C3
:10423100425F1142792142A32242D631431F3343C7
:10424100633443B0414428914441A1447CA244B920
:10425100B14513B3456DB445CAC10000464A128247
:10426100BD12830B700A1282A61282DDE402443968
:104271007B01E4FDFC0244771282BD12830B700BBB
:104281001282A61282DD1246C480031246AF78A5BF
:104291001282AF5401640170030244671283330236
:1042A10044771282BD12830B700B1282A61282DD3B
:1042B100124663800312468378A51282AF540164CB
:1042C10001700A1282A61282DDE40244AB7B01E492
:1042D100FDFC0244B41282BD12830B700B1282A644
:1042E1001282DD1246C480031246AF78A51282AF56
:1042F10054016401700B1282A61282DD1246BA804B
:10430100081283337F1712854B1282BD1282FD542E
:1043110001640170030244171283330244B4128210
:10432100BD12830B700B1282A61282DD12466380CE
:104331000312468378A51282AF54016401700B12F7
:1043410082A61282DD1246A5800312468E1282BD1C
:104351001282FD5401640170030244171283330277
:1043610044B41282BD12830B700B1282A61282DD3D
:1043710012466D80031246CE78A51282AF540164B5
:1043810001700B1282A61282DD1246A5800312462D
:104391008E1282BD1282FD54016401700B1282A63D
:1043A1001282DD7B0F0245BA7B017D0F0245C312EC
:1043B10082BD12830B700B1282A61282DD12466D32
:1043C10080031246CE78A51282AF540164017011A8
:1043D1001282A61282DDE4FB7D417F01128CEE8008
:1043E1000A7B01E4FDFC7F4112854B1282BD1282E2
:1043F100FD54016401700B1282A61282DD1246BACD
:1044010080081283337F1712854B1282BD12837588
:1044110054016401700B1282A61282DD7B0F0244EB
:10442100AC1283330244B41282BD12830B700C129E
:1044310082A61282DD7852E2FB80331282D480366A
:104441001282BD12830B700B1282A61282DD1246FC
:104451009980081282D47F2C12854B78A51282AFE5
:1044610054016401700D1282A61282DD7B0F7D2C36
:1044710002463D1283337F2C0246471282BD1283CE
:104481000B700B1282A61282DD12464B800812823B
:10449100D47F1712854B78A51282AF540164017045
:1044A1000F1282A61282DD7852E2FB7D4102463D67
:1044B1001282D47F410246471282BD12830B700BD8
:1044C1001282A61282DD12469980081282D47F2CB4
:1044D10012854B78A51282AF54016401700B1282D0
:1044E100A61282DD1246D9800812833A7F171285FF
:1044F1004B1282BD1282FD54016401700D1282A61D
:104501001282DD7B127D4102463D12833A7F4102D8
:1045110046471282BD12830B700B1282A61282DDF6
:1045210012464B80081282D47F1712854B78A51250
:1045310082AF54016401700B1282A61282DD124611
:104541007780081282D47F4112854B1282BD12827C
:10455100FD54016401700D1282A61282DD7B127D71
:104561004102463D12833A7F410246471282BD1203
:10457100830B700B1282A61282DD1246578008123D
:1045810082D47F1712854B78A51282AF5401640142
:10459100700B1282A61282DD12467780081282D435
:1045A1007F4112854B1282BD1282FD54016401705C
:1045B1000D1282A61282DD7B127D1702463D7B0120
:1045C1007D127C007F170246471282BD12830B7059
:1045D1000B1282A61282DD12465780081282D47F06
:1045E1001712854B78A51282AF5401640170101225
:1045F10082A61282DD7D41128383128CEE80081225
:1046010082D47F4112854B1282BD1282FD54016416
:1046110001700B1282A61282DD1246D98008128324
:104621003A7F1712854B1282BD12837554016401C2
:10463100700F1282A61282DD7B127D417F01028CF6
:10464100EE12833A7F4112854B227852E2FB7D17AD
:104651007F01128CEE227852E2FB7D177F01128CD2
:10466100EE22E4FB7D177F01128CEE22E4FB7D1725
:104671007F01128CEE227852E2FB7D417F01128C88
:10468100EE227B01E4FDFC7F1712854B227B01E4C6
:10469100FDFC7F4112854B227852E2FB7D2C7F018C
:1046A100128CEE22E4FB7D417F01128CEE227B0114
:1046B100E4FDFC7F2C12854B227B0F7D177F0112BD
:1046C1008CEE22E4FB7D2C7F01128CEE227B01E437
:1046D100FDFC7F1712854B227B127D177F01128C07
:0246E100EE22C7
:1046E30078A512836C7F0212990F7855E212515507
:1046F300471E1147322147642247993147E6334821
:104703002E34487F4148F0914911A24950B149B331
:10471300B34A11B44A6DC100004AEE78A51282BFB4
:104723001283137002802A7B01E4FDFC02490C789A
:10473300A51282BF128313700B1282A61282F51286
:104743004B528003124B4778A51282BF128313701A
:104753000A1282A61282F5E4024903128333024944
:104763000C78A51282BF128313700B1282A61282D9
:10477300F5124B078003124B1B78A51282AF54101E
:104783006410700A1282A61282F5E40249427B0188
:10479300E4FDFC02494B78A51282BF128313700B10
:1047A3001282A61282F5124B528003124B4778A550
:1047B3001282AF54106410700B1282A61282F5128B
:1047C3004B6780081283337F1F12854B78A51282B3
:1047D300BF1282FD5410641070030248DF1283334A
:1047E30002494B78A51282BF128313700B1282A663
:1047F3001282F5124B078003124B1B78A51282AF6E
:1048030054106410700B1282A61282F5124B3D8075
:1048130003124B2678A51282BF1282FD5410641036
:1048230070030248DF12833302494B78A51282BF1B
:10483300128313700B1282A61282F5124B1180039E
:10484300124B5C78A51282AF54106410700B128265
:10485300A61282F5124B3D8003124B2678A51282D5
:10486300BF1282FD54106410700B1282A61282F5DF
:104873007B0F024A5D7B017D0F024A6678A5128297
:10488300BF128313700B1282A61282F5124B118092
:1048930003124B5C78A51282AF54106410700B1294
:1048A30082A61282F5124B718003124B7B78A512FC
:1048B30082BF1282FD54106410700B1282A6128202
:1048C300F5124B6780081283337F1F12854B78A53F
:1048D3001282BF12837554106410700B1282A612D9
:1048E30082F57B0F02494312833302494B78A512A9
:1048F30082BF128313700F1282A61282F57852E2DE
:10490300FB7D34024AE11282D47F34024AEB78A55C
:104913001282BF128313700B1282A61282F5124AFF
:10492300EF80081282D47F1F12854B78A51282AFC5
:1049330054106410700F1282A61282F57852E2FBB3
:104943007D49024AE11282D47F49024AEB78A512DB
:1049530082BF12831370101282A61282F57D341265
:104963008383128CEE80081282D47F3412854B78B5
:10497300A51282AF54106410700B1282A61282F536
:10498300124B86800812833A7F1F12854B78A5123B
:1049930082BF1282FD54106410700D1282A612821F
:1049A300F57B127D49024AE112833A7F49024AEBC1
:1049B30078A51282BF128313700B1282A61282F59E
:1049C300124AEF80081282D47F1F12854B78A512FA
:1049D30082AF54106410700B1282A61282F5124B30
:1049E3003180081282D47F4912854B78A51282BF89
:1049F3001282FD54106410700D1282A61282F57B90
:104A0300127D49024AE112833A7F49024AEB78A5B3
:104A13001282BF128313700B1282A61282F5124AFE
:104A2300FB80081282D47F1F12854B78A51282AFB8
:104A330054106410700B1282A61282F5124B71800F
:104A430003124B7B78A51282BF1282FD54106410AF
:104A5300700D1282A61282F57B127D1F024AE17B42
:104A6300017D127C007F1F024AEB78A51282BF12E0
:104A73008313700B1282A61282F5124AFB8008126E
:104A830082D47F1F12854B78A51282AF5410641015
:104A9300700B1282A61282F5124B3180081282D457
:104AA3007F4912854B78A51282BF1282FD54106490
:104AB30010700B1282A61282F5124B8680081283A5
:104AC3003A7F1F12854B78A51282BF12837554104B
:104AD3006410700F1282A61282F57B127D497F014A
:104AE300028CEE12833A7F4912854B227852E2FB05
:104AF3007D1F7F01128CEE227852E2FB7D1F7F0126
:104B0300128CEE22E4FB7D1F7F01128CEE22E4FB6C
:104B13007D1F7F01128CEE227B01E4FDFC7F1F12BF
:104B2300854B227B01E4FDFC7F4912854B227852A1
:104B3300E2FB7D497F01128CEE22E4FB7D497F017C
:104B4300128CEE227B01E4FDFC7F3412854B22E4C0
:104B5300FB7D347F01128CEE227B01E4FDFC7F1F81
:104B630012854B227B0F7D1F7F01128CEE22E4FB0B
:104B73007D497F01128CEE227B01E4FDFC7F49120B
:0D4B8300854B227B127D1F7F01128CEE22DC
:103CBC007855E21251553CEA113D0D223D51313DF2
:103CCC00C0333E25343E91413F1D913F46A23F9269
:103CDC00B14000B34068B440E1C10000416A1282B7
:103CEC00C88005C333CE33CED8F91282E5600B12EF
:103CFC0082A61282ED7B0D023F367B057D0D023FC5
:103D0C003F1282C88005C333CE33CED8F91282E578
:103D1C00600B1282A61282ED1241C78003124183FE
:103D2C0078571282CA8005C333CE33CED8F91282AB
:103D3C00E5600B1282A61282ED7B0D023F827B05A1
:103D4C007D0D023F8B1282C88005C333CE33CED893
:103D5C00F91282E560111282A61282ED7B077D2595
:103D6C007F01128CEE80057D0712420D785712826E
:103D7C00CA8005C333CE33CED8F91282E5600D125A
:103D8C0082A61282ED7B151241E780031241D17895
:103D9C00581282CA8005C333CE33CED8F91282E5CD
:103DAC00600B1282A61282ED7B15023F827B057D91
:103DBC0015023F8B1282C88005C333CE33CED8F99F
:103DCC001282E5600B1282A61282ED1241C78003AB
:103DDC0012418378571282CA8005C333CE33CED8B2
:103DEC00F91282E5600B1282A61282ED1241DD807F
:103DFC000312418F78581282CA8005C333CE33CE5A
:103E0C00D8F91282E5600B1282A61282ED7B1502A4
:103E1C003F827B057D15023F8B1282C88005C33320
:103E2C00CE33CED8F91282E5600B1282A61282ED47
:103E3C0012419B800312416B78571282CA8005C3D2
:103E4C0033CE33CED8F91282E5600D1282A61282DF
:103E5C00ED7D3A12420580087D0D12836512854B6B
:103E6C0078581282CA8005C333CE33CED8F9128269
:103E7C00E5600B1282A61282ED7B150240D17B0508
:103E8C007D150240DA1282C88005C333CE33CED8FA
:103E9C00F91282E5600B1282A61282ED12419B8010
:103EAC000312416B78571282CA8005C333CE33CECE
:103EBC00D8F91282E5600B1282A61282ED1241DD56
:103ECC00800312418F78581282CA8005C333CE33D7
:103EDC00CED8F91282E560111282A61282ED7B1502
:103EEC007D107F01128CEE80031241D17859128221
:103EFC00CA8005C333CE33CED8F91282E5600B12DB
:103F0C0082A61282ED7B15023F827B057D15023F56
:103F1C008B1282C88005C333CE33CED8F91282E51A
:103F2C00600D1282A61282ED7B107D2502415F7B13
:103F3C00057D107C007F250241671282C88005C375
:103F4C0033CE33CED8F91282E5600D1282A61282DE
:103F5C00ED7B101241E780031241A578571282CAFB
:103F6C008005C333CE33CED8F91282E5600D1282B0
:103F7C00A61282ED7B107D3A02415F7B057D107CA1
:103F8C00007F3A0241671282C88005C333CE33CE1C
:103F9C00D8F91282E560111282A61282ED7B087D9F
:103FAC00257F01128CEE80057D0812420D78571288
:103FBC0082CA8005C333CE33CED8F91282E5600BAA
:103FCC001282A61282ED12421780031241EF78582A
:103FDC001282CA8005C333CE33CED8F91282E56083
:103FEC000D1282A61282ED7B197D3A02415F12837B
:103FFC00630241671282C88005C333CE33CED8F931
:10400C001282E5600D1282A61282ED7D101242051D
:10401C0080031241A578571282CA8005C333CE3370
:10402C00CED8F91282E5600B1282A61282ED1241F3
:10403C00FB80031241BB78581282CA8005C333CE71
:10404C0033CED8F91282E5600D1282A61282ED7B76
:10405C00197D3A02415F1283630241671282C88064
:10406C0005C333CE33CED8F91282E5600B1282A68B
:10407C001282ED1241B1800312417778571282CA35
:10408C008005C333CE33CED8F91282E5601112828B
:10409C00A61282ED7B107D3A7F01128CEE800B7B99
:1040AC00057D107C007F3A12854B78581282CA80AD
:1040BC0005C333CE33CED8F91282E5600D1282A639
:1040CC001282ED7B197D1002415F7B057D197C000E
:1040DC007F100241671282C88005C333CE33CED81D
:1040EC00F91282E5600B1282A61282ED1241B180A8
:1040FC000312417778571282CA8005C333CE33CE70
:10410C00D8F91282E5600B1282A61282ED1241FBE5
:10411C0080031241BB78581282CA8005C333CE3358
:10412C00CED8F91282E5600B1282A61282ED1242F1
:10413C001780031241EF78591282CA8005C333CE1F
:10414C0033CED8F91282E5600F1282A61282ED7B73
:10415C00197D3A7F01028CEE12836312854B227B10
:10416C00057D077C007F1012854B227B057D087C2A
:10417C00007F1012854B227B057D0D7C007F101279
:10418C00854B227B057D077C007F3A12854B227B79
:10419C00077D107F01128CEE227B057D107C007F49
:1041AC001012854B227B087D107F01128CEE227B36
:1041BC00057D087C007F3A12854B227B0D7D107F9C
:1041CC0001128CEE227B057D157C007F1012854B35
:1041DC00227B077D3A7F01128CEE227D107F01122B
:1041EC008CEE227B057D197C007F1012854B227B87
:1041FC00087D3A7F01128CEE227B0D7F01128CEE32
:10420C00227B057C007F2512854B227B197D107F3C
:05421C0001128CEE22EE
:10911400E4FF1297357853E224FE601104702B1299
:10912400914F1282A67496F20874B6800C12914F75
:109134001282A67496F20874B9F27852E2FB7D01A9
:109144007F01128CEE7FFF129912227F0312991273
:069154007F0412990F22B6
:1095E500E4FF129735785BE254026402701212832D
:1095F5008A12422112838A1246E312838A1267ABCA
:089605001298F7E4FF02940340
:10250C0000000000000000000000000000000000BF
:10251C0000000000000000000000000000000000AF
:10252C00003E007E00FE01CE038E7F8E7F8E738E6A
:10253C00738E738E7F8E7F8E01CE00FE007E003EEA
:10254C0000000000020006000E001E003FFE7FFE91
:10255C007FFE3FFE1E000E00060002000000000081
:10256C000000000000400060007000787FFC7FFEDF
:10257C007FFE7FFC007800700060004000000000CF
:10258C00000003C003C003C003C003C003C003C0EA
:10259C0003C03FFC1FF80FF007E003C001800000F0
:1025AC0003C003C007E007E00E700E701C381C3827
:1025BC00381C381C7FFE7FFE700E700E700E700E75
:1025CC007FF87FFC383E381E381E381E383C3FF8EA
:1025DC003FF8383C381E381E381E383E7FFC7FF8DA
:1025EC000FF81FFC3C1C380E780E700E700070003B
:1025FC0070007000700E700E380E3C1C1FFC0FF833
:10260C007FF07FF07078703C703C703C70787FF09D
:10261C007FE0778073C071E070F07078703C701E52
:10262C0000006006700E781E7C3E7FFE77EE73CE47
:10263C00718E700E700E700E700E700E700E700E1D
:10264C0000001FF81FF800E000E000E000E000E0F0
:10265C0000E000E000E070E079E03FC01F800F0078
:10266C0000000000000003C007800F001E003FFCAC
:10267C003FFC1E000F00078003C00000000000009C
:10268C0000000000000003C001E000F000783FFCF7
:10269C003FFC007800F001E003C0000000000000E7
:1026AC0000000000018001800180018011881998D0
:1026BC001DB81FF80FF007E003C0018000000000F8
:1026CC00003E007E00FE01CE038E7F8E7F8E738EC9
:1026DC00738E738E7F8E7F8E01CE00FE007E003E49
:1026EC00700E700E700E700E700E700E781E381C00
:1026FC00381C1C381C380E700FF007E003C001802A
:10270C000000380038003800380038003800380035
:10271C0038003800380038063806380E3FFE3FFEC9
:10272C000000000000000000000003800FE01C709F
:10273C00183038383838383818301C700FE00380AF
:10274C000000000000000000000003C00FF01C3867
:10275C001C000F0007E000F000381C380FF003C01D
:10276C00000000000000000000000000000000005D
:10277C00000000000000000000000000000000004D
:10278C00000000000000000000000000000000003D
:10279C00000000000000000000000000000000002D
:1027AC00000000000000000000000000000000001D
:1027BC00000000000000000000000000000000000D
:1027CC0000000000000000000000000000000000FD
:1027DC0000000000000000000000000000000000ED
:1027EC0000000000000000000000000000000000DD
:1027FC0000000000000000000000000000000000CD
:10280C0000000000000000000000000000000000BC
:10281C0000000000000000000000000000000000AC
:10282C00000000000000000000000000000000009C
:10283C00000000000000000000000000000000008C
:10284C00000000000000000000000000000000007C
:10285C00000000000000000000000000000000006C
:10286C00000000000000000000000000000000005C
:10287C00000000000000000000000000000000004C
:10288C00000000000000000000000000000000003C
:10289C00000000000000000000000000000000002C
