:0300000002780D76
:0C780D00787FE4F6D8FD758135027854D0
:1087CE00D2BCD2AC758DF4D28EE47850F208F2227F
:0F87DE007850E2FF08E2B507037F00227F0122F7
:1086B600C2AC7850E22400F8E2FF7850E204F2E21D
:0986C600C394504002E4F2D2AC6E
:0186CF002288
:080003003099FD8F99C299228A
:030023000285C291
:1085C200C0E0C0D075D008309818C2987851E22423
:1085D20000F8E599F27851E204F2E2C394504002C5
:0785E200E4F2D0D0D0E0323A
:10854A0078ABE2FB08E2FA08E2F9227590F6D2B6B5
:10855A00D2B77580FFD2AF22AF038F80D293C29376
:08856A0022C2AF7590F6ED226C
:1084C90012856B7006C2B7C2B68012EDB40106C23E
:1084D900B7D2B68008EDB40204D2B7C2B61285622B
:0D84E90078D7E2F580C291D291128555221C
:107E6600AE0312856B7006C2B7C2B68012EDB401BE
:107E760006C2B7D2B68008EDB40204D2B7C2B6AF16
:107E8600060E12856478A9E2FB0808E2F92401F2DD
:107E960018E2FA3400F21240CBF580C291D2917802
:0A7EA600ACE214F270D912855522E7
:10836B0012856B7006C2B7C2B68012EDB40106C29D
:10837B00B7D2B68008EDB40204D2B7C2B61285628A
:10838B007580FFC292AF80D2927590F6D2B6D2B7FB
:02839B00D2AF5F
:01839D0022BD
:107C770078ABEBF208EAF208E9F212854A124135CD
:107C8700F47003E5F0F4603E12854A124135FBAA11
:107C9700F0EAFDE4FF12836B12854A90000212405E
:107CA700E4FC6F601412854A124135FBAAF0EAFD25
:107CB70078D7ECF2E4FF1284C978ADE22403F21816
:077CC700E23400F280B42258
:0188670022EE
:10561F002562782025627820256278000A3C523E68
:10562F0025303262785B25303262785D3D2530322D
:10563F00627800256278202562780025627820251F
:10564F0062782025627820256278200025316278E3
:10565F0020253162782025316278200052656164FF
:10566F004173696342797465203D3D20256278203E
:10567F000A0063682562643A256264200063682526
:10568F0062643A2562642063682562643A25626425
:10569F00200063682562643A25626420636825628E
:1056AF00643A2562642063682562643A2562642047
:1056BF000063682562643A2562642063682562642A
:1056CF003A2562642063682562643A256264206328
:1056DF00682562643A256264200063682562643A33
:1056EF002562642063682562643A256264206368DA
:1056FF002562643A2562642063682562643A2562F4
:10570F00642063682562643A256264200025626420
:10571F0020000A203D3D3D3D3D3D3D3D2050414750
:10572F00452025623278203D3D3D3D3D3D3D3D3D8F
:10573F003D3D3D3D0A002562327809000A002531C2
:10574F006278202531627820636825316278206382
:10575F006825316278206368253162782063682577
:10576F003162782000656E726563616C6C00656EE6
:10577F00667265657A6500656E686D6972726F72C3
:10578F0000656E766D6972726F7200656E656E6818
:10579F00616E636500656E626C616E6B00656E6253
:1057AF006F756E6400656E626C696E6B0064697311
:1057BF00726563616C6C00646973667265657A65A6
:1057CF0000646973686D6972726F720064697376D1
:1057DF006D6972726F7200646973656E68616E6372
:1057EF006500646973626C616E6B00646973626FEC
:1057FF00756E6400646973626C696E6B003D3D3D4C
:10580F003D3D20466F726D6174203A206368303DD4
:10581F005B2562785D206368313D5B2562785D2092
:10582F006368323D5B2562785D206368333D5B259D
:10583F0062785D203D3D3D3D3D0A00256278202583
:10584F0062782063682562783A256278206368253C
:10585F0062783A2562782063682562783A25627803
:10586F002063682562783A25627820003332310050
:10587F002600280029006275737700627573720025
:10588F00616D697800616D757465006164756D7027
:10589F0000616761696E00616C697665006275739E
:1058AF00727400766D697800766D69786572720032
:1058BF0076617474720079766D697800696E6974B7
:1058CF000076646574007673657466007373747222
:1058DF00006873636F6D006D6F6465006469737347
:0F58EF0063726F6C6C0076657200010204081022
:048841004100D8001A
:105FDA0008F208E4F2087400F2087427F208E4F2FE
:105FEA00087400F208742CF208E4F2087400F2084B
:105FFA007428F208E4F2087400F208742DF208E436
:10600A00F2087400F2742908F208E4F2082208F28D
:10601A0008E4F2087400F2087427F208E4F208743B
:10602A0000F208742CF208E4F2087400F2087428EA
:10603A00F208E4F2087400F208742DF208E4F20897
:10604A007400F2742908F208E4F20822789EE2FB4E
:10605A0008E2FA08E2F92208F208E4F2087400F207
:10606A00087427F208E4F2087400F208742BF208A4
:10607A00E4F2087400F2742808F208E4F2082278BC
:10608A00AD74FFF2087456F2748108F208E4F2085B
:10609A00227400F208742EF208E4F2087400F27412
:1060AA002A08F208E4F208227400F208742EF208B0
:1060BA00E4F2087400F2742A08F208E4F20822747E
:1060CA0000F208742CF208E4F2087400F274290849
:1060DA00F208E4F2082278AD74FFF2087456F274FA
:1060EA008C08F208E4F2082278AD74FFF2087457BB
:1060FA00F2741C08F208E4F208227400F274270809
:10610A00F208E4F208227400F2742708F208E4F2B2
:10611A00082208F20874FEF2087400F2745608F2B3
:10612A000874FEF20822EBF208EAF208E9F278AD06
:10613A0074FEF2082208F208E4F2082278AD74FF2D
:10614A00F2082208F208E4F2082208F208E4F20847
:10615A002208F208E4F2082208F208E4F20822E22D
:10616A00FF78A874FEF2087400F208745BF27BFEF2
:10617A007A0079562208F208E4F2082208F208E4C2
:10618A00F20822EBF208EAF208E9F222900001E4AE
:10619A0075F00102416008F208E4F20822FFE224E5
:1061AA005FF8EFF222E25401FB7D2022252AF52A2C
:1061BA0008E254032278A9EFF27BFF7A56792B780A
:1061CA00A722E5289058F993FFE527932F22124139
:0B61DA00BE0240CB08F208E4F20822ED
:10790E0078AA12618D081260581261D87002FF2297
:10791E0078AD1260581261D8B4200A78AD12605852
:10792E0012619680EB78AD1260581241BEC003C052
:10793E0002C00178AA1260581241DE802178AD1281
:10794E0060581261D8FEB4200FE412411178AD12C6
:10795E0060581261967F0122EE70037F012278AD8E
:08796E0012605812619680D5E9
:0581E20078AA12618D76
:1081E700E4F531F53278AA1260581240CB60257851
:1081F700AAE2FB0808E2F92401F218E2FA3400F2D5
:108207001240CBFF3395E0FEEF2532F532EE3531E4
:08821700F53180D1AE31AF3228
:01821F00223C
:0F87ED007F411200037F431200037F4B02000302
:1080E000E4F52A7856E254031261B625E025E01241
:1080F00061B6C454F01261B6C4333354C0252AF5B6
:108100002A7855E2B5070B785AE2B52A05E4786576
:10811000F22278657401F2785AE52AF27855EFF286
:01812000223C
:10805B001261467456F2741F1260117400F2742789
:10806B0012604F7400F274281260827400F208746C
:10807B0029F2125387AB28AD27E4FF12836B1261F1
:10808B00BFE527F208E528F21250100528E528B5C0
:02809B0029E3D7
:01809D0022C0
:10839E001261467456F274421260947400F274279D
:1083AE001260AB7400F2087428F2125387AB28AD3A
:1083BE0027E4FF12836B1261BFE527F208E528F26E
:0383CE000250104A
:1083D1001261467456F2741F1260C27400F274275F
:1083E1001260D97400F274281260EB7400F2087400
:1083F10029F212538778D7E529F2AB28AD27E4FF9C
:038401000284C929
:107E1A00E4F527F528F529F52AC003C002126146C0
:107E2A007456F2744A1260FD7400F27427126109E2
:107E3A007400F274281261157400F2742912613FF9
:107E4A007400F208742AF2D002D00312538778D74A
:0C7E5A00E52AF2AB29AD28E4FF0284C940
:107F4300E4F527F528F529F52A1261467456F274EB
:107F53005B12613F7400F2742712614D7400F27476
:107F63002812614D7400F2087429F2125387AB2969
:107F7300AD28E4FF12836B8F2A7BFF7A56796B78E7
:077F8300A7E52AF2025010ED
:0265320078A44B
:106534001261307400F20874A4F27BFE7A0079A729
:1065440012790EE4FB7D1FFF12843778A71260587E
:106554001274BDEE600302666CEF24FE603D1460AD
:10656400651470030265EE14700302661624046059
:106574000302666C1260891261047400F208742CC0
:10658400F278A4126058125387AB2CAD27E4FF12A3
:106594007A9FE5279058F9930266641260E01261CD
:1065A400047400F2742C1261547400F274281261A1
:1065B400547400F208742DF278A412605812666DB7
:1065C4001261CC0266641261467456F274A1125FC1
:1065D400DA7400F208742EF278A412605812666D10
:1065E400AB2EAD291266830266641261467456F2BC
:1065F40074C0125FDA12609B7400F208742FF27890
:10660400A4126058126699126683FFE52A932F023A
:1066140066641261467456F20874E9125FDB126014
:106624009B7400F2742F12615B7400F2742B12617C
:106634005B7400F2087430F278A412605812669900
:10664400E4FF127A9FAB30AD2BE4FF127A9F126104
:10665400CCFFE529932FFFE52A932FFFE52B932FFA
:08666400FD7B01E4FF12843705
:10666C0022125387AB2CAD27E4FF127A9FAB2DADD2
:10667C0028E4FF127A9F22E4FF127A9FE5289058B3
:10668C00F993FFE527932FFFE529932F22125387C8
:10669C00AB2CAD27E4FF127A9FAB2DAD28E4FF1293
:1066AC007A9FAB2EAD29E4FF127A9FAB2FAD2A2235
:0F87FC00E4FB7D1FFF1284377DFFE4FF028572CF
:026AEA0078A48E
:106AEC001261307400F20874A4F27BFE7A0079A76C
:106AFC0012790E78A71260581274BDEE6003026B07
:106B0C00F1EF24FE602F14605414606E14700302B5
:106B1C006BA924046003026BF1126089126110747A
:106B2C0000F208742CF278A4126058125387AB2C24
:106B3C00AD27026BEC1260E01261107400F2742C41
:106B4C001261627400F274281261627400F20874AB
:106B5C002DF278A4126058126C0C026BEC12614688
:106B6C007456F274A11260187400F208742EF27844
:106B7C00A4126058126BF2026BEC1261467456F25E
:106B8C0074C01260181260B27400F208742FF2789C
:106B9C00A4126058126BF2126C1D026BEC1261465F
:106BAC007456F20874E91260191260B27400F2742F
:106BBC002F12617F7400F2742B12617F7400F20843
:106BCC007430F278A4126058126C0CE4FF127C1C26
:106BDC00AB2EAD29126C1DE4FF127C1CAB30AD2B1F
:056BEC00E4FF127C1C17
:106BF10022125387AB2CAD27E4FF127C1CAB2DADC9
:106C010028E4FF127C1CAB2EAD2922125387AB2C3A
:106C1100AD27E4FF127C1CAB2DAD2822E4FF127CD2
:066C21001CAB2FAD2A227E
:10875A001260F27400F2087427F2125387AD27E40C
:04876A00FF02857213
:107EFA00E4F5287BFF7A57792178A7E528F2125012
:107F0A0010E4F527AB27AD28E4FF12836B78A7EFBF
:107F1A00F27BFF7A5779451250100527E527540F4F
:107F2A0070097BFF7A57794B125010E52770D505F7
:087F3A0028E528C3940340BBB5
:017F4200221C
:107CCE00C003C002C0011261467457F2744D1261B6
:107CDE00867400F274271261867400F274281261A1
:107CEE001C7400F274571261287400F20874581252
:107CFE0061297400F2087459F2D001D002D0031237
:107D0E005387E527C454F0FFE528540F2FF52712AB
:067D1E006178FF02639D85
:055DCA0078A412618DB8
:105DCF00E4F52F126138125FB478A712605812747D
:105DDF00BD8F30126138125FB478A71260581281EC
:105DEF00E28E278F287A577974125F98B5280AEEBA
:105DFF00B52706752980025E8C7A57797D125F98D8
:105E0F00B5280AEEB52706752940025E8C7A5779B8
:105E1F0086125F9FB52809EEB52705752920805D8D
:105E2F007A577990125F9FB52809EEB52705752926
:105E3F0010804A7A57799A125FA6B52809EEB527CE
:105E4F000575290880377A5779A4125FA6B52809F6
:105E5F00EEB5270575290480247A5779AC125FAD0A
:105E6F00B52809EEB5270575290280117A5779B43F
:105E7F00125FADB5280DEEB52709752901752A01F9
:105E8F00025F367A5779BC125FC5B5280AEEB5277F
:105E9F0006752980025F197A5779C6125FC5B52832
:105EAF0009EEB5270575294080607A5779D0125FC2
:105EBF00CCB52809EEB52705752920804D7A57797D
:105ECF00DB125FCCB52809EEB52705752910803A8E
:105EDF007A5779E6125FD3B52809EEB527057529EC
:105EEF000880277A5779F1125FD3B52809EEB527C5
:105EFF000575290480147BFF7A5779FA1281E2EF36
:105F0F00B5280CEEB52708752902E4F52A80187B11
:105F1F00FF7A5879031281E2EF65287003EE652747
:105F2F007066752901F52A1261387400F20874A49D
:105F3F00F27BFE7A0079A712790EEF603278A71202
:105F4F0060581240CBB477DF9000011240E4B4697F
:105F5F00D69000021240E4B46ECDE92403F9E43A7E
:105F6F00FA1274BD742B252FF8A607052F80B8E5FC
:105F7F002F6015242AF8E6FFC395305007AB2AADE2
:085F8F002912846A152F80E736
:105F9700227BFF1281E2EF227BFF1281E2EF227B5D
:105FA700FF1281E2EF227BFF1281E2EF227400F2FF
:105FB7000874A4F27BFE7A0079A712790E227BFF80
:105FC7001281E2EF227BFF1281E2EF227BFF128137
:035FD700E2EF22D4
:1087BC001260F27400F2087427F2125387AF27028A
:0287CC00876EB6
:10840400E4FF127F8AC0077F01127F8AC0077F02C0
:10841400127F8AC0077F03127F8A78AAEFF218D0EE
:10842400E0F218D0E0F218D0E0F27BFF7A58790C31
:03843400025010E3
:0270C90078A4A9
:1070CB001261307400F20874A4F27BFE7A0079A787
:1070DB0012790E78A71260581274BDEE600302711C
:1070EB00B5EF24FE602A146051146076240360030C
:1070FB000271B51260897400F274271261A07400DA
:10710B00F208742BF278A41260581271D40271B089
:10711B001261467456F2748C1260617400F208743A
:10712B002CF278A41260581271D4E4FF12859AE500
:10713B002CC454F0FBAD280271B01261467456F2A8
:10714B0074A11260611260C97400F208742DF27898
:10715B00A41260581271B6E52DC454F0FBAD290290
:10716B0071B01261467456F20874C01260621260FC
:10717B00C97400F2742D1261A07400F2742A1261AA
:10718B00DE7400F208742EF278A41260581271B6F5
:10719B00E52DC454F0FBAD29E4FF12859AE52EC40E
:0A71AB0054F0FBAD2AE4FF12859AB0
:1071B50022125387E52BC454F0FBAD27E4FF12855B
:1071C5009AE52CC454F0FBAD28E4FF12859A2212EF
:0B71D5005387E52BC454F0FBAD2722CC
:027BBF0078A4A8
:107BC100126130127C091260581274BD8F27126144
:107BD10038127C091260581274BD8F287F041288F4
:107BE100617F031288647F0512867D78A4E2F9081B
:107BF100E2FA08E278ADC912618EAB28AD277F01A8
:087C0100127B007F05028336AF
:107C09007400F20874A4F27BFE7A0079A712790E47
:037C190078A72227
:10822000752801E4F527745B2527F8E230E40F7424
:10823000562527F8E2FDE4FF128572E4F5280527AC
:10824000E527C3940440DFE528600FE4FB7D1FFFB2
:0A8250001284377DFFE4FF128572EF
:01825A002201
:106C2700C003C002C0011261467458F2744A12616F
:106C3700DE7400F2087428F208E4F2087400F274B3
:106C47002912611C7400F208745B1261297400F246
:106C57000874571261297400F208745C1261297470
:106C670000F20874581261297400F208745D126109
:106C7700297400F20874591261297400F208745ECD
:106C8700F2D001D002D003125387E528C454F0FF95
:106C97007852E2FEC433333354802FFFE529540F73
:106CA7002F7864F2785BE278561261A7785CE27815
:106CB700571261A7785DE2FF78581261A8785EE203
:106CC700FF78591261A8785F1261AFE4FF12825B07
:106CD70078601261AF7F0112825B78611261AF7FCA
:106CE7000212825B78621261AF7F0312825B7BFEC6
:106CF7007A00795F126E8C7864126169124C47785A
:106D070064E2FF12617812639DE4F527745B25271F
:106D1700F81261AFAF2712846A0527E527C39404E9
:106D270040EAE4F510F511F5127513057F01128895
:106D3700387864E2FF1280E07F0812869AE4FF1237
:106D470086D01280177BFE7A00795B1248D178646F
:056D5700E29000D8F0FD
:016D5C002214
:1079DA007F03127F8AEFB40202C3227852E2B5070C
:1079EA0002D3227852EFF2E2C43333335480FF7861
:1079FA0055E2547F4FF27F011283367852E2FF122A
:107A0A007A3D7BFE7A00795F126E8C785512616935
:107A1A00124C477855E2FF12617812639DE4FF1217
:107A2A0086D01280177BFE7A00795B1248D11286C3
:027A3A0010D367
:017A3C002227
:108718001261467457F208741C1261297400F20839
:068728007453F2025387B6
:058857007F01028336E1
:10849B00E47F4D12000390587BE49324D0FF12002D
:1084AB000390587BA3E49324D075F00AA4FF1582A4
:0E84BB00758358A3A3E49324D02FFF0200037F
:0258FE00789E92
:105900001261307400F208749EF27BFE7A0079A175
:1059100012790E78A11260581281E28E258F267AB4
:1059200058797F125B3DB5260DEEB52509126056FC
:1059300012805B025B3A7A587981125B3DB5260D85
:10594000EEB5250912605612839E025B3A7A5879A9
:1059500083125B44B5260DEEB525091260561283FD
:10596000D1025B3A7A587985125B44B5260DEEB5C3
:105970002509126056127E1A025B3A7A58798A1209
:105980005B4BB5260DEEB52509126056127F43021A
:105990005B3A7A58798F125B4BB5260DEEB5250927
:1059A000126056126532025B3A7A587994125B5251
:1059B000B5260AEEB525061287FC025B3A7A5879BD
:1059C0009A125B52B5260AEEB525061261E5025B16
:1059D0003A7A5879A0125B59B5260DEEB525091211
:1059E0006056126AEA025B3A7A5879A6125B59B598
:1059F000260DEEB5250912605612875A025B3A7AD7
:105A00005879AC125B60B5260AEEB52506127EFA0F
:105A1000025B3A7A5879B2125B60B52615EEB5256D
:105A2000117F40128293126056127CCE1287ED02D3
:105A30005B3A7A5879B7125B67B5260DEEB5250942
:105A4000126056127CCE025B3A7A5879BF125B67BD
:105A5000B5260DEEB52509126056125DCA025B3AF5
:105A60007A5879C5125B6EB52610EEB5250C1287F3
:105A7000ED1260561287BC025B3A7A5879CB125B02
:105A80006EB5260AEEB5250612809E025B3A7A585C
:105A900079D0125B75B5260AEEB52506128404028C
:105AA0005B3A7A5879D5125B75B5260DEEB52509A6
:105AB0001260561270C9025B3A7A5879DB125B7C2D
:105AC000B5260DEEB52509126056127BBF025B3A72
:105AD0007A5879E0125B7CB5261AEEB52516128746
:105AE000ED126056126C27128220128610E4FF120B
:105AF000883880467A5879E6125B83B5260FEEB572
:105B0000250B1287ED126056128718802D7A58796E
:105B1000EB125B83B5260CEEB525081287ED1288D3
:105B20005780177BFF7A5879F51281E2EFB5260A84
:0C5B3000EEB525061287ED12849B7F0164
:105B3C00227BFF1281E2EF227BFF1281E2EF227BBC
:105B4C00FF1281E2EF227BFF1281E2EF227BFF1238
:105B5C0081E2EF227BFF1281E2EF227BFF1281E2D6
:105B6C00EF227BFF1281E2EF227BFF1281E2EF2218
:0E5B7C007BFF1281E2EF227BFF1281E2EF221B
:108701000D0A0044656275672050726F6772616D72
:07871100203E00504354001C
:107D78001287DEEF640170497895E270441286B686
:107D88008F25300003120003E52524F8601F24FB2B
:107D980070217894E2246BF8E4F2789504F27BFE83
:107DA8007A00796B1284F630001702882F7894E2F3
:107DB80014F2227894E2246BF8E525F27894E20430
:017DC800F2C8
:017DC9002297
:09882F007BFF7A877901028520A4
:0A82CB00789EEBF208EAF208E9F2EF
:1082D500789EE2FB08E2FA08E2F91240CB601C78CE
:1082E5009EE2FB0808E2F92401F218E2FA3400F2F2
:0B82F5001240CBF525FF12000380D5DE
:01830000225A
:10872E003000097BFF7A8779041282CBE47894F2C9
:06873E0008F2786BF22244
:09883800EF6003C20122D201220B
:0B881A00C200C201C221E47899F222E2
:1084F600789EEBF208EAF208E9F220001C789EE288
:10850600FB08E2FA08E2F8AC02AD037BFF7A877952
:0A851600141243D1EF7002D20022CC
:077FD10078A4EEF208EFF2C4
:107FD80078A5E2700218E26035E478A6F208F27833
:107FE800A6E2FE08E2FFE4FCFD7BD8FAF9F8D3121A
:107FF80041AD400D78A7E22401F218E23400F28086
:0E800800DE78A5E224FFF218E234FFF280C217
:018016002247
:10789900E4789BF20874C8F2087464F212865A12EA
:1078A900881A12886712809E12872E127D78789521
:1078B900E2B401097BFE7A00796B1258FE7895E2F1
:1078C900B4010312872E3021071279DA5002C2213E
:1078D9001287DEEF6008789CE2751200F513E51354
:1078E90064014512700CF512F513789DE2751000CC
:1078F900F511E5116401451070B11283017510008D
:0579090075111480A6B9
:10865A00E4F5B8F5A8758780F5D0758921F5887590
:10866A009852F5B175B2101287CE128744D299D2B8
:03867A00AF00222C
:100026001010FFFFFFFFFFFFFFFFFFFFFFFFFFFFB8
:10003600FFFFFFFFFFFFFFFFFFFFFFFFFFFFFFFFCA
:10004600FFFFFFFFFFFFFFFFFFFFFFFFFFFFFFFFBA
:10005600FFFFFFFFFFFFFFFFFFFFFFFFFFFFFFFFAA
:10006600FFFFFFFFFFFFFFFFFFFFFFFFFFFFFFFF9A
:10007600FFFFFFFFFFFFFFFFFFFFFFFFFFFFFFFF8A
:10008600FFFFFFFFFFFFFFFFFFFFFFFFFFFFFFFF7A
:10009600FFFFFFFFFFFFFFFFFFFFFFFFFFFFFFFF6A
:1000A600FFFFFFFFFFFFFFFFFFFFFFFFFFFFFFFF5A
:1000B600FFFFFFFFFFFFFFFFFFFFFFFFFFFFFFFF4A
:1000C600FFFFFFFFFFFFFFFFFFFFFFFFFFFFFFFF3A
:1000D600FFFFFFFFFFFFFFFFFFFFFFFFFFFFFFFF2A
:1000E600FFFFFFFFFFFFFFFFFFFFFFFFFFFFFFFF1A
:1000F600FFFFFFFFFFFFFFFFFFFFFFFFFFFFFFFF0A
:10010600FFFFFFFFFFFFFFFFFFFFFFFFFFFFFFFFF9
:10011600FFFFFFFFFFFFFFFFFFFFFFFFFFFFFFFFE9
:10012600FFFF1010FFFFFFFFFFFFFFFFFFFFFFFFB7
:10013600FFFFFFFFFFFFFFFFFFFFFFFFFFFFFFFFC9
:10014600FFFFFFFFFFFFFFFFFFFFFFFFFFFFFFFFB9
:10015600FFFFFFFFFFFFFFFFFFFFFFFFFFFFFFFFA9
:10016600FFFFFFFFFFFFFFFFFFFFFFFFFFFFFFFF99
:10017600FFFFFFFFFFFFFFFFFFFFFFFFFFFFFFFF89
:10018600FFFFFFFFFFFFFFFFFFFFFFFFFFFFFFFF79
:10019600FFFFFFFFFFFFFFFFFFFFFFFFFFFFFFFF69
:1001A600FFFFFFFFFFFFFFFFFFFFFFFFFFFFFFFF59
:1001B600FFFFFFFFFFFFFFFFFFFFFFFFFFFFFFFF49
:1001C600FFFFFFFFFFFFFFFFFFFFFFFFFFFFFFFF39
:1001D600FFFFFFFFFFFFFFFFFFFFFFFFFFFFFFFF29
:1001E600FFFFFFFFFFFFFFFFFFFFFFFFFFFFFFFF19
:1001F600FFFFFFFFFFFFFFFFFFFFFFFFFFFFFFFF09
:10020600FFFFFFFFFFFFFFFFFFFFFFFFFFFFFFFFF8
:10021600FFFFFFFFFFFFFFFFFFFFFFFFFFFFFFFFE8
:10022600FFFFFFFF1010FFFFFFFFFFFFFFFFFFFFB6
:10023600FFFFFFFFFFFFFFFFFFFFFFFFFFFFFFFFC8
:10024600FFFFFFFFFFFFFFFFFFFFFFFFFFFFFFFFB8
:10025600FFFFFFFFFFFFFFFFFFFFFFFFFFFFFFFFA8
:10026600FFFFFFFFFFFFFFFFFFFFFFFFFFFFFFFF98
:10027600FFFFFFFFFFFFFFFFFFFFFFFFFFFFFFFF88
:10028600FFFFFFFFFFFFFFFFFFFFFFFFFFFFFFFF78
:10029600FFFFFFFFFFFFFFFFFFFFFFFFFFFFFFFF68
:1002A600FFFFFFFFFFFFFFFFFFFFFFFFFFFFFFFF58
:1002B600FFFFFFFFFFFFFFFFFFFFFFFFFFFFFFFF48
:1002C600FFFFFFFFFFFFFFFFFFFFFFFFFFFFFFFF38
:1002D600FFFFFFFFFFFFFFFFFFFFFFFFFFFFFFFF28
:1002E600FFFFFFFFFFFFFFFFFFFFFFFFFFFFFFFF18
:1002F600FFFFFFFFFFFFFFFFFFFFFFFFFFFFFFFF08
:10030600FFFFFFFFFFFFFFFFFFFFFFFFFFFFFFFFF7
:10031600FFFFFFFFFFFFFFFFFFFFFFFFFFFFFFFFE7
:10032600FFFFFFFFFFFF1010FFFFFFFFFFFFFFFFB5
:10033600FFFFFFFFFFFFFFFFFFFFFFFFFFFFFFFFC7
:10034600FFFFFFFFFFFFFFFFFFFFFFFFFFFFFFFFB7
:10035600FFFFFFFFFFFFFFFFFFFFFFFFFFFFFFFFA7
:10036600FFFFFFFFFFFFFFFFFFFFFFFFFFFFFFFF97
:10037600FFFFFFFFFFFFFFFFFFFFFFFFFFFFFFFF87
:10038600FFFFFFFFFFFFFFFFFFFFFFFFFFFFFFFF77
:10039600FFFFFFFFFFFFFFFFFFFFFFFFFFFFFFFF67
:1003A600FFFFFFFFFFFFFFFFFFFFFFFFFFFFFFFF57
:1003B600FFFFFFFFFFFFFFFFFFFFFFFFFFFFFFFF47
:1003C600FFFFFFFFFFFFFFFFFFFFFFFFFFFFFFFF37
:1003D600FFFFFFFFFFFFFFFFFFFFFFFFFFFFFFFF27
:1003E600FFFFFFFFFFFFFFFFFFFFFFFFFFFFFFFF17
:1003F600FFFFFFFFFFFFFFFFFFFFFFFFFFFFFFFF07
:10040600FFFFFFFFFFFFFFFFFFFFFFFFFFFFFFFFF6
:10041600FFFFFFFFFFFFFFFFFFFFFFFFFFFFFFFFE6
:10042600FFFFFFFFFFFFFFFF1010FFFFFFFFFFFFB4
:10043600FFFFFFFFFFFFFFFFFFFFFFFFFFFFFFFFC6
:10044600FFFFFFFFFFFFFFFFFFFFFFFFFFFFFFFFB6
:10045600FFFFFFFFFFFFFFFFFFFFFFFFFFFFFFFFA6
:10046600FFFFFFFFFFFFFFFFFFFFFFFFFFFFFFFF96
:10047600FFFFFFFFFFFFFFFFFFFFFFFFFFFFFFFF86
:10048600FFFFFFFFFFFFFFFFFFFFFFFFFFFFFFFF76
:10049600FFFFFFFFFFFFFFFFFFFFFFFFFFFFFFFF66
:1004A600FFFFFFFFFFFFFFFFFFFFFFFFFFFFFFFF56
:1004B600FFFFFFFFFFFFFFFFFFFFFFFFFFFFFFFF46
:1004C600FFFFFFFFFFFFFFFFFFFFFFFFFFFFFFFF36
:1004D600FFFFFFFFFFFFFFFFFFFFFFFFFFFFFFFF26
:1004E600FFFFFFFFFFFFFFFFFFFFFFFFFFFFFFFF16
:1004F600FFFFFFFFFFFFFFFFFFFFFFFFFFFFFFFF06
:10050600FFFFFFFFFFFFFFFFFFFFFFFFFFFFFFFFF5
:10051600FFFFFFFFFFFFFFFFFFFFFFFFFFFFFFFFE5
:10052600FFFFFFFFFFFFFFFFFFFF1010FFFFFFFFB3
:10053600FFFF00000000FFFFFFFFFFFFFFFFFFFFC1
:10054600FF000000000000FFFFFFFFFFFFFFFFFFAF
:100556000000020202020000FFFFFFFFFFFFFFFF95
:100566000000020202020000FFFFFFFFFFFFFF0084
:10057600000202000002020000FFFFFFFFFFFF0073
:10058600000202000002020000FFFFFFFFFF000062
:1005960002020000000002020000FFFFFFFF000051
:1005A600020200FFFF0002020000FFFFFF00000240
:1005B600020000FFFF000002020000FFFF00000231
:1005C6000200000000000002020000FF000002021C
:1005D60002020202020202020202000000000202FD
:1005E60002020202020202020202000000000202ED
:1005F60000000000000000000202000000000202ED
:100606000000FFFFFFFF00000202000000000202E0
:100616000000FFFFFFFF00000202000000000000D4
:100626000000FFFFFFFF00000000000010100000A8
:10063600000000000000000000000000FFFF0002B4
:1006460002020202020202020202000000FF00028F
:10065600020202020202020202020200000000007E
:100666000002020000000000020202020000FF0079
:1006760000020200FFFFFF00000202020000FF006E
:1006860000020200FFFFFF00000202020000FF005E
:1006960000020200000000000202020000FFFF004C
:1006A600000202020202020202020000FFFFFF0035
:1006B600000202020202020202020000FFFFFF0025
:1006C60000020200000000000202020000FFFF001C
:1006D60000020200FFFFFF00000202020000FF000E
:1006E60000020200FFFFFF000002020200000000FD
:1006F60000020200000000000202020200000002E6
:1007060002020202020202020202020000000002CB
:1007160002020202020202020202000000FF0000C0
:10072600000000000000000000000000FFFF1010A5
:10073600FFFFFF00000000000000000000FFFFFFB9
:10074600FFFF00000202020202020202000000FF96
:10075600FF00000202020202020202020200000080
:100766000000000202000000000000020202000079
:1007760000000202020000FFFFFF0000020200006C
:10078600000002020000FFFFFFFFFF000202000060
:10079600000002020000FFFFFFFFFFFF0000000055
:1007A600000002020000FFFFFFFFFFFFFFFFFFFF49
:1007B600000002020000FFFFFFFFFFFFFFFFFFFF39
:1007C600000002020000FFFFFFFFFF000000000024
:1007D600000002020000FFFFFFFFFF000202000010
:1007E60000000202000000FFFFFF000002020000FE
:1007F60000000202020000000000000202020000E7
:10080600FF000002020202020202020202000000CF
:10081600FFFF00000202020202020202000000FFC5
:10082600FFFFFF0000000000000000000000FFFFC7
:100836001010000000000000000000000000FFFF94
:10084600FFFF00000202020202020202020000FF93
:10085600FFFF000002020202020202020202000080
:10086600FFFF00000202000000000002020200007A
:10087600FFFF000002020000FFFF0000020200006E
:10088600FFFF000002020000FFFF0000020200005E
:10089600FFFF00000202000000000002020200004A
:1008A600FFFF00000202020202020202020000FF33
:1008B600FFFF00000202020202020202000000FF25
:1008C600FFFF000002020000020202000000FFFF1C
:1008D600FFFF000002020000000202020000FFFF0C
:1008E600FFFF00000202000000000202020000FFFB
:1008F600FFFF000002020000FF00000202020000EB
:10090600FFFF000002020000FFFF000002020200DB
:1009160000FF000002020000FFFFFF0000020202CB
:1009260000FF000000000000FFFFFFFF00000000C6
:1009360000FF101000000000FFFFFFFFFFFFFFFF9A
:10094600000000000000000000FFFFFFFFFFFF00A7
:100956000000000000000C0C0000FFFFFFFF00007D
:100966000C0C000000000C0C0C0000000000000C39
:100976000C0C000000000C0C0C0C000000000C0C11
:100986000C0C000000000C0C0C0C0C0C0C0C0C0CD1
:100996000C0C000000000C0C0C0C0C0C0C0C0C0CC1
:1009A6000C0C000000000C0C0C000C0C0C0C000CC9
:1009B6000C0C000000000C0C0C00000C0C00000CD1
:1009C6000C0C000000000C0C0C0000000000000CD9
:1009D6000C0C000000000C0C0C0000000000000CC9
:1009E6000C0C000000000C0C0C0000FFFF00000CBB
:1009F6000C0C000000000C0C0C0000FFFF00000CAB
:100A06000C0C000000000C0C0C0000FFFF00000C9A
:100A16000C0C000000000C0C0C0000FFFF00000C8A
:100A26000C0C000000000000000000FFFF000000AA
:100A3600000000001010FF00000000000000000091
:100A46000000000000FFFF00000202020202020294
:100A56000202020000FFFF0000020202020202027E
:100A66000202020000FFFF00000000000000020278
:100A76000200000000FFFFFFFFFFFFFF0000020271
:100A8600020000FFFFFFFFFFFFFFFFFF0000020263
:100A9600020000FFFFFFFFFFFFFFFFFF0000020253
:100AA600020000FFFFFFFFFFFFFFFFFF0000020243
:100AB600020000FFFFFFFFFFFFFFFFFF0000020233
:100AC600020000FFFFFFFFFFFFFFFFFF0000020223
:100AD600020000FFFFFFFF00000000FF000002020F
:100AE600020000FFFFFFFF000202000000000202FA
:100AF600020000FFFFFFFF000202020000020202E6
:100B0600020000FFFFFFFF000002020202020202D3
:100B1600000000FFFFFFFFFF0000020202020200CA
:100B26000000FFFFFFFFFFFFFF00000000000000C6
:100B360000FFFFFFFFFF1010FFFFFFFFFFFFFFFF9C
:100B4600FFFFFFFFFFFFFFFFFFFFFFFFFF000000AC
:100B560000000000FFFFFFFFFFFFFFFF0000010195
:100B660001010000FFFFFFFFFFFFFF000001010181
:100B760001010000FFFFFFFFFFFF0000010101016F
:100B8600010000FFFFFFFFFFFF000001010101015F
:100B96000000000000000000000001010101010149
:100BA6000101010101010000000101010101010132
:100BB6000101010101010000000101010101010122
:100BC6000101010101010000000001010101010113
:100BD6000101010101010000FF0000010101010105
:100BE6000000000000000000FFFF000001010101FD
:100BF600010000FFFFFFFFFFFFFFFF0000010101F3
:100C060001010000FFFFFFFFFFFFFFFF00000101E2
:100C160001010000FFFFFFFFFFFFFFFFFF000000D5
:100C260000000000FFFFFFFFFFFFFFFFFFFFFFFFCA
:100C3600FFFFFFFFFFFFFFFF1010FFFFFFFFFFFF9C
:100C4600FFFFFFFFFFFFFFFFFFFFFFFFFFFF0000AC
:100C56000000000000FFFFFFFFFFFFFFFFFF000097
:100C6600010101010000FFFFFFFFFFFFFFFF000082
:100C760001010101010000FFFFFFFFFFFFFFFF0071
:100C86000001010101010000FFFF0000000000005B
:100C9600000001010101010000FF00000101010146
:100CA6000101010101010101000000000101010132
:100CB6000101010101010101010000000101010121
:100CC6000101010101010101010000000000000015
:100CD600000001010101010000FF0000000000000A
:100CE600000001010101010000FFFFFFFFFFFF00FF
:100CF6000001010101010000FFFFFFFFFFFF0000EF
:100D060001010101010000FFFFFFFFFFFFFF0000DF
:100D1600010101010000FFFFFFFFFFFFFFFF0000D1
:100D26000000000000FFFFFFFFFFFFFFFFFFFFFFC8
:100D3600FFFFFFFFFFFFFFFFFFFF1010FFFFFFFF9B
:100D46000000000000000000FFFFFFFFFFFFFFFFA5
:100D56000000010101010000FFFFFFFFFFFFFFFF91
:100D66000000010101010000FFFFFFFFFFFFFFFF81
:100D76000000010101010000FFFFFFFFFFFFFFFF71
:100D86000000010101010000FFFFFFFF000000005D
:100D96000000010101010000000000000000010147
:100DA6000000010101010000010100000000010135
:100DB6000100010101010001010100000000010123
:100DC6000101010101010101010100000000010111
:100DD600010101010101010101010000FF00000103
:100DE6000101010101010101010000FFFFFF0000F7
:100DF60001010101010101010000FFFFFFFFFF00EA
:100E0600000101010101010000FFFFFFFFFFFFFFDD
:100E16000000010101010000FFFFFFFFFFFFFFFFD0
:100E2600FF000001010000FFFFFFFFFFFFFFFFFFC4
:100E3600FFFF00000000FFFFFFFFFFFF1010FFFF96
:100E4600FFFFFFFFFFFF0000000000000000FFFFA4
:100E5600FFFFFFFFFF000002020202020000FFFF89
:100E6600FFFFFFFF00000202020202020000FFFF76
:100E7600FFFFFF0000020202000002020000000065
:100E86000000000002020200000002020000000052
:100E96000202020202020200FF000202000000003B
:100EA6000202020202020200FF000202000000002B
:100EB6000202000000020200FF0002020000000021
:100EC600020200FF00020200FF0002020000000012
:100ED6000202000000020200FF0002020000000001
:100EE6000202020202020200FF00020200000000EB
:100EF60002020202020202000000020200000000DA
:100F06000000000000020202000002020000FFFFD3
:100F1600FFFFFFFF00000202020202020000FFFFC5
:100F2600FFFFFFFFFF000002020202020000FFFFB8
:100F3600FFFFFFFFFFFF0000000000000000101091
:100F46000000000000FFFFFFFFFFFF0000000000A1
:100F56000004040400FFFFFFFFFFFF000404040079
:100F66000004040400FFFFFFFFFFFF000404040069
:100F76000004040400FFFFFFFFFFFF000404040059
:100F86000004040400FFFFFFFFFFFF000404040049
:100F9600000404040000FFFFFFFF00000404040037
:100FA600000404040400FFFFFFFF0004040404001F
:100FB600000004040400FFFFFFFF00040404000017
:100FC60000000404040000FFFF0000040404000005
:100FD600FF0000040404000000000404040000FFF5
:100FE600FFFF000004040400000404040000FFFFE7
:100FF600FFFF000000040400000404000000FFFFDF
:10100600FFFFFF00000404040404040000FFFFFFC8
:10101600FFFFFFFF0000040404040000FFFFFFFFC2
:10102600FFFFFFFFFF00000404000000FFFFFFFFBB
:10103600FFFFFFFFFFFF0000000000FFFFFFFFFFB5
:10104600101000000000000000FFFFFFFFFFFFFF81
:10105600FFFF00000404040000FFFFFFFFFFFFFF87
:10106600FFFF00000404040000FFFFFFFFFFFFFF77
:10107600FFFF00000404040000FFFFFFFFFFFFFF67
:10108600FFFF00000404040000FFFFFFFFFFFFFF57
:10109600FFFF00000404040000FFFFFFFFFFFFFF47
:1010A600FFFF00000404040000FFFFFFFFFFFFFF37
:1010B600FFFF00000404040000FFFFFFFFFFFFFF27
:1010C600FFFF00000404040000FFFFFFFFFFFFFF17
:1010D600FFFF00000404040000FFFFFFFFFF000005
:1010E600000000000404040000FFFFFFFFFF0000F3
:1010F600000000000404040000FFFFFFFF000004DE
:1011060000000000040404000000000000000404C5
:101116000000000004040404040404040404040499
:101126000000000004040404040404040404040489
:1011360000000000000000000000000000000000A9
:1011460000001010FFFFFFFFFFFFFFFFFFFFFFFF85
:10115600FFFFFFFFFFFFFFFFFFFFFFFFFFFFFFFF99
:10116600FFFFFFFFFFFFFFFFFFFFFFFFFFFFFFFF89
:10117600FFFFFFFFFFFFFFFF00000000000000FF72
:10118600FFFFFFFFFFFFFF00000004040400000054
:10119600FFFFFFFFFFFF0000040404040404040033
:1011A60000FFFFFFFF000004040400000004040425
:1011B6000000FFFF00000004040000FF000004041C
:1011C600000000FF00000404040000FF0000040407
:1011D600040000FF00000404040000FF00000404F3
:1011E600040000FF00000404040000FF00000404E3
:1011F600040000FF00000004040000FF00000404D7
:10120600000000FFFF0000040404000000040404C2
:101216000000FFFFFFFF00000404040404040400B0
:1012260000FFFFFFFFFFFF000000040404000000B2
:10123600FFFFFFFFFFFFFFFF00000000000000FFB1
:10124600FFFFFFFF1010FFFFFFFFFFFFFFFFFFFF86
:10125600FFFFFFFFFFFFFFFFFFFFFFFFFFFFFFFF98
:10126600FFFFFFFFFFFFFFFFFFFFFFFFFFFFFFFF88
:10127600FFFFFFFFFFFFFFFFFFFF00000000000072
:101286000000FFFFFFFFFFFF00000000040404044E
:10129600000000FFFFFFFF00000004040404040434
:1012A60004040000FFFFFF00000404040000000027
:1012B6000404040000FFFF00000404040000FF0013
:1012C6000000000000FFFF0000000404040400000A
:1012D6000000FFFFFFFFFFFFFF00000404040404FB
:1012E600040000FFFFFFFFFFFFFF000000000404F3
:1012F60004040000FFFFFF0000000000FFFF0000E5
:101306000404040000FFFF000004040400000000C1
:101316000404040000FFFF000000040404040404A5
:1013260004040000FFFFFFFFFF00000004040404A4
:10133600000000FFFFFFFFFFFFFFFF0000000000AF
:101346000000FFFFFFFF101004040FFFFFFFFFFF69
:10135600FFFF0404FFFFFFFF040404FFFFFFFFFF7E
:10136600FFFF0404FFFFFFFF0404040FFFFFFFFF5E
:10137600FFFF0404FFFFFFFF040404040FFFFFFF49
:10138600FFFF0404FFFFFFFF0404FF0404FFFFFF49
:10139600FFFF0404FFFFFF040404FF04040FFFFF24
:1013A600FFFF0404FFFFFF040404FFFF0404FFFF24
:1013B600FFFF0404FFFFFF040404FFFF04040FFF04
:1013C600FFFF0404FFFFFF040404FFFFFF04040FF4
:1013D600FFFF0404FFFFFF040404FFFFFFFF0404F4
:1013E600FFFF0404FFFFFF040404FFFFFFFF0404E4
:1013F6000FFF0404FFFFFF040404FFFFFFFFFF04C9
:1014060004FF0404FFFFFF040404FFFFFFFFFFFFC8
:1014160004040404FFFFFFFF0404FFFFFFFFFFFFB8
:1014260004040404FFFFFFFF0404FFFFFFFFFFFFA8
:10143600FF040404FFFFFFFF0404FFFFFFFFFFFF9D
:10144600FF040404FFFFFFFF1010FFFFFF04040466
:101456000404040FFFFFFFFFFFFFFFFF0404040463
:1014660004040404040FFFFFFFFFFF040404FFFF4E
:10147600FFFFFF0404040FFFFFFF04040FFFFFFF3D
:10148600FFFFFFFF040404FFFFFF0404FFFFFFFF4D
:10149600FFFFFFFFFF04040FFFFF040FFFFFFFFF27
:1014A600FFFFFFFFFF040404FFFF04FFFFFFFFFF32
:1014B600FFFFFFFFFFFF0404FFFF04FFFFFFFFFF27
:1014C600FFFFFFFFFFFF0404FFFF04FFFFFFFFFF17
:1014D600FFFFFFFFFFFF0404FFFF04FFFFFFFFFF07
:1014E600FFFFFFFFFFFF0404FFFF040FFFFFFFFFE7
:1014F600FFFFFFFFFF040404FFFF0404FFFFFFFFDD
:10150600FFFFFFFFFF04040FFFFF04040FFFFFFFB1
:10151600FFFFFFFF040404FFFFFFFF040404FFFFB7
:10152600FFFFFF0404040FFFFFFFFFFF0404040492
:1015360004040404040FFFFFFFFFFFFFFFFF040482
:101546000404040FFFFFFFFFFFFF1010FFFFFFFF64
:10155600FF04040FFFFFFFFFFFFFFFFFFFFFFFFF7B
:10156600FF040404FFFFFFFFFFFFFFFFFFFFFFFF76
:10157600FFFF0404FFFFFFFFFFFFFFFFFFFFFFFF6B
:10158600FFFF04040FFFFFFFFFFFFFFFFFFFFFFF4B
:10159600FFFFFF0404FFFFFFFFFFFFFFFFFFFFFF4B
:1015A600FFFFFF04040FFFFFFFFFFFFFFFFFFFFF2B
:1015B600FFFFFF040404FFFFFFFFFF04FFFFFFFF21
:1015C600FFFFFFFF0404FFFFFFFFFF04FFFFFFFF16
:1015D600FFFFFFFF04040FFFFFFFFF04FFFFFFFFF6
:1015E600FFFFFFFF040404FFFFFF0404FFFFFFFFEC
:1015F600FFFFFFFFFF04040FFFFF0404FFFFFFFFD1
:10160600FFFFFFFFFF04040FFFFF0404FFFFFFFFC0
:10161600FFFFFFFFFFFF0404FF04040FFFFFFFFFB0
:10162600FFFFFFFFFFFF04040F0404FFFFFFFFFFA0
:10163600FFFFFFFFFFFF0404040404FFFFFFFFFF9B
:10164600FFFFFFFFFFFFFF0404040FFF1010FFFF63
:101656000404FFFF04040FFFFFFF04040404FF0457
:101666000404FFFF04040FFFFFFF04040404FF0447
:10167600040FFFFF04040FFFFFFF04040FFFFF0426
:1016860004FFFFFF04040FFFFFFF04040FFF040421
:101696000FFFFFFF04040FFFFFFF04040FFF040406
:1016A6000FFFFFFF04040FFFFFFF04040FFF0404F6
:1016B600FFFFFFFF04040FFFFFFF04040FFF040FEB
:1016C600FFFFFFFF04040FFFFFFF04040FFF04FFEB
:1016D600FFFFFFFF04040FFFFFFF04040FFF04FFDB
:1016E600FFFFFFFF04040FFFFFFF04040FFF0FFFC0
:1016F600FFFFFFFF04040FFFFFFF04040FFFFFFFC0
:10170600FFFFFFFF04040FFFFFFF04040FFFFFFFAF
:10171600FFFFFFFF04040FFFFFFF04040FFFFFFF9F
:10172600FFFFFFFF04040FFFFFFF04040FFFFFFF8F
:10173600FFFFFFFF04040FFFFFFF04040404FFFF85
:10174600FFFFFFFF04040FFFFFFF04040404101053
:1017560004040404040FFFFFFFFFFFFF0404040456
:1017660004040404040404FFFFFFFFFF040404044C
:10177600FFFFFFFFFF040404FFFFFFFF04040FFF4A
:10178600FFFFFFFFFFFF04040FFFFFFF04040FFF2F
:10179600FFFFFFFFFFFF040404FFFFFF04040FFF2A
:1017A600FFFFFFFFFFFFFF0404FFFFFF04040FFF1F
:1017B600FFFFFFFFFFFFFF04040FFFFF04040FFFFF
:1017C600FFFFFFFFFFFFFF04040FFFFF04040404F5
:1017D600FFFFFFFFFFFFFF04040FFFFF04040404E5
:1017E600FFFFFFFFFFFFFF04040FFFFF04040FFFCF
:1017F600FFFFFFFFFFFFFF0404FFFFFF04040FFFCF
:10180600FFFFFFFFFFFF040404FFFFFF04040FFFB9
:10181600FFFFFFFFFFFF04040FFFFFFF04040FFF9E
:10182600FFFFFFFFFF040404FFFFFFFF04040FFF99
:1018360004040404040404FFFFFFFFFF040404047B
:1018460004040404040FFFFFFFFFFFFF0404040465
:10185600101004040404040404040FFFFFFFFFFF38
:10186600FF0404040404040404040FFFFFFFFF0440
:101876000404FFFFFFFFFFFFFFFFFFFFFFFF04045E
:10188600040FFFFFFFFFFFFFFFFFFFFFFF0404043E
:10189600FFFFFFFFFFFFFFFFFFFFFFFFFF04040F38
:1018A600FFFFFFFFFFFFFFFFFFFFFFFFFF0404FF38
:1018B600FFFFFFFFFFFFFFFFFFFFFFFF04040FFF18
:1018C600FFFF040404040404040FFFFF04040FFFD5
:1018D600FFFF040404040404040FFFFF04040FFFC5
:1018E600FFFFFFFFFFFFFFFFFFFFFFFF04040FFFE8
:1018F600FFFFFFFFFFFFFFFFFFFFFFFFFF0404FFE8
:10190600FFFFFFFFFFFFFFFFFFFFFFFFFF04040FC7
:10191600FFFFFFFFFFFFFFFFFFFFFFFFFF040404C2
:10192600FFFFFFFFFFFFFFFFFFFFFFFFFFFF0404B7
:10193600040F04040404040404040FFFFFFFFF045F
:10194600040404040404040404040FFFFFFFFFFF5F
:10195600FF0410100404040404FFFFFFFFFFFFFF51
:10196600FFFFFFFF0404040404040FFFFFFFFFFF53
:10197600FFFFFFFFFFFFFFFF0404040FFFFFFFFF52
:10198600FFFFFFFFFFFFFFFFFFFF04040FFFFFFF47
:10199600FFFFFFFFFFFFFFFFFFFF040404FFFFFF42
:1019A600FFFFFFFFFFFFFFFFFFFFFF04040FFFFF27
:1019B600FFFFFFFFFFFFFFFFFFFFFF04040FFFFF17
:1019C600FFFFFFFFFFFFFFFFFFFFFF04040FFFFF07
:1019D600FFFFFFFFFFFFFFFFFFFFFF04040FFFFFF7
:1019E600FFFFFFFFFFFFFFFFFFFFFF04040FFFFFE7
:1019F600FFFFFFFFFFFFFFFFFFFFFF04040FFFFFD7
:101A0600FFFFFFFFFFFFFFFFFFFF040404FFFFFFD1
:101A1600FFFFFFFFFFFFFFFFFFFF04040FFFFFFFB6
:101A2600FFFFFFFFFFFFFFFF04040404FFFFFFFFAC
:101A3600FFFFFFFF0404040404040FFFFFFFFFFF82
:101A4600FFFFFFFF0404040404FFFFFFFFFFFFFF87
:101A5600FFFFFFFF1010FFFFFFFFFF040404040455
:101A6600040FFFFFFFFFFFFFFFFF0404040404044D
:101A7600040404FFFFFFFFFFFF040404FFFFFFFF52
:101A8600FF040404FFFFFFFF040404FFFFFFFFFF42
:101A9600FFFF04040FFFFFFF04040FFFFFFFFFFF1C
:101AA600FFFF04040FFFFFFFFF0404FFFFFFFFFF1C
:101AB600FFFFFFFFFFFFFFFFFF0404040404FFFF17
:101AC600FFFFFFFFFFFFFFFFFFFF04040404040402
:101AD6000404FFFFFFFFFFFFFFFFFFFFFF040404F7
:101AE6000404040FFFFFFFFFFFFFFFFFFFFFFFFFE1
:101AF600FF0404040FFFFF04040FFFFFFFFFFFFFB7
:101B0600FFFF04040FFFFFFF0404FFFFFFFFFFFFBB
:101B1600FFFF04040FFFFFFF04040FFFFFFFFFFF9B
:101B2600FFFF04040FFFFFFF04040404FFFFFFFF91
:101B3600FF040404FFFFFFFFFF040404040404047D
:101B4600040404FFFFFFFFFFFFFFFF040404040477
:101B5600040FFFFFFFFF1010FF04040FFFFFFFFF3E
:101B6600FFFFFF0404040404FF04040FFFFFFFFF4C
:101B7600FF04040404040404FF04040FFFFFFFFF32
:101B860004040404FFFFFFFFFF04040FFFFFFFFF31
:101B960004040FFFFFFFFFFFFF04040FFFFFFF0416
:101BA600040FFFFFFFFFFFFFFF04040FFFFFFF040B
:101BB60004FFFFFFFFFFFFFFFF04040FFFFFFF040B
:101BC60004FFFFFFFFFFFFFFFF04040FFFFF0404F6
:101BD60004FFFFFFFFFFFFFFFF04040FFFFF0404E6
:101BE6000FFFFFFFFFFF0404FF04040FFFFFFF04C6
:101BF60004FFFFFFFFFF0404FF04040FFFFFFF04C1
:101C060004FFFFFFFFFFFFFFFF04040FFFFFFF04BA
:101C1600040FFFFFFFFFFFFFFF04040FFFFFFFFF9F
:101C260004040FFFFFFFFFFFFF04040FFFFFFFFF8A
:101C360004040404FFFFFFFFFF04040FFFFFFFFF80
:101C4600FF04040404040404FF04040FFFFFFFFF61
:101C5600FFFFFFFF0404040410100404FFFFFFFF4E
:101C6600FFFFFF04040FFFFFFFFF0404040FFFFF45
:101C7600FFFFFF040404FFFFFFFFFF0404040FFF40
:101C8600FFFFFF0404040FFFFFFFFFFFFF0404FF35
:101C9600FFFFFF04040404FFFFFFFFFFFF04040F20
:101CA600FFFFFF040404040FFFFFFFFFFFFFFFFF1A
:101CB600FFFFFF0404FF04040FFFFFFFFFFFFFFF0A
:101CC600FFFFFF0404FFFF0404FFFFFFFFFFFFFF0A
:101CD600FFFFFF0404FFFF04040F040404040404CC
:101CE600FFFFFF0404FFFFFF0404040404040404CC
:101CF600FFFFFF0404FFFFFF0404FFFFFF040404CB
:101D0600FFFFFF0404FFFFFFFF04FFFFFF040404BF
:101D1600FFFFFF0404FFFFFFFFFFFFFFFF040404B4
:101D2600FFFFFF0404FFFFFFFFFFFFFF040404049F
:101D3600FFFFFF0404FFFFFFFFFF040404040FFF7F
:101D4600FFFFFF0404FFFFFFFFFF0404FFFFFFFF89
:101D5600FFFFFF0404FFFFFFFFFF1010FFFFFF045C
:101D660004FFFFFFFFFFFFFFFF040404FFFFFF0464
:101D760004FFFFFFFFFFFFFF04040404FFFFFF044F
:101D860004FFFFFFFFFFFFFF04040404FFFFFF043F
:101D960004FFFFFFFFFFFF040404FF04FFFFFF042F
:101DA60004FFFFFFFFFFFF04040FFF04FFFFFF0414
:101DB60004FFFFFFFFFFFF0404FFFFFFFFFFFF0419
:101DC60004FFFFFFFFFF04040FFFFFFFFFFFFF04F9
:101DD60004FFFFFFFFFF04040FFFFFFFFFFFFF04E9
:101DE60004FFFFFFFF040404FFFFFFFF0FFFFF04D4
:101DF60004FFFFFFFF04040404040404040FFF04AB
:101E060004FFFFFFFF040404040404040404FF04A5
:101E160004FFFFFF04040FFFFFFFFFFF04040F048E
:101E260004FFFFFF0404FFFFFFFFFFFFFF0404049E
:101E360004FFFF040404FFFFFFFFFFFFFFFF04048E
:101E460004FFFF04040FFFFFFFFFFFFFFFFF040473
:101E560004FFFF0404FFFFFFFFFFFFFF1010FFFF5B
:101E6600FFFFFFFFFFFF0404FFFFFFFFFFFF0FFF62
:101E7600FFFFFFFFFFFF0404FFFFFFFFFFFF0FFF52
:101E8600FFFFFFFFFFFF0404FFFFFFFFFFFF04FF4D
:101E9600FFFFFFFFFFFF0404FFFFFFFFFFFF040F2D
:101EA600FFFFFFFFFFFF0404FFFFFFFFFFFF040428
:101EB600FFFFFFFFFFFF0404FFFFFFFFFFFF040418
:101EC6000FFFFFFFFFFF0404FFFFFFFFFFFF0404F8
:101ED6000FFFFFFFFFFF0404FFFFFFFFFFFFFF04ED
:101EE60004FFFFFFFFFF0404FFFFFFFFFFFF0404E3
:101EF600040FFFFFFFFF0404FFFFFFFFFFFF0404C3
:101F06000404FFFFFFFF0404FFFFFFFFFFFFFFFFC7
:101F160004040FFFFFFF0404FFFFFFFFFFFFFFFFA7
:101F260004040FFFFFFF0404FFFFFFFFFFFFFFFF97
:101F3600FF0404FFFFFF0404FFFFFFFFFFFFFFFF97
:101F4600FF04040FFFFF0404040404040404FFFF59
:101F5600FFFF0404FFFF0404040404040404101037
:101F6600FFFFFFFFFF000000000000FFFFFFFFFF75
:101F7600FFFFFF00000002020202000000FFFFFF59
:101F8600FFFF000002020202020202020000FFFF3F
:101F9600FF0000020202000000000002020000FF33
:101FA600FF0002020200FFFFFFFF0000020200FF27
:101FB600FF00020202020000FFFFFF00000000FF18
:101FC600FF000002020202020000FFFFFFFFFFFF08
:101FD600FFFF0000000002020202000000FFFFFFF8
:101FE600FFFFFFFFFF00000002020202020000FFE7
:101FF600FFFFFFFFFFFFFF0000000202020200FFDB
:10200600FF00000000FFFFFFFF000000020200FFCC
:10201600FF0002020000FFFFFFFF0000020200FFB8
:10202600FF0000020200000000000002020000FFA4
:10203600FFFF000002020202020202020000FFFF8E
:10204600FFFFFF00000002020202020000FFFFFF86
:10205600FFFFFFFFFF00000000000000FFFFFFFF83
:10206600101000000000000000000000000000004A
:10207600000000010101010101010101010101014D
:10208600010000010101010101010101010101013C
:10209600010000010101010101010101010101012C
:1020A6000100000000000000010101010000000025
:1020B6000000FFFFFFFFFF000101010100FFFFFF1E
:1020C600FFFFFFFFFFFFFF000101010100FFFFFF10
:1020D600FFFFFFFFFFFFFF000101010100FFFFFF00
:1020E600FFFFFFFFFFFFFF000101010100FFFFFFF0
:1020F600FFFFFFFFFFFFFF000101010100FFFFFFE0
:10210600FFFFFFFFFFFFFF000101010100FFFFFFCF
:10211600FFFFFFFFFFFFFF000101010100FFFFFFBF
:10212600FFFFFFFFFFFFFF000101010100FFFFFFAF
:10213600FFFFFFFFFFFFFF000101010100FFFFFF9F
:10214600FFFFFFFFFFFFFF000101010100FFFFFF8F
:10215600FFFFFFFFFFFFFF000000000000FFFFFF83
:10216600FFFF1010FFFFFFFFFFFFFFFFFFFFFFFF57
:10217600FFFFFFFFFFFFFFFFFFFFFFFFFFFFFFFF69
:10218600FFFFFFFFFFFFFFFFFFFFFFFFFFFFFFFF59
:10219600FFFFFFFFFFFFFFFFFFFFFFFFFFFFFFFF49
:1021A600FFFFFFFFFFFFFFFFFFFFFFFFFFFFFFFF39
:1021B600FFFFFFFFFFFFFFFFFFFFFFFFFFFFFFFF29
:1021C600FFFFFFFFFFFFFFFFFFFFFFFFFFFFFFFF19
:1021D600FFFFFFFFFFFFFFFFFFFFFFFFFFFFFFFF09
:1021E600FFFFFFFF1010FFFFFFFFFFFFFFFFFFFFD7
:1021F600FFFFFFFFFFFFFFFFFFFFFFFFFFFFFFFFE9
:10220600FFFFFFFFFFFFFFFFFFFFFFFFFFFFFFFFD8
:10221600FFFFFFFFFFFFFFFFFFFFFFFFFFFFFFFFC8
:10222600FFFFFFFFFFFFFFFFFFFFFFFFFFFFFFFFB8
:10223600FFFFFFFFFFFFFFFFFFFFFFFFFFFFFFFFA8
:10224600FFFFFFFFFFFFFFFFFFFFFFFFFFFFFFFF98
:10225600FFFFFFFFFFFFFFFFFFFFFFFFFFFFFFFF88
:10226600FFFFFFFFFFFF1010FFFFFFFFFFFFFFFF56
:10227600FFFFFFFFFFFFFFFFFFFFFFFFFFFFFFFF68
:10228600FFFFFFFFFFFFFFFFFFFFFFFFFFFFFFFF58
:10229600FFFFFFFFFFFFFFFFFFFFFFFFFFFFFFFF48
:1022A600FFFFFFFFFFFFFFFFFFFFFFFFFFFFFFFF38
:1022B600FFFFFFFFFFFFFFFFFFFFFFFFFFFFFFFF28
:1022C600FFFFFFFFFFFFFFFFFFFFFFFFFFFFFFFF18
:1022D600FFFFFFFFFFFFFFFFFFFFFFFFFFFFFFFF08
:1022E600FFFFFFFFFFFFFFFF1010FFFFFFFFFFFFD6
:1022F600FFFFFFFFFFFFFFFFFFFFFFFFFFFFFFFFE8
:10230600FFFFFFFFFFFFFFFFFFFFFFFFFFFFFFFFD7
:10231600FFFFFFFFFFFFFFFFFFFFFFFFFFFFFFFFC7
:10232600FFFFFFFFFFFFFFFFFFFFFFFFFFFFFFFFB7
:10233600FFFFFFFFFFFFFFFFFFFFFFFFFFFFFFFFA7
:10234600FFFFFFFFFFFFFFFFFFFFFFFFFFFFFFFF97
:10235600FFFFFFFFFFFFFFFFFFFFFFFFFFFFFFFF87
:10236600FFFFFFFFFFFFFFFFFFFF1010FFFFFFFF55
:10237600FFFFFFFFFFFFFFFFFFFFFFFFFFFFFFFF67
:10238600FFFFFFFFFFFFFFFFFFFFFFFFFFFFFFFF57
:10239600FFFFFFFFFFFFFFFFFFFFFFFFFFFFFFFF47
:1023A600FFFFFFFFFFFFFFFFFFFFFFFFFFFFFFFF37
:1023B600FFFFFFFFFFFFFFFFFFFFFFFFFFFFFFFF27
:1023C600FFFFFFFFFFFFFFFFFFFFFFFFFFFFFFFF17
:1023D600FFFFFFFFFFFFFFFFFFFFFFFFFFFFFFFF07
:1023E600FFFFFFFFFFFFFFFFFFFFFFFF1010FFFFD5
:1023F600FF0000FFFFFFFFFFF000000FFFFFFFFFE2
:1024060000222200FFFFFFFF00222200FFFFFFF055
:10241600022002200FFFFFF0022002200FFFFF0024
:102426002200002200FFFF00220FF02200FFF00230
:10243600200FF002200FF00220000002200F0022E1
:1024460022222222220000222222222222000022EE
:10245600000000002200002200FFFF0022000022F0
:1024660000FFFF002200000000FFFF000000101028
:1024760000000000000000FF022222222222000F9C
:102486000222222222222000000220000022220014
:10249600F00220FFF0022200F00220FFF0022200EC
:1024A600F00220000022200FF0022222222200FF4A
:1024B600F0022222222200FFF00220000022200F3A
:1024C600F00220FFF0022200F00220FFF0022200BC
:1024D60000022000002222000222222222222000C4
:1024E600022222222222000F00000000000000FF2C
:1024F60010101010101010101010101010101010D6
:062506001010101010106F
:1081620078B6E2FB08E2FA08E2F91240E4FF7898F6
:10817200E22F78D7F222F278B6E2FB0808E2F9247D
:1081820001F218E2FA3400F20240CB78B6E2FB08C0
:10819200E2FA08E2F922E22401F218E23400F222C1
:05885C00E47898F2220F
:0A66BC0078AEEFF208ECF208EDF200
:1066C60078AEE2FF25E0F2E22408F278B5F278AF80
:1066D600E2FE08E27803C333CE33CED8F979B0F3BD
:1066E600EE19F378B0E2240812819BAF037E007C9A
:1066F600017D0212412374262FF974003EFA78B602
:1067060074FFF208EAF208E912817878B11281780A
:1067160078B2F2E408F278B1E2FF78B3E2C39F40C0
:10672600030267DEE408F278B2E2FF78B4E2C39FC0
:1067360040030267CB12818D1240CB12816FE4FBBE
:106746007D02FF1284C99000011281627B011268EA
:10675600069000021281627B0212680612818D90F9
:10676600000312816C7B0312680E78D77480F27B6B
:106776000412680E78B8E2240412819B78B5E27898
:10678600D7F27B0512682108E278D7F27B071268F8
:1067960021E27E007802C333CE33CED8F91267DF0A
:1067A60012681620E7FA78AFE225E025E0440812E1
:1067B60067DF12681620E7FA78B5E204F218E224D9
:1067C60004F202672D78AEE278B5F278B0128198BD
:0867D60078B3E204F202671C33
:1067DE002278D7F27B097D02E4FF1284C97B0A7D01
:1067EE0002E4FF12836BEF543F448078D7F27B0AAA
:1067FE007D02E4FF1284C9227D02E4FF1284C922C5
:10680E007D02E4FF1284C9227B0A7D02E4FF12831B
:0D681E006BEF227D02E4FF1284C978AF22E7
:0A7B600078A7EFF208EDF208EBF24F
:107B6A000812818F12000E78ADEFF2C36480948000
:107B7A00404278A7E230E02F78A8E2FF08E2FD7CD5
:107B8A00000812818F1240CBFB1266BC78ADE2145A
:107B9A00F21812819878A8E22402F278ADE2D3644E
:107BAA0080948050D3800A78ADE2D3648094805068
:047BBA00F6128867D0
:017BBE0022A4
:108635000500000600000700000800000900000A08
:1086450000001F000020000B000C000D000E000FA5
:058655001011121200DB
:038845000121000E
:10758D007856E275F003A42435F9748635F0FA784F
:10759D00AA74FFF2082278A4900001E2FB08E2FA37
:1075AD0008E2F90240E478A4E2FB08E2FA08E2F905
:1075BD00227486F2087441F2227486F2087452F233
:1075CD00229000020240E4EAF208E9F2E4FB221202
:1075DD0040CB540C1313543FF527227486F20874D4
:1075ED004AF2E4FB7D0122EAF208E9F27B12227BEA
:1075FD00017D127C0022EBF208EAF208E9F22290FA
:10760D0000030240E47B017D0F7C00227B01FDFC29
:10761D007F0122EAF208E9F27B0F227B01E4FDFCF7
:0A762D007F41227BFE7A00795B2288
:107EB000126D5D12885C7F041288617F03128864F2
:107EC000E4F527AF27127EE50527E527C394064092
:107ED000F27F011283367FFF1288647F08127EE5ED
:047EE000E47853F2FD
:107EE4002212867D78A8E4F2087426F27B5AE4FD17
:067EF400FCFF1276D8220B
:1048D10078A41276037F021288617FFF12886478C0
:1048E10055E212422D491411492521494D22496AA7
:1048F10031499D3349CF344A07414A55914A6BA109
:104901004A99A24AC0B14B04B34B41B44B82C10096
:10491100004BE378A41275B51240CB20E103024BA2
:10492100E3024A6378A41275B51240CB30E1091253
:10493100758D1275D4124C2F1275A320E103024B11
:10494100E3785712758F127620024A9478A4127573
:10495100B51240CB30E10612758D124BE41275A3EE
:1049610020E103024BE3024AB378A41275B5124069
:10497100CB30E10912758D1275D4124C2F1275A32B
:1049810030E108785712758F124C2078A4900002FC
:104991001275A820E103024BE30249CA78A41275FB
:1049A100B51240CB30E10612758D124BE41275A39E
:1049B10030E108785712758F124C1178A41275B531
:1049C1001275CE20E103024BE37858024A4C78A4D9
:1049D1001275B51240CB30E10612758D124BF312F0
:1049E10075A330E108785712758F124C1178A41213
:1049F10075B51275CE20E103024BE3785812758F1D
:104A0100127620024B7D78A41275B51240CB30E1AD
:104A11000612758D124BF31275A330E10B78571204
:104A2100758F1275D4124C3778A41275B51275CEE4
:104A310030E108785812758F124C2078A41275B5A0
:104A410012760C20E103024BE3785912758F12762E
:104A510020024ABB78A41275B51240CB20E10302B3
:104A61004BE312758D1275D4802978A41275B51295
:104A710040CB30E10D12758D1275D47D297F011265
:104A81007B601275A320E103024BE3785712758F07
:104A91001275F47D29024BDE78A41275B51240CB54
:104AA10030E10612758D124C021275A320E103024A
:104AB1004BE3785712758F1275D47D3E024BDE7829
:104AC100A41275B51240CB30E10D12758D1275D45B
:104AD1007D297F01127B601275A330E10B7857129B
:104AE100758F1275F4124C3F78A41275B51275CEFC
:104AF10020E103024BE3785812758F1275F47D3E65
:104B0100024BDE78A41275B51240CB30E106127566
:104B11008D124C021275A330E10B785712758F126A
:104B210075D4124C3778A41275B51275CE20E103F5
:104B3100024BE3785812758F1275F47D3E024BDEFD
:104B410078A41275B51240CB30E10912758D12753A
:104B5100D4124C3F1275A330E10F785712758F12A2
:104B610075D47D3E7F01127B6078A41275B51275F4
:104B7100CE30E16E785812758F1275F47D14024BA8
:104B8100DE78A41275B51240CB30E10D12758D128D
:104B910075D47D147F01127B601275A330E10F780B
:104BA1005712758F1275D47D3E7F01127B6078A4F8
:104BB1001275B51275CE30E10F785812758F1275D6
:104BC100F47D147F01127B6078A41275B512760C06
:104BD10030E10F785912758F1275F47D3E7F011205
:104BE1007B6022EAF208E9F2E4FB7D147F01127B8B
:104BF1006022EAF208E9F2E4FB7D147F01127B6096
:104C010022EAF208E9F2E4FB7D147F01127B6022C3
:104C1100EAF208E9F2E4FB7D3E7F01127B6022EAC1
:104C2100F208E9F27B0F7D147F01127B60227D295E
:104C31007F01127B60227D3E7F01127B60227D1409
:064C41007F01127B6022DE
:078849007854E24480F222A2
:108301007B787D01E4FF12836BEF540FFF7863F2FA
:108311007854E26F601ED2217B31E4FDFF12836B42
:10832100EF547F78D7F27B31E4FDFF1284C9786383
:05833100E27854F22285
:055B8A0078A41276036F
:105B8F007F411288617855E212422D5BC2115BE9A9
:105B9F00215C37225C8C315CCA335D07345BC29168
:105BAF005BE9A15C37A25C8CB15CCAB35D07B40042
:105BBF00005D5478A41275B51275DC6003025C9613
:105BCF00125D9E1275B51240CB30E503025CB078C2
:105BDF0053E26003025D54025CC478A41275B512DF
:105BEF0075DC600D125D5512759B1275D47D1C808E
:105BFF0015125D911275B51240CB30E510125D6E26
:105C0F0012759C1275E87F01127B60800B7853E24E
:105C1F00700612761912763778A41275A51275DFF1
:105C2F006003025D11025C8278A41275B51275DCF7
:105C3F00600D125D5512759B1275D47D1C80151267
:105C4F005D911275B51240CB30E510125D6E127575
:105C5F009C1275E87F01127B60800B7853E270060F
:105C6F0012761912763778A41275A51275DF6003B4
:105C7F00025D117B01E4FDFC7F46025D5178A412A9
:105C8F0075B51275DC600E125D7812759B1275D4A6
:105C9F007D31025D44125D9E1275B51240CB30E529
:105CAF000C125DAB12759C1275E8025D447853E2DD
:105CBF006003025D54127619025D5178A41275B516
:105CCF001275DC600E125D7812759B1275D47D1CF7
:105CDF00025D447F1C125DB51275B51240CB30E5E5
:105CEF000C125DAB12759C1275E8025D447853E29D
:105CFF007053127619025D5178A41275A51275DFD3
:105D0F00601C125DC0E52725E0FFE433FE744A2FC7
:105D1F00F974863E12759B1275D47D4680177F46A7
:105D2F00125DB51275B51240CB30E50E125DC01283
:105D3F00759C1275E87F01027B607853E270061242
:055D4F00761912763701
:105D5400227B02E4FDFCFF127637E52725E0FFE411
:105D640033FE744A2FF974863E227B02E4FDFCFF65
:105D7400127637227B02E4FDFCFF127637E52725F5
:105D8400E0FFE433FE744A2FF974863E227B01E47B
:105D9400FDFC7F1C12763778A4227B01E4FDFC7F96
:105DA4003112763778A4227B02E4FDFCFF127637A9
:105DB400227B01E4FDFC12763778A4227B02E4FD09
:065DC400FCFF12763722FD
:1038140078A41276037F0C1288617855E212422D47
:1038240038521138612138862238A83138E93339C1
:10383400223439674139C89139E2A13A16A23A488B
:10384400B13A9BB33AE6B43B37C100003BA31275CF
:10385400B31240CB30E0030239D10239DB1275B325
:103864001240CB30E00B12759C1275BE123C2680C0
:1038740003123BFB78A41275A530E003023A01025F
:103884003A0E1275B31240CB30E00812759C123B0D
:10389400A48003123BC678A41275A530E003023A53
:1038A40035023A421275B31240CB30E00B12759CCC
:1038B4001275BE123C268003123BFB78A41275A538
:1038C40030E00B12759C1275BE123C5080081276C3
:1038D400127F171276371275B31275CE30E00302D9
:1038E40039B60239C11275B31240CB30E0081275F3
:1038F4009C123BA48003123BC678A41275A530E049
:103904000B12759C1275BE123C118003123BD1122E
:1039140075B31275CE30E0030239B60239C112759F
:10392400B31240CB30E00812759C123BB5800312F1
:103934003BDC78A41275A530E00B12759C1275BEA1
:10394400123C118003123BD11275B31275CE30E0D4
:103954000B12759C1275BE7B0F023B277B017D0FFA
:10396400023B301275B31240CB30E00812759C1242
:103974003BB58003123BDC78A41275A530E00B1232
:10398400759C1275BE123C3B8003123C061275B343
:103994001275CE30E00B12759C1275BE123C50802D
:1039A400081276127F171276371275B312760C301E
:1039B400E00B12759C1275BE7B0F023A3D7B017DB4
:1039C4000F023A941275B31240CB30E00A12759C80
:1039D4001275BEE4FB802E7B01E4FDFC802F127582
:1039E400B31240CB30E00B12759C1275BE123C5AD8
:1039F4008003123C3078A41275A530E00D12759C3A
:103A04001275BE7B0F7D2C023B961276127F2C0220
:103A14003BA01275B31240CB30E00B12759C1275AB
:103A2400BE123BE78003123C1B78A41275A530E05C
:103A34000D12759C1275BEE4FB7D41023B96127615
:103A440028023BA01275B31240CB30E00B12759CD8
:103A54001275BE123C5A8003123C3078A41275A52C
:103A640030E00B12759C1275BE123C64800812750E
:103A7400FC7F171276371275B31275CE30E00D1233
:103A8400759C1275BE7B127D41023B967B017D12B3
:103A94007C007F41023BA01275B31240CB30E00B97
:103AA40012759C1275BE123BE78003123C1B78A46E
:103AB4001275A530E00B12759C1275BE123C3B804A
:103AC40003123C061275B31275CE30E00D12759CCC
:103AD4001275BE7B127D41023B961275FC7F41023A
:103AE4003BA01275B31240CB30E00B12759C1275DB
:103AF400BE123BF18003123C4578A41275A530E058
:103B04000B12759C1275BE123C6E8006127628123A
:103B140076371275B31275CE30E00D12759C12759E
:103B2400BE7B127D17023B967B017D127C007F17C2
:103B3400023BA01275B31240CB30E00B12759C12FD
:103B440075BE123BF18003123C4578A41275A53072
:103B5400E00B12759C1275BE123C6E80061276281C
:103B64001276371275B31275CE30E00B12759C12B3
:103B740075BE123C6480081275FC7F1712763712EA
:103B840075B312760C30E00F12759C1275BE7B1261
:103B94007D417F01027B601275FC7F4112763722E2
:103BA4007486F2087441F2E4FB7D177F01127B6096
:103BB400227486F2087441F2E4FB7D177F01127BC4
:103BC40060227B01E4FDFC7F17127637227B01E43F
:103BD400FDFC7F41127637227B01E4FDFC7F171246
:103BE400763722E4FB7D177F01127B6022E4FB7DA4
:103BF400177F01127B60227B01E4FDFC7F2C12768F
:103C040037227B01E4FDFC7F4112763722E4FB7D01
:103C1400417F01127B60227B01E4FDFC7F17127659
:103C24003722E4FB7D2C7F01127B60227B01E4FDC3
:103C3400FC7F2C12763722E4FB7D417F01127B60EE
:103C4400227B01E4FDFC7F17127637227B0F7D1760
:103C54007F01127B6022E4FB7D2C7F01127B6022BA
:103C64007B127D177F01127B6022E4FB7D417F0183
:043C7400127B60223D
:1033AC0078A41276037F021288617855E212422DBE
:1033BC0033E71133F821342522344931348E333438
:1033CC00CB34351441357B91359DA235D5B1363989
:1033DC00B33688B436DAC10000374978A41275B513
:1033EC001240CB30E40302358602359378A4127573
:1033FC00B51240CB30E40B12759C1275C61237E136
:10340C0080031237C178A41275B51240CB30E40397
:10341C0002358612761202359878A41275B51240D0
:10342C00CB30E40812759C12374A800312376C7843
:10343C00A41275A530E4030235BE0235CB78A41274
:10344C0075B51240CB30E40B12759C1275C6123751
:10345C00E180031237C178A41275A530E40B127504
:10346C009C1275C61237EB80081276127F1F1276EB
:10347C003778A41275B51275CE30E40302356902A3
:10348C00357478A41275B51240CB30E40812759CD3
:10349C0012374A800312376C78A41275A530E40BEE
:1034AC0012759C1275C61237B7800312377778A441
:1034BC001275B51275CE30E4030235690235747895
:1034CC00A41275B51240CB30E40812759C12375B10
:1034DC00800312378278A41275A530E40B12759C08
:1034EC001275C61237B7800312377778A41275B5E8
:1034FC001275CE30E40B12759C1275C67B0F02361A
:10350C00CA7B017D0F0236D378A41275B51240CB5D
:10351C0030E40812759C12375B800312378278A452
:10352C001275A530E40B12759C1275C61237CC803F
:10353C00031237A178A41275B51275CE30E40B12B4
:10354C00759C1275C61237EB80081276127F1F120B
:10355C00763778A41275B512760C30E40B12759C84
:10356C001275C67B0F0235C67B017D0F0236327891
:10357C00A41275B51240CB30E40D12759C1275C6B1
:10358C00E4FB7D3402373C7B01E4FDFC7F340237E5
:10359C004678A41275B51240CB30E40B12759C1210
:1035AC0075C612378D80031237AC78A41275A5300E
:1035BC00E40D12759C1275C6E4FB7D4902373C7B09
:1035CC0001E4FDFC7F4902374678A41275B5124020
:1035DC00CB30E41112759C1275C6E4FB7D347F016F
:1035EC00127B60800A7B01E4FDFC7F341276377815
:1035FC00A41275A530E40B12759C1275C612380A0C
:10360C0080081275FC7F1F12763778A41275B512DC
:10361C0075CE30E40D12759C1275C67B127D490275
:10362C00373C7B017D127C007F4902374678A4121F
:10363C0075B51240CB30E40B12759C1275C612375F
:10364C008D80031237AC78A41275A530E40B12757B
:10365C009C1275C61237CC80031237A178A4127550
:10366C00B51275CE30E40D12759C1275C67B127DA9
:10367C004902373C1275FC7F4902374678A4127513
:10368C00B51240CB30E40B12759C1275C6123797ED
:10369C0080031237D678A41275A530E40B12759CF2
:1036AC001275C612380080031237F578A41275B55E
:1036BC001275CE30E40D12759C1275C67B127D1FEF
:1036CC0002373C7B017D127C007F1F02374678A4B9
:1036DC001275B51240CB30E40B12759C1275C612E4
:1036EC00379780031237D678A41275A530E40B12E5
:1036FC00759C1275C612380080031237F578A41227
:10370C0075B51275CE30E40B12759C1275C6123855
:10371C000A80081275FC7F1F12763778A41275B5D3
:10372C0012760C30E40F12759C1275C67B127D4913
:10373C007F01027B601275FC7F49127637227486FA
:10374C00F2087452F2E4FB7D1F7F01127B6022743D
:10375C0086F2087452F2E4FB7D1F7F01127B60221B
:10376C007B01E4FDFC7F1F127637227B01E4FDFC1C
:10377C007F49127637227B01E4FDFC7F1F127637DE
:10378C0022E4FB7D1F7F01127B6022E4FB7D1F7F07
:10379C0001127B60227B01E4FDFC7F49127637220B
:1037AC007B01E4FDFC7F1F12763722E4FB7D497F11
:1037BC0001127B60227B01E4FDFC7F341276372200
:1037CC00E4FB7D497F01127B60227B01E4FDFC7FE1
:1037DC001F12763722E4FB7D347F01127B60227B43
:1037EC000F7D1F7F01127B60227B01E4FDFC7F4972
:1037FC0012763722E4FB7D497F01127B60227B121B
:08380C007D1F7F01127B602289
:10801700E4FF12867D7853E224FE60110470291272
:10802700805012759C7486F2087444800C1280503C
:1080370012759C7486F2087447F2E4FB7D017F0198
:10804700127B607FFF128864227F031288647F049B
:048057001288612208
:10861000E4FF12867D785BE230E112127630123888
:10862000141276301233AC127630125B8A128849FB
:05863000E4FF028336A7
:10250C0000000000000000000000000000000000BF
:10251C0000000000000000000000000000000000AF
:10252C00003E007E00FE01CE038E7F8E7F8E738E6A
:10253C00738E738E7F8E7F8E01CE00FE007E003EEA
:10254C0000000000020006000E001E003FFE7FFE91
:10255C007FFE3FFE1E000E00060002000000000081
:10256C000000000000400060007000787FFC7FFEDF
:10257C007FFE7FFC007800700060004000000000CF
:10258C00000003C003C003C003C003C003C003C0EA
:10259C0003C03FFC1FF80FF007E003C001800000F0
:1025AC0003C003C007E007E00E700E701C381C3827
:1025BC00381C381C7FFE7FFE700E700E700E700E75
:1025CC007FF87FFC383E381E381E381E383C3FF8EA
:1025DC003FF8383C381E381E381E383E7FFC7FF8DA
:1025EC000FF81FFC3C1C380E780E700E700070003B
:1025FC0070007000700E700E380E3C1C1FFC0FF833
:10260C007FF07FF07078703C703C703C70787FF09D
:10261C007FE0778073C071E070F07078703C701E52
:10262C0000006006700E781E7C3E7FFE77EE73CE47
:10263C00718E700E700E700E700E700E700E700E1D
:10264C0000001FF81FF800E000E000E000E000E0F0
:10265C0000E000E000E070E079E03FC01F800F0078
:10266C0000000000000003C007800F001E003FFCAC
:10267C003FFC1E000F00078003C00000000000009C
:10268C0000000000000003C001E000F000783FFCF7
:10269C003FFC007800F001E003C0000000000000E7
:1026AC0000000000018001800180018011881998D0
:1026BC001DB81FF80FF007E003C0018000000000F8
:1026CC00003E007E00FE01CE038E7F8E7F8E738EC9
:1026DC00738E738E7F8E7F8E01CE00FE007E003E49
:1026EC00700E700E700E700E700E700E781E381C00
:1026FC00381C1C381C380E700FF007E003C001802A
:10270C000000380038003800380038003800380035
:10271C0038003800380038063806380E3FFE3FFEC9
:10272C000000000000000000000003800FE01C709F
:10273C00183038383838383818301C700FE00380AF
:10274C000000000000000000000003C00FF01C3867
:10275C001C000F0007E000F000381C380FF003C01D
:10276C00000000000000000000000000000000005D
:10277C00000000000000000000000000000000004D
:10278C00000000000000000000000000000000003D
:10279C00000000000000000000000000000000002D
:1027AC00000000000000000000000000000000001D
:1027BC00000000000000000000000000000000000D
:1027CC0000000000000000000000000000000000FD
:1027DC0000000000000000000000000000000000ED
:1027EC0000000000000000000000000000000000DD
:1027FC0000000000000000000000000000000000CD
:10280C0000000000000000000000000000000000BC
:10281C0000000000000000000000000000000000AC
:10282C00000000000000000000000000000000009C
:10283C00000000000000000000000000000000008C
:10284C00000000000000000000000000000000007C
:10285C00000000000000000000000000000000006C
:10286C00000000000000000000000000000000005C
:10287C00000000000000000000000000000000004C
:10288C00000000000000000000000000000000003C
:10289C00000000000000000000000000000000002C
:1028AC00000000000000000000000000000000001C
:1028BC00000000000000000000000000000000000C
:1028CC0000000000000000000000000000000000FC
:1028DC0000000000000000000000000000000000EC
:1028EC0000000000000000000000000000000000DC
:1028FC0000000000000000000000000000000000CC
:10290C0000000000000000000000000000000000BB
:10291C0000000000000000000000000000000000AB
:10292C00000007000F800F800F800F80070007004A
:10293C00070002000200000002000700070002006E
:10294C000000EE006600440088000000000000005B
:10295C00000000000000000000000000000000006B
:10296C00000008200820082008203FF80820082034
:10297C000820082008203FF80820082008200820FC
:10298C0000000FC01B603330333033001B000F00CE
:10299C0003C0036013303B3033301B600FC00300A7
:1029AC000000380844108420044004800900127090
:1029BC00E4880908120822084210822001C0000095
:1029CC0000000E001B00318031801B000E001C002B
:1029DC003678632061A060E0606030F01F9C0000DE
:1029EC0000000000000000000000000000000000DB
:1029FC00000000000000800060007000380018002B
:102A0C0000000004000800180010003000300030F6
:102A1C0000300030003000100018000800040002E4
:102A2C0000008000400060002000300030003000CA
:102A3C0030003000300020006000400080000000BA
:102A4C00000002004210222012400A800700FFFC06
:102A5C0007000A80124022204210020002000000EF
:102A6C0000000000030003000300030003007FF8D4
:102A7C007FF80300030003000300030000000000C4
:102A8C00000000000000000000000000000000003A
:102A9C00000018003C003C00180010002000400012
:102AAC0000000000000000000000000000007FF8A3
:102ABC007FF8000000000000000000000000000093
:102ACC0000000000000000000000000000000000FA
:102ADC00000000000000780084008400840078006E
:102AEC00000000180030006000C0018003000600E8
:102AFC000C00180030006000C000800000000000D6
:102B0C0000000FE0183030183038307830D8319859
:102B1C00331836183C183818301818300FE00000ED
:102B2C000000030007000F00030003000300030074
:102B3C000300030003000300030003001FE0000078
:102B4C0000000FE01830301830183038007001C019
:102B5C0003000E001800300830083FF83FF8000062
:102B6C00000007C0183030183018003000E003C0E7
:102B7C0000E00030001830183018183007C0000082
:102B8C00000000C001C003C006C00CC018C030C09B
:102B9C0060C0C0C0C0C0FFF800C000C003F000009F
:102BAC0000003FF03FF030003000300037C03830CC
:102BBC0030180018001830183018183007C00000F2
:102BCC00000007E01830303030003000300037E0C3
:102BDC003830301830183018301818300FC000004A
:102BEC0000003FF83FF8201820180030006000C0AB
:102BFC000180030003000300030003000300000036
:102C0C0000000780186030303030303018600FC052
:102C1C001860303060186018601830300FC0000039
:102C2C0000000780186030303018301830183038F9
:102C3C00187807980018303038301860078000007A
:102C4C0000000000000000000300078003000000EB
:102C5C0000000300078003000000000000000000DB
:102C6C0000000000000000000300078003000000CB
:102C7C0000000300078003800180070000000000B3
:102C8C0000000000001800600180060018006000C1
:102C9C008000600018000600018000600018000031
:102CAC00000000000000000000007FF87FF800002A
:102CBC0000007FF87FF8000000000000000000001A
:102CCC000000800060001800060001800060001801
:102CDC0000040018006001800600180060008000ED
:102CEC00000007800FC01CE038E038E011C0018004
:102CFC0003000300020002000000020007000700AE
:102D0C0000000FC030604010478888C890C890C839
:102D1C0090C890C888D84770400830700FC0000029
:102D2C00000003000300078007800CC00CC0186073
:102D3C0018601FE03030303060186018F03C000034
:102D4C0000003F80186018301830183018601FC011
:102D5C001860183018181818181818303FC00000D0
:102D6C000000078818683038601860086000600040
:102D7C006000600060086018303018600780000048
:102D8C0000007F8030E030383018301830183018A0
:102D9C003018301830183018303030E07F80000098
:102DAC0000003FF0183018101800188018801F8091
:102DBC001880188018001800181018303FF0000008
:102DCC0000003FF0183018101800188018801F8071
:102DDC001880188018001800180018003C0000001B
:102DEC0000000F90187030306010601060006000B0
:102DFC006078603060306030307018F00FB00000D8
:102E0C0000007878303030303030303030303FF0B7
:102E1C003030303030303030303030307878000076
:102E2C0000000FC0030003000300030003000300B5
:102E3C000300030003000300030003000FC00000A5
:102E4C00000001F000600060006000600060006045
:102E5C00006000603060306030E019C00F0000008E
:102E6C00000078F8306030C03180330036003C0010
:102E7C003E003300318030C030603030787C000050
:102E8C0000003C001800180018001800180018006A
:102E9C001800180018001808181818383FF8000007
:102EAC000000E03CE038F078F078D8D8D8D8C89852
:102EBC00CD98CD98C518C718C218C018E07C000072
:102ECC000000C078E030F030F830DC30CE30C73065
:102EDC00C3B0C1F0C0F0C070C030C030E0780000AA
:102EEC0000000FC0387070386018601860186018D7
:102EFC006018601860186018703838700FC00000C7
:102F0C0000003FC0187018381818181818381870A6
:102F1C001FC0180018001800180018003C00000012
:102F2C0000001F8070E0E070C030C030C030C03096
:102F3C00C030C030C030CF30E1F070E01FEC003852
:102F4C0000003F8018E0187018301830187018E026
:102F5C001FC01B80198018C0186018303C7C000002
:102F6C0000000FD018703030301018000E000380A5
:102F7C0000E000302018301838182C3027E0000002
:102F8C0000007FF873386318430803000300030044
:102F9C00030003000300030003000300078000008C
:102FAC0000007878303030303030303030303030E5
:102FBC00303030303030303030301CE00FC000005A
:102FCC000000F0786030603060306030603060302D
:102FDC0060306030306018C00D80070002000000C7
:102FEC000000C71C82088208C718471845104510F6
:102FFC006DB06DB028A038E01040104010400000BB
:10300C000000F07C6030306018C008800D80070034
:10301C00020007000D8018C030606030F07C0000AA
:10302C000000F03C6018303018600CC007800300C2
:10303C0003000300030003000300030007800000EB
:10304C0000003FF8301820180030006000C00180EC
:10305C00030006000C001800300860187FF8000010
:10306C000000001C00300060006000600060006028
:10307C000060006000600060006000600030001CB8
:10308C0000008000C0006000300018000C0006003A
:10309C000300018000C0006000300018000C000428
:1030AC000000E0003000180018001800180018008C
:1030BC001800180018001800180018003000E00064
:1030CC0000000000000000000000000000000000F4
:1030DC00020007000D8018C07070C01C00000000BA
:1030EC0000000000000000000000000000000000D4
:1030FC000000000000000000000000000000FFFEC7
