:030000000293A0C8
:0C93A000787FE4F6D8FD7581350293E774
:10A2F700D2BCD2AC758DF5D28EE47850F208F2223A
:0FA307007850E2FF08E2B507037F00227F0122B2
:10A22000C2AC7850E22400F8E2FF7850E204F2E297
:09A23000C394504002E4F2D2ACE8
:01A239002202
:080003003099FD8F99C299228A
:030023000299FB44
:1099FB00C0E0C0D075D008309846C2987851E2FFCD
:109A0B002401FDE433FC18E27A00B50D07EAB50C2E
:109A1B0003E204F2EFB44F087850E27003E204F271
:109A2B007850E2C394504002E4F27851E22400F8FB
:109A3B00E599F27851E204F2E2C394504002E4F269
:059A4B00D0D0D0E03294
:109EF000C2AF7590F6ED7006C2B7C2B68012EDB46F
:109F00000106C2B7D2B68008EDB40204D2B7C2B619
:109F1000AF038F80D293C29378D8E2F580C291D2FA
:0E9F2000917590F6D2B6D2B77580FFD2AF22FF
:10984500AE03C2AF7590F6ED7006C2B7C2B6801210
:10985500EDB40106C2B7D2B68008EDB40204D2B7A2
:10986500C2B6AF060E8F80D293C29378AAE2FB08E8
:1098750008E2F92401F218E2FA3400F21259A7F5C8
:1098850080C291D29178ADE214F270D67590F6D27D
:09989500B6D2B77580FFD2AF22F4
:109F2E00C2AF7590F6ED7006C2B7C2B68012EDB430
:109F3E000106C2B7D2B68008EDB40204D2B7C2B6DB
:109F4E00AF038F80D293C2937580FFC292AF80D23F
:0A9F5E00927590F6D2B6D2B7D2AFDA
:019F680022D6
:1096AA0078ACEBF208EAF208E9F278ACE2FB08E2FD
:1096BA00FA08E2F9125A11F47003E5F0F4605378EB
:1096CA00ACE2FB08E2FA08E2F9125A11FBAAF0EA44
:1096DA00FDE4FF129F2E78ACE2FB08E2FA08E2F9F9
:1096EA009000021259C0FC6F601B78ACE2FB08E2E2
:1096FA00FA08E2F9125A11FBAAF0EAFD78D8ECF25C
:10970A00E4FF129EF078AEE22403F218E23400F28B
:03971A0080982212
:01A3950022A5
:106E16002562782025627820256278000A3C523E59
:106E260025303262785B25303262785D3D2530321E
:106E36006278002562782025627800256278202510
:106E460062782025627820256278200025316278D4
:106E560020253162782025316278200052656164F0
:106E66004173696342797465203D3D20256278202F
:106E76000A0063682562643A256264200063682517
:106E860062643A2562642063682562643A25626416
:106E9600200063682562643A25626420636825627F
:106EA600643A2562642063682562643A2562642038
:106EB6000063682562643A2562642063682562641B
:106EC6003A2562642063682562643A256264206319
:106ED600682562643A256264200063682562643A24
:106EE6002562642063682562643A256264206368CB
:106EF6002562643A2562642063682562643A2562E5
:106F0600642063682562643A256264200025626411
:106F160020000A203D3D3D3D3D3D3D3D2050414741
:106F2600452025623278203D3D3D3D3D3D3D3D3D80
:106F36003D3D3D3D0A002562327809000A002531B3
:106F46006278202531627820636825316278206373
:106F56006825316278206368253162782063682568
:106F66003162782000656E726563616C6C00656ED7
:106F7600667265657A6500656E686D6972726F72B4
:106F860000656E766D6972726F7200656E656E6809
:106F9600616E636500656E626C616E6B00656E6244
:106FA6006F756E6400656E626C696E6B0064697302
:106FB600726563616C6C00646973667265657A6597
:106FC60000646973686D6972726F720064697376C2
:106FD6006D6972726F7200646973656E68616E6363
:106FE6006500646973626C616E6B00646973626FDD
:106FF600756E6400646973626C696E6B003D3D3D3D
:107006003D3D20466F726D6174203A206368303DC5
:107016005B2562785D206368313D5B2562785D2083
:107026006368323D5B2562785D206368333D5B258E
:1070360062785D203D3D3D3D3D0A00256278202574
:1070460062782063682562783A256278206368252D
:1070560062783A2562782063682562783A256278F4
:107066002063682562783A2562782000333400264A
:1070760000280029006275737700627573720061DB
:107086006D697800616D757465006164756D700079
:10709600616761696E00616C69766500627573721D
:1070A6007400766D697800766D697865727200761F
:1070B600617474720079766D697800696E6974001E
:1070C6007664657400767365746600737374720013
:1070D6006873636F6D006D6F6465006469737363D5
:0E70E600726F6C6C0076657200010204081077
:04A36A004100D900D5
:108EE60078AE74FEF2087400F20874A5F27BFE7A7E
:038EF6000079A858
:108EF90078ABEBF208EAF208E9F208E2FB08E2FAD9
:108F090008E2F9125A9A1259A77002FF2278AEE2C2
:108F1900FB08E2FA08E2F9125A9A1259A7B4201684
:108F290078AEE2FB08E2FA08E2F9900001E475F094
:108F390001125A3C80D778AEE2FB08E2FA08E2F95E
:108F4900125A9AC003C002C00178ABE2FB08E2FAE8
:108F590008E2F9125ABA803578AEE2FB08E2FA085B
:108F6900E2F9125A9A1259A7FEB4201BE41259EDDC
:108F790078AEE2FB08E2FA08E2F9900001E475F044
:108F890001125A3C7F0122EE70037F012278AEE282
:108F9900FB08E2FA08E2F9900001E475F001125ABF
:038FA9003C80B554
:089B9D00E2FB08E2FA08E2F91C
:0A9BA50078ABEBF208EAF208E9F2EF
:109BAF00E4F531F53278ABE2FB08E2FA08E2F9129C
:109BBF0059A7602578ABE2FB0808E2F92401F218F7
:109BCF00E2FA3400F21259A7FF3395E0FEEF253287
:0D9BDF00F532EE3531F53180CCAE31AF32CC
:019BEC002256
:0FA316007F411200037F431200037F4B020003BD
:109BED00E4F52A7856E25403252AF52A08E25403AF
:109BFD0025E025E0252AF52A08E25403C454F02572
:109C0D002AF52A08E25403C4333354C0252AF52A11
:109C1D007855E2B5070B785AE2B52A05E47865F276
:0F9C2D002278657401F2785AE52AF27855EFF241
:019C3C002205
:10989E0078AE74FFF208746EF2087416F208E4F2F1
:1098AE00087400F2087427F208E4F2087400F20853
:1098BE007428F208E4F2087400F2087429F21265B2
:1098CE0086AB28AD27E4FF129F2E78AAEFF27BFF1E
:1098DE007A6E792278A8E527F208E528F212620F4F
:0798EE000528E528B529DA81
:0198F5002250
:109DA70078AE74FFF208746EF2087439F208E4F2C0
:109DB700087400F2087427F208E4F2087400F20845
:109DC7007428F2126586AB28AD27E4FF129F2E7820
:109DD700AAEFF27BFF7A6E792278A8E527F208E5E9
:059DE70028F202620FEA
:109EB10078AE74FFF208746EF2087416F208E4F2D8
:109EC100087400F2087427F208E4F2087400F2083A
:109ED1007428F208E4F2087400F2087429F2126599
:0F9EE1008678D8E529F2AB28AD27E4FF029EF082
:1097EA00E4F527F528F529F52AC003C00278AE74F6
:1097FA00FFF208746EF2087441F208E4F208740089
:10980A00F2087427F208E4F2087400F2087428F2E5
:10981A0008E4F2087400F2087429F208E4F2087401
:10982A0000F208742AF2D002D00312658678D8E5CD
:0B983A002AF2AB29AD28E4FF029EF0EB
:109AF800E4F527F528F529F52A78AE74FFF20874FD
:109B08006EF2087452F208E4F2087400F20874273E
:109B1800F208E4F2087400F2087428F208E4F20883
:109B28007400F2087429F2126586AB29AD28E4FFA7
:109B3800129F2E8F2A7BFF7A6E796278A8E52AF227
:039B480002620FA7
:0A681E0078A5EBF208EAF208E9F2AF
:1068280078AE74FEF2087400F20874A5F27BFE7A62
:106838000079A8128EF9E4FB7D1FFF12A00D78A83D
:10684800E2FB08E2FA08E2F9128E16EE6003026B28
:106858002EEF24FE605B14700302691F147003029C
:1068680069A9147003026A5724046003026B2E7826
:10687800AE74FFF208746EF2087478F208E4F20855
:106888007400F2087427F208E4F2087400F208743D
:106898002CF278A5E2FB08E2FA08E2F9126586AB69
:1068A8002CAD27E4FF129118E5279070EF93026B47
:1068B8002678AE74FFF208746EF2087483F208E466
:1068C800F2087400F2087427F208E4F2087400F27F
:1068D80008742CF208E4F2087400F2087428F2082C
:1068E800E4F2087400F208742DF278A5E2FB08E2DD
:1068F800FA08E2F9126586AB2CAD27E4FF1291186D
:10690800AB2DAD28E4FF129118E5289070EF93FFA6
:10691800E527932F026B2678AE74FFF208746EF2A7
:10692800087498F208E4F2087400F2087427F20870
:10693800E4F2087400F208742CF208E4F208740017
:10694800F2087428F208E4F2087400F208742DF2D0
:1069580008E4F2087400F2087429F208E4F20874F2
:1069680000F208742EF278A5E2FB08E2FA08E2F9D0
:10697800126586AB2CAD27E4FF129118AB2DAD281C
:10698800E4FF129118AB2EAD29E4FF129118E52807
:106998009070EF93FFE527932FFFE529932F026B64
:1069A8002678AE74FFF208746EF20874B7F208E441
:1069B800F2087400F2087427F208E4F2087400F28E
:1069C80008742CF208E4F2087400F2087428F2083B
:1069D800E4F2087400F208742DF208E4F208740076
:1069E800F2087429F208E4F2087400F208742EF22E
:1069F80008E4F2087400F208742AF208E4F2087451
:106A080000F208742FF278A5E2FB08E2FA08E2F92E
:106A1800126586AB2CAD27E4FF129118AB2DAD287B
:106A2800E4FF129118AB2EAD29E4FF129118AB2F99
:106A3800AD2AE4FF129118E5289070EF93FFE5273F
:106A4800932FFFE529932FFFE52A932F026B2678D2
:106A5800AE74FFF208746EF20874E0F208E4F2080B
:106A68007400F2087427F208E4F2087400F208745B
:106A78002CF208E4F2087400F2087428F208E4F230
:106A8800087400F208742DF208E4F2087400F208A1
:106A98007429F208E4F2087400F208742EF208E48B
:106AA800F2087400F208742AF208E4F2087400F29A
:106AB80008742FF208E4F2087400F208742BF20844
:106AC800E4F2087400F2087430F278A5E2FB08E2F8
:106AD800FA08E2F9126586AB2CAD27E4FF1291188B
:106AE800AB2DAD28E4FF129118AB2EAD29E4FF12AF
:106AF8009118AB2FAD2AE4FF129118AB30AD2BE4FF
:106B0800FF129118E5289070EF93FFE527932FFF68
:106B1800E529932FFFE52A932FFFE52B932FFD7B84
:066B280001E4FF12A00DC4
:016B2E002244
:0FA32500E4FB7D1FFF12A00D7DFFE4FF02A0C12E
:0A70F40078A5EBF208EAF208E9F2D1
:1070FE0078AE74FEF2087400F20874A5F27BFE7A84
:10710E000079A8128EF978A8E2FB08E2FA08E2F9F3
:10711E00128E16EE6003027390EF24FE6050147010
:10712E00030271D21470030272471470030272DBF1
:10713E002404600302739078AE74FFF208746EF24A
:10714E00087478F208E4F2087400F2087427F20862
:10715E00E4F2087400F208742CF278A5E2FB08E25F
:10716E00FA08E2F9126586AB2CAD2702738B78AE66
:10717E0074FFF208746EF2087483F208E4F2087475
:10718E0000F2087427F208E4F2087400F208742C76
:10719E00F208E4F2087400F2087428F208E4F20827
:1071AE007400F208742DF278A5E2FB08E2FA08E208
:1071BE00F9126586AB2CAD27E4FF1291C9AB2DAD4C
:1071CE002802738B78AE74FFF208746EF20874980E
:1071DE00F208E4F2087400F2087427F208E4F208E8
:1071EE007400F208742CF208E4F2087400F20874C9
:1071FE0028F208E4F2087400F208742DF208E4F2A2
:10720E00087400F2087429F208E4F2087400F20817
:10721E00742EF278A5E2FB08E2FA08E2F91265860E
:10722E00AB2CAD27E4FF1291C9AB2DAD28E4FF12B4
:10723E0091C9AB2EAD2902738B78AE74FFF2087430
:10724E006EF20874B7F208E4F2087400F2087427BC
:10725E00F208E4F2087400F208742CF208E4F20862
:10726E007400F2087428F208E4F2087400F208744C
:10727E002DF208E4F2087400F2087429F208E4F220
:10728E00087400F208742EF208E4F2087400F20892
:10729E00742AF208E4F2087400F208742FF278A54A
:1072AE00E2FB08E2FA08E2F9126586AB2CAD27E4A0
:1072BE00FF1291C9AB2DAD28E4FF1291C9AB2EADD3
:1072CE0029E4FF1291C9AB2FAD2A02738B78AE74ED
:1072DE00FFF208746EF20874E0F208E4F20874002B
:1072EE00F2087427F208E4F2087400F208742CF223
:1072FE0008E4F2087400F2087428F208E4F2087444
:10730E0000F208742DF208E4F2087400F2087429F1
:10731E00F208E4F2087400F208742EF208E4F2089F
:10732E007400F208742AF208E4F2087400F2087489
:10733E002FF208E4F2087400F208742BF208E4F25B
:10734E00087400F2087430F278A5E2FB08E2FA083D
:10735E00E2F9126586AB2CAD27E4FF1291C9AB2D75
:10736E00AD28E4FF1291C9AB2EAD29E4FF1291C9ED
:10737E00AB2FAD2AE4FF1291C9AB30AD2BE4FF1257
:02738E0091C9A3
:0173900022DA
:10A1890078AE74FFF208746FF2087413F208E4F2FF
:10A19900087400F2087427F2126586AD27E4FF02FD
:02A1A900A0C153
:109C8A00E4F5287BFF7A6F791878A8E528F2126242
:109C9A000FE4F527AB27AD28E4FF129F2E78A8EF33
:109CAA00F27BFF7A6F793C12620F0527E527540F82
:109CBA0070097BFF7A6F794212620FE52770D5052A
:089CCA0028E528C3940340BB08
:019CD200226F
:0A953B00789FE2FB08E2FA08E2F96B
:10954500C003C002C00178AE74FFF208746FF20860
:109555007444F208E4F2087400F2087427F208E48F
:10956500F2087400F2087428F20874FEF208740018
:10957500F2087456F20874FEF2087400F208745783
:10958500F20874FEF2087400F2087458F20874FECA
:10959500F2087400F2087459F2D001D002D0031217
:1095A5006586E527C454F0FFE528540F2FF5277B82
:0995B500FE7A007956FF0279E804
:0A7DF30078A5EBF208EAF208E9F2C5
:107DFD00E4F52F128EE678A8E2FB08E2FA08E2F924
:107E0D00128E168F30128EE678A8129B9D8E278FBC
:107E1D00287BFF7A6F796B129BA5EFB5280AEEB51B
:107E2D002706752980027ECE7BFF7A6F7974129BAF
:107E3D00A5EFB5280AEEB52706752940027ECE7B43
:107E4D00FF7A6F797D129BA5EFB52809EEB5270551
:107E5D00752920806C7BFF7A6F7987129BA5EFB512
:107E6D002809EEB5270575291080567BFF7A6F79A5
:107E7D0091129BA5EFB52809EEB527057529088048
:107E8D00407BFF7A6F799B129BA5EFB52809EEB564
:107E9D002705752904802A7BFF7A6F79A3129BA58C
:107EAD00EFB52809EEB5270575290280147BFF7AF9
:107EBD006F79AB129BA5EFB5280DEEB52709752986
:107ECD0001752A01027F8A7BFF7A6F79B3129BA518
:107EDD00EFB5280AEEB52706752980027F6D7BFF69
:107EED007A6F79BD129BA5EFB52809EEB5270575FB
:107EFD002940806C7BFF7A6F79C7129BA5EFB5285F
:107F0D0009EEB5270575292080567BFF7A6F79D24A
:107F1D00129BA5EFB52809EEB527057529108040F0
:107F2D007BFF7A6F79DD129BA5EFB52809EEB5279A
:107F3D0005752908802A7BFF7A6F79E8129BA5EFDA
:107F4D00B52809EEB5270575290480147BFF7A6FD6
:107F5D0079F1129BA5EFB5280CEEB527087529020E
:107F6D00E4F52A80187BFF7A6F79FA129BA5EF65ED
:107F7D00287003EE6527705B752901F52A128EE6D0
:107F8D00EF603778A8E2FB08E2FA08E2F91259A788
:107F9D00B477EA9000011259C0B469E19000021261
:107FAD0059C0B46ED8E92403F9E43AFA128E167466
:107FBD002B252FF8A607052F80C3E52F6015242A42
:107FCD00F8E6FFC395305007AB2AAD2912994D1530
:037FDD002F80E70B
:017FE000227E
:10A1AB0078AE74FFF208746FF2087413F208E4F2DD
:10A1BB00087400F2087427F2126586AF2702A29684
:109FDA00E4FF129D1AC0077F01129D1AC0077F0273
:109FEA00129D1AC0077F03129D1A78ABEFF218D0A0
:109FFA00E0F218D0E0F218D0E0F27BFF7A70790331
:03A00A0002620FE0
:0A77DC0078A5EBF208EAF208E9F2E2
:1077E60078AE74FEF2087400F20874A5F27BFE7A95
:1077F6000079A8128EF978A8E2FB08E2FA08E2F905
:10780600128E16EE60030279E7EF24FE604E1470C6
:10781600030278C0147003027941240360030279DD
:10782600E778AE74FFF208746EF2087478F208E432
:10783600F2087400F2087427F208E4F2087400F201
:1078460008742BF278A5E2FB08E2FA08E2F9126561
:1078560086E52BC454F0FBAD270279E278AE74FFBF
:10786600F208746EF2087483F208E4F2087400F207
:10787600087427F208E4F2087400F208742BF20880
:10788600E4F2087400F2087428F208E4F2087400BE
:10789600F208742CF278A5E2FB08E2FA08E2F91283
:1078A6006586E52BC454F0FBAD27E4FF12A06CE51A
:1078B6002CC454F0FBAD280279E278AE74FFF208CE
:1078C600746EF2087498F208E4F2087400F2087410
:1078D60027F208E4F2087400F208742BF208E4F2C6
:1078E600087400F2087428F208E4F2087400F2083A
:1078F600742CF208E4F2087400F2087429F208E421
:10790600F2087400F208742DF278A5E2FB08E2FA98
:1079160008E2F9126586E52BC454F0FBAD27E4FFB7
:1079260012A06CE52CC454F0FBAD28E4FF12A06C49
:10793600E52DC454F0FBAD290279E278AE74FFF26E
:1079460008746EF20874B7F208E4F2087400F208DC
:107956007427F208E4F2087400F208742BF208E4C3
:10796600F2087400F2087428F208E4F2087400F2CF
:1079760008742CF208E4F2087400F2087429F2087C
:10798600E4F2087400F208742DF208E4F2087400B8
:10799600F208742AF208E4F2087400F208742EF26F
:1079A60078A5E2FB08E2FA08E2F9126586E52BC43F
:1079B60054F0FBAD27E4FF12A06CE52CC454F0FB99
:1079C600AD28E4FF12A06CE52DC454F0FBAD29E40C
:1079D600FF12A06CE52EC454F0FBAD2AE4FF12A002
:0179E6006C34
:0179E700227D
:0A94B70078A5EBF208EAF208E9F2EA
:1094C10078AE74FEF2087400F20874A5F27BFE7A9D
:1094D1000079A8128EF978A8E2FB08E2FA08E2F90D
:1094E100128E168F2778AE74FEF2087400F208749B
:1094F100A5F27BFE7A0079A8128EF978A8E2FB0822
:10950100E2FA08E2F9128E168F287F0412A38F7FE8
:109511000312A3927F0512A11578A5E2F908E2FAD8
:1095210008E278AEC9F208EAF208E9F2AB28AD2701
:0A9531007F01128FAC7F05029CD36E
:109F6900752801E4F527745B2527F8E230E40F74BE
:109F7900562527F8E2FDE4FF12A0C1E4F5280527DC
:109F8900E527C3940440DFE528600FE4FB7D1FFF4C
:0A9F990012A00D7DFFE4FF12A0C12D
:019FA300229B
:10856900C003C002C00178AE74FFF2087470F2084B
:108579007441F208E4F2087400F2087428F208E47D
:10858900F2087400F2087429F20874FEF208740003
:10859900F2087456F20874FEF2087400F208745B6B
:1085A900F20874FEF2087400F2087457F20874FEB7
:1085B900F2087400F208745CF20874FEF2087400A0
:1085C900F2087458F20874FEF2087400F208745D37
:1085D900F20874FEF2087400F2087459F20874FE85
:1085E900F2087400F208745EF2D001D002D00312CE
:1085F9006586E528C454F0FF7852E2FEC43333336C
:1086090054802FFFE529540F2F7864F2785BE2FF3D
:108619007856E2245FF8EFF2785CE2FF7857E224BB
:108629005FF8EFF2785DE2FF7858E2245FF8EFF245
:10863900785EE2FF7859E2245FF8EFF2785FE2545E
:1086490001FB7D20E4FF1299A47860E25401FB7DCF
:10865900207F011299A47861E25401FB7D207F02F9
:108669001299A47862E25401FB7D207F031299A438
:108679007BFE7A00795F1283957864E2FF78A974AA
:10868900FEF2087400F208745BF27BFE7A007956F8
:108699001240CF7864E2FF7BFE7A0079561279E8BE
:1086A900E4F527745B2527F8E25401FB7D20AF2709
:1086B90012994D0527E527C3940440E7E4F510F521
:1086C90011F5127513057F0112A3617864E2FF1297
:1086D9009BED7F0812A163E4FF12A23A129C3D7B35
:0F86E900FE7A00795B12398A7864E29000D9F04A
:0186F800225F
:1095BE007F03129D1AEFB40202C3227852E2B5075E
:1095CE0002D3227852EFF2E2C43333335480FF7861
:1095DE0055E2547F4FF27F01129CD37852E2FF1274
:1095EE0093067BFE7A00795F1283957855E2FF78B9
:1095FE00A974FEF2087400F208745BF27BFE7A0026
:10960E0079561240CF7855E2FF7BFE7A00795612DA
:10961E0079E8E4FF12A23A129C3D7BFE7A00795B58
:06962E0012398A12A204A9
:019634002213
:10A1E80078AE74FFF208746FF2087413F20874FE04
:0CA1F800F2087400F2087453F20265864D
:05A380007F01029CD3E7
:10A2BE00907072E493FF120003907072A3E493FF08
:03A2CE0002000388
:0A6B2F00789FEBF208EAF208E9F2A1
:106B390078AE74FEF2087400F208749FF27BFE7A54
:106B49000079A2128EF978A2129B9D8E258F267B41
:106B5900FF7A707975129BA5EFB52614EEB525104D
:106B6900789FE2FB08E2FA08E2F912989E026E1396
:106B79007BFF7A707977129BA5EFB52614EEB525C0
:106B890010789FE2FB08E2FA08E2F9129DA7026E6B
:106B9900137BFF7A707979129BA5EFB52614EEB5B0
:106BA9002510789FE2FB08E2FA08E2F9129EB10289
:106BB9006E137BFF7A70797B129BA5EFB52614EED5
:106BC900B52510789FE2FB08E2FA08E2F91297EA84
:106BD900026E137BFF7A707980129BA5EFB526149C
:106BE900EEB52510789FE2FB08E2FA08E2F9129A5D
:106BF900F8026E137BFF7A707985129BA5EFB52693
:106C090014EEB52510789FE2FB08E2FA08E2F912C2
:106C1900681E026E137BFF7A70798A129BA5EFB505
:106C2900260AEEB5250612A325026E137BFF7A709C
:106C39007990129BA5EFB5260AEEB5250612739138
:106C4900026E137BFF7A707996129BA5EFB5261415
:106C5900EEB52510789FE2FB08E2FA08E2F9127016
:106C6900F4026E137BFF7A70799C129BA5EFB5260F
:106C790014EEB52510789FE2FB08E2FA08E2F91252
:106C8900A189026E137BFF7A7079A2129BA5EFB5D9
:106C9900260AEEB52506129C8A026E137BFF7A70CE
:106CA90079A8129BA5EFB52612EEB5250E7F4012E5
:106CB900978C12953B12A316026E137BFF7A70799B
:106CC900AD129BA5EFB5260AEEB5250612953B0236
:106CD9006E137BFF7A7079B5129BA5EFB52614EE7A
:106CE900B52510789FE2FB08E2FA08E2F9127DF374
:106CF900026E137BFF7A7079BB129BA5EFB526173D
:106D0900EEB5251312A316789FE2FB08E2FA08E212
:106D1900F912A1AB026E137BFF7A7079C1129BA5A0
:106D2900EFB5260AEEB52506129E2F026E137BFFDC
:106D39007A7079C6129BA5EFB5260AEEB52506121B
:106D49009FDA026E137BFF7A7079CB129BA5EFB5A0
:106D59002614EEB52510789FE2FB08E2FA08E2F95D
:106D69001277DC026E137BFF7A7079D1129BA5EF43
:106D7900B52614EEB52510789FE2FB08E2FA08E281
:106D8900F91294B7026E137BFF7A7079D6129BA51C
:106D9900EFB52623EEB5251F12A316789FE2FB084F
:106DA900E2FA08E2F9128569129F6912A204E4FF66
:106DB90012A361C22180537BFF7A7079DC129BA5F3
:106DC900EFB52616EEB5251212A316789FE2FB0839
:106DD900E2FA08E2F912A1E880307BFF7A7079E1E2
:106DE900129BA5EFB5260CEEB5250812A31612A322
:106DF9008080177BFF7A7079EB129BA5EFB5260A85
:0C6E0900EEB5250612A31612A2BE7F01F2
:016E1500225A
:10A253000D0A0044656275672050726F6772616D05
:07A26300203E0050435400AF
:109B4B0012A307EF640170497895E2704412A220CA
:109B5B008F25300003120003E52524F8601F24FB3A
:109B6B0070217894E2246BF8E4F2789504F27BFE92
:109B7B007A00796B12A09730001702A3587894E201
:109B8B0014F2227894E2246BF8E525F27894E2043F
:019B9B00F2D7
:019B9C0022A6
:09A358007BFF7AA2795302A0EB0D
:0A9FA400789FEBF208EAF208E9F2F8
:109FAE00789FE2FB08E2FA08E2F91259A7601C78E2
:109FBE009FE2FB0808E2F92401F218E2FA3400F2FB
:0B9FCE001259A7F525FF12000380D5F3
:019FD9002265
:10A26A003000097BFF7AA27956129FA4E47894F20F
:06A27A0008F2786BF222ED
:09A36100EF6003C20122D20122C7
:0BA34300C200C201C221E47899F2229E
:10A09700789FEBF208EAF208E9F220001C789FE2C9
:10A0A700FB08E2FA08E2F8AC02AD037BFF7AA2797B
:0AA0B70066125CADEF7002D20022C9
:079D610078A5EEF208EFF215
:109D680078A6E2700218E26035E478A7F208F27883
:109D7800A7E2FE08E2FFE4FCFD7B0FFAF9F8D31234
:109D88005A89400D78A8E22401F218E23400F280E2
:0E9D9800DE78A6E224FFF218E234FFF280C269
:019DA600229A
:10963500E4789CF20874C8F2087464F212A1CB12A3
:10964500A34312A395129E2F12A26A129B4B7895E3
:10965500E2B401097BFE7A00796B126B2F7895E2F3
:10966500B4010312A26A3021071295BE5002C2212D
:1096750012A307EF6008789DE2751200F513E51354
:1096850064014512700CF512F513789EE275100011
:10969500F511E5116401451070B112906475100063
:0596A50075111480A600
:10A1CB00E4F5B8F5A8F587F5D0758921F58875986C
:0DA1DB005212A2F712A280D299D2AF002238
:100026001010FFFFFFFFFFFFFFFFFFFFFFFFFFFFB8
:10003600FFFFFFFFFFFFFFFFFFFFFFFFFFFFFFFFCA
:10004600FFFFFFFFFFFFFFFFFFFFFFFFFFFFFFFFBA
:10005600FFFFFFFFFFFFFFFFFFFFFFFFFFFFFFFFAA
:10006600FFFFFFFFFFFFFFFFFFFFFFFFFFFFFFFF9A
:10007600FFFFFFFFFFFFFFFFFFFFFFFFFFFFFFFF8A
:10008600FFFFFFFFFFFFFFFFFFFFFFFFFFFFFFFF7A
:10009600FFFFFFFFFFFFFFFFFFFFFFFFFFFFFFFF6A
:1000A600FFFFFFFFFFFFFFFFFFFFFFFFFFFFFFFF5A
:1000B600FFFFFFFFFFFFFFFFFFFFFFFFFFFFFFFF4A
:1000C600FFFFFFFFFFFFFFFFFFFFFFFFFFFFFFFF3A
:1000D600FFFFFFFFFFFFFFFFFFFFFFFFFFFFFFFF2A
:1000E600FFFFFFFFFFFFFFFFFFFFFFFFFFFFFFFF1A
:1000F600FFFFFFFFFFFFFFFFFFFFFFFFFFFFFFFF0A
:10010600FFFFFFFFFFFFFFFFFFFFFFFFFFFFFFFFF9
:10011600FFFFFFFFFFFFFFFFFFFFFFFFFFFFFFFFE9
:10012600FFFF1010FFFFFFFFFFFFFFFFFFFFFFFFB7
:10013600FFFFFFFFFFFFFFFFFFFFFFFFFFFFFFFFC9
:10014600FFFFFFFFFFFFFFFFFFFFFFFFFFFFFFFFB9
:10015600FFFFFFFFFFFFFFFFFFFFFFFFFFFFFFFFA9
:10016600FFFFFFFFFFFFFFFFFFFFFFFFFFFFFFFF99
:10017600FFFFFFFFFFFFFFFFFFFFFFFFFFFFFFFF89
:10018600FFFFFFFFFFFFFFFFFFFFFFFFFFFFFFFF79
:10019600FFFFFFFFFFFFFFFFFFFFFFFFFFFFFFFF69
:1001A600FFFFFFFFFFFFFFFFFFFFFFFFFFFFFFFF59
:1001B600FFFFFFFFFFFFFFFFFFFFFFFFFFFFFFFF49
:1001C600FFFFFFFFFFFFFFFFFFFFFFFFFFFFFFFF39
:1001D600FFFFFFFFFFFFFFFFFFFFFFFFFFFFFFFF29
:1001E600FFFFFFFFFFFFFFFFFFFFFFFFFFFFFFFF19
:1001F600FFFFFFFFFFFFFFFFFFFFFFFFFFFFFFFF09
:10020600FFFFFFFFFFFFFFFFFFFFFFFFFFFFFFFFF8
:10021600FFFFFFFFFFFFFFFFFFFFFFFFFFFFFFFFE8
:10022600FFFFFFFF1010FFFFFFFFFFFFFFFFFFFFB6
:10023600FFFFFFFFFFFFFFFFFFFFFFFFFFFFFFFFC8
:10024600FFFFFFFFFFFFFFFFFFFFFFFFFFFFFFFFB8
:10025600FFFFFFFFFFFFFFFFFFFFFFFFFFFFFFFFA8
:10026600FFFFFFFFFFFFFFFFFFFFFFFFFFFFFFFF98
:10027600FFFFFFFFFFFFFFFFFFFFFFFFFFFFFFFF88
:10028600FFFFFFFFFFFFFFFFFFFFFFFFFFFFFFFF78
:10029600FFFFFFFFFFFFFFFFFFFFFFFFFFFFFFFF68
:1002A600FFFFFFFFFFFFFFFFFFFFFFFFFFFFFFFF58
:1002B600FFFFFFFFFFFFFFFFFFFFFFFFFFFFFFFF48
:1002C600FFFFFFFFFFFFFFFFFFFFFFFFFFFFFFFF38
:1002D600FFFFFFFFFFFFFFFFFFFFFFFFFFFFFFFF28
:1002E600FFFFFFFFFFFFFFFFFFFFFFFFFFFFFFFF18
:1002F600FFFFFFFFFFFFFFFFFFFFFFFFFFFFFFFF08
:10030600FFFFFFFFFFFFFFFFFFFFFFFFFFFFFFFFF7
:10031600FFFFFFFFFFFFFFFFFFFFFFFFFFFFFFFFE7
:10032600FFFFFFFFFFFF1010FFFFFFFFFFFFFFFFB5
:10033600FFFFFFFFFFFFFFFFFFFFFFFFFFFFFFFFC7
:10034600FFFFFFFFFFFFFFFFFFFFFFFFFFFFFFFFB7
:10035600FFFFFFFFFFFFFFFFFFFFFFFFFFFFFFFFA7
:10036600FFFFFFFFFFFFFFFFFFFFFFFFFFFFFFFF97
:10037600FFFFFFFFFFFFFFFFFFFFFFFFFFFFFFFF87
:10038600FFFFFFFFFFFFFFFFFFFFFFFFFFFFFFFF77
:10039600FFFFFFFFFFFFFFFFFFFFFFFFFFFFFFFF67
:1003A600FFFFFFFFFFFFFFFFFFFFFFFFFFFFFFFF57
:1003B600FFFFFFFFFFFFFFFFFFFFFFFFFFFFFFFF47
:1003C600FFFFFFFFFFFFFFFFFFFFFFFFFFFFFFFF37
:1003D600FFFFFFFFFFFFFFFFFFFFFFFFFFFFFFFF27
:1003E600FFFFFFFFFFFFFFFFFFFFFFFFFFFFFFFF17
:1003F600FFFFFFFFFFFFFFFFFFFFFFFFFFFFFFFF07
:10040600FFFFFFFFFFFFFFFFFFFFFFFFFFFFFFFFF6
:10041600FFFFFFFFFFFFFFFFFFFFFFFFFFFFFFFFE6
:10042600FFFFFFFFFFFFFFFF1010FFFFFFFFFFFFB4
:10043600FFFFFFFFFFFFFFFFFFFFFFFFFFFFFFFFC6
:10044600FFFFFFFFFFFFFFFFFFFFFFFFFFFFFFFFB6
:10045600FFFFFFFFFFFFFFFFFFFFFFFFFFFFFFFFA6
:10046600FFFFFFFFFFFFFFFFFFFFFFFFFFFFFFFF96
:10047600FFFFFFFFFFFFFFFFFFFFFFFFFFFFFFFF86
:10048600FFFFFFFFFFFFFFFFFFFFFFFFFFFFFFFF76
:10049600FFFFFFFFFFFFFFFFFFFFFFFFFFFFFFFF66
:1004A600FFFFFFFFFFFFFFFFFFFFFFFFFFFFFFFF56
:1004B600FFFFFFFFFFFFFFFFFFFFFFFFFFFFFFFF46
:1004C600FFFFFFFFFFFFFFFFFFFFFFFFFFFFFFFF36
:1004D600FFFFFFFFFFFFFFFFFFFFFFFFFFFFFFFF26
:1004E600FFFFFFFFFFFFFFFFFFFFFFFFFFFFFFFF16
:1004F600FFFFFFFFFFFFFFFFFFFFFFFFFFFFFFFF06
:10050600FFFFFFFFFFFFFFFFFFFFFFFFFFFFFFFFF5
:10051600FFFFFFFFFFFFFFFFFFFFFFFFFFFFFFFFE5
:10052600FFFFFFFFFFFFFFFFFFFF1010FFFFFFFFB3
:10053600FFFF00000000FFFFFFFFFFFFFFFFFFFFC1
:10054600FF000000000000FFFFFFFFFFFFFFFFFFAF
:100556000000020202020000FFFFFFFFFFFFFFFF95
:100566000000020202020000FFFFFFFFFFFFFF0084
:10057600000202000002020000FFFFFFFFFFFF0073
:10058600000202000002020000FFFFFFFFFF000062
:1005960002020000000002020000FFFFFFFF000051
:1005A600020200FFFF0002020000FFFFFF00000240
:1005B600020000FFFF000002020000FFFF00000231
:1005C6000200000000000002020000FF000002021C
:1005D60002020202020202020202000000000202FD
:1005E60002020202020202020202000000000202ED
:1005F60000000000000000000202000000000202ED
:100606000000FFFFFFFF00000202000000000202E0
:100616000000FFFFFFFF00000202000000000000D4
:100626000000FFFFFFFF00000000000010100000A8
:10063600000000000000000000000000FFFF0002B4
:1006460002020202020202020202000000FF00028F
:10065600020202020202020202020200000000007E
:100666000002020000000000020202020000FF0079
:1006760000020200FFFFFF00000202020000FF006E
:1006860000020200FFFFFF00000202020000FF005E
:1006960000020200000000000202020000FFFF004C
:1006A600000202020202020202020000FFFFFF0035
:1006B600000202020202020202020000FFFFFF0025
:1006C60000020200000000000202020000FFFF001C
:1006D60000020200FFFFFF00000202020000FF000E
:1006E60000020200FFFFFF000002020200000000FD
:1006F60000020200000000000202020200000002E6
:1007060002020202020202020202020000000002CB
:1007160002020202020202020202000000FF0000C0
:10072600000000000000000000000000FFFF1010A5
:10073600FFFFFF00000000000000000000FFFFFFB9
:10074600FFFF00000202020202020202000000FF96
:10075600FF00000202020202020202020200000080
:100766000000000202000000000000020202000079
:1007760000000202020000FFFFFF0000020200006C
:10078600000002020000FFFFFFFFFF000202000060
:10079600000002020000FFFFFFFFFFFF0000000055
:1007A600000002020000FFFFFFFFFFFFFFFFFFFF49
:1007B600000002020000FFFFFFFFFFFFFFFFFFFF39
:1007C600000002020000FFFFFFFFFF000000000024
:1007D600000002020000FFFFFFFFFF000202000010
:1007E60000000202000000FFFFFF000002020000FE
:1007F60000000202020000000000000202020000E7
:10080600FF000002020202020202020202000000CF
:10081600FFFF00000202020202020202000000FFC5
:10082600FFFFFF0000000000000000000000FFFFC7
:100836001010000000000000000000000000FFFF94
:10084600FFFF00000202020202020202020000FF93
:10085600FFFF000002020202020202020202000080
:10086600FFFF00000202000000000002020200007A
:10087600FFFF000002020000FFFF0000020200006E
:10088600FFFF000002020000FFFF0000020200005E
:10089600FFFF00000202000000000002020200004A
:1008A600FFFF00000202020202020202020000FF33
:1008B600FFFF00000202020202020202000000FF25
:1008C600FFFF000002020000020202000000FFFF1C
:1008D600FFFF000002020000000202020000FFFF0C
:1008E600FFFF00000202000000000202020000FFFB
:1008F600FFFF000002020000FF00000202020000EB
:10090600FFFF000002020000FFFF000002020200DB
:1009160000FF000002020000FFFFFF0000020202CB
:1009260000FF000000000000FFFFFFFF00000000C6
:1009360000FF101000000000FFFFFFFFFFFFFFFF9A
:10094600000000000000000000FFFFFFFFFFFF00A7
:100956000000000000000C0C0000FFFFFFFF00007D
:100966000C0C000000000C0C0C0000000000000C39
:100976000C0C000000000C0C0C0C000000000C0C11
:100986000C0C000000000C0C0C0C0C0C0C0C0C0CD1
:100996000C0C000000000C0C0C0C0C0C0C0C0C0CC1
:1009A6000C0C000000000C0C0C000C0C0C0C000CC9
:1009B6000C0C000000000C0C0C00000C0C00000CD1
:1009C6000C0C000000000C0C0C0000000000000CD9
:1009D6000C0C000000000C0C0C0000000000000CC9
:1009E6000C0C000000000C0C0C0000FFFF00000CBB
:1009F6000C0C000000000C0C0C0000FFFF00000CAB
:100A06000C0C000000000C0C0C0000FFFF00000C9A
:100A16000C0C000000000C0C0C0000FFFF00000C8A
:100A26000C0C000000000000000000FFFF000000AA
:100A3600000000001010FF00000000000000000091
:100A46000000000000FFFF00000202020202020294
:100A56000202020000FFFF0000020202020202027E
:100A66000202020000FFFF00000000000000020278
:100A76000200000000FFFFFFFFFFFFFF0000020271
:100A8600020000FFFFFFFFFFFFFFFFFF0000020263
:100A9600020000FFFFFFFFFFFFFFFFFF0000020253
:100AA600020000FFFFFFFFFFFFFFFFFF0000020243
:100AB600020000FFFFFFFFFFFFFFFFFF0000020233
:100AC600020000FFFFFFFFFFFFFFFFFF0000020223
:100AD600020000FFFFFFFF00000000FF000002020F
:100AE600020000FFFFFFFF000202000000000202FA
:100AF600020000FFFFFFFF000202020000020202E6
:100B0600020000FFFFFFFF000002020202020202D3
:100B1600000000FFFFFFFFFF0000020202020200CA
:100B26000000FFFFFFFFFFFFFF00000000000000C6
:100B360000FFFFFFFFFF1010FFFFFFFFFFFFFFFF9C
:100B4600FFFFFFFFFFFFFFFFFFFFFFFFFF000000AC
:100B560000000000FFFFFFFFFFFFFFFF0000010195
:100B660001010000FFFFFFFFFFFFFF000001010181
:100B760001010000FFFFFFFFFFFF0000010101016F
:100B8600010000FFFFFFFFFFFF000001010101015F
:100B96000000000000000000000001010101010149
:100BA6000101010101010000000101010101010132
:100BB6000101010101010000000101010101010122
:100BC6000101010101010000000001010101010113
:100BD6000101010101010000FF0000010101010105
:100BE6000000000000000000FFFF000001010101FD
:100BF600010000FFFFFFFFFFFFFFFF0000010101F3
:100C060001010000FFFFFFFFFFFFFFFF00000101E2
:100C160001010000FFFFFFFFFFFFFFFFFF000000D5
:100C260000000000FFFFFFFFFFFFFFFFFFFFFFFFCA
:100C3600FFFFFFFFFFFFFFFF1010FFFFFFFFFFFF9C
:100C4600FFFFFFFFFFFFFFFFFFFFFFFFFFFF0000AC
:100C56000000000000FFFFFFFFFFFFFFFFFF000097
:100C6600010101010000FFFFFFFFFFFFFFFF000082
:100C760001010101010000FFFFFFFFFFFFFFFF0071
:100C86000001010101010000FFFF0000000000005B
:100C9600000001010101010000FF00000101010146
:100CA6000101010101010101000000000101010132
:100CB6000101010101010101010000000101010121
:100CC6000101010101010101010000000000000015
:100CD600000001010101010000FF0000000000000A
:100CE600000001010101010000FFFFFFFFFFFF00FF
:100CF6000001010101010000FFFFFFFFFFFF0000EF
:100D060001010101010000FFFFFFFFFFFFFF0000DF
:100D1600010101010000FFFFFFFFFFFFFFFF0000D1
:100D26000000000000FFFFFFFFFFFFFFFFFFFFFFC8
:100D3600FFFFFFFFFFFFFFFFFFFF1010FFFFFFFF9B
:100D46000000000000000000FFFFFFFFFFFFFFFFA5
:100D56000000010101010000FFFFFFFFFFFFFFFF91
:100D66000000010101010000FFFFFFFFFFFFFFFF81
:100D76000000010101010000FFFFFFFFFFFFFFFF71
:100D86000000010101010000FFFFFFFF000000005D
:100D96000000010101010000000000000000010147
:100DA6000000010101010000010100000000010135
:100DB6000100010101010001010100000000010123
:100DC6000101010101010101010100000000010111
:100DD600010101010101010101010000FF00000103
:100DE6000101010101010101010000FFFFFF0000F7
:100DF60001010101010101010000FFFFFFFFFF00EA
:100E0600000101010101010000FFFFFFFFFFFFFFDD
:100E16000000010101010000FFFFFFFFFFFFFFFFD0
:100E2600FF000001010000FFFFFFFFFFFFFFFFFFC4
:100E3600FFFF00000000FFFFFFFFFFFF1010FFFF96
:100E4600FFFFFFFFFFFF0000000000000000FFFFA4
:100E5600FFFFFFFFFF000002020202020000FFFF89
:100E6600FFFFFFFF00000202020202020000FFFF76
:100E7600FFFFFF0000020202000002020000000065
:100E86000000000002020200000002020000000052
:100E96000202020202020200FF000202000000003B
:100EA6000202020202020200FF000202000000002B
:100EB6000202000000020200FF0002020000000021
:100EC600020200FF00020200FF0002020000000012
:100ED6000202000000020200FF0002020000000001
:100EE6000202020202020200FF00020200000000EB
:100EF60002020202020202000000020200000000DA
:100F06000000000000020202000002020000FFFFD3
:100F1600FFFFFFFF00000202020202020000FFFFC5
:100F2600FFFFFFFFFF000002020202020000FFFFB8
:100F3600FFFFFFFFFFFF0000000000000000101091
:100F46000000000000FFFFFFFFFFFF0000000000A1
:100F56000001010100FFFFFFFFFFFF00010101008B
:100F66000001010100FFFFFFFFFFFF00010101007B
:100F76000001010100FFFFFFFFFFFF00010101006B
:100F86000001010100FFFFFFFFFFFF00010101005B
:100F9600000101010000FFFFFFFF00000101010049
:100FA600000101010100FFFFFFFF00010101010037
:100FB600000001010100FFFFFFFF00010101000029
:100FC60000000101010000FFFF0000010101000017
:100FD600FF0000010101000000000101010000FF07
:100FE600FFFF000001010100000101010000FFFFF9
:100FF600FFFF000000010100000101000000FFFFEB
:10100600FFFFFF00000101010101010000FFFFFFDA
:10101600FFFFFFFF0000010101010000FFFFFFFFCE
:10102600FFFFFFFFFF00000101000000FFFFFFFFC1
:10103600FFFFFFFFFFFF0000000000FFFFFFFFFFB5
:10104600101000000000000000FFFFFFFFFFFFFF81
:10105600FFFF00000101010000FFFFFFFFFFFFFF90
:10106600FFFF00000101010000FFFFFFFFFFFFFF80
:10107600FFFF00000101010000FFFFFFFFFFFFFF70
:10108600FFFF00000101010000FFFFFFFFFFFFFF60
:10109600FFFF00000101010000FFFFFFFFFFFFFF50
:1010A600FFFF00000101010000FFFFFFFFFFFFFF40
:1010B600FFFF00000101010000FFFFFFFFFFFFFF30
:1010C600FFFF00000101010000FFFFFFFFFFFFFF20
:1010D600FFFF00000101010000FFFFFFFFFF00000E
:1010E600000000000101010000FFFFFFFFFF0000FC
:1010F600000000000101010000FFFFFFFF000001EA
:1011060000000000010101000000000000000101D4
:1011160000000000010101010101010101010101BD
:1011260000000000010101010101010101010101AD
:1011360000000000000000000000000000000000A9
:1011460000001010FFFFFFFFFFFFFFFFFFFFFFFF85
:10115600FFFFFFFFFFFFFFFFFFFFFFFFFFFFFFFF99
:10116600FFFFFFFFFFFFFFFFFFFFFFFFFFFFFFFF89
:10117600FFFFFFFFFFFFFFFF00000000000000FF72
:10118600FFFFFFFFFFFFFF0000000101010000005D
:10119600FFFFFFFFFFFF0000010101010101010048
:1011A60000FFFFFFFF000001010100000001010137
:1011B6000000FFFF00000001010000FF0000010128
:1011C600000000FF00000101010000FF0000010116
:1011D600010000FF00000101010000FF0000010105
:1011E600010000FF00000101010000FF00000101F5
:1011F600010000FF00000001010000FF00000101E6
:10120600000000FFFF0000010101000000010101D4
:101216000000FFFFFFFF00000101010101010100C5
:1012260000FFFFFFFFFFFF000000010101000000BB
:10123600FFFFFFFFFFFFFFFF00000000000000FFB1
:10124600FFFFFFFF1010FFFFFFFFFFFFFFFFFFFF86
:10125600FFFFFFFFFFFFFFFFFFFF00000000000092
:101266000000FFFFFFFFFFFF000000000202020276
:10127600000000FFFFFFFF00000002020202020260
:1012860002020000FFFFFF00000202020000000051
:101296000202020000FFFF00000202020000FF003F
:1012A6000000000000FFFF00000002020202000032
:1012B6000000FFFFFFFFFFFFFF0000020202020225
:1012C600020000FFFFFFFFFFFFFF00000000020219
:1012D60002020000FFFFFF0000000000FFFF000009
:1012E6000202020000FFFF000002020200000000EE
:1012F6000202020000FFFF000000020202020202D8
:1013060002020000FFFFFFFFFF00000002020202D0
:10131600000000FFFFFFFFFFFFFFFF0000000000CF
:101326000000FFFFFFFFFFFFFFFFFFFFFFFFFFFFC5
:10133600FFFFFFFFFFFFFFFFFFFFFFFFFFFFFFFFB7
:10134600FFFFFFFFFFFF101004040FFFFFFFFFFF6B
:10135600FFFF0404FFFFFFFF040404FFFFFFFFFF7E
:10136600FFFF0404FFFFFFFF0404040FFFFFFFFF5E
:10137600FFFF0404FFFFFFFF040404040FFFFFFF49
:10138600FFFF0404FFFFFFFF0404FF0404FFFFFF49
:10139600FFFF0404FFFFFF040404FF04040FFFFF24
:1013A600FFFF0404FFFFFF040404FFFF0404FFFF24
:1013B600FFFF0404FFFFFF040404FFFF04040FFF04
:1013C600FFFF0404FFFFFF040404FFFFFF04040FF4
:1013D600FFFF0404FFFFFF040404FFFFFFFF0404F4
:1013E600FFFF0404FFFFFF040404FFFFFFFF0404E4
:1013F6000FFF0404FFFFFF040404FFFFFFFFFF04C9
:1014060004FF0404FFFFFF040404FFFFFFFFFFFFC8
:1014160004040404FFFFFFFF0404FFFFFFFFFFFFB8
:1014260004040404FFFFFFFF0404FFFFFFFFFFFFA8
:10143600FF040404FFFFFFFF0404FFFFFFFFFFFF9D
:10144600FF040404FFFFFFFF1010FFFFFF04040466
:101456000404040FFFFFFFFFFFFFFFFF0404040463
:1014660004040404040FFFFFFFFFFF040404FFFF4E
:10147600FFFFFF0404040FFFFFFF04040FFFFFFF3D
:10148600FFFFFFFF040404FFFFFF0404FFFFFFFF4D
:10149600FFFFFFFFFF04040FFFFF040FFFFFFFFF27
:1014A600FFFFFFFFFF040404FFFF04FFFFFFFFFF32
:1014B600FFFFFFFFFFFF0404FFFF04FFFFFFFFFF27
:1014C600FFFFFFFFFFFF0404FFFF04FFFFFFFFFF17
:1014D600FFFFFFFFFFFF0404FFFF04FFFFFFFFFF07
:1014E600FFFFFFFFFFFF0404FFFF040FFFFFFFFFE7
:1014F600FFFFFFFFFF040404FFFF0404FFFFFFFFDD
:10150600FFFFFFFFFF04040FFFFF04040FFFFFFFB1
:10151600FFFFFFFF040404FFFFFFFF040404FFFFB7
:10152600FFFFFF0404040FFFFFFFFFFF0404040492
:1015360004040404040FFFFFFFFFFFFFFFFF040482
:101546000404040FFFFFFFFFFFFF1010FFFFFFFF64
:10155600FF04040FFFFFFFFFFFFFFFFFFFFFFFFF7B
:10156600FF040404FFFFFFFFFFFFFFFFFFFFFFFF76
:10157600FFFF0404FFFFFFFFFFFFFFFFFFFFFFFF6B
:10158600FFFF04040FFFFFFFFFFFFFFFFFFFFFFF4B
:10159600FFFFFF0404FFFFFFFFFFFFFFFFFFFFFF4B
:1015A600FFFFFF04040FFFFFFFFFFFFFFFFFFFFF2B
:1015B600FFFFFF040404FFFFFFFFFF04FFFFFFFF21
:1015C600FFFFFFFF0404FFFFFFFFFF04FFFFFFFF16
:1015D600FFFFFFFF04040FFFFFFFFF04FFFFFFFFF6
:1015E600FFFFFFFF040404FFFFFF0404FFFFFFFFEC
:1015F600FFFFFFFFFF04040FFFFF0404FFFFFFFFD1
:10160600FFFFFFFFFF04040FFFFF0404FFFFFFFFC0
:10161600FFFFFFFFFFFF0404FF04040FFFFFFFFFB0
:10162600FFFFFFFFFFFF04040F0404FFFFFFFFFFA0
:10163600FFFFFFFFFFFF0404040404FFFFFFFFFF9B
:10164600FFFFFFFFFFFFFF0404040FFF1010FFFF63
:101656000404FFFF04040FFFFFFF04040404FF0457
:101666000404FFFF04040FFFFFFF04040404FF0447
:10167600040FFFFF04040FFFFFFF04040FFFFF0426
:1016860004FFFFFF04040FFFFFFF04040FFF040421
:101696000FFFFFFF04040FFFFFFF04040FFF040406
:1016A6000FFFFFFF04040FFFFFFF04040FFF0404F6
:1016B600FFFFFFFF04040FFFFFFF04040FFF040FEB
:1016C600FFFFFFFF04040FFFFFFF04040FFF04FFEB
:1016D600FFFFFFFF04040FFFFFFF04040FFF04FFDB
:1016E600FFFFFFFF04040FFFFFFF04040FFF0FFFC0
:1016F600FFFFFFFF04040FFFFFFF04040FFFFFFFC0
:10170600FFFFFFFF04040FFFFFFF04040FFFFFFFAF
:10171600FFFFFFFF04040FFFFFFF04040FFFFFFF9F
:10172600FFFFFFFF04040FFFFFFF04040FFFFFFF8F
:10173600FFFFFFFF04040FFFFFFF04040404FFFF85
:10174600FFFFFFFF04040FFFFFFF04040404101053
:1017560004040404040FFFFFFFFFFFFF0404040456
:1017660004040404040404FFFFFFFFFF040404044C
:10177600FFFFFFFFFF040404FFFFFFFF04040FFF4A
:10178600FFFFFFFFFFFF04040FFFFFFF04040FFF2F
:10179600FFFFFFFFFFFF040404FFFFFF04040FFF2A
:1017A600FFFFFFFFFFFFFF0404FFFFFF04040FFF1F
:1017B600FFFFFFFFFFFFFF04040FFFFF04040FFFFF
:1017C600FFFFFFFFFFFFFF04040FFFFF04040404F5
:1017D600FFFFFFFFFFFFFF04040FFFFF04040404E5
:1017E600FFFFFFFFFFFFFF04040FFFFF04040FFFCF
:1017F600FFFFFFFFFFFFFF0404FFFFFF04040FFFCF
:10180600FFFFFFFFFFFF040404FFFFFF04040FFFB9
:10181600FFFFFFFFFFFF04040FFFFFFF04040FFF9E
:10182600FFFFFFFFFF040404FFFFFFFF04040FFF99
:1018360004040404040404FFFFFFFFFF040404047B
:1018460004040404040FFFFFFFFFFFFF0404040465
:10185600101004040404040404040FFFFFFFFFFF38
:10186600FF0404040404040404040FFFFFFFFF0440
:101876000404FFFFFFFFFFFFFFFFFFFFFFFF04045E
:10188600040FFFFFFFFFFFFFFFFFFFFFFF0404043E
:10189600FFFFFFFFFFFFFFFFFFFFFFFFFF04040F38
:1018A600FFFFFFFFFFFFFFFFFFFFFFFFFF0404FF38
:1018B600FFFFFFFFFFFFFFFFFFFFFFFF04040FFF18
:1018C600FFFF040404040404040FFFFF04040FFFD5
:1018D600FFFF040404040404040FFFFF04040FFFC5
:1018E600FFFFFFFFFFFFFFFFFFFFFFFF04040FFFE8
:1018F600FFFFFFFFFFFFFFFFFFFFFFFFFF0404FFE8
:10190600FFFFFFFFFFFFFFFFFFFFFFFFFF04040FC7
:10191600FFFFFFFFFFFFFFFFFFFFFFFFFF040404C2
:10192600FFFFFFFFFFFFFFFFFFFFFFFFFFFF0404B7
:10193600040F04040404040404040FFFFFFFFF045F
:10194600040404040404040404040FFFFFFFFFFF5F
:10195600FF0410100404040404FFFFFFFFFFFFFF51
:10196600FFFFFFFF0404040404040FFFFFFFFFFF53
:10197600FFFFFFFFFFFFFFFF0404040FFFFFFFFF52
:10198600FFFFFFFFFFFFFFFFFFFF04040FFFFFFF47
:10199600FFFFFFFFFFFFFFFFFFFF040404FFFFFF42
:1019A600FFFFFFFFFFFFFFFFFFFFFF04040FFFFF27
:1019B600FFFFFFFFFFFFFFFFFFFFFF04040FFFFF17
:1019C600FFFFFFFFFFFFFFFFFFFFFF04040FFFFF07
:1019D600FFFFFFFFFFFFFFFFFFFFFF04040FFFFFF7
:1019E600FFFFFFFFFFFFFFFFFFFFFF04040FFFFFE7
:1019F600FFFFFFFFFFFFFFFFFFFFFF04040FFFFFD7
:101A0600FFFFFFFFFFFFFFFFFFFF040404FFFFFFD1
:101A1600FFFFFFFFFFFFFFFFFFFF04040FFFFFFFB6
:101A2600FFFFFFFFFFFFFFFF04040404FFFFFFFFAC
:101A3600FFFFFFFF0404040404040FFFFFFFFFFF82
:101A4600FFFFFFFF0404040404FFFFFFFFFFFFFF87
:101A5600FFFFFFFF1010FFFFFFFFFF040404040455
:101A6600040FFFFFFFFFFFFFFFFF0404040404044D
:101A7600040404FFFFFFFFFFFF040404FFFFFFFF52
:101A8600FF040404FFFFFFFF040404FFFFFFFFFF42
:101A9600FFFF04040FFFFFFF04040FFFFFFFFFFF1C
:101AA600FFFF04040FFFFFFFFF0404FFFFFFFFFF1C
:101AB600FFFFFFFFFFFFFFFFFF0404040404FFFF17
:101AC600FFFFFFFFFFFFFFFFFFFF04040404040402
:101AD6000404FFFFFFFFFFFFFFFFFFFFFF040404F7
:101AE6000404040FFFFFFFFFFFFFFFFFFFFFFFFFE1
:101AF600FF0404040FFFFF04040FFFFFFFFFFFFFB7
:101B0600FFFF04040FFFFFFF0404FFFFFFFFFFFFBB
:101B1600FFFF04040FFFFFFF04040FFFFFFFFFFF9B
:101B2600FFFF04040FFFFFFF04040404FFFFFFFF91
:101B3600FF040404FFFFFFFFFF040404040404047D
:101B4600040404FFFFFFFFFFFFFFFF040404040477
:101B5600040FFFFFFFFF1010FF04040FFFFFFFFF3E
:101B6600FFFFFF0404040404FF04040FFFFFFFFF4C
:101B7600FF04040404040404FF04040FFFFFFFFF32
:101B860004040404FFFFFFFFFF04040FFFFFFFFF31
:101B960004040FFFFFFFFFFFFF04040FFFFFFF0416
:101BA600040FFFFFFFFFFFFFFF04040FFFFFFF040B
:101BB60004FFFFFFFFFFFFFFFF04040FFFFFFF040B
:101BC60004FFFFFFFFFFFFFFFF04040FFFFF0404F6
:101BD60004FFFFFFFFFFFFFFFF04040FFFFF0404E6
:101BE6000FFFFFFFFFFF0404FF04040FFFFFFF04C6
:101BF60004FFFFFFFFFF0404FF04040FFFFFFF04C1
:101C060004FFFFFFFFFFFFFFFF04040FFFFFFF04BA
:101C1600040FFFFFFFFFFFFFFF04040FFFFFFFFF9F
:101C260004040FFFFFFFFFFFFF04040FFFFFFFFF8A
:101C360004040404FFFFFFFFFF04040FFFFFFFFF80
:101C4600FF04040404040404FF04040FFFFFFFFF61
:101C5600FFFFFFFF0404040410100404FFFFFFFF4E
:101C6600FFFFFF04040FFFFFFFFF0404040FFFFF45
:101C7600FFFFFF040404FFFFFFFFFF0404040FFF40
:101C8600FFFFFF0404040FFFFFFFFFFFFF0404FF35
:101C9600FFFFFF04040404FFFFFFFFFFFF04040F20
:101CA600FFFFFF040404040FFFFFFFFFFFFFFFFF1A
:101CB600FFFFFF0404FF04040FFFFFFFFFFFFFFF0A
:101CC600FFFFFF0404FFFF0404FFFFFFFFFFFFFF0A
:101CD600FFFFFF0404FFFF04040F040404040404CC
:101CE600FFFFFF0404FFFFFF0404040404040404CC
:101CF600FFFFFF0404FFFFFF0404FFFFFF040404CB
:101D0600FFFFFF0404FFFFFFFF04FFFFFF040404BF
:101D1600FFFFFF0404FFFFFFFFFFFFFFFF040404B4
:101D2600FFFFFF0404FFFFFFFFFFFFFF040404049F
:101D3600FFFFFF0404FFFFFFFFFF040404040FFF7F
:101D4600FFFFFF0404FFFFFFFFFF0404FFFFFFFF89
:101D5600FFFFFF0404FFFFFFFFFF1010FFFFFF045C
:101D660004FFFFFFFFFFFFFFFF040404FFFFFF0464
:101D760004FFFFFFFFFFFFFF04040404FFFFFF044F
:101D860004FFFFFFFFFFFFFF04040404FFFFFF043F
:101D960004FFFFFFFFFFFF040404FF04FFFFFF042F
:101DA60004FFFFFFFFFFFF04040FFF04FFFFFF0414
:101DB60004FFFFFFFFFFFF0404FFFFFFFFFFFF0419
:101DC60004FFFFFFFFFF04040FFFFFFFFFFFFF04F9
:101DD60004FFFFFFFFFF04040FFFFFFFFFFFFF04E9
:101DE60004FFFFFFFF040404FFFFFFFF0FFFFF04D4
:101DF60004FFFFFFFF04040404040404040FFF04AB
:101E060004FFFFFFFF040404040404040404FF04A5
:101E160004FFFFFF04040FFFFFFFFFFF04040F048E
:101E260004FFFFFF0404FFFFFFFFFFFFFF0404049E
:101E360004FFFF040404FFFFFFFFFFFFFFFF04048E
:101E460004FFFF04040FFFFFFFFFFFFFFFFF040473
:101E560004FFFF0404FFFFFFFFFFFFFF1010FFFF5B
:101E6600FFFFFFFFFFFF0404FFFFFFFFFFFF0FFF62
:101E7600FFFFFFFFFFFF0404FFFFFFFFFFFF0FFF52
:101E8600FFFFFFFFFFFF0404FFFFFFFFFFFF04FF4D
:101E9600FFFFFFFFFFFF0404FFFFFFFFFFFF040F2D
:101EA600FFFFFFFFFFFF0404FFFFFFFFFFFF040428
:101EB600FFFFFFFFFFFF0404FFFFFFFFFFFF040418
:101EC6000FFFFFFFFFFF0404FFFFFFFFFFFF0404F8
:101ED6000FFFFFFFFFFF0404FFFFFFFFFFFFFF04ED
:101EE60004FFFFFFFFFF0404FFFFFFFFFFFF0404E3
:101EF600040FFFFFFFFF0404FFFFFFFFFFFF0404C3
:101F06000404FFFFFFFF0404FFFFFFFFFFFFFFFFC7
:101F160004040FFFFFFF0404FFFFFFFFFFFFFFFFA7
:101F260004040FFFFFFF0404FFFFFFFFFFFFFFFF97
:101F3600FF0404FFFFFF0404FFFFFFFFFFFFFFFF97
:101F4600FF04040FFFFF0404040404040404FFFF59
:101F5600FFFF0404FFFF0404040404040404101037
:101F6600FFFFFFFFFFFFFFFFFFFFFFFFFFFFFFFF7B
:101F7600FFFFFFFFFFFFFFFFFFFFFFFFFFFFFFFF6B
:101F8600FFFFFFFFFFFFFFFFFFFFFFFFFFFFFFFF5B
:101F9600FFFFFFFFFFFFFFFFFFFFFFFFFFFFFFFF4B
:101FA600FFFFFFFFFFFFFFFFFFFFFFFFFFFFFFFF3B
:101FB600FFFFFFFFFFFFFFFFFFFFFFFFFFFFFFFF2B
:101FC600FFFFFFFFFFFFFFFFFFFFFFFFFFFFFFFF1B
:101FD600FFFFFFFFFFFFFFFFFFFFFFFFFFFFFFFF0B
:101FE6001010FFFFFFFFFFFFFFFFFFFFFFFFFFFFD9
:101FF600FFFFFFFFFFFFFFFFFFFFFFFFFFFFFFFFEB
:10200600FFFFFFFFFFFFFFFFFFFFFFFFFFFFFFFFDA
:10201600FFFFFFFFFFFFFFFFFFFFFFFFFFFFFFFFCA
:10202600FFFFFFFFFFFFFFFFFFFFFFFFFFFFFFFFBA
:10203600FFFFFFFFFFFFFFFFFFFFFFFFFFFFFFFFAA
:10204600FFFFFFFFFFFFFFFFFFFFFFFFFFFFFFFF9A
:10205600FFFFFFFFFFFFFFFFFFFFFFFFFFFFFFFF8A
:10206600FFFF1010FFFFFFFFFFFFFFFFFFFFFFFF58
:10207600FFFFFFFFFFFFFFFFFFFFFFFFFFFFFFFF6A
:10208600FFFFFFFFFFFFFFFFFFFFFFFFFFFFFFFF5A
:10209600FFFFFFFFFFFFFFFFFFFFFFFFFFFFFFFF4A
:1020A600FFFFFFFFFFFFFFFFFFFFFFFFFFFFFFFF3A
:1020B600FFFFFFFFFFFFFFFFFFFFFFFFFFFFFFFF2A
:1020C600FFFFFFFFFFFFFFFFFFFFFFFFFFFFFFFF1A
:1020D600FFFFFFFFFFFFFFFFFFFFFFFFFFFFFFFF0A
:1020E600FFFFFFFF1010FFFFFFFFFFFFFFFFFFFFD8
:1020F600FFFFFFFFFFFFFFFFFFFFFFFFFFFFFFFFEA
:10210600FFFFFFFFFFFFFFFFFFFFFFFFFFFFFFFFD9
:10211600FFFFFFFFFFFFFFFFFFFFFFFFFFFFFFFFC9
:10212600FFFFFFFFFFFFFFFFFFFFFFFFFFFFFFFFB9
:10213600FFFFFFFFFFFFFFFFFFFFFFFFFFFFFFFFA9
:10214600FFFFFFFFFFFFFFFFFFFFFFFFFFFFFFFF99
:10215600FFFFFFFFFFFFFFFFFFFFFFFFFFFFFFFF89
:10216600FFFFFFFFFFFF1010FFFFFFFFFFFFFFFF57
:10217600FFFFFFFFFFFFFFFFFFFFFFFFFFFFFFFF69
:10218600FFFFFFFFFFFFFFFFFFFFFFFFFFFFFFFF59
:10219600FFFFFFFFFFFFFFFFFFFFFFFFFFFFFFFF49
:1021A600FFFFFFFFFFFFFFFFFFFFFFFFFFFFFFFF39
:1021B600FFFFFFFFFFFFFFFFFFFFFFFFFFFFFFFF29
:1021C600FFFFFFFFFFFFFFFFFFFFFFFFFFFFFFFF19
:1021D600FFFFFFFFFFFFFFFFFFFFFFFFFFFFFFFF09
:1021E600FFFFFFFFFFFFFFFF1010FFFFFF0000FFD5
:1021F600FFFFFFFFF000000FFFFFFFFF002222009E
:10220600FFFFFFFF00222200FFFFFFF00220022057
:102216000FFFFFF0022002200FFFFF002200002226
:1022260000FFFF00220FF02200FFF002200FF00255
:10223600200FF00220000002200F0022222222227C
:102246002200002222222222220000220000000078
:102256002200002200FFFF002200002200FFFF00F4
:102266002200000000FFFF00000010100000000028
:10227600000000FF022222222222000F0222222236
:10228600222220000002200000222200F00220FF6D
:10229600F0022200F00220FFF0022200F0022000ED
:1022A6000022200FF0022222222200FFF002222228
:1022B600222200FFF00220000022200FF00220FF61
:1022C600F0022200F00220FFF002220000022000AD
:1022D6000022220002222222222220000222222280
:1022E6002222000F00000000000000FF1010101056
:1022F60010101010101010101010101010101010D8
:022306001010B5
:05A38500E47898F222CB
:05A38A007898EFF222BB
:0A7BF10078AFEFF208ECF208EDF2B5
:107BFB0078AFE2FF25E0F2E22408F278B6F278B033
:107C0B00E2FE08E27803C333CE33CED8F979B1F371
:107C1B00EE19F378B1E22408F218E23400F2AF0364
:107C2B007E007C017D021259FF74262FF974003EF1
:107C3B00FA78B774FFF208EAF208E9F278B7E2FBD8
:107C4B000808E2F92401F218E2FA3400F21259A7FB
:107C5B0078B2F278B7E2FB0808E2F92401F218E2F5
:107C6B00FA3400F21259A778B3F2E408F278B2E2D0
:107C7B00FF78B4E2C39F4003027DF2E408F278B3CD
:107C8B00E2FF78B5E2C39F4003027DD978B7E2FBF0
:107C9B0008E2FA08E2F91259A7FF7898E22F78D890
:107CAB00F2E4FB7D02FF129EF078B7E2FB08E2FAEA
:107CBB0008E2F99000011259C0FF7898E22F78D8AA
:107CCB00F27B017D02E4FF129EF078B7E2FB08E243
:107CDB00FA08E2F99000021259C0FF7898E22F7867
:107CEB00D8F27B027D02E4FF129EF078B7E2FB082C
:107CFB00E2FA08E2F99000031259C0FF7898E22FDC
:107D0B0078D8F27B037D02E4FF129EF078D8748062
:107D1B00F27B047D02E4FF129EF078B9E22404F2B8
:107D2B0018E23400F278B6E278D8F27B057D02E4F3
:107D3B00FF129EF078B008E278D8F27B077D02E460
:107D4B00FF129EF078B0E27E007802C333CE33CEC2
:107D5B00D8F978D8F27B097D02E4FF129EF07B0AFA
:107D6B007D02E4FF129F2EEF543F448078D8F27BC4
:107D7B000A7D02E4FF129EF07B0A7D02E4FF129F54
:107D8B002EEF20E7F378B0E225E025E0440878D821
:107D9B00F27B097D02E4FF129EF07B0A7D02E4FF79
:107DAB00129F2EEF543F448078D8F27B0A7D02E479
:107DBB00FF129EF07B0A7D02E4FF129F2EEF20E75D
:107DCB00F378B6E204F218E22404F2027C8978AF6D
:107DDB00E278B6F278B1E22401F218E23400F278DC
:077DEB00B4E204F2027C780F
:017DF200226E
:0A971D0078A8EFF208EDF208EBF275
:1097270008E2FB08E2FA08E2F912000E78AEEFF25F
:10973700C364809480404D78A8E230E03A78A9E28B
:10974700FF08E2FD7C0008E2FB08E2FA08E2F912F2
:1097570059A7FB127BF178AEE214F218E22401F26A
:1097670018E23400F278A9E22402F278AEE2D36478
:1097770080948050C8800A78AEE2D3648094805089
:04978700F612A3959E
:01978B0022BB
:10A040000500000600000700000800000900000AE3
:10A05000000012000020000B000C000D000E001389
:0CA060001415161718191A1B1C1D1E00E1
:03A36E00012100CA
:1098F60012887712A3857F0412A38F7F0312A39287
:10990600E4F527AF2712A11578A9E4F2087426F228
:109916007B5AE4FDFCFF128C030527E527C394065A
:1099260040E17F01129CD37FFF12A3927F0812A110
:109936001578A9E4F2087426F27B5AE4FDFCFF12BE
:069946008C03E47853F2EB
:01994C0022F8
:10398A0078A5EBF208EAF208E9F27F0212A38F7F28
:10399A00FF12A3927855E2125B0939D21139E82154
:1039AA003A50223A9C313B1E333BA2343C40413DC3
:1039BA0014913D45A13DAFA23E19B13EB9B33F595D
:1039CA00B43FF9C1000040CE78A5E2FB08E2FA084C
:1039DA00E2F91259A720E1030240CE023D2778A559
:1039EA00E2FB08E2FA08E2F91259A730E123785615
:1039FA00E275F003A42440F974A035F0FA78AB74A8
:103A0A00FFF208EAF208E9F2E4FB7D297F01129746
:103A1A001D78A5E2FB08E2FA08E2F99000011259C2
:103A2A00C020E1030240CE7857E275F003A4244097
:103A3A00F974A035F0FA78AB74FFF208EAF208E9F3
:103A4A00F27B0F023DAA78A5E2FB08E2FA08E2F946
:103A5A001259A730E1237856E275F003A42440F9FD
:103A6A0074A035F0FA78AB74FFF208EAF208E9F2CA
:103A7A00E4FB7D147F0112971D78A5E2FB08E2FAA8
:103A8A0008E2F99000011259C020E1030240CE0277
:103A9A003DF878A5E2FB08E2FA08E2F91259A730E4
:103AAA00E1237856E275F003A42440F974A035F0B6
:103ABA00FA78AB74FFF208EAF208E9F2E4FB7D292E
:103ACA007F0112971D78A5E2FB08E2FA08E2F99055
:103ADA0000011259C030E1237857E275F003A4249B
:103AEA0040F974A035F0FA78AB74FFF208EAF208EC
:103AFA00E9F27B0F7D147F0112971D78A5E2FB087E
:103B0A00E2FA08E2F99000021259C020E1030240E9
:103B1A00CE023B9D78A5E2FB08E2FA08E2F91259C7
:103B2A00A730E1237856E275F003A42440F974A083
:103B3A0035F0FA78AB74FFF208EAF208E9F2E4FB2E
:103B4A007D147F0112971D78A5E2FB08E2FA08E2CC
:103B5A00F99000011259C030E1237857E275F00359
:103B6A00A42440F974A035F0FA78AB74FFF208EA9D
:103B7A00F208E9F2E4FB7D3E7F0112971D78A5E287
:103B8A00FB08E2FA08E2F99000021259C020E103A8
:103B9A000240CE7858023CF778A5E2FB08E2FA0820
:103BAA00E2F91259A730E1237856E275F003A4240A
:103BBA0040F974A035F0FA78AB74FFF208EAF2081B
:103BCA00E9F2E4FB7D147F0112971D78A5E2FB0858
:103BDA00E2FA08E2F99000011259C030E12378575D
:103BEA00E275F003A42440F974A035F0FA78AB74B6
:103BFA00FFF208EAF208E9F2E4FB7D3E7F01129740
:103C0A001D78A5E2FB08E2FA08E2F99000021259CF
:103C1A00C020E1030240CE7858E275F003A42440A4
:103C2A00F974A035F0FA78AB74FFF208EAF208E901
:103C3A00F27B0F023FF478A5E2FB08E2FA08E2F908
:103C4A001259A730E1237856E275F003A42440F90B
:103C5A0074A035F0FA78AB74FFF208EAF208E9F2D8
:103C6A00E4FB7D147F0112971D78A5E2FB08E2FAB6
:103C7A0008E2F99000011259C030E1237857E27541
:103C8A00F003A42440F974A035F0FA78AB74FFF27B
:103C9A0008EAF208E9F2E4FB7D3E7F0112971D78FB
:103CAA00A5E2FB08E2FA08E2F99000021259C030D4
:103CBA00E1237858E275F003A42440F974A035F0A2
:103CCA00FA78AB74FFF208EAF208E9F27B0F7D1486
:103CDA007F0112971D78A5E2FB08E2FA08E2F99043
:103CEA0000031259C020E1030240CE7859E275F070
:103CFA0003A42440F974A035F0FA78AB74FFF208F3
:103D0A00EAF208E9F27B0F023E1478A5E2FB08E228
:103D1A00FA08E2F91259A720E1030240CE7856E2E6
:103D2A0075F003A42440F974A035F0FA78AB74FF57
:103D3A00F208EAF208E9F2E4FB806578A5E2FB08FA
:103D4A00E2FA08E2F91259A730E1237856E275F04F
:103D5A0003A42440F974A035F0FA78AB74FFF20892
:103D6A00EAF208E9F2E4FB7D297F0112971D78A5A2
:103D7A00E2FB08E2FA08E2F99000011259C020E1D8
:103D8A00030240CE7857E275F003A42440F974A0E8
:103D9A0035F0FA78AB74FFF208EAF208E9F27B121E
:103DAA007D290240C978A5E2FB08E2FA08E2F91285
:103DBA0059A730E1237856E275F003A42440F97438
:103DCA00A035F0FA78AB74FFF208EAF208E9F2E4F7
:103DDA00FB7D147F0112971D78A5E2FB08E2FA0821
:103DEA00E2F99000011259C020E1030240CE78574F
:103DFA00E275F003A42440F974A035F0FA78AB74A4
:103E0A00FFF208EAF208E9F2E4FB7D3E0240C978D3
:103E1A00A5E2FB08E2FA08E2F91259A730E1237891
:103E2A0056E275F003A42440F974A035F0FA78AB91
:103E3A0074FFF208EAF208E9F2E4FB7D297F011235
:103E4A00971D78A5E2FB08E2FA08E2F99000011250
:103E5A0059C030E1237857E275F003A42440F9747D
:103E6A00A035F0FA78AB74FFF208EAF208E9F27BBF
:103E7A00127D147F0112971D78A5E2FB08E2FA0869
:103E8A00E2F99000021259C020E1030240CE7858AC
:103E9A00E275F003A42440F974A035F0FA78AB7403
:103EAA00FFF208EAF208E9F27B127D3E0240C97885
:103EBA00A5E2FB08E2FA08E2F91259A730E12378F1
:103ECA0056E275F003A42440F974A035F0FA78ABF1
:103EDA0074FFF208EAF208E9F2E4FB7D147F0112AA
:103EEA00971D78A5E2FB08E2FA08E2F990000112B0
:103EFA0059C030E1237857E275F003A42440F974DD
:103F0A00A035F0FA78AB74FFF208EAF208E9F2E4B5
:103F1A00FB7D3E7F0112971D78A5E2FB08E2FA08B5
:103F2A00E2F99000021259C020E1030240CE78580B
:103F3A00E275F003A42440F974A035F0FA78AB7462
:103F4A00FFF208EAF208E9F27B127D3E0240C978E4
:103F5A00A5E2FB08E2FA08E2F91259A730E1237850
:103F6A0056E275F003A42440F974A035F0FA78AB50
:103F7A0074FFF208EAF208E9F2E4FB7D147F011209
:103F8A00971D78A5E2FB08E2FA08E2F9900001120F
:103F9A0059C030E1237857E275F003A42440F9743C
:103FAA00A035F0FA78AB74FFF208EAF208E9F2E415
:103FBA00FB7D3E7F0112971D78A5E2FB08E2FA0815
:103FCA00E2F99000021259C020E1030240CE78586B
:103FDA00E275F003A42440F974A035F0FA78AB74C2
:103FEA00FFF208EAF208E9F27B127D140240C9786E
:103FFA00A5E2FB08E2FA08E2F91259A730E12378B0
:10400A0056E275F003A42440F974A035F0FA78ABAF
:10401A0074FFF208EAF208E9F2E4FB7D147F011268
:10402A00971D78A5E2FB08E2FA08E2F9900001126E
:10403A0059C030E1237857E275F003A42440F9749B
:10404A00A035F0FA78AB74FFF208EAF208E9F2E474
:10405A00FB7D3E7F0112971D78A5E2FB08E2FA0874
:10406A00E2F99000021259C030E1237858E275F063
:10407A0003A42440F974A035F0FA78AB74FFF2086F
:10408A00EAF208E9F27B127D147F0112971D78A5E6
:10409A00E2FB08E2FA08E2F99000031259C030E1A3
:1040AA00237859E275F003A42440F974A035F0FA94
:1040BA0078AB74FFF208EAF208E9F27B127D3E7FE0
:0540CA000112971D2208
:07A372007854E24480F2225E
:109064007B787D01E4FF129F2EEF540FFF7863F2AB
:109074007854E26F70030291177B31E4FDFF129F75
:109084002EEF547F78D8F27B31E4FDFF129EF0205E
:1090940021767F0312A38F7F0212A23A7F0212A1CC
:1090A400151231A8785BE230E1477853E224FE6080
:1090B4001B04703D7F0312A3927F0412A38F78AB2D
:1090C40074FFF20874A0F208744F80167F0312A391
:1090D400927F0412A38F78AB74FFF20874A0F20895
:1090E4007452F2E4FB7D017F0112971D7FFF12A3EE
:1090F400927BFE7A00795B12398A1247F4124ED3BE
:109104001275B77F02129CD312A385D2217863E231
:049114007854F22277
:0675B7007BFE7A00795B07
:0A75BD0078A5EBF208EAF208E9F203
:1075C7007F4112A38F7855E2125B0975FA1176177E
:1075D7002176842276F431774033778A3475FA91AD
:1075E7007617A17684A276F4B17740B3778AB40090
:1075F7000077DB78A5E2FB08E2FA08E2F91259A75F
:10760700540C1313543FF527600302770B027736A8
:1076170078A5E2FB08E2FA08E2F91259A7540C131D
:1076270013543FF527602F7B02E4FDFCFF128D0DFD
:10763700E52725E0FFE433FE74552FF974A03EFAE1
:1076470078AB74FFF208EAF208E9F2E4FB7D1C7FED
:107657000112971D800A7B01E4FDFC7F1C128D0D32
:1076670078A5E2FB08E2FA08E2F99000011259C096
:10767700540C1313543FF52760700277A478A5E2E2
:10768700FB08E2FA08E2F91259A7540C1313543F06
:10769700F527602F7B02E4FDFCFF128D0DE5272502
:1076A700E0FFE433FE74552FF974A03EFA78AB740B
:1076B700FFF208EAF208E9F2E4FB7D1C7F0112976A
:1076C7001D800A7B01E4FDFC7F1C128D0D78A5E26D
:1076D700FB08E2FA08E2F99000011259C0540C13B2
:1076E70013543FF52760030277A40277D178A5E208
:1076F700FB08E2FA08E2F91259A7540C1313543F96
:10770700F527602B7B02E4FDFCFF128D0DE5272595
:10771700E0FFE433FE74552FF974A03EFA78AB749A
:10772700FFF208EAF208E9F2E4FB7D310277CC7B4D
:1077370001E4FDFC7F310277D878A5E2FB08E2FA85
:1077470008E2F91259A7540C1313543FF527602A7E
:107757007B02E4FDFCFF128D0DE52725E0FFE433F6
:10776700FE74552FF974A03EFA78AB74FFF208EA5D
:10777700F208E9F2E4FB7D1C804B7B01E4FDFC7F12
:107787001C804E78A5E2FB08E2FA08E2F9900001B6
:107797001259C0540C1313543FF527602D7B02E494
:1077A700FDFCFF128D0DE52725E0FFE433FE745540
:1077B7002FF974A03EFA78AB74FFF208EAF208E9F1
:1077C700F2E4FB7D467F0102971D7B01E4FDFC7F10
:0477D70046128D0DBC
:0177DB00228B
:0647F4007BFE7A00795BF8
:1047FA0078A5EBF208EAF208E9F27F0C12A38F78A7
:10480A0055E2125B09483D11485321489E2248E966
:10481A0031496A3349EA344A7D414B46914B6EA18C
:10482A004BD2A24C35B14CCFB34D68B44E01C10046
:10483A00004ED278A5E2FB08E2FA08E2F91259A77B
:10484A0030E003024B56024B6778A5E2FB08E2FA16
:10485A0008E2F91259A730E01878AB74FFF208742D
:10486A00A0F208744CF2E4FB7D2C7F0112971D80A4
:10487A000A7B01E4FDFC7F2C128D0D78A5E2FB0872
:10488A00E2FA08E2F99000011259C030E003024B43
:10489A00B3024BC778A5E2FB08E2FA08E2F912591B
:1048AA00A730E01878AB74FFF20874A0F208744CD1
:1048BA00F2E4FB7D177F0112971D800A7B01E4FD5C
:1048CA00FC7F17128D0D78A5E2FB08E2FA08E2F9DF
:1048DA009000011259C030E003024C17024C2B78A9
:1048EA00A5E2FB08E2FA08E2F91259A730E01878C3
:1048FA00AB74FFF20874A0F208744CF2E4FB7D2C4E
:10490A007F0112971D800A7B01E4FDFC7F2C128D2A
:10491A000D78A5E2FB08E2FA08E2F99000011259C3
:10492A00C030E01878AB74FFF20874A0F208744C37
:10493A00F27B0F7D177F0112971D800B7B017D0F84
:10494A007C007F17128D0D78A5E2FB08E2FA08E2D7
:10495A00F99000021259C030E003024B2D024B3F7E
:10496A0078A5E2FB08E2FA08E2F91259A730E01842
:10497A0078AB74FFF20874A0F208744CF2E4FB7D81
:10498A00177F0112971D800A7B01E4FDFC7F171235
:10499A008D0D78A5E2FB08E2FA08E2F9900001120F
:1049AA0059C030E01878AB74FFF20874A0F20874AA
:1049BA004CF2E4FB7D417F0112971D800A7B01E4E2
:1049CA00FDFC7F41128D0D78A5E2FB08E2FA08E2B0
:1049DA00F99000021259C030E003024B2D024B3FFE
:1049EA0078A5E2FB08E2FA08E2F91259A730E018C2
:1049FA0078AB74FFF20874A0F208744CF2E4FB7D01
:104A0A00177F0112971D800A7B01E4FDFC7F1712B4
:104A1A008D0D78A5E2FB08E2FA08E2F9900001128E
:104A2A0059C030E01878AB74FFF20874A0F2087429
:104A3A004CF2E4FB7D417F0112971D800A7B01E461
:104A4A00FDFC7F41128D0D78A5E2FB08E2FA08E22F
:104A5A00F99000021259C030E01278AB74FFF208E4
:104A6A0074A0F208744CF27B0F024DF17B017D0FAA
:104A7A00024DFA78A5E2FB08E2FA08E2F91259A710
:104A8A0030E01878AB74FFF20874A0F208744CF2A4
:104A9A00E4FB7D177F0112971D800A7B01E4FDFC70
:104AAA007F17128D0D78A5E2FB08E2FA08E2F99069
:104ABA0000011259C030E01878AB74FFF20874A0F4
:104ACA00F208744CF2E4FB7D417F0112971D800AC3
:104ADA007B01E4FDFC7F41128D0D78A5E2FB08E223
:104AEA00FA08E2F99000021259C030E01878AB7463
:104AFA00FFF20874A0F208744CF27B0F7D177F0155
:104B0A0012971D800B7B017D0F7C007F17128D0D84
:104B1A0078A5E2FB08E2FA08E2F99000031259C00C
:104B2A0030E01278AB74FFF20874A0F208744CF209
:104B3A007B0F024C267B017D0F024CC878A5E2FB55
:104B4A0008E2FA08E2F91259A730E01178AB74FFCB
:104B5A00F20874A0F208744CF2E4FB805B7B01E477
:104B6A00FDFC805F78A5E2FB08E2FA08E2F9125937
:104B7A00A730E01878AB74FFF20874A0F208744CFE
:104B8A00F2E4FB7D2C7F0112971D800A7B01E4FD74
:104B9A00FC7F2C128D0D78A5E2FB08E2FA08E2F9F7
:104BAA009000011259C030E01478AB74FFF2087417
:104BBA00A0F208744CF27B0F7D2C024EC27B017D61
:104BCA000F7C007F2C024ECF78A5E2FB08E2FA08A0
:104BDA00E2F91259A730E01878AB74FFF20874A012
:104BEA00F208744CF2E4FB7D177F0112971D800ACC
:104BFA007B01E4FDFC7F17128D0D78A5E2FB08E22C
:104C0A00FA08E2F99000011259C030E01478AB7446
:104C1A00FFF20874A0F208744CF2E4FB7D41024EE4
:104C2A00C27B01E4FDFC7F41024ECF78A5E2FB087E
:104C3A00E2FA08E2F91259A730E01878AB74FFF2E9
:104C4A000874A0F208744CF2E4FB7D2C7F011297E1
:104C5A001D800A7B01E4FDFC7F2C128D0D78A5E2F4
:104C6A00FB08E2FA08E2F99000011259C030E01894
:104C7A0078AB74FFF20874A0F208744CF27B127DD0
:104C8A00177F0112971D800B7B017D127C007F1715
:104C9A00128D0D78A5E2FB08E2FA08E2F99000020B
:104CAA001259C030E01478AB74FFF20874A0F2080D
:104CBA00744CF27B127D41024EC27B017D127C0054
:104CCA007F41024ECF78A5E2FB08E2FA08E2F91228
:104CDA0059A730E01878AB74FFF20874A0F2087490
:104CEA004CF2E4FB7D177F0112971D800A7B01E4D9
:104CFA00FDFC7F17128D0D78A5E2FB08E2FA08E2A7
:104D0A00F99000011259C030E01878AB74FFF2082C
:104D1A0074A0F208744CF2E4FB7D417F0112971DE6
:104D2A00800A7B01E4FDFC7F41128D0D78A5E2FB30
:104D3A0008E2FA08E2F99000021259C030E0147849
:104D4A00AB74FFF20874A0F208744CF27B127D4136
:104D5A00024EC27B017D127C007F41024ECF78A5B4
:104D6A00E2FB08E2FA08E2F91259A730E01878AB38
:104D7A0074FFF20874A0F208744CF2E4FB7D177F0A
:104D8A000112971D800A7B01E4FDFC7F17128D0D2D
:104D9A0078A5E2FB08E2FA08E2F99000011259C08C
:104DAA0030E01878AB74FFF20874A0F208744CF281
:104DBA00E4FB7D417F0112971D800A7B01E4FDFC23
:104DCA007F41128D0D78A5E2FB08E2FA08E2F9901C
:104DDA0000021259C030E01478AB74FFF20874A0D4
:104DEA00F208744CF27B127D17024EC27B017D12CF
:104DFA007C007F17024ECF78A5E2FB08E2FA08E2B0
:104E0A00F91259A730E01878AB74FFF20874A0F2CF
:104E1A0008744CF2E4FB7D177F0112971D800A7B10
:104E2A0001E4FDFC7F17128D0D78A5E2FB08E2FA7A
:104E3A0008E2F99000011259C030E01878AB74FF0B
:104E4A00F20874A0F208744CF2E4FB7D417F01126F
:104E5A00971D800A7B01E4FDFC7F41128D0D78A528
:104E6A00E2FB08E2FA08E2F99000021259C030E0C7
:104E7A001878AB74FFF20874A0F208744CF27B1233
:104E8A007D177F0112971D800B7B017D127C007FAD
:104E9A0017128D0D78A5E2FB08E2FA08E2F99000F4
:104EAA00031259C030E01678AB74FFF20874A0F20E
:104EBA0008744CF27B127D417F0102971D7B017DB4
:094ECA00127C007F41128D0D22C3
:064ED3007BFE7A00795B12
:104ED90078A5EBF208EAF208E9F27F0212A38F78CB
:104EE90055E2125B094F19114F2F214F7D224FC8EF
:104EF9003150493350C934515C415225915253A222
:104F090052B6B15350B353E9B45482C1000055535A
:104F190078A5E2FB08E2FA08E2F91259A730E4039E
:104F290002523502524978A5E2FB08E2FA08E2F991
:104F39001259A730E41878AB74FFF20874A0F2088C
:104F4900745DF2E4FB7D347F0112971D800A7B01B9
:104F5900E4FDFC7F34128D0D78A5E2FB08E2FA0826
:104F6900E2F91259A730E4030252357B017D0F7C27
:104F79000002524E78A5E2FB08E2FA08E2F912595A
:104F8900A730E41878AB74FFF20874A0F208745DD6
:104F9900F2E4FB7D1F7F0112971D800A7B01E4FD6E
:104FA900FC7F1F128D0D78A5E2FB08E2FA08E2F9F1
:104FB9009000011259C030E4030252980252AC78B1
:104FC900A5E2FB08E2FA08E2F91259A730E41878D9
:104FD900AB74FFF20874A0F208745DF2E4FB7D344F
:104FE9007F0112971D800A7B01E4FDFC7F34128D3D
:104FF9000D78A5E2FB08E2FA08E2F99000011259DE
:10500900C030E41878AB74FFF20874A0F208745D3C
:10501900F27B0F7D1F7F0112971D800B7B017D0F96
:105029007C007F1F128D0D78A5E2FB08E2FA08E2E9
:10503900F99000021259C030E40302520C02521EC8
:1050490078A5E2FB08E2FA08E2F91259A730E41858
:1050590078AB74FFF20874A0F208745DF2E4FB7D8A
:105069001F7F0112971D800A7B01E4FDFC7F1F123F
:105079008D0D78A5E2FB08E2FA08E2F99000011229
:1050890059C030E41878AB74FFF20874A0F20874C0
:105099005DF2E4FB7D497F0112971D800A7B01E4E3
:1050A900FDFC7F49128D0D78A5E2FB08E2FA08E2C2
:1050B900F99000021259C030E40302520C02521E48
:1050C90078A5E2FB08E2FA08E2F91259A730E418D8
:1050D90078AB74FFF20874A0F208745DF2E4FB7D0A
:1050E9001F7F0112971D800A7B01E4FDFC7F1F12BF
:1050F9008D0D78A5E2FB08E2FA08E2F990000112A9
:1051090059C030E41878AB74FFF20874A0F208743F
:105119005DF2E4FB7D497F0112971D800A7B01E462
:10512900FDFC7F49128D0D78A5E2FB08E2FA08E241
:10513900F99000021259C030E41278AB74FFF208FA
:1051490074A0F208745DF27B0F0254727B017D0F2B
:1051590002547B78A5E2FB08E2FA08E2F91259A7A2
:1051690030E41878AB74FFF20874A0F208745DF2A9
:10517900E4FB7D1F7F0112971D800A7B01E4FDFC82
:105189007F1F128D0D78A5E2FB08E2FA08E2F9907B
:1051990000011259C030E41878AB74FFF20874A00A
:1051A900F208745DF2E4FB7D497F0112971D800AC4
:1051B9007B01E4FDFC7F49128D0D78A5E2FB08E235
:1051C900FA08E2F99000021259C030E41878AB7479
:1051D900FFF20874A0F208745DF27B0F7D1F7F0156
:1051E90012971D800B7B017D0F7C007F1F128D0D97
:1051F90078A5E2FB08E2FA08E2F99000031259C027
:1052090030E41278AB74FFF20874A0F208745DF20E
:105219007B0F0252A77B017D0F02534978A5E2FB60
:1052290008E2FA08E2F91259A730E41478AB74FFDE
:10523900F20874A0F208745DF2E4FB7D3402554370
:105249007B01E4FDFC7F3402555078A5E2FB08E2BE
:10525900FA08E2F91259A730E41878AB74FFF2089A
:1052690074A0F208745DF2E4FB7D1F7F0112971DA3
:10527900800A7B01E4FDFC7F1F128D0D78A5E2FBFE
:1052890008E2FA08E2F99000011259C030E41478F2
:10529900AB74FFF20874A0F208745DF2E4FB7D4977
:1052A9000255437B01E4FDFC7F4902555078A5E294
:1052B900FB08E2FA08E2F91259A730E41878AB744E
:1052C900FFF20874A0F208745DF2E4FB7D347F01FB
:1052D90012971D800A7B01E4FDFC7F34128D0D7845
:1052E900A5E2FB08E2FA08E2F99000011259C03080
:1052F900E41878AB74FFF20874A0F208745DF27BCD
:10530900127D1F7F0112971D800B7B017D127C008E
:105319007F1F128D0D78A5E2FB08E2FA08E2F990E9
:1053290000021259C030E41478AB74FFF20874A07B
:10533900F208745DF27B127D490255437B017D12AF
:105349007C007F4902555078A5E2FB08E2FA08E2A1
:10535900F91259A730E41878AB74FFF20874A0F277
:1053690008745DF2E4FB7D1F7F0112971D800A7BA3
:1053790001E4FDFC7F1F128D0D78A5E2FB08E2FA1E
:1053890008E2F99000011259C030E41878AB74FFB3
:10539900F20874A0F208745DF2E4FB7D497F011202
:1053A900971D800A7B01E4FDFC7F49128D0D78A5CC
:1053B900E2FB08E2FA08E2F99000021259C030E46F
:1053C9001478AB74FFF20874A0F208745DF27B12D2
:1053D9007D490255437B017D127C007F490255506E
:1053E90078A5E2FB08E2FA08E2F91259A730E418B5
:1053F90078AB74FFF20874A0F208745DF2E4FB7DE7
:105409001F7F0112971D800A7B01E4FDFC7F1F129B
:105419008D0D78A5E2FB08E2FA08E2F99000011285
:1054290059C030E41878AB74FFF20874A0F208741C
:105439005DF2E4FB7D497F0112971D800A7B01E43F
:10544900FDFC7F49128D0D78A5E2FB08E2FA08E21E
:10545900F99000021259C030E41478AB74FFF208D5
:1054690074A0F208745DF27B127D1F0255437B0123
:105479007D127C007F1F02555078A5E2FB08E2FAF5
:1054890008E2F91259A730E41878AB74FFF20874EE
:10549900A0F208745DF2E4FB7D1F7F0112971D8065
:1054A9000A7B01E4FDFC7F1F128D0D78A5E2FB0844
:1054B900E2FA08E2F99000011259C030E41878AB19
:1054C90074FFF20874A0F208745DF2E4FB7D497F71
:1054D9000112971D800A7B01E4FDFC7F49128D0DA5
:1054E90078A5E2FB08E2FA08E2F99000021259C035
:1054F90030E41878AB74FFF20874A0F208745DF216
:105509007B127D1F7F0112971D800B7B017D127C11
:10551900007F1F128D0D78A5E2FB08E2FA08E2F977
:105529009000031259C030E41678AB74FFF2087486
:10553900A0F208745DF27B127D497F0102971D7B01
:0B554900017D127C007F49128D0D22B5
:1031A8007863E2FD7854E26DF52508E2125B093197
:1031B800DF11321122328731333D3333F33434A9EE
:1031C80041359F9135DBA23657B13713B337CFB4AA
:1031D800388BC1000039897856E2FF74017E00A857
:1031E80007088005C333CE33CED8F9FFEF5D6012F0
:1031F80078AB74FFF20874A0F208745FF27B0D02DA
:1032080035CB7B057D0D0235D47856E2FF74017EFF
:1032180000A807088005C333CE33CED8F9FF7863FA
:10322800E2FDEF5D601878AB74FFF20874A0F20855
:10323800745FF27B0D7D0A7F0112971D800B7B0561
:103248007D0D7C007F0A128D0D7857E2FF74017E98
:1032580000A807088005C333CE33CED8F9FF7863BA
:10326800E2FDEF5D601278AB74FFF20874A0F2081B
:10327800745FF27B0D0236477B057D0D0236507870
:1032880056E2FF74017E00A807088005C333CE33D9
:10329800CED8F9FF7863E2FDEF5D601878AB74FF74
:1032A800F20874A0F208745FF27B077D1F7F011299
:1032B800971D800B7B057D077C007F1F128D0D7885
:1032C80057E2FF74017E00A807088005C333CE3398
:1032D800CED8F9FF7863E2FDEF5D601878AB74FF34
:1032E800F20874A0F208745FF27B157D0A7F011260
:1032F800971D800B7B057D157C007F0A128D0D784C
:1033080058E2FF74017E00A807088005C333CE3356
:10331800CED8F9FF7863E2FDEF5D601278AB74FFF9
:10332800F20874A0F208745FF27B150236477B0539
:103338007D150236507856E2FF74017E00A8070812
:103348008005C333CE33CED8F9FF7863E2FDEF5D55
:10335800601878AB74FFF20874A0F208745FF27B0F
:103368000D7D0A7F0112971D800B7B057D0D7C006A
:103378007F0A128D0D7857E2FF74017E00A80708B6
:103388008005C333CE33CED8F9FF7863E2FDEF5D15
